:100000000C94E60D0C940E0E0C940E0E0C940E0E29
:100010000C940E0E0C940E0E0C940E0E0C940E0EF0
:100020000C940E0E0C940E0E0C94A4200C9416211D
:100030000C940E0E0C940E0E0C940E0E0C940E0ED0
:100040000C940E0E0C940E0E0C940E0E0C940E0EC0
:100050000C940E0E0C940E0E0C940E0E0C94222882
:100060000C940E0E0C940E0E0C940E0E0C940E0EA0
:100070000C940E0E0C940E0E0C940E0E0C940E0E90
:100080000C94451C0C940E0E0C940E0E0C940E0E3B
:100090000C940E0E0C940E0E0C940E0E0C940E0E70
:1000A0000C940E0E0C940E0E0C940E0EEF122013E8
:1000B00020131913191315131513111311130D13FD
:1000C0000D1305130513091309130513051309135C
:1000D0000913672A832AEE2A6D2C6D2C6D2C682C4F
:1000E0006D2C6D2C6B2C6D2C702C702C702C832C2B
:1000F000832C832C792C4C1E4C1E4C1E6D1E6D1EA9
:100100006D1EC71EC71EC71EC71EC71EFC1EFC1EB7
:10011000FC1E4C1E4C1E090FE8D2D9ED76BB4EC713
:10012000B7DD6EB7DBED7636090FE8D3E974FCDB9B
:10013000ED76BBDD6E6703090F109BCE6EB7DB75E6
:100140003A36090FB8B2E9145FD7ABCF85A2ED6C90
:10015000DB5901090FBC92EE55A9A4D2AAAD53E414
:10016000E9E8B6B303090FF8B6CAF55FB9B5EBD441
:1001700036EEED6CDB5901090F38B39FEAB3977780
:100180000A4BDBD9B6B302090FBC924EA5FAECE5D7
:1001900054CEC9D9D3F9EC367A090FB8B29F6AA206
:1001A000745FBB8E773B7B3A5A090F38972ACA6B2C
:1001B000998E39BD1D5B090F5CA73EF54D96DBF5A9
:1001C000B950B79D1D20064B000000190075054B66
:1001D000000000190027054B000000190097044B90
:1001E000000000190017044B0000001900B8074B6D
:1001F0000000001900E0064B000000190010034B3E
:100200000000001900BA024B000000190093024BD5
:1002100000000019004B024B00000019000B024BBC
:100220000000001900DC034B000000190070034BB4
:10023000000000190088014B00000019005D014B0F
:1002400000000019004A014B000000190026014B74
:10025000000000190006014B0000001900EE014BE0
:100260000000001900B8014B0000001900C4004B49
:100270000000001900AF004B0000001900A5004B62
:10028000000000190093004B000000190083004B90
:100290000000001900F7004B0000001900DC004BC3
:1002A000000000190062004B000000190057004BCD
:1002B000000000190052004B000000190049004BDB
:1002C000000000190041004B00000019007B004BAA
:1002D00000000019006E004B000000190031004BB7
:1002E00000000019002C004B000000190029004BF1
:1002F000000000190025004B000000190021004BF0
:1003000000000019003E004B000000190037004BB0
:10031000000000190000804B024B0000000F004B52
:10032000024B0000000F004B024B0000000F0026A4
:10033000014B000080E0060F0017040F0027050F97
:100340000000800A081800600080002000400000C3
:1003500000600090002000000000000000801000FD
:1003600020800000800000200000000040090FA84D
:10037000D69D2BA2AC932A75BB08B3DBB106090F3F
:1003800088769D7A995DCBDA756AD46DD7B101090B
:100390000FB8969F6AA274D7ABCFCDBC9D753B2B8F
:1003A0000607A8D2E9743A2E0407723A9D8E0A060F
:1003B000077C3A9D4E470704079D4BA7A3030307FD
:1003C00088E5030792CC0407B8D2E99C5304077C64
:1003D0003A9D760E0607DE6EB7DBED76070407A5BD
:1003E0009276BB5D010607B7DBED76BBDD02040745
:1003F000A5926ABBDD020307F8743A0307759A10E9
:100400000407D476BB924A2A0407B7DBAD545201E5
:100410001507A54E472555552A1595F3D99C2293C6
:10042000AA2A958A4AEA745C95032907522E95AA4E
:100430004A95E272AA9295755452E5B3924AAAAAD5
:10044000542A6EE552A9544E71399F4E392EA9AAED
:1004500052A9A8A4AA64656B4A550A2907D369A9B9
:10046000A293AA9295ADA9F64A4DEF54252BEBB86D
:10047000944BA5AA52A5B89CAA64651D552A25557A
:100480002A2AE9F24949A94A010E07A54E47E57C07
:1004900036A7C8A44EC75571011307522E95AA4A14
:1004A00095E2522E954AE51497D4E9A8A44AA5529C
:1004B000394556390F07A5CB67B3924AAAAA542AE1
:1004C0002AE9F249C9553904050E11110E00121F0F
:1004D00010121915120A11150A06051F0417151511
:1004E000090E151508011905030A15150A12150933
:1004F000061907EA5455AA2AD59129974AA57215D3
:100500009972A9542AA7B8A4AA64656B2AA9AA5209
:10051000A9B82A2EF4F5F9F6F7F8FBFAFFFCFDFE70
:100520000002030401060508090A070B0C0E0F0060
:100530008801640000001400DC0364000000140063
:100540004B0264000000280017046400000014003F
:100550002705640000001400200664000000280045
:10056000008007050210030F0F041A001A011A0277
:100570001A0312010E020105100F00044105410586
:10058000410A4104410541054103C106410441A11D
:1005900024410541240223E1412309236103C105CC
:1005A000C1E1412B61036128012161410B610122FD
:1005B000612103C1042161412161296101C12161DE
:1005C00021012561012161412188226101226121EE
:1005D0000121046101216141210221022101C12285
:1005E0006103620121012361012161412102210294
:1005F00021022162246122C1236101216141210282
:100600002101C121022161210621012361026141F1
:10061000210224022161210124012104612162417E
:10062000216122022263210121C1220127610141AE
:100630002161034221622203210222C1046121417E
:1006400021610341036122A124A12761214121618C
:100650002304610F610141001A0E0312080509020B
:100660000E0A10000F0110010E020F020D030E03FF
:100670000C040D040C050E0607070108180A001FDC
:100680001F1F1FE1E11F1561226118612261C11462
:100690006127610D216104612101C101C101216155
:1006A00001216121610923612C612361082201C1BB
:1006B000022401C10361C102226107246102C10158
:1006C0002361016122610121610821C1216123614E
:1006D00001C101610161C12161C12161093261036F
:1006E0005C0009070308021403190C041700170122
:1006F00017021703090213031708040E0003491217
:100700004109410C42024103C20621610A420142F1
:10071000226128426108C142014123612B612243C9
:100720002161452263218721632184618361412204
:100730006101612102C1042161016121086141223D
:100740006101612107216101612101C104C10161D0
:10075000412261C16124612461C16121410641617D
:100760004129613061410622632202C104C103C1F3
:1007700001614186216201628E614101C1042161F2
:1007800003610E614107610361022B016144046151
:100790000361012301C12202C1012261412641619D
:1007A000C101C161022D000D0F03060508090D09E5
:1007B0000812001B001B011B021B031B041B051B53
:1007C000061603050509090E090007C104C10FC279
:1007D000306109220AC102C102611261286102C1AD
:1007E00003C10B61086128E104C102C10161156107
:1007F00026610BC1086106610661296101C10161C1
:100800000661066109612361066104C1016107C1D6
:10081000016106612361266104612506618804C1C6
:10082000026109C10161C10761266103C10127613C
:10083000076106612507610761136102C104610652
:10084000C10500040E030D0217090B0E051A00184E
:100850000119011A0118020E0208061809130C00EA
:100860005AE121619661E1E1E1216108220C61E137
:10087000C10121610261013561216102610123121F
:10088000612161026103210133610261026121037F
:10089000C1022101C1012101C1012101C102216166
:1008A000026102612261326102618261026125019D
:1008B00025062161026102610261042101C1210951
:1008C000216102610261026182610124618227610A
:1008D0000261026102610261056102276102610237
:1008E000610261026182610261022761026102614B
:1008F0000261026102610121612301C301216102E0
:10090000610261026102610261026123613761017A
:10091000C26125000B0E040D001701070207080134
:1009200013000F00180106020808000EC118286104
:1009300005C10BC109612161256105C125610761FF
:100940000161056123A123046187610161C1046123
:100950000B610761012701C1096107610823612754
:1009600061076188C10261076104C1026107C12991
:10097000022861042407C103C1076108256123A17E
:10098000236102C1026103C10961072E610561157E
:1009900061056101C10AC108613C000D0E040A0134
:1009A000110106051505020C000F000902120205CF
:1009B000061606000D22E117C1612261C1156126EC
:1009C0006113C1612661C111612A610FC1612A6190
:1009D000C10D612E610BC16103C80361C1096132A0
:1009E0006107C1613261C10561366104613661042C
:1009F0006116610461166104611661023C000B0E10
:100A00000303041A0A130B02030003011A0105026F
:100A10000F02100B001FE106C109C106C161A1212F
:100A200061046123610561236121022162022603C1
:100A3000612561036102C10162C10A61056103248C
:100A40000162A124092361210762014124072208D0
:100A500061210162014125052207612161026201D4
:100A6000412B04C1036103226101412B0323026175
:100A70000561014104230123086104C161014102B0
:100A8000C1012201C1012208610322610141612BE0
:100A900061266103226102610B610661032261022A
:100AA000611261033E00040A030A020F06180606DB
:100AB00000001B0000011B0100021B0202020F02CA
:100AC00018020E0600E11F1F156123A1366223A143
:100AD000366207228822076203C103C1216106C171
:100AE0002207620722610128022562022302226195
:100AF00007220222C122620221C1210222610722B1
:100B0000022562072862220222C1226202230228F1
:100B1000622202256202230222066101220762028A
:100B200023022205C161012204C102612A612961F7
:100B30002E02C1612601C101612700140102070CC8
:100B4000140C0F19001A011B021A031904180517B7
:100B500006160717081809190A1A0B1B0C1B0D1B80
:100B60000E060C080C130C150C001F1CA124622689
:100B7000651061032102610FC105610161210261FC
:100B80000F21C105622102610E23C10561210261AD
:100B90000D25C104612102610B2804612102610C51
:100BA000C12505612102610E2306612102610F2129
:100BB000076121026117612102610C612EA12903E5
:100BC0002F096121E13003C66122000E0A040801E9
:100BD0001401030518050B00001B0000011B010098
:100BE0000201020202030219021A021B0207011388
:100BF000010405190500E11F02C104C105C104C1BA
:100C0000092861036128E1E1E10C61036112612DB2
:100C10006106C105C16105C101C10561C104C127EA
:100C20006101C101C125C101C10161260761012422
:100C3000032401610AC1026106C1066101C10661A6
:100C4000366104611661046101C104C16127610656
:100C500061022A610761290A6107610BC107610707
:100C60006106C1022141214121412141214121410E
:100C70002141214121412141214121412141214164
:100C800000100F0306000F000609030200110016F2
:100C90000005000E00140A040F010281C1016A025E
:100CA000810381018101810181018103640181014D
:100CB000810181018101810581028101C166038178
:100CC0000481098102810381028104810281018101
:100CD000038103810269018101810381038101C1D3
:100CE00082028105810482048101C103810282069E
:100CF0008101810382C1680281028206C18105816E
:100D000002810281028105810481038101810381C5
:100D100003810281018104C1810881018105690289
:100D200081C181028102C181038103810481028129
:100D30000481038104810181058107C1820681014B
:100D40008102648107810281048108810281046A31
:100D50000281028108810481028105C18102C1648E
:100D600002860300090E040C0017000C0C140C0F73
:100D70001B001B011B021B031B041B051B061B077F
:100D80001B081B091B0A1B0B1B0C1B0D1B0E030056
:100D90001500060C180C0200000000000000000006
:100DA00000000000005353535353535353535353B2
:100DB0005353505353535353535353535353535306
:100DC0005063130313631303136313031363105369
:100DD00013531353135313531353135310531353E6
:100DE00013531353135313531353105313531353D6
:100DF00013531353135313531003130313031363A6
:100E00001303136313031053135313531353135345
:100E100013531353105313531353135313531353A5
:100E200013531063030303030303030303030303C5
:100E30000031111111111111111111111111103075
:100E4000000000006000600060000000003222220C
:100E500022222222222222222222203600000000E8
:100E600000000000000000006011111111111111AB
:100E700011111111111111110E030E061606040A9B
:100E800001180003000E001906070A0006C105C17B
:100E90000F613161056103610DC10361056102C12B
:100EA00029612905612B620E610327628761076151
:100EB0000321C101C12262086102C1046102C1258E
:100EC0006205612443246123056106610B610861A9
:100ED00006610B61086103C102610B6102C1612BF4
:100EE0006102C105C1026123610B61012901610336
:100EF000610B610B61036106C1046106C1046103FA
:100F00003C00080E0401011A0103021802010C033F
:100F100003001800030F180F00076116C1046111C8
:100F2000C102612201C102610FC1012262022202DB
:100F30006124E1612561032202620B62C104610741
:100F4000620BC162046107620B62C10C620BC16279
:100F50000C620B62C10C620BC1620C620B62C10CB1
:100F6000620BC1620C620B62C10C620BC1620C624B
:100F70000B62C10C6204613061046100090E020061
:100F800005130607190019011902190311041105A7
:100F900011060D0001050F061906000AC119612787
:100FA00002C10DC103610626072A6109C11161262C
:100FB000E12561220C610C61042A610C6103C12AE4
:100FC00061274203612E610C61042A6107C101831C
:100FD00061042206226107220361042202C2022266
:100FE0006105C10661042B61276103610F61072858
:100FF0006104C106610F613C00070F05030208058B
:101000000D051405130F0400000001010D070D0468
:101010000206021702190200E11C9B612105210D45
:101020002105216101250F250161012101230F21E6
:10103000C123016101250F25016101230121A13196
:10104000012101610125A12301C12201C1286121E2
:1010500001610125A131612101610125A1316121D8
:1010600001610125A1240429612101610125A12437
:101070000429612101610125A12403C161286121A5
:101080000161E185E1842461886102610A450C61A6
:1010900009450D000E0E0605021602020B0F0B1974
:1010A0000B080E040B0010000B01100102021902C4
:1010B0000D08040B01036C21032A022103210321E3
:1010C0000421022102C12102C12103C1A102210385
:1010D00021032104210221032A0221036703A10124
:1010E000210381058104A12103810581052102627B
:1010F00005816521022B0221E1E16AA1022109217A
:1011000002A10221092102A10221092101C1A1029A
:1011100021092102A10221E1E16AA10221022B029F
:101120002102620581652103810581052103810575
:101130008104A121036703A10121032A02210321C4
:1011400003210421022102C12102C12103C1A10204
:10115000210321032104210221032A0221036C21FE
:1011600000090E040D0213030205170E030200020C
:101170000102020B0216030705180E001F11881446
:1011800061066125612104216123046104C10161BB
:101190000561066104236127056103C102610761DE
:1011A00007256124026107610C610661076109C1BD
:1011B000026103C1026107610722612C61046101C0
:1011C00024016102610C6101C1026101240161021B
:1011D0006102C109618461012101C12101612761AD
:1011E0000C6101256107610C61066107610AC1019B
:1011F0006106613C000D0B0515010A041308020E7F
:10120000140E03120012011202040118010B040E45
:10121000080032E12A01C1102103C10322A1236188
:10122000246108276122A123612E01230261220487
:101230006102C1072401230261226129612801237F
:101240000261226103266125C2210123C1016122BD
:10125000610326612E612261032104C16104C1067C
:10126000C10121612261032361276127612161227C
:101270006102C12361076127612161226122A121ED
:1012800002610761022203612161226122A12161C1
:10129000256128C201612161226122A121612561AC
:1012A00026C126612261046122C1226104C1086154
:1012B0003D000F0E041801010504080F0B0809007A
:1012C00009010902090309040905090609070001C2
:1012D000120104030E03001F0EC10A230D2461270F
:1012E00002220B2203610A220922046107C10223A0
:1012F00006C123046103C103226124052461236123
:101300002702610322032203610D61C103226122CE
:10131000046105C105612361046105216122612326
:10132000056103610E610861036104C1096108611F
:10133000036127612661256122610B610C610261F5
:101340000B610C61023C00120E03060616060E0A23
:1013500002000000010D02030E0D0E180E00E11C2C
:101360008B10610561052101C10121056105610144
:10137000C1026302C1012501C1026302C101610111
:10138000620261026207620261026201610161013F
:101390006501610761016501610161016102C101CE
:1013A000C102610361036102C101C1026101610205
:1013B00061256103630361256102610365016202C6
:1013C00061026201650361096101650161096104EE
:1013D000C1046102C101C1026105C103612661034B
:1013E0006125610261276106610465036107610689
:1013F000610C610761066107C10461073C000A0EC8
:101400000307040F071309031B001B011B020C0138
:1014100013010102190B001C8A05C10C6101C106F0
:10142000612A6107256103610A614705610361065D
:10143000C103610C61266125612209C10261066157
:10144000056102820524612106610561048207614C
:1014500004612661220682C10461846106610A2159
:101460000461076129610961076129610523612A16
:1014700003C103256124612A0161236101256121E2
:1014800003610B61236102C10361013C000C0E0387
:10149000040314050408021B041B051301190201AF
:1014A0000309080003C11762422142610BC10862AF
:1014B00005610461296101C1036201C10361046125
:1014C000096124A162214121412161046109610670
:1014D00061056184618603610661056104610561DE
:1014E0002346620561046102C1026109620561016E
:1014F000C102612561096141234122412241610903
:10150000612361224123410661096103610241C1F6
:1015100002410661038661036101C128612344051C
:1015200061022408610C610E610C61063C000E0E24
:1015300003050617060E0904120012011202120317
:101540000101090110061B06001F01C117276127B1
:1015500014618AE104C10B6104226103276122073F
:10156000610422610A61096104226107C10261020A
:101570002261250428612702611161096111610757
:1015800029612A6110610A610EC101618A6103C18A
:1015900007612609276104610CC109613C00D5F08F
:1015A0008D14A1C881CFD9F1AF20005717A38B2E7E
:1015B0002E47175D74D145175D74D145175D721FB5
:1015C0005D74D145175D74D145175D749129BAE8F2
:1015D000A28B2EBAE8A28B2EBAE8A28B2EBAE8A272
:1015E0008B2EB98F2EB4499D4EC7A55C2A954AA56E
:1015F000728A2E5795AA4A55E51C9772A9542A95C6
:101600004A491449974DE71D977255A9AA5455EEBA
:10161000A24AE52A9BAD5C2A2AE752A9543624DD6A
:10162000D7575595AA2A3559AE2A5595AACA392AA7
:10163000A9F2CAA525977255A9AA5455AEA35485F7
:10164000ACE8A28B2EBAE8A28B2EBAE8A28B2EBAF7
:10165000E8A28B2EBAE8A28B2EBAE8A28B2EBAE8AB
:10166000A28B2EBAE8A28B2EBAE8A28B2EBAE8A2E1
:101670008B2EBAE8A28B2E32591FA38B2EA764E7BC
:10168000D29DDCE7D28E2EB66D7ABAD8B6E9E96281
:10169000DBA6A78B6D9B9E2EBAE862DBA6A78B6D9F
:1016A0009B9E2E9B9E6D9BCFA6B7E9E9726947175B
:1016B000DB363D5D4EE96D3EBA6C7A9B8F2E7439F8
:1016C000974EC79C733A2E652B59C9CA756CD94A77
:1016D00056B2728EAB9395AC64652353B69295ACBB
:1016E0005C872BE5D3E95CC7A57C3A9D53648E4BA0
:1016F00091392E2BD3E99CE2CB391D97B295AC647E
:10170000E53A2EE5D3D9C894AD64252BD7416FF7C0
:10171000B5AB4AA952A9C97255A9AA5455CE514987
:1017200095572E2DB994AB4A55A5AA721D2C1B5D59
:1017300074D145175D74D145175D74D1C594EB74B0
:101740002EBAE8A28B2EBAE8A28B2EBAE8A28B2E74
:10175000BAE8A28B2EBAE8A28B2EBAE8A28B2EBAD8
:10176000E8A28B2EBAE8A28B090A10000000000044
:10177000000000000000000000000000000000EF7A
:10178000EFE0EFEFEFEF0FEFEF01010101010101DA
:10179000000101FFFFFFFFFFFFFFFFFF000101014D
:1017A000010101010101000000FF42424242FF002D
:1017B0000000000300000000030000020202020219
:1017C000020202020200000000000000000000EF20
:1017D000AFE06FEFEFED0FEBEF0101010101010150
:1017E0000001010000B0B000B0B000000000000136
:1017F00001000101000000EFEFE0EEEEEEEE0EEF73
:10180000EF01010101010101000101EEECE0E8E856
:10181000EAE808ECEE01010101010101000101EC1F
:10182000E0C0C088808000E0EC01010101010101FD
:10183000000101E08000000800010086E0010101D4
:101840000101010100010100000000000000000092
:101850000000000000000000000000E080800000A8
:1018600000000080E001010101010101000101EC23
:10187000E0C0808080C000E0EC01010101010101B5
:10188000000101EFECE0E8E8E8E80CECEF01010111
:1018900001010101000101EFEFE0EEEEEEEE0FEFCE
:1018A000EF010101010101010001013F0FA5AA643F
:1018B000656B2AA9AA52A9B83A5595AA4A755CCE71
:1018C000A7538E4BBA7C362BA9A4AA4AA5E2562E62
:1018D00095AA4A95E272AA92957554D2E5B35949F0
:1018E0002555552A15D2A5AA64656B2AA9AA52A91D
:1018F000B83A5595AA4A755CE9B454F13955C9CA44
:101900003A2AA92A59D99A2A9D962A7EE552A9AA45
:1019100054292EA72A595947255D3E9B9554525567
:10192000A55221122C07EA5455AA2AD571A5D352E3
:10193000C5E754252BEBA8A4AA64656BAA745AAA20
:10194000F8954BA5AA52A5B89CAA64651D9554F9B3
:10195000ACA492AA2A954A010207A55336097F37FB
:10196000E0C3142E53284C67B7DBED76BBDD6EB7B2
:10197000DBED3A74A5B3DBED76BB550E916AEE74E0
:1019800076BBDD6EB7DBED76BB0ED256A1127D982D
:10199000534A2AA914D6A85232A4ADA4926A24723A
:1019A000AE64285B2AA9E47882A311BA73CE39E722
:1019B0009C5352C58538E59C736E9C1D17EE94733D
:1019C000CEE191147F5B259554524925B73B082FF2
:1019D00089C7ED763B7F3ABDE3AF9D5452492595CB
:1019E00054524925A552A594545249E5DC76BB557D
:1019F0007AAB94545249259554524925A5525249DF
:101A0000E59C92DBAD924E3AA9A4924A49E59C929C
:101A10004A3A2795944A4925955452DDEA53EB7C7E
:101A20007AABA492CA39E794545249259554523955
:101A3000A7E4761D6B3ABDDD6EB7DBED3ABAEC7606
:101A40003B5A0B8D4A2AA9E4385A2AE74616DE5239
:101A5000848853712270E79C42221FE676CE29ECDF
:101A600011AE64285B2AA9E478E253216FE79C73E6
:101A70004E4925C3660A934A493BBEB6CED9A572E4
:101A80008AEEB1E79CC3DC8AF29197E24A21D04505
:101A9000F6385B71A5504789BFAD924A2AA9A49236
:101AA000DB1DDDE3EEB1BF55524925955452492562
:101AB00095543AD2F4564925955452C9EDEC5B251C
:101AC0009554524925955472ABA4924A2AA9A492DE
:101AD0004A2A9D8E6CABA4924A2AA9A4924A47B680
:101AE000555249259554524925958E6CABA4924A7E
:101AF0002AA9A4D2916D9554524925955452E9488A
:101B0000D35B2595545249259554524925955472D5
:101B10001BED5649259554524925954E8764E0069C
:101B20001E0000000A00E0061E000080080B0002F4
:101B30000202010009040000010202000005240065
:101B400010010524010101042402060524060001F8
:101B50000705810310004009040100020A0000008B
:101B6000070502024000000705830240000004034D
:101B7000090412010002EF020140412336800001F6
:101B80000102030141726475696E6F204C4C430081
:101B900041726475626F79002006640000001400D1
:101BA00027056400000014001704640000002800EA
:101BB0004B02640000001400DC0364000000140009
:101BC00088016400000028000080D82C11241FBE6A
:101BD000CFEFDAE0DEBFCDBF11E0A0E0B1E0ECE591
:101BE000FDE502C005900D92A039B107D9F727E0B5
:101BF000A0E9B1E001C01D92AE3DB207E1F71DE0E2
:101C0000C6EEDDE004C02197FE010E94A12EC53E74
:101C1000D107C9F70E947F280C94AC2E0C940000C9
:101C20002F923F924F925F926F927F928F929F92EC
:101C3000AF92BF92CF92DF92EF92FF920F931F93DA
:101C4000CF93DF93CDB7DEB72D970FB6F894DEBFF5
:101C50000FBECDBF8091AE0190E02091B7013091D1
:101C6000B801821B930B05962AE030E0B9010E946F
:101C7000242D162F6D878091AF0190E04091B9011E
:101C80005091BA01841B950B0596B9010E94242D31
:101C90007B016C8780919301853091F0809163077F
:101CA000909164076CE070E00E94382D892B09F058
:101CB000F6C39091900181E0892780939001EFC352
:101CC000812F0E946025082FD0906507C09066077D
:101CD000C094CD201092B0011092BB018091B5014B
:101CE0008B3021F01092B1011092BC016E2D812F2A
:101CF0000E946025863079F58091B2019091B30100
:101D000049969093B3018093B20140E06E2D812FEC
:101D10000E94872580919E02882319F0815080932C
:101D20009E0280919E02811112C0B12C80919F026F
:101D3000B81668F4EB2DF0E0EE0FFF1FEF55FD4FE6
:101D400043E0618180810E948725B394EFCF85E3D2
:101D500093E00E94A51C809191019D2D9C709C3068
:101D600061F58F5F809391018531B0F18D3390F0F3
:101D70008D3391F51092910183E884BD8FEF87BD7B
:101D800081EF809380001092880010928A000E9458
:101D90006C2818C320E430E0A901481B5109CA018E
:101DA000880F93E894BD9FEF97BD91EF90938000CB
:101DB0001092880080938A000FC0882369F083E81E
:101DC00084BD8FEF87BD81EF8093800010928800E3
:101DD00010928A00109291018C2D84709C2D987025
:101DE000C3FE2DC081112BC00E94F11D882309F470
:101DF00054C08091AE0190E02091B7013091B801BC
:101E0000821B930B02966AE070E00E94242D162F2D
:101E1000CC24CA94C60E6E2D8C2D0E946025A82E4F
:101E2000BB24B394BE0C6B2D8C2D0E946025813099
:101E3000A1F58FEF8A0D823008F094C22EC088235E
:101E400061F191112AC00E94F11D882331F1809126
:101E5000AE0190E02091B7013091B801821B930B45
:101E600002966AE070E00E94242D162FCC24C394C1
:101E7000C60E6E2D8C2D0E946025A82EBB24B39417
:101E8000BE0C6B2D8C2D0E946025813031F48FEFBC
:101E90008A0D823010F00C94A217D6FECAC06E2DA7
:101EA000812F0E946025082F8091AE0190E0209143
:101EB000B7013091B801821B930B6AE070E00E9479
:101EC000242D6C01892B19F481E0810F01C0812F31
:101ED0006E2D0E946025282E552453945E0CC1144B
:101EE000D10419F481E0810F01C0812F652D0E947A
:101EF0006025482EC114D10419F08FEF810F01C065
:101F0000812F652D0E946025382E822D0E94A427E6
:101F1000682E470199245FEF851A950AA12EB12CEE
:101F2000A401B501832D0E94DF24782E0E94F11DAB
:101F30009091B5019B3089F4882311F40C946F1AA9
:101F40007110C1C064E0261621F0043011F00C9429
:101F50006F1A68E087E00C9409180E9443268823D2
:101F600041F08DEF800F823010F00C94BB170C9471
:101F7000A917C114D10419F481E0810F01C0812F88
:101F80006E2D0E946025782EC114D10419F481E0D1
:101F9000810F01C0812F652D0E946025682E62E0AF
:101FA0006E0DC114D10419F481E0810F01C0812F9D
:101FB0000E946025482E862D0E94A427682E872D1A
:101FC0000E94A427882311F40C940C18662011F4A5
:101FD0000C940C1835018FEF681A780AA401B3012C
:101FE000842D0E94DF24882311F40C94FE1764E0F2
:101FF00081E00E94041E1092B5018091B9019AE01F
:10200000E99E800D11248093AF018091AE018C3345
:1020100010F482E0C2C02091B7013091B801293696
:102020003F4F24F01092B0018EEFC3C087FFF1CF75
:102030008AC1D5FEC4C06E2D812F0E946025082F55
:102040008091AE0190E02091B7013091B801821BE0
:10205000930B6AE070E00E94242D4C01892B19F447
:102060008FEF810F01C0812F6E2D0E946025382EC9
:10207000772473947E0C8114910419F081E0810F10
:1020800001C0812F672D0E946025482E832D0E945C
:10209000A427582E5701BB24BFEFAB1ABB0AC12E91
:1020A000D12CA501B601842D0E94DF24682E0E9448
:1020B000F11D9091B5019B30B9F4882311F40C9473
:1020C0006F1A662031F01092B5010E948D1B0C949E
:1020D000971AE4E03E1621F0043011F00C946F1AC8
:1020E00069EF86EF0C9464180E944326882331F030
:1020F0008DEF800F823008F0AEC7B8C7811491040D
:1021000019F48FEF810F01C0812F6E2D0E94602581
:10211000082F8114910419F48FEF810F01C0812FD2
:10212000672D0E946025782E62E06E0D8114910467
:1021300019F48FEF810F01C0812F0E946025182FA5
:10214000872D0E94A427782E802F0E94A427882301
:1021500011F40C94971A772011F40C94971AF1E06B
:10216000CF1AD108A501B601812F0E94DF24882350
:1021700009F49EC76FEF8CEF0E94041E1092B50108
:102180008091B9012AE0E29E800D11248093AF0175
:102190008091AE018D3320F08EEF8093B001D1C0DD
:1021A0002091B7013091B80137FF06C01092B001FD
:1021B00082E08093BB01C7C08111EECFC4C0D7FEBF
:1021C00085C08091AF0190E02091B9013091BA01B2
:1021D000821B930B08966AE070E00E94242D7B011D
:1021E000B62E0E94F11DD82E882319F06FEF6E0DC8
:1021F00001C06E2D812F0E946025C82EDD2019F0B0
:10220000BB24B394BE0C6B2D812F0E94602590914E
:10221000B5019530A4F0973044F09B3081F4043040
:1022200009F069C7D11063C766C7DD2061F10330CB
:1022300009F083C08FEF8C0D823028F57EC00E949C
:102240008D1B8091AE0190E02091B7013091B801D3
:10225000821B930B2AE030E0B9010E94242D8630C6
:1022600020F0A901481B5109CA0105970CF067C06D
:10227000033009F064C08FEF8C0D823008F45FC02A
:1022800085E08093B5018091B7015AE0159F800DDC
:1022900011248093AE011092B0011092BB01809185
:1022A000AF01883120F08EEF8093B1014EC02091B4
:1022B000B9013091BA0137FF06C01092B10182E036
:1022C0008093BC017FC08111EECF7CC0D4FE40C0A2
:1022D0008091AF0190E02091B9013091BA01821B49
:1022E000930B08966AE070E00E94242D7B01D62EA5
:1022F0000E94F11DC82E811105C76FEF6E0D812F51
:102300000E946025B82ECC2019F0DD24D394DE0C79
:102310006D2D812F0E946025D82E8091B5018B30C4
:1023200009F05AC6043009F4E0C6CC2009F402C70B
:1023300084EF8B0D843008F0FDC60E948D1B109237
:10234000B0011092BB011092B1011092BC013AC0D1
:102350008091B101823009F4BBCF8091BC018E3FE6
:1023600089F5B6CF53E0A51609F497CD84EF809395
:10237000B5011092B0011092BB0147E06B2D8C2D7E
:102380000E94872580915F07843181F0E82FF0E07B
:102390009F01220F331FE20FF31FED5DF84FC08244
:1023A000B1829CED92838F5F80935F078091650778
:1023B000809366070E94C31D8093650787E193E0C1
:1023C0000E94A51C8091630780FD68CC1092CE020C
:1023D0001092DC021092EA021092F80210920603A8
:1023E000109214038DEC682E82E0782EF301808128
:1023F00084FF4BC0828193816AE070E00E94382D97
:10240000D62E6887848195816AE070E00E94382D1D
:10241000F62E69878D2D0E946025B82ECC24C3949A
:10242000CF0C6C2D8D2D0E946025982EF6E0BF12EA
:1024300006C0D30118968C91882309F488C6F3014D
:1024400082858D3014F5228133813B872A87C9012B
:102450006AE070E00E94382D892BB9F4048115815F
:10246000C8016AE070E00E94382D892B71F4E38482
:10247000EE2009F48CC6D30118968C9181117EC68A
:10248000F3011782838581508387BEE06B0E711C38
:10249000E1E26E16E3E07E0609F0A8CFFFCB809163
:1024A00093018850833030F480919301833009F098
:1024B000C9C1CDC1C12CD12C812C712CA12CB12C26
:1024C000E090B701F090B801EA0CFB1CC701099637
:1024D0008938910528F50091B9011091BA010C0DC8
:1024E0001D1DC801099689349105D0F4682D872DEA
:1024F0000E946025982E882339F0282F49E657E15D
:10250000B801C7010E94B81C29EF290D243040F4FE
:10251000B8016A50710943E453E0C7010E94B81C36
:102520007394FAE0AF0EB11C2CE17212C9CF839400
:102530003AE0C30ED11C40E18412BFCF80919301D9
:10254000853021F0809190018823F1F08091B501D0
:10255000082F001F0027001F082E000C990B97FF63
:1025600003C0919581959109880F990BFC01E45E58
:10257000FE4F408151816091AF0170E08091AE01CA
:1025800021E090E00E948E231DECA12E12E0B12EDE
:102590007501D7018C9184FFADC012960D911C91ED
:1025A00013976090B7017090B8014301800E911E9F
:1025B00014968D919C911597C090B901D090BA0155
:1025C000C80ED91E1B96EC914E2F50E04331510599
:1025D00008F088C0FA01EA5AFF4F0C94A12EF701C7
:1025E0008285082F001F0027001F082E000C990B62
:1025F00097FF03C0919581959109880F990BFC0174
:10260000E45EFE4F4081518170C0F1E08F1A910865
:1026100069C02FEF821A920A65C032E0C31AD1084E
:10262000FDC644E0C41AD10807C056E0C51AD10857
:10263000F5C668E0C61AD10800E04DE653E055C083
:10264000AAE0CA1AD1089C012A503109F701358342
:1026500024831386C8016AE070E00E94382D262E7C
:10266000C9016AE070E00E94382D462E55245A9424
:10267000520C852D0E9460258F8333243394340CB3
:10268000632D852D0E946025888755245394520C14
:10269000642D852D0E946025482E632D852D0E9476
:1026A0006025582E8091AE0190E086199709801719
:1026B000910764F48F810E94A427882309F4A6C699
:1026C00088850E94AD27811198C6A0C6842D0E94DE
:1026D000A427882309F491C6852D0E94AD27811176
:1026E00095C68BC600E04FE853E021E0B601C40177
:1026F0000E948E23FEE0EF0EF11C21E2E21623E0A1
:10270000F20609F046CF4090AE01512C8091B701FE
:102710009091B801481A590A6090AF01712C8091CC
:10272000B9019091BA01681A790AD5018C9184FF98
:102730007FC012968D919C911397F201E81BF90BC3
:1027400014962D913C911597A301421B530B9A01AE
:10275000C090AF014C2D50E0421B530BE090AE01F6
:10276000473F6FEF5607C4F42E2D30E02E1B3F0B72
:102770002F3FAFEF3A070CF455C62C3731050CF05C
:1027800059C6E394EE1A8E2DBFEA8B2EB3E09B2E32
:1027900045EE53E090E03AC045335105C4F02E2D8C
:1027A00030E02E1B3F0B2F3FBFEF3B070CF44AC618
:1027B0002C3731050CF04FC6E394EE1A8E2DA0EAAB
:1027C0008A2EA3E09A2E44ED53E093E31FC0F12C30
:1027D000EE1AFF0AECEFEE16EFEFFE064CF49C2D1E
:1027E000921BF2EC8F2EF3E09F2E4BEF53E031C69D
:1027F000FCE7EF16F104E4F09C2D921BEEEB8E2E1D
:10280000E3E09E2E46EF53E08CE702C08F3F81F05D
:10281000C92ED12CE82EF12C00E020E0B601C70132
:102820000E948E2321E0A401B601C7010E948E23DD
:102830002EE0A20EB11C31E2A31633E0B30609F07C
:1028400074CF32CE873049F48091B60101C084E064
:102850008093930100E010E067C098EF980F9330E9
:10286000C8F78A3069F400E021E04BE554E069E103
:1028700070E08AE290E00E948E2309E210E03BC003
:10288000883029F400E021E04AE254E02FC01091A2
:102890009D02812F64E60E94952E082F282F47EC79
:1028A00054E069E170E088E490E00E94B81C812F58
:1028B00044E6049F801911246AE00E94952E192F86
:1028C000282F47EC54E069E170E08DE490E00E942D
:1028D000B81C212F47EC54E069E170E082E590E0FC
:1028E0000E94B81C00E021E040E154E069E170E0A2
:1028F0008BE290E0C0CF41E066E170E0C8010E9449
:10290000D61D0E5F1F4F09351105A9F709E210E02A
:1029100041E060E270E0C8010E94D61D0E5F1F4FCB
:1029200009351105A9F796CF77E3E72EF12C40E0A2
:10293000B701C8010E94D61D5FEFE51AF50A60E4F1
:10294000E616F104A1F70F5F1F4F0038110561F77C
:1029500000E010E041E068E370E0C8010E94D61D8D
:102960000E5F1F4F02381105A9F78091B2019091B7
:10297000B301FE01319626E0DF011D922A95E9F7A9
:102980007F019E01295F3F4F0AE010E0B8010E94DD
:10299000382D8193CB012E173F07C1F700E021E0CE
:1029A00041EF54E06AE370E080E090E00E948E2303
:1029B00006E310E0F70121917F0147EC54E06AE360
:1029C00070E0C8010E94B81C0550110908311105BA
:1029D00089F7F090B40100E021E044EB54E06AE3B1
:1029E00070E080E490E00E948E231AE08F2D612F2A
:1029F0000E94952E092F282F47EC54E06AE370E0DF
:102A000082E590E00E94B81C202F47EC54E06AE376
:102A100070E087E590E00E94B81C809193018530BA
:102A200071F4F0909E0200E021E049E954E06AE38D
:102A300070E080E690E00E948E238F2D1DC0F09004
:102A40009D0200E021E049E854E06AE370E080E69E
:102A500090E00E948E2364E670E08F2D90E00E944B
:102A6000242D262F082F47EC54E06AE370E081E71D
:102A700090E00E94B81C802F612F0E94952E192F84
:102A8000282F47EC54E06AE370E086E790E00E946C
:102A9000B81C212F47EC54E06AE370E08BE790E02C
:102AA0000E94B81C20919301253009F0C1C180918A
:102AB00063079091640780FD1CC02091B001211133
:102AC0000CC02091B101211108C02091BB0121113E
:102AD00004C02091BC01222361F02091B501ECE0FB
:102AE000E20FEC3120F4F0E0EC5EFA4F24912093F9
:102AF000B50183709927892B09F445C02091B00155
:102B00008091AE01280F2093AE011091B101809108
:102B1000AF01180F1093AF018091BB01E090B70196
:102B2000F090B801E80EF11C87FDFA94F092B8011C
:102B3000E092B7018091BC014091B9015091BA0176
:102B4000480F511D87FD5A955093BA014093B90122
:102B5000812F90E0841B950B0596EAE0F0E0BF0121
:102B60000E94242D362F822F90E08E199F09059602
:102B7000BF010E94242D862F632F0E9460251230F2
:102B800008F053C01DC0ADECB2E081E293E02C919F
:102B900024FF11C01B962C911B97222309F464C4B7
:102BA0000AC016962C911697211168C417962C917D
:102BB0001797211163C41E968A179B0741F79ECF72
:102BC000833099F510919D021F5F8091B4018A3086
:102BD00018F48F5F8093B40186E080939301109383
:102BE0009D02612F82EB90E00E94FC2D1A3108F4C7
:102BF00054C481EB90E00E94EE2D873008F04BC466
:102C000011E0180F612F81EB90E00E94FC2D612FE5
:102C100086EB90E00E94FC2D0E94BF2581E180930D
:102C2000B60180E395E00E94A51C8091630780FFB8
:102C300009C080915F07882309F465C1F12C6DE01C
:102C4000E62E86C00DEC12E0D8018C9184FF54C0B2
:102C500016968C91169712964D915C911397480F8A
:102C6000511D87FD5A9513965C934E9312971796B4
:102C70008C91179714962D913C911597F901E80FB7
:102C8000F11D87FDFA951596FC93EE93149720910C
:102C9000AE0130E08091B7019091B801281B390B4B
:102CA0008091AF01A091B901B091BA01790162E0C0
:102CB000E60EF11CBA01685F7F4FE616F706E4F4F2
:102CC0004E5F5F4FB901685F7F4F46175707A4F407
:102CD00090E08A1B9B0BAC014E5F5F4F9F01285F0A
:102CE0003F4F4217530744F42650310908962817DE
:102CF000390714F40E946C28025F1F4F83E00132F1
:102D0000180709F0A1CF10E000E0612F802F0E948A
:102D1000602599EF980F943030F441E0480F612F0F
:102D2000802F0E9487250F5F0C3179F71F5F1031CC
:102D300059F77FCF0F2D10E06801CC0CDD1CF60198
:102D4000E00FF11FED5DF84F8281811106C0F39411
:102D500080915F07F81670F366C0815082838031DE
:102D600079F030F4813071F0883089F74FE04FC04E
:102D7000883121F0803259F74CE049C04DE047C01E
:102D80004EE045C08091A00290E0880F991F8B53C0
:102D90009D4FADECB2E05F01AF014F5F5F4F2C91F3
:102DA00024FF1BC0F5012081FAE02F9F9001112420
:102DB00012966D917C9113976217730771F4FA0163
:102DC0002081FAE02F9F9001112414966D917C913F
:102DD00015976217730709F462C31E9623E0A132A8
:102DE000B207E9F6F601E00FF11FED5DF84F8081C3
:102DF0003D85831306C081814C85841302C00E94E7
:102E00006C280C0D1D1DF801ED5DF84F41E061814E
:102E100080810E9487259BCF0E945D2680915F075D
:102E2000882309F470C0809125078130A9F36BC015
:102E3000309165079091660790959323243009F0AF
:102E400044C08091920132FF32C08E3268F48932E0
:102E5000D0F083E884BD8FEF87BD81EF8093800041
:102E600080E4809388000BC0833388F483E884BDBA
:102E70008FEF87BD81EF80938000109288001092C1
:102E80008A00809192018F5F809392013CC0809173
:102E90009D0297FF04C0893110F48F5F05C094FF35
:102EA00032C0823080F1815080939D022CC08823F3
:102EB00071F0833308F1883218F082E08093930137
:102EC00010929201911118C01EC010929201992384
:102ED000D1F02B3048F4293050F4273051F028300D
:102EE00059F4109293010FC0213169F005C082E0BE
:102EF00008C08091B60105C0109266071092650760
:102F000085E08093930180919101811112C380919A
:102F1000920181110EC380919E02811106C0909191
:102F20009301953019F480E201C080E093E894BDEC
:102F3000809587BD81EF8093800010928800109269
:102F40008A00F7C263E0A61611F40C944D0F8CE0D2
:102F50000ECA662009F4EBC2772019F064E081E024
:102F600004C0043029F46AE087E00E94041E45C8CA
:102F700066E085E0FACFC114D10441F4A401B501A3
:102F8000832D0E940525811183C0ABC2611003C04F
:102F900071108BC00AC0A401B5016F5F7F4F842DF3
:102FA0000E94DF248111DACF03C0CD2809F4BFC20B
:102FB000B5016F5F7F4FA401842D0E94052581110B
:102FC000CDCF1092B0011092BB01882309F4BBC988
:102FD0008BE08093B5010FC063E0D61295C080915D
:102FE000B7019AE0199F800D11248093AE016BEF19
:102FF0008AEF0E94041E0E940D1EE4C9CD2879F4B8
:10300000A401B301842D0E9405258823D1F266E036
:1030100085E00E94041E1BC0CD2809F488C2652DDE
:10302000812F0E946025182F802F0E94A4278823BB
:1030300009F47DC2B5016F5F7F4FA401812F0E940B
:103040000525882309F4BDCF8BE08093B5010E944C
:103050008D1B0C94FD0F8114910411F5A501B6018F
:10306000842D0E940525811113C05EC2552009F4EC
:103070005EC2662019F06FEF8CEF04C0043029F4B3
:1030800069EF86EF0E94041E7BC866E085E0FACFF8
:103090008BE08093B50185EC91E00E94A51C1FC2D6
:1030A000511024C2662009F41FC21092B5013FC21C
:1030B000892869F4A501B601812F0E94052588237E
:1030C00009F47FCF66E085E00E94041E0BC0A501D5
:1030D000B601812F0E940525882309F472CF8BE069
:1030E0008093B5010E948D1B4BC8CC2019F187E05D
:1030F0008093B50122C9A70155274F5F5F4F612F0C
:1031000070E01FC06E2DFBC88D2D0E94A427811179
:1031100003C01092B50111C9D11003C08BE0809398
:10312000B5018091B701AAE01A9F800D1124809308
:10313000AE0161CFA70155274F5F5F4F612F70E050
:103140008D2D0E94DF24882309F455CFE2CF0E9401
:10315000972D0E94972D2AE030E040E050E00E9439
:10316000322EDC01CB014496A11DB11DF3018087F5
:1031700040E06F2D8D2D0E94872561C9FA946F2D37
:103180008D2D0E946025882309F42FC179C96FEF26
:103190006F0D8D2D0E9460258F836F2DAA24A3941F
:1031A000AD0C8A2D0E946025582E6C2D8A2D0E9410
:1031B0006025482E6C2DCC24CA94CD0C8C2D0E94F9
:1031C0006025382E6F2D8C2D0E946025282E809131
:1031D000AE0190E02091B7013091B801821B930BB2
:1031E0002A853B85281B390BC9012091AF0130E0AE
:1031F0004091B9015091BA01241B350B021B130BEE
:10320000D30119962C9119972223D1F01F922F9256
:103210003F92892CA42CC52CEF800B2D1D962C9150
:103220004F2D6D2DC3010E94271EF30191859150F2
:1032300091870F900F900F90811127C9148561C05D
:1032400097FF1FC0101611065CF4919581959109A6
:1032500008171907C4F180179107BCF511E046C0A3
:1032600001151105A1F1919581959109119501958E
:103270001109801791076CF10817190764F515E01B
:1032800035C00097C9F01016110644F40817190745
:1032900024F1801791071CF51FE028C001151105C6
:1032A00001F111950195110980179107E4F00817B4
:1032B0001907DCF41BE01AC0111F1127111F110F91
:1032C000110F110F13C013E011C012E00FC014E072
:1032D0000DC017E00BC016E009C01DE007C01EE0DE
:1032E00005C01CE003C019E001C01AE0EDEFE10FDA
:1032F000EC3020F4F0E0E05FFE4FE080D3011D965B
:10330000EC92F3018085882389F09FEF990D92302C
:1033100068F4B1100BC08150D30118968C938111C1
:1033200005C046E06F2D8D2D0E948725B1E0BF932B
:103330002F923F92892CA42CC52CEF800B2D212F8E
:103340004F2D6D2DC3010E94271E0F900F900F90DF
:1033500081119BC8F12E08E0D02E112311F01150DD
:1033600001C01FE0E1E0EF932F923F92892CA42C43
:10337000C52CEF800B2D212F49856885C3010E9444
:10338000271E0F900F900F90882339F0D3011A96C3
:103390008C918B3009F079C81EC0BFE0FB1611F08C
:1033A000F39401C0F12CE1E0EF932F923F92892C2E
:1033B000A42CC52CEF800B2D2F2D49856885C301CA
:1033C0000E94271E0F900F900F908111DFCFDA948B
:1033D000D110C3CFDBCF892D0E94AD27882309F4FC
:1033E00054C8D30117961C9250C8F301108646E0CA
:1033F0006F2D8D2D0E94872543C8EFEFD7011A96B8
:10340000EC931A97FEEF1696FC9308C081E0D70163
:103410001A968C931A97E2E01696EC9300E04EE72A
:1034200053E063C937EB832E33E0932E4EEE53E027
:1034300090E00FC02DEC822E23E0922E48E054E065
:1034400090E010C098EA892E93E0992E4DED53E05C
:1034500092E380E0DDC986EC882E83E0982E40E080
:1034600054E092E38BE7D4C91A96EC911A9723EFB4
:103470002E0F233008F095CBE45F05C02CE02E0F13
:103480002C3128F4E22FF0E0EC5EFA4FE4911A962A
:10349000EC931A9790CB82E1C2CB89E0C0CBFC01C0
:1034A00060812181FAE06F9FB001112413967C9313
:1034B0006E9312976AE0269F9001112415963C9313
:1034C0002E9314971A96EC921A971B961C921B97A0
:1034D00016961C92169717961C9217977ECC81E031
:1034E00070CD61103BCD54CD892809F1672D812F16
:1034F0000E946025182F802F0E94A427882349F05E
:10350000A501B60161507109812F0E94DF2481114C
:10351000B2CDB60161507109A501812F0E94052528
:10352000882309F44ECDA7CD5110A5CDBBCD80E0A9
:1035300048CD2D960FB6F894DEBF0FBECDBFDF91FC
:10354000CF911F910F91FF90EF90DF90CF90BF90A0
:10355000AF909F908F907F906F905F904F903F9033
:103560002F900895CF92DF92EF92FF920F931F93C7
:10357000CF93DF936C017A018B01C0E0D0E0CE15D0
:10358000DF0581F0D8016D918D01D601ED91FC919F
:103590000190F081E02DC6010995892B11F021964B
:1035A000EECF7E01C701DF91CF911F910F91FF9068
:1035B000EF90DF90CF90089580919D01E0919B0165
:1035C000F0919C01882349F0CF01029690939C01D1
:1035D00080939B01859194910895CF0102969093D9
:1035E0009C0180939B018081918108958091950138
:1035F00008950895089580E090E00895FC012285E3
:10360000261714F0421714F4FC01628708950E94F3
:10361000A72EBF92CF92DF92EF92FF920F931F934C
:10362000CF93DF93FC0166834783862F880F880F33
:10363000860F382F3F70942F990F990F940F50E1F8
:103640009502C0011124832B818367FF02C08CE0A7
:1036500003C0662311F084E0848747FF02C014860C
:1036600004C0442311F088E08487222309F44BC06E
:103670008185811148C0EF018485811134C01D8688
:103680008A819B812AE030E0B9010E94382D162FF3
:103690008C819D81B9010E94382DFF24FA94F60E89
:1036A00000E0CC24CA94C10EBB24B394B10EDF2C2D
:1036B000D01A6D2D812F0E946025833091F46D2DDD
:1036C0008C2D0E946025E82E6D2D8B2D0E9460258B
:1036D0000F5F9DEF9E0D923020F09DEF980F92307E
:1036E00060F4098710C00E94972D26E030E040E08A
:1036F00050E00E94322E698706C08111D8CF8150D8
:103700008330A8F6EECFDF91CF911F910F91FF90FC
:10371000EF90DF90CF90BF900895E1E7F0E08081D7
:103720008D7F8083109291004698479810929A015D
:103730000895CF92DF92EF92FF920F931F93CF9352
:10374000DF930E94DC1A811520E8920751F4DF9183
:10375000CF911F910F91FF90EF90DF90CF900C943D
:103760008D1B21E020939A01813020E8920751F4CB
:10377000809198019091990190939C0180939B0175
:103780000E94DC1A97FD05C020919701222309F4BD
:1037900040C02091960121113CC021E020939E0160
:1037A000EC01DF77209769F481E080939F014698D0
:1037B0003FE9C32E3FE0D32EE12CF12CCAEFD0E03D
:1037C00014C08E0120E030E060E472E48FE090E00D
:1037D000A90198010E94322E69017A0181E0C81A7C
:1037E000D108E108F10810929F01E0912107F091C2
:1037F00022070995811103C081E080939F01809188
:103800009E01882309F43FC080919F0181113BC034
:1038100003C010929E01C4CF469935C0479A0E94BA
:10382000DC1A009771F09C01DE010E94862EDC01FB
:10383000CB0129E0B595A795979587952A95D1F75E
:1038400003C08FEF9FEFDC01109290002AE02093DD
:103850009100D0929900C09298008093A00190931B
:10386000A101A093A201B093A30180917100826095
:1038700080937100DF91CF911F910F91FF90EF9096
:10388000DF90CF9008954798CACF1F920F920FB63E
:103890000F9211242F933F934F935F936F937F93D6
:1038A0008F939F93AF93BF93EF93FF938091A0016A
:1038B0009091A101A091A201B091A301892B8A2B23
:1038C0008B2B81F180919F0181110BC098B180E415
:1038D000892788B980919E01882319F088B1805882
:1038E00088B98091A0019091A101A091A201B0910D
:1038F000A301181619061A061B06B4F48091A0013C
:103900009091A101A091A201B091A3010197A109F9
:10391000B1098093A0019093A101A093A201B0935B
:10392000A30102C00E94991BFF91EF91BF91AF913B
:103930009F918F917F916F915F914F913F912F91C7
:103940000F900FBE0F901F9018959C01E1E7F0E0DB
:1039500090819D7F908381E080939D0130939C01B5
:1039600020939B0130939901209398010C94991B0B
:103970004F925F926F927F928F929F92AF92BF927F
:10398000CF92DF92EF92FF920F931F93CF93DF932B
:1039900000D000D0CDB7DEB7DC014115510509F4E8
:1039A000D8C0FA01F490319694914E5F5F4FCF2CBE
:1039B000D12C2223D9F0E1E0F0E0892F877011F4B7
:1039C000E0E0F0E0892F869586958695E80FF11D59
:1039D000EC9D8001ED9D100DFC9D100D1124209F8C
:1039E000F001219FF00D11244E0F5F1FF601EA0F29
:1039F000FB1F1E161F060CF0ACC0A038B1050CF062
:103A0000A8C09B01290F311D121613060CF0A1C08E
:103A1000603471050CF09DC04115510509F499C041
:103A2000062F0770B02E9B0177FF02C0295F3F4F22
:103A300083E0359527958A95E1F7822F77FF04C0BB
:103A4000BB2011F08FEF820FB7FF05C0222733276D
:103A50002A1B3B0B02C020E030E0E038F10524F0E7
:103A600070E87A1B672E01C06F2C621A082F082E8F
:103A7000000C110B8F3F1CF4F02FF09501C0F0E00B
:103A8000EE24E394692F677009F4E12CE92FE695A1
:103A9000E695E6959E2D9E0F090F111D0930110523
:103AA00014F098E0981B6F2F680F8901FF9E000D9E
:103AB000111D1124400F511F01E010E00B2C02C01A
:103AC000000F111F0A94E2F7EFEFE09F7001E19FF2
:103AD000F00C1124E094F094FC82EB82AC8070E84E
:103AE0006703A00DB11D11242A0F3B1F2F5D3C4F12
:103AF000992E980E961669F1D9012A01842D841BFE
:103B0000861508F5F2018490809EC001819E900D7B
:103B100011249A83898367FD04C09C919E21892B7F
:103B20008C93BB2059F067304CF4CD0180589F4FE7
:103B3000FC0180808A207A8087288082FFEF4F1ADC
:103B40005F0A1196DBCF6F5F4C0D5D1D20583F4F14
:103B5000D1CF0F900F900F900F90DF91CF911F91C9
:103B60000F91FF90EF90DF90CF90BF90AF909F901C
:103B70008F907F906F905F904F900895BC0180E090
:103B800090E00C9454238FB18095807F669B886071
:103B90001C9B84600895109295013E983F9808956B
:103BA0003E9A3F9A81E0809395010895803891056F
:103BB000B8F460347105A0F490E121E061FD24E0E7
:103BC00060FD220F62FD2295687F969FD00111242F
:103BD000A80FAF5DBC4F8C91822B40FF82278C9346
:103BE00008958091AF0190E02091B9013091BA0120
:103BF000821B930B6AE070E00E94242D9C0181E0FF
:103C0000232B09F080E008959091B501981714F0E6
:103C1000691714F48093B50108951092B0011092C1
:103C2000BB0182E08093B1011092BC018091AF0191
:103C3000873160F08091B9019091BA0189399F4F25
:103C40002CF01092B1018EEF8093BC0108953F9249
:103C50004F925F926F927F928F929F92AF92BF929C
:103C6000CF92DF92EF92FF920F931F93CF93DF9348
:103C7000CDB7DEB7142F902E3C88BE8830E02031BF
:103C8000310508F028C1082D7E2D462E3C01F90192
:103C9000E558FF4F0C94A12EEE2029F0735072309E
:103CA00010F010E001C011E046EF60E0C3010E9497
:103CB000EB2593E099120FC1112309F40CC1811176
:103CC0000AC146E065E0C3010E94FE1A2B2D4EEFAB
:103CD00060E0C3010E94091B0FC140E06AE00E943E
:103CE000EB2591E0D82ED926E12EF12CEFEFEE1A3C
:103CF000FE0A512CA701B201882D0E943425382ECE
:103D0000B2016F5F7F4FA7018A2D0E943425F82EE4
:103D10008C2D0E94A427182F8A2D0E94AD27F4E035
:103D2000CF1205C0DD2019F04AE067E00DC094E035
:103D3000991211C01123C9F0882309F4D0C0DD20E5
:103D400009F4D4C044E061E0C3010E94FE1A2B2DA7
:103D500040E062E099C0E3E09E1207C0112329F021
:103D6000DD2019F046E065E0EFCF311093C08823E5
:103D700021F0112309F4AFC006C0112309F4ABC030
:103D8000FF2009F4A8C0DD2009F4A5C0DBCF4AE07C
:103D900060E00E94EB2591E0F82EF926412F50E0DB
:103DA0004F5F5F4F642D70E0882D0E9434250330F3
:103DB00061F4FF2009F48FC04BEF6AEFC3010E944A
:103DC000FE1A2B2D42E060E05FC0882309F483C017
:103DD000FF2009F480C08BE0F30182872B2D42E0A5
:103DE00060E0C3010E94091B0750093008F075C04C
:103DF0008FE1F301838771C040E066EF0E94EB25FD
:103E000091E0582E5926E12EF12CFFEFEF1AFF0A10
:103E1000C42CD12CA701B601882D0E943425A82ED0
:103E2000B60161507109A701832D0E943425F82E37
:103E30008D890E94A427182F832D0E94AD279D896C
:103E4000943029F4552019F049EF66EF17C0E4E0EB
:103E50009E120BC01123E1F0882309F444C05520C1
:103E600009F447C04FEF6CEF09C0F3E09F1210C098
:103E7000112371F0552061F046E065E0C3010E9416
:103E8000FE1A2B2D40E06EEFC3010E94091B25C0D6
:103E9000AA20A1F08BE0F30182872B2D42E060E0A5
:103EA000C3010E94091B07500930B8F48FE1F301E8
:103EB00083878EE19BE10E94A51C0FC0882329F017
:103EC000112349F0552039F0CDCF112321F0FF20E7
:103ED00011F05110B9CF10E00FC011E00DC0332028
:103EE00009F44ECFD7CFAA2091F3D4CF332099F342
:103EF000D1CFAA2081F3CECF812FDF91CF911F9117
:103F00000F91FF90EF90DF90CF90BF90AF909F9078
:103F10008F907F906F905F904F903F900895CF93D8
:103F2000DF931F92CDB7DEB76983DC01ED91FC9181
:103F30000280F381E02D41E050E0BE016F5F7F4FD2
:103F400009950F90DF91CF91089583E08093E90068
:103F50008091F200882319F08AE38093E8000895A5
:103F6000FC018485958597FD0BC09FB7F89482E08E
:103F70008093E9008091F2009FBF90E00196089540
:103F80009FB7F89482E08093E9008091F2009FBF90
:103F900090E008954091A7015091A8012091A501BA
:103FA0003091A60142175307B4F49091E800957040
:103FB000E1F39091E80092FD19C08093F1008091A7
:103FC000A7019091A80101968F739927892B19F465
:103FD0008EEF8093E8008091A7019091A80101964F
:103FE0009093A8018093A70181E0089580E008954F
:103FF000DF92EF92FF920F931F93CF93DF93D82E10
:104000008A017B01E40EF51EEB01CE15DF0571F090
:10401000D7FE03C0FE01849101C088810E94CA1F9F
:1040200021968111F2CF8FEF9FEF01C0C801DF9180
:10403000CF911F910F91FF90EF90DF900895615005
:1040400030F02091F100FC0120830196F8CF2898F0
:1040500084E68093AC0108950E94B42690E0089510
:104060000F931F93CF93DF931F92CDB7DEB78C01D1
:10407000FC018485958597FF0EC0CE0101960E94B4
:104080008626019719F4898190E002C08FEF9FEF97
:10409000F80195878487F801848595850F90DF91D5
:1040A000CF911F910F910895CF93DF931F92CDB7BA
:1040B000DEB7FC018485958597FD05C02FEF3FEFA6
:1040C000358724870BC0CE0101960E948626019772
:1040D00019F4898190E002C08FEF9FEF0F90DF917C
:1040E000CF9108950F931F93CF93DF931F92CDB776
:1040F000DEB782E0898342E450E06CE27BE180E855
:104100000E94F81F0E944B27DC0112960D911C9112
:1041100013970115110589F0D801ED91FC910280EA
:10412000F381E02DBE016F5F7F4FC801099597FDB8
:1041300004C0F80100851185ECCF89810F90DF91D3
:10414000CF911F910F9108951F920F920FB60F926A
:1041500011248F939F938091E1009091E100937FD0
:104160009093E10083FF0FC01092E90091E09093DB
:10417000EB001092EC0092E39093ED001092AD01F1
:1041800098E09093F00082FF20C093E09093E900C4
:104190009091F200992319F09AE39093E80090919E
:1041A000AA01992339F09091AA0191509093AA0104
:1041B000992389F19091AC01992339F09091AC0148
:1041C00091509093AC01992341F184FF10C08091EC
:1041D000E2008E7E81608093E2008091E1008F7E1C
:1041E0008093E1008091AB018E7E806111C080FFE1
:1041F00016C08091E2008E7E80618093E200809103
:10420000E1008E7E8093E1008091AB018E7E816023
:104210008093AB0104C05D9ACDCF289AD6CF9F91F1
:104220008F910F900FBE0F901F9018951F920F92B5
:104230000FB60F921124CF92DF92EF92FF920F935D
:104240001F932F933F934F935F936F937F938F931E
:104250009F93AF93BF93EF93FF93CF93DF93CDB72C
:10426000DEB76C97DEBFCDBF1092E9008091E80009
:1042700083FFFBC168E0CE0145960E941F2082EFBC
:104280008093E8008D8987FF05C09091E80090FF3A
:10429000FCCF03C09EEF9093E800982F907609F032
:1042A000C6C09E894F89588D2F89F88C91110CC0FA
:1042B000803829F48091A4018093F10002C010920B
:1042C000F1001092F10045C1913051F4811141C1CA
:1042D0004130510509F03DC18091A4018D7F0BC093
:1042E000933061F4811135C14130510509F031C17C
:1042F0008091A40182608093A4012BC1953049F480
:104300008091E80080FFFCCF822F80688093E300DB
:1043100020C1963009F05EC00B8D1C8D22E01092FA
:10432000E9001092A8011092A701F21232C0109277
:10433000A6011092A5010E94722099E0BE016F5F54
:104340007F4FDB01E92F1D92EA95E9F79983FA8205
:1043500091E09E8390EA98879AEF99872091A70130
:104360003091A801275F3F4F3C832B838D831092B0
:10437000E9001092A8011092A7011093A6010093E2
:10438000A50149E050E080E00E94F81F0E947220E1
:10439000E0C01093A6010093A5010E944B27DC0109
:1043A00012960D911C9113970115110509F4BBC0CC
:1043B000D801ED91FC910480F581E02DBE016B5E8A
:1043C0007F4FC8010995009709F0C7C0F801008523
:1043D0001185EACF973009F445C1983021F481E086
:1043E0008093F100B6C0993009F0B3C0837009F032
:1043F00039C1E1E7F1E081E031E096E3208121116C
:1044000009C08EE78093EA001092EA008F898093BA
:10441000AD019FC08093E9003093EB002191209380
:10442000EC009093ED008F5F873041F7EACF8B8DE2
:104430009C8D1092E9001092A8011092A701909310
:10444000A6018093A501898D811153C08E899D8914
:10445000913A49F4813209F005C147E050E064E047
:1044600071E080E0BBC0913209F0FCC0833269F496
:104470008F89988DA0E0B0E08093000190930101B6
:10448000A0930201B093030164C0803269F480916B
:10449000E80082FFFCCF67E084E091E00E941F20EB
:1044A0008BEF8093E80055C0823209F052C08F89AB
:1044B00080930B01EEEFFFE7859194918B3F9C4D2C
:1044C00019F0E0E0F8E002C0EEEFFAE080910401BC
:1044D00090910501A0910601B0910701803B9440A5
:1044E000A105B10509F09EC080910B0180FF79C044
:1044F00099C00E944B27FC0102811381011511050F
:1045000009F4B0C0D801ED91FC910190F081E02D4B
:10451000BE016B5E7F4FC801099581111AC0F80179
:1045200000851185EBCFF1E0FF1609F44EC0F3E0F2
:10453000FF1298C08F89882309F44AC0823089F419
:1045400040E867E080E99BE10E94A32C882309F4FE
:1045500089C08EEF8093E80088C018161906CCF346
:1045600081C0813029F440E86BE084E89BE1ECCF26
:10457000833009F077C00E944B27DC011296ED9042
:10458000FC9013978E010F5F1F4F6801E114F10437
:1045900079F0D701ED91FC910680F781E02DB8010B
:1045A000C7010995080F111DF701E084F184EECFD2
:1045B000D8011C92F60101900020E9F73197BF0164
:1045C0006C197D0940E0C601BFCF62E77BE102C004
:1045D0006EE67BE1FB01449150E080E80E94F81F09
:1045E000B8CFEE3F2AE0F20751F080819181873702
:1045F000A7E79A0721F09093FF0A8093FE0A87E7C6
:1046000097E791838083809160008093A9019BE06C
:1046100088E10FB6F894A895809360000FBE909340
:10462000600097CF808191818737974709F091CFBC
:10463000A895809160008861809360008091A901B5
:1046400080936000EE3FBAE0FB0739F08091FE0AEC
:104650009091FF0A918380837CCF1092FF0A109281
:10466000FE0A77CF81E28093EB006C960FB6F89448
:10467000DEBF0FBECDBFDF91CF91FF91EF91BF9114
:10468000AF919F918F917F916F915F914F913F91EA
:104690002F911F910F91FF90EF90DF90CF900F908F
:1046A0000FBE0F901F9018958F929F92AF92BF925E
:1046B000CF92DF92EF92FF926B017C010E94FD2767
:1046C0004B015C01C114D104E104F104F1F00E943A
:1046D000FD27DC01CB0188199909AA09BB09883E8D
:1046E0009340A105B10570F321E0C21AD108E10899
:1046F000F10888EE880E83E0981EA11CB11CC1143D
:10470000D104E104F10419F7DDCFFF90EF90DF90C1
:10471000CF90BF90AF909F908F9008952F923F922F
:104720004F925F926F927F928F929F92AF92BF92C1
:10473000CF92DF92EF92FF920F931F93CF93DF936D
:10474000CDB7DEB72F970FB6F894DEBF0FBECDBF43
:104750004C017B012C870D875A8349831C821B8265
:104760001D821E8268E070E0CE0101960E94B8278B
:104770001C019C012F5F3F4F3B872A8768E070E058
:10478000CE0101960E94B8278C0161E070E0CE0155
:1047900001960E94B8272A853B85280D391D37FDD3
:1047A000F5C030E8831691040CF0F0C00F5F1F4F86
:1047B00098012E0D3F1D37FDE9C040E4E416F104D9
:1047C0000CF0E4C06701F7FE04C0CC24DD24CE1851
:1047D000DF0857E0C522DD249701F7FE02C0295FFC
:1047E0003F4F390123E0759467942A95E1F7F7FE6E
:1047F00009C091E0691A710828E030E0A9014C195C
:104800005D096A01980117FF02C0295F3F4F290126
:1048100093E0559447949A95E1F707701127012B7F
:1048200019F05FEF451A550A0D85002311F071014B
:1048300002C0E12CF12C898701E010E0A12CB12C01
:1048400088E090E09C012C193D093F872E87A41435
:10485000B5040CF09BC041E050E058874F8361E005
:1048600070E0CE0101960E94B827892B31F48F8128
:104870009885029698878F83F2CF6F817885CE01D5
:1048800001960E94B827DC01119640E050E04A17DB
:104890005B0708F072C099859111102B000F09F089
:1048A00069C093012A0D3B1DC9010196099708F0C3
:1048B00043C0C4018E0D9F1D80389105E8F5B901F4
:1048C0007695762F662777956795680D791D6E0D1D
:1048D0007F1D2F3F0FEF300709F454C0812F0C2CA0
:1048E00001C0880F0A94EAF7FB01EF5DFC4F0C85CD
:1048F000002319F09081892B03C080959081892332
:104900008083C114D104C1F027303105A9F0812F73
:1049100090E00E8402C0959587950A94E2F7FB011A
:10492000EF55FC4F2C85222319F01081812B03C0F9
:1049300080951081812380830D85011110C02FEF98
:10494000E21AF20A8A859B85E816F9068CF09FEF39
:10495000A91AB90A01E010E0E12CF12C0BC001E02A
:10496000E01AF108F7FE04C02FEFA21AB20A710193
:1049700001E010E04F5F5F4F8ACF398541E0342777
:10498000398765CFC114D10411F6D6CF2F960FB653
:10499000F894DEBF0FBECDBFDF91CF911F910F9175
:1049A000FF90EF90DF90CF90BF90AF909F908F904F
:1049B0007F906F905F904F903F902F90089581501F
:1049C000833008F18AE0869F9001879F300D112483
:1049D000849FB001859F700D1124EDECF2E0808181
:1049E00084FF0AC0828193818217930729F484810E
:1049F00095818617970739F03E9683E0E132F807F4
:104A000071F780E0089581E00895873028F48430BC
:104A100038F5882329F126C0803120F58AE0869F69
:104A20009001879F300D1124849FB001859F700DE8
:104A30001124EDECF2E0808184FF0DC082858B3083
:104A400051F4828193818217930729F4848195819F
:104A50008617970739F03E9683E0E132F80759F759
:104A600081E0089580E00895853031F118F48823BD
:104A700019F124C08750883008F58AE0869F90019C
:104A8000879F300D1124849FB001859F700D1124E4
:104A9000EDECF2E0808184FF0AC08281938182176D
:104AA000930729F4848195818617970739F03E96FC
:104AB00083E0E132F80771F781E0089580E008951E
:104AC0008C31F8F46F3FF9F06031F8F4982F969537
:104AD00070E080FD0BC080E1989F600D711D112476
:104AE000FB01E954FE4F8681829509C080E1989FC1
:104AF000600D711D1124FB01E954FE4F86818F70FA
:104B0000089581E0089580E0089582E00895982F47
:104B10009695E62FF0E080FD0EC080E1989FE00DB5
:104B2000F11D1124E954FE4F86818F7090E1499F59
:104B3000A001112409C080E1989FE00DF11D11240E
:104B4000E954FE4F8681807F482B46830895CF939A
:104B5000DF9382EB90E00E94EE2D80939D0283EB29
:104B600090E00E94EE2DCEEAD1E08E8384EB90E0BF
:104B70000E94F62D9D838C83DF91CF9108951F9322
:104B8000CF93DF93C0919D026C2F82EB90E00E9447
:104B9000FC2D6C2F87EB90E00E94FC2DCEEAD1E03B
:104BA0001E81612F83EB90E00E94FC2D612F88EB2A
:104BB00090E00E94FC2D0C80DD81C02DBE0184EBB5
:104BC00090E00E940E2EBE0189EB90E0DF91CF9124
:104BD0001F910C940E2EEF92FF920F931F93CF9381
:104BE000DF93DC01EDECF2E081E293E0062E000CB5
:104BF000770B042E000C550B208124FF1EC02F7054
:104C00003C913F702317C9F01181212F2F70C28171
:104C1000D381C20FD11D12962D913C911397260F6F
:104C2000371F7E010AE0E00EF11C2E153F052CF423
:104C3000265F3F4FC217D30734F03E968E179F076B
:104C4000D9F680E019C012951F70C481D581C10FBB
:104C5000D11D14962D913C911597240F351F7E017F
:104C60000AE0E00EF11C2E153F053CF7265F3F4F92
:104C7000C217D30714F781E0DF91CF911F910F91F5
:104C8000FF90EF9008958091AF0190E02091B901DD
:104C90003091BA01821B930B2AE030E0B9010E94E7
:104CA000242D863020F0A901481B5109CA0121E0BA
:104CB00005970CF020E0822F0895CF92DF92EF92BB
:104CC00020915F07822F90E0FC01EE0FFF1F8E0FF7
:104CD0009F1FFC01ED5DF84FC080D180E2808FEF17
:104CE000820F80935F07E3E2F7E090E0981740F4CB
:104CF0002381348145812193319341939F5FF6CF86
:104D00008E2DB601EF90DF90CF9008952091AD01E8
:104D1000211103C08FEF9FEF08955FB7F89422E051
:104D20002093E9002091F20030E01216130614F4EB
:104D300021E030E0422FFC0184E6415038F0289811
:104D40008093AC019091F1009193F7CF211531053B
:104D500021F08091F200882319F05FBFC901089506
:104D60008BE68093E800F9CF2FB7F89483E0809327
:104D7000E9009091E800892F807295FF04C090911E
:104D8000F20080E4891B2FBF08958F929F92AF920B
:104D9000BF92CF92DF92EF92FF920F931F93CF9328
:104DA000DF936C017B018A0180910B01882309F458
:104DB0005CC08091AD01882309F457C08091AB019C
:104DC00080FF05C08091E00082608093E000E801F0
:104DD000B12C8AEFA82E93E0892E2AE3922E2097F9
:104DE00011F4BB20D9F10E94B42681110AC0AA9403
:104DF000AA20D9F161E070E080E090E00E945423A5
:104E0000EECF282F30E0C217D3070CF48C2F9FB7BA
:104E1000F8948092E9002091E80025FF1DC0282F1A
:104E200030E0C21BD30BF701815020F04191409339
:104E3000F100FACFE20EF31EBB2019F09092E800C9
:104E40000AC08091E80085FD07C09092E800BB246D
:104E5000B394209709F0B12C9FBFC1CF5D9884E631
:104E60008093AA011016110644F081E090E0F6014B
:104E70009383828380E090E001C0C801DF91CF91ED
:104E80001F910F91FF90EF90DF90CF90BF90AF9068
:104E90009F908F90089580916F0781110DC082E0DF
:104EA00080936B0784E080936C0710926E071092DA
:104EB0006D0781E080936F078BE697E00895CF93AD
:104EC000DF93D82F8FEA90E00E94EE2DC82F80EB61
:104ED00090E00E94EE2DD11104C0CC3411F4823543
:104EE00081F16CE48FEA90E00E94FC2D62E580EB9A
:104EF00090E00E94FC2D61E081EB90E00E94FC2D8F
:104F000061E082EB90E00E94FC2D65E083EB90E095
:104F10000E94FC2D61E086EB90E00E94FC2D61E098
:104F200087EB90E00E94FC2D65E088EB90E00E940A
:104F3000FC2D60E070E089EB90E0DF91CF910C9464
:104F40000E2EDF91CF910895882329F083508D3064
:104F500010F080E0089581E00895813028F08430D9
:104F600028F08750893010F080E0089581E008959E
:104F70001F93CF93DF93DC0120E030E040E050E06E
:104F800011E0C1E0D0E02617370791F114968C911B
:104F90001497811115C014961C93149712968D9135
:104FA0009C911397ED91FC911197E80FF91FE491F3
:104FB0001596EC931597019613969C938E931297E2
:104FC00014969C91149715968C911597892349F006
:104FD000FE01022E02C0EE0FFF1F0A94E2F74E2BD5
:104FE0005F2B990F14969C9314972F5F3F4FCBCF55
:104FF000CA01DF91CF911F9108953FB7F894809136
:10500000DA079091DB07A091DC07B091DD0726B5A8
:10501000A89B05C02F3F19F00196A11DB11D3FBFF0
:10502000BA2FA92F982F8827820F911DA11DB11D7E
:10503000BC01CD0142E0660F771F881F991F4A957A
:10504000D1F708951F920F920FB60F9211242F934C
:105050003F938F939F93AF93BF938091D507909188
:10506000D607A091D707B091D8073091D90723E090
:10507000230F2D3720F40196A11DB11D05C026E890
:10508000230F0296A11DB11D2093D9078093D50748
:105090009093D607A093D707B093D8078091DA07EB
:1050A0009091DB07A091DC07B091DD070196A11D6F
:1050B000B11D8093DA079093DB07A093DC07B093D0
:1050C000DD07BF91AF919F918F913F912F910F90ED
:1050D0000FBE0F901F9018958091B401815080935E
:1050E000B40196E090939301811102C088E001C061
:1050F0008AE08093B60188E99BE10C94A51C789422
:1051000084B5826084BD84B5816084BD85B58260CC
:1051100085BD85B5816085BD80916E00816080937D
:105120006E001092810080918100826080938100E6
:1051300080918100816080938100809180008160F6
:105140008093800080919100826080939100809193
:1051500091008160809391008091900081608093A4
:1051600090008091C10084608093C1008091C10053
:1051700082608093C1008091C10081608093C100F2
:105180008091C30081608093C3008091C0008260E1
:105190008093C0008091C20081608093C2008091A2
:1051A0007A00846080937A0080917A008260809394
:1051B0007A0080917A00816080937A0080917A00F1
:1051C000806880937A001092AD011092A401109231
:1051D000AB018091D70081608093D70080EA8093F3
:1051E000D80089B5806189BD89B5826089BD09B45F
:1051F00000FEFDCF61E070E080E090E00E9454236B
:105200008091D8008F7C80618093D8008091E000ED
:10521000807F8093E0008091E1008E7E8093E100AA
:105220008DE08093E200559A209A81EC80937C0077
:1052300085B1806F85B984B1877E84B984B1876E6A
:1052400084B95E9A5F988AB1806D8AB9769A6E98B1
:1052500081B3806F81BB899880B38D7080BB80E5FE
:105260008CBD81E08DBD85E090E00E94BE1D5F9AFF
:1052700085E090E00E94BE1D5E985C98EEE9F5E145
:1052800084918EBD00000DB407FEFDCF319645E13F
:10529000EB3AF407A9F75C9A81E880936400809167
:1052A00065008160809365000E94C31D87FF24C054
:1052B0005C9885EA8EBD00000DB407FEFDCF5C9AB8
:1052C0002E982F982D9880916400806280936400BE
:1052D00081E083BF889513BEFCCF2D980E94C31D2B
:1052E0008478843871F00E94C31D8471843129F15F
:1052F00088EC90E00E94BE1D0E94C31D82FDEDCF90
:1053000038C02D9A88EC90E00E94BE1D2F9882E054
:1053100090E00E94EE2D8F3F29F06FEF82E090E049
:105320000E94142E84EF91E00E94BE1D2F9A0E94CD
:10533000C31D84788438D9F3D6CF2D9A88EC90E0B9
:105340000E94BE1D2E9882E090E00E94EE2D8823E0
:1053500029F060E082E090E00E94142E84EF91E05A
:105360000E94BE1D2E9A0E94C31D84718431D9F300
:10537000BFCF2D9A88E280936707809164008E7F6B
:105380008093640080917A00806480937A00809199
:105390007A0086FDFCCFC0917800D09179000E9400
:1053A000FD278E0120E030E0980111270027600FD3
:1053B000711F821F931F209164002160209364005D
:1053C000611571058105910511F00E94E52D82E0BE
:1053D00090E00E94EE2D882319F00E94D01D02C09B
:1053E0000E94CB1D80E00E945F270E94A72584E1D8
:1053F0008093AE0183E28093AF011092B5011092C9
:10540000B60181EB90E00E94EE2D811103C0109255
:10541000930105C0823018F081E1809393018CE103
:10542000282E312C9BE3492E512C28E9622E77241B
:105430007A9437E6832E99249A94C1E007E0A02E4F
:105440008FB7F8944091D5075091D6076091D70750
:105450007091D8078FBF80916807942F981B892F70
:1054600090916907992329F080936A071092690740
:1054700058C290916707891740F48F5F891708F029
:1054800050C2C3BF889513BE4CC2C09369074093F6
:105490006807809163079091640701969093640771
:1054A0008093630780916507809366070E94C31D00
:1054B00080936507E09193018E2F90E082319105F2
:1054C00008F021C2FC01E759FF4F0C94A12E00E027
:1054D00021E04EE559E164E070E080E090E00E9458
:1054E0008E2380916607809590916507892383FFBD
:1054F00003C00E94D01D04C082FF05C20E94CB1DC4
:10550000C093930100C283EB90E00E94EE2DD091F6
:105510009401853009F00CC282EB90E00E94EE2DE0
:10552000813009F005C26D2F660F660FD60FD85E69
:10553000FF24F39444E259E168E170E000E021E0E7
:1055400086E290E00E948E236D2F70E021E048E516
:1055500059E18FE190E00E948E2300E010E021E00D
:1055600049E657E160E070E0C8010E94B81C21E004
:1055700049E657E167E370E0C8010E94B81C065F86
:105580001F4F0238110559F7809166078095909159
:1055900065078923F11011C087FF07C0909194011E
:1055A000992319F091509093940184FF06C0909133
:1055B0009401911102C0C093940183FFA4C1809112
:1055C0009401882329F0813009F09DC10E945F2752
:1055D0000E94A72582E08093930195C10E948D1BB4
:1055E00080915F07882319F00E945D26F9CFE09132
:1055F0009D02F0E0EE0FFF1FE45CFE4F2081318141
:10560000C093B501F9018491FAE08F9FC001112484
:10561000F9013196E4914AE0E49FF00111248B33C3
:1056200091052CF41092B8011092B70116C0AC018C
:105630004B5351094E35510558F44BE34093AE019D
:10564000B201681B790B7093B8016093B70107C072
:105650009092B8018092B70189598093AE01E731E9
:10566000F1052CF41092BA011092B90116C0CF01C5
:1056700047978235910560F487E18093AF0187E118
:1056800090E08E1B9F0B9093BA018093B90107C0E5
:105690007092BA016092B901E856E093AF01F90146
:1056A0003296D491ADECB2E043E050E070E06C9102
:1056B000607F672B6C9318961C9218977D17E8F4FF
:1056C000F901E40FF51FE4918AE0E89FF00111244D
:1056D0001396FC93EE931297FA013196E20FF31FA3
:1056E0004E5F5F4FE491FAE0EF9FC00111241596E1
:1056F0009C938E93149760616C937F5F1E967630B7
:10570000B1F6CA010196F901E40FF51F64916093A7
:105710009F02A1EAB2E070E0AF014E5F5F4F6717F2
:1057200059F03196E491EC93FA01D4911196DC93FF
:1057300011977F5F1296F0CF860F911D860F911DF6
:10574000A901480F591FA5ECB2E0FA0164916C93CE
:105750003196E4911196EC9311974E5F5F4F12963C
:105760006DEC72E06A177B0781F77C0179E0E70E48
:10577000F11CFC013896E20FF31FD491D23021F0D6
:1057800000E010E040E065C0A7EBB1E07C01E0EE96
:10579000EE0EF11C40E08D0160E070E06C01F9E07C
:1057A000CF0ED11CF601E60FF71FE20FF31F549145
:1057B000E52FF0E0D4E0F595E795DA95E1F7E630EE
:1057C00009F44F5FE52FEF70E63009F44F5FF80101
:1057D00056836F5F7F4F005F1F4F6E30710511F76B
:1057E00011960E968E159F05B1F66CC0EE2309F446
:1057F00069C05FEFE51AF50ABF2EB29480EFB822B8
:105800006801C601D11136C0B1010E94382D9695AC
:1058100087957727B4E0880F991FBA95E1F78954E7
:105820009E4FDC01A60FB71F16965C911697C0FC21
:105830001EC05F705B2916965C938FEFC81AD80A5A
:105840008C2D801B8E17E8F2E150F0E031960E0FA0
:105850001F1FF901EE0DFF1DE491FE2FF295F69545
:10586000F770EF71F63009F0C1CF4E0FBFCF507F08
:105870005F2BE1CF54E0969587955A95E1F7982FE5
:105880009695AC2DAF70B0E080FD0DC060E1969FA5
:10589000A00DB11D1124A954BE4F16968C911697D8
:1058A0008F708B290CC070E1979FA00DB11D112442
:1058B000A954BE4F16968C911697807F8F2B169603
:1058C0008C93BBCF40939E0283E08093930105C0ED
:1058D000A092930102C00E94BF250E94100E13C027
:1058E00000E021E048E756E164E170E083E190E008
:1058F00008C000E021E04BEA55E167E170E084E197
:1059000090E00E948E23E1E2F3E080E098E00080E6
:105910000EBCC111012C019780FDFDCF0192B9F79A
:105920000DB4E0E0F0E0309709F48ACD099585CD1B
:10593000DD0F6D2F660F660FD60FDD5EF12C4BEA83
:1059400058E163E1FACDDF92EF92FF920F931F933C
:10595000CF93DF93D82EF92EE42E062F10E0C80146
:105960000196880F0E94CA1F83E00E94CA1FCD2D96
:10597000DF2D0C0F1D1FC017D10789F0E7FE03C0F4
:10598000FE01849101C088810E94CA1FF82E80E028
:105990000E94CA1F8F2121968111EDCF01C081E0A5
:1059A000DF91CF911F910F91FF90EF90DF900895BD
:1059B00010927A071092790788EE93E0A0E0B0E0A9
:1059C00080937B0790937C07A0937D07B0937E071D
:1059D0008BE791E090937807809377078FEF9FEFA5
:1059E000909384078093830710926507109266074F
:1059F00080E180936707109264071092630710920A
:105A000069078DE891E0909361078093600786EFC6
:105A10009AE1909322078093210780E090E8909389
:105A2000D4078093D30746983E9A47983F9AE3E27B
:105A3000F7E0108211821282339687E0EF35F80783
:105A4000C1F710925F07089597FB072E16F4009494
:105A500007D077FD09D00E94382D07FC05D03EF411
:105A6000909581959F4F0895709561957F4F08950A
:105A7000AA1BBB1B51E107C0AA1FBB1FA617B70774
:105A800010F0A61BB70B881F991F5A95A9F7809590
:105A90009095BC01CD0108958F929F92AF92BF92D5
:105AA000CF92DF92EF92FF92CF93DF93EC01688168
:105AB00079818A819B81611571058105910521F4A8
:105AC00064E279ED8BE597E02DE133EF41E050E0C2
:105AD0000E94322E49015A019B01AC01A7EAB1E4B0
