:100000000C94A4120C94CC120C94CC120C94CC1220
:100010000C94CC120C94CC120C94CC120C94CC12E8
:100020000C94CC120C94CC120C944C260C94BE263E
:100030000C94CC120C94CC120C94CC120C94CC12C8
:100040000C94CC120C94CC120C94CC120C94CC12B8
:100050000C94CC120C94CC120C94CC120C94072E51
:100060000C94CC120C94CC120C94CC120C94CC1298
:100070000C94CC120C94CC120C94CC120C94CC1288
:100080000C94B3210C94CC120C94CC120C94CC1282
:100090000C94CC120C94CC120C94CC120C94CC1268
:1000A0000C94CC120C94CC120C94CC12CC17FD17DF
:1000B000FD17F617F617F217F217EE17EE17EA17F5
:1000C000EA17E217E217E617E617E217E217E61754
:1000D000E6175A30CB304E324E324E3247324E3225
:1000E0004E324C324E3251325132513279327032BC
:1000F000F423F423F4231524152415246F246F24EA
:100100006F246F246F24A424A424A424F423F423B0
:10011000090FE8D2D9ED76BB4EC7B7DD6EB7DBED80
:100120007636090FE8D3E974FCDBED76BBDD6E674C
:1001300003090F109BCE6EB7DB753A36090FB8B2C4
:10014000E9145FD7ABCF85A2ED6CDB5901090FBC79
:1001500092EE55A9A4D2AAAD53E4E9E8B6B30309D7
:100160000FF8B6CAF55FB9B5EBD436EEED6CDB59D6
:1001700001090F38B39FEAB397770A4BDBD9B6B3BF
:1001800002090FBC924EA5FAECE554CEC9D9D3F9B9
:10019000EC367A090FB8B29F6AA2745FBB8E773BC8
:1001A0007B3A5A090F38972ACA6B998E39BD1D5B65
:1001B000090F5CA73EF54D96DBF5B950B79D1D20A4
:1001C000064B000000190075054B000000190027C0
:1001D000054B000000190097044B000000190017A0
:1001E000044B0000001900B8074B0000001900E0A4
:1001F000064B000000190010034B0000001900BA64
:10020000024B000000190093024B00000019004B44
:10021000024B00000019000B024B0000001900DC2B
:10022000034B000000190070034B00000019008808
:10023000014B00000019005D014B00000019004A4D
:10024000014B000000190026014B000000190006B8
:10025000014B0000001900EE014B0000001900B82E
:10026000014B0000001900C4004B0000001900AF52
:10027000004B0000001900A5004B0000001900937E
:10028000004B000000190083004B0000001900F72C
:10029000004B0000001900DC004B00000019006258
:1002A000004B000000190057004B000000190052DD
:1002B000004B000000190049004B000000190041EC
:1002C000004B00000019007B004B00000019006E7D
:1002D000004B000000190031004B00000019002CF9
:1002E000004B000000190029004B000000190025F8
:1002F000004B000000190021004B00000019003ED7
:10030000004B000000190037004B000000190000EE
:10031000804B024B0000000F004B024B0000000F0F
:10032000004B024B0000000F0026014B000080E054
:10033000060F0017040F0027050F0000800A081899
:10034000006000800020004000000060009000205D
:1003500000000000000000801000208000008000ED
:1003600000200000000040090FA8D69D2BA2AC93EE
:100370002A75BB08B3DBB106090F88769D7A995DB3
:10038000CBDA756AD46DD7B101090FB8969F6AA20E
:1003900074D7ABCFCDBC9D753B2B0607A8D2E974B3
:1003A0003A2E0407723A9D8E0A06077C3A9D4E4704
:1003B0000704079D4BA7A303030788E5030792CC17
:1003C0000407B8D2E99C5304077C3A9D760E0607D1
:1003D000DE6EB7DBED76070407A59276BB5D0106FE
:1003E00007B7DBED76BBDD020407A5926ABBDD0231
:1003F0000307F8743A0307759A100407D476BB9282
:100400004A2A0407B7DBAD5452011507A54E47250C
:1004100055552A1595F3D99C2293AA2A958A4AEA1A
:10042000745C95032907522E95AA4A95E272AA9206
:1004300095755452E5B3924AAAAA542A6EE552A978
:10044000544E71399F4E392EA9AA52A9A8A4AA6464
:10045000656B4A550A2907D369A9A293AA9295AD5B
:10046000A9F64A4DEF54252BEBB8944BA5AA52A5FB
:10047000B89CAA64651D552A25552A2AE9F24949DE
:10048000A94A010E07A54E47E57C36A7C8A44EC76A
:100490005571011307522E95AA4A95E2522E954A9C
:1004A000E51497D4E9A8A44AA552394556390F074F
:1004B000A5CB67B3924AAAAA542A2AE9F249C95598
:1004C0003904050E11110E00121F10121915120A0F
:1004D00011150A06051F04171515090E1515080133
:1004E0001905030A15150A121509061907EA5455C4
:1004F000AA2AD59129974AA572159972A9542AA7B3
:10050000B8A4AA64656B2AA9AA52A9B82A2EF4F540
:10051000F9F6F7F8FBFAFFFCFDFE00020304010602
:100520000508090A070B0C0E0F0088016400000083
:100530001400DC036400000014004B02640000009F
:100540002800170464000000140027056400000060
:10055000140020066400000028000080070E04023A
:100560000119011A0E010E0200001B000301020E08
:10057000190E180100E18C428CE1611A62014121DF
:10058000024121032203260241210162012141028D
:10059000214102240226022141016201412102413E
:1005A0002101412102214104C122024121016201B4
:1005B0002141C22141012141C2412103C122032124
:1005C000410162014122A14121014122A1214102B7
:1005D000C122044121016201214121A121410121C6
:1005E0004121A1412101C122052141016201412195
:1005F000C24121014121C221410122064121016262
:100600000121410221410121410241210122C40570
:1006100062014121024121014121022141012602C1
:100620004121016201214102214101214102412177
:10063000012602214101621A620686028705620CC8
:10064000220C613C00040F02060212020200001B91
:10065000000701110101021A0200E1870127018A46
:10066000E16107290A6206220722096205220127A1
:10067000012208620522A127A12208620522042185
:10068000042208620522C1022302C1220862042753
:100690000127076204260121012607620423A20123
:1006A0002301A2230762052101C1012501C1012106
:1006B0000862052D0862042603260762042301C18F
:1006C000210321C101230762052202220122022205
:1006D0000861236103622301236204612500020E85
:1006E000030D00030617060E010019000101190190
:1006F0000102190201031903010419040105190576
:10070000010619060B000F0000061A060004618599
:10071000166104290E610421C185C1210161820A8B
:100720006104214161036141210161028208610488
:100730002101610361012101610C6101C10221C13B
:1007400085C121016101C108C1016101410221028C
:100750004302210161014102C1E102246104210738
:10076000210161032401846104A101410441A1012B
:10077000610384056104214161410241012101615C
:100780000C61C10321014105210161C10A246101FC
:100790002107210124610B61012103A202210561CE
:1007A0000B610124A22305610B610F61042A472B11
:1007B00000010E020C0210020A1B001B011B021B8F
:1007C000031B041B051B061B071B081B090A001241
:1007D000000C0E100E000B27146524126207221065
:1007E00021610241034102220F21610143014301C2
:1007F000220F21610143014301220F2161014301C5
:100800004301220F21610241034102220F216104B1
:10081000C1042210216103C10322086189620522FB
:1008200088628962012101210122886202C102C11C
:1008300002C16201210121012202C102C102620939
:100840006201210121012208620962016101610145
:100850002208614C264A000D0F0208031303040905
:100860000012000901120107031403050516050112
:100870001F19C1250A2608240C650522026224647A
:10088000022202296104622202240262022401C1BE
:1008900064022204C1270222042441214121026270
:1008A00004224121412141210822412141214121AC
:1008B000082441214121026204C1270222022401AD
:1008C000C1640222E1E16222022402622202296161
:1008D00002220262246408650B240E260AC1251F29
:1008E00013000E00050D000208040817081908047B
:1008F0000000070014001B0002040404170419047C
:1009000000E1841284E161042261C10AC161220410
:1009100062042261C10AC161220462052261C10828
:10092000C161220562C101C1022261C108C1612207
:1009300002C101C1622461012261C106C1612201BB
:10094000612462C102C161012261C106C16122014B
:1009500061C102C1622561012261C104C16122013C
:10096000612562C103C161012261C104C16122012B
:1009700061C103C1622661012261C102C16122011C
:10098000612662C104C161012261C102C16122010B
:1009900061C104C1622761012261C2612201612734
:1009A00062C105C16101280161C105C162286101FF
:1009B0002241A12201612862C106C16101C221A1B7
:1009C000C20161C106C1612D4222012A000E0A0541
:1009D0000C041A050608030E180E0209001200196D
:1009E000040507020E190E001F0661220422611180
:1009F00061220622610F61220822610D6122C10875
:100A0000C1226108C18261306182C1036121610339
:100A100022C108C122036121610262216103220116
:100A2000C104C101220361216202C1622161032468
:100A3000022403612162C103C162216103230223F5
:100A400003612162C105C16221610322C101220348
:100A5000612162C107C1622161032403612162C176
:100A600009C1622161036203612162C10BC162217C
:100A700061026202612162C10DC1612261016201F4
:100A8000612261C1073C000E0E0409010A010F0139
:100A90001001100C000D000C010D010B020E0207DD
:100AA0000312030104180401051805030D160D03B4
:100AB0000E160E09000A000F001000001F1F02C3CF
:100AC000E122E1C30CC5E14AE1C506260A26E1059B
:100AD000621262E1066112610861126108611261CD
:100AE0000861126108611261086112610861126196
:100AF0001F1E412641244224412841000D010401CA
:100B0000010A051405160905100010011002100352
:100B1000100403010B011602170902000000000077
:100B20000000000000000000000040000000004045
:100B30000000000040000003030000000303000069
:100B400000030300033003300000300030000030A9
:100B5000003003016303000301010300030161038B
:100B600043011300444301110344430131000321B5
:100B7000131151121121121151123151131003008E
:100B8000500100611100610130500314434454418D
:100B9000031444434444341443100300500103102D
:100BA00001035301006003152312152113112112B3
:100BB00053211215130511110001131100005311D7
:100BC00000051300034440441314404453144044AC
:100BD000130013100600131006001300060013067E
:100BE0001310020013100200131002001315030566
:100BF00012110301121103011215030B0003070E5A
:100C00000D0E180E03040011001B00050110011643
:100C1000010A0E01300122C123C123C1240124C1D4
:100C200023C123C122012FE16E21810E21012D015B
:100C300021012109C12201210121012101210121DB
:100C4000012101230121012901230121012D01217C
:100C5000012D0121012D012101220121012101216B
:100C60000121C1220121012109C1220121012D01FE
:100C700021810E21E16E21012701270124C124C118
:100C8000250122C128C125012901230F21C12101EC
:100C90006221016221016221012101210121C12181
:100CA00001210121C121012101210121C1210121B4
:100CB0000121C12101210121012101210121012164
:100CC000C12101210121C1210121E1622101622112
:100CD00001622101622100190E04060016000309B9
:100CE0001909060A0012000B0111010C021002077B
:100CF00000170002081A08001F1F1F01C1236123EB
:100D0000C11321C121C161C121C1210BC10621C172
:100D100061016121610161C12104C101C10322613D
:100D2000216126610161266121612202C1210161E7
:100D300021610661016106612161C1210221016217
:100D4000216801682162012101216101C10267015D
:100D5000672101C101612102236101216101C102F9
:100D600061016102C101612101612304C122612786
:100D7000612761220622016105C1016101C105618E
:100D8000012205210161226621662261012103C140
:100D90000261236321652163236101C1013C0002DB
:100DA0000F0504050009120A060B090E08000004CD
:100DB00000080019000001040108011901150102D1
:100DC000031A03110A0200000000000000000000E6
:100DD0000000000000000444000000044400004043
:100DE000004430003004122222200011110223009E
:100DF0003600360010002600000000000306113403
:100E00002230230022120555511031510630063090
:100E1000230026000000000030003114322023306F
:100E20002213050000503000360036002033002326
:100E300000166100300011342230200330230001FD
:100E400013443060063006302000332300000300D6
:100E50001151311432202000032300000300000050
:100E60003600360020000023222222223060113476
:100E700022302000002310060601315106300630D2
:100E8000200000231312121130003114222020669A
:100E9000310313060600300030000000111111224A
:100EA00011212121212100010301071907050E024B
:100EB000080008011B010007060E180F021111118E
:100EC0001101111111111111111111002002220033
:100ED0000023010003444444401300030232202352
:100EE000613223000000006322130232200300302D
:100EF000000000000011300302300111323444447C
:100F0000000060623112623114443230000000008F
:100F100000003000023206203211000600111100DC
:100F2000300602321111320300000000002211319C
:100F300002320000344322222222223002310032C7
:100F400011111103000244444231003111320616DE
:100F500000111302030002320322023200100000CB
:100F6000030003000232032062300011111111113D
:100F70001320023011102232111000000000030073
:100F800002300000003260230600006003000211FE
:100F900011111112116322111122230062070B0398
:100FA0000A020D08150B070B00160016010B030BA8
:100FB000040B070B08000215021702120B008BE14D
:100FC00012C102C102C1026105210381E1810F61E9
:100FD0008401240161012FE1046124016101A12345
:100FE000C207C2E1846124016101A125C105C122BA
:100FF0006105210122016101A1C224C103C1236154
:101000008401210122016101A127C101C124E10460
:1010100061210122016101A1C226C125E1046121F2
:101020000122016101A12E6126C221016101A1C23B
:10103000210B610524016101A124012108610A61DC
:1010400001A1C222012B612AA1240523C12361250C
:10105000C108210524C1226122C101C1226105C14B
:101060002101C102C1250261022C00150B020403FB
:101070001703040C000D000E000F000A00110005FC
:10108000031603008A088A6109280962072C07628F
:10109000062E0662014430440162082A08620141BA
:1010A0006108240941016143611543036102C102E2
:1010B000C102C102C102C102C1026106611461061E
:1010C000610824086106610523A423056106610205
:1010D00023AA230261066103AE0361066104AC0426
:1010E00061066106A8066103000B0F0508030D03E6
:1010F00013030C09100F0A0A0011000A010B010C5E
:10110000010D010E010F0110011101060015000073
:10111000051B05010A660A250B2103620A21032229
:101120000A2102C1220565210362052A0621042144
:101130000362052104210322052103C12102C122EA
:10114000E1E1632104210362022D03210221042134
:1011500003620221022104210322022101C1210391
:10116000C1A102C1220221022104210362022D0336
:10117000632104210362052104210322052103C107
:101180002102C122052104210362052A06652103EB
:10119000620A2103220A2102C1220A2103620A25CE
:1011A0000B66000B050314050D09060B0500001066
:1011B0000000011001000219001A001B000E0400BB
:1011C000E1124124052FE1024101C1612101C10366
:1011D0008B6102216182412261210143C161214170
:1011E0002105C1016182216103C1016121036141C6
:1011F0006103220561022161024122612102C16174
:1012000041612202C121046102216101C1410261E7
:101210002161826301C128610221610241216122B1
:1012200061026202230541610221610461026101E0
:10123000C101610322054161022261036102612350
:10124000620326416103236101610261034161235D
:10125000864122610323620161226121610C2141E7
:10126000610322612103612161276106214161033C
:1012700061210361216122C124612561234262232E
:101280000161216125C121612561C102C101622184
:10129000C1026121613361256100120A030A020261
:1012A00007140F030D000D010D020B0203071907B0
:1012B000110F001F1F0AC1830988614421A1220266
:1012C00061076108610A6107610626432705610617
:1012D00021C10121032103210321056103C2012151
:1012E000022102C12101C22101C22101C1036127E2
:1012F00002310161210221012505210B612101C17A
:101300002101C102210361C101210B612B41614116
:1013100027A125610C610A8301610C6109610461E7
:1013200008C10361096101306104C1046102C101A6
:1013300000100E040D010F01030618060200000044
:101340000101011B010305180500E11FC103C103D1
:10135000C103C103C103C1032E012D0E611A216116
:101360002119C161C1182261220E6108C101610108
:10137000C107610521612106236123052161210443
:10138000C161C106C1026102C105C161C10322611F
:1013900022042461240322612202C1016101C104EB
:1013A000C1036103C103C1016101C10123612302C2
:1013B00025612501236123C1026102C102C10461CB
:1013C00004C101C1026102C103610A610961033CF8
:1013D000001A0F0315001600170009180018011154
:1013E000020A030304030504050406040714011597
:1013F0000116011701001F0FC6E10EC6E12707C63F
:10140000E1470E271F1F0BC4E1172461172A611142
:101410002F610C3361083661053861033961023987
:10142000610200070C031103090F190F03070007DE
:101430000107021B0100020A0F180F001F1F0561A0
:1014400050226223612361098721C1216121012189
:1014500061210121612C02C1012101216121C121F0
:101460006121C12164C164C163236121A16223613F
:101470002101216244624362036E4102C162410262
:10148000622261C162046101220162410181416203
:101490004101C16221016121620123610121C12158
:1014A000624462436221610121620121C101610242
:1014B000226284016621610262012201610121012F
:1014C000216102C1036524630461012201612702D5
:1014D000C16123C168446121654101226123016228
:1014E00005C1024261216101610161410122610185
:1014F000226126A10621610161C1614102C1612110
:10150000026121001A0E0301000A03130601000004
:10151000020009031206180800E10637610435616C
:1015200024610432612761042F6125012461042CA8
:10153000612501276104296125012A6104266124AE
:1015400001C1012C610423612701C1012C610461E7
:1015500025012401C1012D6225012701C1012A6253
:101560002501296101C10127622501296123012685
:1015700062C103C103C103C1012161230126612EA0
:10158000022407613C000D0E03170100020902014D
:101590000D000001160103020A0201810E2181C221
:1015A0002B01218102AB012181022B01218101C18B
:1015B0002305A301218102A304C123012181022B60
:1015C000012181026129022181C10261A7032181D8
:1015D000026C2181022B01218101C1AB0121810219
:1015E0002B0121E1622305A3012181022304C123F0
:1015F00001218101C12B0121810261A9022181C147
:10160000026127032181026C218101C12B0121810B
:1016100002AB012181C22B0121810A230121810A10
:1016200023012181C109A30121810A230121810A0A
:1016300023012181C10D2100100E0310040E071794
:101640000A060100010101020103010401050C0366
:101650000E03060714070021E11922E19922E10790
:10166000A1236123A10922E104C1A121A1036103F6
:10167000A12201C10522E102C1A121A1C561C201CE
:10168000C221A12101A10322E10122A121A1256101
:1016900026A121A12101C1012509610921A121A1C1
:1016A0002305C4026102C40521A122046126A161AF
:1016B00027610522046107610761052203C16102F8
:1016C000C56101C101C46105220161A12961A1298E
:1016D00061022201610A610A61022201610A610A52
:1016E00061022201610A610A61023D000A090407E0
:1016F000031103040D170D020C000C010101170169
:1017000004071707001C210921C1E1C12109210497
:1017100021836185216121856183210621C10161C8
:1017200005C161C1056102210821816181618321B7
:1017300061218361816181210A21026102A101612C
:1017400001A10261022108618321016101218261FD
:101750008221016101218661026181610221612191
:101760000721612105618161046102216121072155
:1017700061210561046181610221612107216124E8
:1017800002618161026104216129612404610261B5
:101790008161022161210125012161220121026172
:1017A000816103C161022161210122C12201216104
:1017B000240261C1036181610221612101250121AE
:1017C00061210561816102618401610181058101FD
:1017D00061018761026104216121012501216121EB
:1017E000076101000107031902080511090104023C
:1017F0000E0002021802130900611B6102820691A9
:101800006109C16104C10461056123012761876128
:10181000016101614401A1096101C1056101610129
:1018200061044361230461876101610144610361D3
:1018300001C1012504C10261016105610361012546
:10184000C12187610161016144612101618F6101F1
:10185000610161046127A1250761014462C102247D
:10186000052103246105622D420126612461412C7A
:1018700003266123C161412C61410122C1236124FE
:10188000614101C12A6141076104610126A105612D
:10189000412C00080E0402011A010F060F0B04036D
:1018A000000D000E0018000000070014001B0000CF
:1018B0001F61096209610422612205226222052258
:1018C00061220122C161C122032362230322C1617B
:1018D000C12302610522C1016201C122022102610C
:1018E0000322016102832202620622016104226155
:1018F000220322C1016201C10522612203C161C12B
:10190000220323622206C161C12203610221042253
:101910006223018203610223C161C12204C1016209
:1019200001C1220222C161C1220121A161A12107BD
:101930006202220321A161A12104610522C1016289
:1019400001C12205610D2362231522622218620D56
:101950002D622D000C0E0410040B070B0C130E024D
:1019600000001B0004001700040E170E00E1811890
:1019700081E161013801620121042102C102C1211A
:10198000072102210162012101C10224A1230721B3
:10199000022101620121A124052101C102C103210B
:1019A00001C121016201210321062D0162012103F0
:1019B000210621062104210162012502C10321061D
:1019C000210421016201210329052102C101210114
:1019D00062012106210421C10422A1230162012107
:1019E00001C102C101210427042101620123A124B4
:1019F0000421032106210162012101C10121C10449
:101A0000C10121C1022101C1042101620123A12AD6
:101A1000A126A12201621A613C00010E030D0104FE
:101A20000217020606001B0006011B0106021B022C
:101A3000000114021A020703001F1983048625619E
:101A400009612241230128C12A6222C1230141C127
:101A5000036121612203C103C10162260145614185
:101A6000610387016208846101610361076122A14A
:101A70002361086103610221046183036126012758
:101A80006126C1036122058421016882046121026B
:101A900043610421C16801C1612402210343610142
:101AA0002181680181610521026124610121C168F0
:101AB00002610361210361246101218168026103E4
:101AC00061216102612101C12161012B612F0C6142
:101AD00000180E030F001B01020E04000005001287
:101AE000001B0004001802010E150E01E16F012118
:101AF00001210121012101210121012101210121D6
:101B00000121012101210121012101210121C12105
:101B1000C121C121C121C121C121C12101210F2127
:101B2000E16F012F0124C12A0122C123C127C10174
:101B300028C123C12281C129C124012F81C129C10A
:101B4000240128C123C1220122C123C127C10124AC
:101B5000C12A012F012FE16F810281058105210139
:101B60008201C1820581C1012102C102810281017C
:101B7000C10421038102C18101810181018101210F
:101B800002810581028202210381C18202810381D7
:101B900001210181C103C1810281C1810221810230
:101BA000810281028103810121E16D012100150E75
:101BB0000210010E0E01130000001B000F010C0E9D
:101BC0000005850E8104230661820661240521C17A
:101BD000066182012661240523058202A124A161F8
:101BE00021C2210923A104A124A161240923A10167
:101BF0002281A121C221A16104A1230521C2A10149
:101C00002201A124A16104A1230523A10A6104A149
:101C1000C221136104A12309A122A1066108A12305
:101C2000A104A1C2A10661A12304A123A104A122B0
:101C3000A10661A123012201A101C101A10E61A19F
:101C4000C221012201A123A10E61A1231761083C39
:101C500000100C030E041709070B0500001B000001
:101C6000011B0100021A010F041809060B00E11FF5
:101C7000198561056186612105216106618561061D
:101C8000612101C103216101C10461056103C10238
:101C90006125A121612301C1012162032DA12161DF
:101CA0002701610CC1056125C102612203C121C167
:101CB0000322056126C101612202C123C10222055E
:101CC0006127C1612201C125C1012203C10161282F
:101CD0006122A12B614221612107610E6101226114
:101CE0002102C10222610E61012261286184612406
:101CF00061C1836101226121076102C1016122C1C9
:101D0000216121022161C1226132612461236100CC
:101D10001206020A031A090B0E000E010507050838
:101D20000509050A050B050C050D050E050F020139
:101D30001901000618090200000000000000000060
:101D40000000000000000444444440040444000037
:101D5000000000003000000003400000303111138B
:101D6000000034444444034444440310340130002C
:101D7000300000003100444031003060530030003A
:101D800000035013000310003000610030044030A5
:101D90000001304004443444413013300316311004
:101DA0001300100000000131013003111111130064
:101DB00011110111111151100310016013430000A2
:101DC00040000311511003111111100311110111E1
:101DD000131060100310610013031011011113118F
:101DE0001110031111111303111101161311111008
:101DF0000310016003031000010003100010031121
:101E00001111130311511151131060001300000040
:101E100013130001006003000803070102061A0AF9
:101E20000500000001000200030004020108011384
:101E3000011B0100E11F0EC10B42614409446145D1
:101E4000E103610421C106210461210183E1836171
:101E5000852105218561416102C121C1026102C163
:101E60000321032106612161820221026183012194
:101E7000610121012103C1036141036102210521A7
:101E8000016102A1086121C10261032103210261F4
:101E900009C10161410182614221012101210361E6
:101EA0002101860121016121610721A10461012134
:101EB00001C104210261416103C161230561022165
:101EC000042101C101612461216141876103210273
:101ED00021022261246101610DA205610461016199
:101EE000146104614726442447000F0F020B0410BD
:101EF000040A070014000701140107021402070E68
:101F0000140E070F140F00001B0009031203001C1E
:101F10002661E10D612963C1E10DC1632362236381
:101F2000C10AC16321A12162C16321A12163C1064C
:101F3000C163236303C1632363C102C16321A12180
:101F40006307C16321A1216623630BC1632362235D
:101F5000630FC163216221630FC163236223630B9B
:101F6000C163236621A1216307C16321A12163C14C
:101F700002C163236303C1632363C106C16321A15B
:101F80002163016221A12163C10AC163236223632A
:101F9000C1E10DC1632961E10D612600D5F08D1409
:101FA000A1C881CFD9F1AF20005717A38B2E2E47A0
:101FB000175D74D145175D74D145175D721F5D744F
:101FC000D145175D74D145175D749129BAE8A28B8C
:101FD0002EBAE8A28B2EBAE8A28B2EBAE8A28B2EDC
:101FE000B98F2EB4499D4EC7A55C2A954AA5728A21
:101FF0002E5795AA4A55E51C9772A9542A954A4925
:102000001449974DE71D977255A9AA5455EEA24A57
:10201000E52A9BAD5C2A2AE752A9543624DDD7571E
:102020005595AA2A3559AE2A5595AACA392AA9F230
:10203000CAA525977255A9AA5455AEA35485ACE8F4
:10204000A28B2EBAE8A28B2EBAE8A28B2EBAE8A2F7
:102050008B2EBAE8A28B2EBAE8A28B2EBAE8A28BFE
:102060002EBAE8A28B2EBAE8A28B2EBAE8A28B2E4B
:10207000BAE8A28B2E32450FA38B6DB9554E29BB02
:1020800073A76C3EBAE8A24B293FDB4A112593A502
:10209000E8B2D94AA62B9B4F395BC988625BA62B55
:1020A000999F4CD96C25F39329BAC8145D7429E71C
:1020B000A38B2EBA58A3EB74AE93CA29ED6EC51448
:1020C0005D74D145A77C4E91C594733A975F763A7B
:1020D000D7D9647ED9E95C45A67CAED33945E6B84C
:1020E000A28BEE93DD5DC96A49155DBE72D14517BD
:1020F0005D74791B07B22E954A653BAD5D369D77C1
:1021000054D265D3F9E894AB4A55A5AA721D9772CB
:1021100055A9AA5455AE031007B22E954A65E3722D
:102120003EA77CCA9129974AA552A99C2202100772
:102130009C72A9542A95CA292EE9B2E9BCE352AE91
:102140002A5595AACA75591FA38B2EA764E7D29D5D
:10215000DCE7D28E2EB66D7ABAD8B6E9E962DBA694
:10216000A78B6D9B9E2EBAE862DBA6A78B6D9B9E0C
:102170002E9B9E6D9BCFA6B7E9E972694717DB36A8
:102180003D5D4EE96D3EBA6C7A9B8F2E7439974E49
:10219000C79C733A2E652B59C9CA756CD94A56B279
:1021A000728EAB9395AC64652353B69295AC5C8705
:1021B0002BE5D3E95CC7A57C3A9D53648E4B9139DE
:1021C0002E2BD3E99CE2CB391D97B295AC64E53A4E
:1021D0002EE5D3D9C894AD64252BD7416FF7B5ABA5
:1021E0004AA952A9C97255A9AA5455CE5149955721
:1021F0002E2DB994AB4A55A5AA721D2C1B5D74D126
:1022000045175D74D145175D74D1C594EB742EBA32
:10221000E8A28B2EBAE8A28B2EBAE8A28B2EBAE8DF
:10222000A28B2EBAE8A28B2EBAE8A28B2EBAE8A215
:102230008B2EBAE8A28B090A1000000000000000F3
:1022400000000000000000000000000000EFEFE0D0
:10225000EFEFEFEF0FEFEF010101010101010001CD
:1022600001FFFFFFFFFFFFFFFFFF00010101010171
:1022700001010101000000FF42424242FF00000054
:10228000000300000000030000020202020202023A
:1022900002020200000000000000000000EFAFE0BA
:1022A0006FEFEFED0FEBEF01010101010101000103
:1022B000010000B0B000B0B000000000000101005B
:1022C0000101000000EFEFE0EEEEEEEE0EEFEF01A9
:1022D000010101010101000101EEECE0E8E8EAE89A
:1022E00008ECEE01010101010101000101ECE0C077
:1022F000C088808000E0EC010101010101010001C2
:1023000001E08000000800010086E00101010101F8
:1023100001010001010000000000000000000000B9
:10232000000000000000000000E0808000000000CD
:102330000080E001010101010101000101ECE0C0A8
:10234000808080C000E0EC01010101010101000179
:1023500001EFECE0E8E8E8E80CECEF010101010135
:102360000101000101EFEFE0EEEEEEEE0FEFEF0105
:102370000101010101010001013F0FA5AA64656B84
:102380002AA9AA52A9B83A5595AA4A755CCEA7536C
:102390008E4BBA7C362BA9A4AA4AA5E2562E95AA42
:1023A0004A95E272AA92957554D2E5B359492555DA
:1023B000552A15D2A5AA64656B2AA9AA52A9B83ACA
:1023C0005595AA4A755CE9B454F13955C9CA3A2AF7
:1023D000A92A59D99A2A9D962A7EE552A9AA542952
:1023E0002EA72A595947255D3E9B95545255A55213
:1023F00021122C07EA5455AA2AD571A5D352C5E754
:1024000054252BEBA8A4AA64656BAA745AAAF89564
:102410004BA5AA52A5B89CAA64651D9554F9ACA415
:1024200092AA2A954A010207A55336090000F40131
:102430009C00A5000000A80093009C00000009007B
:10244000E9009C0000000900A5009C0000000900B4
:10245000F7009C0000000900A500A5000000A800EE
:10246000E900A5000000A80083009C00000009000E
:10247000D0009C000000090093009C0000000900AF
:10248000E9009C000000090093009C000000090086
:102490008B009C000000D0070180E0061E000000B9
:1024A0000A00E0061E000080080B00020202010084
:1024B00009040000010202000005240010010524A7
:1024C0000101010424020605240600010705810319
:1024D00010004009040100020A0000000705020282
:1024E00040000007058302400000040309041201B4
:1024F0000002EF0201404123368000010102030186
:1025000041726475696E6F204C4C43004172647572
:10251000626F790020066400000014002705640043
:102520000000140017046400000028004B0264003F
:1025300000001400DC036400000014008801640043
:10254000000028000080DE3211241FBECFEFDAE049
:10255000DEBFCDBF11E0A0E0B1E0E8E6F9E602C0E1
:1025600005900D92A43AB107D9F727E0A4EAB1E0AB
:1025700001C01D92A23FB207E1F712E1C4EAD2E125
:1025800004C02197FE010E94A734C33AD107C9F7BE
:102590000E94642E0C94B2340C9400002F923F924F
:1025A0004F925F926F927F928F929F92AF92BF9263
:1025B000CF92DF92EF92FF920F931F93CF93DF930F
:1025C000CDB7DEB72D970FB6F894DEBF0FBECDBFE7
:1025D0008091C20190E02091CB013091CC01821B0F
:1025E000930B05962AE030E0B9010E942A33162F9A
:1025F0006D878091C30190E04091CD015091CE0153
:10260000841B950B0596B9010E942A337B016C87C8
:1026100080910001853091F0809177079091780743
:102620006CE070E00E943E33892B09F0FCC390916E
:10263000A40181E089278093A401F5C3812F0E9422
:10264000C52B082FD0907907C0907A07C094CD2071
:102650001092C4011092CF018091C9018B3021F0FA
:102660001092C5011092D0016E2D812F0E94C52BB2
:10267000863079F58091C6019091C7014996909373
:10268000C7018093C60140E06E2D812F0E94EC2B84
:102690008091B202882319F081508093B202809118
:1026A000B202811112C0B12C8091B302B81668F445
:1026B000EB2DF0E0EE0FFF1FEB54FD4F43E0618187
:1026C00080810E94EC2BB394EFCF8FE293E00E94C5
:1026D00013228091A5019D2D9C709C3061F58F5F28
:1026E0008093A5018531B0F18D3390F08D3391F554
:1026F0001092A50183E884BD8FEF87BD81EF8093A1
:1027000080001092880010928A000E94512E1EC3F1
:1027100020E430E0A901481B5109CA01880F93E861
:1027200094BD9FEF97BD91EF909380001092880029
:1027300080938A000FC0882369F083E884BD8FEFFF
:1027400087BD81EF809380001092880010928A00EC
:102750001092A5018C2D84709C2D9870C3FE2DC005
:1027600081112BC00E949923882309F454C08091C1
:10277000C20190E02091CB013091CC01821B930BE0
:1027800002966AE070E00E942A33162FCC24CA9485
:10279000C60E6E2D8C2D0E94C52BA82EBB24B39483
:1027A000BE0C6B2D8C2D0E94C52B8130A1F58FEFB7
:1027B0008A0D823008F09AC22EC0882361F19111EF
:1027C0002AC00E949923882331F18091C20190E0B0
:1027D0002091CB013091CC01821B930B02966AE0D1
:1027E00070E00E942A33162FCC24C394C60E6E2D9F
:1027F0008C2D0E94C52BA82EBB24B394BE0C6B2D30
:102800008C2D0E94C52B813031F48FEF8A0D8230E0
:1028100010F00C94081DD6FECAC06E2D812F0E94A8
:10282000C52B082F8091C20190E02091CB013091FF
:10283000CC01821B930B6AE070E00E942A336C018A
:10284000892B19F481E0810F01C0812F6E2D0E9428
:10285000C52B282E552453945E0CC114D10419F4B1
:1028600081E0810F01C0812F652D0E94C52B482E6C
:10287000C114D10419F08FEF810F01C0812F652D94
:102880000E94C52B382E822D0E94CE2D682E470126
:1028900099245FEF851A950AA12EB12CA401B501E8
:1028A000832D0E94442B782E0E9499239091C90178
:1028B0009B3089F4882311F40C94DD1F7110C1C082
:1028C00064E0261621F0043011F00C94DD1F68E05E
:1028D00087E00C94701D0E94FC2C882341F08DEF42
:1028E000800F823010F00C94221D0C940F1DC11427
:1028F000D10419F481E0810F01C0812F6E2D0E9457
:10290000C52B782EC114D10419F481E0810F01C0C8
:10291000812F652D0E94C52B682E62E06E0DC114BB
:10292000D10419F481E0810F01C0812F0E94C52BD1
:10293000482E862D0E94CE2D682E872D0E94CE2DEA
:10294000882311F40C94731D662011F40C94731DEC
:1029500035018FEF681A780AA401B301842D0E9413
:10296000442B882311F40C94651D64E081E00E94DF
:10297000AC231092C9018091CD019AE0E99E800DAF
:1029800011248093C3018091C2018C3310F482E042
:10299000C5C02091CB013091CC0129363F4F24F0A6
:1029A0001092C4018EEFC6C087FFF1CF90C1D5FE53
:1029B000C7C06E2D812F0E94C52B082F8091C201A8
:1029C00090E02091CB013091CC01821B930B6AE007
:1029D00070E00E942A334C01892B19F48FEF810F8C
:1029E00001C0812F6E2D0E94C52B382E7724739441
:1029F0007E0C8114910419F081E0810F01C0812FB8
:102A0000672D0E94C52B482E832D0E94CE2D582E57
:102A10005701BB24BFEFAB1ABB0AC12ED12CA501B5
:102A2000B601842D0E94442B682E0E949923909118
:102A3000C9019B30B9F4882311F40C94DD1F662082
:102A400031F01092C9010E94FB200C940520E4E0B3
:102A50003E1621F0043011F00C94DD1F69EF86EF73
:102A60000C94CC1D0E94FC2C882341F08DEF800F2C
:102A7000823010F00C94921D0C949D1D81149104D1
:102A800019F48FEF810F01C0812F6E2D0E94C52B8D
:102A9000082F8114910419F48FEF810F01C0812F49
:102AA000672D0E94C52B782E62E06E0D8114910473
:102AB00019F48FEF810F01C0812F0E94C52B182FB1
:102AC000872D0E94CE2D782E802F0E94CE2D882318
:102AD00011F40C940520772011F40C940520F1E0FA
:102AE000CF1AD108A501B601812F0E94442B88235B
:102AF00011F40C94C01D6FEF8CEF0E94AC23109268
:102B0000C9018091CD012AE0E29E800D11248093BD
:102B1000C3018091C2018D3320F08EEF8093C401F8
:102B2000D4C02091CB013091CC0137FF06C0109268
:102B3000C40182E08093CF01CAC08111EECFC7C02B
:102B4000D7FE88C08091C30190E02091CD013091E3
:102B5000CE01821B930B08966AE070E00E942A3334
:102B60007B01B62E0E949923D82E882319F06FEF8F
:102B70006E0D01C06E2D812F0E94C52BC82EDD2049
:102B800019F0BB24B394BE0C6B2D812F0E94C52B72
:102B90009091C9019530BCF097305CF09B3099F46E
:102BA000043011F00C94E41DD1100C94E01D0C9431
:102BB000E41DDD2061F1033009F083C08FEF8C0D3F
:102BC000823028F57EC00E94FB208091C20190E0F7
:102BD0002091CB013091CC01821B930B2AE030E095
:102BE000B9010E942A33863020F0A901481B5109FF
:102BF000CA0105970CF067C0033009F064C08FEF7D
:102C00008C0D823008F45FC085E08093C90180910B
:102C1000CB015AE0159F800D11248093C2011092C0
:102C2000C4011092CF018091C301883120F08EEF52
:102C30008093C5014EC02091CD013091CE0137FF68
:102C400006C01092C50182E08093D0017FC081113F
:102C5000EECF7CC0D4FE40C08091C30190E02091B3
:102C6000CD013091CE01821B930B08966AE070E093
:102C70000E942A337B01D62E0E949923C82E8111EF
:102C8000AAC76FEF6E0D812F0E94C52BB82ECC20E6
:102C900019F0DD24D394DE0C6D2D812F0E94C52BFD
:102CA000D82E8091C9018B3009F0FDC6043009F49B
:102CB00085C7CC2009F4A7C784EF8B0D843008F0BA
:102CC000A2C70E94FB201092C4011092CF01109263
:102CD000C5011092D0013AC08091C501823009F43B
:102CE000BBCF8091D0018E3F89F5B6CF43E0A416CB
:102CF00009F491CD84EF8093C9011092C401109220
:102D0000CF0147E06B2D8C2D0E94EC2B8091730737
:102D1000843181F0E82FF0E09F01220F331FE20F92
:102D2000F31FE95CF84FC082B1829CED92838F5F04
:102D3000809373078091790780937A070E943123EB
:102D40008093790781E193E00E94132280917707B5
:102D500080FD62CC1092E2021092F0021092FE020C
:102D600010920C0310921A031092280351EE652E54
:102D700052E0752EF301808184FF4BC082819381E4
:102D80006AE070E00E943E33D62E68878481958188
:102D90006AE070E00E943E33F62E69878D2D0E9416
:102DA000C52BB82ECC24C394CF0C6C2D8D2D0E9436
:102DB000C52B982EF6E0BF1206C0D30118968C9151
:102DC000882309F42DC7F30182858D3014F5228103
:102DD00033813B872A87C9016AE070E00E943E3355
:102DE000892BB9F404811581C8016AE070E00E9462
:102DF0003E33892B71F4E384EE2009F431C7D3010B
:102E000018968C91811123C7F30117828385815015
:102E10008387BEE06B0E711CE5E36E16E3E07E0671
:102E200009F0A8CFF9CB8091000188508330F8F4E5
:102E300080910001982F9B7F933009F072C290918E
:102E4000A901E92F092E000CFF0B990F27E3291B7D
:102E500040E450E04E1B5F0B440FBF01CF010E94C6
:102E6000A82CE090A90100E010E0F12CC8C1C12C11
:102E7000D12C812C712CA12CB12CE090CB01F090A5
:102E8000CC01EA0CFB1CC70109968938910528F58D
:102E90000091CD011091CE010C0D1D1DC8010996A8
:102EA00089349105D0F4682D872D0E94C52B982E6A
:102EB000882339F0282F47E352E2B801C7010E9466
:102EC000262229EF290D243040F4B8016A507109F7
:102ED0004DE353E0C7010E9426227394FAE0AF0E3F
:102EE000B11C2CE17212C9CF83943AE0C30ED11CFD
:102EF00040E18412BFCF80910001853021F08091A4
:102F0000A4018823F1F08091C901082F001F002738
:102F1000001F082E000C990B97FF03C09195819517
:102F20009109880F990BFC01E35EFE4F40815181AE
:102F30006091C30170E08091C20121E090E00E94A5
:102F4000F32931EEA32E32E0B32E7501D7018C9117
:102F500084FFADC012960D911C9113976090CB0128
:102F60007090CC014301800E911E14968D919C911E
:102F70001597C090CD01D090CE01C80ED91E1B96DA
:102F8000EC914E2F50E04331510508F088C0FA0112
:102F9000EA5AFF4F0C94A734F7018285082F001FCF
:102FA0000027001F082E000C990B97FF03C0919576
:102FB00081959109880F990BFC01E35EFE4F4081DA
:102FC000518170C0F1E08F1A910869C02FEF821A09
:102FD000920A65C032E0C31AD1088EC744E0C41A11
:102FE000D10807C056E0C51AD10886C768E0C61ADE
:102FF000D10800E047E653E055C0AAE0CA1AD1085C
:103000009C012A503109F701358324831386C801B6
:103010006AE070E00E943E33262EC9016AE070E04B
:103020000E943E33462E55245A94520C852D0E9400
:10303000C52B8F8333243394340C632D852D0E944C
:10304000C52B888755245394520C642D852D0E94DE
:10305000C52B482E632D852D0E94C52B582E80919F
:10306000C20190E0861997098017910764F48F8157
:103070000E94CE2D882309F437C788850E94D72D5A
:10308000811129C731C7842D0E94CE2D882309F4D0
:1030900022C7852D0E94D72D811126C71CC700E0AD
:1030A00049E853E021E0B601C4010E94F329FEE0A3
:1030B000EF0EF11C25E3E21623E0F20609F046CFFD
:1030C0004090C201512C8091CB019091CC01481AC3
:1030D000590A6090C301712C8091CD019091CE016D
:1030E000681A790AD5018C9184FF7FC012968D9160
:1030F0009C9113979201281B390B14968D919C91EA
:103100001597F301E81BF90BCF01C090C3014C2DBB
:1031100050E04E1B5F0BE090C201473FFFEF5F079F
:10312000C4F48E2D90E0821B930B8F3F4FEF9407DA
:103130000CF4E6C68C3791050CF0EAC6E3948E2DAC
:10314000821B29EA822E23E0922E4FED53E090E07D
:103150003AC045335105C4F08E2D90E0821B930B8D
:103160008F3F5FEF95070CF4DBC68C3791050CF0B1
:10317000E0C6E3948E2D821B9AE9892E93E0992E66
:103180004EEC53E093E31FC0F12CE21AF30A6CEF0C
:10319000E6166FEFF6064CF49C2D981B0CEB802E78
:1031A00003E0902E45EF53E0C2C6ACE7EA16F10407
:1031B000E4F09C2D981B18EB812E13E0912E40EF2C
:1031C00053E08CE702C08F3F81F0C92ED12CE82E4E
:1031D000F12C00E020E0B601C7010E94F32921E0B4
:1031E000A401B601C7010E94F329BEE0AB0EB11CD9
:1031F000E5E3F3E0EA15FB0509F074CF19CE41E0F1
:10320000B701C8010E9439230E5F1F4F0238110514
:10321000B1F78091A90106E3081BE12CF12C10E025
:1032200041E0B801C7010E943923F2E0EF0EF11C22
:1032300022E8E216F104A1F7E090A90100E010E015
:10324000F12C41E0B801C7010E9439230E5F1F4FE6
:1032500002341105B1F78091A9010FE7081BE12C99
:10326000F12C10E041E0B701C8010E94392332E09F
:10327000E30EF11C42E4E416F104A1F78091000191
:10328000833039F0D12CBBE1EB2EF12C00E410E0BF
:1032900026C01091A9011150FBE1CF2ED12CA0E442
:1032A000EA2EF12C17FD12C0812F012E000C990B74
:1032B0009601281B390B220F2F5FA701481B590BC2
:1032C000440FBC010E94A82C1150ECCF8091A901A1
:1032D00081508093A9018F3F09F584E01DC0809142
:1032E000A901D81694F48D2D0D2C000C990B970183
:1032F000281B390B220F2F5FA801481B590B440FC5
:10330000BC010E94A82CD394EACF8F5F8093A901BF
:103310008C3121F48091CA018093000100E010E01B
:1033200067C098EF980F9330C8F78A3069F400E0CF
:1033300021E045E554E069E170E08AE290E00E9416
:10334000F32909E210E03BC0883029F400E021E0D5
:1033500044E254E02FC01091B102812F64E60E9434
:103360009B34082F282F41EC54E069E170E088E499
:1033700090E00E942622812F54E6059F8019112497
:103380006AE00E949B34192F282F41EC54E069E138
:1033900070E08DE490E00E942622212F41EC54E061
:1033A00069E170E082E590E00E94262200E021E0E1
:1033B0004AE054E069E170E08BE290E0C0CF41E088
:1033C00066E170E0C8010E9439230E5F1F4F093586
:1033D0001105A9F709E210E041E060E270E0C801E0
:1033E0000E9439230E5F1F4F09351105A9F796CFAB
:1033F000E7E3EE2EF12C40E0B701C8010E9439232B
:103400006FEFE61AF60A80E4E816F104A1F70F5F01
:103410001F4F0038110561F700E010E041E068E35C
:1034200070E0C8010E9439230E5F1F4F023811055A
:10343000A9F78091C6019091C701FE01319626E05F
:10344000DF011D922A95E9F77F019E01295F3F4F19
:103450000AE010E0B8010E943E338193CB012E17A1
:103460003F07C1F700E021E04BEE54E06AE370E073
:1034700080E090E00E94F32906E310E0F70121913B
:103480007F0141EC54E06AE370E0C8010E9426220B
:10349000055011090831110589F7F090C80100E0C5
:1034A00021E04EEA54E06AE370E080E490E00E949C
:1034B000F3291AE08F2D612F0E949B34092F282FAA
:1034C00041EC54E06AE370E082E590E00E9426223D
:1034D000202F41EC54E06AE370E087E590E00E9421
:1034E000262280910001853071F4F090B20200E054
:1034F00021E043E954E06AE370E080E690E00E9456
:10350000F3298F2D1DC0F090B10200E021E043E8C7
:1035100054E06AE370E080E690E00E94F32964E6FC
:1035200070E08F2D90E00E942A33262F082F41EC67
:1035300054E06AE370E081E790E00E942622802F49
:10354000612F0E949B34192F282F41EC54E06AE32D
:1035500070E086E790E00E942622212F41EC54E0A3
:103560006AE370E08BE790E00E9426222091000140
:10357000253009F0C4C1809177079091780780FDCC
:103580001CC02091C40121110CC02091C501211142
:1035900008C02091CF01211104C02091D001222325
:1035A00061F02091C901ECE0E20FEC3120F4F0E091
:1035B000E25FFA4F24912093C90183709927892BE8
:1035C00009F445C02091C4018091C201280F2093C5
:1035D000C2011091C5018091C301180F1093C3015E
:1035E0008091CF01E090CB01F090CC01E80EF11C6E
:1035F00087FDFA94F092CC01E092CB018091D0014A
:103600004091CD015091CE01480F511D87FD5A9533
:103610005093CE014093CD01812F90E0841B950BF8
:103620000596EAE0F0E0BF010E942A33362F822F90
:1036300090E08E199F090596BF010E942A33862FBC
:10364000632F0E94C52B123008F053C01DC0A1EE9D
:10365000B2E085E393E02C9124FF11C01B962C91DE
:103660001B97222309F46EC40AC016962C91169754
:10367000211172C417962C91179721116DC41E96B3
:103680008A179B0741F79ECF833099F51091B102BD
:103690001F5F8091C8018A3018F48F5F8093C80142
:1036A00086E0809300011093B102612F82EB90E0DD
:1036B0000E9402341C3908F45EC481EB90E00E9441
:1036C000F433843008F055C411E0180F612F81EBFA
:1036D00090E00E940234612F86EB90E00E94023459
:1036E0000E94242C8EE08093CA018AE295E00E9419
:1036F00013228091770780FF0DC080917307882384
:1037000009F467C1B12C6DE0A62E75E3C72E73E0F6
:10371000D72E86C001EE12E0D8018C9184FF54C0F0
:1037200016968C91169712964D915C911397480FAF
:10373000511D87FD5A9513965C934E9312971796D9
:103740008C91179714962D913C911597F901E80FDC
:10375000F11D87FDFA951596FC93EE931497209131
:10376000C20130E08091CB019091CC01281B390B34
:103770008091C301A091CD01B091CE01790162E0A9
:10378000E60EF11CBA01685F7F4FE616F706E4F417
:103790004E5F5F4FB901685F7F4F46175707A4F42C
:1037A00090E08A1B9B0BAC014E5F5F4F9F01285F2F
:1037B0003F4F4217530744F4265031090896281703
:1037C000390714F40E94512E025F1F4F83E0053326
:1037D000180709F0A1CF10E000E0612F802F0E94B0
:1037E000C52B99EF980F943030F441E0480F612FCA
:1037F000802F0E94EC2B0F5F0C3179F71F5F103187
:1038000059F77BCF0B2D10E07801EE0CFF1CF70170
:10381000E00FF11FE95CF84F8281811106C0B3947B
:1038200080917307B81670F365C081508283803130
:1038300079F030F4813071F0883089F74FE04EC074
:10384000883121F0803259F74CE048C04DE046C045
:103850004EE044C08091B40290E0880F991F8752D7
:103860009D4FA1EEB2E04F01AF014F5F5F4F2C9132
:1038700024FF1BC0F4012081FAE02F9F9001112446
:1038800012966D917C9113976217730771F4FA0188
:103890002081FAE02F9F9001112414966D917C9164
:1038A00015976217730709F468C31E96CA16DB06DC
:1038B000F1F6F701E00FF11FE95CF84F80812D85EB
:1038C000821306C081813C85831302C00E94512E61
:1038D0000E0D1F1DF801E95CF84F41E06181808108
:1038E0000E94EC2B9CCF0E94162D80917307882399
:1038F00009F46FC0809139078130A9F36AC0309113
:10390000790790917A0790959323243009F044C069
:103910008091A60132FF32C08E3268F48932D0F035
:1039200083E884BD8FEF87BD81EF8093800080E4C2
:10393000809388000BC0833388F483E884BD8FEFC5
:1039400087BD81EF809380001092880010928A00DA
:103950008091A6018F5F8093A6013BC08091B10248
:1039600097FF04C08B3910F48F5F05C094FF31C0FE
:103970008A3778F181508093B1022BC0882371F08F
:10398000833300F1883218F082E0809300011092B6
:10399000A601911117C01DC01092A6019923C9F06C
:1039A0002B3040F4293048F4273049F0283051F4C6
:1039B00081E00DC02E3069F005C082E008C0809122
:1039C000CA0105C010927A071092790785E08093AA
:1039D00000018091A50181111AC38091A601811176
:1039E00016C38091B202811106C0909100019530FA
:1039F00019F480E201C080E093E894BD809587BD12
:103A000081EF809380001092880010928A00FFC29C
:103A100053E0A51611F40C940B148CE06CC96620CD
:103A200009F4F3C2772019F064E081E004C00430A7
:103A300031F46AE087E00E94AC230C94BB1466E08A
:103A400085E0F9CFC114D10441F4A401B501832D5F
:103A50000E946A2B811184C0B2C2611003C0711030
:103A60008CC00AC0A401B5016F5F7F4F842D0E94F6
:103A7000442B8111D9CF03C0CD2809F4C6C2B501AA
:103A80006F5F7F4FA401842D0E946A2B8111CCCFE0
:103A90001092C4011092CF01882309F418C98BE059
:103AA0008093C9010FC063E0D61297C08091CB010B
:103AB0009AE0199F800D11248093C2016BEF8AEF69
:103AC0000E94AC230E94B52341C9CD2879F4A401FA
:103AD000B301842D0E946A2B8823D1F266E085E031
:103AE0000E94AC231BC0CD2809F48FC2652D812F05
:103AF0000E94C52B182F802F0E94CE2D882309F4F9
:103B000084C2B5016F5F7F4FA401812F0E946A2B91
:103B1000882309F4BDCF8BE08093C9010E94FB206C
:103B20000C94BB148114910419F5A501B601842DE0
:103B30000E946A2B811114C065C2552009F465C228
:103B4000662019F06FEF8CEF04C0043031F469EF98
:103B500086EF0E94AC230C94811566E085E0F9CFD6
:103B60008BE08093C9018FEB91E00E94132225C264
:103B700051102AC2662009F425C21092C90145C21B
:103B8000892869F4A501B601812F0E946A2B882338
:103B900009F47ECF66E085E00E94AC230BC0A5014E
:103BA000B601812F0E946A2B882309F471CF8BE024
:103BB0008093C9010E94FB200C948115CC2019F13F
:103BC00087E08093C9017DC8A70155274F5F5F4FEC
:103BD000612F70E01FC06E2D56C88D2D0E94CE2D16
:103BE000811103C01092C9016CC8D11003C08BE0D1
:103BF0008093C9018091CB01AAE01A9F800D112406
:103C00008093C2015FCFA70155274F5F5F4F612FA0
:103C100070E08D2D0E94442B882309F453CFE2CF0E
:103C20000E949D330E949D332AE030E040E050E046
:103C30000E943834DC01CB014496A11DB11DF30173
:103C4000808740E06F2D8D2D0E94EC2BBCC8FA942C
:103C50006F2D8D2D0E94C52B882309F433C1D4C844
:103C60006FEF6F0D8D2D0E94C52B8F836F2DAA24B2
:103C7000A394AD0C8A2D0E94C52B582E6C2D8A2D35
:103C80000E94C52B482E6C2DCC24CA94CD0C8C2DB3
:103C90000E94C52B382E6F2D8C2D0E94C52B282EEF
:103CA0008091C20190E02091CB013091CC01821B28
:103CB000930B2A853B85281B390BC9012091C30131
:103CC00030E04091CD015091CE01241B350B021BF9
:103CD000130BD30119962C9119972223D1F01F921F
:103CE0002F923F92892CA42CC52CEF800B2D1D9672
:103CF0002C914F2D6D2DC3010E94CF23F30191858F
:103D0000915091870F900F900F90811182C8148568
:103D100061C097FF1FC0101611065CF49195819544
:103D2000910908171907C4F180179107BCF511E034
:103D300046C001151105A1F1919581959109119543
:103D400001951109801791076CF10817190764F59F
:103D500015E035C00097C9F01016110644F4081795
:103D6000190724F1801791071CF51FE028C00115E1
:103D7000110501F111950195110980179107E4F0E2
:103D800008171907DCF41BE01AC0111F1127111FB7
:103D9000110F110F110F13C013E011C012E00FC06B
:103DA00014E00DC017E00BC016E009C01DE007C00D
:103DB0001EE005C01CE003C019E001C01AE0EDEFF1
:103DC000E10FEC3020F4F0E0EF5EFE4FE080D30135
:103DD0001D96EC92F3018085882389F09FEF990D61
:103DE000923068F4B1100BC08150D30118968C93B7
:103DF000811105C046E06F2D8D2D0E94EC2BB1E0A6
:103E0000BF932F923F92892CA42CC52CEF800B2DB1
:103E1000212F4F2D6D2DC3010E94CF230F900F90A6
:103E20000F9081110C940917F12E48E0D42E112324
:103E300011F0115001C01FE0E1E0EF932F923F928B
:103E4000892CA42CC52CEF800B2D212F498568854A
:103E5000C3010E94CF230F900F900F90882341F051
:103E6000D3011A968C918B3011F00C9409171EC057
:103E7000BFE0FB1611F0F39401C0F12CE1E0EF93E9
:103E80002F923F92892CA42CC52CEF800B2D2F2D27
:103E900049856885C3010E94CF230F900F900F9032
:103EA0008111DECFDA94D110C2CFDACF892D0E94F2
:103EB000D72D882311F40C940917D30117961C925F
:103EC0000C940917F301108646E06F2D8D2D0E948A
:103ED000EC2B0C940417EFEFD7011A96EC931A977A
:103EE000FEEF1696FC9308C081E0D7011A968C93DA
:103EF0001A97E2E01696EC9300E048E753E0D2C848
:103F000031EB832E33E0932E48EE53E090E00FC068
:103F100027EC822E23E0922E42E054E090E010C085
:103F200092EA892E93E0992E47ED53E092E380E0E8
:103F30004CC980EC882E83E0982E4AEF53E092E340
:103F40008BE743C91A96EC911A9723EF2E0F233073
:103F500008F08BCBE45F05C02CE02E0F2C3128F449
:103F6000E22FF0E0E25FFA4FE4911A96EC931A9791
:103F700086CB8FE0B8CB89E0B6CBFC016081218194
:103F8000FAE06F9FB001112413967C936E93129701
:103F90006AE0269F9001112415963C932E93149766
:103FA0001A96AC921A971B961C921B9716961C9207
:103FB000169717961C92179778CC81E069CD6110FF
:103FC00033CD4DCD892809F1672D812F0E94C52B56
:103FD000182F802F0E94CE2D882349F0A501B6010D
:103FE00061507109812F0E94442B8111ABCDB60124
:103FF00061507109A501812F0E946A2B882309F461
:1040000047CDA0CD51109ECDB5CD80E041CD2D96B0
:104010000FB6F894DEBF0FBECDBFDF91CF911F91D9
:104020000F91FF90EF90DF90CF90BF90AF909F9057
:104030008F907F906F905F904F903F902F9008955A
:10404000CF92DF92EF92FF920F931F93CF93DF9364
:104050006C017A018B01C0E0D0E0CE15DF0581F064
:10406000D8016D918D01D601ED91FC910190F08107
:10407000E02DC6010995892B11F02196EECF7E0126
:10408000C701DF91CF911F910F91FF90EF90DF90CB
:10409000CF9008958091B101E091AF01F091B0010E
:1040A000882349F0CF0102969093B0018093AF012D
:1040B000859194910895CF0102969093B0018093D9
:1040C000AF018081918108958091A701089508959D
:1040D000089580E090E00895FC012285261714F0F1
:1040E000421714F4FC01628708950E94AD34BF9218
:1040F000CF92DF92EF92FF920F931F93CF93DF93B4
:10410000FC0166834783862F880F880F860F382F20
:104110003F70942F990F990F940F50E19502C001B1
:104120001124832B818367FF02C08CE003C06623C8
:1041300011F084E0848747FF02C0148604C0442342
:1041400011F088E08487222309F44BC08185811116
:1041500048C0EF018485811134C01D868A819B810E
:104160002AE030E0B9010E943E33162F8C819D81F8
:10417000B9010E943E33FF24FA94F60E00E0CC24ED
:10418000CA94C10EBB24B394B10EDF2CD01A6D2D8E
:10419000812F0E94C52B833091F46D2D8C2D0E94B0
:1041A000C52BE82E6D2D8B2D0E94C52B0F5F9DEF2B
:1041B0009E0D923020F09DEF980F923060F40987A9
:1041C00010C00E949D3326E030E040E050E00E94A5
:1041D0003834698706C08111D8CF81508330A8F662
:1041E000EECFDF91CF911F910F91FF90EF90DF9075
:1041F000CF90BF900895E1E7F0E080818D7F8083CC
:1042000010929100469847981092A8010895CF9275
:10421000DF92EF92FF920F931F93CF93DF930E9451
:104220004A20811520E8920751F4DF91CF911F9128
:104230000F91FF90EF90DF90CF900C94FB2021E046
:104240002093A801813020E8920751F48091AD01BC
:104250009091AE019093B0018093AF010E944A20EB
:1042600097FD05C02091AC01222309F440C02091A4
:10427000AB0121113CC021E02093B201EC01DF77BA
:10428000209769F481E08093B30146983FE9C32EFB
:104290003FE0D32EE12CF12CCAEFD0E014C08E0108
:1042A00020E030E060E472E48FE090E0A901980142
:1042B0000E94383469017A0181E0C81AD108E10806
:1042C000F1081092B301E0913507F0913607099596
:1042D000811103C081E08093B3018091B2018823F2
:1042E00009F43FC08091B30181113BC003C010921B
:1042F000B201C4CF469935C0479A0E944A20009720
:1043000071F09C01DE010E948C34DC01CB0129E0BC
:10431000B595A795979587952A95D1F703C08FEF07
:104320009FEFDC01109290002AE020939100D09240
:104330009900C09298008093B4019093B501A09326
:10434000B601B093B70180917100826080937100D3
:10435000DF91CF911F910F91FF90EF90DF90CF9061
:1043600008954798CACF1F920F920FB60F9211244B
:104370002F933F934F935F936F937F938F939F936D
:10438000AF93BF93EF93FF938091B4019091B501E8
:10439000A091B601B091B701892B8A2B8B2B81F1AB
:1043A0008091B30181110BC098B180E4892788B94D
:1043B0008091B201882319F088B1805888B9809122
:1043C000B4019091B501A091B601B091B701181652
:1043D00019061A061B06B4F48091B4019091B50138
:1043E000A091B601B091B7010197A109B1098093DD
:1043F000B4019093B501A093B601B093B70102C088
:104400000E940721FF91EF91BF91AF919F918F91F2
:104410007F916F915F914F913F912F910F900FBEC0
:104420000F901F9018959C01E1E7F0E090819D7F2F
:10443000908381E08093B1013093B0012093AF016C
:104440003093AE012093AD010C9407214F925F92FF
:104450006F927F928F929F92AF92BF92CF92DF9294
:10446000EF92FF920F931F93CF93DF9300D000D072
:10447000CDB7DEB7DC014115510509F4D8C0FA010A
:10448000F490319694914E5F5F4FCF2CD12C222324
:10449000D9F0E1E0F0E0892F877011F4E0E0F0E07E
:1044A000892F869586958695E80FF11DEC9D8001F4
:1044B000ED9D100DFC9D100D1124209FF001219FFA
:1044C000F00D11244E0F5F1FF601EA0FFB1F1E16A1
:1044D0001F060CF0ACC0A038B1050CF0A8C09B01C1
:1044E000290F311D121613060CF0A1C0603471059E
:1044F0000CF09DC04115510509F499C0062F0770B5
:10450000B02E9B0177FF02C0295F3F4F83E03595B6
:1045100027958A95E1F7822F77FF04C0BB2011F021
:104520008FEF820FB7FF05C0222733272A1B3B0BD3
:1045300002C020E030E0E038F10524F070E87A1B9A
:10454000672E01C06F2C621A082F082E000C110B69
:104550008F3F1CF4F02FF09501C0F0E0EE24E394BF
:10456000692F677009F4E12CE92FE695E695E69549
:104570009E2D9E0F090F111D0930110514F098E0B2
:10458000981B6F2F680F8901FF9E000D111D1124CC
:10459000400F511F01E010E00B2C02C0000F111F53
:1045A0000A94E2F7EFEFE09F7001E19FF00C112415
:1045B000E094F094FC82EB82AC8070E86703A00D7D
:1045C000B11D11242A0F3B1F2B5C3C4F992E980ED6
:1045D000961669F1D9012A01842D841B861508F5E8
:1045E000F2018490809EC001819E900D11249A83D7
:1045F000898367FD04C09C919E21892B8C93BB20ED
:1046000059F067304CF4CD0180589F4FFC018080F9
:104610008A207A8087288082FFEF4F1A5F0A1196DE
:10462000DBCF6F5F4C0D5D1D20583F4FD1CF0F90FA
:104630000F900F900F90DF91CF911F910F91FF90EE
:10464000EF90DF90CF90BF90AF909F908F907F9032
:104650006F905F904F900895BC0180E090E00C94C3
:10466000FC288FB18095807F669B88601C9B84604E
:10467000089580389105B8F460347105A0F490E194
:1046800021E061FD24E060FD220F62FD2295687F3C
:10469000969FD0011124A80FAB5CBC4F8C91822B4C
:1046A00040FF82278C9308951F93CF93DF93DC0103
:1046B00020E030E040E050E011E0C1E0D0E026171B
:1046C000370791F114968C911497811115C01496A7
:1046D0001C93149712968D919C911397ED91FC91D8
:1046E0001197E80FF91FE4911596EC931597019631
:1046F00013969C938E93129714969C9114971596EB
:104700008C911597892349F0FE01022E02C0EE0F0D
:10471000FF1F0A94E2F74E2B5F2B990F14969C9380
:1047200014972F5F3F4FCBCFCA01DF91CF911F91DD
:1047300008958091C30190E02091CD013091CE0188
:10474000821B930B6AE070E00E942A339C0181E097
:10475000232B09F080E008959091C901981714F077
:10476000691714F48093C90108951092C40110923E
:10477000CF0182E08093C5011092D0018091C301E6
:10478000873160F08091CD019091CE0189399F4FA2
:104790002CF01092C5018EEF8093D00108953F92C6
:1047A0004F925F926F927F928F929F92AF92BF9241
:1047B000CF92DF92EF92FF920F931F93CF93DF93ED
:1047C000CDB7DEB7142F902E3C88BE8830E0203164
:1047D000310508F028C1082D7E2D462E3C01F90137
:1047E000E858FF4F0C94A734EE2029F07350723034
:1047F00010F010E001C011E046EF60E0C3010E943C
:10480000502C93E099120FC1112309F40CC18111AE
:104810000AC146E065E0C3010E946C202B2D4EEFDB
:1048200060E0C3010E9477200FC140E06AE00E946F
:10483000502C91E0D82ED926E12EF12CEFEFEE1A74
:10484000FE0A512CA701B201882D0E94992B382E07
:10485000B2016F5F7F4FA7018A2D0E94992BF82E1E
:104860008C2D0E94CE2D182F8A2D0E94D72DF4E07A
:10487000CF1205C0DD2019F04AE067E00DC094E0DA
:10488000991211C01123C9F0882309F4D0C0DD208A
:1048900009F4D4C044E061E0C3010E946C202B2DD8
:1048A00040E062E099C0E3E09E1207C0112329F0C6
:1048B000DD2019F046E065E0EFCF311093C088238A
:1048C00021F0112309F4AFC006C0112309F4ABC0D5
:1048D000FF2009F4A8C0DD2009F4A5C0DBCF4AE021
:1048E00060E00E94502C91E0F82EF926412F50E014
:1048F0004F5F5F4F642D70E0882D0E94992B03302D
:1049000061F4FF2009F48FC04BEF6AEFC3010E94EE
:104910006C202B2D42E060E05FC0882309F483C047
:10492000FF2009F480C08BE0F30182872B2D42E049
:1049300060E0C3010E9477200750093008F075C07D
:104940008FE1F301838771C040E066EF0E94502C35
:1049500091E0582E5926E12EF12CFFEFEF1AFF0AB5
:10496000C42CD12CA701B601882D0E94992BA82E0A
:10497000B60161507109A701832D0E94992BF82E71
:104980008D890E94CE2D182F832D0E94D72D9D89B1
:10499000943029F4552019F049EF66EF17C0E4E090
:1049A0009E120BC01123E1F0882309F444C0552066
:1049B00009F447C04FEF6CEF09C0F3E09F1210C03D
:1049C000112371F0552061F046E065E0C3010E94BB
:1049D0006C202B2D40E06EEFC3010E94772025C094
:1049E000AA20A1F08BE0F30182872B2D42E060E04A
:1049F000C3010E94772007500930B8F48FE1F3011A
:104A000083878AE994E20E9413220FC0882329F049
:104A1000112349F0552039F0CDCF112321F0FF208B
:104A200011F05110B9CF10E00FC011E00DC03320CC
:104A300009F44ECFD7CFAA2091F3D4CF332099F3E6
:104A4000D1CFAA2081F3CECF812FDF91CF911F91BB
:104A50000F91FF90EF90DF90CF90BF90AF909F901D
:104A60008F907F906F905F904F903F900895CF937D
:104A7000DF931F92CDB7DEB76983DC01ED91FC9126
:104A80000280F381E02D41E050E0BE016F5F7F4F77
:104A900009950F90DF91CF91089583E08093E9000D
:104AA0008091F200882319F08AE38093E80008954A
:104AB000FC018485958597FD0BC09FB7F89482E033
:104AC0008093E9008091F2009FBF90E001960895E5
:104AD0009FB7F89482E08093E9008091F2009FBF35
:104AE00090E008954091BC015091BD012091BA0120
:104AF0003091BB0142175307B4F49091E8009570D0
:104B0000E1F39091E80092FD19C08093F10080914B
:104B1000BC019091BD0101968F739927892B19F4DF
:104B20008EEF8093E8008091BC019091BD010196C9
:104B30009093BD018093BC0181E0089580E00895C9
:104B4000DF92EF92FF920F931F93CF93DF93D82EB4
:104B50008A017B01E40EF51EEB01CE15DF0571F035
:104B6000D7FE03C0FE01849101C088810E94722596
:104B700021968111F2CF8FEF9FEF01C0C801DF9125
:104B8000CF911F910F91FF90EF90DF9008956150AA
:104B900030F02091F100FC0120830196F8CF289895
:104BA00084E68093C00108950E946D2D90E00895E1
:104BB0000F931F93CF93DF931F92CDB7DEB78C0176
:104BC000FC018485958597FF0EC0CE0101960E9459
:104BD0003F2D019719F4898190E002C08FEF9FEF7C
:104BE000F80195878487F801848595850F90DF917A
:104BF000CF911F910F910895CF93DF931F92CDB75F
:104C0000DEB7FC018485958597FD05C02FEF3FEF4A
:104C1000358724870BC0CE0101960E943F2D019756
:104C200019F4898190E002C08FEF9FEF0F90DF9120
:104C3000CF9108950F931F93CF93DF931F92CDB71A
:104C4000DEB782E0898342E450E068EA74E280E8FB
:104C50000E94A0250E947E2DDC0112960D911C91D0
:104C600013970115110589F0D801ED91FC9102808F
:104C7000F381E02DBE016F5F7F4FC801099597FD5D
:104C800004C0F80100851185ECCF89810F90DF9178
:104C9000CF911F910F9108951F920F920FB60F920F
:104CA00011248F939F938091E1009091E100937F75
:104CB0009093E10083FF0FC01092E90091E0909380
:104CC000EB001092EC0092E39093ED001092C10182
:104CD00098E09093F00082FF20C093E09093E90069
:104CE0009091F200992319F09AE39093E800909143
:104CF000BF01992339F09091BF0191509093BF016A
:104D0000992389F19091C001992339F09091C001C4
:104D100091509093C001992341F184FF10C080917C
:104D2000E2008E7E81608093E2008091E1008F7EC0
:104D30008093E1008091B9018E7E806111C080FF77
:104D400016C08091E2008E7E80618093E2008091A7
:104D5000E1008E7E8093E1008091B9018E7E8160BA
:104D60008093B90104C05D9ACDCF289AD6CF9F9188
:104D70008F910F900FBE0F901F9018951F920F925A
:104D80000FB60F921124CF92DF92EF92FF920F9302
:104D90001F932F933F934F935F936F937F938F93C3
:104DA0009F93AF93BF93EF93FF93CF93DF93CDB7D1
:104DB000DEB76C97DEBFCDBF1092E9008091E800AE
:104DC00083FFFBC168E0CE0145960E94C72582EFB4
:104DD0008093E8008D8987FF05C09091E80090FFDF
:104DE000FCCF03C09EEF9093E800982F907609F0D7
:104DF000C6C09E894F89588D2F89F88C91110CC09F
:104E0000803829F48091B8018093F10002C010929B
:104E1000F1001092F10045C1913051F4811141C16E
:104E20004130510509F03DC18091B8018D7F0BC023
:104E3000933061F4811135C14130510509F031C120
:104E40008091B80182608093B8012BC1953049F4FC
:104E50008091E80080FFFCCF822F80688093E30080
:104E600020C1963009F05EC00B8D1C8D22E010929F
:104E7000E9001092BD011092BC01F21232C01092F2
:104E8000BB011092BA010E941A2699E0BE016F5F21
:104E90007F4FDB01E92F1D92EA95E9F79983FA82AA
:104EA00091E09E8390EA98879AEF99872091BC01C0
:104EB0003091BD01275F3F4F3C832B838D83109240
:104EC000E9001092BD011092BC011093BB01009348
:104ED000BA0149E050E080E00E94A0250E941A2615
:104EE000E0C01093BB010093BA010E947E2DDC014B
:104EF00012960D911C9113970115110509F4BBC071
:104F0000D801ED91FC910480F581E02DBE016B5E2E
:104F10007F4FC8010995009709F0C7C0F8010085C7
:104F20001185EACF973009F445C1983021F481E02A
:104F30008093F100B6C0993009F0B3C0837009F0D6
:104F400039C1E6E8F1E081E031E096E3208121110A
:104F500009C08EE78093EA001092EA008F8980935F
:104F6000C1019FC08093E9003093EB002191209311
:104F7000EC009093ED008F5F873041F7EACF8B8D87
:104F80009C8D1092E9001092BD011092BC0190938B
:104F9000BB018093BA01898D811153C08E899D898F
:104FA000913A49F4813209F005C147E050E065E0EB
:104FB00071E080E0BBC0913209F0FCC0833269F43B
:104FC0008F89988DA0E0B0E0809301019093020159
:104FD000A0930301B093040164C0803269F480910E
:104FE000E80082FFFCCF67E085E091E00E94C725E2
:104FF0008BEF8093E80055C0823209F052C08F8950
:1050000080930C01EEEFFFE7859194918B3F9C4DCF
:1050100019F0E0E0F8E002C0EEEFFAE0809105015F
:1050200090910601A0910701B0910801803B944046
:10503000A105B10509F09EC080910C0180FF79C0E7
:1050400099C00E947E2DFC0102811381011511057A
:1050500009F4B0C0D801ED91FC910190F081E02DF0
:10506000BE016B5E7F4FC801099581111AC0F8011E
:1050700000851185EBCFF1E0FF1609F44EC0F3E097
:10508000FF1298C08F89882309F44AC0823089F4BE
:1050900040E867E08CE095E20E94A932882309F499
:1050A00089C08EEF8093E80088C018161906CCF3EB
:1050B00081C0813029F440E86BE080E095E2ECCFDC
:1050C000833009F077C00E947E2DDC011296ED90AE
:1050D000FC9013978E010F5F1F4F6801E114F104DC
:1050E00079F0D701ED91FC910680F781E02DB801B0
:1050F000C7010995080F111DF701E084F184EECF77
:10510000D8011C92F60101900020E9F73197BF0108
:105110006C197D0940E0C601BFCF6EEE74E202C09B
:105120006AEE74E2FB01449150E080E80E94A02501
:10513000B8CFEE3F2AE0F20751F0808191818737A6
:10514000A7E79A0721F09093FF0A8093FE0A87E76A
:1051500097E791838083809160008093BE019BE0FC
:1051600088E10FB6F894A895809360000FBE9093E5
:10517000600097CF808191818737974709F091CF61
:10518000A895809160008861809360008091BE0145
:1051900080936000EE3FBAE0FB0739F08091FE0A91
:1051A0009091FF0A918380837CCF1092FF0A109226
:1051B000FE0A77CF81E28093EB006C960FB6F894ED
:1051C000DEBF0FBECDBFDF91CF91FF91EF91BF91B9
:1051D000AF919F918F917F916F915F914F913F918F
:1051E0002F911F910F91FF90EF90DF90CF900F9034
:1051F0000FBE0F901F9018958F929F92AF92BF9203
:10520000CF92DF92EF92FF926B017C010E94E22D20
:105210004B015C01C114D104E104F104F1F00E94DE
:10522000E22DDC01CB0188199909AA09BB09883E46
:105230009340A105B10570F321E0C21AD108E1083D
:10524000F10888EE880E83E0981EA11CB11CC114E1
:10525000D104E104F10419F7DDCFFF90EF90DF9066
:10526000CF90BF90AF909F908F9008958F929F9214
:10527000AF92BF92CF92DF92EF92FF920F931F9364
:10528000CF93DF936C017B018A0180910C0188230D
:1052900009F45CC08091C101882309F457C0809152
:1052A000B90180FF05C08091E00082608093E0003A
:1052B000E801B12C8AEFA82E93E0892E2AE3922EE2
:1052C000209711F4BB20D9F10E946D2D81110AC0E5
:1052D000AA94AA20D9F161E070E080E090E00E94F9
:1052E000FC28EECF282F30E0C217D3070CF48C2F08
:1052F0009FB7F8948092E9002091E80025FF1DC037
:10530000282F30E0C21BD30BF701815020F04191D0
:105310004093F100FACFE20EF31EBB2019F09092F9
:10532000E8000AC08091E80085FD07C09092E8007F
:10533000BB24B394209709F0B12C9FBFC1CF5D98D7
:1053400084E68093BF011016110644F081E090E0DE
:10535000F6019383828380E090E001C0C801DF9171
:10536000CF911F910F91FF90EF90DF90CF90BF9062
:10537000AF909F908F9008959C01240F311D1216BD
:10538000130684F5803891056CF597FF02C080E024
:1053900090E02138310514F020E830E0281BFB01B3
:1053A000E770FF2741E050E001C0440FEA95EAF7BB
:1053B000409577FF02C0695F7F4F33E07595679531
:1053C0003A95E1F77695762F662777956795860F5C
:1053D000971FFC01EB5CFC4F215020F0808184235F
:1053E0008193FACF08952F923F924F925F926F92DE
:1053F0007F928F929F92AF92BF92CF92DF92EF9265
:10540000FF920F931F93CF93DF93CDB7DEB72F9704
:105410000FB6F894DEBF0FBECDBF4C017B012C87C9
:105420000D875A8349831C821B821D821E8268E07D
:1054300070E0CE0101960E9454231C019C012F5F55
:105440003F4F3B872A8768E070E0CE0101960E94BB
:1054500054238C0161E070E0CE0101960E94542338
:105460002A853B85280D391D37FDF5C030E88316A8
:1054700091040CF0F0C00F5F1F4F98012E0D3F1DDF
:1054800037FDE9C040E4E416F1040CF0E4C0670124
:10549000F7FE04C0CC24DD24CE18DF0857E0C52277
:1054A000DD249701F7FE02C0295F3F4F390123E059
:1054B000759467942A95E1F7F7FE09C091E0691A9F
:1054C000710828E030E0A9014C195D096A019801D2
:1054D00017FF02C0295F3F4F290193E0559447947D
:1054E0009A95E1F707701127012B19F05FEF451A24
:1054F000550A0D85002311F0710102C0E12CF12C39
:10550000898701E010E0A12CB12C88E090E09C019B
:105510002C193D093F872E87A414B5040CF09BC0BD
:1055200041E050E058874F8361E070E0CE01019682
:105530000E945423892B31F48F8198850296988795
:105540008F83F2CF6F817885CE0101960E9454231C
:10555000DC01119640E050E04A175B0708F072C08A
:1055600099859111102B000F09F069C093012A0D44
:105570003B1DC9010196099708F043C0C4018E0D77
:105580009F1D80389105E8F5B9017695762F66273D
:1055900077956795680D791D6E0D7F1D2F3F0FEF75
:1055A000300709F454C0812F0C2C01C0880F0A94D5
:1055B000EAF7FB01EB5CFC4F0C85002319F09081AE
:1055C000892B03C08095908189238083C114D104E5
:1055D000C1F027303105A9F0812F90E00E8402C080
:1055E000959587950A94E2F7FB01EB54FC4F2C85C7
:1055F000222319F01081812B03C080951081812313
:1056000080830D85011110C02FEFE21AF20A8A85FE
:105610009B85E816F9068CF09FEFA91AB90A01E0FC
:1056200010E0E12CF12C0BC001E0E01AF108F7FECC
:1056300004C02FEFA21AB20A710101E010E04F5F1F
:105640005F4F8ACF398541E03427398765CFC11450
:10565000D10411F6D6CF2F960FB6F894DEBF0FBE49
:10566000CDBFDF91CF911F910F91FF90EF90DF9011
:10567000CF90BF90AF909F908F907F906F905F90F2
:105680004F903F902F9008958150833008F18AE029
:10569000869F9001879F300D1124849FB001859FC4
:1056A000700D1124E1EEF2E0808184FF0AC0828156
:1056B00093818217930729F4848195818617970730
:1056C00039F03E9683E0E533F80771F780E00895FE
:1056D00081E00895873028F4843038F5882329F153
:1056E00026C0803120F58AE0869F9001879F300D8B
:1056F0001124849FB001859F700D1124E1EEF2E02A
:10570000808184FF0DC082858B3051F4828193812A
:105710008217930729F4848195818617970739F0BA
:105720003E9683E0E533F80759F781E0089580E07D
:105730000895853031F118F4882319F124C0875079
:10574000883008F58AE0869F9001879F300D1124EC
:10575000849FB001859F700D1124E1EEF2E08081FD
:1057600084FF0AC0828193818217930729F4848180
:1057700095818617970739F03E9683E0E533F80761
:1057800071F781E0089580E008958C31F8F46F3F5F
:10579000F9F06031F8F4982F969570E080FD0BC019
:1057A00080E1989F600D711D1124FB01E553FE4FB0
:1057B0008681829509C080E1989F600D711D11243A
:1057C000FB01E553FE4F86818F70089581E00895B7
:1057D00080E0089582E00895982F9695E62FF0E0F6
:1057E00080FD0EC080E1989FE00DF11D1124E5536E
:1057F000FE4F86818F7090E1499FA001112409C05E
:1058000080E1989FE00DF11D1124E553FE4F868144
:10581000807F482B46830895CF93DF9382EB90E0FF
:105820000E94F4338093B10283EB90E00E94F43342
:10583000C2ECD1E08E8384EB90E00E94FC339D8328
:105840008C83DF91CF9108951F93CF93DF93C09105
:10585000B1026C2F82EB90E00E9402346C2F87EB38
:1058600090E00E940234C2ECD1E01E81612F83EBF4
:1058700090E00E940234612F88EB90E00E94023495
:105880000C80DD81C02DBE0184EB90E00E941434B9
:10589000BE0189EB90E0DF91CF911F910C941434FD
:1058A000EF92FF920F931F93CF93DF93DC01E1EE12
:1058B000F2E085E393E0062E000C770B042E000C3B
:1058C000550B208124FF1EC02F703C913F70231781
:1058D000C9F01181212F2F70C281D381C20FD11D38
:1058E00012962D913C911397260F371F7E010AE0E7
:1058F000E00EF11C2E153F052CF4265F3F4FC2171A
:10590000D30734F03E968E179F07D9F680E019C072
:1059100012951F70C481D581C10FD11D14962D9190
:105920003C911597240F351F7E010AE0E00EF11C13
:105930002E153F053CF7265F3F4FC217D30714F7DC
:1059400081E0DF91CF911F910F91FF90EF9008952B
:105950009F92AF92BF92CF92DF92EF92FF920F93FE
:105960001F93CF93DF938C01EB01942EF22E6034C2
:10597000710510F40E94BC295E01AF0CB11CB50189
:10598000615071096034710520F4492DC8010E94ED
:10599000BC29D7FF02C0C0E0D0E07E01650181E4F0
:1059A000A816B1041CF080E4C82ED12CEC14FD0420
:1059B0004CF440E0B701C8010E9439238FEFE81A88
:1059C000F80AECCF090D111D01501109CC15DD05A8
:1059D0003CF440E0BE01C8010E9439232196F6CF75
:1059E000DF91CF911F910F91FF90EF90DF90CF90BB
:1059F000BF90AF909F9008958091C30190E0209157
:105A0000CD013091CE01821B930B2AE030E0B90129
:105A10000E942A33863020F0A901481B5109CA018F
:105A200021E005970CF020E0822F0895CF92DF92BD
:105A3000EF9220917307822F90E0FC01EE0FFF1F81
:105A40008E0F9F1FFC01E95CF84FC080D180E2807F
:105A50008FEF820F80937307E7E3F7E090E09817EA
:105A600040F42381348145812193319341939F5F99
:105A7000F6CF8E2DB601EF90DF90CF900895209154
:105A8000C101211103C08FEF9FEF08955FB7F89414
:105A900022E02093E9002091F20030E01216130674
:105AA00014F421E030E0422FFC0184E6415038F04C
:105AB00028988093C0019091F1009193F7CF211520
:105AC000310521F08091F200882319F05FBFC901F0
:105AD00008958BE68093E800F9CF2FB7F89483E020
