:100000000C94D80E0C94000F0C94000F0C94000F5D
:100010000C94000F0C94000F0C94000F0C94000F24
:100020000C94000F0C94000F0C948A210C94FC216A
:100030000C94000F0C94000F0C94000F0C94000F04
:100040000C94000F0C94000F0C94000F0C94000FF4
:100050000C94000F0C94000F0C94000F0C94FF28CC
:100060000C94000F0C94000F0C94000F0C94000FD4
:100070000C94000F0C94000F0C94000F0C94000FC4
:100080000C94361D0C94000F0C94000F0C94000F70
:100090000C94000F0C94000F0C94000F0C94000FA4
:1000A0000C94000F0C94000F0C94000FE113121429
:1000B00012140B140B140714071403140314FF1366
:1000C000FF13F713F713FB13FB13F713F713FB13CC
:1000D000FB13602BCB2B502D502D502D4B2D502D25
:1000E000502D4E2D502D532D532D532D662D662DF5
:1000F000662D5C2D321F321F321F531F531F531F9B
:10010000AD1FAD1FAD1FAD1FAD1FE21FE21FE21FF0
:10011000321F321F090FE8D2D9ED76BB4EC7B7DDCB
:100120006EB7DBED7636090FE8D3E974FCDBED76CC
:10013000BBDD6E6703090F109BCE6EB7DB753A36D9
:10014000090FB8B2E9145FD7ABCF85A2ED6CDB59CC
:1001500001090FBC92EE55A9A4D2AAAD53E4E9E877
:10016000B6B303090FF8B6CAF55FB9B5EBD436EEEE
:10017000ED6CDB5901090F38B39FEAB397770A4B4F
:10018000DBD9B6B302090FBC924EA5FAECE554CE0A
:10019000C9D9D3F9EC367A090FB8B29F6AA2745F55
:1001A000BB8E773B7B3A5A090F38972ACA6B998ED8
:1001B00039BD1D5B090F5CA73EF54D96DBF5B950C7
:1001C000B79D1D20064B000000190075054B00006F
:1001D00000190027054B000000190097044B000090
:1001E00000190017044B0000001900B8074B00006D
:1001F000001900E0064B000000190010034B00003E
:10020000001900BA024B000000190093024B0000D5
:100210000019004B024B00000019000B024B0000BC
:10022000001900DC034B000000190070034B0000B4
:1002300000190088014B00000019005D014B00000F
:100240000019004A014B000000190026014B000074
:1002500000190006014B0000001900EE014B0000E0
:10026000001900B8014B0000001900C4004B000049
:10027000001900AF004B0000001900A5004B000062
:1002800000190093004B000000190083004B000090
:10029000001900F7004B0000001900DC004B0000C3
:1002A00000190062004B000000190057004B0000CD
:1002B00000190052004B000000190049004B0000DB
:1002C00000190041004B00000019007B004B0000AA
:1002D0000019006E004B000000190031004B0000B7
:1002E0000019002C004B000000190029004B0000F1
:1002F00000190025004B000000190021004B0000F0
:100300000019003E004B000000190037004B0000B0
:1003100000190000804B024B0000000F004B024B05
:100320000000000F004B024B0000000F0026014BA5
:10033000000080E0060F0017040F0027050F0000E3
:10034000800A081800600080002000400000006063
:1003500000900020000000000000008010002080BD
:100360000000800000200000000040090FA8D69D7A
:100370002BA2AC932A75BB08B3DBB106090F8876B4
:100380009D7A995DCBDA756AD46DD7B101090FB842
:10039000969F6AA274D7ABCFCDBC9D753B2B060749
:1003A000A8D2E9743A2E0407723A9D8E0A06077C99
:1003B0003A9D4E470704079D4BA7A303030788E513
:1003C000030792CC0407B8D2E99C5304077C3A9DFA
:1003D000760E0607DE6EB7DBED76070407A592768C
:1003E000BB5D010607B7DBED76BBDD020407A59216
:1003F0006ABBDD020307F8743A0307759A10040715
:10040000D476BB924A2A0407B7DBAD5452011507D4
:10041000A54E472555552A1595F3D99C2293AA2A0E
:10042000958A4AEA745C95032907522E95AA4A9543
:10043000E272AA9295755452E5B3924AAAAA542A36
:100440006EE552A9544E71399F4E392EA9AA52A970
:10045000A8A4AA64656B4A550A2907D369A9A2937F
:10046000AA9295ADA9F64A4DEF54252BEBB8944BC3
:10047000A5AA52A5B89CAA64651D552A25552A2A05
:10048000E9F24949A94A010E07A54E47E57C36A77E
:10049000C8A44EC75571011307522E95AA4A95E27A
:1004A000522E954AE51497D4E9A8A44AA552394595
:1004B00056390F07A5CB67B3924AAAAA542A2AE94C
:1004C000F249C9553904050E11110E00121F101200
:1004D0001915120A11150A06051F04171515090E1C
:1004E000151508011905030A15150A12150906192B
:1004F00007EA5455AA2AD59129974AA572159972E7
:10050000A9542AA7B8A4AA64656B2AA9AA52A9B8B3
:100510002A2EF4F5F9F6F7F8FBFAFFFCFDFE0002CF
:10052000030401060508090A070B0C0E0F008801D9
:10053000640000001400DC036400000014004B029F
:100540006400000028001704640000001400270560
:1005500064000000140020066400000028000080F1
:10056000150E0511001300150002081209021700EC
:100570001B000E020A0406060108001681E1136141
:1005800026016123610F61210421016123610B6157
:10059000260321016123610B6121042103210161F3
:1005A00023610761260321C32101612361076121C2
:1005B00004210325016123610361260321C3210571
:1005C0006123610361210421032501612761260361
:1005D00021C3210561210422612104210325016138
:1005E00026032261210421C3210561210421032264
:1005F0006121042501612501C321C3226121C42198
:10060000056121462143214361260161250E6107D1
:1006100061340014060513010B0405061806170FB4
:10062000011B00100106061606130F00028306C107
:1006300002C1048302410121E122022161046124FB
:100640006102610322410261012201216103612AE9
:10065000610122410121612202216125C122C125BE
:10066000610121C1412261C122C121610E610521C7
:100670006131A1296103C105C1116150612B018D57
:100680000141610B610681066141618A0161058159
:1006900001810561412201220122012262048101BE
:1006A00021018104614C6203810123018103618C7A
:1006B000620281012501810261A121A121A121A163
:1006C00021A121A121A16101810122C32201810176
:1006D00061410C61810129018161410C000E05031A
:1006E00014060708150E0A010001010102010301A9
:1006F00004010501060107010801090400170606A7
:1007000008140E0041E11942E14401492149C14266
:10071000E104C103C18403886142E107612202252B
:1007200005226142E105C1016107C121022101C128
:1007300021C16142E104236102C104220221A122FC
:10074000416142E102C1046125610221076142E188
:100750000123036121032161022183612442E10716
:100760006121C102216102210361830142E1036130
:10077000296123036102C1014223016121C10121D9
:1007800001C1022103210361012342C10122612928
:100790000321036101210242246183C241C221C1BC
:1007A000022243614122420321610223412561214A
:1007B000046102C14201C101216104C106620461F8
:1007C0002161014125612C612900160E02080F13D9
:1007D0000F070D000E00130014001500160017007F
:1007E0000A0211021A0200070108C161260881C12C
:1007F0006125088101C16124088102C1612308814A
:1008000003C16122088104C16121088105C1610819
:10081000810F810F810562036B42026123C122C1F6
:1008200022C1230161234722032FE1244722428171
:100830006123A8210282612241C142C142C12382B7
:10084000016B42820C62E1610FC1610EC1610C61FA
:10085000E101C1610B21E16E2301C16102C16102AD
:10086000C16101C1236D2301C16102C16102C16186
:1008700001C1236D210016080404000D00080517AE
:100880000E07000002000C001B00110C110D110ED0
:1008900005000E001800090500E181E10524E103CF
:1008A000C1032404610161246124612601276201DE
:1008B00061246102C1016123C1220124C1226201BC
:1008C0006121C221612B042462012561058E62052C
:1008D000216109C102C1076102216101216125A1D4
:1008E000276101C101C1026102216101216185010C
:1008F0008561482201216101216104C101C10461B6
:1009000003C101C105C16101216125A125612761E3
:100910002261420121618B610761226103C161048F
:10092000C105412661016122612EE14104C10161DD
:100930000161C12161210E4125A1210161226121B5
:1009400005C104C1034108613C001A0803140309EE
:100950000601030302000201020200030B06130357
:1009600010030104A62604450126E1E1E1620481A9
:10097000016322048103C1816202220481046202B4
:10098000C12204810481038162046603810581011F
:100990002AC1042C028101A2016722028101228165
:1009A00001C1052202810122012301A121012202AC
:1009B00081022101240121C12103810881026203F6
:1009C000690829072BC1038104C10522038109C1DC
:1009D000A2042BC104290665C10981048168028132
:1009E000012301A124012202810124A12401220268
:1009F0008101A202C122032202810122032202C13B
:100A000022026221096121000E0F0317040B060A5E
:100A10000B080F000F010F020F030F040F050F0645
:100A20000F07020016040A060C0B026001111111D7
:100A3000111110111111111111314440000400065F
:100A4000101000000000013161011110111110138C
:100A500011131111313161010010006010131113D5
:100A60001111313161016611111110130013006170
:100A700031316101111111111011131311113131A3
:100A80006100600000000000131311113131611189
:100A900011311116000613130000313161000030CE
:100AA000001111111311111131316131116113064E
:100AB00000001300060131316131060011111113DC
:100AC0001111111131316130311306000013000092
:100AD0006001313161111111111113111111113115
:100AE00031316160010601060300100060313131CF
:100AF0005131313131311111131111113130603156
:100B000036313631006003006000310D050402010A
:100B10001901070F140F040D000E000D010E010244
:100B2000001900060F150F011F046203630823C19B
:100B3000A2630565416604620962036E02620A628D
:100B40000265416905840964216208C1210121010E
:100B5000236206C121012101260621C1210123A210
:100B6000C1062101210123A2C105C1210121C12604
:100B700005C1210121012362076421620C840865FB
:100B8000416901620A62026E02620962036541669E
:100B90000623C1A263076203631F06000D0E04163D
:100BA0000109051A0A000E09180018011802180395
:100BB0001804180518061807180816000103090478
:100BC000190A001F0CC105210121E121086183617F
:100BD0002B0121E12102C1018461042106C102210E
:100BE0000121E121022161092104260121E12102E3
:100BF0002261082104C10621E12102236105C1010E
:100C00002105850121E121022461018521C102C163
:100C10002104610646610426046182E1096104261B
:100C2000046101250661042604610121C1096104F2
:100C300026046101246106610E6105610482610E72
:100C400061056102C121026102C10B6105612402DB
:100C5000612D0161022400120C030A031203160C19
:100C6000030E000E010E020A001200070C150C0004
:100C70001F1F17860661216106860661836121C1F7
:100C8000612161C121618361066121C1012161038B
:100C900061276103612101C1216101612404618136
:100CA00061210121618161042461016222076123C4
:100CB000610722620261220761210121610722612D
:100CC0000361220761236107226103612207612119
:100CD000012161072261036122076123610722610B
:100CE00003612207612101216107226103612961FA
:100CF0002361296101C101612203C102216101C196
:100D000001612102C1032261C15C00100F030C03C9
:100D1000140E0D0F0316001601160203010E031A1E
:100D20000E0C0F001F0582086109C10682016105D2
:100D3000826102C1E1052461820361048321A12251
:100D40006121610761024121A121610283C121C1A9
:100D50000261216103A2236102C10261816142013A
:100D600041266103A1C10361024104610344018280
:100D70006104A1C1026106C16101C1056141072190
:100D8000C1016121A12261466121A1416141076147
:100D900021C161046102C10361036141076101A1D5
:100DA0006141036121A12461224161410761018107
:100DB0006103C16102C103610241614107614101F7
:100DC000C103416124A121610141C161C1410661A9
:100DD0000241046102C1036101426142066107618F
:100DE00022A123610361062A6106612A000302042D
:100DF00013020408120B150E120100110112011347
:100E00000114011A021A031A041A0504061A060428
:100E1000071A07090A0A0A0B0A0C0A0D0A14020427
:100E2000041407120E0220122212211211221202A1
:100E300021221121233333323212210230000322C6
:100E400011112300063230666000300003060001F5
:100E500023212132312112313211131111012306C4
:100E600000323066603030611311120123212332C9
:100E700030111030302263611601233300623000DC
:100E800000363001232122012300011230060032F6
:100E90003006034444012360030230111032300154
:100EA0002300621123111132300100363001030199
:100EB00016012300203230000032300103000232DC
:100EC0002300203444444444360103266631230081
:100ED000263211113062311111111111230021320A
:100EE000000111112124444444312306003006003E
:100EF0000600000000066631211111121222222282
:100F0000222222222231020F0314000808150E04A7
:100F10000000110016001B0013000B010708140E3F
:100F200000E188211261082102C1046124610121CC
:100F300001216201A6012561410161410361012195
:100F400001216201A6012104614101614161410168
:100F500061012101216201A6012161244101614158
:100F600061410161012101216201A2C2A20121614D
:100F700001C102410161416141016101210121621F
:100F800001A6012561410161416141016101210128
:100F9000216201A6012102C101614101614161415A
:100FA00001610121C1216208216124410161416186
:100FB0004101610122A162296101C1024101614136
:100FC0006141016104622D61412241614126622932
:100FD00002C10161446144236222C22561244101AE
:100FE000C1016101C10141C1226228C16141214B9E
:100FF00023624A07C103C104620A613000000E0384
:101000000E0E130E1A0E0201000201100117010D3F
:101010000E140E001F1A61C104C16106C16105C131
:101020006105C1610461C10661C10561C10561C19C
:1010300004C16106C16105C16105C1610461C106E8
:1010400061C10561C10561C104C16106C16105C11C
:101050006105C1610461C10661C10561C10561C16C
:1010600004C16106C16105C16105C1610461C106B8
:1010700061C10561C10561C104C16106C16105C1EC
:101080006105C1610461C10661C10561C10561C13C
:1010900004C16106C16105C16105C1610461C10688
:1010A00061C10561C10561C104C16106C16105C1BC
:1010B00061043C00070B02010E0A0E0400001B0035
:1010C00000011B011502020B0F0B090E00E11C9A17
:1010D000E16218630221A1220423A12202260262F6
:1010E0000221022203210421022104A10262022121
:1010F0000322022107210762022104210221072184
:101100000762022103C121022104C10221076202F8
:1011100021032202210322022104C102620221C111
:101120000122032103C1210221C102C12102620265
:10113000240423A1220222A12302621A6201612651
:10114000022602216124026201612103C1210226DB
:101150006101216122C12102620161210421022277
:1011600001C1226102612402613C00130E031307D6
:1011700007040E000112000D00060415070501000A
:1011800011C1E112C10226612101C10B23A1240575
:101190006125A121072106210561210521072102E1
:1011A000C103210561210521032801C10121C102DB
:1011B000216125C22103210623A125610421A12447
:1011C0000121062107216102C104810121012106BB
:1011D0002104612B016121012103C101C1210461AD
:1011E0002109C10161210121022504612101C102FE
:1011F0006121610161240124032101C121612402D3
:101200006123A121072101C1012461032101C161E1
:10121000210B250221610323A12113610F412141EB
:1012200021412141214121412141214121412141AE
:10123000214121412141214121000F0E0400020CD6
:10124000061508080A0316001601160201020D060B
:101250001408070A001F1F02C121C10C21C1032568
:1012600061286121612A61C103216101C1066121F7
:101270006104210561236125612A61216125C10283
:101280006105610A61216104C121612E612BC16187
:1012900022C1022106C121610621C1032961296100
:1012A0002A61066123C101220261022202C1236177
:1012B00024612961236126C1016124612101C125C5
:1012C000C1612361042461246129612661256103D0
:1012D0002161052103610221036102C13C00190063
:1012E0000303050C090E0E0F1B001B011B021B0341
:1012F0001B041B051B061B071B081B091B0A1B0BDA
:101300001B0C1B0D1B0E02050A070D080F0E020415
:101310004446000000000000000060601000000172
:101320003000000000000003111110000001300027
:101330000000000000351111100000013000000015
:101340000000031511001000000130000000000033
:101350003115116010060001300000000003161561
:101360001155101111001300000000310315110078
:1013700010600016013000000310631511001011F9
:1013800013010011300031111315110010600130EC
:10139000160136031060631511001011301301009F
:1013A00011311111131511001060130130160130A5
:1013B0006060031511001013013013010131111188
:1013C0000315115510013013013000000000031502
:1013D0001100000030030030000000000300000096
:1013E0000011111111111111111111111111110D02
:1013F000090405081508090B110B090D000D010D55
:10140000020D030D040D050D060D070D08080B0A4E
:101410000B100B120B004C034E8861214181E181BE
:10142000412161894206C101612182E1822161017C
:10143000C1074203C1022261820382612202C10408
:101440004202C122A18162214121E1214121628127
:1014500021A12101C1024201C12282618121A18118
:1014600061E16181A12181618223C10142C12282A6
:10147000618561E16185618322C14121A18361862A
:1014800061E161866184A1228361018661E16186F7
:1014900001618422036126A1610161A12661042208
:1014A00001C101610723076102C1012161036107D5
:1014B00021C12107610462836121A12561016125A8
:1014C000A12161846201C1026106610161066102BC
:1014D000C10262046102C10361016102C1036105CD
:1014E000613C000C0E020B03150302000000010A10
:1014F000030C031403160300E11F1847610F614436
:1015000007610F610B6127432561072103610F61AB
:1015100006210282610F61062101C101C16104C17E
:1015200021C105C36106210121C12161820221017E
:101530002101C30123618203210221C12161C10173
:10154000C182C12101230121C12161C101C18101E8
:101550002102236121C12101C121C101C3012361F4
:1015600021C1210221042161C121C10123012301E3
:1015700021C12161C121C1012105216121C12109AF
:10158000236121C121086181610D61816109610FC0
:101590006104234329442900120E0613031705157D
:1015A0000606080B080F0E0119001403140607089D
:1015B0000C0800068CC1094603220621462161025F
:1015C000418602C206210621610241610623A1056E
:1015D0002105C12161024161C204C102C10526A1E8
:1015E00021610244610321A1420C62066107C1042A
:1015F000C104820161066105214A218201610661FF
:10160000C102C1012107C1022103610661246127D2
:10161000A124036107210221610F610721022161D9
:101620000F610721C221610F610722A121610F61B2
:101630000B610F6102234523452343234300050724
:1016400003040119010C0408150015011502150306
:101650001504150515061507030118010D050C0ED7
:10166000001F0D410AC16145014761420321E1218B
:101670006124610783036141C1226121E121612667
:1016800061220122026121026101236121E12161C4
:1016900022C12102610222C12101610121016122D5
:1016A000026121E121612461210324A16102216100
:1016B000026123E1216104610961032102612104C6
:1016C000246228012101C12102C161216127622810
:1016D000A121012102246122056228A12105C12244
:1016E0006102266122C10322A121846121012161BD
:1016F0008602612203C122A1216103210221C104CA
:101700002101216228A1216102276123C1216203F5
:1017100022C10461012206610223622A612B046155
:10172000000C0B030A0113020A040F1B001B011B10
:10173000021B031B041B051B061B071B081B091BA5
:101740000A1B0B1B0C1B0D1B0E09011402090416AE
:101750000B00211921E12106C1078AC121E12D6277
:1017600006C1026122E12409622B022502C1056241
:101770000822032D6202C1042361022706622802A7
:101780006105C1022202C102620523A12161026139
:101790002C6201C1022204610261220121012403A1
:1017A000622501C103610261026121612101C1223F
:1017B00002620225A12261024361016121612401CB
:1017C00062012201C10561024561016121012362BB
:1017D00025A12461024763210121622109610B6176
:1017E000016101620A61023C00170F0201041A0440
:1017F0000200001B000103020319031A0300E18425
:1018000006C70584E1610432046201433243016288
:10181000043204620121610132016121016142212E
:10182000610121042104210423016121420361019A
:1018300021C421C421C42301610661013201610672
:101840006101320161066101320161066101230417
:101850002104210421016106610123C421C421C4A2
:1018600021016106610132016106610132016106F7
:1018700061013201610661146103000B0403040479
:1018800018041307031B001B011B02060419041292
:10189000070E0E002F0D210D210D21018C6227C195
:1018A00004210D612105210121836121C101C10AAA
:1018B0006121052101210361216126614621420345
:1018C0006102220161216105216106230361056135
:1018D0002161C10421618705216104612161032225
:1018E0004161062761036122610222C14161042333
:1018F0000521612661022102416102C122C121014B
:10190000C2022161220123612203416102220227D6
:101910006121012101226121C103416101220321D1
:1019200085216122012361056321042102C1022175
:101930006121C121012261056121610B2161220127
:101940003E00D5F08D14A1C881CFD9F1AF2000574A
:1019500017A38B2E2E47175D74D145175D74D145A3
:10196000175D721F5D74D145175D74D145175D74A5
:101970009129BAE8A28B2EBAE8A28B2EBAE8A28BE4
:101980002EBAE8A28B2EB98F2EB4499D4EC7A55C06
:101990002A954AA5728A2E5795AA4A55E51C977230
:1019A000A9542A954A491449974DE71D977255A99C
:1019B000AA5455EEA24AE52A9BAD5C2A2AE752A911
:1019C000543624DDD7575595AA2A3559AE2A559550
:1019D000AACA392AA9F2CAA525977255A9AA5455A7
:1019E000AEA35485ACE8A28B2EBAE8A28B2EBAE83F
:1019F000A28B2EBAE8A28B2EBAE8A28B2EBAE8A24E
:101A00008B2EBAE8A28B2EBAE8A28B2EBAE8A28B54
:101A10002EBAE8A28B2EBAE8A28B2E32591FA38BC6
:101A20002EA764E7D29DDCE7D28E2EB66D7ABAD8A7
:101A3000B6E9E962DBA6A78B6D9B9E2EBAE862DB56
:101A4000A6A78B6D9B9E2E9B9E6D9BCFA6B7E9E9AB
:101A500072694717DB363D5D4EE96D3EBA6C7A9B85
:101A60008F2E7439974EC79C733A2E652B59C9CA6D
:101A7000756CD94A56B2728EAB9395AC646523539C
:101A8000B69295AC5C872BE5D3E95CC7A57C3A9D03
:101A900053648E4B91392E2BD3E99CE2CB391D97A1
:101AA000B295AC64E53A2EE5D3D9C894AD64252B44
:101AB000D7416FF7B5AB4AA952A9C97255A9AA5423
:101AC00055CE514995572E2DB994AB4A55A5AA72BA
:101AD0001D2C1B5D74D145175D74D145175D74D104
:101AE000C594EB742EBAE8A28B2EBAE8A28B2EBA5C
:101AF000E8A28B2EBAE8A28B2EBAE8A28B2EBAE807
:101B0000A28B2EBAE8A28B2EBAE8A28B090A10008B
:101B100000000000000000000000000000000000C5
:101B2000000000EFEFE0EFEFEFEF0FEFEF0101014B
:101B300001010101000101FFFFFFFFFFFFFFFFFFA8
:101B400000010101010101010101000000FF424209
:101B50004242FF00000000030000000003000002FA
:101B60000202020202020202020000000000000063
:101B7000000000EFAFE06FEFEFED0FEBEF010101C1
:101B8000010101010001010000B0B000B0B000008F
:101B90000000000101000101000000EFEFE0EEEEA7
:101BA000EEEE0EEFEF01010101010101000101EE76
:101BB000ECE0E8E8EAE808ECEE01010101010101CE
:101BC000000101ECE0C0C088808000E0EC01010170
:101BD00001010101000101E0800000080001008610
:101BE000E00101010101010100010100000000000C
:101BF000000000000000000000000000000000E005
:101C00008080000000000080E0010101010101016D
:101C1000000101ECE0C0808080C000E0EC01010127
:101C200001010101000101EFECE0E8E8E8E80CEC5B
:101C3000EF01010101010101000101EFEFE0EEEE12
:101C4000EEEE0FEFEF010101010101010001013F83
:101C50000FA5AA64656B2AA9AA52A9B83A5595AAF4
:101C60004A755CCEA7538E4BBA7C362BA9A4AA4AE0
:101C7000A5E2562E95AA4A95E272AA92957554D27B
:101C8000E5B359492555552A15D2A5AA64656B2A8D
:101C9000A9AA52A9B83A5595AA4A755CE9B454F173
:101CA0003955C9CA3A2AA92A59D99A2A9D962A7E0B
:101CB000E552A9AA54292EA72A595947255D3E9BCA
:101CC00095545255A55221122C07EA5455AA2AD5EB
:101CD00071A5D352C5E754252BEBA8A4AA64656B64
:101CE000AA745AAAF8954BA5AA52A5B89CAA6465ED
:101CF0001D9554F9ACA492AA2A954A010207A5534E
:101D00003609E0061E0000000A00E0061E00008002
:101D1000080B000202020100090400000102020097
:101D20000005240010010524010101042402060518
:101D30002406000107058103100040090401000288
:101D40000A00000007050202400000070583024068
:101D500000000403090412010002EF0201404123C4
:101D6000368000010102030141726475696E6F20C3
:101D70004C4C430041726475626F79002006640028
:101D8000000014002705640000001400170464001C
:101D9000000028004B02640000001400DC03640013
:101DA0000000140088016400000028000080BB2DA2
:101DB00011241FBECFEFDAE0DEBFCDBF11E0A0E0FF
:101DC000B1E0E2E2FFE502C005900D92A839B1074B
:101DD000D9F727E0A8E9B1E001C01D92A53EB207FE
:101DE000E1F71EE0C8EDDEE004C02197FE010E948D
:101DF000842FC73DD107C9F70E945C290C948F2F0F
:101E00000C9400002F923F924F925F926F927F92BC
:101E10008F929F92AF92BF92CF92DF92EF92FF92FA
:101E20000F931F93CF93DF93CDB7DEB72D970FB6E8
:101E3000F894DEBF0FBECDBF8091B50190E0209138
:101E4000BE013091BF01821B930B05962AE030E062
:101E5000B9010E94072E162F6D878091B60190E080
:101E60004091C0015091C101841B950B0596B901A9
:101E70000E94072E7B016C8780910001853091F0D4
:101E800080916A0790916B076CE070E00E941B2EB6
:101E9000892B09F0F6C39091980181E089278093FE
:101EA0009801EFC3812F0E944626082FD0906C071F
:101EB000C0906D07C094CD201092B7011092C2015E
:101EC0008091BC018B3021F01092B8011092C301B7
:101ED0006E2D812F0E944626863079F58091B901BA
:101EE0009091BA0149969093BA018093B90140E06C
:101EF0006E2D812F0E946D268091A502882319F0F6
:101F000081508093A5028091A502811112C0B12C4D
:101F10008091A602B81668F4EB2DF0E0EE0FFF1FDB
:101F2000E855FD4F43E0618180810E946D26B394A6
:101F3000EFCF83E393E00E94961D809199019D2D40
:101F40009C709C3061F58F5F809399018531B0F171
:101F50008D3390F08D3391F51092990183E884BD13
:101F60008FEF87BD81EF80938000109288001092E0
:101F70008A000E94492918C320E430E0A901481BC7
:101F80005109CA01880F93E894BD9FEF97BD91EF67
:101F9000909380001092880080938A000FC088235D
:101FA00069F083E884BD8FEF87BD81EF8093800067
:101FB0001092880010928A00109299018C2D8470E2
:101FC0009C2D9870C3FE2DC081112BC00E94D71E7E
:101FD000882309F454C08091B50190E02091BE019E
:101FE0003091BF01821B930B02966AE070E00E9461
:101FF000072E162FCC24CA94C60E6E2D8C2D0E944F
:102000004626A82EBB24B394BE0C6B2D8C2D0E94AB
:1020100046268130A1F58FEF8A0D823008F094C2F8
:102020002EC0882361F191112AC00E94D71E8823F7
:1020300031F18091B50190E02091BE013091BF0156
:10204000821B930B02966AE070E00E94072E162F07
:10205000CC24C394C60E6E2D8C2D0E944626A82E2D
:10206000BB24B394BE0C6B2D8C2D0E944626813070
:1020700031F48FEF8A0D823010F00C949318D6FE55
:10208000CAC06E2D812F0E944626082F8091B5016F
:1020900090E02091BE013091BF01821B930B6AE05A
:1020A00070E00E94072E6C01892B19F481E0810FEA
:1020B00001C0812F6E2D0E944626282E5524539450
:1020C0005E0CC114D10419F481E0810F01C0812F8D
:1020D000652D0E944626482EC114D10419F08FEFB9
:1020E000810F01C0812F652D0E944626382E822D3A
:1020F0000E948128682E470199245FEF851A950A6E
:10210000A12EB12CA401B501832D0E94C525782EE6
:102110000E94D71E9091BC019B3089F4882311F452
:102120000C94601B7110C1C064E0261621F00430CD
:1021300011F00C94601B68E087E00C94FA180E9480
:102140002927882341F08DEF800F823010F00C9406
:10215000AC180C949A18C114D10419F481E0810FC1
:1021600001C0812F6E2D0E944626782EC114D10405
:1021700019F481E0810F01C0812F652D0E94462650
:10218000682E62E06E0DC114D10419F481E0810F54
:1021900001C0812F0E944626482E862D0E9481284C
:1021A000682E872D0E948128882311F40C94FD1835
:1021B000662011F40C94FD1835018FEF681A780A27
:1021C000A401B301842D0E94C525882311F40C9429
:1021D000EF1864E081E00E94EA1E1092BC01809139
:1021E000C0019AE0E99E800D11248093B601809190
:1021F000B5018C3310F482E0C2C02091BE01309151
:10220000BF0129363F4F24F01092B7018EEFC3C0B3
:1022100087FFF1CF8AC1D5FEC4C06E2D812F0E94E9
:102220004626082F8091B50190E02091BE013091A3
:10223000BF01821B930B6AE070E00E94072E4C01E5
:10224000892B19F48FEF810F01C0812F6E2D0E9411
:102250004626382E772473947E0C8114910419F04D
:1022600081E0810F01C0812F672D0E944626482EF4
:10227000832D0E948128582E5701BB24BFEFAB1A33
:10228000BB0AC12ED12CA501B601842D0E94C52503
:10229000682E0E94D71E9091BC019B30B9F4882310
:1022A00011F40C94601B662031F01092BC010E9466
:1022B0007E1C0C94881BE4E03E1621F0043011F0E3
:1022C0000C94601B69EF86EF0C9455190E94292726
:1022D000882331F08DEF800F823008F0ADC7B7C78B
:1022E0008114910419F48FEF810F01C0812F6E2D9D
:1022F0000E944626082F8114910419F48FEF810F54
:1023000001C0812F672D0E944626782E62E06E0D57
:102310008114910419F48FEF810F01C0812F0E9465
:102320004626182F872D0E948128782E802F0E9404
:102330008128882311F40C94881B772011F40C94C5
:10234000881BF1E0CF1AD108A501B601812F0E94A8
:10235000C525882309F49DC76FEF8CEF0E94EA1E04
:102360001092BC018091C0012AE0E29E800D1124F0
:102370008093B6018091B5018D3320F08EEF80936C
:10238000B701D1C02091BE013091BF0137FF06C017
:102390001092B70182E08093C201C7C08111EECFD5
:1023A000C4C0D7FE85C08091B60190E02091C001E5
:1023B0003091C101821B930B08966AE070E00E9485
:1023C000072E7B01B62E0E94D71ED82E882319F027
:1023D0006FEF6E0D01C06E2D812F0E944626C82E14
:1023E000DD2019F0BB24B394BE0C6B2D812F0E940D
:1023F00046269091BC019530A4F0973044F09B3074
:1024000081F4043009F068C7D11062C765C7DD20C8
:1024100061F1033009F083C08FEF8C0D823028F515
:102420007EC00E947E1C8091B50190E02091BE018B
:102430003091BF01821B930B2AE030E0B9010E946A
:10244000072E863020F0A901481B5109CA010597C3
:102450000CF067C0033009F064C08FEF8C0D823040
:1024600008F45FC085E08093BC018091BE015AE012
:10247000159F800D11248093B5011092B701109221
:10248000C2018091B601883120F08EEF8093B801AF
:102490004EC02091C0013091C10137FF06C010929B
:1024A000B80182E08093C3017FC08111EECF7CC070
:1024B000D4FE40C08091B60190E02091C0013091DF
:1024C000C101821B930B08966AE070E00E94072E00
:1024D0007B01D62E0E94D71EC82E811104C76FEF34
:1024E0006E0D812F0E944626B82ECC2019F0DD24D7
:1024F000D394DE0C6D2D812F0E944626D82E80911C
:10250000BC018B3009F059C6043009F4DFC6CC2079
:1025100009F401C784EF8B0D843008F0FCC60E94DB
:102520007E1C1092B7011092C2011092B801109255
:10253000C3013AC08091B801823009F4BBCF8091C9
:10254000C3018E3F89F5B6CF53E0A51609F497CDA8
:1025500084EF8093BC011092B7011092C20147E052
:102560006B2D8C2D0E946D2680916607843181F041
:10257000E82FF0E09F01220F331FE20FF31FE65D0B
:10258000F84FC082B1829CED92838F5F8093660783
:1025900080916C0780936D070E94B41E80936C0736
:1025A00085E193E00E94961D80916A0780FD68CCCA
:1025B0001092D5021092E3021092F1021092FF02E3
:1025C00010920D0310921B0384ED682E82E0782E8A
:1025D000F301808184FF4BC0828193816AE070E0C7
:1025E0000E941B2ED62E6887848195816AE070E058
:1025F0000E941B2EF62E69878D2D0E944626B82E2E
:10260000CC24C394CF0C6C2D8D2D0E944626982E81
:10261000F6E0BF1206C0D30118968C91882309F406
:1026200087C6F30182858D3014F5228133813B8783
:102630002A87C9016AE070E00E941B2E892BB9F439
:1026400004811581C8016AE070E00E941B2E892B6D
:1026500071F4E384EE2009F48BC6D30118968C91B3
:1026600081117DC6F3011782838581508387BEE087
:102670006B0E711CE8E26E16E3E07E0609F0A8CF4F
:10268000FFCB809100018850833030F480910001AD
:10269000833009F0C9C1CDC1C12CD12C812C712C42
:1026A000A12CB12CE090BE01F090BF01EA0CFB1C04
:1026B000C70109968938910528F50091C00110914C
:1026C000C1010C0D1D1DC801099689349105D0F476
:1026D000682D872D0E944626982E882339F0282FB2
:1026E0004DE05BE1B801C7010E94A91D29EF290D4A
:1026F000243040F4B8016A50710941E453E0C70145
:102700000E94A91D7394FAE0AF0EB11C2CE1721265
:10271000C9CF83943AE0C30ED11C40E18412BFCFED
:1027200080910001853021F0809198018823F1F09B
:102730008091BC01082F001F0027001F082E000CED
:10274000990B97FF03C0919581959109880F990B7B
:10275000FC01E35EFE4F408151816091B60170E063
:102760008091B50121E090E00E94742414EDA12E27
:1027700012E0B12E7501D7018C9184FFADC0129685
:102780000D911C9113976090BE017090BF014301A1
:10279000800E911E14968D919C911597C090C0014A
:1027A000D090C101C80ED91E1B96EC914E2F50E05F
:1027B0004331510508F088C0FA01EA5AFF4F0C94E2
:1027C000842FF7018285082F001F0027001F082E85
:1027D000000C990B97FF03C0919581959109880F83
:1027E000990BFC01E35EFE4F4081518170C0F1E026
:1027F0008F1A910869C02FEF821A920A65C032E0E1
:10280000C31AD108FCC644E0C41AD10807C056E078
:10281000C51AD108F4C668E0C61AD10800E04BE634
:1028200053E055C0AAE0CA1AD1089C012A503109C8
:10283000F701358324831386C8016AE070E00E94A3
:102840001B2E262EC9016AE070E00E941B2E462E28
:1028500055245A94520C852D0E9446268F8333248A
:102860003394340C632D852D0E9446268887552489
:102870005394520C642D852D0E944626482E632DBC
:10288000852D0E944626582E8091B50190E086192C
:1028900097098017910764F48F810E94812888230B
:1028A00009F4A5C688850E948A28811197C69FC60B
:1028B000842D0E948128882309F490C6852D0E94CA
:1028C0008A28811194C68AC600E04DE853E021E0D1
:1028D000B601C4010E947424FEE0EF0EF11C28E250
:1028E000E21623E0F20609F046CF4090B501512CE4
:1028F0008091BE019091BF01481A590A6090B601BB
:10290000712C8091C0019091C101681A790AD5019A
:102910008C9184FF7FC012968D919C911397F20148
:10292000E81BF90B14962D913C911597A301421BBE
:10293000530B9A01C090B6014C2D50E0421B530B33
:10294000E090B501473F6FEF5607C4F42E2D30E0FD
:102950002E1B3F0B2F3FAFEF3A070CF454C62C371A
:1029600031050CF058C6E394EE1A8E2DBDEA8B2E7D
:10297000B3E09B2E43EE53E090E03AC0453351055F
:10298000C4F02E2D30E02E1B3F0B2F3FBFEF3B0737
:102990000CF449C62C3731050CF04EC6E394EE1A00
:1029A0008E2DAEE98A2EA3E09A2E42ED53E093E3FA
:1029B0001FC0F12CEE1AFF0AECEFEE16EFEFFE0649
:1029C0004CF49C2D921BF0EC8F2EF3E09F2E49EFE0
:1029D00053E030C6FCE7EF16F104E4F09C2D921BA7
:1029E000ECEB8E2EE3E09E2E44EF53E08CE702C02A
:1029F0008F3F81F0C92ED12CE82EF12C00E020E091
:102A0000B601C7010E94742421E0A401B601C701E8
:102A10000E9474242EE0A20EB11C38E2A31633E00B
:102A2000B30609F074CF32CE873049F48091BD01EE
:102A300001C084E08093000100E010E067C098EFDF
:102A4000980F9330C8F78A3069F400E021E049E537
:102A500054E069E170E08AE290E00E94742409E2A7
:102A600010E03BC0883029F400E021E048E254E067
:102A70002FC01091A402812F64E60E94782F082FA6
:102A8000282F45EC54E069E170E088E490E00E9472
:102A9000A91D812F44E6049F801911246AE00E9439
:102AA000782F192F282F45EC54E069E170E08DE470
:102AB00090E00E94A91D212F45EC54E069E170E0EF
:102AC00082E590E00E94A91D00E021E04EE054E084
:102AD00069E170E08BE290E0C0CF41E066E170E038
:102AE000C8010E94BC1E0E5F1F4F09351105A9F7D2
:102AF00009E210E041E060E270E0C8010E94BC1E03
:102B00000E5F1F4F09351105A9F796CF77E3E72E22
:102B1000F12C40E0B701C8010E94BC1E5FEFE51A2E
:102B2000F50A60E4E616F104A1F70F5F1F4F0038C5
:102B3000110561F700E010E041E068E370E0C801D2
:102B40000E94BC1E0E5F1F4F02381105A9F780912D
:102B5000B9019091BA01FE01319626E0DF011D9284
:102B60002A95E9F77F019E01295F3F4F0AE010E0B7
:102B7000B8010E941B2E8193CB012E173F07C1F78E
:102B800000E021E04FEE54E06AE370E080E090E086
:102B90000E94742406E310E0F70121917F0145ECC7
:102BA00054E06AE370E0C8010E94A91D05501109B4
:102BB0000831110589F7F090BB0100E021E042EBFC
:102BC00054E06AE370E080E490E00E9474241AE02C
:102BD0008F2D612F0E94782F092F282F45EC54E06C
:102BE0006AE370E082E590E00E94A91D202F45EC89
:102BF00054E06AE370E087E590E00E94A91D8091AF
:102C00000001853071F4F090A50200E021E047E971
:102C100054E06AE370E080E690E00E9474248F2D17
:102C20001DC0F090A40200E021E047E854E06AE310
:102C300070E080E690E00E94742464E670E08F2DDE
:102C400090E00E94072E262F082F45EC54E06AE3FF
:102C500070E081E790E00E94A91D802F612F0E9403
:102C6000782F192F282F45EC54E06AE370E086E7AF
:102C700090E00E94A91D212F45EC54E06AE370E02A
:102C80008BE790E00E94A91D20910001253009F0FA
:102C9000C1C180916A0790916B0780FD1CC0209193
:102CA000B70121110CC02091B801211108C0209159
:102CB000C201211104C02091C301222361F020919F
:102CC000BC01ECE0E20FEC3120F4F0E0EE5EFA4FF4
:102CD00024912093BC0183709927892B09F445C066
:102CE0002091B7018091B501280F2093B501109173
:102CF000B8018091B601180F1093B6018091C201FE
:102D0000E090BE01F090BF01E80EF11C87FDFA943F
:102D1000F092BF01E092BE018091C3014091C001D9
:102D20005091C101480F511D87FD5A955093C10123
:102D30004093C001812F90E0841B950B0596EAE03B
:102D4000F0E0BF010E94072E362F822F90E08E19EF
:102D50009F090596BF010E94072E862F632F0E94B0
:102D60004626123008F053C01DC0A4EDB2E088E240
:102D700093E02C9124FF11C01B962C911B972223CA
:102D800009F463C40AC016962C911697211167C4E2
:102D900017962C911797211162C41E968A179B07CC
:102DA00041F79ECF833099F51091A4021F5F809167
:102DB000BB018A3018F48F5F8093BB0186E080935B
:102DC00000011093A402612F82EB90E00E94DF2E9D
:102DD000153608F453C481EB90E00E94D12E873061
:102DE00008F04AC411E0180F612F81EB90E00E94B7
:102DF000DF2E612F86EB90E00E94DF2E0E94A52639
:102E000081E18093BD018EE295E00E94961D809144
:102E10006A0780FF09C080916607882309F464C1AE
:102E2000F12C6DE0E62E86C004ED12E0D8018C9105
:102E300084FF54C016968C91169712964D915C9112
:102E40001397480F511D87FD5A9513965C934E9327
:102E5000129717968C91179714962D913C91159770
:102E6000F901E80FF11D87FDFA951596FC93EE9395
:102E700014972091B50130E08091BE019091BF017F
:102E8000281B390B8091B601A091C001B091C101FE
:102E9000790162E0E60EF11CBA01685F7F4FE61629
:102EA000F706E4F44E5F5F4FB901685F7F4F461746
:102EB0005707A4F490E08A1B9B0BAC014E5F5F4F59
:102EC0009F01285F3F4F4217530744F426503109B2
:102ED00008962817390714F40E944929025F1F4FEA
:102EE00083E00832180709F0A1CF10E000E0612F5D
:102EF000802F0E94462699EF980F943030F441E0DD
:102F0000480F612F802F0E946D260F5F0C3179F7DB
:102F10001F5F103159F77FCF0F2D10E06801CC0CE7
:102F2000DD1CF601E00FF11FE65DF84F8281811193
:102F300006C0F39480916607F81670F366C081505E
:102F40008283803179F030F4813071F0883089F7F4
:102F50004FE04FC0883121F0803259F74CE049C032
:102F60004DE047C04EE045C08091A70290E0880F39
:102F7000991F84539D4FA4EDB2E05F01AF014F5FF5
:102F80005F4F2C9124FF1BC0F5012081FAE02F9F99
:102F90009001112412966D917C911397621773071B
:102FA00071F4FA012081FAE02F9F90011124149608
:102FB0006D917C9115976217730709F461C31E9692
:102FC00023E0A832B207E9F6F601E00FF11FE65D53
:102FD000F84F80813D85831306C081814C85841321
:102FE00002C00E9449290C0D1D1DF801E65DF84F35
:102FF00041E0618180810E946D269BCF0E94432722
:1030000080916607882309F46FC080912C07813076
:10301000A9F36AC030916C0790916D079095932346
:10302000243009F044C080919A0132FF32C08E32C0
:1030300068F48932D0F083E884BD8FEF87BD81EFDB
:103040008093800080E4809388000BC0833388F4F1
:1030500083E884BD8FEF87BD81EF8093800010925D
:10306000880010928A0080919A018F5F80939A0164
:103070003BC08091A40297FF04C0843610F48F5F98
:1030800005C094FF31C08D3478F181508093A40243
:103090002BC0882371F0833300F1883218F082E06E
:1030A0008093000110929A01911117C01DC01092D7
:1030B0009A019923C9F02B3040F4293048F4273085
:1030C00049F0283051F481E00DC0213169F005C08C
:1030D00082E008C08091BD0105C010926D0710927A
:1030E0006C0785E08093000180919901811112C3E2
:1030F00080919A0181110EC38091A502811106C0B1
:1031000090910001953019F480E201C080E093E8CD
:1031100094BD809587BD81EF8093800010928800D8
:1031200010928A00F7C263E0A61611F40C943F10C7
:103130008CE00FCA662009F4EBC2772019F064E036
:1031400081E004C0043029F46AE087E00E94EA1EAE
:1031500046C866E085E0FACFC114D10441F4A40169
:10316000B501832D0E94EB25811183C0ABC2611094
:1031700003C071108BC00AC0A401B5016F5F7F4FFF
:10318000842D0E94C5258111DACF03C0CD2809F412
:10319000BFC2B5016F5F7F4FA401842D0E94EB2554
:1031A0008111CDCF1092B7011092C201882309F48A
:1031B000BCC98BE08093BC010FC063E0D61295C000
:1031C0008091BE019AE0199F800D11248093B50172
:1031D0006BEF8AEF0E94EA1E0E94F31EE5C9CD281C
:1031E00079F4A401B301842D0E94EB258823D1F248
:1031F00066E085E00E94EA1E1BC0CD2809F488C263
:10320000652D812F0E944626182F802F0E9481282D
:10321000882309F47DC2B5016F5F7F4FA401812F20
:103220000E94EB25882309F4BDCF8BE08093BC017D
:103230000E947E1C0C94EF108114910411F5A501DD
:10324000B601842D0E94EB25811113C05EC255206A
:1032500009F45EC2662019F06FEF8CEF04C00430F1
:1032600029F469EF86EF0E94EA1E7CC866E085E0DB
:10327000FACF8BE08093BC0183EC91E00E94961D15
:103280001FC2511024C2662009F41FC21092BC0153
:103290003FC2892869F4A501B601812F0E94EB2560
:1032A000882309F47FCF66E085E00E94EA1E0BC008
:1032B000A501B601812F0E94EB25882309F472CF66
:1032C0008BE08093BC010E947E1C4CC8CC2019F17D
:1032D00087E08093BC0123C9A70155274F5F5F4F4B
:1032E000612F70E01FC06E2DFCC88D2D0E948128BB
:1032F000811103C01092BC0112C9D11003C08BE030
:103300008093BC018091BE01AAE01A9F800D112418
:103310008093B50161CFA70155274F5F5F4F612FA4
:1033200070E08D2D0E94C525882309F455CFE2CF8A
:103330000E947A2E0E947A2E2AE030E040E050E08F
:103340000E94152FDC01CB014496A11DB11DF30194
:10335000808740E06F2D8D2D0E946D2662C9FA9402
:103360006F2D8D2D0E944626882309F42FC17AC91E
:103370006FEF6F0D8D2D0E9446268F836F2DAA242F
:10338000A394AD0C8A2D0E944626582E6C2D8A2DB2
:103390000E944626482E6C2DCC24CA94CD0C8C2D30
:1033A0000E944626382E6F2D8C2D0E944626282EF0
:1033B0008091B50190E02091BE013091BF01821B48
:1033C000930B2A853B85281B390BC9012091B60137
:1033D00030E04091C0015091C101241B350B021B0C
:1033E000130BD30119962C9119972223D1F01F9218
:1033F0002F923F92892CA42CC52CEF800B2D1D966B
:103400002C914F2D6D2DC3010E940D1FF30191854D
:10341000915091870F900F900F90811128C91485BA
:1034200061C097FF1FC0101611065CF4919581953D
:10343000910908171907C4F180179107BCF511E02D
:1034400046C001151105A1F191958195910911953C
:1034500001951109801791076CF10817190764F598
:1034600015E035C00097C9F01016110644F408178E
:10347000190724F1801791071CF51FE028C00115DA
:10348000110501F111950195110980179107E4F0DB
:1034900008171907DCF41BE01AC0111F1127111FB0
:1034A000110F110F110F13C013E011C012E00FC064
:1034B00014E00DC017E00BC016E009C01DE007C006
:1034C0001EE005C01CE003C019E001C01AE0EDEFEA
:1034D000E10FEC3020F4F0E0EF5EFE4FE080D3012E
:1034E0001D96EC92F3018085882389F09FEF990D5A
:1034F000923068F4B1100BC08150D30118968C93B0
:10350000811105C046E06F2D8D2D0E946D26B1E022
:10351000BF932F923F92892CA42CC52CEF800B2DAA
:10352000212F4F2D6D2DC3010E940D1F0F900F9065
:103530000F9081119CC8F12E08E0D02E112311F0BC
:10354000115001C01FE0E1E0EF932F923F92892CD0
:10355000A42CC52CEF800B2D212F49856885C30134
:103560000E940D1F0F900F900F90882339F0D30108
:103570001A968C918B3009F07AC81EC0BFE0FB16FA
:1035800011F0F39401C0F12CE1E0EF932F923F9200
:10359000892CA42CC52CEF800B2D2F2D49856885F7
:1035A000C3010E940D1F0F900F900F908111DFCF6C
:1035B000DA94D110C3CFDBCF892D0E948A288823CB
:1035C00009F455C8D30117961C9251C8F30110860F
:1035D00046E06F2D8D2D0E946D2644C8EFEFD70178
:1035E0001A96EC931A97FEEF1696FC9308C081E0AA
:1035F000D7011A968C931A97E2E01696EC9300E0A6
:103600004CE753E064C935EB832E33E0932E4CEE48
:1036100053E090E00FC02BEC822E23E0922E46E088
:1036200054E090E010C096EA892E93E0992E4BED7D
:1036300053E092E380E0DEC984EC882E83E0982E8C
:103640004EEF53E092E38BE7D5C91A96EC911A97A7
:1036500023EF2E0F233008F096CBE45F05C02CE05B
:103660002E0F2C3128F4E22FF0E0EE5EFA4FE491B9
:103670001A96EC931A9791CB82E1C3CB89E0C1CB28
:10368000FC0160812181FAE06F9FB0011124139643
:103690007C936E9312976AE0269F900111241596F1
:1036A0003C932E9314971A96EC921A971B961C92A1
:1036B0001B9716961C92169717961C9217977FCCFD
:1036C00081E070CD61103BCD54CD892809F1672D83
:1036D000812F0E944626182F802F0E948128882340
:1036E00049F0A501B60161507109812F0E94C525DD
:1036F0008111B2CDB60161507109A501812F0E94DF
:10370000EB25882309F44ECDA7CD5110A5CDBBCD17
:1037100080E048CD2D960FB6F894DEBF0FBECDBF2A
:10372000DF91CF911F910F91FF90EF90DF90CF909D
:10373000BF90AF909F908F907F906F905F904F90D1
:103740003F902F900895CF92DF92EF92FF920F93C8
:103750001F93CF93DF936C017A018B01C0E0D0E01F
:10376000CE15DF0581F0D8016D918D01D601ED9167
:10377000FC910190F081E02DC6010995892B11F093
:103780002196EECF7E01C701DF91CF911F910F915E
:10379000FF90EF90DF90CF9008958091A401E09189
:1037A000A201F091A301882349F0CF0102969093E2
:1037B000A3018093A201859194910895CF0102966F
:1037C0009093A3018093A2018081918108958091BB
:1037D0009B0108950895089580E090E00895FC010C
:1037E0002285261714F0421714F4FC01628708950D
:1037F0000E948A2FBF92CF92DF92EF92FF920F9397
:103800001F93CF93DF93FC0166834783862F880F36
:10381000880F860F382F3F70942F990F990F940FB0
:1038200050E19502C0011124832B818367FF02C000
:103830008CE003C0662311F084E0848747FF02C058
:10384000148604C0442311F088E08487222309F4FD
:103850004BC08185811148C0EF018485811134C03E
:103860001D868A819B812AE030E0B9010E941B2ECF
:10387000162F8C819D81B9010E941B2EFF24FA9482
:10388000F60E00E0CC24CA94C10EBB24B394B10E52
:10389000DF2CD01A6D2D812F0E944626833091F4A3
:1038A0006D2D8C2D0E944626E82E6D2D8B2D0E94AD
:1038B00046260F5F9DEF9E0D923020F09DEF980FF2
:1038C000923060F4098710C00E947A2E26E030E022
:1038D00040E050E00E94152F698706C08111D8CFC3
:1038E00081508330A8F6EECFDF91CF911F910F91D9
:1038F000FF90EF90DF90CF90BF900895E1E7F0E068
:1039000080818D7F80831092910046984798109215
:10391000A1010895CF92DF92EF92FF920F931F9330
:10392000CF93DF930E94CD1B811520E8920751F4BD
:10393000DF91CF911F910F91FF90EF90DF90CF908B
:103940000C947E1C21E02093A101813020E8920795
:1039500051F480919F019091A0019093A3018093D5
:10396000A2010E94CD1B97FD05C020919E0122233C
:1039700009F440C020919D0121113CC021E0209319
:10398000A501EC01DF77209769F481E08093A6011F
:1039900046983FE9C32E3FE0D32EE12CF12CCAEF2D
:1039A000D0E014C08E0120E030E060E472E48FE0EB
:1039B00090E0A90198010E94152F69017A0181E028
:1039C000C81AD108E108F1081092A601E091280771
:1039D000F09129070995811103C081E08093A60128
:1039E0008091A501882309F43FC08091A60181112F
:1039F0003BC003C01092A501C4CF469935C0479A79
:103A00000E94CD1B009771F09C01DE010E94692F7E
:103A1000DC01CB0129E0B595A795979587952A9567
:103A2000D1F703C08FEF9FEFDC01109290002AE0E6
:103A300020939100D0929900C09298008093A701A2
:103A40009093A801A093A901B093AA01809171005D
:103A5000826080937100DF91CF911F910F91FF9051
:103A6000EF90DF90CF9008954798CACF1F920F92A2
:103A70000FB60F9211242F933F934F935F936F9341
:103A80007F938F939F93AF93BF93EF93FF93809117
:103A9000A7019091A801A091A901B091AA01892B39
:103AA0008A2B8B2B81F18091A60181110BC098B1DB
:103AB00080E4892788B98091A501882319F088B10D
:103AC000805888B98091A7019091A801A091A9017F
:103AD000B091AA01181619061A061B06B4F48091B3
:103AE000A7019091A801A091A901B091AA01019705
:103AF000A109B1098093A7019093A801A093A901FE
:103B0000B093AA0102C00E948A1CFF91EF91BF915D
:103B1000AF919F918F917F916F915F914F913F9165
:103B20002F910F900FBE0F901F9018959C01E1E709
:103B3000F0E090819D7F908381E08093A401309399
:103B4000A3012093A2013093A00120939F010C9424
:103B50008A1C4F925F926F927F928F929F92AF9248
:103B6000BF92CF92DF92EF92FF920F931F93CF936A
:103B7000DF9300D000D0CDB7DEB7DC014115510591
:103B800009F4D8C0FA01F490319694914E5F5F4FDA
:103B9000CF2CD12C2223D9F0E1E0F0E0892F8770DF
:103BA00011F4E0E0F0E0892F869586958695E80F80
:103BB000F11DEC9D8001ED9D100DFC9D100D11245B
:103BC000209FF001219FF00D11244E0F5F1FF60181
:103BD000EA0FFB1F1E161F060CF0ACC0A038B10583
:103BE0000CF0A8C09B01290F311D121613060CF012
:103BF000A1C0603471050CF09DC04115510509F458
:103C000099C0062F0770B02E9B0177FF02C0295F75
:103C10003F4F83E0359527958A95E1F7822F77FF0F
:103C200004C0BB2011F08FEF820FB7FF05C0222721
:103C300033272A1B3B0B02C020E030E0E038F105BF
:103C400024F070E87A1B672E01C06F2C621A082FCF
:103C5000082E000C110B8F3F1CF4F02FF09501C0C3
:103C6000F0E0EE24E394692F677009F4E12CE92F6A
:103C7000E695E695E6959E2D9E0F090F111D0930DC
:103C8000110514F098E0981B6F2F680F8901FF9EB3
:103C9000000D111D1124400F511F01E010E00B2CED
:103CA00002C0000F111F0A94E2F7EFEFE09F7001CE
:103CB000E19FF00C1124E094F094FC82EB82AC8044
:103CC00070E86703A00DB11D11242A0F3B1F285D6A
:103CD0003C4F992E980E961669F1D9012A01842D30
:103CE000841B861508F5F2018490809EC001819E98
:103CF000900D11249A83898367FD04C09C919E21B5
:103D0000892B8C93BB2059F067304CF4CD0180583F
:103D10009F4FFC0180808A207A8087288082FFEF75
:103D20004F1A5F0A1196DBCF6F5F4C0D5D1D205857
:103D30003F4FD1CF0F900F900F900F90DF91CF9109
:103D40001F910F91FF90EF90DF90CF90BF90AF90B9
:103D50009F908F907F906F905F904F900895BC01DF
:103D600080E090E00C943A248FB18095807F669B30
:103D700088601C9B8460089580389105B8F4603495
:103D80007105A0F490E121E061FD24E060FD220FC7
:103D900062FD2295687F969FD0011124A80FA85D2F
:103DA000BC4F8C91822B40FF82278C930895809189
:103DB000B60190E02091C0013091C101821B930BAC
:103DC0006AE070E00E94072E9C0181E0232B09F03D
:103DD00080E008959091BC01981714F0691714F4CD
:103DE0008093BC0108951092B7011092C20182E045
:103DF0008093B8011092C3018091B601873160F0C1
:103E00008091C0019091C10189399F4F2CF010928F
:103E1000B8018EEF8093C30108953F924F925F9255
:103E20006F927F928F929F92AF92BF92CF92DF92CA
:103E3000EF92FF920F931F93CF93DF93CDB7DEB72F
:103E4000142F902E3C88BE8830E02031310508F0D8
:103E500028C1082D7E2D462E3C01F901E658FF4F62
:103E60000C94842FEE2029F07350723010F010E083
:103E700001C011E046EF60E0C3010E94D12693E04B
:103E800099120FC1112309F40CC181110AC146E036
:103E900065E0C3010E94EF1B2B2D4EEF60E0C301D4
:103EA0000E94FA1B0FC140E06AE00E94D12691E017
:103EB000D82ED926E12EF12CEFEFEE1AFE0A512C66
:103EC000A701B201882D0E941A26382EB2016F5F19
:103ED0007F4FA7018A2D0E941A26F82E8C2D0E9452
:103EE0008128182F8A2D0E948A28F4E0CF1205C05D
:103EF000DD2019F04AE067E00DC094E0991211C08E
:103F00001123C9F0882309F4D0C0DD2009F4D4C0FE
:103F100044E061E0C3010E94EF1B2B2D40E062E012
:103F200099C0E3E09E1207C0112329F0DD2019F0AB
:103F300046E065E0EFCF311093C0882321F01123D4
:103F400009F4AFC006C0112309F4ABC0FF2009F487
:103F5000A8C0DD2009F4A5C0DBCF4AE060E00E94E4
:103F6000D12691E0F82EF926412F50E04F5F5F4FA8
:103F7000642D70E0882D0E941A26033061F4FF2022
:103F800009F48FC04BEF6AEFC3010E94EF1B2B2D8A
:103F900042E060E05FC0882309F483C0FF2009F499
:103FA00080C08BE0F30182872B2D42E060E0C301EB
:103FB0000E94FA1B0750093008F075C08FE1F30129
:103FC000838771C040E066EF0E94D12691E0582EB1
:103FD0005926E12EF12CFFEFEF1AFF0AC42CD12C49
:103FE000A701B601882D0E941A26A82EB60161509D
:103FF0007109A701832D0E941A26F82E8D890E942F
:104000008128182F832D0E948A289D89943029F4B5
:10401000552019F049EF66EF17C0E4E09E120BC07F
:104020001123E1F0882309F444C0552009F447C066
:104030004FEF6CEF09C0F3E09F1210C0112371F035
:10404000552061F046E065E0C3010E94EF1B2B2D77
:1040500040E06EEFC3010E94FA1B25C0AA20A1F028
:104060008BE0F30182872B2D42E060E0C3010E94C8
:10407000FA1B07500930B8F48FE1F301838782E01F
:104080009DE10E94961D0FC0882329F0112349F05D
:10409000552039F0CDCF112321F0FF2011F0511020
:1040A000B9CF10E00FC011E00DC0332009F44ECF9E
:1040B000D7CFAA2091F3D4CF332099F3D1CFAA2020
:1040C00081F3CECF812FDF91CF911F910F91FF9080
:1040D000EF90DF90CF90BF90AF909F908F907F90A8
:1040E0006F905F904F903F900895CF93DF931F9212
:1040F000CDB7DEB76983DC01ED91FC910280F381DD
:10410000E02D41E050E0BE016F5F7F4F09950F90B9
:10411000DF91CF91089583E08093E9008091F200D0
:10412000882319F08AE38093E8000895FC018485D0
:10413000958597FD0BC09FB7F89482E08093E900C6
:104140008091F2009FBF90E0019608959FB7F89488
:1041500082E08093E9008091F2009FBF90E0089593
:104160004091AE015091AF012091AC013091AD0171
:1041700042175307B4F49091E8009570E1F39091E1
:10418000E80092FD19C08093F1008091AE019091FA
:10419000AF0101968F739927892B19F48EEF8093C5
:1041A000E8008091AE019091AF0101969093AF012C
:1041B0008093AE0181E0089580E00895DF92EF9250
:1041C000FF920F931F93CF93DF93D82E8A017B0129
:1041D000E40EF51EEB01CE15DF0571F0D7FE03C02E
:1041E000FE01849101C088810E94B0202196811136
:1041F000F2CF8FEF9FEF01C0C801DF91CF911F91E8
:104200000F91FF90EF90DF900895615030F0209172
:10421000F100FC0120830196F8CF289884E6809372
:10422000B30108950E949A2790E008950F931F9379
:10423000CF93DF931F92CDB7DEB78C01FC0184854D
:10424000958597FF0EC0CE0101960E946C270197BD
:1042500019F4898190E002C08FEF9FEFF8019587F4
:104260008487F801848595850F90DF91CF911F9108
:104270000F910895CF93DF931F92CDB7DEB7FC0166
:104280008485958597FD05C02FEF3FEF35872487FF
:104290000BC0CE0101960E946C27019719F4898109
:1042A00090E002C08FEF9FEF0F90DF91CF910895C4
:1042B0000F931F93CF93DF931F92CDB7DEB782E0AA
:1042C000898342E450E060E17DE180E80E94DE20E5
:1042D0000E943128DC0112960D911C911397011553
:1042E000110589F0D801ED91FC910280F381E02D58
:1042F000BE016F5F7F4FC801099597FD04C0F801AB
:1043000000851185ECCF89810F90DF91CF911F91AE
:104310000F9108951F920F920FB60F9211248F9351
:104320009F938091E1009091E100937F9093E10051
:1043300083FF0FC01092E90091E09093EB00109280
:10434000EC0092E39093ED001092B40198E090930A
:10435000F00082FF20C093E09093E9009091F2007A
:10436000992319F09AE39093E8009091B101992371
:1043700039F09091B10191509093B101992389F155
:104380009091B301992339F09091B301915090939A
:10439000B301992341F184FF10C08091E2008E7E29
:1043A00081608093E2008091E1008F7E8093E10044
:1043B0008091B2018E7E806111C080FF16C0809115
:1043C000E2008E7E80618093E2008091E1008E7E2B
:1043D0008093E1008091B2018E7E81608093B20172
:1043E00004C05D9ACDCF289AD6CF9F918F910F9020
:1043F0000FBE0F901F9018951F920F920FB60F923D
:104400001124CF92DF92EF92FF920F931F932F937D
:104410003F934F935F936F937F938F939F93AF934C
:10442000BF93EF93FF93CF93DF93CDB7DEB76C9736
:10443000DEBFCDBF1092E9008091E80083FFFBC191
:1044400068E0CE0145960E94052182EF8093E80046
:104450008D8987FF05C09091E80090FFFCCF03C0D5
:104460009EEF9093E800982F907609F0C6C09E8941
:104470004F89588D2F89F88C91110CC0803829F400
:104480008091AB018093F10002C01092F100109274
:10449000F10045C1913051F4811141C141305105C4
:1044A00009F03DC18091AB018D7F0BC0933061F469
:1044B000811135C14130510509F031C18091AB0105
:1044C00082608093AB012BC1953049F48091E80064
:1044D00080FFFCCF822F80688093E30020C196305C
:1044E00009F05EC00B8D1C8D22E01092E900109245
:1044F000AF011092AE01F21232C01092AD011092D3
:10450000AC010E94582199E0BE016F5F7F4FDB0133
:10451000E92F1D92EA95E9F79983FA8291E09E834B
:1045200090EA98879AEF99872091AE013091AF0178
:10453000275F3F4F3C832B838D831092E9001092BD
:10454000AF011092AE011093AD010093AC0149E0B0
:1045500050E080E00E94DE200E945821E0C01093CD
:10456000AD010093AC010E943128DC0112960D913F
:104570001C9113970115110509F4BBC0D801ED91E9
:10458000FC910480F581E02DBE016B5E7F4FC80178
:104590000995009709F0C7C0F80100851185EACF99
:1045A000973009F445C1983021F481E08093F100FF
:1045B000B6C0993009F0B3C0837009F039C1E9E79A
:1045C000F1E081E031E096E32081211109C08EE71E
:1045D0008093EA001092EA008F898093B4019FC013
:1045E0008093E9003093EB0021912093EC009093AD
:1045F000ED008F5F873041F7EACF8B8D9C8D109255
:10460000E9001092AF011092AE019093AD0180933A
:10461000AC01898D811153C08E899D89913A49F4ED
:10462000813209F005C147E050E065E071E080E0CB
:10463000BBC0913209F0FCC0833269F48F89988D38
:10464000A0E0B0E08093010190930201A0930301E8
:10465000B093040164C0803269F48091E80082FF65
:10466000FCCF67E085E091E00E9405218BEF80930D
:10467000E80055C0823209F052C08F8980930C0146
:10468000EEEFFFE7859194918B3F9C4D19F0E0E0B0
:10469000F8E002C0EEEFFAE080910501909106018A
:1046A000A0910701B0910801803B9440A105B1059C
:1046B00009F09EC080910C0180FF79C099C00E94D2
:1046C0003128FC01028113810115110509F4B0C0E4
:1046D000D801ED91FC910190F081E02DBE016B5E5F
:1046E0007F4FC801099581111AC0F8010085118515
:1046F000EBCFF1E0FF1609F44EC0F3E0FF1298C0D3
:104700008F89882309F44AC0823089F440E867E041
:1047100084E79DE10E94862D882309F489C08EEFED
:104720008093E80088C018161906CCF381C0813048
:1047300029F440E86BE088E69DE1ECCF833009F096
:1047400077C00E943128DC011296ED90FC901397FF
:104750008E010F5F1F4F6801E114F10479F0D7015A
:10476000ED91FC910680F781E02DB801C701099514
:10477000080F111DF701E084F184EECFD8011C92DF
:10478000F60101900020E9F73197BF016C197D090E
:1047900040E0C601BFCF66E57DE102C062E57DE194
:1047A000FB01449150E080E80E94DE20B8CFEE3F4C
:1047B0002AE0F20751F0808191818737A7E79A07B5
:1047C00021F09093FF0A8093FE0A87E797E7918391
:1047D0008083809160008093B0019BE088E10FB6F8
:1047E000F894A895809360000FBE9093600097CFD7
:1047F000808191818737974709F091CFA895809163
:1048000060008861809360008091B00180936000B7
:10481000EE3FBAE0FB0739F08091FE0A9091FF0A63
:10482000918380837CCF1092FF0A1092FE0A77CF8B
:1048300081E28093EB006C960FB6F894DEBF0FBE5A
:10484000CDBFDF91CF91FF91EF91BF91AF919F913C
:104850008F917F916F915F914F913F912F911F9118
:104860000F91FF90EF90DF90CF900F900FBE0F90C1
:104870001F9018958F929F92AF92BF92CF92DF9226
:10488000EF92FF926B017C010E94DA284B015C01E0
:10489000C114D104E104F104F1F00E94DA28DC0132
:1048A000CB0188199909AA09BB09883E9340A10543
:1048B000B10570F321E0C21AD108E108F10888EED1
:1048C000880E83E0981EA11CB11CC114D104E10420
:1048D000F10419F7DDCFFF90EF90DF90CF90BF90FC
:1048E000AF909F908F9008952F923F924F925F923A
:1048F0006F927F928F929F92AF92BF92CF92DF92F0
:10490000EF92FF920F931F93CF93DF93CDB7DEB754
:104910002F970FB6F894DEBF0FBECDBF4C017B01C1
:104920002C870D875A8349831C821B821D821E821D
:1049300068E070E0CE0101960E9495281C019C0160
:104940002F5F3F4F3B872A8768E070E0CE010196DA
:104950000E9495288C0161E070E0CE0101960E94D2
:1049600095282A853B85280D391D37FDF5C030E88F
:10497000831691040CF0F0C00F5F1F4F98012E0DAD
:104980003F1D37FDE9C040E4E416F1040CF0E4C03B
:104990006701F7FE04C0CC24DD24CE18DF0857E001
:1049A000C522DD249701F7FE02C0295F3F4F390180
:1049B00023E0759467942A95E1F7F7FE09C091E02A
:1049C000691A710828E030E0A9014C195D096A01F3
:1049D000980117FF02C0295F3F4F290193E05594CA
:1049E00047949A95E1F707701127012B19F05FEFB3
:1049F000451A550A0D85002311F0710102C0E12C02
:104A0000F12C898701E010E0A12CB12C88E090E026
:104A10009C012C193D093F872E87A414B5040CF086
:104A20009BC041E050E058874F8361E070E0CE01C9
:104A300001960E949528892B31F48F8198850296E2
:104A400098878F83F2CF6F817885CE0101960E947F
:104A50009528DC01119640E050E04A175B0708F00A
:104A600072C099859111102B000F09F069C0930154
:104A70002A0D3B1DC9010196099708F043C0C401E6
:104A80008E0D9F1D80389105E8F5B9017695762F3A
:104A9000662777956795680D791D6E0D7F1D2F3FF1
:104AA0000FEF300709F454C0812F0C2C01C0880F80
:104AB0000A94EAF7FB01E85DFC4F0C85002319F02E
:104AC0009081892B03C08095908189238083C114B4
:104AD000D104C1F027303105A9F0812F90E00E8478
:104AE00002C0959587950A94E2F7FB01E855FC4FC3
:104AF0002C85222319F01081812B03C08095108111
:104B0000812380830D85011110C02FEFE21AF20A74
:104B10008A859B85E816F9068CF09FEFA91AB90AD9
:104B200001E010E0E12CF12C0BC001E0E01AF108EB
:104B3000F7FE04C02FEFA21AB20A710101E010E0E3
:104B40004F5F5F4F8ACF398541E03427398765CF82
:104B5000C114D10411F6D6CF2F960FB6F894DEBF4C
:104B60000FBECDBFDF91CF911F910F91FF90EF90BE
:104B7000DF90CF90BF90AF909F908F907F906F907D
:104B80005F904F903F902F9008958150833008F1AF
:104B90008AE0869F9001879F300D1124849FB00189
:104BA000859F700D1124E4EDF2E0808184FF0AC03E
:104BB000828193818217930729F4848195818617D6
:104BC000970739F03E9683E0E832F80771F780E006
:104BD000089581E00895873028F4843038F58823DB
:104BE00029F126C0803120F58AE0869F9001879FB9
:104BF000300D1124849FB001859F700D1124E4EDC8
:104C0000F2E0808184FF0DC082858B3051F4828177
:104C100093818217930729F48481958186179707DA
:104C200039F03E9683E0E832F80759F781E00895BD
:104C300080E00895853031F118F4882319F124C0FB
:104C40008750883008F58AE0869F9001879F300D55
:104C50001124849FB001859F700D1124E4EDF2E0D2
:104C6000808184FF0AC0828193818217930729F48F
:104C7000848195818617970739F03E9683E0E83264
:104C8000F80771F781E0089580E008958C31F8F419
:104C90006F3FF9F06031F8F4982F969570E080FD41
:104CA0000BC080E1989F600D711D1124FB01E2543F
:104CB000FE4F8681829509C080E1989F600D711D2D
:104CC0001124FB01E254FE4F86818F70089581E02C
:104CD000089580E0089582E00895982F9695E62F34
:104CE000F0E080FD0EC080E1989FE00DF11D1124E1
:104CF000E254FE4F86818F7090E1499FA0011124FC
:104D000009C080E1989FE00DF11D1124E254FE4F8F
:104D10008681807F482B46830895CF93DF9382EB73
:104D200090E00E94D12E8093A40283EB90E00E9439
:104D3000D12EC5EBD1E08E8384EB90E00E94D92E7A
:104D40009D838C83DF91CF9108951F93CF93DF9341
:104D5000C091A4026C2F82EB90E00E94DF2E6C2F9A
:104D600087EB90E00E94DF2EC5EBD1E01E81612F22
:104D700083EB90E00E94DF2E612F88EB90E00E9491
:104D8000DF2E0C80DD81C02DBE0184EB90E00E94FF
:104D9000F12EBE0189EB90E0DF91CF911F910C9431
:104DA000F12EEF92FF920F931F93CF93DF93DC01CD
:104DB000E4EDF2E088E293E0062E000C770B042E7F
:104DC000000C550B208124FF1EC02F703C913F70BA
:104DD0002317C9F01181212F2F70C281D381C20FF7
:104DE000D11D12962D913C911397260F371F7E01EE
:104DF0000AE0E00EF11C2E153F052CF4265F3F4F14
:104E0000C217D30734F03E968E179F07D9F680E07D
:104E100019C012951F70C481D581C10FD11D149680
:104E20002D913C911597240F351F7E010AE0E00E6D
:104E3000F11C2E153F053CF7265F3F4FC217D307E5
:104E400014F781E0DF91CF911F910F91FF90EF90C8
:104E500008958091B60190E02091C0013091C10188
:104E6000821B930B2AE030E0B9010E94072E8630A6
:104E700020F0A901481B5109CA0121E005970CF057
:104E800020E0822F0895CF92DF92EF922091660763
:104E9000822F90E0FC01EE0FFF1F8E0F9F1FFC0181
:104EA000E65DF84FC080D180E2808FEF820F809363
:104EB0006607EAE2F7E090E0981740F42381348136
:104EC00045812193319341939F5FF6CF8E2DB6019B
:104ED000EF90DF90CF9008952091B401211103C08D
:104EE0008FEF9FEF08955FB7F89422E02093E900D9
:104EF0002091F20030E01216130614F421E030E0A5
:104F0000422FFC0184E6415038F028988093B30189
:104F10009091F1009193F7CF2115310521F0809107
:104F2000F200882319F05FBFC90108958BE68093D2
:104F3000E800F9CF2FB7F89483E08093E9009091CF
:104F4000E800892F807295FF04C09091F20080E400
:104F5000891B2FBF08958F929F92AF92BF92CF92DD
:104F6000DF92EF92FF920F931F93CF93DF936C0129
:104F70007B018A0180910C01882309F45CC0809137
:104F8000B401882309F457C08091B20180FF05C0A5
:104F90008091E00082608093E000E801B12C8AEF0C
:104FA000A82E93E0892E2AE3922E209711F4BB209D
:104FB000D9F10E949A2781110AC0AA94AA20D9F196
:104FC00061E070E080E090E00E943A24EECF282F6C
:104FD00030E0C217D3070CF48C2F9FB7F89480925F
:104FE000E9002091E80025FF1DC0282F30E0C21BFA
:104FF000D30BF701815020F041914093F100FACF9B
:10500000E20EF31EBB2019F09092E8000AC08091D6
:10501000E80085FD07C09092E800BB24B394209778
:1050200009F0B12C9FBFC1CF5D9884E68093B10198
:105030001016110644F081E090E0F601938382831C
:1050400080E090E001C0C801DF91CF911F910F91E6
:10505000FF90EF90DF90CF90BF90AF909F908F9098
:1050600008958091760781110DC082E080937207C8
:1050700084E080937307109275071092740781E0A3
:105080008093760782E797E00895CF93DF93D82F38
:105090008FEA90E00E94D12EC82F80EB90E00E9412
:1050A000D12ED11104C0CC3411F4823539F16CE425
:1050B0008FEA90E00E94DF2E62E580EB90E00E9494
:1050C000DF2E86EB90E00E94D12E682F81EB90E0DE
:1050D0000E94DF2E87EB90E00E94D12E682F82EB9A
:1050E00090E00E94DF2E88EB90E00E94D12E682F86
:1050F00083EB90E0DF91CF910C94DF2EDF91CF9185
:105100000895882329F083508D3010F080E00895B1
:1051100081E00895813028F0843028F0875089306C
:1051200010F080E0089581E008951F93CF93DF93FE
:10513000DC0120E030E040E050E011E0C1E0D0E0F0
:105140002617370791F114968C911497811115C089
:1051500014961C93149712968D919C911397ED9130
:10516000FC911197E80FF91FE4911596EC931597B0
:10517000019613969C938E93129714969C91149774
:1051800015968C911597892349F0FE01022E02C0D5
:10519000EE0FFF1F0A94E2F74E2B5F2B990F149628
:1051A0009C9314972F5F3F4FCBCFCA01DF91CF91D4
:1051B0001F9108953FB7F8948091E1079091E2071D
:1051C000A091E307B091E40726B5A89B05C02F3F47
:1051D00019F00196A11DB11D3FBFBA2FA92F982F1D
:1051E0008827820F911DA11DB11DBC01CD0142E098
:1051F000660F771F881F991F4A95D1F708951F9250
:105200000F920FB60F9211242F933F938F939F937A
:10521000AF93BF938091DC079091DD07A091DE07EB
:10522000B091DF073091E00723E0230F2D3720F402
:105230000196A11DB11D05C026E8230F0296A11DF0
:10524000B11D2093E0078093DC079093DD07A093C6
:10525000DE07B093DF078091E1079091E207A0910C
:10526000E307B091E4070196A11DB11D8093E1070A
:105270009093E207A093E307B093E407BF91AF9147
:105280009F918F913F912F910F900FBE0F901F9084
:1052900018958091BB0181508093BB0196E090935B
:1052A0000001811102C088E001C08AE08093BD0145
:1052B0008CE79DE10C94961DCF93DF93CDB7DEB7BD
:1052C00027970FB6F894DEBF0FBECDBF789484B594
:1052D000826084BD84B5816084BD85B5826085BDF2
:1052E00085B5816085BD80916E00816080936E0080
:1052F0001092810080918100826080938100809172
:105300008100816080938100809180008160809322
:105310008000809191008260809391008091910043
:1053200081608093910080919000816080939000D3
:105330008091C10084608093C1008091C10082602F
:105340008093C1008091C10081608093C1008091F1
:10535000C30081608093C3008091C000826080930D
:10536000C0008091C20081608093C20080917A0069
:10537000846080937A0080917A00826080937A00C2
:1053800080917A00816080937A0080917A008068B1
:1053900080937A001092B4011092AB011092B20186
:1053A0008091D70081608093D70080EA8093D800F5
:1053B00089B5806189BD89B5826089BD09B400FE67
:1053C000FDCF61E070E080E090E00E943A2480919F
:1053D000D8008F7C80618093D8008091E000807F2E
:1053E0008093E0008091E1008E7E8093E1008DE06B
:1053F0008093E200559A209A81EC80937C0085B1DD
:10540000806F85B984B1877E84B984B1876E84B991
:105410005E9A5F988AB1806D8AB9769A6E9881B3E8
:10542000806F81BB899880B38D7080BB80E58CBD17
:1054300081E08DBD85E090E00E94AF1E5F9A85E01F
:1054400090E00E94AF1E5E985C98E2E4F9E18491DE
:105450008EBD00000DB407FEFDCF319649E1EF345B
:10546000F407A9F75C9A81E8809364008091650055
:105470008160809365000E94B41E87FF24C05C9801
:1054800085EA8EBD00000DB407FEFDCF5C9A2E9814
:105490002F982D988091640080628093640081E051
:1054A00083BF889513BEFCCF2D980E94B41E8478CC
:1054B000843871F00E94B41E8471843129F188EC23
:1054C00090E00E94AF1E0E94B41E82FDEDCF38C056
:1054D0002D9A88EC90E00E94AF1E2F9882E090E019
:1054E0000E94D12E8F3F29F06FEF82E090E00E9462
:1054F000F72E84EF91E00E94AF1E2F9A0E94B41EF7
:1055000084788438D9F3D6CF2D9A88EC90E00E9425
:10551000AF1E2E9882E090E00E94D12E882329F0C1
:1055200060E082E090E00E94F72E84EF91E00E941C
:10553000AF1E2E9A0E94B41E84718431D9F3BFCF5E
:105540002D9A88E280936E07809164008E7F80930D
:10555000640080917A00806480937A0080917A0060
:1055600086FDFCCF00917800109179000E94DA2826
:1055700020E030E0980111270027600F711F821F83
:10558000931F2091640021602093640061157105D0
:105590008105910511F00E94C82E82E090E00E94E2
:1055A000D12E882331F03E9A3F9A81E080939B016F
:1055B00004C010929B013E983F9880E00E944528CD
:1055C0000E948D2684E18093B50183E28093B60129
:1055D0001092BC0181E08093BD0187E0EDE3F1E032
:1055E000DE01119601900D928A95E1F781EB90E032
:1055F0000E94D12E843040F4E1E0F0E0EC0FFD1F7A
:10560000E80FF11D808103C0843019F081E180939F
:1056100000012BE3222E312C38E9432E55245A94D5
:1056200047E6642E77247A94DD24D39497E0A92E5C
:105630008FB7F8944091DC075091DD076091DE0749
:105640007091DF078FBF80916F07942F981B892F70
:1056500090917007992329F0809371071092700739
:1056600043C290916E07891740F48F5F891708F045
:105670003BC2D3BE889513BE37C2D0927007409309
:105680006F0780916A0790916B07019690936B0763
:1056900080936A0780916C0780936D070E94B41E07
:1056A00080936C07E09100018E2F90E0FC01319710
:1056B000E131F10508F00AC2E759FF4F0C94842F3D
:1056C00083EB90E00E94D12E10919C01853009F06F
:1056D00012C282EB90E00E94D12E813009F00BC201
:1056E000612F660F660F160F185EFF24F39448ECC7
:1056F0005CE168E170E000E021E086E290E00E9479
:105700007424612F70E021E04CEF5CE18FE190E0C8
:105710000E94742400E010E021E04DE05BE160E0D5
:1057200070E0C8010E94A91D21E04DE05BE167E344
:1057300070E0C8010E94A91D065F1F4F02381105C5
:1057400059F780916D07809590916C078923F1102E
:1057500011C087FF07C090919C01992319F09150C7
:1057600090939C0184FF06C090919C01911102C00E
:10577000D0929C0183FFAAC180919C01882329F0CB
:10578000813009F0A3C10E9445280E948D2682E045
:10579000809300019BC10E947E1C80916607882334
:1057A00019F00E944327F9CFE091A402F0E0EE0F38
:1057B000FF1FE255FF4F20813181D092BC01F901DA
:1057C0008491FAE08F9FC0011124F9013196E49190
:1057D0004AE0E49FF00111248B3391052CF41092E0
:1057E000BF011092BE0116C0AC014B5351094E359A
:1057F000510558F44BE34093B501B101681B790B97
:105800007093BF016093BE0107C07092BF016092A8
:10581000BE0189598093B501E731F1052CF410924E
:10582000C1011092C00116C0CF0147978235910582
:1058300060F487E18093B60187E190E08E1B9F0BB7
:105840009093C1018093C00107C05092C101409262
:10585000C001E856E093B601F90132961491A4ED27
:10586000B2E043E050E070E06C91607F672B6C9396
:1058700018961C9218977117E8F4F901E40FF51FB8
:10588000E4918AE0E89FF00111241396FC93EE93D3
:105890001297FA013196E20FF31F4E5F5F4FE491CA
:1058A000FAE0EF9FC001112415969C938E931497F4
:1058B00060616C937F5F1E967630B1F6CA010196E7
:1058C000F901E40FF51F54915093A602A8EAB2E043
:1058D00010E0BF016E5F7F4F511759F03196E49190
:1058E000EC93FB01449111964C9311971F5F129614
:1058F000F0CF850F911D850F911DA901480F591FEC
:10590000ACECB2E0FA0164916C933196E49111969B
:10591000EC9311974E5F5F4F129664ED72E06A1739
:105920007B0781F74C0179E0870E911CFC013896CA
:10593000E20FF31FC490E2E0CE1621F000E010E089
:1059400040E067C0AEEBB1E07C01F0EEEF0EF11C81
:1059500040E08D0160E070E04C0159E0850E911C43
:10596000F401E60FF71FE20FF31F5491E52FF0E06B
:10597000689413F8F595E7951694E1F7E63009F485
:105980004F5FE52FEF70E63009F44F5FF801568363
:105990006F5F7F4F005F1F4F6E30710509F71196E3
:1059A0000E968E159F05A9F670C0EE2309F46DC002
:1059B0005FEF851A950ABF2EB294B0EFBB22780133
:1059C000C11038C0C7016CE170E00E941B2E969593
:1059D00087957727A4E0880F991FAA95E1F782544D
:1059E0009E4FDC01A60FB71F16965C911697E0FC40
:1059F0001EC05F705B2916965C938FEFE81AF80A59
:105A00008E2D801B8E17E0F2E150F0E031960E0FE4
:105A10001F1FF901E80DF91DE491FE2FF295F6958F
:105A2000F770EF71F63009F0C0CF4E0FBECF507F48
:105A30005F2BE1CFB70184E0769567958A95E1F712
:105A4000562F56958E2D8F7090E060FD0EC060E150
:105A5000569F800D911D1124DC01A254BE4F169655
:105A60008C9116978F708B290DC070E1579F800D18
:105A7000911D1124DC01A254BE4F16968C911697ED
:105A8000807F8F2B16968C93B8CF4093A50283E02E
:105A90008093000105C0A092000102C00E94A526CB
:105AA0000E94020F13C000E021E04CE15AE164E1E2
:105AB00070E083E190E008C000E021E04FE459E1AC
:105AC00067E170E084E190E00E947424E8E2F3E092
:105AD00080E098E000800EBCD110012C019780FD81
