:100000000C94CE0E0C94F60E0C94F60E0C94F60E88
:100010000C94F60E0C94F60E0C94F60E0C94F60E50
:100020000C94F60E0C94F60E0C9480210C94F22194
:100030000C94F60E0C94F60E0C94F60E0C94F60E30
:100040000C94F60E0C94F60E0C94F60E0C94F60E20
:100050000C94F60E0C94F60E0C94F60E0C94F528F7
:100060000C94F60E0C94F60E0C94F60E0C94F60E00
:100070000C94F60E0C94F60E0C94F60E0C94F60EF0
:100080000C942C1D0C94F60E0C94F60E0C94F60E9B
:100090000C94F60E0C94F60E0C94F60E0C94F60ED0
:1000A0000C94F60E0C94F60E0C94F60ED71308145E
:1000B000081401140114FD13FD13F913F913F513BA
:1000C000F513ED13ED13F113F113ED13ED13F1131C
:1000D000F113562BC12B462D462D462D412D462D75
:1000E000462D442D462D492D492D492D752D752D13
:1000F000752D6B2D281F281F281F491F491F491FB9
:10010000A31FA31FA31FA31FA31FD81FD81FD81F40
:10011000281F281F090FE8D2D9ED76BB4EC7B7DDDF
:100120006EB7DBED7636090FE8D3E974FCDBED76CC
:10013000BBDD6E6703090F109BCE6EB7DB753A36D9
:10014000090FB8B2E9145FD7ABCF85A2ED6CDB59CC
:1001500001090FBC92EE55A9A4D2AAAD53E4E9E877
:10016000B6B303090FF8B6CAF55FB9B5EBD436EEEE
:10017000ED6CDB5901090F38B39FEAB397770A4B4F
:10018000DBD9B6B302090FBC924EA5FAECE554CE0A
:10019000C9D9D3F9EC367A090FB8B29F6AA2745F55
:1001A000BB8E773B7B3A5A090F38972ACA6B998ED8
:1001B00039BD1D5B090F5CA73EF54D96DBF5B950C7
:1001C000B79D1D20064B000000190075054B00006F
:1001D00000190027054B000000190097044B000090
:1001E00000190017044B0000001900B8074B00006D
:1001F000001900E0064B000000190010034B00003E
:10020000001900BA024B000000190093024B0000D5
:100210000019004B024B00000019000B024B0000BC
:10022000001900DC034B000000190070034B0000B4
:1002300000190088014B00000019005D014B00000F
:100240000019004A014B000000190026014B000074
:1002500000190006014B0000001900EE014B0000E0
:10026000001900B8014B0000001900C4004B000049
:10027000001900AF004B0000001900A5004B000062
:1002800000190093004B000000190083004B000090
:10029000001900F7004B0000001900DC004B0000C3
:1002A00000190062004B000000190057004B0000CD
:1002B00000190052004B000000190049004B0000DB
:1002C00000190041004B00000019007B004B0000AA
:1002D0000019006E004B000000190031004B0000B7
:1002E0000019002C004B000000190029004B0000F1
:1002F00000190025004B000000190021004B0000F0
:100300000019003E004B000000190037004B0000B0
:1003100000190000804B024B0000000F004B024B05
:100320000000000F004B024B0000000F0026014BA5
:10033000000080E0060F0017040F0027050F0000E3
:10034000800A081800600080002000400000006063
:1003500000900020000000000000008010002080BD
:100360000000800000200000000040090FA8D69D7A
:100370002BA2AC932A75BB08B3DBB106090F8876B4
:100380009D7A995DCBDA756AD46DD7B101090FB842
:10039000969F6AA274D7ABCFCDBC9D753B2B060749
:1003A000A8D2E9743A2E0407723A9D8E0A06077C99
:1003B0003A9D4E470704079D4BA7A303030788E513
:1003C000030792CC0407B8D2E99C5304077C3A9DFA
:1003D000760E0607DE6EB7DBED76070407A592768C
:1003E000BB5D010607B7DBED76BBDD020407A59216
:1003F0006ABBDD020307F8743A0307759A10040715
:10040000D476BB924A2A0407B7DBAD5452011507D4
:10041000A54E472555552A1595F3D99C2293AA2A0E
:10042000958A4AEA745C95032907522E95AA4A9543
:10043000E272AA9295755452E5B3924AAAAA542A36
:100440006EE552A9544E71399F4E392EA9AA52A970
:10045000A8A4AA64656B4A550A2907D369A9A2937F
:10046000AA9295ADA9F64A4DEF54252BEBB8944BC3
:10047000A5AA52A5B89CAA64651D552A25552A2A05
:10048000E9F24949A94A010E07A54E47E57C36A77E
:10049000C8A44EC75571011307522E95AA4A95E27A
:1004A000522E954AE51497D4E9A8A44AA552394595
:1004B00056390F07A5CB67B3924AAAAA542A2AE94C
:1004C000F249C9553904050E11110E00121F101200
:1004D0001915120A11150A06051F04171515090E1C
:1004E000151508011905030A15150A12150906192B
:1004F00007EA5455AA2AD59129974AA572159972E7
:10050000A9542AA7B8A4AA64656B2AA9AA52A9B8B3
:100510002A2EF4F5F9F6F7F8FBFAFFFCFDFE0002CF
:10052000030401060508090A070B0C0E0F008801D9
:10053000640000001400DC036400000014004B029F
:100540006400000028001704640000001400270560
:1005500064000000140020066400000028000080F1
:10056000150E0210010E0E01130000001B000F01FA
:100570000C0E0005850E81042306618206612405A8
:1005800021C1066182012661240523058202A1247E
:10059000A16121C2210923A104A124A1612409236D
:1005A000A1012281A121C221A16104A1230521C2AF
:1005B000A1012201A124A16104A1230523A10A61B3
:1005C00004A1C221136104A12309A122A10661088B
:1005D000A123A104A1C2A10661A12304A123A10416
:1005E000A122A10661A123012201A101C101A10E45
:1005F00061A1C221012201A123A10E61A1231761E2
:10060000083C00100C030E041709070B0500001B23
:100610000000011B0100021A010F041809060B005B
:10062000E11F1985610561866121052161066185EA
:100630006106612101C103216101C10461056103FA
:10064000C1026125A121612301C1012162032DA104
:1006500021612701610CC1056125C102612203C12D
:1006600021C10322056126C101612202C123C10209
:1006700022056127C1612201C125C1012203C101F7
:1006800061286122A12B614221612107610E610174
:1006900022612102C10222610E610122612861846E
:1006A000612461C1836101226121076102C101618D
:1006B00022C1216121022161C122613261246123B1
:1006C00061001206020A031A090B0E000E0105074B
:1006D00005080509050A050B050C050D050E050F96
:1006E00002011901000618090200000000000000C4
:1006F000000000000000000004444444400404449E
:100700000000000000003000000003400000303115
:10071000111300003444444403444444031034019E
:1007200030003000000031004440310030605300A0
:10073000300000035013000310003000610030044B
:10074000403000013040044434444130133003163B
:10075000311013001000000001310130031111119C
:1007600013001111011111115110031001601343F5
:100770000000400003115110031111111003111159
:100780000111131060100310610013031011011107
:10079000131111100311111113031111011613116B
:1007A000111003100160030310000100031000107A
:1007B0000311111113031151115113106000130093
:1007C0000000131300010060030008030701020684
:1007D0001A0A0500000001000200030004020108DB
:1007E0000113011B0100E11F0EC10B4261440944CA
:1007F0006145E103610421C106210461210183E116
:100800008361852105218561416102C121C10261A8
:1008100002C1032103210661216182022102618359
:100820000121610121012103C10361410361022111
:100830000521016102A1086121C102610321032197
:10084000026109C10161410182614221012101214D
:1008500003612101860121016121610721A1046158
:10086000012101C104210261416103C161230561CC
:100870000221042101C101612461216141876103D9
:10088000210221022261246101610DA2056104613E
:100890000161146104614726442447000F0F020BD5
:1008A0000410040A070014000701140107021402CF
:1008B000070E140E070F140F00001B00090312038C
:1008C000001C2661E10D612963C1E10DC163236252
:1008D0002363C10AC16321A12162C16321A12163F4
:1008E000C106C163236303C1632363C102C16321E2
:1008F000A1216307C16321A1216623630BC1632387
:100900006223630FC163216221630FC163236223EA
:10091000630BC163236621A1216307C16321A12168
:1009200063C102C163236303C1632363C106C1635F
:1009300021A12163016221A12163C10AC163236254
:100940002363C1E10DC1632961E10D6126000C0A39
:100950000318040207010A030D000D010D0214041F
:1009600000050607080A001F1F03611061042661C5
:1009700003618C61042102C101216103610C6104E6
:100980002104216103614622422243214221422166
:1009900042214261218521A123022101C102C10519
:1009A000C1026121016103218201210228A1256187
:1009B00021016121C221C1216121C10121018C617B
:1009C00021016124A12161210221610C61210161C8
:1009D000C103826322612C61266101C1026102614F
:1009E0000C610661220264C12501C101236122015B
:1009F000C101216121C18202622201C10125C1011F
:100A00006101256122C101226134610225000308D0
:100A10000312040A0A160E0418001801180218031B
:100A2000010114030A04100E001FC11861412215B0
:100A3000426241C12201C110C1E142620221C123CF
:100A40000C2762022101210223C1052301C1056295
:100A5000820221C10121022102C10122C1014403FC
:100A60006202260323A12106234162C10F214361B3
:100A70002101C102624489076123C1016203410669
:100A8000C4066102246101C10141C1024A0361013E
:100A9000C14102C161250F61224222618461860940
:100AA000610B610F610B610333000E0B0311011722
:100AB00006010801100000010A0113011B0100904A
:100AC000E110C10A610FC308630EC308630DC209B8
:100AD000620DC201C3056201630288C201C202C283
:100AE0000262016202620B620962066504630863C6
:100AF00005C501640162046401620465066209625D
:100B000004C5066209620465012C612F0C611B613A
:100B10000F3C00090604070115011607060E021B0B
:100B2000001B0101011A0104061408000C2311C165
:100B300004C1024305C103C103612E612C618A0116
:100B40004361176123610289028A614361C10A62BC
:100B500001C10284032607C1612604216101460503
:100B6000C1612302810121042161012603C16127A2
:100B7000C16121042161014601C16127C1226121B6
:100B80000421618501C1612BC161210421610143FF
:100B900001614BC122612101C20121610123016177
:100BA0000B22C16124A12161014301612A61C1229B
:100BB000610661C123C16121C108612C43234A0040
:100BC00001040416020207090E190E0902001100A1
:100BD0001700020111011701020211021702080297
:100BE00015020407190A02110121212121221010E6
:100BF00012011011111101111112122320202101D3
:100C00000000311200000001200300000600000077
:100C10003111151134444443115111111111310096
:100C20000600363126030200212001003111111384
:100C300011321200602000020444310021032032EE
:100C4000221221020044444131600003003001447B
:100C50004444444206113115211300362216012660
:100C6000002001103125020300621221602144435B
:100C700010003100100306206660260020030000EB
:100C8000303444436203121002600013111111301A
:100C900030022443000000200603022222303121CA
:100CA0006603443003011113002001303606116041
:100CB000663443001123000061111111111111302C
:100CC000636111111111110408030A091A09020ABA
:100CD000021B001B0100000C0107081809001C88FA
:100CE0000121610CC102C1E103C121C10261216185
:100CF00021412141214121412141A1412141214164
:100D00002102C1210121C10161216104C103C1028C
:100D10008601C1210321C16122412141214121419B
:100D200021412161072105A161214B610E618A6189
:100D300023A12361136121066102C102C10D61215A
:100D40000662276103C102C103612101C102C10121
:100D50006202C102C10161214121412141214121A0
:100D60004121422141A1412162276126C10123077E
:100D70006202C101C10261280122076227612901C3
:100D800021076203C101C101612A02C102C10261DE
:100D90003C000D0E04020E060E160E1A0E0409007B
:100DA0001200090F120F00001B000A0E110E00079F
:100DB00082E1098204820226C18161286181C12405
:100DC000C1810227C1612861C126C1022861286151
:100DD0002802230124612305612303220223022325
:100DE0006123C3026123C3820223022361260261BD
:100DF00026C18102230223612602610126C102234A
:100E00000223612602610226022301C12361230518
:100E10006105230223C1246123C56122C323022863
:100E200061286122A1250227016128610121A124F5
:100E300003260261286102A1230C6108610929E1EE
:100E4000236223E129001A020604030A0315081885
:100E50000B040E130E040000000112060A0E050317
:100E60000C031604170E00E11F182F6122196122CE
:100E7000A1214761C1026B01610B6121C1016102C6
:100E800068016101C101C101C125610121C1610286
:100E90006108610121E1210126610221610261C134
:100EA00001C101C101C10261012108610321C10128
:100EB0006121A121A121A121016106A101C101C1DD
:100EC00061042101610961042161246106610161FC
:100ED00001610161026106610B61096105610C61DB
:100EE000016101610361062561086101610161031E
:100EF000610A6109C1E12103610B613C000A04033D
:100F0000100102030A08031A021409150908001641
:100F10000101030906001546618E0D620C6147014F
:100F200061210161E1216102614161076185610126
:100F300021610121610245614161410A6102220290
:100F400021A1618461016121A12343012261012268
:100F5000610221A161046101612101C12103C10379
:100F600061012101612182A16106612102C1240187
:100F7000426101C16121C101C261066121022503F3
:100F80006101216121032161A1C105210125C10167
:100F90004261E1E161216123610121052101C12556
:100FA00001C10161022101612201610221042101CB
:100FB0002601614161012361012261032103216155
:100FC00001C121C1012101610161022101612101F0
:100FD000C1610421036126016141610121012201F6
:100FE000226107210A61082243294421412143212A
:100FF00043000E0B03020319030D0B030C000D003D
:101000000E0003030B0310031803001F08641A6289
:1010100019640C8B6696668B018A668A04886688DA
:10102000088666860D83668308C101C101C101C1BE
:1010300001C1026602C101C101C101C101C10B624E
:1010400002620B2B622262366222622B01C101C155
:1010500001C101C10461026104C101C101C101C139
:10106000013C0002060404010D09190A0B0E0A14C2
:1010700000150018001B001B011B021B031B041B97
:10108000051B0603010E09180A020E00064187021D
:10109000830322E103C104C14186C12203622262AB
:1010A000032361224105C12203622262C10661025B
:1010B0004104C12203622262C10142E1C102610115
:1010C000C14103C12203622262C1014202236122A3
:1010D0004102C12203622262C10142066102410152
:1010E000C12203622262C1014201C2E1236101C146
:1010F00041C12203622262C10142016122012361D6
:1011000022412203622262C101420261C20121C165
:101110002161024101C102620262C10142016124F6
:1011200001236101C1412B61410261C102C101C1C1
:10113000226122418B614101612501236101C1418D
:10114000C101C1026106410161C103C10121462300
:101150000261012401410161250D6122C222410188
:1011600061C103C1012C4126410127001B0604086F
:10117000001200080E120E06000001000900110006
:1011800019001A0002001800080C120C02000111CC
:1011900011002220222001111100023233060332F5
:1011A00033333332330603323363231313230113F0
:1011B00011032313132361103233323010333010F4
:1011C000323332301301332323310300030133233D
:1011D0002331003103333301301110310333330134
:1011E0003131300000313106013130000031303111
:1011F0000333330130111031033333013101332311
:1012000023310300030133232331005032333230C2
:10121000103330103233323013032313132361138E
:101220001163231313236132330603323333333212
:101230003306033233230111110322232223011128
:10124000110322230306030322333223030603037D
:1012500022230313130332333233031313032232D3
:1012600032333232333333323233323233000303E8
:1012700014070E0A060F0F1B001B010F021B020FA3
:10128000031B030F041B040F051B050F061B060F92
:10129000070F081B0901030D030E031903021111A7
:1012A00011111111000011111122111014444444A4
:1012B00044444444444444011010103111111111AC
:1012C0003000144444344440003636666000300038
:1012D0001600663000601131111121113000111318
:1012E0001115131010333330200630001603444418
:1012F000430016002630066130001203022203600C
:101300001111111511113000160300066323100688
:10131000266020013000111111311113100222201A
:101320002001344316000030066010666066260116
:101330003603126000301113131115111131111100
:101340001111311111131344444444311104444424
:10135000342044431306006660300630606030235A
:101360006061113113213111513112151111131115
:1013700006366300300000300000000663660C0093
:1013800002010E1A0E0200001B00010204021702E5
:101390001A0200E189078AE16104840127028404BA
:1013A000620483012A018304620482012C01820405
:1013B0006204810125C425018104620481012E019A
:1013C000810462053005620522C424C42205620539
:1013D0003005620526C4260562062E0662048101D8
:1013E0002E0181046204810221C422C421028104ED
:1013F000620482022A0282046201C383C1022602BD
:101400006183C301612961C8612900120A030E03C7
:10141000050A120C040C000C010C020C030202154C
:1014200003060A190B022222222222220002220093
:10143000000002121111111211220001120000000D
:101440000121000600121212000212000000010029
:101450003211151000020000120000006106311167
:10146000100044443112125111113203310610445C
:101470004212310000521111310331114440021265
:10148000314444521111321331144400000032002F
:101490000006011231133144600011213100005166
:1014A0001221311334401444444430004444401168
:1014B000301300021000600235112000600031136B
:1014C0001151211021123511221221200003115136
:1014D0002000000235000000602111111151244448
:1014E00044443511001111200601110000060002CC
:1014F00030000000000111111211112113003003FE
:101500001112111111111401040E010609170B110A
:101510000C0F1B001B011B021B031B041B051B06DE
:101520001B071B081B091B0A1B0B1B0C1B0D1B0E8F
:1015300003011101190105080211112211111111E4
:1015400011111111111110106002000006000000AD
:101550000000000010131302151311111151111185
:101560001110101311301513311644444444600017
:1015700010130113051133116000600611301013B0
:101580000011301113311600006110313013300199
:10159000130113331160061100333013336013301D
:1015A00013133110011001331013333003130311DF
:1015B0003315110013331016333303113311133560
:1015C0001003336310133600330113011135061372
:1015D00033311011131111601130113001333033D8
:1015E00010133333333001330330333600331013E9
:1015F000033060030031333133111113101603131C
:10160000111130000033360000030011111333367E
:10161000311111331111111111130E030C000505B5
:10162000040E0F1B001B011B021B031B041B051BCD
:10163000061B071B081B091B0A1B0B1B0C1B0D1B86
:101640000E0F0015000201030E001F01C111C1079A
:10165000612361042261220461236104612101C1CB
:10166000012162226522622101C101216102216101
:10167000256122672161266121E10964C1640A298B
:101680006929E10122C122032167210222C1220529
:101690002305216521042307210721632106211148
:1016A0002161211921612119216121192161211A49
:1016B000610E3C00050B05000B110B1B0B170F19DE
:1016C0000F051700180C180D180E180F0001060151
:1016D0000C0112010097E106C104C105C105C10357
:1016E00061042402240223A10222A121016109C173
:1016F00004C106C1056104210221A1220222A12107
:1017000002A1230221016105C106C103C106C10373
:1017100061042402240223A10222A121016108C143
:1017200005C105C1066104210222A1210221A122D5
:1017300002A1230221016106C105C105C104C10343
:1017400061042402240223A10222A12101611B6160
:101750000438E13BE13905370521000B0E03060390
:10176000040A1A0C010D000101050310031A0300FD
:10177000890B850C61046104610B866101C1036101
:1017800003610A6101C10423036104610961012449
:1017900006610183026101C28203610A6103C10320
:1017A00061014205618403C101610441026106C116
:1017B0000761012201610661072107610561054397
:1017C0002341220761066101820DC101C101610748
:1017D0006109410141022401618403610347014120
:1017E000C108C2036101C106C101C1014208220250
:1017F00061022102290D610E254329432800030EB1
:1018000004010203050E0E190E0200001B000E015A
:1018100003021902010501E1622102632102632131
:101820000321022102210221022102C12101C12141
:1018300001C12101C1210221032102210221022132
:10184000022103632102632102210F21016E210184
:1018500029C12501C125C124C1230123C124C124DB
:10186000C121012DC121016E210381038103810367
:101870002103810381038103210381038103810308
:1018800021038103810381032103810381038103F8
:1018900021016E210126C1280123C123C124C122B7
:1018A00001C128C1250122C128C123016E210F21B8
:1018B0000363210263210221032101C12101C1210E
:1018C0000221022102C1210221022101C1210221A2
:1018D000E16221026321026321001B07B22E954AB7
:1018E000653BAD5D369D7754D265D3F9E894AB4A3C
:1018F00055A5AA721D977255A9AA5455AE03100793
:10190000B22E954A65E3723EA77CCA9129974AA5F3
:1019100052A99C220210079C72A9542A95CA292E0A
:10192000E9B2E9BCE352AE2A5595AACA75D5F08D45
:1019300014A1C881CFD9F1AF20005717A38B2E2E49
:1019400047175D74D145175D74D145175D721F5DF2
:1019500074D145175D74D145175D749129BAE8A219
:101960008B2EBAE8A28B2EBAE8A28B2EBAE8A28BF5
:101970002EB98F2EB4499D4EC7A55C2A954AA572F3
:101980008A2E5795AA4A55E51C9772A9542A954A5A
:10199000491449974DE71D977255A9AA5455EEA2CF
:1019A0004AE52A9BAD5C2A2AE752A9543624DDD7A2
:1019B000575595AA2A3559AE2A5595AACA392AA942
:1019C000F2CAA525977255A9AA5455AEA35485AC61
:1019D000E8A28B2EBAE8A28B2EBAE8A28B2EBAE828
:1019E000A28B2EBAE8A28B2EBAE8A28B2EBAE8A25E
:1019F0008B2EBAE8A28B2EBAE8A28B2EBAE8A28B65
:101A00002EBAE8A28B2E32591FA38B2EA764E7D2E1
:101A10009DDCE7D28E2EB66D7ABAD8B6E9E962DBE4
:101A2000A6A78B6D9B9E2EBAE862DBA6A78B6D9B4B
:101A30009E2E9B9E6D9BCFA6B7E9E972694717DB87
:101A4000363D5D4EE96D3EBA6C7A9B8F2E743997A8
:101A50004EC79C733A2E652B59C9CA756CD94A5624
:101A6000B2728EAB9395AC64652353B69295AC5C21
:101A7000872BE5D3E95CC7A57C3A9D53648E4B91D7
:101A8000392E2BD3E99CE2CB391D97B295AC64E596
:101A90003A2EE5D3D9C894AD64252BD7416FF7B55D
:101AA000AB4AA952A9C97255A9AA5455CE51499514
:101AB000572E2DB994AB4A55A5AA721D2C1B5D74E7
:101AC000D145175D74D145175D74D1C594EB742E63
:101AD000BAE8A28B2EBAE8A28B2EBAE8A28B2EBA55
:101AE000E8A28B2EBAE8A28B2EBAE8A28B2EBAE817
:101AF000A28B2EBAE8A28B090A1000000000000099
:101B00000000000000000000000000000000EFEFF7
:101B1000E0EFEFEFEF0FEFEF010101010101010035
:101B20000101FFFFFFFFFFFFFFFFFF0001010101B8
:101B30000101010101000000FF42424242FF00009A
:101B40000000030000000003000002020202020283
:101B50000202020200000000000000000000EFAFDF
:101B6000E06FEFEFED0FEBEF01010101010101006B
:101B700001010000B0B000B0B000000000000101A1
:101B8000000101000000EFEFE0EEEEEEEE0EEFEFF1
:101B900001010101010101000101EEECE0E8E8EAC8
:101BA000E808ECEE01010101010101000101ECE096
:101BB000C0C088808000E0EC01010101010101004A
:101BC0000101E08000000800010086E00101010140
:101BD0000101010001010000000000000000000000
:101BE00000000000000000000000E0808000000015
:101BF000000080E001010101010101000101ECE0B0
:101C0000C0808080C000E0EC010101010101010001
:101C10000101EFECE0E8E8E8E80CECEF010101017C
:101C2000010101000101EFEFE0EEEEEEEE0FEFEF4C
:101C3000010101010101010001013F0FA5AA646535
:101C40006B2AA9AA52A9B83A5595AA4A755CCEA79B
:101C5000538E4BBA7C362BA9A4AA4AA5E2562E95E0
:101C6000AA4A95E272AA92957554D2E5B3594925CC
:101C700055552A15D2A5AA64656B2AA9AA52A9B8F6
:101C80003A5595AA4A755CE9B454F13955C9CA3A2E
:101C90002AA92A59D99A2A9D962A7EE552A9AA5498
:101CA000292EA72A595947255D3E9B95545255A583
:101CB0005221122C07EA5455AA2AD571A5D352C530
:101CC000E754252BEBA8A4AA64656BAA745AAAF85A
:101CD000954BA5AA52A5B89CAA64651D9554F9AC6C
:101CE000A492AA2A954A010207A5533609E0061EC6
:101CF0000000000A00E0061E000080080B0002023F
:101D00000201000904000001020200000524001085
:101D1000010524010101042402060524060001072F
:101D200005810310004009040100020A00000007B9
:101D30000502024000000705830240000004030979
:101D40000412010002EF020140412336800001012C
:101D500002030141726475696E6F204C4C4300416F
:101D6000726475626F790020066400000014002719
:101D70000564000000140017046400000028004BF4
:101D800002640000001400DC0364000000140088FA
:101D900001640000002800008000CA2D11241FBE2D
:101DA000CFEFDAE0DEBFCDBF11E0A0E0B1E0E0E4CC
:101DB000FFE502C005900D92A03AB107D9F727E0E0
:101DC000A0EAB1E001C01D92AD3EB207E1F71EE00E
:101DD000CEECDEE004C02197FE010E94932FCD3CA3
:101DE000D107C9F70E9452290C949E2F0C94000031
:101DF0002F923F924F925F926F927F928F929F921B
:101E0000AF92BF92CF92DF92EF92FF920F931F9308
:101E1000CF93DF93CDB7DEB72D970FB6F894DEBF23
:101E20000FBECDBF8091BD0190E02091C6013091E1
:101E3000C701821B930B05962AE030E0B9010E948E
:101E4000162E162F6D878091BE0190E04091C8013B
:101E50005091C901841B950B0596B9010E94162E5D
:101E60007B016C8780910001853091F08091720731
:101E7000909173076CE070E00E942A2E892B09F084
:101E8000F6C39091A00181E089278093A001EFC360
:101E9000812F0E943C26082FD0907407C0907507B0
:101EA000C094CD201092BF011092CA018091C4014C
:101EB0008B3021F01092C0011092CB016E2D812F3A
:101EC0000E943C26863079F58091C1019091C20133
:101ED00049969093C2018093C10140E06E2D812FFD
:101EE0000E9463268091AD02882319F0815080936F
:101EF000AD028091AD02811112C0B12C8091AE0271
:101F0000B81668F4EB2DF0E0EE0FFF1FE055FD4F23
:101F100043E0618180810E946326B394EFCF83E325
:101F200093E00E948C1D8091A1019D2D9C709C309E
:101F300061F58F5F8093A1018531B0F18D3390F011
:101F40008D3391F51092A10183E884BD8FEF87BD99
:101F500081EF809380001092880010928A000E9486
:101F60003F2918C320E430E0A901481B5109CA01E8
:101F7000880F93E894BD9FEF97BD91EF90938000F9
:101F80001092880080938A000FC0882369F083E84C
:101F900084BD8FEF87BD81EF809380001092880011
:101FA00010928A001092A1018C2D84709C2D987043
:101FB000C3FE2DC081112BC00E94CD1E882309F4C1
:101FC00054C08091BD0190E02091C6013091C701BD
:101FD000821B930B02966AE070E00E94162E162F69
:101FE000CC24CA94C60E6E2D8C2D0E943C26A82EA1
:101FF000BB24B394BE0C6B2D8C2D0E943C268130EB
:10200000A1F58FEF8A0D823008F094C22EC088238C
:1020100061F191112AC00E94CD1E882331F1809177
:10202000BD0190E02091C6013091C701821B930B46
:1020300002966AE070E00E94162E162FCC24C394FC
:10204000C60E6E2D8C2D0E943C26A82EBB24B39468
:10205000BE0C6B2D8C2D0E943C26813031F48FEF0D
:102060008A0D823010F00C948918D6FECAC06E2DED
:10207000812F0E943C26082F8091BD0190E0209185
:10208000C6013091C701821B930B6AE070E00E9489
:10209000162E6C01892B19F481E0810F01C0812F6C
:1020A0006E2D0E943C26282E552453945E0CC1149C
:1020B000D10419F481E0810F01C0812F652D0E94A8
:1020C0003C26482EC114D10419F08FEF810F01C0B6
:1020D000812F652D0E943C26382E822D0E94772864
:1020E000682E470199245FEF851A950AA12EB12C1D
:1020F000A401B501832D0E94BB25782E0E94CD1E20
:102100009091C4019B3089F4882311F40C94561BE0
:102110007110C1C064E0261621F0043011F00C9457
:10212000561B68E087E00C94F0180E941F27882354
:1021300041F08DEF800F823010F00C94A2180C94B7
:102140009018C114D10419F481E0810F01C0812FCE
:102150006E2D0E943C26782EC114D10419F481E022
:10216000810F01C0812F652D0E943C26682E62E000
:102170006E0DC114D10419F481E0810F01C0812FCB
:102180000E943C26482E862D0E947728682E872D97
:102190000E947728882311F40C94F318662011F418
:1021A0000C94F31835018FEF681A780AA401B30173
:1021B000842D0E94BB25882311F40C94E51864E05B
:1021C00081E00E94E01E1092C4018091C8019AE053
:1021D000E99E800D11248093BE018091BD018C3356
:1021E00010F482E0C2C02091C6013091C7012936A7
:1021F0003F4F24F01092BF018EEFC3C087FFF1CF95
:102200008AC1D5FEC4C06E2D812F0E943C26082FA6
:102210008091BD0190E02091C6013091C701821BE1
:10222000930B6AE070E00E94162E4C01892B19F482
:102230008FEF810F01C0812F6E2D0E943C26382E1A
:10224000772473947E0C8114910419F081E0810F3E
:1022500001C0812F672D0E943C26482E832D0E94AD
:102260007728582E5701BB24BFEFAB1ABB0AC12EEB
:10227000D12CA501B601842D0E94BB25682E0E9499
:10228000CD1E9091C4019B30B9F4882311F40C94B5
:10229000561B662031F01092C4010E94741C0C94ED
:1022A0007E1BE4E03E1621F0043011F00C94561B26
:1022B00069EF86EF0C944B190E941F27882331F099
:1022C0008DEF800F823008F0ADC7B7C7811491043D
:1022D00019F48FEF810F01C0812F6E2D0E943C26D3
:1022E000082F8114910419F48FEF810F01C0812F01
:1022F000672D0E943C26782E62E06E0D81149104B9
:1023000019F48FEF810F01C0812F0E943C26182FF6
:10231000872D0E947728782E802F0E947728882387
:1023200011F40C947E1B772011F40C947E1BF1E0C9
:10233000CF1AD108A501B601812F0E94BB258823A1
:1023400009F49DC76FEF8CEF0E94E01E1092C4014C
:102350008091C8012AE0E29E800D11248093BE0185
:102360008091BD018D3320F08EEF8093BF01D1C0ED
:102370002091C6013091C70137FF06C01092BF01FE
:1023800082E08093CA01C7C08111EECFC4C0D7FEDE
:1023900085C08091BE0190E02091C8013091C901B3
:1023A000821B930B08966AE070E00E94162E7B0158
:1023B000B62E0E94CD1ED82E882319F06FEF6E0D19
:1023C00001C06E2D812F0E943C26C82EDD2019F001
:1023D000BB24B394BE0C6B2D812F0E943C269091A0
:1023E000C4019530A4F0973044F09B3081F4043060
:1023F00009F068C7D11062C765C7DD2061F10330FD
:1024000009F083C08FEF8C0D823028F57EC00E94CA
:10241000741C8091BD0190E02091C6013091C701EC
:10242000821B930B2AE030E0B9010E94162E863001
:1024300020F0A901481B5109CA0105970CF067C09B
:10244000033009F064C08FEF8C0D823008F45FC058
:1024500085E08093C4018091C6015AE0159F800DEC
:1024600011248093BD011092BF011092CA01809186
:10247000BE01883120F08EEF8093C0014EC02091C4
:10248000C8013091C90137FF06C01092C00182E037
:102490008093CB017FC08111EECF7CC0D4FE40C0C1
:1024A0008091BE0190E02091C8013091C901821B4A
:1024B000930B08966AE070E00E94162E7B01D62EE0
:1024C0000E94CD1EC82E811104C76FEF6E0D812FA3
:1024D0000E943C26B82ECC2019F0DD24D394DE0CCB
:1024E0006D2D812F0E943C26D82E8091C4018B3007
:1024F00009F059C6043009F4DFC6CC2009F401C73D
:1025000084EF8B0D843008F0FCC60E94741C10927E
:10251000BF011092CA011092C0011092CB013AC0C3
:102520008091C001823009F4BBCF8091CB018E3FF6
:1025300089F5B6CF53E0A51609F497CD84EF8093C3
:10254000C4011092BF011092CA0147E06B2D8C2D7F
:102550000E94632680916E07843181F0E82FF0E0BD
:102560009F01220F331FE20FF31FEE5CF84FC08272
:10257000B1829CED92838F5F80936E078091740788
:10258000809375070E94AA1E8093740785E193E0EB
:102590000E948C1D8091720780FD68CC1092DD0234
:1025A0001092EB021092F902109207031092150399
:1025B000109223038CED682E82E0782EF301808147
:1025C00084FF4BC0828193816AE070E00E942A2ED2
:1025D000D62E6887848195816AE070E00E942A2E59
:1025E000F62E69878D2D0E943C26B82ECC24C394EC
:1025F000CF0C6C2D8D2D0E943C26982EF6E0BF123C
:1026000006C0D30118968C91882309F487C6F3017C
:1026100082858D3014F5228133813B872A87C90159
:102620006AE070E00E942A2E892BB9F4048115819A
:10263000C8016AE070E00E942A2E892B71F4E384BD
:10264000EE2009F48BC6D30118968C9181117DC6BA
:10265000F3011782838581508387BEE06B0E711C66
:10266000E0E36E16E3E07E0609F0A8CFFFCB809191
:1026700000018850833030F480910001833009F0EC
:10268000C9C1CDC1C12CD12C812C712CA12CB12C54
:10269000E090C601F090C701EA0CFB1CC701099647
:1026A0008938910528F50091C8011091C9010C0DD8
:1026B0001D1DC801099689349105D0F4682D872D18
:1026C0000E943C26982E882339F0282F48EF5AE1A3
:1026D000B801C7010E949F1D29EF290D243040F445
:1026E000B8016A50710941E453E0C7010E949F1D7F
:1026F0007394FAE0AF0EB11C2CE17212C9CF83942F
:102700003AE0C30ED11C40E18412BFCF809100019A
:10271000853021F08091A0018823F1F08091C401DF
:10272000082F001F0027001F082E000C990B97FF91
:1027300003C0919581959109880F990BFC01E35E87
:10274000FE4F408151816091BE0170E08091BD01DA
:1027500021E090E00E946A241CEDA12E12E0B12E2F
:102760007501D7018C9184FFADC012960D911C911B
:1027700013976090C6017090C7014301800E911EAF
:1027800014968D919C911597C090C801D090C90165
:10279000C80ED91E1B96EC914E2F50E043315105C7
:1027A00008F088C0FA01EA5AFF4F0C94932FF70102
:1027B0008285082F001F0027001F082E000C990B90
:1027C00097FF03C0919581959109880F990BFC01A2
:1027D000E35EFE4F4081518170C0F1E08F1A910895
:1027E00069C02FEF821A920A65C032E0C31AD1087D
:1027F000FCC644E0C41AD10807C056E0C51AD10887
:10280000F4C668E0C61AD10800E04BE653E055C0B4
:10281000AAE0CA1AD1089C012A503109F701358370
:1028200024831386C8016AE070E00E942A2E262EB7
:10283000C9016AE070E00E942A2E462E55245A945F
:10284000520C852D0E943C268F8333243394340C04
:10285000632D852D0E943C26888755245394520C65
:10286000642D852D0E943C26482E632D852D0E94C7
:102870003C26582E8091BD0190E08619970980175B
:10288000910764F48F810E947728882309F4A5C6F4
:1028900088850E948028811197C69FC6842D0E943A
:1028A0007728882309F490C6852D0E9480288111FD
:1028B00094C68AC600E04DE853E021E0B601C401A9
:1028C0000E946A24FEE0EF0EF11C20E3E21623E0F2
:1028D000F20609F046CF4090BD01512C8091C6010F
:1028E0009091C701481A590A6090BE01712C8091DD
:1028F000C8019091C901681A790AD5018C9184FFA9
:102900007FC012968D919C911397F201E81BF90BF1
:1029100014962D913C911597A301421B530B9A01DC
:10292000C090BE014C2D50E0421B530BE090BD0106
:10293000473F6FEF5607C4F42E2D30E02E1B3F0BA0
:102940002F3FAFEF3A070CF454C62C3731050CF08B
:1029500058C6E394EE1A8E2DBDEA8B2EB3E09B2E63
:1029600043EE53E090E03AC045335105C4F02E2DBC
:1029700030E02E1B3F0B2F3FBFEF3B070CF449C647
:102980002C3731050CF04EC6E394EE1A8E2DAEE9CD
:102990008A2EA3E09A2E42ED53E093E31FC0F12C60
:1029A000EE1AFF0AECEFEE16EFEFFE064CF49C2D4C
:1029B000921BF0EC8F2EF3E09F2E49EF53E030C6D0
:1029C000FCE7EF16F104E4F09C2D921BECEB8E2E4D
:1029D000E3E09E2E44EF53E08CE702C08F3F81F08E
:1029E000C92ED12CE82EF12C00E020E0B601C70161
:1029F0000E946A2421E0A401B601C7010E946A2452
:102A00002EE0A20EB11C30E3A31633E0B30609F0AA
:102A100074CF32CE873049F48091C50101C084E083
:102A20008093000100E010E067C098EF980F9330AA
:102A3000C8F78A3069F400E021E049E554E069E133
:102A400070E08AE290E00E946A2409E210E03BC054
:102A5000883029F400E021E048E254E02FC01091D2
:102A6000AC02812F64E60E94872F082F282F45ECA7
:102A700054E069E170E088E490E00E949F1D812F9E
:102A800044E6049F801911246AE00E94872F192FC1
:102A9000282F45EC54E069E170E08DE490E00E945D
:102AA0009F1D212F45EC54E069E170E082E590E044
:102AB0000E949F1D00E021E04EE054E069E170E0DB
:102AC0008BE290E0C0CF41E066E170E0C8010E9477
:102AD000B21E0E5F1F4F09351105A9F709E210E07C
:102AE00041E060E270E0C8010E94B21E0E5F1F4F1D
:102AF00009351105A9F796CF77E3E72EF12C40E0D1
:102B0000B701C8010E94B21E5FEFE51AF50A60E442
:102B1000E616F104A1F70F5F1F4F0038110561F7AA
:102B200000E010E041E068E370E0C8010E94B21EDE
:102B30000E5F1F4F02381105A9F78091C1019091D6
:102B4000C201FE01319626E0DF011D922A95E9F7C8
:102B50007F019E01295F3F4F0AE010E0B8010E940B
:102B60002A2E8193CB012E173F07C1F700E021E009
:102B70004FEE54E06AE370E080E090E00E946A2447
:102B800006E310E0F70121917F0145EC54E06AE390
:102B900070E0C8010E949F1D055011090831110500
:102BA00089F7F090C30100E021E042EB54E06AE3D2
:102BB00070E080E490E00E946A241AE08F2D612F7B
:102BC0000E94872F092F282F45EC54E06AE370E01C
:102BD00082E590E00E949F1D202F45EC54E06AE3BF
:102BE00070E087E590E00E949F1D80910001853094
:102BF00071F4F090AD0200E021E047E954E06AE3AF
:102C000070E080E690E00E946A248F2D1DC0F09055
:102C1000AC0200E021E047E854E06AE370E080E6BF
:102C200090E00E946A2464E670E08F2D90E00E949C
:102C3000162E262F082F45EC54E06AE370E081E75A
:102C400090E00E949F1D802F612F0E94872F192FD7
:102C5000282F45EC54E06AE370E086E790E00E949C
:102C60009F1D212F45EC54E06AE370E08BE790E074
:102C70000E949F1D20910001253009F0C1C1809163
:102C800072079091730780FD1CC02091BF01211134
:102C90000CC02091C001211108C02091CA0121114E
:102CA00004C02091CB01222361F02091C401ECE00B
:102CB000E20FEC3120F4F0E0EE5EFA4F2491209325
:102CC000C40183709927892B09F445C02091BF0165
:102CD0008091BD01280F2093BD011091C00180910A
:102CE000BE01180F1093BE018091CA01E090C60189
:102CF000F090C701E80EF11C87FDFA94F092C7012D
:102D0000E092C6018091CB014091C8015091C90168
:102D1000480F511D87FD5A955093C9014093C80132
:102D2000812F90E0841B950B0596EAE0F0E0BF014F
:102D30000E94162E362F822F90E08E199F0905963D
:102D4000BF010E94162E862F632F0E943C26123050
:102D500008F053C01DC0ACEDB2E080E393E02C91CD
:102D600024FF11C01B962C911B97222309F463C4E6
:102D70000AC016962C911697211167C417962C91AC
:102D80001797211162C41E968A179B0741F79ECFA1
:102D9000833099F51091AC021F5F8091C3018A3096
:102DA00018F48F5F8093C30186E080930001109335
:102DB000AC02612F82EB90E00E94EE2E1E3708F4E9
:102DC00053C481EB90E00E94E02E873008F04AC4A3
:102DD00011E0180F612F81EB90E00E94EE2E612F21
:102DE00086EB90E00E94EE2E0E949B2681E180936C
:102DF000C5018EE295E00E948C1D8091720780FFD4
:102E000009C080916E07882309F464C1F12C6DE03C
:102E1000E62E86C00CED12E0D8018C9184FF54C0E0
:102E200016968C91169712964D915C911397480FB8
:102E3000511D87FD5A9513965C934E9312971796E2
:102E40008C91179714962D913C911597F901E80FE5
:102E5000F11D87FDFA951596FC93EE93149720913A
:102E6000BD0130E08091C6019091C701281B390B4C
:102E70008091BE01A091C801B091C901790162E0C1
:102E8000E60EF11CBA01685F7F4FE616F706E4F420
:102E90004E5F5F4FB901685F7F4F46175707A4F435
:102EA00090E08A1B9B0BAC014E5F5F4F9F01285F38
:102EB0003F4F4217530744F426503109089628170C
:102EC000390714F40E943F29025F1F4F83E000334B
:102ED000180709F0A1CF10E000E0612F802F0E94B9
:102EE0003C2699EF980F943030F441E0480F612F61
:102EF000802F0E9463260F5F0C3179F71F5F10311E
:102F000059F77FCF0F2D10E06801CC0CDD1CF601C6
:102F1000E00FF11FEE5CF84F8281811106C0F3943F
:102F200080916E07F81670F366C0815082838031FD
:102F300079F030F4813071F0883089F74FE04FC07C
:102F4000883121F0803259F74CE049C04DE047C04C
:102F50004EE045C08091AF0290E0880F991F8C52DF
:102F60009D4FACEDB2E05F01AF014F5F5F4F2C9121
:102F700024FF1BC0F5012081FAE02F9F900111244E
:102F800012966D917C9113976217730771F4FA0191
:102F90002081FAE02F9F9001112414966D917C916D
:102FA00015976217730709F461C31E9623E0A033D7
:102FB000B207E9F6F601E00FF11FEE5CF84F8081F1
:102FC0003D85831306C081814C85841302C00E9415
:102FD0003F290C0D1D1DF801EE5CF84F41E06181A9
:102FE00080810E9463269BCF0E94392780916E07C3
:102FF000882309F46FC0809134078130A9F36AC037
:10300000309174079091750790959323243009F0BF
:1030100044C08091A20132FF32C08E3268F48932FE
:10302000D0F083E884BD8FEF87BD81EF809380006F
:1030300080E4809388000BC0833388F483E884BDE8
:103040008FEF87BD81EF80938000109288001092EF
:103050008A008091A2018F5F8093A2013BC0809182
:10306000AC0297FF04C08D3710F48F5F05C094FF4A
:1030700031C0863678F181508093AC022BC0882312
:1030800071F0833300F1883218F082E08093000100
:103090001092A201911117C01DC01092A201992394
:1030A000C9F02B3040F4293048F4273049F028305B
:1030B00051F481E00DC0213169F005C082E008C003
:1030C0008091C50105C0109275071092740785E0C4
:1030D000809300018091A101811112C38091A2010E
:1030E00081110EC38091AD02811106C09091000143
:1030F000953019F480E201C080E093E894BD80959A
:1031000087BD81EF809380001092880010928A0022
:10311000F7C263E0A61611F40C9435108CE00FCAC8
:10312000662009F4EBC2772019F064E081E004C066
:10313000043029F46AE087E00E94E01E46C866E099
:1031400085E0FACFC114D10441F4A401B501832D67
:103150000E94E125811183C0ABC2611003C07110D0
:103160008BC00AC0A401B5016F5F7F4F842D0E9400
:10317000BB258111DACF03C0CD2809F4BFC2B50148
:103180006F5F7F4FA401842D0E94E1258111CDCF77
:103190001092BF011092CA01882309F4BCC98BE0C8
:1031A0008093C4010FC063E0D61295C08091C60120
:1031B0009AE0199F800D11248093BD016BEF8AEF77
:1031C0000E94E01E0E94E91EE5C9CD2879F4A40101
:1031D000B301842D0E94E1258823D1F266E085E0C9
:1031E0000E94E01E1BC0CD2809F488C2652D812FE6
:1031F0000E943C26182F802F0E947728882309F4EC
:103200007DC2B5016F5F7F4FA401812F0E94E12530
:10321000882309F4BDCF8BE08093C4010E94741C05
:103220000C94E5108114910411F5A501B601842DCB
:103230000E94E125811113C05EC2552009F45EC2CF
:10324000662019F06FEF8CEF04C0043029F469EFA9
:1032500086EF0E94E01E7CC866E085E0FACF8BE036
:103260008093C40183EC91E00E948C1D1FC2511019
:1032700024C2662009F41FC21092C4013FC28928EB
:1032800069F4A501B601812F0E94E125882309F484
:103290007FCF66E085E00E94E01E0BC0A501B6016D
:1032A000812F0E94E125882309F472CF8BE080935F
:1032B000C4010E94741C4CC8CC2019F187E0809393
:1032C000C40123C9A70155274F5F5F4F612F70E0ED
:1032D0001FC06E2DFCC88D2D0E947728811103C060
:1032E0001092C40112C9D11003C08BE08093C401B5
:1032F0008091C601AAE01A9F800D11248093BD0120
:1033000061CFA70155274F5F5F4F612F70E08D2D73
:103310000E94BB25882309F455CFE2CF0E94892E55
:103320000E94892E2AE030E040E050E00E94242FE5
:10333000DC01CB014496A11DB11DF301808740E063
:103340006F2D8D2D0E94632662C9FA946F2D8D2DED
:103350000E943C26882309F42FC17AC96FEF6F0DB4
:103360008D2D0E943C268F836F2DAA24A394AD0C33
:103370008A2D0E943C26582E6C2D8A2D0E943C26B8
:10338000482E6C2DCC24CA94CD0C8C2D0E943C264A
:10339000382E6F2D8C2D0E943C26282E8091BD0149
:1033A00090E02091C6013091C701821B930B2A85C2
:1033B0003B85281B390BC9012091BE0130E04091AB
:1033C000C8015091C901241B350B021B130BD301FB
:1033D00019962C9119972223D1F01F922F923F9288
:1033E000892CA42CC52CEF800B2D1D962C914F2DD4
:1033F0006D2DC3010E94031FF301918591509187A8
:103400000F900F900F90811128C9148561C097FF0C
:103410001FC0101611065CF491958195910908174B
:103420001907C4F180179107BCF511E046C00115DA
:103430001105A1F1919581959109119501951109B8
:10344000801791076CF10817190764F515E035C06E
:103450000097C9F01016110644F40817190724F153
:10346000801791071CF51FE028C00115110501F117
:1034700011950195110980179107E4F008171907B4
:10348000DCF41BE01AC0111F1127111F110F110FBF
:10349000110F13C013E011C012E00FC014E00DC0F3
:1034A00017E00BC016E009C01DE007C01EE005C014
:1034B0001CE003C019E001C01AE0EDEFE10FEC30B1
:1034C00020F4F0E0EF5EFE4FE080D3011D96EC9219
:1034D000F3018085882389F09FEF990D923068F47D
:1034E000B1100BC08150D30118968C93811105C087
:1034F00046E06F2D8D2D0E946326B1E0BF932F9281
:103500003F92892CA42CC52CEF800B2D212F4F2D01
:103510006D2DC3010E94031F0F900F900F9081111A
:103520009CC8F12E08E0D02E112311F0115001C0DB
:103530001FE0E1E0EF932F923F92892CA42CC52C41
:10354000EF800B2D212F49856885C3010E94031F41
:103550000F900F900F90882339F0D3011A968C9119
:103560008B3009F07AC81EC0BFE0FB1611F0F3944F
:1035700001C0F12CE1E0EF932F923F92892CA42C13
:10358000C52CEF800B2D2F2D49856885C3010E9426
:10359000031F0F900F900F908111DFCFDA94D1109D
:1035A000C3CFDBCF892D0E948028882309F455C81A
:1035B000D30117961C9251C8F301108646E06F2D77
:1035C0008D2D0E94632644C8EFEFD7011A96EC9325
:1035D0001A97FEEF1696FC9308C081E0D7011A9661
:1035E0008C931A97E2E01696EC9300E04CE753E0D8
:1035F00064C935EB832E33E0932E4CEE53E090E01C
:103600000FC02BEC822E23E0922E46E054E090E097
:1036100010C096EA892E93E0992E4BED53E092E389
:1036200080E0DEC984EC882E83E0982E4EEF53E0D4
:1036300092E38BE7D5C91A96EC911A9723EF2E0FD8
:10364000233008F096CBE45F05C02CE02E0F2C3120
:1036500028F4E22FF0E0EE5EFA4FE4911A96EC9334
:103660001A9791CB82E1C3CB89E0C1CBFC01608189
:103670002181FAE06F9FB001112413967C936E9321
:1036800012976AE0269F9001112415963C932E9381
:1036900014971A96EC921A971B961C921B971696E3
:1036A0001C92169717961C9217977FCC81E070CDCD
:1036B00061103BCD54CD892809F1672D812F0E94DF
:1036C0003C26182F802F0E947728882349F0A501D7
:1036D000B60161507109812F0E94BB258111B2CDC5
:1036E000B60161507109A501812F0E94E12588234F
:1036F00009F44ECDA7CD5110A5CDBBCD80E048CD6E
:103700002D960FB6F894DEBF0FBECDBFDF91CF91DF
:103710001F910F91FF90EF90DF90CF90BF90AF90EF
:103720009F908F907F906F905F904F903F902F90E1
:103730000895CF92DF92EF92FF920F931F93CF9352
:10374000DF936C017A018B01C0E0D0E0CE15DF057C
:1037500081F0D8016D918D01D601ED91FC91019020
:10376000F081E02DC6010995892B11F02196EECF4D
:103770007E01C701DF91CF911F910F91FF90EF90D4
:10378000DF90CF9008958091AC01E091AA01F09173
:10379000AB01882349F0CF0102969093AB0180934F
:1037A000AA01859194910895CF0102969093AB015F
:1037B0008093AA018081918108958091A301089549
:1037C0000895089580E090E00895FC012285261771
:1037D00014F0421714F4FC01628708950E94992F97
:1037E000BF92CF92DF92EF92FF920F931F93CF93EE
:1037F000DF93FC0166834783862F880F880F860F2F
:10380000382F3F70942F990F990F940F50E1950224
:10381000C0011124832B818367FF02C08CE003C0A9
:10382000662311F084E0848747FF02C0148604C039
:10383000442311F088E08487222309F44BC081855A
:10384000811148C0EF018485811134C01D868A81B1
:103850009B812AE030E0B9010E942A2E162F8C812C
:103860009D81B9010E942A2EFF24FA94F60E00E0F1
:10387000CC24CA94C10EBB24B394B10EDF2CD01A51
:103880006D2D812F0E943C26833091F46D2D8C2D5F
:103890000E943C26E82E6D2D8B2D0E943C260F5F4A
:1038A0009DEF9E0D923020F09DEF980F923060F4C6
:1038B000098710C00E94892E26E030E040E050E0E9
:1038C0000E94242F698706C08111D8CF8150833090
:1038D000A8F6EECFDF91CF911F910F91FF90EF905F
:1038E000DF90CF90BF900895E1E7F0E080818D7F79
:1038F000808310929100469847981092A9010895EC
:10390000CF92DF92EF92FF920F931F93CF93DF93AB
:103910000E94C31B811520E8920751F4DF91CF91DB
:103920001F910F91FF90EF90DF90CF900C94741C3B
:1039300021E02093A901813020E8920751F4809181
:10394000A7019091A8019093AB018093AA010E94D6
:10395000C31B97FD05C02091A601222309F440C096
:103960002091A50121113CC021E02093AD01EC0183
:10397000DF77209769F481E08093AE0146983FE9B4
:10398000C32E3FE0D32EE12CF12CCAEFD0E014C0BF
:103990008E0120E030E060E472E48FE090E0A90165
:1039A00098010E94242F69017A0181E0C81AD10888
:1039B000E108F1081092AE01E0913007F091310773
:1039C0000995811103C081E08093AE018091AD0122
:1039D000882309F43FC08091AE0181113BC003C030
:1039E0001092AD01C4CF469935C0479A0E94C31BBF
:1039F000009771F09C01DE010E94782FDC01CB0161
:103A000029E0B595A795979587952A95D1F703C095
:103A10008FEF9FEFDC01109290002AE0209391003D
:103A2000D0929900C09298008093AF019093B0011A
:103A3000A093B101B093B201809171008260809334
:103A40007100DF91CF911F910F91FF90EF90DF9068
:103A5000CF9008954798CACF1F920F920FB60F923A
:103A600011242F933F934F935F936F937F938F9383
:103A70009F93AF93BF93EF93FF938091AF0190918A
:103A8000B001A091B101B091B201892B8A2B8B2B8F
:103A900081F18091AE0181110BC098B180E489273A
:103AA00088B98091AD01882319F088B1805888B910
:103AB0008091AF019091B001A091B101B091B2019C
:103AC000181619061A061B06B4F48091AF019091DE
:103AD000B001A091B101B091B2010197A109B10962
:103AE0008093AF019093B001A093B101B093B20164
:103AF00002C00E94801CFF91EF91BF91AF919F91F6
:103B00008F917F916F915F914F913F912F910F9086
:103B10000FBE0F901F9018959C01E1E7F0E0908197
:103B20009D7F908381E08093AC013093AB01209323
:103B3000AA013093A8012093A7010C94801C4F92F6
:103B40005F926F927F928F929F92AF92BF92CF922D
:103B5000DF92EF92FF920F931F93CF93DF9300D0EA
:103B600000D0CDB7DEB7DC014115510509F4D8C04E
:103B7000FA01F490319694914E5F5F4FCF2CD12C87
:103B80002223D9F0E1E0F0E0892F877011F4E0E022
:103B9000F0E0892F869586958695E80FF11DEC9DBE
:103BA0008001ED9D100DFC9D100D1124209FF00152
:103BB000219FF00D11244E0F5F1FF601EA0FFB1F2E
:103BC0001E161F060CF0ACC0A038B1050CF0A8C042
:103BD0009B01290F311D121613060CF0A1C0603491
:103BE00071050CF09DC04115510509F499C0062FCF
:103BF0000770B02E9B0177FF02C0295F3F4F83E023
:103C0000359527958A95E1F7822F77FF04C0BB2071
:103C100011F08FEF820FB7FF05C0222733272A1B31
:103C20003B0B02C020E030E0E038F10524F070E802
:103C30007A1B672E01C06F2C621A082F082E000C09
:103C4000110B8F3F1CF4F02FF09501C0F0E0EE2433
:103C5000E394692F677009F4E12CE92FE695E69566
:103C6000E6959E2D9E0F090F111D0930110514F0C8
:103C700098E0981B6F2F680F8901FF9E000D111DA2
:103C80001124400F511F01E010E00B2C02C0000F67
:103C9000111F0A94E2F7EFEFE09F7001E19FF00C33
:103CA0001124E094F094FC82EB82AC8070E867030E
:103CB000A00DB11D11242A0F3B1F205D3C4F992EF2
:103CC000980E961669F1D9012A01842D841B861558
:103CD00008F5F2018490809EC001819E900D112410
:103CE0009A83898367FD04C09C919E21892B8C93C4
:103CF000BB2059F067304CF4CD0180589F4FFC0138
:103D000080808A207A8087288082FFEF4F1A5F0A9E
:103D10001196DBCF6F5F4C0D5D1D20583F4FD1CF0B
:103D20000F900F900F900F90DF91CF911F910F91F7
:103D3000FF90EF90DF90CF90BF90AF909F908F90CB
:103D40007F906F905F904F900895BC0180E090E06D
:103D50000C9430248FB18095807F669B88601C9B7B
:103D60008460089580389105B8F460347105A0F43A
:103D700090E121E061FD24E060FD220F62FD2295CB
:103D8000687F969FD0011124A80FA05DBC4F8C9135
:103D9000822B40FF82278C9308958091BE0190E092
:103DA0002091C8013091C901821B930B6AE070E039
:103DB0000E94162E9C0181E0232B09F080E00895DB
:103DC0009091C401981714F0691714F48093C401FA
:103DD00008951092BF011092CA0182E08093C00141
:103DE0001092CB018091BE01873160F08091C801B3
:103DF0009091C90189399F4F2CF01092C0018EEF2C
:103E00008093CB0108953F924F925F926F927F9281
:103E10008F929F92AF92BF92CF92DF92EF92FF92DA
:103E20000F931F93CF93DF93CDB7DEB7142F902E50
:103E30003C88BE8830E02031310508F028C1082DCB
:103E40007E2D462E3C01F901E658FF4F0C94932F2E
:103E5000EE2029F07350723010F010E001C011E034
:103E600046EF60E0C3010E94C72693E099120FC19C
:103E7000112309F40CC181110AC146E065E0C301B8
:103E80000E94E51B2B2D4EEF60E0C3010E94F01B4A
:103E90000FC140E06AE00E94C72691E0D82ED926E3
:103EA000E12EF12CEFEFEE1AFE0A512CA701B20120
:103EB000882D0E941026382EB2016F5F7F4FA70118
:103EC0008A2D0E941026F82E8C2D0E947728182FFC
:103ED0008A2D0E948028F4E0CF1205C0DD2019F061
:103EE0004AE067E00DC094E0991211C01123C9F0B7
:103EF000882309F4D0C0DD2009F4D4C044E061E097
:103F0000C3010E94E51B2B2D40E062E099C0E3E075
:103F10009E1207C0112329F0DD2019F046E065E06C
:103F2000EFCF311093C0882321F0112309F4AFC0E3
:103F300006C0112309F4ABC0FF2009F4A8C0DD209E
:103F400009F4A5C0DBCF4AE060E00E94C72691E0FB
:103F5000F82EF926412F50E04F5F5F4F642D70E03F
:103F6000882D0E941026033061F4FF2009F48FC0D1
:103F70004BEF6AEFC3010E94E51B2B2D42E060E08E
:103F80005FC0882309F483C0FF2009F480C08BE060
:103F9000F30182872B2D42E060E0C3010E94F01BF9
:103FA0000750093008F075C08FE1F301838771C0B5
:103FB00040E066EF0E94C72691E0582E5926E12E78
:103FC000F12CFFEFEF1AFF0AC42CD12CA701B60188
:103FD000882D0E941026A82EB60161507109A701F4
:103FE000832D0E941026F82E8D890E947728182F85
:103FF000832D0E9480289D89943029F4552019F042
:1040000049EF66EF17C0E4E09E120BC01123E1F008
:10401000882309F444C0552009F447C04FEF6CEFE2
:1040200009C0F3E09F1210C0112371F0552061F018
:1040300046E065E0C3010E94E51B2B2D40E06EEFDA
:10404000C3010E94F01B25C0AA20A1F08BE0F30160
:1040500082872B2D42E060E0C3010E94F01B0750D5
:104060000930B8F48FE1F30183878DEE9CE10E9463
:104070008C1D0FC0882329F0112349F0552039F0F9
:10408000CDCF112321F0FF2011F05110B9CF10E056
:104090000FC011E00DC0332009F44ECFD7CFAA20B6
:1040A00091F3D4CF332099F3D1CFAA2081F3CECF8F
:1040B000812FDF91CF911F910F91FF90EF90DF90B3
:1040C000CF90BF90AF909F908F907F906F905F90B8
:1040D0004F903F900895CF93DF931F92CDB7DEB7F7
:1040E0006983DC01ED91FC910280F381E02D41E0D8
:1040F00050E0BE016F5F7F4F09950F90DF91CF9128
:10410000089583E08093E9008091F200882319F0FC
:104110008AE38093E8000895FC018485958597FDE6
:104120000BC09FB7F89482E08093E9008091F20081
:104130009FBF90E0019608959FB7F89482E0809326
:10414000E9008091F2009FBF90E008954091B60190
:104150005091B7012091B4013091B5014217530736
:10416000B4F49091E8009570E1F39091E80092FD2D
:1041700019C08093F1008091B6019091B70101962A
:104180008F739927892B19F48EEF8093E800809123
:10419000B6019091B70101969093B7018093B60153
:1041A00081E0089580E00895DF92EF92FF920F93EF
:1041B0001F93CF93DF93D82E8A017B01E40EF51E67
:1041C000EB01CE15DF0571F0D7FE03C0FE0184912F
:1041D00001C088810E94A62021968111F2CF8FEF25
:1041E0009FEF01C0C801DF91CF911F910F91FF9008
:1041F000EF90DF900895615030F02091F100FC01C4
:1042000020830196F8CF289884E68093BB01089517
:104210000E94902790E008950F931F93CF93DF9310
:104220001F92CDB7DEB78C01FC018485958597FF81
:104230000EC0CE0101960E946227019719F4898170
:1042400090E002C08FEF9FEFF80195878487F80117
:10425000848595850F90DF91CF911F910F910895DF
:10426000CF93DF931F92CDB7DEB7FC018485958590
:1042700097FD05C02FEF3FEF358724870BC0CE0198
:1042800001960E946227019719F4898190E002C08B
:104290008FEF9FEF0F90DF91CF9108950F931F93B2
:1042A000CF93DF931F92CDB7DEB782E0898342E4DC
:1042B00050E06BEF7CE180E80E94D4200E94272828
:1042C000DC0112960D911C9113970115110589F0CF
:1042D000D801ED91FC910280F381E02DBE016F5F6A
:1042E0007F4FC801099597FD04C0F801008511852D
:1042F000ECCF89810F90DF91CF911F910F9108959D
:104300001F920F920FB60F9211248F939F9380915B
:10431000E1009091E100937F9093E10083FF0FC053
:104320001092E90091E09093EB001092EC0092E380
:104330009093ED001092BC0198E09093F00082FF02
:1043400020C093E09093E9009091F200992319F036
:104350009AE39093E8009091B901992339F09091F4
:10436000B90191509093B901992389F19091BB01C2
:10437000992339F09091BB0191509093BB019923FF
:1043800041F184FF10C08091E2008E7E81608093B5
:10439000E2008091E1008F7E8093E1008091BA017C
:1043A0008E7E806111C080FF16C08091E2008E7EFB
:1043B00080618093E2008091E1008E7E8093E10035
:1043C0008091BA018E7E81608093BA0104C05D9AAB
:1043D000CDCF289AD6CF9F918F910F900FBE0F907F
:1043E0001F9018951F920F920FB60F921124CF9223
:1043F000DF92EF92FF920F931F932F933F934F9370
:104400005F936F937F938F939F93AF93BF93EF933C
:10441000FF93CF93DF93CDB7DEB76C97DEBFCDBFF1
:104420001092E9008091E80083FFFBC168E0CE01B3
:1044300045960E94FB2082EF8093E8008D8987FFDC
:1044400005C09091E80090FFFCCF03C09EEF9093D1
:10445000E800982F907609F0C6C09E894F89588D44
:104460002F89F88C91110CC0803829F48091B30108
:104470008093F10002C01092F1001092F10045C14A
:10448000913051F4811141C14130510509F03DC1D4
:104490008091B3018D7F0BC0933061F4811135C1E0
:1044A0004130510509F031C18091B30182608093A0
:1044B000B3012BC1953049F48091E80080FFFCCF17
:1044C000822F80688093E30020C1963009F05EC09F
:1044D0000B8D1C8D22E01092E9001092B701109212
:1044E000B601F21232C01092B5011092B4010E94CE
:1044F0004E2199E0BE016F5F7F4FDB01E92F1D92D6
:10450000EA95E9F79983FA8291E09E8390EA988789
:104510009AEF99872091B6013091B701275F3F4FFD
:104520003C832B838D831092E9001092B701109287
:10453000B6011093B5010093B40149E050E080E06A
:104540000E94D4200E944E21E0C01093B501009338
:10455000B4010E942728DC0112960D911C9113973B
:104560000115110509F4BBC0D801ED91FC9104803F
:10457000F581E02DBE016B5E7F4FC8010995009764
:1045800009F0C7C0F80100851185EACF973009F41A
:1045900045C1983021F481E08093F100B6C0993094
:1045A00009F0B3C0837009F039C1E1E8F1E081E0BE
:1045B00031E096E32081211109C08EE78093EA0063
:1045C0001092EA008F898093BC019FC08093E9001C
:1045D0003093EB0021912093EC009093ED008F5FDE
:1045E000873041F7EACF8B8D9C8D1092E9001092B5
:1045F000B7011092B6019093B5018093B401898DF3
:10460000811153C08E899D89913A49F4813209F014
:1046100005C147E050E065E071E080E0BBC0913249
:1046200009F0FCC0833269F48F89988DA0E0B0E076
:104630008093010190930201A0930301B0930401C0
:1046400064C0803269F48091E80082FFFCCF67E0AB
:1046500085E091E00E94FB208BEF8093E80055C03D
:10466000823209F052C08F8980930C01EEEFFFE790
:10467000859194918B3F9C4D19F0E0E0F8E002C0E9
:10468000EEEFFAE08091050190910601A0910701FB
:10469000B0910801803B9440A105B10509F09EC08E
:1046A00080910C0180FF79C099C00E942728FC01ED
:1046B000028113810115110509F4B0C0D801ED91F3
:1046C000FC910190F081E02DBE016B5E7F4FC8012F
:1046D000099581111AC0F80100851185EBCFF1E031
:1046E000FF1609F44EC0F3E0FF1298C08F898823AB
:1046F00009F44AC0823089F440E867E08FE59DE123
:104700000E94952D882309F489C08EEF8093E800DC
:1047100088C018161906CCF381C0813029F440E80E
:104720006BE083E59DE1ECCF833009F077C00E9418
:104730002728DC011296ED90FC9013978E010F5FF5
:104740001F4F6801E114F10479F0D701ED91FC915C
:104750000680F781E02DB801C7010995080F111DEA
:10476000F701E084F184EECFD8011C92F6010190AC
:104770000020E9F73197BF016C197D0940E0C601BF
:10478000BFCF61E47DE102C06DE37DE1FB014491B7
:1047900050E080E80E94D420B8CFEE3F2AE0F20734
:1047A00051F0808191818737A7E79A0721F0909394
:1047B000FF0A8093FE0A87E797E7918380838091C1
:1047C00060008093B8019BE088E10FB6F894A8954B
:1047D000809360000FBE9093600097CF808191819D
:1047E0008737974709F091CFA8958091600088613D
:1047F000809360008091B80180936000EE3FBAE042
:10480000FB0739F08091FE0A9091FF0A9183808323
:104810007CCF1092FF0A1092FE0A77CF81E280933C
:10482000EB006C960FB6F894DEBF0FBECDBFDF91E4
:10483000CF91FF91EF91BF91AF919F918F917F9118
:104840006F915F914F913F912F911F910F91FF9029
:10485000EF90DF90CF900F900FBE0F901F901895A4
:104860008F929F92AF92BF92CF92DF92EF92FF9280
:104870006B017C010E94D0284B015C01C114D10462
:10488000E104F104F1F00E94D028DC01CB01881989
:104890009909AA09BB09883E9340A105B10570F3A7
:1048A00021E0C21AD108E108F10888EE880E83E001
:1048B000981EA11CB11CC114D104E104F10419F724
:1048C000DDCFFF90EF90DF90CF90BF90AF909F90A3
:1048D0008F9008952F923F924F925F926F927F92A6
:1048E0008F929F92AF92BF92CF92DF92EF92FF9200
:1048F0000F931F93CF93DF93CDB7DEB72F970FB6EC
:10490000F894DEBF0FBECDBF4C017B012C870D8715
:104910005A8349831C821B821D821E8268E070E0DC
:10492000CE0101960E948B281C019C012F5F3F4FF6
:104930003B872A8768E070E0CE0101960E948B28B1
:104940008C0161E070E0CE0101960E948B282A85DF
:104950003B85280D391D37FDF5C030E883169104DD
:104960000CF0F0C00F5F1F4F98012E0D3F1D37FD5B
:10497000E9C040E4E416F1040CF0E4C06701F7FE7E
:1049800004C0CC24DD24CE18DF0857E0C522DD2486
:104990009701F7FE02C0295F3F4F390123E075946C
:1049A00067942A95E1F7F7FE09C091E0691A71084A
:1049B00028E030E0A9014C195D096A01980117FF50
:1049C00002C0295F3F4F290193E0559447949A957F
:1049D000E1F707701127012B19F05FEF451A550A0F
:1049E0000D85002311F0710102C0E12CF12C8987A3
:1049F00001E010E0A12CB12C88E090E09C012C1982
:104A00003D093F872E87A414B5040CF09BC041E0FC
:104A100050E058874F8361E070E0CE0101960E941C
:104A20008B28892B31F48F819885029698878F8304
:104A3000F2CF6F817885CE0101960E948B28DC0130
:104A4000119640E050E04A175B0708F072C0998564
:104A50009111102B000F09F069C093012A0D3B1D25
:104A6000C9010196099708F043C0C4018E0D9F1D2E
:104A700080389105E8F5B9017695762F6627779508
:104A80006795680D791D6E0D7F1D2F3F0FEF300765
:104A900009F454C0812F0C2C01C0880F0A94EAF746
:104AA000FB01E05DFC4F0C85002319F09081892B00
:104AB00003C08095908189238083C114D104C1F003
:104AC00027303105A9F0812F90E00E8402C0959522
:104AD00087950A94E2F7FB01E055FC4F2C852223D1
:104AE00019F01081812B03C0809510818123808370
:104AF0000D85011110C02FEFE21AF20A8A859B85FD
:104B0000E816F9068CF09FEFA91AB90A01E010E047
:104B1000E12CF12C0BC001E0E01AF108F7FE04C013
:104B20002FEFA21AB20A710101E010E04F5F5F4F50
:104B30008ACF398541E03427398765CFC114D10444
:104B400011F6D6CF2F960FB6F894DEBF0FBECDBFAD
:104B5000DF91CF911F910F91FF90EF90DF90CF9059
:104B6000BF90AF909F908F907F906F905F904F908D
:104B70003F902F9008958150833008F18AE0869FFE
:104B80009001879F300D1124849FB001859F700D87
:104B90001124ECEDF2E0808184FF0AC082819381D0
:104BA0008217930729F4848195818617970739F036
:104BB0003E9683E0E033F80771F780E0089581E0E6
:104BC0000895873028F4843038F5882329F126C0E9
:104BD000803120F58AE0869F9001879F300D112457
:104BE000849FB001859F700D1124ECEDF2E080816F
:104BF00084FF0DC082858B3051F4828193818217AE
:104C0000930729F4848195818617970739F03E969A
:104C100083E0E033F80759F781E0089580E00895D4
:104C2000853031F118F4882319F124C08750883079
:104C300008F58AE0869F9001879F300D1124849F9C
:104C4000B001859F700D1124ECEDF2E0808184FFAE
:104C50000AC0828193818217930729F48481958108
:104C60008617970739F03E9683E0E033F80771F72F
:104C700081E0089580E008958C31F8F46F3FF9F0F9
:104C80006031F8F4982F969570E080FD0BC080E1BC
:104C9000989F600D711D1124FB01EA53FE4F868120
:104CA000829509C080E1989F600D711D1124FB0160
:104CB000EA53FE4F86818F70089581E0089580E069
:104CC000089582E00895982F9695E62FF0E080FDF4
:104CD0000EC080E1989FE00DF11D1124EA53FE4FB4
:104CE00086818F7090E1499FA001112409C080E165
:104CF000989FE00DF11D1124EA53FE4F8681807FBD
:104D0000482B46830895CF93DF9382EB90E00E9477
:104D1000E02E8093AC0283EB90E00E94E02ECDEB7E
:104D2000D1E08E8384EB90E00E94E82E9D838C83FB
:104D3000DF91CF9108951F93CF93DF93C091AC0281
:104D40006C2F82EB90E00E94EE2E6C2F87EB90E0B0
:104D50000E94EE2ECDEBD1E01E81612F83EB90E01F
:104D60000E94EE2E612F88EB90E00E94EE2E0C80C8
:104D7000DD81C02DBE0184EB90E00E94002FBE01BA
:104D800089EB90E0DF91CF911F910C94002FEF926F
:104D9000FF920F931F93CF93DF93DC01ECEDF2E0D2
:104DA00080E393E0062E000C770B042E000C550BCD
:104DB000208124FF1EC02F703C913F702317C9F043
:104DC0001181212F2F70C281D381C20FD11D129664
:104DD0002D913C911397260F371F7E010AE0E00EBC
:104DE000F11C2E153F052CF4265F3F4FC217D30749
:104DF00034F03E968E179F07D9F680E019C01295C1
:104E00001F70C481D581C10FD11D14962D913C9185
:104E10001597240F351F7E010AE0E00EF11C2E15B8
:104E20003F053CF7265F3F4FC217D30714F781E0D9
:104E3000DF91CF911F910F91FF90EF900895809196
:104E4000BE0190E02091C8013091C901821B930BF3
:104E50002AE030E0B9010E94162E863020F0A90128
:104E6000481B5109CA0121E005970CF020E0822F70
:104E70000895CF92DF92EF9220916E07822F90E0FB
:104E8000FC01EE0FFF1F8E0F9F1FFC01EE5CF84F21
:104E9000C080D180E2808FEF820F80936E07E2E3C3
:104EA000F7E090E0981740F4238134814581219305
:104EB000319341939F5FF6CF8E2DB601EF90DF9037
:104EC000CF9008952091BC01211103C08FEF9FEF77
:104ED00008955FB7F89422E02093E9002091F20052
:104EE00030E01216130614F421E030E0422FFC01EA
:104EF00084E6415038F028988093BB019091F100EE
:104F00009193F7CF2115310521F08091F20088238C
:104F100019F05FBFC90108958BE68093E800F9CFCF
:104F20002FB7F89483E08093E9009091E800892FEF
:104F3000807295FF04C09091F20080E4891B2FBF1E
:104F400008958F929F92AF92BF92CF92DF92EF928D
:104F5000FF920F931F93CF93DF936C017B018A0124
:104F600080910C01882309F45CC08091BC018823E6
:104F700009F457C08091BA0180FF05C08091E0001C
:104F800082608093E000E801B12C8AEFA82E93E0C4
:104F9000892E2AE3922E209711F4BB20D9F10E948A
:104FA000902781110AC0AA94AA20D9F161E070E08B
:104FB00080E090E00E943024EECF282F30E0C2172E
:104FC000D3070CF48C2F9FB7F8948092E9002091BE
:104FD000E80025FF1DC0282F30E0C21BD30BF701CE
:104FE000815020F041914093F100FACFE20EF31E80
:104FF000BB2019F09092E8000AC08091E80085FD7E
:1050000007C09092E800BB24B394209709F0B12C1C
:105010009FBFC1CF5D9884E68093B9011016110639
:1050200044F081E090E0F6019383828380E090E099
:1050300001C0C801DF91CF911F910F91FF90EF90B8
:10504000DF90CF90BF90AF909F908F900895809108
:105050007E0781110DC082E080937A0784E08093FF
:105060007B0710927D0710927C0781E080937E077A
:105070008AE797E00895CF93DF93D82F8FEA90E0E7
:105080000E94E02EC82F80EB90E00E94E02ED1110C
:1050900004C0CC3411F4823539F16CE48FEA90E02D
:1050A0000E94EE2E62E580EB90E00E94EE2E86EBF1
:1050B00090E00E94E02E682F81EB90E00E94EE2E9F
:1050C00087EB90E00E94E02E682F82EB90E00E9438
:1050D000EE2E88EB90E00E94E02E682F83EB90E0AC
:1050E000DF91CF910C94EE2EDF91CF91089588231C
:1050F00029F083508D3010F080E0089581E008950C
:10510000813028F0843028F08750893010F080E01A
:10511000089581E008951F93CF93DF93DC0120E091
:1051200030E040E050E011E0C1E0D0E02617370762
:1051300091F114968C911497811115C014961C93BB
:10514000149712968D919C911397ED91FC91119764
:10515000E80FF91FE4911596EC93159701961396B5
:105160009C938E93129714969C91149715968C91FC
:105170001597892349F0FE01022E02C0EE0FFF1F92
:105180000A94E2F74E2B5F2B990F14969C93149779
:105190002F5F3F4FCBCFCA01DF91CF911F91089571
:1051A0003FB7F8948091E9079091EA07A091EB0747
:1051B000B091EC0726B5A89B05C02F3F19F00196CA
:1051C000A11DB11D3FBFBA2FA92F982F8827820F8D
:1051D000911DA11DB11DBC01CD0142E0660F771FDD
:1051E000881F991F4A95D1F708951F920F920FB605
:1051F0000F9211242F933F938F939F93AF93BF935D
:105200008091E4079091E507A091E607B091E70748
:105210003091E80723E0230F2D3720F40196A11DDC
:10522000B11D05C026E8230F0296A11DB11D2093D4
:10523000E8078093E4079093E507A093E607B0930F
:10524000E7078091E9079091EA07A091EB07B091F9
:10525000EC070196A11DB11D8093E9079093EA0721
:10526000A093EB07B093EC07BF91AF919F918F9103
:105270003F912F910F900FBE0F901F901895809126
:10528000C30181508093C30196E090930001811186
:1052900002C088E001C08AE08093C50187E69DE1F5
:1052A0000C948C1DCF93DF93CDB7DEB728970FB644
:1052B000F894DEBF0FBECDBF789484B5826084BD04
:1052C00084B5816084BD85B5826085BD85B581600A
:1052D00085BD80916E00816080936E001092810088
:1052E0008091810082608093810080918100816043
:1052F0008093810080918000816080938000809104
:1053000091008260809391008091910081608093F0
:105310009100809190008160809390008091C10005
:1053200084608093C1008091C10082608093C1003D
:105330008091C10081608093C1008091C300816031
:105340008093C3008091C00082608093C0008091F0
:10535000C20081608093C20080917A008460809353
:105360007A0080917A00826080937A0080917A003E
:10537000816080937A0080917A00806880937A00BF
:105380001092BC011092B3011092BA018091D70023
:1053900081608093D70080EA8093D80089B58061CE
:1053A00089BD89B5826089BD09B400FEFDCF61E089
:1053B00070E080E090E00E9430248091D8008F7CE3
:1053C00080618093D8008091E000807F8093E0002E
:1053D0008091E1008E7E8093E1008DE08093E20079
:1053E000559A209A81EC80937C0085B1806F85B9B5
:1053F00084B1877E84B984B1876E84B95E9A5F98E0
:105400008AB1806D8AB9769A6E9881B3806F81BBBC
:10541000899880B38D7080BB80E58CBD81E08DBDA7
:1054200085E090E00E94A51E5F9A85E090E00E94D2
:10543000A51E5E985C98EDE2F9E184918EBD0000B6
:105440000DB407FEFDCF319649E1EA33F407A9F721
:105450005C9A81E88093640080916500816080930C
:1054600065000E94AA1E87FF24C05C9885EA8EBD55
:1054700000000DB407FEFDCF5C9A2E982F982D9852
:105480008091640080628093640081E083BF88958E
:1054900013BEFCCF2D980E94AA1E8478843871F028
:1054A0000E94AA1E8471843129F188EC90E00E9448
:1054B000A51E0E94AA1E82FDEDCF38C02D9A88EC51
:1054C00090E00E94A51E2F9882E090E00E94E02EBE
:1054D0008F3F29F06FEF82E090E00E94062F84EF6B
:1054E00091E00E94A51E2F9A0E94AA1E84788438FB
:1054F000D9F3D6CF2D9A88EC90E00E94A51E2E9865
:1055000082E090E00E94E02E882329F060E082E0B3
:1055100090E00E94062F84EF91E00E94A51E2E9A33
:105520000E94AA1E84718431D9F3BFCF2D9A88E2DC
:1055300080937607809164008E7F809364008091D1
:105540007A00806480937A0080917A0086FDFCCF97
:1055500000917800109179000E94D02820E030E07E
:10556000980111270027600F711F821F931F209140
:105570006400216020936400611571058105910527
:1055800011F00E94D72E82E090E00E94E02E882346
:1055900031F03E9A3F9A81E08093A30104C01092BB
:1055A000A3013E983F9880E00E943B280E948326FA
:1055B00084E18093BD0183E28093BE011092C40117
:1055C00081E08093C50187E0EDE3F1E0DE01119613
:1055D00001900D928A95E1F781EB90E00E94E02E18
:1055E000853040F4E1E0F0E0EC0FFD1FE80FF11D25
:1055F000808103C0853019F081E1809300012BE3A5
:10560000222E312C38E9432E55245A9447E6642E35
:1056100077247A94DD24D39497E0A92E8FB7F89459
:105620004091E4075091E5076091E6077091E70724
:105630008FBF80917707942F981B892F90917807BF
:10564000992329F080937907109278075CC2909192
:105650007607891740F48F5F891708F054C2D3BECC
:10566000889513BE50C2D0927807409377078091F7
:105670007207909173070196909373078093720756
:1056800080917407809375070E94AA1E8093740707
:1056900010910001812F90E0FC013197E131F1057B
:1056A00008F023C2E759FF4F0C94932F83EB90E04F
:1056B0000E94E02E1091A401853009F02BC282EBEC
:1056C00090E00E94E02E813009F024C2612F660F25
:1056D000660F160F185EFF24F39443EB5CE168E15C
:1056E00070E000E021E086E290E00E946A24612FF1
:1056F00070E021E047EE5CE18FE190E00E946A24D7
:1057000000E010E021E048EF5AE160E070E0C801FD
:105710000E949F1D21E048EF5AE167E370E0C80155
:105720000E949F1D065F1F4F0238110559F7809197
:1057300075078095909174078923F11011C087FF38
:1057400007C09091A401992319F091509093A4015E
:1057500084FF06C09091A401911102C0D092A401CF
:1057600083FFC3C18091A401882329F0813009F00F
:10577000BCC10E943B280E94832682E080930001E6
:10578000B4C10E94741C80916E07882319F00E9496
:105790003927F9CFE091AC02F0E0EE0FFF1FEC5794
:1057A000FF4F20813181D092C401F9018491FAE048
:1057B0008F9FC0011124F9013196E4914AE0E49FE2
:1057C000F00111248B3391052CF41092C701109233
:1057D000C60116C0AC014B5351094E35510558F462
:1057E0004BE34093BD01B101681B790B7093C70176
:1057F0006093C60107C07092C7016092C6018959C3
:105800008093BD01E731F1052CF41092C90110928B
:10581000C80116C0CF0147978235910560F487E132
:105820008093BE0187E190E08E1B9F0B9093C9018E
:105830008093C80107C05092C9014092C801E85640
:10584000E093BE01F90132961491ACEDB2E043E071
:1058500050E070E06C91607F672B6C9318961C92FF
:1058600018977117E8F4F901E40FF51FE4918AE045
:10587000E89FF00111241396FC93EE931297FA011E
:105880003196E20FF31F4E5F5F4FE491FAE0EF9F16
:10589000C001112415969C938E93149760616C93AC
:1058A0007F5F1E967630B1F6CA010196F901E40FCA
:1058B000F51F54915093AE02A0EBB2E010E0BF018F
:1058C0006E5F7F4F511759F03196E491EC93FB01D5
:1058D000449111964C9311971F5F1296F0CF850F4C
:1058E000911D850F911DA901480F591FA4EDB2E02C
:1058F000FA0164916C933196E4911196EC931197AF
:105900004E5F5F4F12966CED72E06A177B0781F76E
:105910004C0179E0870E911CFC013896E20FF31FD1
:10592000C490E2E0CE1621F000E010E040E067C055
:10593000A6ECB1E07C01F0EEEF0EF11C40E08D0131
:1059400060E070E04C0159E0850E911CF401E60F17
:10595000F71FE20FF31F5491E52FF0E0689413F85E
:10596000F595E7951694E1F7E63009F44F5FE52FDA
:10597000EF70E63009F44F5FF80156836F5F7F4F99
:10598000005F1F4F6E30710509F711960E968E1548
:105990009F05A9F670C0EE2309F46DC05FEF851A6C
:1059A000950ABF2EB294B0EFBB227801C11038C067
:1059B000C7016CE170E00E942A2E969587957727A3
:1059C000A4E0880F991FAA95E1F78A539E4FDC0146
:1059D000A60FB71F16965C911697E0FC1EC05F706D
:1059E0005B2916965C938FEFE81AF80A8E2D801BC0
:1059F0008E17E0F2E150F0E031960E0F1F1FF90113
:105A0000E80DF91DE491FE2FF295F695F770EF7110
:105A1000F63009F0C0CF4E0FBECF507F5F2BE1CFE5
:105A2000B70184E0769567958A95E1F7562F5695EC
:105A30008E2D8F7090E060FD0EC060E1569F800D4E
:105A4000911D1124DC01AA53BE4F16968C91169716
:105A50008F708B290DC070E1579F800D911D11240F
:105A6000DC01AA53BE4F16968C911697807F8F2B20
:105A700016968C93B8CF4093AD0283E080930001DB
:105A800005C0A092000102C00E949B260E94F80E51
:105A90002CC088E0E4E4F1E0DE01119601900D9263
:105AA0008A95E1F700E021E047E05AE164E170E027
:105AB00083E190E00E946A241A50FE013196E10FC2
:105AC000F11DE10FF11D4081518121E063E270E0A1
:105AD00087E490E008C000E021E04AE359E167E193
