:100000000C94970E0C94BF0E0C94BF0E0C94BF0E64
:100010000C94BF0E0C94BF0E0C94BF0E0C94BF0E2C
:100020000C94BF0E0C94BF0E0C9449210C94BB2170
:100030000C94BF0E0C94BF0E0C94BF0E0C94BF0E0C
:100040000C94BF0E0C94BF0E0C94BF0E0C94BF0EFC
:100050000C94BF0E0C94BF0E0C94BF0E0C94BE28D3
:100060000C94BF0E0C94BF0E0C94BF0E0C94BF0EDC
:100070000C94BF0E0C94BF0E0C94BF0E0C94BF0ECC
:100080000C94F51C0C94BF0E0C94BF0E0C94BF0E78
:100090000C94BF0E0C94BF0E0C94BF0E0C94BF0EAC
:1000A0000C94BF0E0C94BF0E0C94BF0EA013D11372
:1000B000D113CA13CA13C613C613C213C213BE1375
:1000C000BE13B613B613BA13BA13B613B613BA13D4
:1000D000BA131F2B8A2B0F2D0F2D0F2D0A2D0F2D2D
:1000E0000F2D0D2D0F2D122D122D122D252D252DFD
:1000F000252D1B2DF11EF11EF11E121F121F121FA6
:100100006C1F6C1F6C1F6C1F6C1FA11FA11FA11FF8
:10011000F11EF11E090FE8D2D9ED76BB4EC7B7DD4F
:100120006EB7DBED7636090FE8D3E974FCDBED76CC
:10013000BBDD6E6703090F109BCE6EB7DB753A36D9
:10014000090FB8B2E9145FD7ABCF85A2ED6CDB59CC
:1001500001090FBC92EE55A9A4D2AAAD53E4E9E877
:10016000B6B303090FF8B6CAF55FB9B5EBD436EEEE
:10017000ED6CDB5901090F38B39FEAB397770A4B4F
:10018000DBD9B6B302090FBC924EA5FAECE554CE0A
:10019000C9D9D3F9EC367A090FB8B29F6AA2745F55
:1001A000BB8E773B7B3A5A090F38972ACA6B998ED8
:1001B00039BD1D5B090F5CA73EF54D96DBF5B950C7
:1001C000B79D1D20064B000000190075054B00006F
:1001D00000190027054B000000190097044B000090
:1001E00000190017044B0000001900B8074B00006D
:1001F000001900E0064B000000190010034B00003E
:10020000001900BA024B000000190093024B0000D5
:100210000019004B024B00000019000B024B0000BC
:10022000001900DC034B000000190070034B0000B4
:1002300000190088014B00000019005D014B00000F
:100240000019004A014B000000190026014B000074
:1002500000190006014B0000001900EE014B0000E0
:10026000001900B8014B0000001900C4004B000049
:10027000001900AF004B0000001900A5004B000062
:1002800000190093004B000000190083004B000090
:10029000001900F7004B0000001900DC004B0000C3
:1002A00000190062004B000000190057004B0000CD
:1002B00000190052004B000000190049004B0000DB
:1002C00000190041004B00000019007B004B0000AA
:1002D0000019006E004B000000190031004B0000B7
:1002E0000019002C004B000000190029004B0000F1
:1002F00000190025004B000000190021004B0000F0
:100300000019003E004B000000190037004B0000B0
:1003100000190000804B024B0000000F004B024B05
:100320000000000F004B024B0000000F0026014BA5
:10033000000080E0060F0017040F0027050F0000E3
:10034000800A081800600080002000400000006063
:1003500000900020000000000000008010002080BD
:100360000000800000200000000040090FA8D69D7A
:100370002BA2AC932A75BB08B3DBB106090F8876B4
:100380009D7A995DCBDA756AD46DD7B101090FB842
:10039000969F6AA274D7ABCFCDBC9D753B2B060749
:1003A000A8D2E9743A2E0407723A9D8E0A06077C99
:1003B0003A9D4E470704079D4BA7A303030788E513
:1003C000030792CC0407B8D2E99C5304077C3A9DFA
:1003D000760E0607DE6EB7DBED76070407A592768C
:1003E000BB5D010607B7DBED76BBDD020407A59216
:1003F0006ABBDD020307F8743A0307759A10040715
:10040000D476BB924A2A0407B7DBAD5452011507D4
:10041000A54E472555552A1595F3D99C2293AA2A0E
:10042000958A4AEA745C95032907522E95AA4A9543
:10043000E272AA9295755452E5B3924AAAAA542A36
:100440006EE552A9544E71399F4E392EA9AA52A970
:10045000A8A4AA64656B4A550A2907D369A9A2937F
:10046000AA9295ADA9F64A4DEF54252BEBB8944BC3
:10047000A5AA52A5B89CAA64651D552A25552A2A05
:10048000E9F24949A94A010E07A54E47E57C36A77E
:10049000C8A44EC75571011307522E95AA4A95E27A
:1004A000522E954AE51497D4E9A8A44AA552394595
:1004B00056390F07A5CB67B3924AAAAA542A2AE94C
:1004C000F249C9553904050E11110E00121F101200
:1004D0001915120A11150A06051F04171515090E1C
:1004E000151508011905030A15150A12150906192B
:1004F00007EA5455AA2AD59129974AA572159972E7
:10050000A9542AA7B8A4AA64656B2AA9AA52A9B8B3
:100510002A2EF4F5F9F6F7F8FBFAFFFCFDFE0002CF
:10052000030401060508090A070B0C0E0F008801D9
:10053000640000001400DC036400000014004B029F
:100540006400000028001704640000001400270560
:1005500064000000140020066400000028000080F1
:100560001A08040C050C0B030C170C0704000C00F4
:1005700014001B00040114011B010D04040C0D0CDC
:10058000180C000AC103C10FC103C1032261220379
:10059000C103C103C1E1022261220561052261227A
:1005A000022161210461066108610561066106613D
:1005B0000861036106610861086103610461086103
:1005C00008610183016104610661086105610661DA
:1005D00006610186016103610661018502610861AE
:1005E0000322036103C2036108610A6102220261FE
:1005F00008610C61066108610626AF26611B613C3B
:10060000000D03031403190B080E04050005010572
:1006100002050315030605180B090E001F0E50E115
:10062000456184610A420A6104610A4125613861B9
:100630000261026123042406236225612301220151
:100640002D612601612201C1210123012202220123
:100650002261210123012161220122012301C12301
:1006600001C10122612201C1012261220423012270
:1006700001C122012261276129A1296102210121F1
:10068000C101620F61226127016128612661226137
:1006900001C123036106226106612261086103C171
:1006A00002226103C102613D000D00040402170231
:1006B0000E0C0C0E05060009000C000E00160018AA
:1006C0000103020D0C0D0E001F0367016107610E8F
:1006D0006104620562014105C161C10461056203F3
:1006E00062014303C163C103610662016201450106
:1006F000C165C102610763014767826102C102C12E
:10070000026184630561042C046105C141C10321B8
:1007100001C106C10121046104C143C10221018854
:100720000121046104450221016106610121046186
:100730000543032101610661012104610361256113
:100740000121C1610661C121046103610561012CC0
:10075000046103610561026107610661036125624D
:100760002B62266100050E0406021304020B170E0D
:10077000020000000107021804020E160E00E11F1D
:100780000392236104C10A610A216122A124086144
:100790000A21610621086101C10161012201C10133
:1007A000216101C10161022101C10383612361272C
:1007B000612361022501C1026103610B612AA1610C
:1007C000036106C16103612202C10124A16101C16B
:1007D000216185226123612AA161236101C1016137
:1007E0000122610521896121C12161A122610122CA
:1007F00061C10161022105C103612361036101251A
:1008000061022103C101220261236103610122030C
:1008100061022101C10122046123610361012203FC
:1008200061022404C1016123610361013E00000EE5
:100830000413010A031809100B0304000401040245
:1008400014010B0315090F0B001F1F0B6125610518
:10085000C1612461216107612103216104216125B6
:10086000612561226126612361216104416101C129
:1008700002416101416102412101216102C1612105
:10088000610123416101412101416101416101C1D6
:100890004121012161012261216101C122416103E4
:1008A000C1416101416101210121012161012261F7
:1008B0002161012341610121012141610141610166
:1008C00042022161012261216103C14161014103B1
:1008D00061C121610122C101216102C16121612542
:1008E000612561A1216126612361C1618701C20186
:1008F0006104220541C16143610422432261422116
:10090000C105C14161036123012145216146614463
:10091000610361210122C60161C1056104614624B0
:10092000472B00040F021502110F031B001B011BB4
:1009300002140309050B0F120F0104C1210E6C03F1
:10094000C1210E810FC1210E8110C1210E8111C163
:10095000210E8112C12111C1210E8101C1210DC1C0
:10096000210BC12101810D6507C12101810D630AA0
:10097000C121810E620CC121810C6403C12461027A
:1009800081C123C101C12461A102C12501C123612B
:10099000A12102C122C12201C12261A12202C125DD
:1009A00001C12161A1230281C123C102C1A124E1AE
:1009B000E1E164090003080402000A050608140CBA
:1009C000010000030014010905150C00E103220ACF
:1009D0008C61250722610C612507226101214121DB
:1009E0004121412141214121612507226101C101AC
:1009F000C101C101C101C101C16122C1220722613E
:100A000021A121A121A121A121A121A1612501C112
:100A100005226121A121A121A121A121A121A16161
:100A20002E618C612E61034101410141014101416F
:100A3000610E610321A121A121A123612861286107
:100A400005A1236128610325612461A12361286137
:100A500022C10223612461A12361286124C10221F2
:100A6000610461A12309612602612461A12304C1FB
:100A700001C1026128612461A1356101C20161A146
:100A800023001107040A0112041A06070F0E1600AC
:100A9000160116020C0316030C040A050C050A06BF
:100AA0000C060A070C070A080A090B011A03150CA1
:100AB000080F0056E104421A4204612141224221FA
:100AC00061410C4204610761412141224221E1045C
:100AD00042012241610561E1612101210221874238
:100AE000C1036103C1E161E122012101412106C18C
:100AF0004204610361E161E12102210221074261B7
:100B000003610361E161E12101C12102210621426A
:100B10006103610361E141220222012105C12142F9
:100B20006144A12142E141052101210522426101E7
:100B300088418521012102C10321426105C1026171
:100B40000522012104234261026141A14361432145
:100B50006121022103C1210242610261410341611D
:100B60004102216124A121412101C10142610261AF
:100B70004103416141C10121610822436101C16119
:100B800041034161412542234124410002040309FC
:100B900001130117010700000001000211021202F7
:100BA0001402150208010F051906110E02000000BB
:100BB0000000000000000000000000000001000034
:100BC00001000000000000000004444446313011E0
:100BD00031100100113000300000013013103106D7
:100BE00010610030003000000010010310310010CF
:100BF0000030001111100001103100100100003010
:100C0000000000100061031061001044403000003B
:100C10000100001033301000010011111306100004
:100C20006100133100110050000003110000106139
:100C300003100100100100000310006100103100DA
:100C40001000010016000300001061031061003164
:100C50000016010003006100103100100030100187
:100C6000001003001061031001000030016010014A
:100C700003010010330000060030001000001300D4
:100C8000000031111111111111111110030D0E0479
:100C90000D020E02090E120E02070014000B0310C3
:100CA000030A0E110E0027E18CE12D6203810481FD
:100CB00003622B620521022105622962048101245D
:100CC0000181046227620481012601810462256298
:100CD000850128018562236204810124C2240181E7
:100CE00004622162062C0662216204810124C2246E
:100CF000018104622362048101280181046225626A
:100D0000048101260181046227620481012401819A
:100D1000046229620481048104622B620C622D62E8
:100D20000A623F2400080E0411010C050106060B9F
:100D30000A110012011302140315041605170618F0
:100D40000719081A080B010206170A100E001327CC
:100D50000289C10A260261076121618406266206B2
:100D600061A121A16101C161C10625628661A12144
:100D7000A1610123610624620661A121A161012311
:100D80006107236206650123610822612185014113
:100D9000A161A14101236109216122C102610141D7
:100DA000A161A14104610A6123C101610141A16105
:100DB000A141016182618A6124C1610141A161A1F6
:100DC0004101610E25610141A161A141016187617C
:100DD00022C12305610141A161A141016106614177
:100DE0002605610141A161A141016105614127051C
:100DF00061036103610561413F2400100E0304019A
:100E000017011B0E1101000D001A0001010D011A3E
:100E1000010D020D030D040D050D060D070D080D46
:100E2000090D0A0D0B0D0C03011801040E190E001B
:100E300041E11942E103C8E1C9044EE14E06C10196
:100E4000C10AC102C109416144074161450961C14B
:100E500001C10961C102C1084661410547614109FB
:100E6000C101C16109C102C161064161480341611B
:100E700049056102C101C1076102C102C1064A619F
:100E800041E14B614107C102C1016106C103C102D9
:100E9000610341614AE141614B03611B6103C1028E
:100EA000C108C103C1053C000D0604120002020C7A
:100EB0000E170F031B001B011B02110003020B0E78
:100EC000180F0200000000000000000000000000F9
:100ED00000111111111111111111111111111060C5
:100EE0000000001000000060010600000011131057
:100EF00013131111111101310113111113131313D4
:100F000010060001013101131111131310131011F8
:100F10001101013100030316131313131310010100
:100F200001310111131003131313131101010131C6
:100F30000130030313131313130061010131013155
:100F4000113111031313111111010131013003315A
:100F50001013131306000001013041111330041364
:100F6000131111111111013101300331101313004C
:100F70000000000001310131114410131111111151
:100F800011111131013003000003000000000000C6
:100F90000031011113111111111111111111111140
:100FA0000000030E0E0504010B030D08050E170EBD
:100FB0000A020007000D0013001900020107010DCD
:100FC000011301190105010A030E08060E0022E1B2
:100FD00024E125E125E125E12302C10DC103C1057D
:100FE000226128A124A12A61226121C108C108C16E
:100FF000032161226125A128A127612161226121AC
:101000000DC106216121612261216124A124A12554
:10101000A1226121612161226121612110216121CF
:1010200061216122612161216121C10BC101216125
:101030002161216122612161216123A122A123A1DA
:1010400025612161216122612161216103C108C102
:101050000361216121612261216123A12CA123610E
:1010600021612261216103C109C1066121612261FF
:1010700023A124A124A126A12361226107C10AC1C1
:1010800005613D0018020303021208060E020A0061
:101090000A0104021408070E190E001F1AC103C129
:1010A000034161410388056141234221014161C13E
:1010B0000A240261410741614104C10AC1614184BE
:1010C0000341614102248306624106C1416141023C
:1010D000C109C1026202C141234261412306612468
:1010E00001624121420441614107C1016121046261
:1010F0004187C16141032804624104C10241614149
:1011000003C108C10262410341234161418224823B
:10111000026122026241C10641614108C1016104CC
:101120006241220541614106250462096110614165
:1011300023412444234124422243000A040414018D
:1011400010021504090E0600001B0000011B01001F
:10115000020003170111021803030E01E1E1E1E1AE
:101160006B2103810B2103810321032103210381CF
:1011700001A1C121C121C1A1C1210121036101211D
:10118000032103210121028102A1C1A1C121C1A129
:10119000C1A1012102810421032103210281022135
:1011A000C1A1C1A1C121C1A101210281022103214B
:1011B0000321012102610C210181032B018102C164
:1011C000210B8103210128028102220121096101F1
:1011D000C12102210126018103210122C1210681B1
:1011E0000222012102A101240181022102A1012286
:1011F000C1210221018101C121012201A10221019C
:10120000C1210181022101A101C121012202210389
:1012100022C1210121A1C12502C1210221C1210236
:10122000660221012201280321C1A1026901C12115
:10123000012B0321016C022D036E000E0E040C0223
:10124000120307040A060302000F00180013020627
:1012500003030E180E00038201C10981C104C107F6
:1012600061022208610122032261056108C1036154
:10127000086102C101C16182062201C16103C1048A
:101280006224610261C1062261022203C10161057B
:10129000C10161220761062201610422016181010D
:1012A0008201C18361096104C10461022204C10396
:1012B000C1810361C102220461072202220161C1CE
:1012C00061220581026102C10B6122066101226176
:1012D000022203C1066106C1016105C1042201C1E8
:1012E0000461C104612261042207220361220361B7
:1012F0001B611B3C000201040908110F160C190A9E
:10130000131A001A011A021A031A041A051A0613EC
:10131000071A0713081A0813091A09130A130B13DB
:101320000C130D130E130F0B010808170C170301F4
:101330003105C12405210124016622C12241016435
:1013400001210264220224012201230121810221C0
:1013500002210145012281C1012102A101220122B4
:1013600001412181022102210122012201412101A9
:10137000624101C1410122C12201412142012102F8
:1013800021012201220141214201210221012201E8
:1013900022C14121012101C1412201220122014139
:1013A0002101210221420122012201412101214189
:1013B0000123014721C12141056542210123016526
:1013C000024123012103236103410221016401C180
:1013D000A104410221016527022102C10C210165FE
:1013E0002704210421036221046A0121062102212C
:1013F0000321012302692103210B210321E1E1E102
:10140000E1E1E1E1E1E1E1653100010F030A0903F6
:101410000D140D0E0100010101020103010401057B
:101420000106010701080109010A010B010C010D68
:101430000E031009050D160D0021E13BE198012274
:10144000E121432143214321422141612141832163
:101450006122E12104C104C103C1026103C1612110
:101460006122E1C1615461416122E1216121904128
:1014700001C161216122E1C161210150246122E1A8
:10148000216121014101CC03C121C16122E1C1617E
:101490002101412346214561236122E1216121117E
:1014A00061C121C16122E1C161214B22446121015D
:1014B000416122E12161920261216122E121422206
:1014C00042614221412142614661C16122E10761DD
:1014D0000142046105C1612161224321412344612C
:1014E000422141214222422161210D610C612100F2
:1014F000090E02030E140E010A0005011701050E64
:10150000160E00C384C3E1C38BC323042361230BE2
:1015100026042361230B260423612304C304260429
:1015200023612304230426042361230423042604C3
:1015300023612304230426042361230423042604B3
:1015400023612304230426C182C1236123C182C1F4
:1015500023C182C127C2246124C225C22E61310168
:101560002801610126012803260261022502260CBA
:1015700061113C0001060318060708120E070C0053
:101580000C010C020C030C040C050C0607061A06D1
:101590000F08160E002CE1012F8921042189210357
:1015A00021C1026102C1210621C1026102C12105DE
:1015B00021C1016101C1210821C1016101C12107CE
:1015C00021C161C1210A21C161C121092161210615
:1015D000452261210A216121064103C101416121A6
:1015E000062361216126A127612661036101610E45
:1015F000610662224121612E6121412561832161C1
:10160000218C216121066101C1210161012109C1F2
:1016100021016101210561C12101C161C1012107D0
:10162000C1210261022104612101C1216121C101A5
:10163000210361230361032101C1016101C1226111
:10164000C12162214161214121046102C1012C615A
:10165000026101C12D00150E0507040B04070A09DC
:101660000A0C0A020000000108040A04060A110A12
:1016700000E10E2DE102C105C1053B6102C10A3B3B
:101680006105C107C10D623B6108C10AC1073B6129
:1016900004C108C106C106623B6103C10DC1093B1B
:1016A0006103C106C106C106C102623B6105C10BEF
:1016B000C1093C000F0E0309010F010809021B00BC
:1016C0001B0108010E0119010709001F15C101C105
:1016D000E106612E0261240661012C02612561266A
:1016E0000221C122C122C12202612661270C612789
:1016F000612DA129046128C101C104C101C12501D5
:10170000C2016129A123A12D6112C12602610261DA
:10171000256125610281612402C1620261026102C8
:101720006102610261032302C16122610261C2613F
:10173000C261C261C261032102C1612461026125EB
:1017400061256104C1612661126128613B000B0FB4
:1017500004150104061409140F01090216010506F7
:101760001509150F0009611B6106C10B8402C10830
:101770004C62024711620985028501614461890852
:1017800061046113C10261210361046152210344B8
:1017900062196306C106C108410261014422446125
:1017A000012142214802610B610F6108C1026106FB
:1017B000C1086101614A0148066101611386610146
:1017C000611B00150D030F0B0B0D150F05130013F7
:1017D000011302130313040002100B0A0D140F026D
:1017E000121221000000000000002122111211221B
:1017F000110000000000000012211122000212104E
:1018000006000000600012000002310002112111E8
:101810002311200012012302312002122111230181
:10182000106020012300311000002112230012114A
:10183000106123003211600001221300000000112A
:101840002363312111100021130044444441223309
:101850003022121160012306000000012003300035
:101860000031100022122120000120032111223218
:101870001100000000000061200312122231211625
:1018800000000000611120030006003221115222E5
:101890002225111223113121112200000000000025
:1018A00000000321321112003112212211212211D4
:1018B0002221300060003000000000000000021211
:1018C000D5F08D14A1C881CFD9F1AF20005717A34F
:1018D0008B2E2E47175D74D145175D74D145175D6A
:1018E000721F5D74D145175D74D145175D749129E0
:1018F000BAE8A28B2EBAE8A28B2EBAE8A28B2EBA37
:10190000E8A28B2EB98F2EB4499D4EC7A55C2A95AF
:101910004AA5728A2E5795AA4A55E51C9772A95472
:101920002A954A491449974DE71D977255A9AA541B
:1019300055EEA24AE52A9BAD5C2A2AE752A9543605
:1019400024DDD7575595AA2A3559AE2A5595AACAE6
:10195000392AA9F2CAA525977255A9AA5455AEA34A
:101960005485ACE8A28B2EBAE8A28B2EBAE8A28BE3
:101970002EBAE8A28B2EBAE8A28B2EBAE8A28B2E42
:10198000BAE8A28B2EBAE8A28B2EBAE8A28B2EBAA6
:10199000E8A28B2EBAE8A28B2E32591FA38B2EA75A
:1019A00064E7D29DDCE7D28E2EB66D7ABAD8B6E95E
:1019B000E962DBA6A78B6D9B9E2EBAE862DBA6A729
:1019C0008B6D9B9E2E9B9E6D9BCFA6B7E9E972699E
:1019D0004717DB363D5D4EE96D3EBA6C7A9B8F2E24
:1019E0007439974EC79C733A2E652B59C9CA756CCA
:1019F000D94A56B2728EAB9395AC64652353B692B6
:101A000095AC5C872BE5D3E95CC7A57C3A9D536414
:101A10008E4B91392E2BD3E99CE2CB391D97B29591
:101A2000AC64E53A2EE5D3D9C894AD64252BD741F3
:101A30006FF7B5AB4AA952A9C97255A9AA5455CE98
:101A4000514995572E2DB994AB4A55A5AA721D2C14
:101A50001B5D74D145175D74D145175D74D1C59474
:101A6000EB742EBAE8A28B2EBAE8A28B2EBAE8A2AB
:101A70008B2EBAE8A28B2EBAE8A28B2EBAE8A28BE4
:101A80002EBAE8A28B2EBAE8A28B090A1000000039
:101A90000000000000000000000000000000000046
:101AA00000EFEFE0EFEFEFEF0FEFEF0101010101CA
:101AB0000101000101FFFFFFFFFFFFFFFFFF00012A
:101AC0000101010101010101000000FF4242424207
:101AD000FF000000000300000000030000020202FB
:101AE00002020202020202000000000000000000E8
:101AF00000EFAFE06FEFEFED0FEBEF010101010140
:101B000001010001010000B0B000B0B00000000011
:101B1000000101000101000000EFEFE0EEEEEEEE4B
:101B20000EEFEF01010101010101000101EEECE006
:101B3000E8E8EAE808ECEE01010101010101000119
:101B400001ECE0C0C088808000E0EC0101010101EF
:101B50000101000101E08000000800010086E001B1
:101B6000010101010101000101000000000000006D
:101B700000000000000000000000000000E0808085
:101B8000000000000080E0010101010101010001ED
:101B900001ECE0C0808080C000E0EC0101010101A7
:101BA0000101000101EFECE0E8E8E8E80CECEF01EE
:101BB000010101010101000101EFEFE0EEEEEEEEA7
:101BC0000FEFEF010101010101010001013F0FA52C
:101BD000AA64656B2AA9AA52A9B83A5595AA4A756A
:101BE0005CCEA7538E4BBA7C362BA9A4AA4AA5E299
:101BF000562E95AA4A95E272AA92957554D2E5B3EB
:101C000059492555552A15D2A5AA64656B2AA9AA52
:101C100052A9B83A5595AA4A755CE9B454F13955B8
:101C2000C9CA3A2AA92A59D99A2A9D962A7EE552E2
:101C3000A9AA54292EA72A595947255D3E9B955498
:101C40005255A55221122C07EA5455AA2AD571A53E
:101C5000D352C5E754252BEBA8A4AA64656BAA74DC
:101C60005AAAF8954BA5AA52A5B89CAA64651D95D9
:101C700054F9ACA492AA2A954A010207A553360941
:101C8000E0061E0000000A00E0061E000080080BAF
:101C90000002020201000904000001020200000526
:101CA0002400100105240101010424020605240674
:101CB00000010705810310004009040100020A0029
:101CC00000000705020240000007058302400000F3
:101CD0000403090412010002EF020140412336808F
:101CE00000010102030141726475696E6F204C4C62
:101CF000430041726475626F790020066400000041
:101D0000140027056400000014001704640000009C
:101D100028004B02640000001400DC036400000093
:101D20001400880164000000280000807A2D11242E
:101D30001FBECFEFDAE0DEBFCDBF11E0A0E0B1E023
:101D4000E0EAFEE502C005900D92A839B107D9F787
:101D500027E0A8E9B1E001C01D92A53EB207E1F776
:101D60001EE0C7E9DEE004C02197FE010E94432F78
:101D7000C639D107C9F70E941B290C944E2F0C9429
:101D800000002F923F924F925F926F927F928F92BC
:101D90009F92AF92BF92CF92DF92EF92FF920F93FA
:101DA0001F93CF93DF93CDB7DEB72D970FB6F8947F
:101DB000DEBF0FBECDBF8091B50190E02091BE0186
:101DC0003091BF01821B930B05962AE030E0B901E8
:101DD0000E94C62D162F6D878091B60190E040912C
:101DE000C0015091C101841B950B0596B9010E9459
:101DF000C62D7B016C8780910001853091F0809128
:101E00006A0790916B076CE070E00E94DA2D892BD5
:101E100009F0F6C39091980181E089278093980199
:101E2000EFC3812F0E940526082FD0906C07C09029
:101E30006D07C094CD201092B7011092C20180911D
:101E4000BC018B3021F01092B8011092C3016E2DAD
:101E5000812F0E940526863079F58091B9019091F5
:101E6000BA0149969093BA018093B90140E06E2D72
:101E7000812F0E942C268091A502882319F0815081
:101E80008093A5028091A502811112C0B12C80918E
:101E9000A602B81668F4EB2DF0E0EE0FFF1FE85530
:101EA000FD4F43E0618180810E942C26B394EFCFE7
:101EB00083E393E00E94551D809199019D2D9C70B4
:101EC0009C3061F58F5F809399018531B0F18D333E
:101ED00090F08D3391F51092990183E884BD8FEFD6
:101EE00087BD81EF809380001092880010928A0055
:101EF0000E94082918C320E430E0A901481B5109B9
:101F0000CA01880F93E894BD9FEF97BD91EF90931E
:101F100080001092880080938A000FC0882369F0A7
:101F200083E884BD8FEF87BD81EF8093800010929E
:101F3000880010928A00109299018C2D84709C2D3B
:101F40009870C3FE2DC081112BC00E94961E88235D
:101F500009F454C08091B50190E02091BE01309108
:101F6000BF01821B930B02966AE070E00E94C62DAF
:101F7000162FCC24CA94C60E6E2D8C2D0E940526D9
:101F8000A82EBB24B394BE0C6B2D8C2D0E9405266D
:101F90008130A1F58FEF8A0D823008F094C22EC0F7
:101FA000882361F191112AC00E94961E882331F185
:101FB0008091B50190E02091BE013091BF01821B5C
:101FC000930B02966AE070E00E94C62D162FCC2477
:101FD000C394C60E6E2D8C2D0E940526A82EBB2400
:101FE000B394BE0C6B2D8C2D0E940526813031F4EC
:101FF0008FEF8A0D823010F00C945218D6FECAC0B2
:102000006E2D812F0E940526082F8091B50190E04A
:102010002091BE013091BF01821B930B6AE070E0FA
:102020000E94C62D6C01892B19F481E0810F01C03B
:10203000812F6E2D0E940526282E552453945E0C68
:10204000C114D10419F481E0810F01C0812F652DE5
:102050000E940526482EC114D10419F08FEF810F7C
:1020600001C0812F652D0E940526382E822D0E94E9
:102070004028682E470199245FEF851A950AA12E02
:10208000B12CA401B501832D0E948425782E0E94D5
:10209000961E9091BC019B3089F4882311F40C9416
:1020A0001F1B7110C1C064E0261621F0043011F02E
:1020B0000C941F1B68E087E00C94B9180E94E82676
:1020C000882341F08DEF800F823010F00C946B1854
:1020D0000C945918C114D10419F481E0810F01C086
:1020E000812F6E2D0E940526782EC114D10419F47B
:1020F00081E0810F01C0812F652D0E940526682E89
:1021000062E06E0DC114D10419F481E0810F01C0A9
:10211000812F0E940526482E862D0E944028682E79
:10212000872D0E944028882311F40C94BC18662047
:1021300011F40C94BC1835018FEF681A780AA401C9
:10214000B301842D0E948425882311F40C94AE18C9
:1021500064E081E00E94A91E1092BC018091C00140
:102160009AE0E99E800D11248093B6018091B5011B
:102170008C3310F482E0C2C02091BE013091BF01C7
:1021800029363F4F24F01092B7018EEFC3C087FF6E
:10219000F1CF8AC1D5FEC4C06E2D812F0E940526C5
:1021A000082F8091B50190E02091BE013091BF01D0
:1021B000821B930B6AE070E00E94C62D4C01892BB4
:1021C00019F48FEF810F01C0812F6E2D0E9405261B
:1021D000382E772473947E0C8114910419F081E0D9
:1021E000810F01C0812F672D0E940526482E832D67
:1021F0000E944028582E5701BB24BFEFAB1ABB0AE0
:10220000C12ED12CA501B601842D0E948425682EF3
:102210000E94961E9091BC019B30B9F4882311F462
:102220000C941F1B662031F01092BC010E943D1CD3
:102230000C94471BE4E03E1621F0043011F00C949E
:102240001F1B69EF86EF0C9414190E94E82688235F
:1022500031F08DEF800F823008F0ADC7B7C7811421
:10226000910419F48FEF810F01C0812F6E2D0E9410
:102270000526082F8114910419F48FEF810F01C0F6
:10228000812F672D0E940526782E62E06E0D811445
:10229000910419F48FEF810F01C0812F0E94052650
:1022A000182F872D0E944028782E802F0E944028CA
:1022B000882311F40C94471B772011F40C94471BCE
:1022C000F1E0CF1AD108A501B601812F0E94842523
:1022D000882309F49DC76FEF8CEF0E94A91E10920E
:1022E000BC018091C0012AE0E29E800D1124809300
:1022F000B6018091B5018D3320F08EEF8093B70148
:10230000D1C02091BE013091BF0137FF06C01092AD
:10231000B70182E08093C201C7C08111EECFC4C073
:10232000D7FE85C08091B60190E02091C001309128
:10233000C101821B930B08966AE070E00E94C62DD3
:102340007B01B62E0E94961ED82E882319F06FEFBF
:102350006E0D01C06E2D812F0E940526C82EDD2036
:1023600019F0BB24B394BE0C6B2D812F0E9405265F
:102370009091BC019530A4F0973044F09B3081F4EB
:10238000043009F068C7D11062C765C7DD2061F16C
:10239000033009F083C08FEF8C0D823028F57EC0AA
:1023A0000E943D1C8091B50190E02091BE013091CA
:1023B000BF01821B930B2AE030E0B9010E94C62DB9
:1023C000863020F0A901481B5109CA0105970CF07D
:1023D00067C0033009F064C08FEF8C0D823008F4C1
:1023E0005FC085E08093BC018091BE015AE0159FDB
:1023F000800D11248093B5011092B7011092C20193
:102400008091B601883120F08EEF8093B8014EC0E4
:102410002091C0013091C10137FF06C01092B80170
:1024200082E08093C3017FC08111EECF7CC0D4FED7
:1024300040C08091B60190E02091C0013091C1016F
:10244000821B930B08966AE070E00E94C62D7B0108
:10245000D62E0E94961EC82E811104C76FEF6E0DF6
:10246000812F0E940526B82ECC2019F0DD24D394AC
:10247000DE0C6D2D812F0E940526D82E8091BC0187
:102480008B3009F059C6043009F4DFC6CC2009F4BA
:1024900001C784EF8B0D843008F0FCC60E943D1C00
:1024A0001092B7011092C2011092B8011092C301AC
:1024B0003AC08091B801823009F4BBCF8091C3014A
:1024C0008E3F89F5B6CF53E0A51609F497CD84EF7A
:1024D0008093BC011092B7011092C20147E06B2DAE
:1024E0008C2D0E942C2680916607843181F0E82F84
:1024F000F0E09F01220F331FE20FF31FE65DF84F5C
:10250000C082B1829CED92838F5F80936607809139
:102510006C0780936D070E94731E80936C0785E1A2
:1025200093E00E94551D80916A0780FD68CC10924F
:10253000D5021092E3021092F1021092FF02109263
:102540000D0310921B0384ED682E82E0782EF301B8
:10255000808184FF4BC0828193816AE070E00E9499
:10256000DA2DD62E6887848195816AE070E00E941A
:10257000DA2DF62E69878D2D0E940526B82ECC24E3
:10258000C394CF0C6C2D8D2D0E940526982EF6E05D
:10259000BF1206C0D30118968C91882309F487C610
:1025A000F30182858D3014F5228133813B872A87A0
:1025B000C9016AE070E00E94DA2D892BB9F4048128
:1025C0001581C8016AE070E00E94DA2D892B71F450
:1025D000E384EE2009F48BC6D30118968C91811107
:1025E0007DC6F3011782838581508387BEE06B0E21
:1025F000711CE8E26E16E3E07E0609F0A8CFFFCB7F
:10260000809100018850833030F480910001833044
:1026100009F0C9C1CDC1C12CD12C812C712CA12CA8
:10262000B12CE090BE01F090BF01EA0CFB1CC70189
:1026300009968938910528F50091C0011091C101D2
:102640000C0D1D1DC801099689349105D0F4682D23
:10265000872D0E940526982E882339F0282F4BE8D5
:102660005AE1B801C7010E94681D29EF290D2430E5
:1026700040F4B8016A50710941E453E0C7010E9477
:10268000681D7394FAE0AF0EB11C2CE17212C9CF31
:1026900083943AE0C30ED11C40E18412BFCF8091F5
:1026A0000001853021F0809198018823F1F080911C
:1026B000BC01082F001F0027001F082E000C990BDB
:1026C00097FF03C0919581959109880F990BFC01A3
:1026D000E35EFE4F408151816091B60170E08091D0
:1026E000B50121E090E00E94332414EDA12E12E008
:1026F000B12E7501D7018C9184FFADC012960D915A
:102700001C9113976090BE017090BF014301800E31
:10271000911E14968D919C911597C090C001D090F8
:10272000C101C80ED91E1B96EC914E2F50E04331CB
:10273000510508F088C0FA01EA5AFF4F0C94432F64
:10274000F7018285082F001F0027001F082E000CAC
:10275000990B97FF03C0919581959109880F990B6B
:10276000FC01E35EFE4F4081518170C0F1E08F1AA1
:10277000910869C02FEF821A920A65C032E0C31A2D
:10278000D108FCC644E0C41AD10807C056E0C51AF7
:10279000D108F4C668E0C61AD10800E04BE653E061
:1027A00055C0AAE0CA1AD1089C012A503109F70184
:1027B000358324831386C8016AE070E00E94DA2D15
:1027C000262EC9016AE070E00E94DA2D462E5524BB
:1027D0005A94520C852D0E9405268F8333243394FE
:1027E000340C632D852D0E9405268887552453942B
:1027F000520C642D852D0E940526482E632D852DB3
:102800000E940526582E8091B50190E086199709FF
:102810008017910764F48F810E944028882309F46F
:10282000A5C688850E944928811197C69FC6842D18
:102830000E944028882309F490C6852D0E944928CB
:10284000811194C68AC600E04DE853E021E0B6014C
:10285000C4010E943324FEE0EF0EF11C28E2E216D0
:1028600023E0F20609F046CF4090B501512C80914B
:10287000BE019091BF01481A590A6090B601712CAF
:102880008091C0019091C101681A790AD5018C919B
:1028900084FF7FC012968D919C911397F201E81BE3
:1028A000F90B14962D913C911597A301421B530BE4
:1028B0009A01C090B6014C2D50E0421B530BE090A2
:1028C000B501473F6FEF5607C4F42E2D30E02E1BA5
:1028D0003F0B2F3FAFEF3A070CF454C62C373105AE
:1028E0000CF058C6E394EE1A8E2DBDEA8B2EB3E0A1
:1028F0009B2E43EE53E090E03AC045335105C4F0BF
:102900002E2D30E02E1B3F0B2F3FBFEF3B070CF46B
:1029100049C62C3731050CF04EC6E394EE1A8E2DC5
:10292000AEE98A2EA3E09A2E42ED53E093E31FC056
:10293000F12CEE1AFF0AECEFEE16EFEFFE064CF468
:102940009C2D921BF0EC8F2EF3E09F2E49EF53E06D
:1029500030C6FCE7EF16F104E4F09C2D921BECEB83
:102960008E2EE3E09E2E44EF53E08CE702C08F3FB3
:1029700081F0C92ED12CE82EF12C00E020E0B60128
:10298000C7010E94332421E0A401B601C7010E94BF
:1029900033242EE0A20EB11C38E2A31633E0B306B6
:1029A00009F074CF32CE873049F48091BD0101C067
:1029B00084E08093000100E010E067C098EF980F7A
:1029C0009330C8F78A3069F400E021E049E554E02B
:1029D00069E170E08AE290E00E94332409E210E0AD
:1029E0003BC0883029F400E021E048E254E02FC0E9
:1029F0001091A402812F64E60E94372F082F282F00
:102A000045EC54E069E170E088E490E00E94681DC4
:102A1000812F44E6049F801911246AE00E94372F19
:102A2000192F282F45EC54E069E170E08DE490E027
:102A30000E94681D212F45EC54E069E170E082E5B9
:102A400090E00E94681D00E021E04EE054E069E162
:102A500070E08BE290E0C0CF41E066E170E0C80139
:102A60000E947B1E0E5F1F4F09351105A9F709E271
:102A700010E041E060E270E0C8010E947B1E0E5F42
:102A80001F4F09351105A9F796CF77E3E72EF12CF3
:102A900040E0B701C8010E947B1E5FEFE51AF50A0E
:102AA00060E4E616F104A1F70F5F1F4F003811052F
:102AB00061F700E010E041E068E370E0C8010E94C7
:102AC0007B1E0E5F1F4F02381105A9F78091B901D7
:102AD0009091BA01FE01319626E0DF011D922A9500
:102AE000E9F77F019E01295F3F4F0AE010E0B8013E
:102AF0000E94DA2D8193CB012E173F07C1F700E02A
:102B000021E04FEE54E06AE370E080E090E00E9444
:102B1000332406E310E0F70121917F0145EC54E0F6
:102B20006AE370E0C8010E94681D05501109083170
:102B3000110589F7F090BB0100E021E042EB54E081
:102B40006AE370E080E490E00E9433241AE08F2D65
:102B5000612F0E94372F092F282F45EC54E06AE39C
:102B600070E082E590E00E94681D202F45EC54E063
:102B70006AE370E087E590E00E94681D80910001A3
:102B8000853071F4F090A50200E021E047E954E0BF
:102B90006AE370E080E690E00E9433248F2D1DC030
:102BA000F090A40200E021E047E854E06AE370E01E
:102BB00080E690E00E94332464E670E08F2D90E080
:102BC0000E94C62D262F082F45EC54E06AE370E0E2
:102BD00081E790E00E94681D802F612F0E94372FAF
:102BE000192F282F45EC54E06AE370E086E790E067
:102BF0000E94681D212F45EC54E06AE370E08BE7EA
:102C000090E00E94681D20910001253009F0C1C1AB
:102C100080916A0790916B0780FD1CC02091B701DD
:102C200021110CC02091B801211108C02091C201CE
:102C3000211104C02091C301222361F02091BC0125
:102C4000ECE0E20FEC3120F4F0E0EE5EFA4F24917C
:102C50002093BC0183709927892B09F445C02091EA
:102C6000B7018091B501280F2093B5011091B801EB
:102C70008091B601180F1093B6018091C201E090C7
:102C8000BE01F090BF01E80EF11C87FDFA94F092AE
:102C9000BF01E092BE018091C3014091C0015091FB
:102CA000C101480F511D87FD5A955093C1014093B2
:102CB000C001812F90E0841B950B0596EAE0F0E0BF
:102CC000BF010E94C62D362F822F90E08E199F09DA
:102CD0000596BF010E94C62D862F632F0E940526F0
:102CE000123008F053C01DC0A4EDB2E088E293E0BA
:102CF0002C9124FF11C01B962C911B97222309F4C1
:102D000063C40AC016962C911697211167C41796B2
:102D10002C911797211162C41E968A179B0741F7C1
:102D20009ECF833099F51091A4021F5F8091BB0163
:102D30008A3018F48F5F8093BB0186E08093000196
:102D40001093A402612F82EB90E00E949E2E1C340F
:102D500008F453C481EB90E00E94902E873008F075
:102D60004AC411E0180F612F81EB90E00E949E2E63
:102D7000612F86EB90E00E949E2E0E94642681E1E6
:102D80008093BD018EE295E00E94551D80916A07F7
:102D900080FF09C080916607882309F464C1F12C83
:102DA0006DE0E62E86C004ED12E0D8018C9184FF20
:102DB00054C016968C91169712964D915C9113976C
:102DC000480F511D87FD5A9513965C934E931297A9
:102DD00017968C91179714962D913C911597F901A0
:102DE000E80FF11D87FDFA951596FC93EE93149765
:102DF0002091B50130E08091BE019091BF01281B68
:102E0000390B8091B601A091C001B091C101790147
:102E100062E0E60EF11CBA01685F7F4FE616F70626
:102E2000E4F44E5F5F4FB901685F7F4F4617570765
:102E3000A4F490E08A1B9B0BAC014E5F5F4F9F0197
:102E4000285F3F4F4217530744F426503109089634
:102E50002817390714F40E940829025F1F4F83E0E6
:102E60000832180709F0A1CF10E000E0612F802F91
:102E70000E94052699EF980F943030F441E0480FF6
:102E8000612F802F0E942C260F5F0C3179F71F5F76
:102E9000103159F77FCF0F2D10E06801CC0CDD1CED
:102EA000F601E00FF11FE65DF84F8281811106C047
:102EB000F39480916607F81670F366C081508283A0
:102EC000803179F030F4813071F0883089F74FE04B
:102ED0004FC0883121F0803259F74CE049C04DE0B5
:102EE00047C04EE045C08091A70290E0880F991F2F
:102EF00084539D4FA4EDB2E05F01AF014F5F5F4F80
:102F00002C9124FF1BC0F5012081FAE02F9F900136
:102F1000112412966D917C9113976217730771F4C7
:102F2000FA012081FAE02F9F9001112414966D91EF
:102F30007C9115976217730709F461C31E9623E00D
:102F4000A832B207E9F6F601E00FF11FE65DF84F8F
:102F500080813D85831306C081814C85841302C026
:102F60000E9408290C0D1D1DF801E65DF84F41E097
:102F7000618180810E942C269BCF0E940227809134
:102F80006607882309F46FC080912C078130A9F36C
:102F90006AC030916C0790916D079095932324300F
:102FA00009F044C080919A0132FF32C08E3268F439
:102FB0008932D0F083E884BD8FEF87BD81EF8093A5
:102FC000800080E4809388000BC0833388F483E81A
:102FD00084BD8FEF87BD81EF8093800010928800C1
:102FE00010928A0080919A018F5F80939A013BC072
:102FF0008091A40297FF04C08B3410F48F5F05C04A
:1030000094FF31C0843378F181508093A4022BC0A7
:10301000882371F0833300F1883218F082E08093C6
:10302000000110929A01911117C01DC010929A01CF
:103030009923C9F02B3040F4293048F4273049F067
:10304000283051F481E00DC0213169F005C082E0E3
:1030500008C08091BD0105C010926D0710926C07E9
:1030600085E08093000180919901811112C38091C4
:103070009A0181110EC38091A502811106C0909121
:103080000001953019F480E201C080E093E894BD1E
:10309000809587BD81EF8093800010928800109208
:1030A0008A00F7C263E0A61611F40C94FE0F8CE0C0
:1030B0000FCA662009F4EBC2772019F064E081E0C2
:1030C00004C0043029F46AE087E00E94A91E46C8C3
:1030D00066E085E0FACFC114D10441F4A401B50142
:1030E000832D0E94AA25811183C0ABC2611003C049
:1030F00071108BC00AC0A401B5016F5F7F4F842D92
:103100000E9484258111DACF03C0CD2809F4BFC203
:10311000B5016F5F7F4FA401842D0E94AA25811104
:10312000CDCF1092B7011092C201882309F4BCC917
:103130008BE08093BC010FC063E0D61295C08091F4
:10314000BE019AE0199F800D11248093B5016BEFA9
:103150008AEF0E94A91E0E94B21EE5C9CD2879F40B
:10316000A401B301842D0E94AA258823D1F266E030
:1031700085E00E94A91E1BC0CD2809F488C2652DD8
:10318000812F0E940526182F802F0E944028882317
:1031900009F47DC2B5016F5F7F4FA401812F0E94AA
:1031A000AA25882309F4BDCF8BE08093BC010E943F
:1031B0003D1C0C94AE108114910411F5A501B601CB
:1031C000842D0E94AA25811113C05EC2552009F4E6
:1031D0005EC2662019F06FEF8CEF04C0043029F452
:1031E00069EF86EF0E94A91E7CC866E085E0FACFF1
:1031F0008BE08093BC0183EC91E00E94551D1FC2BF
:10320000511024C2662009F41FC21092BC013FC2B3
:10321000892869F4A501B601812F0E94AA25882377
:1032200009F47FCF66E085E00E94A91E0BC0A501CE
:10323000B601812F0E94AA25882309F472CF8BE062
:103240008093BC010E943D1C4CC8CC2019F187E042
:103250008093BC0123C9A70155274F5F5F4F612FA2
:1032600070E01FC06E2DFCC88D2D0E94402881117A
:1032700003C01092BC0112C9D11003C08BE080932F
:10328000BC018091BE01AAE01A9F800D1124809399
:10329000B50161CFA70155274F5F5F4F612F70E0E8
:1032A0008D2D0E948425882309F455CFE2CF0E94FA
:1032B000392E0E94392E2AE030E040E050E00E9492
:1032C000D42EDC01CB014496A11DB11DF3018087F2
:1032D00040E06F2D8D2D0E942C2662C9FA946F2D2F
:1032E0008D2D0E940526882309F42FC17AC96FEF1E
:1032F0006F0D8D2D0E9405268F836F2DAA24A39418
:10330000AD0C8A2D0E940526582E6C2D8A2D0E9408
:103310000526482E6C2DCC24CA94CD0C8C2D0E94F1
:103320000526382E6F2D8C2D0E940526282E809183
:10333000B50190E02091BE013091BF01821B930B3B
:103340002A853B85281B390BC9012091B60130E045
:103350004091C0015091C101241B350B021B130B7E
:10336000D30119962C9119972223D1F01F922F92F5
:103370003F92892CA42CC52CEF800B2D1D962C91EF
:103380004F2D6D2DC3010E94CC1EF30191859150EC
:1033900091870F900F900F90811128C9148561C0FB
:1033A00097FF1FC0101611065CF491958195910945
:1033B00008171907C4F180179107BCF511E046C042
:1033C00001151105A1F1919581959109119501952D
:1033D0001109801791076CF10817190764F515E0BA
:1033E00035C00097C9F01016110644F408171907E4
:1033F00024F1801791071CF51FE028C00115110565
:1034000001F111950195110980179107E4F0081752
:103410001907DCF41BE01AC0111F1127111F110F2F
:10342000110F110F13C013E011C012E00FC014E010
:103430000DC017E00BC016E009C01DE007C01EE07C
:1034400005C01CE003C019E001C01AE0EDEFE10F78
:10345000EC3020F4F0E0EF5EFE4FE080D3011D96EB
:10346000EC92F3018085882389F09FEF990D9230CB
:1034700068F4B1100BC08150D30118968C93811160
:1034800005C046E06F2D8D2D0E942C26B1E0BF9324
:103490002F923F92892CA42CC52CEF800B2D212F2D
:1034A0004F2D6D2DC3010E94CC1E0F900F900F90D9
:1034B00081119CC8F12E08E0D02E112311F011507B
:1034C00001C01FE0E1E0EF932F923F92892CA42CE2
:1034D000C52CEF800B2D212F49856885C3010E94E3
:1034E000CC1E0F900F900F90882339F0D3011A96BD
:1034F0008C918B3009F07AC81EC0BFE0FB1611F02A
:10350000F39401C0F12CE1E0EF932F923F92892CCC
:10351000A42CC52CEF800B2D2F2D49856885C30168
:103520000E94CC1E0F900F900F908111DFCFDA9484
:10353000D110C3CFDBCF892D0E944928882309F4FD
:1035400055C8D30117961C9251C8F301108646E066
:103550006F2D8D2D0E942C2644C8EFEFD7011A96AF
:10356000EC931A97FEEF1696FC9308C081E0D70102
:103570001A968C931A97E2E01696EC9300E04CE7CB
:1035800053E064C935EB832E33E0932E4CEE53E0C9
:1035900090E00FC02BEC822E23E0922E46E054E008
:1035A00090E010C096EA892E93E0992E4BED53E0FF
:1035B00092E380E0DEC984EC882E83E0982E4EEF03
:1035C00053E092E38BE7D5C91A96EC911A9723EF53
:1035D0002E0F233008F096CBE45F05C02CE02E0FB1
:1035E0002C3128F4E22FF0E0EE5EFA4FE4911A96C7
:1035F000EC931A9791CB82E1C3CB89E0C1CBFC015C
:1036000060812181FAE06F9FB001112413967C93B1
:103610006E9312976AE0269F9001112415963C93B1
:103620002E9314971A96EC921A971B961C921B973E
:1036300016961C92169717961C9217977FCC81E0CE
:1036400070CD61103BCD54CD892809F1672D812FB4
:103650000E940526182F802F0E944028882349F0B9
:10366000A501B60161507109812F0E948425811145
:10367000B2CDB60161507109A501812F0E94AA2522
:10368000882309F44ECDA7CD5110A5CDBBCD80E048
:1036900048CD2D960FB6F894DEBF0FBECDBFDF919B
:1036A000CF911F910F91FF90EF90DF90CF90BF903F
:1036B000AF909F908F907F906F905F904F903F90D2
:1036C0002F900895CF92DF92EF92FF920F931F9366
:1036D000CF93DF936C017A018B01C0E0D0E0CE156F
:1036E000DF0581F0D8016D918D01D601ED91FC913E
:1036F0000190F081E02DC6010995892B11F02196EA
:10370000EECF7E01C701DF91CF911F910F91FF9006
:10371000EF90DF90CF9008958091A401E091A201F5
:10372000F091A301882349F0CF0102969093A30161
:103730008093A201859194910895CF010296909370
:10374000A3018093A20180819181089580919B01C2
:1037500008950895089580E090E00895FC01228581
:10376000261714F0421714F4FC01628708950E9492
:10377000492FBF92CF92DF92EF92FF920F931F9348
:10378000CF93DF93FC0166834783862F880F880FD2
:10379000860F382F3F70942F990F990F940F50E197
:1037A0009502C0011124832B818367FF02C08CE046
:1037B00003C0662311F084E0848747FF02C01486AB
:1037C00004C0442311F088E08487222309F44BC00D
:1037D0008185811148C0EF018485811134C01D8627
:1037E0008A819B812AE030E0B9010E94DA2D162FF0
:1037F0008C819D81B9010E94DA2DFF24FA94F60E86
:1038000000E0CC24CA94C10EBB24B394B10EDF2CCB
:10381000D01A6D2D812F0E940526833091F46D2DD5
:103820008C2D0E940526E82E6D2D8B2D0E940526DD
:103830000F5F9DEF9E0D923020F09DEF980F92301C
:1038400060F4098710C00E94392E26E030E040E085
:1038500050E00E94D42E698706C08111D8CF8150D4
:103860008330A8F6EECFDF91CF911F910F91FF909B
:10387000EF90DF90CF90BF900895E1E7F0E0808176
:103880008D7F808310929100469847981092A101F5
:103890000895CF92DF92EF92FF920F931F93CF93F1
:1038A000DF930E948C1B811520E8920751F4DF9171
:1038B000CF911F910F91FF90EF90DF90CF900C94DC
:1038C0003D1C21E02093A101813020E8920751F4B2
:1038D00080919F019091A0019093A3018093A201F8
:1038E0000E948C1B97FD05C020919E01222309F4A4
:1038F00040C020919D0121113CC021E02093A501F1
:10390000EC01DF77209769F481E08093A601469867
:103910003FE9C32E3FE0D32EE12CF12CCAEFD0E0DB
:1039200014C08E0120E030E060E472E48FE090E0AB
:10393000A90198010E94D42E69017A0181E0C81A78
:10394000D108E108F1081092A601E0912807F09152
:1039500029070995811103C081E08093A601809118
:10396000A501882309F43FC08091A60181113BC0C5
:1039700003C01092A501C4CF469935C0479A0E9452
:103980008C1B009771F09C01DE010E94282FDC0146
:10399000CB0129E0B595A795979587952A95D1F7FD
:1039A00003C08FEF9FEFDC01109290002AE020937C
:1039B0009100D0929900C09298008093A7019093B3
:1039C000A801A093A901B093AA018091710082601F
:1039D00080937100DF91CF911F910F91FF90EF9035
:1039E000DF90CF9008954798CACF1F920F920FB6DD
:1039F0000F9211242F933F934F935F936F937F9375
:103A00008F939F93AF93BF93EF93FF938091A70101
:103A10009091A801A091A901B091AA01892B8A2BAC
:103A20008B2B81F18091A60181110BC098B180E4AC
:103A3000892788B98091A501882319F088B1805819
:103A400088B98091A7019091A801A091A901B09196
:103A5000AA01181619061A061B06B4F48091A701CC
:103A60009091A801A091A901B091AA010197A10983
:103A7000B1098093A7019093A801A093A901B093E5
:103A8000AA0102C00E94491CFF91EF91BF91AF9122
:103A90009F918F917F916F915F914F913F912F9166
:103AA0000F900FBE0F901F9018959C01E1E7F0E07A
:103AB00090819D7F908381E08093A4013093A30146
:103AC0002093A2013093A00120939F010C94491CE4
:103AD0004F925F926F927F928F929F92AF92BF921E
:103AE000CF92DF92EF92FF920F931F93CF93DF93CA
:103AF00000D000D0CDB7DEB7DC014115510509F487
:103B0000D8C0FA01F490319694914E5F5F4FCF2C5C
:103B1000D12C2223D9F0E1E0F0E0892F877011F455
:103B2000E0E0F0E0892F869586958695E80FF11DF7
:103B3000EC9D8001ED9D100DFC9D100D1124209F2A
:103B4000F001219FF00D11244E0F5F1FF601EA0FC7
:103B5000FB1F1E161F060CF0ACC0A038B1050CF000
:103B6000A8C09B01290F311D121613060CF0A1C02D
:103B7000603471050CF09DC04115510509F499C0E0
:103B8000062F0770B02E9B0177FF02C0295F3F4FC1
:103B900083E0359527958A95E1F7822F77FF04C05A
:103BA000BB2011F08FEF820FB7FF05C0222733270C
:103BB0002A1B3B0B02C020E030E0E038F10524F086
:103BC00070E87A1B672E01C06F2C621A082F082E2E
:103BD000000C110B8F3F1CF4F02FF09501C0F0E0AA
:103BE000EE24E394692F677009F4E12CE92FE69540
:103BF000E695E6959E2D9E0F090F111D09301105C2
:103C000014F098E0981B6F2F680F8901FF9E000D3C
:103C1000111D1124400F511F01E010E00B2C02C0B8
:103C2000000F111F0A94E2F7EFEFE09F7001E19F90
:103C3000F00C1124E094F094FC82EB82AC8070E8EC
:103C40006703A00DB11D11242A0F3B1F285D3C4FB7
:103C5000992E980E961669F1D9012A01842D841B9C
:103C6000861508F5F2018490809EC001819E900D1A
:103C700011249A83898367FD04C09C919E21892B1E
:103C80008C93BB2059F067304CF4CD0180589F4F86
:103C9000FC0180808A207A8087288082FFEF4F1A7B
:103CA0005F0A1196DBCF6F5F4C0D5D1D20583F4FB3
:103CB000D1CF0F900F900F900F90DF91CF911F9168
:103CC0000F91FF90EF90DF90CF90BF90AF909F90BB
:103CD0008F907F906F905F904F900895BC0180E02F
:103CE00090E00C94F9238FB18095807F669B88606B
:103CF0001C9B8460089580389105B8F46034710588
:103D0000A0F490E121E061FD24E060FD220F62FD5E
:103D10002295687F969FD0011124A80FA85DBC4F03
:103D20008C91822B40FF82278C9308958091B6015D
:103D300090E02091C0013091C101821B930B6AE099
:103D400070E00E94C62D9C0181E0232B09F080E0E9
:103D500008959091BC01981714F0691714F480939A
:103D6000BC0108951092B7011092C20182E08093C5
:103D7000B8011092C3018091B601873160F0809143
:103D8000C0019091C10189399F4F2CF01092B80168
:103D90008EEF8093C30108953F924F925F926F928E
:103DA0007F928F929F92AF92BF92CF92DF92EF92CB
:103DB000FF920F931F93CF93DF93CDB7DEB7142FEE
:103DC000902E3C88BE8830E02031310508F028C1B3
:103DD000082D7E2D462E3C01F901E658FF4F0C942C
:103DE000432FEE2029F07350723010F010E001C024
:103DF00011E046EF60E0C3010E94902693E0991223
:103E00000FC1112309F40CC181110AC146E065E01C
:103E1000C3010E94AE1B2B2D4EEF60E0C3010E9438
:103E2000B91B0FC140E06AE00E94902691E0D82EB5
:103E3000D926E12EF12CEFEFEE1AFE0A512CA70144
:103E4000B201882D0E94D925382EB2016F5F7F4FB5
:103E5000A7018A2D0E94D925F82E8C2D0E9440287A
:103E6000182F8A2D0E944928F4E0CF1205C0DD20CA
:103E700019F04AE067E00DC094E0991211C01123D7
:103E8000C9F0882309F4D0C0DD2009F4D4C044E08F
:103E900061E0C3010E94AE1B2B2D40E062E099C09F
:103EA000E3E09E1207C0112329F0DD2019F046E05F
:103EB00065E0EFCF311093C0882321F0112309F47E
:103EC000AFC006C0112309F4ABC0FF2009F4A8C09D
:103ED000DD2009F4A5C0DBCF4AE060E00E94902617
:103EE00091E0F82EF926412F50E04F5F5F4F642D8F
:103EF00070E0882D0E94D925033061F4FF2009F479
:103F00008FC04BEF6AEFC3010E94AE1B2B2D42E026
:103F100060E05FC0882309F483C0FF2009F480C0FB
:103F20008BE0F30182872B2D42E060E0C3010E9409
:103F3000B91B0750093008F075C08FE1F301838782
:103F400071C040E066EF0E94902691E0582E5926FD
:103F5000E12EF12CFFEFEF1AFF0AC42CD12CA701A0
:103F6000B601882D0E94D925A82EB601615071098D
:103F7000A701832D0E94D925F82E8D890E94402803
:103F8000182F832D0E9449289D89943029F45520AB
:103F900019F049EF66EF17C0E4E09E120BC0112341
:103FA000E1F0882309F444C0552009F447C04FEFDD
:103FB0006CEF09C0F3E09F1210C0112371F055207F
:103FC00061F046E065E0C3010E94AE1B2B2D40E08E
:103FD0006EEFC3010E94B91B25C0AA20A1F08BE09F
:103FE000F30182872B2D42E060E0C3010E94B91BE0
:103FF00007500930B8F48FE1F301838780E89CE132
:104000000E94551D0FC0882329F0112349F0552027
:1040100039F0CDCF112321F0FF2011F05110B9CF8D
:1040200010E00FC011E00DC0332009F44ECFD7CF00
:10403000AA2091F3D4CF332099F3D1CFAA2081F3D2
:10404000CECF812FDF91CF911F910F91FF90EF90F5
:10405000DF90CF90BF90AF909F908F907F906F90A8
:104060005F904F903F900895CF93DF931F92CDB70D
:10407000DEB76983DC01ED91FC910280F381E02DD4
:1040800041E050E0BE016F5F7F4F09950F90DF91D7
:10409000CF91089583E08093E9008091F200882316
:1040A00019F08AE38093E8000895FC0184859585E2
:1040B00097FD0BC09FB7F89482E08093E900809150
:1040C000F2009FBF90E0019608959FB7F89482E0B8
:1040D0008093E9008091F2009FBF90E008954091A5
:1040E000AE015091AF012091AC013091AD0142176A
:1040F0005307B4F49091E8009570E1F39091E800D3
:1041000092FD19C08093F1008091AE019091AF01B2
:1041100001968F739927892B19F48EEF8093E8000D
:104120008091AE019091AF0101969093AF01809381
:10413000AE0181E0089580E00895DF92EF92FF9252
:104140000F931F93CF93DF93D82E8A017B01E40E48
:10415000F51EEB01CE15DF0571F0D7FE03C0FE01A1
:10416000849101C088810E946F2021968111F2CF35
:104170008FEF9FEF01C0C801DF91CF911F910F9189
:10418000FF90EF90DF900895615030F02091F100A2
:10419000FC0120830196F8CF289884E68093B30130
:1041A00008950E94592790E008950F931F93CF938D
:1041B000DF931F92CDB7DEB78C01FC018485958516
:1041C00097FF0EC0CE0101960E942B27019719F48C
:1041D000898190E002C08FEF9FEFF8019587848777
:1041E000F801848595850F90DF91CF911F910F91F4
:1041F0000895CF93DF931F92CDB7DEB7FC0184857E
:10420000958597FD05C02FEF3FEF358724870BC0BD
:10421000CE0101960E942B27019719F4898190E025
:1042200002C08FEF9FEF0F90DF91CF9108950F9312
:104230001F93CF93DF931F92CDB7DEB782E08983C0
:1042400042E450E06EE87CE180E80E949D200E94FC
:10425000F027DC0112960D911C91139701151105A1
:1042600089F0D801ED91FC910280F381E02DBE012F
:104270006F5F7F4FC801099597FD04C0F801008565
:104280001185ECCF89810F90DF91CF911F910F9114
:1042900008951F920F920FB60F9211248F939F9340
:1042A0008091E1009091E100937F9093E10083FF82
:1042B0000FC01092E90091E09093EB001092EC0097
:1042C00092E39093ED001092B40198E09093F00087
:1042D00082FF20C093E09093E9009091F20099232F
:1042E00019F09AE39093E8009091B101992339F085
:1042F0009091B10191509093B101992389F19091DE
:10430000B301992339F09091B30191509093B30187
:10431000992341F184FF10C08091E2008E7E81607C
:104320008093E2008091E1008F7E8093E100809194
:10433000B2018E7E806111C080FF16C08091E200C4
:104340008E7E80618093E2008091E1008E7E80937A
:10435000E1008091B2018E7E81608093B20104C041
:104360005D9ACDCF289AD6CF9F918F910F900FBE97
:104370000F901F9018951F920F920FB60F92112455
:10438000CF92DF92EF92FF920F931F932F933F9361
:104390004F935F936F937F938F939F93AF93BF934D
:1043A000EF93FF93CF93DF93CDB7DEB76C97DEBF6C
:1043B000CDBF1092E9008091E80083FFFBC168E067
:1043C000CE0145960E94C42082EF8093E8008D893B
:1043D00087FF05C09091E80090FFFCCF03C09EEFDF
:1043E0009093E800982F907609F0C6C09E894F8977
:1043F000588D2F89F88C91110CC0803829F4809148
:10440000AB018093F10002C01092F1001092F10014
:1044100045C1913051F4811141C14130510509F03C
:104420003DC18091AB018D7F0BC0933061F4811150
:1044300035C14130510509F031C18091AB01826035
:104440008093AB012BC1953049F48091E80080FF47
:10445000FCCF822F80688093E30020C1963009F062
:104460005EC00B8D1C8D22E01092E9001092AF010E
:104470001092AE01F21232C01092AD011092AC0156
:104480000E94172199E0BE016F5F7F4FDB01E92F8A
:104490001D92EA95E9F79983FA8291E09E8390EA6A
:1044A00098879AEF99872091AE013091AF01275FED
:1044B0003F4F3C832B838D831092E9001092AF0114
:1044C0001092AE011093AD010093AC0149E050E0B1
:1044D00080E00E949D200E941721E0C01093AD0152
:1044E0000093AC010E94F027DC0112960D911C9103
:1044F00013970115110509F4BBC0D801ED91FC918A
:104500000480F581E02DBE016B5E7F4FC8010995E7
:10451000009709F0C7C0F80100851185EACF9730F0
:1045200009F445C1983021F481E08093F100B6C0D0
:10453000993009F0B3C0837009F039C1E9E7F1E0BF
:1045400081E031E096E32081211109C08EE780935C
:10455000EA001092EA008F898093B4019FC0809393
:10456000E9003093EB0021912093EC009093ED0053
:104570008F5F873041F7EACF8B8D9C8D1092E900D9
:104580001092AF011092AE019093AD018093AC01F7
:10459000898D811153C08E899D89913A49F4813268
:1045A00009F005C147E050E065E071E080E0BBC084
:1045B000913209F0FCC0833269F48F89988DA0E0B4
:1045C000B0E08093010190930201A0930301B093A6
:1045D000040164C0803269F48091E80082FFFCCF5E
:1045E00067E085E091E00E94C4208BEF8093E800B3
:1045F00055C0823209F052C08F8980930C01EEEFD2
:10460000FFE7859194918B3F9C4D19F0E0E0F8E035
:1046100002C0EEEFFAE08091050190910601A091B1
:104620000701B0910801803B9440A105B10509F054
:104630009EC080910C0180FF79C099C00E94F02734
:10464000FC01028113810115110509F4B0C0D801E4
:10465000ED91FC910190F081E02DBE016B5E7F4FEA
:10466000C801099581111AC0F80100851185EBCFA9
:10467000F1E0FF1609F44EC0F3E0FF1298C08F89F5
:10468000882309F44AC0823089F440E867E082EF69
:104690009CE10E94452D882309F489C08EEF809308
:1046A000E80088C018161906CCF381C0813029F4BF
:1046B00040E86BE086EE9CE1ECCF833009F077C0F8
:1046C0000E94F027DC011296ED90FC9013978E016A
:1046D0000F5F1F4F6801E114F10479F0D701ED91EC
:1046E000FC910680F781E02DB801C7010995080FFC
:1046F000111DF701E084F184EECFD8011C92F60180
:1047000001900020E9F73197BF016C197D0940E065
:10471000C601BFCF64ED7CE102C060ED7CE1FB012E
:10472000449150E080E80E949D20B8CFEE3F2AE0FF
:10473000F20751F0808191818737A7E79A0721F02E
:104740009093FF0A8093FE0A87E797E7918380831F
:10475000809160008093B0019BE088E10FB6F894EF
:10476000A895809360000FBE9093600097CF8081E2
:1047700091818737974709F091CFA8958091600084
:104780008861809360008091B00180936000EE3F6B
:10479000BAE0FB0739F08091FE0A9091FF0A9183FD
:1047A00080837CCF1092FF0A1092FE0A77CF81E2BD
:1047B0008093EB006C960FB6F894DEBF0FBECDBFB2
:1047C000DF91CF91FF91EF91BF91AF919F918F9129
:1047D0007F916F915F914F913F912F911F910F9119
:1047E000FF90EF90DF90CF900F900FBE0F901F9033
:1047F00018958F929F92AF92BF92CF92DF92EF92D5
:10480000FF926B017C010E9499284B015C01C1144D
:10481000D104E104F104F1F00E949928DC01CB01FC
:1048200088199909AA09BB09883E9340A105B105D9
:1048300070F321E0C21AD108E108F10888EE880E71
:1048400083E0981EA11CB11CC114D104E104F10441
:1048500019F7DDCFFF90EF90DF90CF90BF90AF9032
:104860009F908F9008952F923F924F925F926F92F8
:104870007F928F929F92AF92BF92CF92DF92EF92F0
:10488000FF920F931F93CF93DF93CDB7DEB72F9790
:104890000FB6F894DEBF0FBECDBF4C017B012C8755
:1048A0000D875A8349831C821B821D821E8268E009
:1048B00070E0CE0101960E9454281C019C012F5FDC
:1048C0003F4F3B872A8768E070E0CE0101960E9447
:1048D00054288C0161E070E0CE0101960E945428BA
:1048E0002A853B85280D391D37FDF5C030E8831634
:1048F00091040CF0F0C00F5F1F4F98012E0D3F1D6B
:1049000037FDE9C040E4E416F1040CF0E4C06701AF
:10491000F7FE04C0CC24DD24CE18DF0857E0C52202
:10492000DD249701F7FE02C0295F3F4F390123E0E4
:10493000759467942A95E1F7F7FE09C091E0691A2A
:10494000710828E030E0A9014C195D096A0198015D
:1049500017FF02C0295F3F4F290193E05594479408
:104960009A95E1F707701127012B19F05FEF451AAF
:10497000550A0D85002311F0710102C0E12CF12CC4
:10498000898701E010E0A12CB12C88E090E09C0127
:104990002C193D093F872E87A414B5040CF09BC049
:1049A00041E050E058874F8361E070E0CE0101960E
:1049B0000E945428892B31F48F819885029698871C
:1049C0008F83F2CF6F817885CE0101960E945428A3
:1049D000DC01119640E050E04A175B0708F072C016
:1049E00099859111102B000F09F069C093012A0DD0
:1049F0003B1DC9010196099708F043C0C4018E0D03
:104A00009F1D80389105E8F5B9017695762F6627C8
:104A100077956795680D791D6E0D7F1D2F3F0FEF00
:104A2000300709F454C0812F0C2C01C0880F0A9460
:104A3000EAF7FB01E85DFC4F0C85002319F090813B
:104A4000892B03C08095908189238083C114D10470
:104A5000C1F027303105A9F0812F90E00E8402C00B
:104A6000959587950A94E2F7FB01E855FC4F2C8554
:104A7000222319F01081812B03C08095108181239E
:104A800080830D85011110C02FEFE21AF20A8A858A
:104A90009B85E816F9068CF09FEFA91AB90A01E088
:104AA00010E0E12CF12C0BC001E0E01AF108F7FE58
:104AB00004C02FEFA21AB20A710101E010E04F5FAB
:104AC0005F4F8ACF398541E03427398765CFC114DC
:104AD000D10411F6D6CF2F960FB6F894DEBF0FBED5
:104AE000CDBFDF91CF911F910F91FF90EF90DF909D
:104AF000CF90BF90AF909F908F907F906F905F907E
:104B00004F903F902F9008958150833008F18AE0B4
:104B1000869F9001879F300D1124849FB001859F4F
:104B2000700D1124E4EDF2E0808184FF0AC08281DF
:104B300093818217930729F48481958186179707BB
:104B400039F03E9683E0E832F80771F780E0089587
:104B500081E00895873028F4843038F5882329F1DE
:104B600026C0803120F58AE0869F9001879F300D16
:104B70001124849FB001859F700D1124E4EDF2E0B3
:104B8000808184FF0DC082858B3051F482819381B6
:104B90008217930729F4848195818617970739F046
:104BA0003E9683E0E832F80759F781E0089580E007
:104BB0000895853031F118F4882319F124C0875005
:104BC000883008F58AE0869F9001879F300D112478
:104BD000849FB001859F700D1124E4EDF2E0808187
:104BE00084FF0AC0828193818217930729F484810C
:104BF00095818617970739F03E9683E0E832F807EB
:104C000071F781E0089580E008958C31F8F46F3FEA
:104C1000F9F06031F8F4982F969570E080FD0BC0A4
:104C200080E1989F600D711D1124FB01E254FE4F3D
:104C30008681829509C080E1989F600D711D1124C5
:104C4000FB01E254FE4F86818F70089581E0089544
:104C500080E0089582E00895982F9695E62FF0E081
:104C600080FD0EC080E1989FE00DF11D1124E254FB
:104C7000FE4F86818F7090E1499FA001112409C0E9
:104C800080E1989FE00DF11D1124E254FE4F8681D2
:104C9000807F482B46830895CF93DF9382EB90E08B
:104CA0000E94902E8093A40283EB90E00E94902EAD
:104CB000C5EBD1E08E8384EB90E00E94982E9D831B
:104CC0008C83DF91CF9108951F93CF93DF93C09191
:104CD000A4026C2F82EB90E00E949E2E6C2F87EB3B
:104CE00090E00E949E2EC5EBD1E01E81612F83EBE8
:104CF00090E00E949E2E612F88EB90E00E949E2EF5
:104D00000C80DD81C02DBE0184EB90E00E94B02EAE
:104D1000BE0189EB90E0DF91CF911F910C94B02EF2
:104D2000EF92FF920F931F93CF93DF93DC01E4ED9B
:104D3000F2E088E293E0062E000C770B042E000CC4
:104D4000550B208124FF1EC02F703C913F7023170C
:104D5000C9F01181212F2F70C281D381C20FD11DC3
:104D600012962D913C911397260F371F7E010AE072
:104D7000E00EF11C2E153F052CF4265F3F4FC217A5
:104D8000D30734F03E968E179F07D9F680E019C0FE
:104D900012951F70C481D581C10FD11D14962D911C
:104DA0003C911597240F351F7E010AE0E00EF11C9F
:104DB0002E153F053CF7265F3F4FC217D30714F768
:104DC00081E0DF91CF911F910F91FF90EF900895B7
:104DD0008091B60190E02091C0013091C101821B09
:104DE000930B2AE030E0B9010E94C62D863020F0F6
:104DF000A901481B5109CA0121E005970CF020E0E8
:104E0000822F0895CF92DF92EF9220916607822F32
:104E100090E0FC01EE0FFF1F8E0F9F1FFC01E65D6F
:104E2000F84FC080D180E2808FEF820F80936607B9
:104E3000EAE2F7E090E0981740F42381348145815D
:104E40002193319341939F5FF6CF8E2DB601EF9062
:104E5000DF90CF9008952091B401211103C08FEF0E
:104E60009FEF08955FB7F89422E02093E900209126
:104E7000F20030E01216130614F421E030E0422F65
:104E8000FC0184E6415038F028988093B30190915A
:104E9000F1009193F7CF2115310521F08091F200B7
:104EA000882319F05FBFC90108958BE68093E8005D
:104EB000F9CF2FB7F89483E08093E9009091E80050
:104EC000892F807295FF04C09091F20080E4891BC5
:104ED0002FBF08958F929F92AF92BF92CF92DF9291
:104EE000EF92FF920F931F93CF93DF936C017B019F
:104EF0008A0180910C01882309F45CC08091B4017F
:104F0000882309F457C08091B20180FF05C08091C9
:104F1000E00082608093E000E801B12C8AEFA82EC7
:104F200093E0892E2AE3922E209711F4BB20D9F129
:104F30000E94592781110AC0AA94AA20D9F161E0E0
:104F400070E080E090E00E94F923EECF282F30E05F
:104F5000C217D3070CF48C2F9FB7F8948092E90006
:104F60002091E80025FF1DC0282F30E0C21BD30B85
:104F7000F701815020F041914093F100FACFE20E09
:104F8000F31EBB2019F09092E8000AC08091E8005F
:104F900085FD07C09092E800BB24B394209709F0E8
:104FA000B12C9FBFC1CF5D9884E68093B1011016EC
:104FB000110644F081E090E0F6019383828380E063
:104FC00090E001C0C801DF91CF911F910F91FF9038
:104FD000EF90DF90CF90BF90AF909F908F9008950B
:104FE0008091760781110DC082E08093720784E082
:104FF00080937307109275071092740781E0809375
:10500000760782E797E00895CF93DF93D82F8FEA52
:1050100090E00E94902EC82F80EB90E00E94902E8E
:10502000D11104C0CC3411F4823539F16CE48FEA2B
:1050300090E00E949E2E62E580EB90E00E949E2E02
:1050400086EB90E00E94902E682F81EB90E00E940A
:105050009E2E87EB90E00E94902E682F82EB90E0CE
:105060000E949E2E88EB90E00E94902E682F83EB8A
:1050700090E0DF91CF910C949E2EDF91CF91089517
:10508000882329F083508D3010F080E0089581E06E
:105090000895813028F0843028F08750893010F04E
:1050A00080E0089581E008951F93CF93DF93DC01A2
:1050B00020E030E040E050E011E0C1E0D0E0261711
:1050C000370791F114968C911497811115C014969D
:1050D0001C93149712968D919C911397ED91FC91CE
:1050E0001197E80FF91FE4911596EC931597019627
:1050F00013969C938E93129714969C9114971596E1
:105100008C911597892349F0FE01022E02C0EE0F03
:10511000FF1F0A94E2F74E2B5F2B990F14969C9376
:1051200014972F5F3F4FCBCFCA01DF91CF911F91D3
:1051300008953FB7F8948091E1079091E207A0911C
:10514000E307B091E40726B5A89B05C02F3F19F0EF
:105150000196A11DB11D3FBFBA2FA92F982F8827F7
:10516000820F911DA11DB11DBC01CD0142E0660F52
:10517000771F881F991F4A95D1F708951F920F92A4
:105180000FB60F9211242F933F938F939F93AF935A
:10519000BF938091DC079091DD07A091DE07B0916D
:1051A000DF073091E00723E0230F2D3720F401962D
:1051B000A11DB11D05C026E8230F0296A11DB11D3A
:1051C0002093E0078093DC079093DD07A093DE0730
:1051D000B093DF078091E1079091E207A091E30788
:1051E000B091E4070196A11DB11D8093E107909352
:1051F000E207A093E307B093E407BF91AF919F91BB
:105200008F913F912F910F900FBE0F901F90189587
:105210008091BB0181508093BB0196E09093000187
:10522000811102C088E001C08AE08093BD018AEF4D
:105230009CE10C94551DCF93DF93CDB7DEB7279734
:105240000FB6F894DEBF0FBECDBF789484B58260F0
:1052500084BD84B5816084BD85B5826085BD85B51A
:10526000816085BD80916E00816080936E00109298
:105270008100809181008260809381008091810013
:1052800081608093810080918000816080938000A4
:105290008091910082608093910080919100816063
:1052A0008093910080919000816080939000809124
:1052B000C10084608093C1008091C10082608093AE
:1052C000C1008091C10081608093C1008091C300C2
:1052D00081608093C3008091C00082608093C00091
:1052E0008091C20081608093C20080917A008460C6
:1052F00080937A0080917A00826080937A00809116
:105300007A00816080937A0080917A00806880932F
:105310007A001092B4011092AB011092B201809108
:10532000D70081608093D70080EA8093D80089B548
:10533000806189BD89B5826089BD09B400FEFDCF59
:1053400061E070E080E090E00E94F9238091D80055
:105350008F7C80618093D8008091E000807F809373
:10536000E0008091E1008E7E8093E1008DE08093EB
:10537000E200559A209A81EC80937C0085B1806F81
:1053800085B984B1877E84B984B1876E84B95E9A09
:105390005F988AB1806D8AB9769A6E9881B3806F72
:1053A00081BB899880B38D7080BB80E58CBD81E026
:1053B0008DBD85E090E00E946E1E5F9A85E090E0D2
:1053C0000E946E1E5E985C98E0ECF8E184918EBDC0
:1053D00000000DB407FEFDCF319648E1ED3CF40727
:1053E000A9F75C9A81E880936400809165008160F0
:1053F000809365000E94731E87FF24C05C9885EA35
:105400008EBD00000DB407FEFDCF5C9A2E982F983C
:105410002D988091640080628093640081E083BF56
:10542000889513BEFCCF2D980E94731E8478843813
:1054300071F00E94731E8471843129F188EC90E030
:105440000E946E1E0E94731E82FDEDCF38C02D9A01
:1054500088EC90E00E946E1E2F9882E090E00E94FF
:10546000902E8F3F29F06FEF82E090E00E94B62EE1
:1054700084EF91E00E946E1E2F9A0E94731E847822
:105480008438D9F3D6CF2D9A88EC90E00E946E1E16
:105490002E9882E090E00E94902E882329F060E010
:1054A00082E090E00E94B62E84EF91E00E946E1E92
:1054B0002E9A0E94731E84718431D9F3BFCF2D9A26
:1054C00088E280936E07809164008E7F80936400F1
:1054D00080917A00806480937A0080917A0086FDC2
:1054E000FCCF00917800109179000E94992820E06B
:1054F00030E0980111270027600F711F821F931F52
:10550000209164002160209364006115710581057C
:10551000910511F00E94872E82E090E00E94902E6B
:10552000882331F03E9A3F9A81E080939B0104C02A
:1055300010929B013E983F9880E00E9404280E94B0
:105540004C2684E18093B50183E28093B6011092EA
:10555000BC0181E08093BD0187E0EDE3F1E0DE0175
:10556000119601900D928A95E1F781EB90E00E94EF
:10557000902E833040F4E1E0F0E0EC0FFD1FE80FE7
:10558000F11D808103C0833019F081E18093000117
:105590002BE3222E312C38E9432E55245A9447E62A
:1055A000642E77247A94DD24D39497E0A92E8FB7C4
:1055B000F8944091DC075091DD076091DE0770910F
:1055C000DF078FBF80916F07942F981B892F9091D1
:1055D0007007992329F0809371071092700743C2D6
:1055E00090916E07891740F48F5F891708F03BC2CE
:1055F000D3BE889513BE37C2D092700740936F0711
:1056000080916A0790916B07019690936B07809346
:105610006A0780916C0780936D070E94731E8093C8
:105620006C07E09100018E2F90E0FC013197E13191
:10563000F10508F00AC2E759FF4F0C94432F83EBA2
:1056400090E00E94902E10919C01853009F012C2CA
:1056500082EB90E00E94902E813009F00BC2612F06
:10566000660F660F160F185EFF24F39446E45CE1A4
:1056700068E170E000E021E086E290E00E943324DF
:10568000612F70E021E04AE75CE18FE190E00E9449
:10569000332400E010E021E04BE85AE160E070E0E4
:1056A000C8010E94681D21E04BE85AE167E370E001
:1056B000C8010E94681D065F1F4F0238110559F787
:1056C00080916D07809590916C078923F11011C02E
:1056D00087FF07C090919C01992319F091509093F6
:1056E0009C0184FF06C090919C01911102C0D09250
:1056F0009C0183FFAAC180919C01882329F08130FD
:1057000009F0A3C10E9404280E944C2682E08093E5
:1057100000019BC10E943D1C80916607882319F0FF
:105720000E940227F9CFE091A402F0E0EE0FFF1FE4
:10573000E052FF4F20813181D092BC01F901849168
:10574000FAE08F9FC0011124F9013196E4914AE0FB
:10575000E49FF00111248B3391052CF41092BF01CA
:105760001092BE0116C0AC014B5351094E35510584
:1057700058F44BE34093B501B101681B790B70936A
:10578000BF016093BE0107C07092BF016092BE016D
:1057900089598093B501E731F1052CF41092C101CC
:1057A0001092C00116C0CF0147978235910560F471
:1057B00087E18093B60187E190E08E1B9F0B909369
:1057C000C1018093C00107C05092C1014092C00145
:1057D000E856E093B601F90132961491A4EDB2E0D7
:1057E00043E050E070E06C91607F672B6C931896FB
:1057F0001C9218977117E8F4F901E40FF51FE49172
:105800008AE0E89FF00111241396FC93EE9312971F
:10581000FA013196E20FF31F4E5F5F4FE491FAE019
:10582000EF9FC001112415969C938E93149760618D
:105830006C937F5F1E967630B1F6CA010196F9012E
:10584000E40FF51F54915093A602A8EAB2E010E0CD
:10585000BF016E5F7F4F511759F03196E491EC9381
:10586000FB01449111964C9311971F5F1296F0CF54
:10587000850F911D850F911DA901480F591FACEC93
:10588000B2E0FA0164916C933196E4911196EC9335
:1058900011974E5F5F4F129664ED72E06A177B07B7
:1058A00081F74C0179E0870E911CFC013896E20FDC
:1058B000F31FC490E2E0CE1621F000E010E040E0DB
:1058C00067C0AEEBB1E07C01F0EEEF0EF11C40E002
:1058D0008D0160E070E04C0159E0850E911CF401EF
:1058E000E60FF71FE20FF31F5491E52FF0E06894E5
:1058F00013F8F595E7951694E1F7E63009F44F5F54
:10590000E52FEF70E63009F44F5FF80156836F5FC3
:105910007F4F005F1F4F6E30710509F711960E968D
:105920008E159F05A9F670C0EE2309F46DC05FEFD8
:10593000851A950ABF2EB294B0EFBB227801C11030
:1059400038C0C7016CE170E00E94DA2D969587950A
:105950007727A4E0880F991FAA95E1F782549E4FFC
:10596000DC01A60FB71F16965C911697E0FC1EC0CF
:105970005F705B2916965C938FEFE81AF80A8E2DFC
:10598000801B8E17E0F2E150F0E031960E0F1F1FE2
:10599000F901E80DF91DE491FE2FF295F695F770E7
:1059A000EF71F63009F0C0CF4E0FBECF507F5F2BA6
:1059B000E1CFB70184E0769567958A95E1F7562F98
:1059C00056958E2D8F7090E060FD0EC060E1569F61
:1059D000800D911D1124DC01A254BE4F16968C91AE
:1059E00016978F708B290DC070E1579F800D911D08
:1059F0001124DC01A254BE4F16968C911697807F1D
:105A00008F2B16968C93B8CF4093A50283E080939A
:105A1000000105C0A092000102C00E9464260E94FD
:105A2000C10E13C000E021E04AE959E164E170E0F1
:105A300083E190E008C000E021E04DEC58E167E12F
:105A400070E084E190E00E943324E8E2F3E080E03B
:105A500098E000800EBCD110012C019780FDFDCF95
:105A60000192B9F70DB4E0E0F0E0309709F49FCD72
:105A7000099599CD110F612F660F660F160F1D5EE8
:105A8000F12C4DEC5BE163E1F4CDDF92EF92FF92FC
:105A90000F931F93CF93DF93D82EF92EE42E062F6A
:105AA00010E0C8010196880F0E946F2083E00E94D9
:105AB0006F20CD2DDF2D0C0F1D1FC017D10789F0D2
:105AC000E7FE03C0FE01849101C088810E946F201F
:105AD000F82E80E00E946F208F2121968111EDCF5A
