:100000000C94100E0C94380E0C94380E0C94380E80
:100010000C94380E0C94380E0C94380E0C94380E48
:100020000C94380E0C94380E0C94CE200C94402175
:100030000C94380E0C94380E0C94380E0C94380E28
:100040000C94380E0C94380E0C94380E0C94380E18
:100050000C94380E0C94380E0C94380E0C944C28DA
:100060000C94380E0C94380E0C94380E0C94380EF8
:100070000C94380E0C94380E0C94380E0C94380EE8
:100080000C946F1C0C94380E0C94380E0C94380E93
:100090000C94380E0C94380E0C94380E0C94380EC8
:1000A0000C94380E0C94380E0C94380E19134A1315
:1000B0004A13431343133F133F133B133B133713AD
:1000C00037132F132F13331333132F132F1333130C
:1000D0003313952AB12A212BA12CA12CA12C9B2CC6
:1000E000A12CA12C9F2CA12CA42CA42CA42CD12C71
:1000F000D12CD12CC72C761E761E761E971E971EED
:10010000971EF11EF11EF11EF11EF11E261F261F65
:10011000261F761E761E090FE8D2D9ED76BB4EC794
:10012000B7DD6EB7DBED7636090FE8D3E974FCDB9B
:10013000ED76BBDD6E6703090F109BCE6EB7DB75E6
:100140003A36090FB8B2E9145FD7ABCF85A2ED6C90
:10015000DB5901090FBC92EE55A9A4D2AAAD53E414
:10016000E9E8B6B303090FF8B6CAF55FB9B5EBD441
:1001700036EEED6CDB5901090F38B39FEAB3977780
:100180000A4BDBD9B6B302090FBC924EA5FAECE5D7
:1001900054CEC9D9D3F9EC367A090FB8B29F6AA206
:1001A000745FBB8E773B7B3A5A090F38972ACA6B2C
:1001B000998E39BD1D5B090F5CA73EF54D96DBF5A9
:1001C000B950B79D1D20064B000000190075054B66
:1001D000000000190027054B000000190097044B90
:1001E000000000190017044B0000001900B8074B6D
:1001F0000000001900E0064B000000190010034B3E
:100200000000001900BA024B000000190093024BD5
:1002100000000019004B024B00000019000B024BBC
:100220000000001900DC034B000000190070034BB4
:10023000000000190088014B00000019005D014B0F
:1002400000000019004A014B000000190026014B74
:10025000000000190006014B0000001900EE014BE0
:100260000000001900B8014B0000001900C4004B49
:100270000000001900AF004B0000001900A5004B62
:10028000000000190093004B000000190083004B90
:100290000000001900F7004B0000001900DC004BC3
:1002A000000000190062004B000000190057004BCD
:1002B000000000190052004B000000190049004BDB
:1002C000000000190041004B00000019007B004BAA
:1002D00000000019006E004B000000190031004BB7
:1002E00000000019002C004B000000190029004BF1
:1002F000000000190025004B000000190021004BF0
:1003000000000019003E004B000000190037004BB0
:10031000000000190000804B024B0000000F004B52
:10032000024B0000000F004B024B0000000F0026A4
:10033000014B000080E0060F0017040F0027050F97
:100340000000800A081800600080002000400000C3
:1003500000600090002000000000000000801000FD
:1003600020800000800000200000000040090FA84D
:10037000D69D2BA2AC932A75BB08B3DBB106090F3F
:1003800088769D7A995DCBDA756AD46DD7B101090B
:100390000FB8969F6AA274D7ABCFCDBC9D753B2B8F
:1003A0000607A8D2E9743A2E0407723A9D8E0A060F
:1003B000077C3A9D4E470704079D4BA7A3030307FD
:1003C00088E5030792CC0407B8D2E99C5304077C64
:1003D0003A9D760E0607DE6EB7DBED76070407A5BD
:1003E0009276BB5D010607B7DBED76BBDD02040745
:1003F000A5926ABBDD020307F8743A0307759A10E9
:100400000407D476BB924A2A0407B7DBAD545201E5
:100410001507A54E472555552A1595F3D99C2293C6
:10042000AA2A958A4AEA745C95032907522E95AA4E
:100430004A95E272AA9295755452E5B3924AAAAAD5
:10044000542A6EE552A9544E71399F4E392EA9AAED
:1004500052A9A8A4AA64656B4A550A2907D369A9B9
:10046000A293AA9295ADA9F64A4DEF54252BEBB86D
:10047000944BA5AA52A5B89CAA64651D552A25557A
:100480002A2AE9F24949A94A010E07A54E47E57C07
:1004900036A7C8A44EC75571011307522E95AA4A14
:1004A00095E2522E954AE51497D4E9A8A44AA5529C
:1004B000394556390F07A5CB67B3924AAAAA542AE1
:1004C0002AE9F249C9553904050E11110E00121F0F
:1004D00010121915120A11150A06051F0417151511
:1004E000090E151508011905030A15150A12150933
:1004F000061907EA5455AA2AD59129974AA57215D3
:100500009972A9542AA7B8A4AA64656B2AA9AA5209
:10051000A9B82A2EF4F5F9F6F7F8FBFAFFFCFDFE70
:100520000002030401060508090A070B0C0E0F0060
:100530008801640000001400DC0364000000140063
:100540004B0264000000280017046400000014003F
:100550002705640000001400200664000000280045
:10056000008007050210030F0F041A001A011A0277
:100570001A0312010E020105100F00044105410586
:10058000410A4104410541054103C106410441A11D
:1005900024410541240223E1412309236103C105CC
:1005A000C1E1412B61036128012161410B610122FD
:1005B000612103C1042161412161296101C12161DE
:1005C00021012561012161412188226101226121EE
:1005D0000121046101216141210221022101C12285
:1005E0006103620121012361012161412102210294
:1005F00021022162246122C1236101216141210282
:100600002101C121022161210621012361026141F1
:10061000210224022161210124012104612162417E
:10062000216122022263210121C1220127610141AE
:100630002161034221622203210222C1046121417E
:1006400021610341036122A124A12761214121618C
:100650002304610F610141001A0E0312080509020B
:100660000E0A10000F0110010E020F020D030E03FF
:100670000C040D040C050E0607070108180A001FDC
:100680001F1F1FE1E11F1561226118612261C11462
:100690006127610D216104612101C101C101216155
:1006A00001216121610923612C612361082201C1BB
:1006B000022401C10361C102226107246102C10158
:1006C0002361016122610121610821C1216123614E
:1006D00001C101610161C12161C12161093261036F
:1006E0005C0009070308021403190C041700170122
:1006F00017021703090213031708040E0003491217
:100700004109410C42024103C20621610A420142F1
:10071000226128426108C142014123612B612243C9
:100720002161452263218721632184618361412204
:100730006101612102C1042161016121086141223D
:100740006101612107216101612101C104C10161D0
:10075000412261C16124612461C16121410641617D
:100760004129613061410622632202C104C103C1F3
:1007700001614186216201628E614101C1042161F2
:1007800003610E614107610361022B016144046151
:100790000361012301C12202C1012261412641619D
:1007A000C101C161022D000D0F03060508090D09E5
:1007B0000812001B001B011B021B031B041B051B53
:1007C000061603050509090E090007C104C10FC279
:1007D000306109220AC102C102611261286102C1AD
:1007E00003C10B61086128E104C102C10161156107
:1007F00026610BC1086106610661296101C10161C1
:100800000661066109612361066104C1016107C1D6
:10081000016106612361266104612506618804C1C6
:10082000026109C10161C10761266103C10127613C
:10083000076106612507610761136102C104610652
:10084000C10500040E030D0217090B0E051A00184E
:100850000119011A0118020E0208061809130C00EA
:100860005AE121619661E1E1E1216108220C61E137
:10087000C10121610261013561216102610123121F
:10088000612161026103210133610261026121037F
:10089000C1022101C1012101C1012101C102216166
:1008A000026102612261326102618261026125019D
:1008B00025062161026102610261042101C1210951
:1008C000216102610261026182610124618227610A
:1008D0000261026102610261056102276102610237
:1008E000610261026182610261022761026102614B
:1008F0000261026102610121612301C301216102E0
:10090000610261026102610261026123613761017A
:10091000C26125000B0E040D001701070207080134
:1009200013000F00180106020808000EC118286104
:1009300005C10BC109612161256105C125610761FF
:100940000161056123A123046187610161C1046123
:100950000B610761012701C1096107610823612754
:1009600061076188C10261076104C1026107C12991
:10097000022861042407C103C1076108256123A17E
:10098000236102C1026103C10961072E610561157E
:1009900061056101C10AC108613C000D0E040A0134
:1009A000110106051505020C000F000902120205CF
:1009B000061606000D22E117C1612261C1156126EC
:1009C0006113C1612661C111612A610FC1612A6190
:1009D000C10D612E610BC16103C80361C1096132A0
:1009E0006107C1613261C10561366104613661042C
:1009F0006116610461166104611661023C000B0E10
:100A00000303041A0A130B02030003011A0105026F
:100A10000F02100B001FE106C109C106C161A1212F
:100A200061046123610561236121022162022603C1
:100A3000612561036102C10162C10A61056103248C
:100A40000162A124092361210762014124072208D0
:100A500061210162014125052207612161026201D4
:100A6000412B04C1036103226101412B0323026175
:100A70000561014104230123086104C161014102B0
:100A8000C1012201C1012208610322610141612BE0
:100A900061266103226102610B610661032261022A
:100AA000611261033E00040A030A020F06180606DB
:100AB00000001B0000011B0100021B0202020F02CA
:100AC00018020E0600E11F1F156123A1366223A143
:100AD000366207228822076203C103C1216106C171
:100AE0002207620722610128022562022302226195
:100AF00007220222C122620221C1210222610722B1
:100B0000022562072862220222C1226202230228F1
:100B1000622202256202230222066101220762028A
:100B200023022205C161012204C102612A612961F7
:100B30002E02C1612601C101612700140102070CC8
:100B4000140C0F19001A011B021A031904180517B7
:100B500006160717081809190A1A0B1B0C1B0D1B80
:100B60000E060C080C130C150C001F1CA124622689
:100B7000651061032102610FC105610161210261FC
:100B80000F21C105622102610E23C10561210261AD
:100B90000D25C104612102610B2804612102610C51
:100BA000C12505612102610E2306612102610F2129
:100BB000076121026117612102610C612EA12903E5
:100BC0002F096121E13003C66122000E0A040801E9
:100BD0001401030518050B00001B0000011B010098
:100BE0000201020202030219021A021B0207011388
:100BF000010405190500E11F02C104C105C104C1BA
:100C0000092861036128E1E1E10C61036112612DB2
:100C10006106C105C16105C101C10561C104C127EA
:100C20006101C101C125C101C10161260761012422
:100C3000032401610AC1026106C1066101C10661A6
:100C4000366104611661046101C104C16127610656
:100C500061022A610761290A6107610BC107610707
:100C60006106C1022141214121412141214121410E
:100C70002141214121412141214121412141214164
:100C800000100F0306000F000609030200110016F2
:100C90000005000E00140A040F010281C1016A025E
:100CA000810381018101810181018103640181014D
:100CB000810181018101810581028101C166038178
:100CC0000481098102810381028104810281018101
:100CD000038103810269018101810381038101C1D3
:100CE00082028105810482048101C103810282069E
:100CF0008101810382C1680281028206C18105816E
:100D000002810281028105810481038101810381C5
:100D100003810281018104C1810881018105690289
:100D200081C181028102C181038103810481028129
:100D30000481038104810181058107C1820681014B
:100D40008102648107810281048108810281046A31
:100D50000281028108810481028105C18102C1648E
:100D600002860300090E040C0017000C0C140C0F73
:100D70001B001B011B021B031B041B051B061B077F
:100D80001B081B091B0A1B0B1B0C1B0D1B0E030056
:100D90001500060C180C0200000000000000000006
:100DA00000000000005353535353535353535353B2
:100DB0005353505353535353535353535353535306
:100DC0005063130313631303136313031363105369
:100DD00013531353135313531353135310531353E6
:100DE00013531353135313531353105313531353D6
:100DF00013531353135313531003130313031363A6
:100E00001303136313031053135313531353135345
:100E100013531353105313531353135313531353A5
:100E200013531063030303030303030303030303C5
:100E30000031111111111111111111111111103075
:100E4000000000006000600060000000003222220C
:100E500022222222222222222222203600000000E8
:100E600000000000000000006011111111111111AB
:100E700011111111111111110E030E061606040A9B
:100E800001180003000E001906070A0006C105C17B
:100E90000F613161056103610DC10361056102C12B
:100EA00029612905612B620E610327628761076151
:100EB0000321C101C12262086102C1046102C1258E
:100EC0006205612443246123056106610B610861A9
:100ED00006610B61086103C102610B6102C1612BF4
:100EE0006102C105C1026123610B61012901610336
:100EF000610B610B61036106C1046106C1046103FA
:100F00003C00080E0401011A0103021802010C033F
:100F100003001800030F180F00076116C1046111C8
:100F2000C102612201C102610FC1012262022202DB
:100F30006124E1612561032202620B62C104610741
:100F4000620BC162046107620B62C10C620BC16279
:100F50000C620B62C10C620BC1620C620B62C10CB1
:100F6000620BC1620C620B62C10C620BC1620C624B
:100F70000B62C10C6204613061046100090E020061
:100F800005130607190019011902190311041105A7
:100F900011060D0001050F061906000AC119612787
:100FA00002C10DC103610626072A6109C11161262C
:100FB000E12561220C610C61042A610C6103C12AE4
:100FC00061274203612E610C61042A6107C101831C
:100FD00061042206226107220361042202C2022266
:100FE0006105C10661042B61276103610F61072858
:100FF0006104C106610F613C00070F05030208058B
:101000000D051405130F0400000001010D070D0468
:101010000206021702190200E11C9B612105210D45
:101020002105216101250F250161012101230F21E6
:10103000C123016101250F25016101230121A13196
:10104000012101610125A12301C12201C1286121E2
:1010500001610125A131612101610125A1316121D8
:1010600001610125A1240429612101610125A12437
:101070000429612101610125A12403C161286121A5
:101080000161E185E1842461886102610A450C61A6
:1010900009450D000E0E0605021602020B0F0B1974
:1010A0000B080E040B0010000B01100102021902C4
:1010B0000D08040B01036C21032A022103210321E3
:1010C0000421022102C12102C12103C1A102210385
:1010D00021032104210221032A0221036703A10124
:1010E000210381058104A12103810581052102627B
:1010F00005816521022B0221E1E16AA1022109217A
:1011000002A10221092102A10221092101C1A1029A
:1011100021092102A10221E1E16AA10221022B029F
:101120002102620581652103810581052103810575
:101130008104A121036703A10121032A02210321C4
:1011400003210421022102C12102C12103C1A10204
:10115000210321032104210221032A0221036C21FE
:1011600000090E040D0213030205170E030200020C
:101170000102020B0216030705180E001F11881446
:1011800061066125612104216123046104C10161BB
:101190000561066104236127056103C102610761DE
:1011A00007256124026107610C610661076109C1BD
:1011B000026103C1026107610722612C61046101C0
:1011C00024016102610C6101C1026101240161021B
:1011D0006102C109618461012101C12101612761AD
:1011E0000C6101256107610C61066107610AC1019B
:1011F0006106613C000D0B0515010A041308020E7F
:10120000140E03120012011202040118010B040E45
:10121000080032E12A01C1102103C10322A1236188
:10122000246108276122A123612E01230261220487
:101230006102C1072401230261226129612801237F
:101240000261226103266125C2210123C1016122BD
:10125000610326612E612261032104C16104C1067C
:10126000C10121612261032361276127612161227C
:101270006102C12361076127612161226122A121ED
:1012800002610761022203612161226122A12161C1
:10129000256128C201612161226122A121612561AC
:1012A00026C126612261046122C1226104C1086154
:1012B0003D000F0E041801010504080F0B0809007A
:1012C00009010902090309040905090609070001C2
:1012D000120104030E03001F0EC10A230D2461270F
:1012E00002220B2203610A220922046107C10223A0
:1012F00006C123046103C103226124052461236123
:101300002702610322032203610D61C103226122CE
:10131000046105C105612361046105216122612326
:10132000056103610E610861036104C1096108611F
:10133000036127612661256122610B610C610261F5
:101340000B610C61023C00120E03060616060E0A23
:1013500002000000010D02030E0D0E180E00E11C2C
:101360008B10610561052101C10121056105610144
:10137000C1026302C1012501C1026302C101610111
:10138000620261026207620261026201610161013F
:101390006501610761016501610161016102C101CE
:1013A000C102610361036102C101C1026101610205
:1013B00061256103630361256102610365016202C6
:1013C00061026201650361096101650161096104EE
:1013D000C1046102C101C1026105C103612661034B
:1013E0006125610261276106610465036107610689
:1013F000610C610761066107C10461073C000A0EC8
:101400000307040F071309031B001B011B020C0138
:1014100013010102190B001C8A05C10C6101C106F0
:10142000612A6107256103610A614705610361065D
:10143000C103610C61266125612209C10261066157
:10144000056102820524612106610561048207614C
:1014500004612661220682C10461846106610A2159
:101460000461076129610961076129610523612A16
:1014700003C103256124612A0161236101256121E2
:1014800003610B61236102C10361013C000C0E0387
:10149000040314050408021B041B051301190201AF
:1014A0000309080003C11762422142610BC10862AF
:1014B00005610461296101C1036201C10361046125
:1014C000096124A162214121412161046109610670
:1014D00061056184618603610661056104610561DE
:1014E0002346620561046102C1026109620561016E
:1014F000C102612561096141234122412241610903
:10150000612361224123410661096103610241C1F6
:1015100002410661038661036101C128612344051C
:1015200061022408610C610E610C61063C000E0E24
:1015300003050617060E0904120012011202120317
:101540000101090110061B06001F01C117276127B1
:1015500014618AE104C10B6104226103276122073F
:10156000610422610A61096104226107C10261020A
:101570002261250428612702611161096111610757
:1015800029612A6110610A610EC101618A6103C18A
:1015900007612609276104610CC109613C001B0732
:1015A000B22E954A653BAD5D369D7754D265D3F931
:1015B000E894AB4A55A5AA721D977255A9AA54552D
:1015C000AE031007B22E954A65E3723EA77CCA911E
:1015D00029974AA552A99C220210079C72A9542A55
:1015E00095CA292EE9B2E9BCE352AE2A5595AACA9A
:1015F00075D5F08D14A1C881CFD9F1AF2000571750
:10160000A38B2E2E47175D74D145175D74D14517F6
:101610005D721F5D74D145175D74D145175D74917E
:1016200029BAE8A28B2EBAE8A28B2EBAE8A28B2E9A
:10163000BAE8A28B2EB98F2EB4499D4EC7A55C2A5D
:10164000954AA5728A2E5795AA4A55E51C9772A904
:10165000542A954A491449974DE71D977255A9AAEE
:101660005455EEA24AE52A9BAD5C2A2AE752A954BA
:101670003624DDD7575595AA2A3559AE2A5595AA4D
:10168000CA392AA9F2CAA525977255A9AA5455AEF6
:10169000A35485ACE8A28B2EBAE8A28B2EBAE8A29E
:1016A0008B2EBAE8A28B2EBAE8A28B2EBAE8A28BB8
:1016B0002EBAE8A28B2EBAE8A28B2EBAE8A28B2E05
:1016C000BAE8A28B2EBAE8A28B2E32591FA38B2E1A
:1016D000A764E7D29DDCE7D28E2EB66D7ABAD8B673
:1016E000E9E962DBA6A78B6D9B9E2EBAE862DBA6BA
:1016F000A78B6D9B9E2E9B9E6D9BCFA6B7E9E97233
:10170000694717DB363D5D4EE96D3EBA6C7A9B8FBB
:101710002E7439974EC79C733A2E652B59C9CA75DA
:101720006CD94A56B2728EAB9395AC64652353B6AE
:101730009295AC5C872BE5D3E95CC7A57C3A9D53B9
:10174000648E4B91392E2BD3E99CE2CB391D97B295
:1017500095AC64E53A2EE5D3D9C894AD64252BD772
:10176000416FF7B5AB4AA952A9C97255A9AA5455F8
:10177000CE514995572E2DB994AB4A55A5AA721D45
:101780002C1B5D74D145175D74D145175D74D1C5AF
:1017900094EB742EBAE8A28B2EBAE8A28B2EBAE88C
:1017A000A28B2EBAE8A28B2EBAE8A28B2EBAE8A2A0
:1017B0008B2EBAE8A28B2EBAE8A28B090A10000081
:1017C0000000000000000000000000000000000019
:1017D0000000EFEFE0EFEFEFEF0FEFEF010101019E
:1017E000010101000101FFFFFFFFFFFFFFFFFF00FD
:1017F000010101010101010101000000FF4242421B
:1018000042FF00000000030000000003000002028D
:1018100002020202020202020000000000000000B8
:101820000000EFAFE06FEFEFED0FEBEF0101010113
:101830000101010001010000B0B000B0B0000000E3
:1018400000000101000101000000EFEFE0EEEEEE0C
:10185000EE0EEFEF01010101010101000101EEECCB
:10186000E0E8E8EAE808ECEE01010101010101000D
:101870000101ECE0C0C088808000E0EC01010101C2
:10188000010101000101E08000000800010086E084
:10189000010101010101010001010000000000003F
:1018A0000000000000000000000000000000E080D8
:1018B00080000000000080E0010101010101010041
:1018C0000101ECE0C0808080C000E0EC010101017A
:1018D000010101000101EFECE0E8E8E8E80CECEFC1
:1018E00001010101010101000101EFEFE0EEEEEE67
:1018F000EE0FEFEF010101010101010001013F0FB6
:10190000A5AA64656B2AA9AA52A9B83A5595AA4A0C
:10191000755CCEA7538E4BBA7C362BA9A4AA4AA5D8
:10192000E2562E95AA4A95E272AA92957554D2E58E
:10193000B359492555552A15D2A5AA64656B2AA91C
:10194000AA52A9B83A5595AA4A755CE9B454F13936
:1019500055C9CA3A2AA92A59D99A2A9D962A7EE5B2
:1019600052A9AA54292EA72A595947255D3E9B956D
:10197000545255A55221122C07EA5455AA2AD57162
:10198000A5D352C5E754252BEBA8A4AA64656BAA7E
:10199000745AAAF8954BA5AA52A5B89CAA64651DCD
:1019A0009554F9ACA492AA2A954A010207A5533688
:1019B000097F37E0C3142E53284C67B7DBED76BBA5
:1019C000DD6EB7DBED3A74A5B3DBED76BB550E915A
:1019D0006AEE7476BBDD6EB7DBED76BB0ED256A138
:1019E000127D98534A2AA914D6A85232A4ADA492C3
:1019F0006A2472AE64285B2AA9E47882A311BA73C0
:101A0000CE39E79C5352C58538E59C736E9C1D17F3
:101A1000EE9473CEE191147F5B259554524925B71E
:101A20003B082F89C7ED763B7F3ABDE3AF9D54520B
:101A300049259554524925A552A594545249E5DCAF
:101A400076BB557AAB94545249259554524925A5F5
:101A5000525249E59C92DBAD924E3AA9A4924A4972
:101A6000E59C924A3A2795944A4925955452DDEAD5
:101A700053EB7C7AABA492CA39E79454524925952A
:101A8000545239A7E4761D6B3ABDDD6EB7DBED3AF3
:101A9000BAEC763B5A0B8D4A2AA9E4385A2AE74613
:101AA00016DE52848853712270E79C42221FE6762C
:101AB000CE29EC11AE64285B2AA9E478E253216FA9
:101AC000E79C734E4925C3660A934A493BBEB6CE8E
:101AD000D9A5728AEEB1E79CC3DC8AF29197E24AFB
:101AE00021D045F6385B71A5504789BFAD924A2A8F
:101AF000A9A492DB1DDDE3EEB1BF555249259554F3
:101B000052492595543AD2F4564925955452C9ED77
:101B1000EC5B259554524925955472ABA4924A2A00
:101B2000A9A4924A2A9D8E6CABA4924A2AA9A49297
:101B30004A47B6555249259554524925958E6CAB66
:101B4000A4924A2AA9A4D2916D955452492595543C
:101B500052E948D35B25955452492595545249255D
:101B60009554721BED5649259554524925954E873B
:101B700064E0061E0000000A00E0061E0000800867
:101B80000B00020202010009040000010202000031
:101B90000524001001052401010104240206052486
:101BA0000600010705810310004009040100020A34
:101BB0000000000705020240000007058302400004
:101BC000000403090412010002EF02014041233620
:101BD0008000010102030141726475696E6F204C3F
:101BE0004C430041726475626F7900200664000006
:101BF00000140027056400000014001704640000AE
:101C00000028004B02640000001400DC03640000A4
:101C10000014008801640000002800008000292DC5
:101C200011241FBECFEFDAE0DEBFCDBF11E0A0E090
:101C3000B1E0EEEFFDE502C005900D92A839B107C5
:101C4000D9F727E0A8E9B1E001C01D92A63EB2078E
:101C5000E1F71EE0C0E1DEE004C02197FE010E9432
:101C6000F22ECF30D107C9F70E94A9280C94FD2E7F
:101C70000C9400002F923F924F925F926F927F924E
:101C80008F929F92AF92BF92CF92DF92EF92FF928C
:101C90000F931F93CF93DF93CDB7DEB72D970FB67A
:101CA000F894DEBF0FBECDBF8091B60190E02091C9
:101CB000BF013091C001821B930B05962AE030E0F2
:101CC000B9010E94752D162F6D878091B70190E0A4
:101CD0004091C1015091C201841B950B0596B90139
:101CE0000E94752D7B016C8780919B01853091F05E
:101CF00080916B0790916C076CE070E00E94892DD9
:101D0000892B09F0F6C39091980181E0892780938F
:101D10009801EFC3812F0E948A25082FD0906D076C
:101D2000C0906E07C094CD201092B8011092C301EC
:101D30008091BD018B3021F01092B9011092C40145
:101D40006E2D812F0E948A25863079F58091BA0107
:101D50009091BB0149969093BB018093BA0140E0FA
:101D60006E2D812F0E94B1258091A602882319F043
:101D700081508093A6028091A602811112C0B12CDD
:101D80008091A702B81668F4EB2DF0E0EE0FFF1F6C
:101D9000E755FD4F43E0618180810E94B125B394F6
:101DA000EFCF85E393E00E94CF1C809199019D2D98
:101DB0009C709C3061F58F5F809399018531B0F103
:101DC0008D3390F08D3391F51092990183E884BDA5
:101DD0008FEF87BD81EF8093800010928800109272
:101DE0008A000E94962818C320E430E0A901481B0D
:101DF0005109CA01880F93E894BD9FEF97BD91EFF9
:101E0000909380001092880080938A000FC08823EE
:101E100069F083E884BD8FEF87BD81EF80938000F8
:101E20001092880010928A00109299018C2D847073
:101E30009C2D9870C3FE2DC081112BC00E941B1ECB
:101E4000882309F454C08091B60190E02091BF012D
:101E50003091C001821B930B02966AE070E00E94F1
:101E6000752D162FCC24CA94C60E6E2D8C2D0E9473
:101E70008A25A82EBB24B394BE0C6B2D8C2D0E94FA
:101E80008A258130A1F58FEF8A0D823008F094C247
:101E90002EC0882361F191112AC00E941B1E882345
:101EA00031F18091B60190E02091BF013091C001E5
:101EB000821B930B02966AE070E00E94752D162F2C
:101EC000CC24C394C60E6E2D8C2D0E948A25A82E7C
:101ED000BB24B394BE0C6B2D8C2D0E948A258130BF
:101EE00031F48FEF8A0D823010F00C94CC17D6FEAF
:101EF000CAC06E2D812F0E948A25082F8091B601BD
:101F000090E02091BF013091C001821B930B6AE0E9
:101F100070E00E94752D6C01892B19F481E0810F0E
:101F200001C0812F6E2D0E948A25282E552453949E
:101F30005E0CC114D10419F481E0810F01C0812F1E
:101F4000652D0E948A25482EC114D10419F08FEF07
:101F5000810F01C0812F652D0E948A25382E822D88
:101F60000E94CE27682E470199245FEF851A950AB3
:101F7000A12EB12CA401B501832D0E940925782E34
:101F80000E941B1E9091BD019B3089F4882311F49F
:101F90000C94991A7110C1C064E0261621F0043027
:101FA00011F00C94991A68E087E00C9433180E94A1
:101FB0006D26882341F08DEF800F823010F00C9455
:101FC000E5170C94D317C114D10419F481E0810FE3
:101FD00001C0812F6E2D0E948A25782EC114D10454
:101FE00019F481E0810F01C0812F652D0E948A259F
:101FF000682E62E06E0DC114D10419F481E0810FE6
:1020000001C0812F0E948A25482E862D0E94CE274E
:10201000682E872D0E94CE27882311F40C94361841
:10202000662011F40C94361835018FEF681A780A7F
:10203000A401B301842D0E940925882311F40C9476
:10204000281864E081E00E942E1E1092BD0180914C
:10205000C1019AE0E99E800D11248093B70180911F
:10206000B6018C3310F482E0C2C02091BF013091E0
:10207000C00129363F4F24F01092B8018EEFC3C043
:1020800087FFF1CF8AC1D5FEC4C06E2D812F0E947B
:102090008A25082F8091B60190E02091BF013091F0
:1020A000C001821B930B6AE070E00E94752D4C0109
:1020B000892B19F48FEF810F01C0812F6E2D0E94A3
:1020C0008A25382E772473947E0C8114910419F09C
:1020D00081E0810F01C0812F672D0E948A25482E43
:1020E000832D0E94CE27582E5701BB24BFEFAB1A79
:1020F000BB0AC12ED12CA501B601842D0E94092551
:10210000682E0E941B1E9091BD019B30B9F488235C
:1021100011F40C94991A662031F01092BD010E94BE
:10212000B71B0C94C11AE4E03E1621F0043011F004
:102130000C94991A69EF86EF0C948E180E946D2604
:10214000882331F08DEF800F823008F0AEC7B8C71A
:102150008114910419F48FEF810F01C0812F6E2D2E
:102160000E948A25082F8114910419F48FEF810FA2
:1021700001C0812F672D0E948A25782E62E06E0DA6
:102180008114910419F48FEF810F01C0812F0E94F7
:102190008A25182F872D0E94CE27782E802F0E9407
:1021A000CE27882311F40C94C11A772011F40C94D3
:1021B000C11AF1E0CF1AD108A501B601812F0E9402
:1021C0000925882309F49EC76FEF8CEF0E942E1E0D
:1021D0001092BD018091C1012AE0E29E800D112480
:1021E0008093B7018091B6018D3320F08EEF8093FC
:1021F000B801D1C02091BF013091C00137FF06C0A6
:102200001092B80182E08093C301C7C08111EECF64
:10221000C4C0D7FE85C08091B70190E02091C10174
:102220003091C201821B930B08966AE070E00E9415
:10223000752D7B01B62E0E941B1ED82E882319F007
:102240006FEF6E0D01C06E2D812F0E948A25C82E62
:10225000DD2019F0BB24B394BE0C6B2D812F0E949E
:102260008A259091BD019530A4F0973044F09B30C1
:1022700081F4043009F069C7D11063C766C7DD2057
:1022800061F1033009F083C08FEF8C0D823028F5A7
:102290007EC00E94B71B8091B60190E02091BF01E3
:1022A0003091C001821B930B2AE030E0B9010E94FB
:1022B000752D863020F0A901481B5109CA010597E8
:1022C0000CF067C0033009F064C08FEF8C0D8230D2
:1022D00008F45FC085E08093BD018091BF015AE0A2
:1022E000159F800D11248093B6011092B8011092B1
:1022F000C3018091B701883120F08EEF8093B9013E
:102300004EC02091C1013091C20137FF06C010922A
:10231000B90182E08093C4017FC08111EECF7CC0FF
:10232000D4FE40C08091B70190E02091C10130916E
:10233000C201821B930B08966AE070E00E94752D23
:102340007B01D62E0E941B1EC82E811105C76FEF80
:102350006E0D812F0E948A25B82ECC2019F0DD2425
:10236000D394DE0C6D2D812F0E948A25D82E80916A
:10237000BD018B3009F05AC6043009F4E0C6CC2008
:1023800009F402C784EF8B0D843008F0FDC60E946B
:10239000B71B1092B8011092C3011092B9011092AC
:1023A000C4013AC08091B901823009F4BBCF809159
:1023B000C4018E3F89F5B6CF53E0A51609F497CD39
:1023C00084EF8093BD011092B8011092C30147E0E1
:1023D0006B2D8C2D0E94B12580916707843181F08F
:1023E000E82FF0E09F01220F331FE20FF31FE55D9E
:1023F000F84FC082B1829CED92838F5F8093670714
:1024000080916D0780936E070E94ED1D80936D078C
:1024100087E193E00E94CF1C80916B0780FD68CC20
:102420001092D6021092E4021092F202109200036F
:1024300010920E0310921C0385ED682E82E0782E18
:10244000F301808184FF4BC0828193816AE070E058
:102450000E94892DD62E6887848195816AE070E07C
:102460000E94892DF62E69878D2D0E948A25B82E0F
:10247000CC24C394CF0C6C2D8D2D0E948A25982ED0
:10248000F6E0BF1206C0D30118968C91882309F498
:1024900088C6F30182858D3014F5228133813B8714
:1024A0002A87C9016AE070E00E94892D892BB9F45E
:1024B00004811581C8016AE070E00E94892D892B92
:1024C00071F4E384EE2009F48CC6D30118968C9144
:1024D00081117EC6F3011782838581508387BEE018
:1024E0006B0E711CE9E26E16E3E07E0609F0A8CFE0
:1024F000FFCB80919B018850833030F480919B0109
:10250000833009F0C9C1CDC1C12CD12C812C712CD3
:10251000A12CB12CE090BF01F090C001EA0CFB1C93
:10252000C70109968938910528F50091C1011091DC
:10253000C2010C0D1D1DC801099689349105D0F406
:10254000682D872D0E948A25982E882339F0282F00
:102550004CEB57E1B801C7010E94E21C29EF290D9D
:10256000243040F4B8016A50710943E453E0C701D4
:102570000E94E21C7394FAE0AF0EB11C2CE17212BF
:10258000C9CF83943AE0C30ED11C40E18412BFCF7F
:1025900080919B01853021F0809198018823F1F092
:1025A0008091BD01082F001F0027001F082E000C7E
:1025B000990B97FF03C0919581959109880F990B0D
:1025C000FC01E45EFE4F408151816091B70170E0F3
:1025D0008091B60121E090E00E94B82315EDA12E74
:1025E00012E0B12E7501D7018C9184FFADC0129617
:1025F0000D911C9113976090BF017090C001430131
:10260000800E911E14968D919C911597C090C101DA
:10261000D090C201C80ED91E1B96EC914E2F50E0EF
:102620004331510508F088C0FA01EA5AFF4F0C9473
:10263000F22EF7018285082F001F0027001F082EA9
:10264000000C990B97FF03C0919581959109880F14
:10265000990BFC01E45EFE4F4081518170C0F1E0B6
:102660008F1A910869C02FEF821A920A65C032E072
:10267000C31AD108FDC644E0C41AD10807C056E009
:10268000C51AD108F5C668E0C61AD10800E04DE6C3
:1026900053E055C0AAE0CA1AD1089C012A5031095A
:1026A000F701358324831386C8016AE070E00E9435
:1026B000892D262EC9016AE070E00E94892D462EE0
:1026C00055245A94520C852D0E948A258F833324D9
:1026D0003394340C632D852D0E948A2588875524D8
:1026E0005394520C642D852D0E948A25482E632D0B
:1026F000852D0E948A25582E8091B60190E086197A
:1027000097098017910764F48F810E94CE27882350
:1027100009F4A6C688850E94D727811198C6A0C64D
:10272000842D0E94CE27882309F491C6852D0E940E
:10273000D727811195C68BC600E04FE853E021E012
:10274000B601C4010E94B823FEE0EF0EF11C29E29D
:10275000E21623E0F20609F046CF4090B601512C74
:102760008091BF019091C001481A590A6090B70149
:10277000712C8091C1019091C201681A790AD5012A
:102780008C9184FF7FC012968D919C911397F201DA
:10279000E81BF90B14962D913C911597A301421B50
:1027A000530B9A01C090B7014C2D50E0421B530BC4
:1027B000E090B601473F6FEF5607C4F42E2D30E08E
:1027C0002E1B3F0B2F3FAFEF3A070CF455C62C37AB
:1027D00031050CF059C6E394EE1A8E2DBFEA8B2E0C
:1027E000B3E09B2E45EE53E090E03AC045335105EF
:1027F000C4F02E2D30E02E1B3F0B2F3FBFEF3B07C9
:102800000CF44AC62C3731050CF04FC6E394EE1A8F
:102810008E2DA0EA8A2EA3E09A2E44ED53E093E396
:102820001FC0F12CEE1AFF0AECEFEE16EFEFFE06DA
:102830004CF49C2D921BF2EC8F2EF3E09F2E4BEF6D
:1028400053E031C6FCE7EF16F104E4F09C2D921B37
:10285000EEEB8E2EE3E09E2E46EF53E08CE702C0B7
:102860008F3F81F0C92ED12CE82EF12C00E020E022
:10287000B601C7010E94B82321E0A401B601C70137
:102880000E94B8232EE0A20EB11C39E2A31633E059
:10289000B30609F074CF32CE873049F48091BE017F
:1028A00001C084E080939B0100E010E067C098EFD6
:1028B000980F9330C8F78A3069F400E021E04BE5C7
:1028C00054E069E170E08AE290E00E94B82309E2F6
:1028D00010E03BC0883029F400E021E04AE254E0F7
:1028E0002FC01091A502812F64E60E94E62E082FCA
:1028F000282F47EC54E069E170E088E490E00E9402
:10290000E21C812F44E6049F801911246AE00E9492
:10291000E62E192F282F47EC54E069E170E08DE492
:1029200090E00E94E21C212F47EC54E069E170E046
:1029300082E590E00E94E21C00E021E040E154E0EA
:1029400069E170E08BE290E0C0CF41E066E170E0C9
:10295000C8010E94001E0E5F1F4F09351105A9F71F
:1029600009E210E041E060E270E0C8010E94001E50
:102970000E5F1F4F09351105A9F796CF77E3E72EB4
:10298000F12C40E0B701C8010E94001E5FEFE51A7C
:10299000F50A60E4E616F104A1F70F5F1F4F003857
:1029A000110561F700E010E041E068E370E0C80164
:1029B0000E94001E0E5F1F4F02381105A9F780917B
:1029C000BA019091BB01FE01319626E0DF011D9214
:1029D0002A95E9F77F019E01295F3F4F0AE010E049
:1029E000B8010E94892D8193CB012E173F07C1F7B3
:1029F00000E021E041EF54E06AE370E080E090E025
:102A00000E94B82306E310E0F70121917F0147EC13
:102A100054E06AE370E0C8010E94E21C055011090D
:102A20000831110589F7F090BC0100E021E044EB8A
:102A300054E06AE370E080E490E00E94B8231AE07A
:102A40008F2D612F0E94E62E092F282F47EC54E08E
:102A50006AE370E082E590E00E94E21C202F47ECE0
:102A600054E06AE370E087E590E00E94E21C809108
:102A70009B01853071F4F090A60200E021E049E965
:102A800054E06AE370E080E690E00E94B8238F2D66
:102A90001DC0F090A50200E021E049E854E06AE39F
:102AA00070E080E690E00E94B82364E670E08F2D2D
:102AB00090E00E94752D262F082F47EC54E06AE322
:102AC00070E081E790E00E94E21C802F612F0E945D
:102AD000E62E192F282F47EC54E06AE370E086E7D2
:102AE00090E00E94E21C212F47EC54E06AE370E082
:102AF0008BE790E00E94E21C20919B01253009F0B9
:102B0000C1C180916B0790916C0780FD1CC0209122
:102B1000B80121110CC02091B901211108C02091E8
:102B2000C301211104C02091C401222361F020912E
:102B3000BD01ECE0E20FEC3120F4F0E0EC5EFA4F86
:102B400024912093BD0183709927892B09F445C0F6
:102B50002091B8018091B601280F2093B601109101
:102B6000B9018091B701180F1093B7018091C3018B
:102B7000E090BF01F090C001E80EF11C87FDFA94CF
:102B8000F092C001E092BF018091C4014091C10167
:102B90005091C201480F511D87FD5A955093C201B3
:102BA0004093C101812F90E0841B950B0596EAE0CC
:102BB000F0E0BF010E94752D362F822F90E08E1914
:102BC0009F090596BF010E94752D862F632F0E94D5
:102BD0008A25123008F053C01DC0A5EDB2E089E28D
:102BE00093E02C9124FF11C01B962C911B9722235C
:102BF00009F464C40AC016962C911697211168C472
:102C000017962C911797211163C41E968A179B075C
:102C100041F79ECF833099F51091A5021F5F8091F7
:102C2000BC018A3018F48F5F8093BC0186E08093EA
:102C30009B011093A502612F82EB90E00E944D2E24
:102C40001A3108F454C481EB90E00E943F2E873083
:102C500008F04BC411E0180F612F81EB90E00E9447
:102C60004D2E612F86EB90E00E944D2E0E94E925AB
:102C700081E18093BE0180E395E00E94CF1C8091AA
:102C80006B0780FF09C080916707882309F465C13D
:102C9000F12C6DE0E62E86C005ED12E0D8018C9196
:102CA00084FF54C016968C91169712964D915C91A4
:102CB0001397480F511D87FD5A9513965C934E93B9
:102CC000129717968C91179714962D913C91159702
:102CD000F901E80FF11D87FDFA951596FC93EE9327
:102CE00014972091B60130E08091BF019091C0010E
:102CF000281B390B8091B701A091C101B091C2018D
:102D0000790162E0E60EF11CBA01685F7F4FE616BA
:102D1000F706E4F44E5F5F4FB901685F7F4F4617D7
:102D20005707A4F490E08A1B9B0BAC014E5F5F4FEA
:102D30009F01285F3F4F4217530744F42650310943
:102D400008962817390714F40E949628025F1F4F2F
:102D500083E00932180709F0A1CF10E000E0612FED
:102D6000802F0E948A2599EF980F943030F441E02B
:102D7000480F612F802F0E94B1250F5F0C3179F72A
:102D80001F5F103159F77FCF0F2D10E06801CC0C79
:102D9000DD1CF601E00FF11FE55DF84F8281811126
:102DA00006C0F39480916707F81670F366C08150EF
:102DB0008283803179F030F4813071F0883089F786
:102DC0004FE04FC0883121F0803259F74CE049C0C4
:102DD0004DE047C04EE045C08091A80290E0880FCA
:102DE000991F83539D4FA5EDB2E05F01AF014F5F87
:102DF0005F4F2C9124FF1BC0F5012081FAE02F9F2B
:102E00009001112412966D917C91139762177307AC
:102E100071F4FA012081FAE02F9F90011124149699
:102E20006D917C9115976217730709F462C31E9622
:102E300023E0A932B207E9F6F601E00FF11FE55DE4
:102E4000F84F80813D85831306C081814C858413B2
:102E500002C00E9496280C0D1D1DF801E55DF84F7B
:102E600041E0618180810E94B1259BCF0E9487262D
:102E700080916707882309F470C080912D07813005
:102E8000A9F36BC030916D0790916E0790959323D5
:102E9000243009F044C080919A0132FF32C08E3252
:102EA00068F48932D0F083E884BD8FEF87BD81EF6D
:102EB0008093800080E4809388000BC0833388F483
:102EC00083E884BD8FEF87BD81EF809380001092EF
:102ED000880010928A0080919A018F5F80939A01F6
:102EE0003CC08091A50297FF04C0893110F48F5F28
:102EF00005C094FF32C0823080F181508093A502DA
:102F00002CC0882371F0833308F1883218F082E0F6
:102F100080939B0110929A01911118C01EC01092CB
:102F20009A019923D1F02B3048F4293050F42730FE
:102F300051F0283059F410929B010FC0213169F0F3
:102F400005C082E008C08091BE0105C010926E07E6
:102F500010926D0785E080939B018091990181110A
:102F600012C380919A0181110EC38091A602811132
:102F700006C090919B01953019F480E201C080E079
:102F800093E894BD809587BD81EF80938000109277
:102F9000880010928A00F7C263E0A61611F40C9420
:102FA000770F8CE00ECA662009F4EBC2772019F087
:102FB00064E081E004C0043029F46AE087E00E9404
:102FC0002E1E45C866E085E0FACFC114D10441F455
:102FD000A401B501832D0E942F25811183C0ABC2AE
:102FE000611003C071108BC00AC0A401B5016F5FEE
:102FF0007F4F842D0E9409258111DACF03C0CD288F
:1030000009F4BFC2B5016F5F7F4FA401842D0E94F8
:103010002F258111CDCF1092B8011092C3018823C2
:1030200009F4BBC98BE08093BD010FC063E0D612E9
:1030300095C08091BF019AE0199F800D1124809363
:10304000B6016BEF8AEF0E942E1E0E94371EE4C964
:10305000CD2879F4A401B301842D0E942F25882363
:10306000D1F266E085E00E942E1E1BC0CD2809F437
:1030700088C2652D812F0E948A25182F802F0E94DB
:10308000CE27882309F47DC2B5016F5F7F4FA4016D
:10309000812F0E942F25882309F4BDCF8BE08093D8
:1030A000BD010E94B71B0C9427108114910411F5E7
:1030B000A501B601842D0E942F25811113C05EC287
:1030C000552009F45EC2662019F06FEF8CEF04C042
:1030D000043029F469EF86EF0E942E1E7BC866E05B
:1030E00085E0FACF8BE08093BD0185EC91E00E94F2
:1030F000CF1C1FC2511024C2662009F41FC21092B7
:10310000BD013FC2892869F4A501B601812F0E9443
:103110002F25882309F47FCF66E085E00E942E1ECC
:103120000BC0A501B601812F0E942F25882309F429
:1031300072CF8BE08093BD010E94B71B4BC8CC209F
:1031400019F187E08093BD0122C9A70155274F5F80
:103150005F4F612F70E01FC06E2DFBC88D2D0E9448
:10316000CE27811103C01092BD0111C9D11003C037
:103170008BE08093BD018091BF01AAE01A9F800D72
:1031800011248093B60161CFA70155274F5F5F4F90
:10319000612F70E08D2D0E940925882309F455CFF9
:1031A000E2CF0E94E82D0E94E82D2AE030E040E0C6
:1031B00050E00E94832EDC01CB014496A11DB11D7D
:1031C000F301808740E06F2D8D2D0E94B12561C9EC
:1031D000FA946F2D8D2D0E948A25882309F42FC122
:1031E00079C96FEF6F0D8D2D0E948A258F836F2D0A
:1031F000AA24A394AD0C8A2D0E948A25582E6C2DEA
:103200008A2D0E948A25482E6C2DCC24CA94CD0C80
:103210008C2D0E948A25382E6F2D8C2D0E948A2598
:10322000282E8091B60190E02091BF013091C0011D
:10323000821B930B2A853B85281B390BC9012091E2
:10324000B70130E04091C1015091C201241B350B00
:10325000021B130BD30119962C9119972223D1F03D
:103260001F922F923F92892CA42CC52CEF800B2DFE
:103270001D962C914F2D6D2DC3010E94511EF301FF
:103280009185915091870F900F900F90811127C9D0
:10329000148561C097FF1FC0101611065CF491954C
:1032A0008195910908171907C4F180179107BCF59A
:1032B00011E046C001151105A1F191958195910983
:1032C000119501951109801791076CF108171907DD
:1032D00064F515E035C00097C9F01016110644F4E6
:1032E0000817190724F1801791071CF51FE028C063
:1032F0000115110501F1119501951109801791072B
:10330000E4F008171907DCF41BE01AC0111F11279D
:10331000111F110F110F110F13C013E011C012E094
:103320000FC014E00DC017E00BC016E009C01DE08F
:1033300007C01EE005C01CE003C019E001C01AE090
:10334000EDEFE10FEC3020F4F0E0E05FFE4FE080C5
:10335000D3011D96EC92F3018085882389F09FEFBD
:10336000990D923068F4B1100BC08150D3011896BA
:103370008C93811105C046E06F2D8D2D0E94B125E3
:10338000B1E0BF932F923F92892CA42CC52CEF80E3
:103390000B2D212F4F2D6D2DC3010E94511E0F901B
:1033A0000F900F9081119BC8F12E08E0D02E1123B1
:1033B00011F0115001C01FE0E1E0EF932F923F9216
:1033C000892CA42CC52CEF800B2D212F49856885D5
:1033D000C3010E94511E0F900F900F90882339F067
:1033E000D3011A968C918B3009F079C81EC0BFE0CA
:1033F000FB1611F0F39401C0F12CE1E0EF932F9252
:103400003F92892CA42CC52CEF800B2D2F2D4985A4
:103410006885C3010E94511E0F900F900F9081117B
:10342000DFCFDA94D110C3CFDBCF892D0E94D7270D
:10343000882309F454C8D30117961C9250C8F3018D
:10344000108646E06F2D8D2D0E94B12543C8EFEF09
:10345000D7011A96EC931A97FEEF1696FC9308C0C4
:1034600081E0D7011A968C931A97E2E01696EC93B6
:1034700000E04EE753E063C937EB832E33E0932E31
:103480004EEE53E090E00FC02DEC822E23E0922E02
:1034900048E054E090E010C098EA892E93E0992E1D
:1034A0004DED53E092E380E0DDC986EC882E83E0A9
:1034B000982E40E054E092E38BE7D4C91A96EC9141
:1034C0001A9723EF2E0F233008F095CBE45F05C049
:1034D0002CE02E0F2C3128F4E22FF0E0EC5EFA4FB6
:1034E000E4911A96EC931A9790CB82E1C2CB89E0D3
:1034F000C0CBFC0160812181FAE06F9FB0011124F3
:1035000013967C936E9312976AE0269F9001112484
:1035100015963C932E9314971A96EC921A971B9635
:103520001C921B9716961C92169717961C9217972B
:103530007ECC81E070CD61103BCD54CD892809F15E
:10354000672D812F0E948A25182F802F0E94CE2759
:10355000882349F0A501B60161507109812F0E94AD
:1035600009258111B2CDB60161507109A501812FE4
:103570000E942F25882309F44ECDA7CD5110A5CD4B
:10358000BBCD80E048CD2D960FB6F894DEBF0FBEC0
:10359000CDBFDF91CF911F910F91FF90EF90DF9002
:1035A000CF90BF90AF909F908F907F906F905F90E3
:1035B0004F903F902F900895CF92DF92EF92FF921D
:1035C0000F931F93CF93DF936C017A018B01C0E0BF
:1035D000D0E0CE15DF0581F0D8016D918D01D601C7
:1035E000ED91FC910190F081E02DC6010995892BA8
:1035F00011F02196EECF7E01C701DF91CF911F918F
:103600000F91FF90EF90DF90CF9008958091A501EA
:10361000E091A301F091A401882349F0CF01029623
:103620009093A4018093A301859194910895CF0173
:1036300002969093A4018093A301808191810895C3
:1036400080919D0108950895089580E090E0089587
:10365000FC012285261714F0421714F4FC0162873E
:1036600008950E94F82EBF92CF92DF92EF92FF92C0
:103670000F931F93CF93DF93FC0166834783862FBD
:10368000880F880F860F382F3F70942F990F990F4E
:10369000940F50E19502C0011124832B818367FFB1
:1036A00002C08CE003C0662311F084E0848747FFEA
:1036B00002C0148604C0442311F088E084872223CA
:1036C00009F44BC08185811148C0EF0184858111C7
:1036D00034C01D868A819B812AE030E0B9010E94B6
:1036E000892D162F8C819D81B9010E94892DFF247F
:1036F000FA94F60E00E0CC24CA94C10EBB24B39415
:10370000B10EDF2CD01A6D2D812F0E948A258330B7
:1037100091F46D2D8C2D0E948A25E82E6D2D8B2D18
:103720000E948A250F5F9DEF9E0D923020F09DEF45
:10373000980F923060F4098710C00E94E82D26E0AF
:1037400030E040E050E00E94832E698706C081117E
:10375000D8CF81508330A8F6EECFDF91CF911F9163
:103760000F91FF90EF90DF90CF90BF900895E1E729
:10377000F0E080818D7F8083109291004698479879
:103780001092A2010895CF92DF92EF92FF920F93D1
:103790001F93CF93DF930E94061B811520E89207A9
:1037A00051F4DF91CF911F910F91FF90EF90DF9037
:1037B000CF900C94B71B21E02093A201813020E828
:1037C000920751F48091A0019091A1019093A401DE
:1037D0008093A3010E94061B97FD05C020919F01C5
:1037E000222309F440C020919E0121113CC021E018
:1037F0002093A601EC01DF77209769F481E08093A4
:10380000A70146983FE9C32E3FE0D32EE12CF12CCF
:10381000CAEFD0E014C08E0120E030E060E472E432
:103820008FE090E0A90198010E94832E69017A013E
:1038300081E0C81AD108E108F1081092A701E091CF
:103840002907F0912A070995811103C081E080932F
:10385000A7018091A601882309F43FC08091A701A8
:1038600081113BC003C01092A601C4CF469935C058
:10387000479A0E94061B009771F09C01DE010E948E
:10388000D72EDC01CB0129E0B595A79597958795B3
:103890002A95D1F703C08FEF9FEFDC0110929000C3
:1038A0002AE020939100D0929900C09298008093D2
:1038B000A8019093A901A093AA01B093AB018091B4
:1038C0007100826080937100DF91CF911F910F9101
:1038D000FF90EF90DF90CF9008954798CACF1F9246
:1038E0000F920FB60F9211242F933F934F935F9334
:1038F0006F937F938F939F93AF93BF93EF93FF93B8
:103900008091A8019091A901A091AA01B091AB0169
:10391000892B8A2B8B2B81F18091A70181110BC000
:1039200098B180E4892788B98091A601882319F08D
:1039300088B1805888B98091A8019091A901A0917F
:10394000AA01B091AB01181619061A061B06B4F4A9
:103950008091A8019091A901A091AA01B091AB0119
:103960000197A109B1098093A8019093A901A0939F
:10397000AA01B093AB0102C00E94C31BFF91EF915B
:10398000BF91AF919F918F917F916F915F914F9177
:103990003F912F910F900FBE0F901F9018959C0193
:1039A000E1E7F0E090819D7F908381E08093A50125
:1039B0003093A4012093A3013093A1012093A0018F
:1039C0000C94C31B4F925F926F927F928F929F9243
:1039D000AF92BF92CF92DF92EF92FF920F931F931D
:1039E000CF93DF9300D000D0CDB7DEB7DC01411517
:1039F000510509F4D8C0FA01F490319694914E5FC4
:103A00005F4FCF2CD12C2223D9F0E1E0F0E0892FB9
:103A1000877011F4E0E0F0E0892F86958695869511
:103A2000E80FF11DEC9D8001ED9D100DFC9D100D2A
:103A30001124209FF001219FF00D11244E0F5F1FD4
:103A4000F601EA0FFB1F1E161F060CF0ACC0A038D3
:103A5000B1050CF0A8C09B01290F311D12161306E9
:103A60000CF0A1C0603471050CF09DC041155105EA
:103A700009F499C0062F0770B02E9B0177FF02C092
:103A8000295F3F4F83E0359527958A95E1F7822F8F
:103A900077FF04C0BB2011F08FEF820FB7FF05C086
:103AA000222733272A1B3B0B02C020E030E0E038FE
:103AB000F10524F070E87A1B672E01C06F2C621AA2
:103AC000082F082E000C110B8F3F1CF4F02FF095DF
:103AD00001C0F0E0EE24E394692F677009F4E12C53
:103AE000E92FE695E695E6959E2D9E0F090F111D8F
:103AF0000930110514F098E0981B6F2F680F8901A9
:103B0000FF9E000D111D1124400F511F01E010E018
:103B10000B2C02C0000F111F0A94E2F7EFEFE09F99
:103B20007001E19FF00C1124E094F094FC82EB8290
:103B3000AC8070E86703A00DB11D11242A0F3B1F54
:103B4000275D3C4F992E980E961669F1D9012A01EE
:103B5000842D841B861508F5F2018490809EC00197
:103B6000819E900D11249A83898367FD04C09C91E6
:103B70009E21892B8C93BB2059F067304CF4CD01EA
:103B800080589F4FFC0180808A207A80872880821D
:103B9000FFEF4F1A5F0A1196DBCF6F5F4C0D5D1D73
:103BA00020583F4FD1CF0F900F900F900F90DF9183
:103BB000CF911F910F91FF90EF90DF90CF90BF902A
:103BC000AF909F908F907F906F905F904F900895EF
:103BD000BC0180E090E00C947E238FB18095807FC3
:103BE000669B88601C9B8460089510929D013E989E
:103BF0003F9808953E9A3F9A81E080939D010895F1
:103C000080389105B8F460347105A0F490E121E0AA
:103C100061FD24E060FD220F62FD2295687F969F82
:103C2000D0011124A80FA75DBC4F8C91822B40FFBF
:103C300082278C9308958091B70190E02091C10173
:103C40003091C201821B930B6AE070E00E94752DD7
:103C50009C0181E0232B09F080E008959091BD0143
:103C6000981714F0691714F48093BD010895109209
:103C7000B8011092C30182E08093B9011092C4018F
:103C80008091B701873160F08091C1019091C201AC
:103C900089399F4F2CF01092B9018EEF8093C401A7
:103CA00008953F924F925F926F927F928F929F9270
:103CB000AF92BF92CF92DF92EF92FF920F931F933A
:103CC000CF93DF93CDB7DEB7142F902E3C88BE88FC
:103CD00030E02031310508F028C1082D7E2D462E18
:103CE0003C01F901E558FF4F0C94F22EEE2029F02B
:103CF0007350723010F010E001C011E046EF60E048
:103D0000C3010E94152693E099120FC1112309F4F3
:103D10000CC181110AC146E065E0C3010E94281B65
:103D20002B2D4EEF60E0C3010E94331B0FC140E01A
:103D30006AE00E94152691E0D82ED926E12EF12CBA
:103D4000EFEFEE1AFE0A512CA701B201882D0E9456
:103D50005E25382EB2016F5F7F4FA7018A2D0E942A
:103D60005E25F82E8C2D0E94CE27182F8A2D0E94BA
:103D7000D727F4E0CF1205C0DD2019F04AE067E054
:103D80000DC094E0991211C01123C9F0882309F4E1
:103D9000D0C0DD2009F4D4C044E061E0C3010E943A
:103DA000281B2B2D40E062E099C0E3E09E1207C083
:103DB000112329F0DD2019F046E065E0EFCF311046
:103DC00093C0882321F0112309F4AFC006C011234A
:103DD00009F4ABC0FF2009F4A8C0DD2009F4A5C098
:103DE000DBCF4AE060E00E94152691E0F82EF9262C
:103DF000412F50E04F5F5F4F642D70E0882D0E948F
:103E00005E25033061F4FF2009F48FC04BEF6AEFA9
:103E1000C3010E94281B2B2D42E060E05FC0882375
:103E200009F483C0FF2009F480C08BE0F30182878E
:103E30002B2D42E060E0C3010E94331B0750093084
:103E400008F075C08FE1F301838771C040E066EF31
:103E50000E94152691E0582E5926E12EF12CFFEFF5
:103E6000EF1AFF0AC42CD12CA701B601882D0E949D
:103E70005E25A82EB60161507109A701832D0E940D
:103E80005E25F82E8D890E94CE27182F832D0E9443
:103E9000D7279D89943029F4552019F049EF66EF12
:103EA00017C0E4E09E120BC01123E1F0882309F44F
:103EB00044C0552009F447C04FEF6CEF09C0F3E050
:103EC0009F1210C0112371F0552061F046E065E0AB
:103ED000C3010E94281B2B2D40E06EEFC3010E94FE
:103EE000331B25C0AA20A1F08BE0F30182872B2D84
:103EF00042E060E0C3010E94331B07500930B8F470
:103F00008FE1F301838781E79BE10E94CF1C0FC003
:103F1000882329F0112349F0552039F0CDCF112302
:103F200021F0FF2011F05110B9CF10E00FC011E0C7
:103F30000DC0332009F44ECFD7CFAA2091F3D4CFB0
:103F4000332099F3D1CFAA2081F3CECF812FDF91F7
:103F5000CF911F910F91FF90EF90DF90CF90BF9086
:103F6000AF909F908F907F906F905F904F903F9019
:103F70000895CF93DF931F92CDB7DEB76983DC013D
:103F8000ED91FC910280F381E02D41E050E0BE0113
:103F90006F5F7F4F09950F90DF91CF91089583E078
:103FA0008093E9008091F200882319F08AE38093DE
:103FB000E8000895FC018485958597FD0BC09FB7A7
:103FC000F89482E08093E9008091F2009FBF90E036
:103FD000019608959FB7F89482E08093E90080915C
:103FE000F2009FBF90E008954091AF015091B00161
:103FF0002091AD013091AE0142175307B4F4909176
:10400000E8009570E1F39091E80092FD19C080936B
:10401000F1008091AF019091B00101968F739927C3
:10402000892B19F48EEF8093E8008091AF01909175
:10403000B00101969093B0018093AF0181E00895A3
:1040400080E00895DF92EF92FF920F931F93CF933A
:10405000DF93D82E8A017B01E40EF51EEB01CE150D
:10406000DF0571F0D7FE03C0FE01849101C0888195
:104070000E94F41F21968111F2CF8FEF9FEF01C0B4
:10408000C801DF91CF911F910F91FF90EF90DF90CA
:104090000895615030F02091F100FC0120830196D9
:1040A000F8CF289884E68093B40108950E94DE2614
:1040B00090E008950F931F93CF93DF931F92CDB796
:1040C000DEB78C01FC018485958597FF0EC0CE017B
:1040D00001960E94B026019719F4898190E002C0F0
:1040E0008FEF9FEFF80195878487F8018485958588
:1040F0000F90DF91CF911F910F910895CF93DF9390
:104100001F92CDB7DEB7FC018485958597FD05C06C
:104110002FEF3FEF358724870BC0CE0101960E9419
:10412000B026019719F4898190E002C08FEF9FEFCC
:104130000F90DF91CF9108950F931F93CF93DF934B
:104140001F92CDB7DEB782E0898342E450E06FE78B
:104150007BE180E80E9422200E947527DC011296F4
:104160000D911C9113970115110589F0D801ED915E
:10417000FC910280F381E02DBE016F5F7F4FC8018B
:10418000099597FD04C0F80100851185ECCF898160
:104190000F90DF91CF911F910F9108951F920F9271
:1041A0000FB60F9211248F939F938091E10090910D
:1041B000E100937F9093E10083FF0FC01092E9002C
:1041C00091E09093EB001092EC0092E39093ED005D
:1041D0001092B50198E09093F00082FF20C093E028
:1041E0009093E9009091F200992319F09AE390934B
:1041F000E8009091B201992339F09091B201915069
:104200009093B201992389F19091B401992339F0E7
:104210009091B40191509093B401992341F184FF9E
:1042200010C08091E2008E7E81608093E2008091D8
:10423000E1008F7E8093E1008091B3018E7E8061EA
:1042400011C080FF16C08091E2008E7E8061809355
:10425000E2008091E1008E7E8093E1008091B301C5
:104260008E7E81608093B30104C05D9ACDCF289A81
:10427000D6CF9F918F910F900FBE0F901F901895E2
:104280001F920F920FB60F921124CF92DF92EF92EE
:10429000FF920F931F932F933F934F935F936F93CF
:1042A0007F938F939F93AF93BF93EF93FF93CF939E
:1042B000DF93CDB7DEB76C97DEBFCDBF1092E900BC
:1042C0008091E80083FFFBC168E0CE0145960E9423
:1042D000492082EF8093E8008D8987FF05C0909187
:1042E000E80090FFFCCF03C09EEF9093E800982F6A
:1042F000907609F0C6C09E894F89588D2F89F88C19
:1043000091110CC0803829F48091AC018093F100A8
:1043100002C01092F1001092F10045C1913051F4A9
:10432000811141C14130510509F03DC18091AC017D
:104330008D7F0BC0933061F4811135C1413051053F
:1043400009F031C18091AC0182608093AC012BC136
:10435000953049F48091E80080FFFCCF822F80687F
:104360008093E30020C1963009F05EC00B8D1C8D58
:1043700022E01092E9001092B0011092AF01F21207
:1043800032C01092AE011092AD010E949C2099E0C3
:10439000BE016F5F7F4FDB01E92F1D92EA95E9F7C0
:1043A0009983FA8291E09E8390EA98879AEF9987A1
:1043B0002091AF013091B001275F3F4F3C832B83A9
:1043C0008D831092E9001092B0011092AF0110930A
:1043D000AE010093AD0149E050E080E00E94222050
:1043E0000E949C20E0C01093AE010093AD010E949A
:1043F0007527DC0112960D911C911397011511057B
:1044000009F4BBC0D801ED91FC910480F581E02D49
:10441000BE016B5E7F4FC8010995009709F0C7C0C8
:10442000F80100851185EACF973009F445C198302D
:1044300021F481E08093F100B6C0993009F0B3C057
:10444000837009F039C1E9E7F1E081E031E096E3FA
:104450002081211109C08EE78093EA001092EA00C2
:104460008F898093B5019FC08093E9003093EB0062
:1044700021912093EC009093ED008F5F873041F7FE
:10448000EACF8B8D9C8D1092E9001092B0011092B2
:10449000AF019093AE018093AD01898D811153C01E
:1044A0008E899D89913A49F4813209F005C147E02E
:1044B00050E064E071E080E0BBC0913209F0FCC0E4
:1044C000833269F48F89988DA0E0B0E08093000179
:1044D00090930101A0930201B093030164C0803264
:1044E00069F48091E80082FFFCCF67E084E091E00E
:1044F0000E9449208BEF8093E80055C0823209F07A
:1045000052C08F8980930B01EEEFFFE78591949164
:104510008B3F9C4D19F0E0E0F8E002C0EEEFFAE0CE
:104520008091040190910501A0910601B0910701CD
:10453000803B9440A105B10509F09EC080910B011C
:1045400080FF79C099C00E947527FC010281138108
:104550000115110509F4B0C0D801ED91FC9101904D
:10456000F081E02DBE016B5E7F4FC801099581117E
:104570001AC0F80100851185EBCFF1E0FF1609F4B0
:104580004EC0F3E0FF1298C08F89882309F44AC017
:10459000823089F440E867E083EE9BE10E94F42CCE
:1045A000882309F489C08EEF8093E80088C018162C
:1045B0001906CCF381C0813029F440E86BE087ED27
:1045C0009BE1ECCF833009F077C00E947527DC01B6
:1045D0001296ED90FC9013978E010F5F1F4F6801AC
:1045E000E114F10479F0D701ED91FC910680F78197
:1045F000E02DB801C7010995080F111DF701E084EE
:10460000F184EECFD8011C92F60101900020E9F769
:104610003197BF016C197D0940E0C601BFCF65EC41
:104620007BE102C061EC7BE1FB01449150E080E85A
:104630000E942220B8CFEE3F2AE0F20751F080819D
:1046400091818737A7E79A0721F09093FF0A80931B
:10465000FE0A87E797E791838083809160008093CB
:10466000B1019BE088E10FB6F894A89580936000B3
:104670000FBE9093600097CF8081918187379747D5
:1046800009F091CFA89580916000886180936000C7
:104690008091B10180936000EE3FBAE0FB0739F0F2
:1046A0008091FE0A9091FF0A918380837CCF1092C3
:1046B000FF0A1092FE0A77CF81E28093EB006C969E
:1046C0000FB6F894DEBF0FBECDBFDF91CF91FF9143
:1046D000EF91BF91AF919F918F917F916F915F917A
:1046E0004F913F912F911F910F91FF90EF90DF908D
:1046F000CF900F900FBE0F901F9018958F929F92A2
:10470000AF92BF92CF92DF92EF92FF926B017C014A
:104710000E9427284B015C01C114D104E104F1047B
:10472000F1F00E942728DC01CB0188199909AA0918
:10473000BB09883E9340A105B10570F321E0C21A80
:10474000D108E108F10888EE880E83E0981EA11CCC
:10475000B11CC114D104E104F10419F7DDCFFF90BD
:10476000EF90DF90CF90BF90AF909F908F90089583
:104770002F923F924F925F926F927F928F929F9271
:10478000AF92BF92CF92DF92EF92FF920F931F935F
:10479000CF93DF93CDB7DEB72F970FB6F894DEBF78
:1047A0000FBECDBF4C017B012C870D875A834983F7
:1047B0001C821B821D821E8268E070E0CE01019681
:1047C0000E94E2271C019C012F5F3F4F3B872A87F5
:1047D00068E070E0CE0101960E94E2278C0161E062
:1047E00070E0CE0101960E94E2272A853B85280DC4
:1047F000391D37FDF5C030E8831691040CF0F0C088
:104800000F5F1F4F98012E0D3F1D37FDE9C040E49B
:10481000E416F1040CF0E4C06701F7FE04C0CC24F8
:10482000DD24CE18DF0857E0C522DD249701F7FE0E
:1048300002C0295F3F4F390123E0759467942A95A0
:10484000E1F7F7FE09C091E0691A710828E030E04D
:10485000A9014C195D096A01980117FF02C0295F7F
:104860003F4F290193E0559447949A95E1F70770DB
:104870001127012B19F05FEF451A550A0D8500230A
:1048800011F0710102C0E12CF12C898701E010E0E8
:10489000A12CB12C88E090E09C012C193D093F87A8
:1048A0002E87A414B5040CF09BC041E050E058875B
:1048B0004F8361E070E0CE0101960E94E227892BD0
:1048C00031F48F819885029698878F83F2CF6F811C
:1048D0007885CE0101960E94E227DC01119640E026
:1048E00050E04A175B0708F072C099859111102BB0
:1048F000000F09F069C093012A0D3B1DC901019603
:10490000099708F043C0C4018E0D9F1D80389105A2
:10491000E8F5B9017695762F662777956795680D46
:10492000791D6E0D7F1D2F3F0FEF300709F454C026
:10493000812F0C2C01C0880F0A94EAF7FB01E75D78
:10494000FC4F0C85002319F09081892B03C08095C2
:10495000908189238083C114D104C1F027303105AF
:10496000A9F0812F90E00E8402C0959587950A9456
:10497000E2F7FB01E755FC4F2C85222319F010814B
:10498000812B03C080951081812380830D850111C7
:1049900010C02FEFE21AF20A8A859B85E816F90605
:1049A0008CF09FEFA91AB90A01E010E0E12CF12C7C
:1049B0000BC001E0E01AF108F7FE04C02FEFA21AC5
:1049C000B20A710101E010E04F5F5F4F8ACF398575
:1049D00041E03427398765CFC114D10411F6D6CF11
:1049E0002F960FB6F894DEBF0FBECDBFDF91CF91EB
:1049F0001F910F91FF90EF90DF90CF90BF90AF90FD
:104A00009F908F907F906F905F904F903F902F90EE
:104A100008958150833008F18AE0869F9001879F36
:104A2000300D1124849FB001859F700D1124E5ED98
:104A3000F2E0808184FF0AC082819381821793070C
:104A400029F4848195818617970739F03E9683E093
:104A5000E932F80771F780E0089581E00895873022
:104A600028F4843038F5882329F126C0803120F5D8
:104A70008AE0869F9001879F300D1124849FB001AA
:104A8000859F700D1124E5EDF2E0808184FF0DC05B
:104A900082858B3051F4828193818217930729F4A8
:104AA000848195818617970739F03E9683E0E93235
:104AB000F80759F781E0089580E00895853031F1D5
:104AC00018F4882319F124C08750883008F58AE04B
:104AD000869F9001879F300D1124849FB001859F90
:104AE000700D1124E5EDF2E0808184FF0AC082811F
:104AF00093818217930729F48481958186179707FC
:104B000039F03E9683E0E932F80771F781E00895C5
:104B100080E008958C31F8F46F3FF9F06031F8F4DB
:104B2000982F969570E080FD0BC080E1989F600DF6
:104B3000711D1124FB01E154FE4F8681829509C04D
:104B400080E1989F600D711D1124FB01E154FE4F1F
:104B500086818F70089581E0089580E0089582E055
:104B60000895982F9695E62FF0E080FD0EC080E125
:104B7000989FE00DF11D1124E154FE4F86818F7046
:104B800090E1499FA001112409C080E1989FE00DA8
:104B9000F11D1124E154FE4F8681807F482B46830E
:104BA0000895CF93DF9382EB90E00E943F2E809395
:104BB000A50283EB90E00E943F2EC6EBD1E08E83EE
:104BC00084EB90E00E94472E9D838C83DF91CF91F0
:104BD00008951F93CF93DF93C091A5026C2F82EBB2
:104BE00090E00E944D2E6C2F87EB90E00E944D2E9E
:104BF000C6EBD1E01E81612F83EB90E00E944D2E29
:104C0000612F88EB90E00E944D2E0C80DD81C02D3D
:104C1000BE0184EB90E00E945F2EBE0189EB90E024
:104C2000DF91CF911F910C945F2EEF92FF920F9323
:104C30001F93CF93DF93DC01E5EDF2E089E293E08F
:104C4000062E000C770B042E000C550B208124FF40
:104C50001EC02F703C913F702317C9F01181212F86
:104C60002F70C281D381C20FD11D12962D913C911C
:104C70001397260F371F7E010AE0E00EF11C2E1558
:104C80003F052CF4265F3F4FC217D30734F03E9602
:104C90008E179F07D9F680E019C012951F70C48146
:104CA000D581C10FD11D14962D913C911597240FDC
:104CB000351F7E010AE0E00EF11C2E153F053CF782
:104CC000265F3F4FC217D30714F781E0DF91CF91E2
:104CD0001F910F91FF90EF9008958091B70190E0A0
:104CE0002091C1013091C201821B930B2AE030E078
:104CF000B9010E94752D863020F0A901481B510989
:104D0000CA0121E005970CF020E0822F0895CF9290
:104D1000DF92EF9220916707822F90E0FC01EE0F67
:104D2000FF1F8E0F9F1FFC01E55DF84FC080D180F3
:104D3000E2808FEF820F80936707EBE2F7E090E06D
:104D4000981740F423813481458121933193419315
:104D50009F5FF6CF8E2DB601EF90DF90CF90089534
:104D60002091B501211103C08FEF9FEF08955FB728
:104D7000F89422E02093E9002091F20030E012162E
:104D8000130614F421E030E0422FFC0184E6415088
:104D900038F028988093B4019091F1009193F7CF67
:104DA0002115310521F08091F200882319F05FBFB1
:104DB000C90108958BE68093E800F9CF2FB7F894E6
:104DC00083E08093E9009091E800892F807295FF3D
:104DD00004C09091F20080E4891B2FBF08958F9248
:104DE0009F92AF92BF92CF92DF92EF92FF920F937A
:104DF0001F93CF93DF936C017B018A0180910B019C
:104E0000882309F45CC08091B501882309F457C058
:104E10008091B30180FF05C08091E00082608093A3
:104E2000E000E801B12C8AEFA82E93E0892E2AE356
:104E3000922E209711F4BB20D9F10E94DE26811119
:104E40000AC0AA94AA20D9F161E070E080E090E065
:104E50000E947E23EECF282F30E0C217D3070CF438
:104E60008C2F9FB7F8948092E9002091E80025FFED
:104E70001DC0282F30E0C21BD30BF701815020F05A
:104E800041914093F100FACFE20EF31EBB2019F0DE
:104E90009092E8000AC08091E80085FD07C09092DA
:104EA000E800BB24B394209709F0B12C9FBFC1CF79
:104EB0005D9884E68093B2011016110644F081E0FB
:104EC00090E0F6019383828380E090E001C0C80106
:104ED000DF91CF911F910F91FF90EF90DF90CF90D6
:104EE000BF90AF909F908F90089580917707811128
:104EF0000DC082E08093730784E080937407109262
:104F000076071092750781E08093770783E797E033
:104F10000895CF93DF93D82F8FEA90E00E943F2E21
:104F2000C82F80EB90E00E943F2ED11104C0CC34FA
:104F300011F4823581F16CE48FEA90E00E944D2EED
:104F400062E580EB90E00E944D2E61E081EB90E005
:104F50000E944D2E61E082EB90E00E944D2E65E0B4
:104F600083EB90E00E944D2E61E086EB90E00E9482
:104F70004D2E61E087EB90E00E944D2E65E088EBBE
:104F800090E00E944D2E60E070E089EB90E0DF91B0
:104F9000CF910C945F2EDF91CF910895882329F053
:104FA00083508D3010F080E0089581E008958130C5
:104FB00028F0843028F08750893010F080E0089580
:104FC00081E008951F93CF93DF93DC0120E030E070
:104FD00040E050E011E0C1E0D0E02617370791F142
:104FE00014968C911497811115C014961C931497E4
:104FF00012968D919C911397ED91FC911197E80F6A
:10500000F91FE4911596EC931597019613969C93CE
:105010008E93129714969C91149715968C911597D0
:10502000892349F0FE01022E02C0EE0FFF1F0A94F1
:10503000E2F74E2B5F2B990F14969C9314972F5FDA
:105040003F4FCBCFCA01DF91CF911F9108953FB75A
:10505000F8948091E2079091E307A091E407B09162
:10506000E50726B5A89B05C02F3F19F00196A11DA5
:10507000B11D3FBFBA2FA92F982F8827820F911DEE
:10508000A11DB11DBC01CD0142E0660F771F881F35
:10509000991F4A95D1F708951F920F920FB60F925C
:1050A00011242F933F938F939F93AF93BF9380913E
:1050B000DD079091DE07A091DF07B091E007309106
:1050C000E10723E0230F2D3720F40196A11DB11D28
:1050D00005C026E8230F0296A11DB11D2093E1070C
:1050E0008093DD079093DE07A093DF07B093E0077E
:1050F0008091E2079091E307A091E407B091E50762
:105100000196A11DB11D8093E2079093E307A09340
:10511000E407B093E507BF91AF919F918F913F91C5
:105120002F910F900FBE0F901F9018958091BC018A
:1051300081508093BC0196E090939B01811102C045
:1051400088E001C08AE08093BE018BEE9BE10C9465
:10515000CF1CCF93DF93CDB7DEB728970FB6F89467
:10516000DEBF0FBECDBF789484B5826084BD84B5A8
:10517000816084BD85B5826085BD85B5816085BD52
:1051800080916E00816080936E001092810080910A
:105190008100826080938100809181008160809392
:1051A00081008091800081608093800080919100D7
:1051B0008260809391008091910081608093910042
:1051C000809190008160809390008091C100846004
:1051D0008093C1008091C10082608093C100809162
:1051E000C10081608093C1008091C3008160809381
:1051F000C3008091C00082608093C0008091C20093
:1052000081608093C20080917A00846080937A00EC
:1052100080917A00826080937A0080917A00816028
:1052200080937A0080917A00806880937A0010924F
:10523000B5011092AC011092B3018091D70081604A
:105240008093D70080EA8093D80089B5806189BDBA
:1052500089B5826089BD09B400FEFDCF61E070E0D0
:1052600080E090E00E947E238091D8008F7C806156
:105270008093D8008091E000807F8093E00080914F
:10528000E1008E7E8093E1008DE08093E200559AEC
:10529000209A81EC80937C0085B1806F85B984B1C0
:1052A000877E84B984B1876E84B95E9A5F988AB12B
:1052B000806D8AB9769A6E9881B3806F81BB899828
:1052C00080B38D7080BB80E58CBD81E08DBD85E0B5
:1052D00090E00E94E81D5F9A85E090E00E94E81D42
:1052E0005E985C98E1EFF5E184918EBD00000DB40D
:1052F00007FEFDCF319645E1EE3FF407A9F75C9A32
:1053000081E88093640080916500816080936500EE
:105310000E94ED1D87FF24C05C9885EA8EBD0000C9
:105320000DB407FEFDCF5C9A2E982F982D98809192
:10533000640080628093640081E083BF889513BE1F
:10534000FCCF2D980E94ED1D8478843871F00E9466
:10535000ED1D8471843129F188EC90E00E94E81DF4
:105360000E94ED1D82FDEDCF38C02D9A88EC90E0B3
:105370000E94E81D2F9882E090E00E943F2E8F3F10
:1053800029F06FEF82E090E00E94652E84EF91E0BB
:105390000E94E81D2F9A0E94ED1D84788438D9F36D
:1053A000D6CF2D9A88EC90E00E94E81D2E9882E0DE
:1053B00090E00E943F2E882329F060E082E090E098
:1053C0000E94652E84EF91E00E94E81D2E9A0E94B3
:1053D000ED1D84718431D9F3BFCF2D9A88E280937B
:1053E0006F07809164008E7F8093640080917A00C3
:1053F000806480937A0080917A0086FDFCCF0091D2
:105400007800109179000E94272820E030E0980170
:1054100011270027600F711F821F931F20916400C6
:10542000216020936400611571058105910511F0DB
:105430000E94362E82E090E00E943F2E882319F0D1
:105440000E94FA1D02C00E94F51D80E00E9489277B
:105450000E94D12584E18093B60183E28093B70155
:105460001092BD011092BE0181EB90E00E943F2E90
:10547000811103C010929B0105C0823018F081E1B8
:1054800080939B019CE1292E312C28E9422E552442
:105490005A9437E6632E77247A9411E08FB7F89404
:1054A0004091DD075091DE076091DF077091E007C2
:1054B0008FBF80917007942F981B892F909171074F
:1054C000992329F0809372071092710778C2909106
:1054D0006F07891740F48F5F891708F070C213BFF8
:1054E000889513BE6CC2109371074093700780912A
:1054F0006B0790916C07019690936C0780936B07F4
:1055000080916D0780936E070E94ED1D80936D075B
:10551000F0909B018F2D90E08231910508F041C2FF
:10552000FC01E759FF4F0C94F22E00E021E041EB23
:1055300059E164E070E080E090E00E94B82380913F
:105540006E07809590916D07892383FF03C00E94A9
:10555000FA1D04C082FF25C20E94F51D10939B0115
:1055600020C283EB90E00E943F2EF0909C0185309A
:1055700009F02CC282EB90E00E943F2E813009F0AE
:1055800025C26F2D660F660F862F8F0D28E1F22E34
:10559000F80EDD24D39447E759E168E170E000E0BC
:1055A00021E086E290E00E94B8236F2D70E021E0B8
:1055B0004BEA59E18FE190E00E94B823E12CF12CF5
:1055C00021E04CEB57E160E070E0C7010E94E21C73
:1055D00021E04CEB57E167E370E0C7010E94E21C59
:1055E000EAE0EE0EF11CF2E8EF16F10449F78091C3
:1055F0006E07809590916D078923D11011C087FFA8
:1056000007C090919C01992319F0915090939C01AF
:1056100084FF06C090919C01911102C010939C01DF
:1056200083FFBFC180919C01882329F0813009F05C
:10563000B8C10E9489270E94D12582E080939B01F6
:10564000B0C10E94B71B80916707882319F00E94A0
:105650008726F9CFE091A502F0E0EE0FFF1FEC5B8B
:10566000FE4F208131811093BD01F9018491FAE050
:105670008F9FC0011124F9013196E4914AE0E49F23
:10568000F00111248B3391052CF41092C00110927B
:10569000BF0117C0AC014B5351094E35510560F4A1
:1056A0004BE34093B6016BE370E0681B790B70939A
:1056B000C0016093BF0107C07092C0016092BF013A
:1056C00089598093B601E731F1052CF41092C2019B
:1056D0001092C10116C0CF0147978235910560F441
:1056E00087E18093B70187E190E08E1B9F0B909339
:1056F000C2018093C10107C05092C2014092C10112
:10570000E856E093B701F90132960491A5EDB2E0B5
:1057100043E050E070E06C91607F672B6C931896CB
:105720001C9218977017E8F4F901E40FF51FE49143
:105730008AE0E89FF00111241396FC93EE931297F0
:10574000FA013196E20FF31F4E5F5F4FE491FAE0EA
:10575000EF9FC001112415969C938E93149760615E
:105760006C937F5F1E967630B1F6CA010196F901FF
:10577000E40FF51F54915093A702A9EAB2E000E0AC
:10578000BF016E5F7F4F501759F03196E491EC9353
:10579000FB01449111964C9311970F5F1296F0CF35
:1057A000850F911D850F911DA901480F591FADEC63
:1057B000B2E0FA0164916C933196E4911196EC9306
:1057C00011974E5F5F4F129665ED72E06A177B0787
:1057D00081F74C0179E0870E911CFC013896E20FAD
:1057E000F31F0491023021F0E12CF12C40E066C05F
:1057F000AFEBB1E06C01E0EECE0ED11C40E07D01DC
:1058000060E070E04C01F9E08F0E911CF401E60FAE
:10581000F71FE20FF31F5491E52FF0E004E0F59538
:10582000E7950A95E1F7E63009F44F5FE52FEF7051
:10583000E63009F44F5FF70156836F5F7F4FF0E169
:10584000EF0EF11C6E30710509F711960E968C154E
:105850009D05A9F66CC0EE2309F469C05FEF851AB7
:10586000950ABF2EB29480EFB8226701C6010111DC
:1058700036C0B1010E94892D969587957727B4E0AF
:10588000880F991FBA95E1F781549E4FDC01A60F4E
:10589000B71F16965C911697C0FC1EC05F705B29FF
:1058A00016965C938FEFC81AD80A8C2D8E198E1716
:1058B000E8F2E150F0E03196EE0EFF1EF901E80D3E
:1058C000F91DE491FE2FF295F695F770EF71F63021
:1058D00009F0C1CF4E0FBFCF507F5F2BE1CF54E017
:1058E000969587955A95E1F7982F9695AC2DAF70C0
:1058F000B0E080FD0DC060E1969FA00DB11D1124A8
:10590000A154BE4F16968C9116978F708B290CC0A0
:1059100070E1979FA00DB11D1124A154BE4F1696A2
:105920008C911697807F8F2B16968C93BBCF4093CC
:10593000A60283E001C087E080939B0102C00E9421
:10594000E9250E943A0E2DC088E0ECE3F1E0DE018B
:10595000119601900D928A95E1F700E021E04BEC61
:1059600056E164E170E083E190E00E94B82386EFA5
:105970008F0DFE013196E80FF11DE80FF11D4081FA
:10598000518121E063E270E087E490E008C000E02C
:1059900021E04EEF55E167E170E084E190E00E9484
:1059A000B823E9E2F3E080E098E000800EBC11113A
:1059B000012C019780FDFDCF0192B9F70DB4E0E015
:1059C000F0E0309709F46ACD099567CDFF0C6F2D93
:1059D000660F660F8F2D860F93E1F92EF80ED12CEE
:1059E0004EEF58E163E1DACDDF92EF92FF920F9331
:1059F0001F93CF93DF93D82EF92EE42E062F10E0BD
:105A0000C8010196880F0E94F41F83E00E94F41FD2
:105A1000CD2DDF2D0C0F1D1FC017D10789F0E7FE1C
:105A200003C0FE01849101C088810E94F41FF82EFA
:105A300080E00E94F41F8F2121968111EDCF01C0DB
:105A400081E0DF91CF911F910F91FF90EF90DF9058
:105A50000895109282071092810788EE93E0A0E0EB
:105A6000B0E08093830790938407A0938507B09359
:105A7000860783E891E09093800780937F078FEFFC
:105A80009FEF90938C0780938B0710926D07109275
:105A90006E0780E180936F0710926C0710926B077E
:105AA0001092710785E991E09093690780936807E8
:105AB00080E29BE190932A078093290780E090E899
:105AC0009093DC078093DB0746983E9A47983F9A6D
:105AD000EBE2F7E0108211821282339687E0E7361C
