:100000000C94A40E0C94CC0E0C94CC0E0C94CC0E30
:100010000C94CC0E0C94CC0E0C94CC0E0C94CC0EF8
:100020000C94CC0E0C94CC0E0C9456210C94C8213C
:100030000C94CC0E0C94CC0E0C94CC0E0C94CC0ED8
:100040000C94CC0E0C94CC0E0C94CC0E0C94CC0EC8
:100050000C94CC0E0C94CC0E0C94CC0E0C94CB289F
:100060000C94CC0E0C94CC0E0C94CC0E0C94CC0EA8
:100070000C94CC0E0C94CC0E0C94CC0E0C94CC0E98
:100080000C94021D0C94CC0E0C94CC0E0C94CC0E43
:100090000C94CC0E0C94CC0E0C94CC0E0C94CC0E78
:1000A0000C94CC0E0C94CC0E0C94CC0EAD13DE1331
:1000B000DE13D713D713D313D313CF13CF13CB130D
:1000C000CB13C313C313C713C713C313C313C7136C
:1000D000C7132C2B972B1C2D1C2D1C2D172D1C2DC5
:1000E0001C2D1A2D1C2D1F2D1F2D1F2D322D322D95
:1000F000322D282DFE1EFE1EFE1E1F1F1F1F1F1F3E
:10010000791F791F791F791F791FAE1FAE1FAE1F90
:10011000FE1EFE1E090FE8D2D9ED76BB4EC7B7DD35
:100120006EB7DBED7636090FE8D3E974FCDBED76CC
:10013000BBDD6E6703090F109BCE6EB7DB753A36D9
:10014000090FB8B2E9145FD7ABCF85A2ED6CDB59CC
:1001500001090FBC92EE55A9A4D2AAAD53E4E9E877
:10016000B6B303090FF8B6CAF55FB9B5EBD436EEEE
:10017000ED6CDB5901090F38B39FEAB397770A4B4F
:10018000DBD9B6B302090FBC924EA5FAECE554CE0A
:10019000C9D9D3F9EC367A090FB8B29F6AA2745F55
:1001A000BB8E773B7B3A5A090F38972ACA6B998ED8
:1001B00039BD1D5B090F5CA73EF54D96DBF5B950C7
:1001C000B79D1D20064B000000190075054B00006F
:1001D00000190027054B000000190097044B000090
:1001E00000190017044B0000001900B8074B00006D
:1001F000001900E0064B000000190010034B00003E
:10020000001900BA024B000000190093024B0000D5
:100210000019004B024B00000019000B024B0000BC
:10022000001900DC034B000000190070034B0000B4
:1002300000190088014B00000019005D014B00000F
:100240000019004A014B000000190026014B000074
:1002500000190006014B0000001900EE014B0000E0
:10026000001900B8014B0000001900C4004B000049
:10027000001900AF004B0000001900A5004B000062
:1002800000190093004B000000190083004B000090
:10029000001900F7004B0000001900DC004B0000C3
:1002A00000190062004B000000190057004B0000CD
:1002B00000190052004B000000190049004B0000DB
:1002C00000190041004B00000019007B004B0000AA
:1002D0000019006E004B000000190031004B0000B7
:1002E0000019002C004B000000190029004B0000F1
:1002F00000190025004B000000190021004B0000F0
:100300000019003E004B000000190037004B0000B0
:1003100000190000804B024B0000000F004B024B05
:100320000000000F004B024B0000000F0026014BA5
:10033000000080E0060F0017040F0027050F0000E3
:10034000800A081800600080002000400000006063
:1003500000900020000000000000008010002080BD
:100360000000800000200000000040090FA8D69D7A
:100370002BA2AC932A75BB08B3DBB106090F8876B4
:100380009D7A995DCBDA756AD46DD7B101090FB842
:10039000969F6AA274D7ABCFCDBC9D753B2B060749
:1003A000A8D2E9743A2E0407723A9D8E0A06077C99
:1003B0003A9D4E470704079D4BA7A303030788E513
:1003C000030792CC0407B8D2E99C5304077C3A9DFA
:1003D000760E0607DE6EB7DBED76070407A592768C
:1003E000BB5D010607B7DBED76BBDD020407A59216
:1003F0006ABBDD020307F8743A0307759A10040715
:10040000D476BB924A2A0407B7DBAD5452011507D4
:10041000A54E472555552A1595F3D99C2293AA2A0E
:10042000958A4AEA745C95032907522E95AA4A9543
:10043000E272AA9295755452E5B3924AAAAA542A36
:100440006EE552A9544E71399F4E392EA9AA52A970
:10045000A8A4AA64656B4A550A2907D369A9A2937F
:10046000AA9295ADA9F64A4DEF54252BEBB8944BC3
:10047000A5AA52A5B89CAA64651D552A25552A2A05
:10048000E9F24949A94A010E07A54E47E57C36A77E
:10049000C8A44EC75571011307522E95AA4A95E27A
:1004A000522E954AE51497D4E9A8A44AA552394595
:1004B00056390F07A5CB67B3924AAAAA542A2AE94C
:1004C000F249C9553904050E11110E00121F101200
:1004D0001915120A11150A06051F04171515090E1C
:1004E000151508011905030A15150A12150906192B
:1004F00007EA5455AA2AD59129974AA572159972E7
:10050000A9542AA7B8A4AA64656B2AA9AA52A9B8B3
:100510002A2EF4F5F9F6F7F8FBFAFFFCFDFE0002CF
:10052000030401060508090A070B0C0E0F008801D9
:10053000640000001400DC036400000014004B029F
:100540006400000028001704640000001400270560
:1005500064000000140020066400000028000080F1
:10056000150E0210010E0E01130000001B000F01FA
:100570000C0E0005850E81042306618206612405A8
:1005800021C1066182012661240523058202A1247E
:10059000A16121C2210923A104A124A1612409236D
:1005A000A1012281A121C221A16104A1230521C2AF
:1005B000A1012201A124A16104A1230523A10A61B3
:1005C00004A1C221136104A12309A122A10661088B
:1005D000A123A104A1C2A10661A12304A123A10416
:1005E000A122A10661A123012201A101C101A10E45
:1005F00061A1C221012201A123A10E61A1231761E2
:10060000083C00100C030E041709070B0500001B23
:100610000000011B0100021A010F041809060B005B
:10062000E11F1985610561866121052161066185EA
:100630006106612101C103216101C10461056103FA
:10064000C1026125A121612301C1012162032DA104
:1006500021612701610CC1056125C102612203C12D
:1006600021C10322056126C101612202C123C10209
:1006700022056127C1612201C125C1012203C101F7
:1006800061286122A12B614221612107610E610174
:1006900022612102C10222610E610122612861846E
:1006A000612461C1836101226121076102C101618D
:1006B00022C1216121022161C122613261246123B1
:1006C00061001206020A031A090B0E000E0105074B
:1006D00005080509050A050B050C050D050E050F96
:1006E00002011901000618090200000000000000C4
:1006F000000000000000000004444444400404449E
:100700000000000000003000000003400000303115
:10071000111300003444444403444444031034019E
:1007200030003000000031004440310030605300A0
:10073000300000035013000310003000610030044B
:10074000403000013040044434444130133003163B
:10075000311013001000000001310130031111119C
:1007600013001111011111115110031001601343F5
:100770000000400003115110031111111003111159
:100780000111131060100310610013031011011107
:10079000131111100311111113031111011613116B
:1007A000111003100160030310000100031000107A
:1007B0000311111113031151115113106000130093
:1007C0000000131300010060030008030701020684
:1007D0001A0A0500000001000200030004020108DB
:1007E0000113011B0100E11F0EC10B4261440944CA
:1007F0006145E103610421C106210461210183E116
:100800008361852105218561416102C121C10261A8
:1008100002C1032103210661216182022102618359
:100820000121610121012103C10361410361022111
:100830000521016102A1086121C102610321032197
:10084000026109C10161410182614221012101214D
:1008500003612101860121016121610721A1046158
:10086000012101C104210261416103C161230561CC
:100870000221042101C101612461216141876103D9
:10088000210221022261246101610DA2056104613E
:100890000161146104614726442447000F0F020BD5
:1008A0000410040A070014000701140107021402CF
:1008B000070E140E070F140F00001B00090312038C
:1008C000001C2661E10D612963C1E10DC163236252
:1008D0002363C10AC16321A12162C16321A12163F4
:1008E000C106C163236303C1632363C102C16321E2
:1008F000A1216307C16321A1216623630BC1632387
:100900006223630FC163216221630FC163236223EA
:10091000630BC163236621A1216307C16321A12168
:1009200063C102C163236303C1632363C106C1635F
:1009300021A12163016221A12163C10AC163236254
:100940002363C1E10DC1632961E10D6126000C0A39
:100950000318040207010A030D000D010D0214041F
:1009600000050607080A001F1F03611061042661C5
:1009700003618C61042102C101216103610C6104E6
:100980002104216103614622422243214221422166
:1009900042214261218521A123022101C102C10519
:1009A000C1026121016103218201210228A1256187
:1009B00021016121C221C1216121C10121018C617B
:1009C00021016124A12161210221610C61210161C8
:1009D000C103826322612C61266101C1026102614F
:1009E0000C610661220264C12501C101236122015B
:1009F000C101216121C18202622201C10125C1011F
:100A00006101256122C101226134610225000308D0
:100A10000312040A0A160E0418001801180218031B
:100A2000010114030A04100E001FC11861412215B0
:100A3000426241C12201C110C1E142620221C123CF
:100A40000C2762022101210223C1052301C1056295
:100A5000820221C10121022102C10122C1014403FC
:100A60006202260323A12106234162C10F214361B3
:100A70002101C102624489076123C1016203410669
:100A8000C4066102246101C10141C1024A0361013E
:100A9000C14102C161250F61224222618461860940
:100AA000610B610F610B610333000E0B0311011722
:100AB00006010801100000010A0113011B0100904A
:100AC000E110C10A610FC308630EC308630DC209B8
:100AD000620DC201C3056201630288C201C202C283
:100AE0000262016202620B620962066504630863C6
:100AF00005C501640162046401620465066209625D
:100B000004C5066209620465012C612F0C611B613A
:100B10000F3C00090604070115011607060E021B0B
:100B2000001B0101011A0104061408000C2311C165
:100B300004C1024305C103C103612E612C618A0116
:100B40004361176123610289028A614361C10A62BC
:100B500001C10284032607C1612604216101460503
:100B6000C1612302810121042161012603C16127A2
:100B7000C16121042161014601C16127C1226121B6
:100B80000421618501C1612BC161210421610143FF
:100B900001614BC122612101C20121610123016177
:100BA0000B22C16124A12161014301612A61C1229B
:100BB000610661C123C16121C108612C43234A0040
:100BC00001040416020207090E190E0902001100A1
:100BD0001700020111011701020211021702080297
:100BE00015020407190A02110121212121221010E6
:100BF00012011011111101111112122320202101D3
:100C00000000311200000001200300000600000077
:100C10003111151134444443115111111111310096
:100C20000600363126030200212001003111111384
:100C300011321200602000020444310021032032EE
:100C4000221221020044444131600003003001447B
:100C50004444444206113115211300362216012660
:100C6000002001103125020300621221602144435B
:100C700010003100100306206660260020030000EB
:100C8000303444436203121002600013111111301A
:100C900030022443000000200603022222303121CA
:100CA0006603443003011113002001303606116041
:100CB000663443001123000061111111111111302C
:100CC000636111111111110408030A091A09020ABA
:100CD000021B001B0100000C0107081809001C88FA
:100CE0000121610CC102C1E103C121C10261216185
:100CF00021412141214121412141A1412141214164
:100D00002102C1210121C10161216104C103C1028C
:100D10008601C1210321C16122412141214121419B
:100D200021412161072105A161214B610E618A6189
:100D300023A12361136121066102C102C10D61215A
:100D40000662276103C102C103612101C102C10121
:100D50006202C102C10161214121412141214121A0
:100D60004121422141A1412162276126C10123077E
:100D70006202C101C10261280122076227612901C3
:100D800021076203C101C101612A02C102C10261DE
:100D90003C000D0E04020E060E160E1A0E0409007B
:100DA0001200090F120F00001B000A0E110E00079F
:100DB00082E1098204820226C18161286181C12405
:100DC000C1810227C1612861C126C1022861286151
:100DD0002802230124612305612303220223022325
:100DE0006123C3026123C3820223022361260261BD
:100DF00026C18102230223612602610126C102234A
:100E00000223612602610226022301C12361230518
:100E10006105230223C1246123C56122C323022863
:100E200061286122A1250227016128610121A124F5
:100E300003260261286102A1230C6108610929E1EE
:100E4000236223E129001A020604030A0315081885
:100E50000B040E130E040000000112060A0E050317
:100E60000C031604170E00E11F182F6122196122CE
:100E7000A1214761C1026B01610B6121C1016102C6
:100E800068016101C101C101C125610121C1610286
:100E90006108610121E1210126610221610261C134
:100EA00001C101C101C10261012108610321C10128
:100EB0006121A121A121A121016106A101C101C1DD
:100EC00061042101610961042161246106610161FC
:100ED00001610161026106610B61096105610C61DB
:100EE000016101610361062561086101610161031E
:100EF000610A6109C1E12103610B613C000A04033D
:100F0000100102030A08031A021409150908001641
:100F10000101030906001546618E0D620C6147014F
:100F200061210161E1216102614161076185610126
:100F300021610121610245614161410A6102220290
:100F400021A1618461016121A12343012261012268
:100F5000610221A161046101612101C12103C10379
:100F600061012101612182A16106612102C1240187
:100F7000426101C16121C101C261066121022503F3
:100F80006101216121032161A1C105210125C10167
:100F90004261E1E161216123610121052101C12556
:100FA00001C10161022101612201610221042101CB
:100FB0002601614161012361012261032103216155
:100FC00001C121C1012101610161022101612101F0
:100FD000C1610421036126016141610121012201F6
:100FE000226107210A61082243294421412143212A
:100FF00043000E0B03020319030D0B030C000D003D
:101000000E0003030B0310031803001F08641A6289
:1010100019640C8B6696668B018A668A04886688DA
:10102000088666860D83668308C101C101C101C1BE
:1010300001C1026602C101C101C101C101C10B624E
:1010400002620B2B622262366222622B01C101C155
:1010500001C101C10461026104C101C101C101C139
:10106000013C0002060404010D09190A0B0E0A14C2
:1010700000150018001B001B011B021B031B041B97
:10108000051B0603010E09180A020E00064187021D
:10109000830322E103C104C14186C12203622262AB
:1010A000032361224105C12203622262C10661025B
:1010B0004104C12203622262C10142E1C102610115
:1010C000C14103C12203622262C1014202236122A3
:1010D0004102C12203622262C10142066102410152
:1010E000C12203622262C1014201C2E1236101C146
:1010F00041C12203622262C10142016122012361D6
:1011000022412203622262C101420261C20121C165
:101110002161024101C102620262C10142016124F6
:1011200001236101C1412B61410261C102C101C1C1
:10113000226122418B614101612501236101C1418D
:10114000C101C1026106410161C103C10121462300
:101150000261012401410161250D6122C222410188
:1011600061C103C1012C4126410127001B0604086F
:10117000001200080E120E06000001000900110006
:1011800019001A0002001800080C120C02000111CC
:1011900011002220222001111100023233060332F5
:1011A00033333332330603323363231313230113F0
:1011B00011032313132361103233323010333010F4
:1011C000323332301301332323310300030133233D
:1011D0002331003103333301301110310333330134
:1011E0003131300000313106013130000031303111
:1011F0000333330130111031033333013101332311
:1012000023310300030133232331005032333230C2
:10121000103330103233323013032313132361138E
:101220001163231313236132330603323333333212
:101230003306033233230111110322232223011128
:10124000110322230306030322333223030603037D
:1012500022230313130332333233031313032232D3
:1012600032333232333333323233323233000303E8
:1012700014070E0A060F0F1B001B010F021B020FA3
:10128000031B030F041B040F051B050F061B060F92
:10129000070F081B0901030D030E031903021111A7
:1012A00011111111000011111122111014444444A4
:1012B00044444444444444011010103111111111AC
:1012C0003000144444344440003636666000300038
:1012D0001600663000601131111121113000111318
:1012E0001115131010333330200630001603444418
:1012F000430016002630066130001203022203600C
:101300001111111511113000160300066323100688
:10131000266020013000111111311113100222201A
:101320002001344316000030066010666066260116
:101330003603126000301113131115111131111100
:101340001111311111131344444444311104444424
:10135000342044431306006660300630606030235A
:101360006061113113213111513112151111131115
:1013700006366300300000300000000663660C0093
:1013800002010E1A0E0200001B00010204021702E5
:101390001A0200E189078AE16104840127028404BA
:1013A000620483012A018304620482012C01820405
:1013B0006204810125C425018104620481012E019A
:1013C000810462053005620522C424C42205620539
:1013D0003005620526C4260562062E0662048101D8
:1013E0002E0181046204810221C422C421028104ED
:1013F000620482022A0282046201C383C1022602BD
:101400006183C301612961C8612900120A030E03C7
:10141000050A120C040C000C010C020C030202154C
:1014200003060A190B022222222222220002220093
:10143000000002121111111211220001120000000D
:101440000121000600121212000212000000010029
:101450003211151000020000120000006106311167
:10146000100044443112125111113203310610445C
:101470004212310000521111310331114440021265
:10148000314444521111321331144400000032002F
:101490000006011231133144600011213100005166
:1014A0001221311334401444444430004444401168
:1014B000301300021000600235112000600031136B
:1014C0001151211021123511221221200003115136
:1014D0002000000235000000602111111151244448
:1014E00044443511001111200601110000060002CC
:1014F00030000000000111111211112113003003FE
:101500001112111111111401040E010609170B110A
:101510000C0F1B001B011B021B031B041B051B06DE
:101520001B071B081B091B0A1B0B1B0C1B0D1B0E8F
:1015300003011101190105080211112211111111E4
:1015400011111111111110106002000006000000AD
:101550000000000010131302151311111151111185
:101560001110101311301513311644444444600017
:1015700010130113051133116000600611301013B0
:101580000011301113311600006110313013300199
:10159000130113331160061100333013336013301D
:1015A00013133110011001331013333003130311DF
:1015B0003315110013331016333303113311133560
:1015C0001003336310133600330113011135061372
:1015D00033311011131111601130113001333033D8
:1015E00010133333333001330330333600331013E9
:1015F000033060030031333133111113101603131C
:10160000111130000033360000030011111333367E
:10161000311111331111111111130E030C000505B5
:10162000040E0F1B001B011B021B031B041B051BCD
:10163000061B071B081B091B0A1B0B1B0C1B0D1B86
:101640000E0F0015000201030E001F01C111C1079A
:10165000612361042261220461236104612101C1CB
:10166000012162226522622101C101216102216101
:10167000256122672161266121E10964C1640A298B
:101680006929E10122C122032167210222C1220529
:101690002305216521042307210721632106211148
:1016A0002161211921612119216121192161211A49
:1016B000610E3C00050B05000B110B1B0B170F19DE
:1016C0000F051700180C180D180E180F0001060151
:1016D0000C0112010097E106C104C105C105C10357
:1016E00061042402240223A10222A121016109C173
:1016F00004C106C1056104210221A1220222A12107
:1017000002A1230221016105C106C103C106C10373
:1017100061042402240223A10222A121016108C143
:1017200005C105C1066104210222A1210221A122D5
:1017300002A1230221016106C105C105C104C10343
:1017400061042402240223A10222A12101611B6160
:101750000438E13BE13905370521000B0E03060390
:10176000040A1A0C010D000101050310031A0300FD
:10177000890B850C61046104610B866101C1036101
:1017800003610A6101C10423036104610961012449
:1017900006610183026101C28203610A6103C10320
:1017A00061014205618403C101610441026106C116
:1017B0000761012201610661072107610561054397
:1017C0002341220761066101820DC101C101610748
:1017D0006109410141022401618403610347014120
:1017E000C108C2036101C106C101C1014208220250
:1017F00061022102290D610E254329432800030EB1
:1018000004010203050E0E190E0200001B000E015A
:1018100003021902010501E1622102632102632131
:101820000321022102210221022102C12101C12141
:1018300001C12101C1210221032102210221022132
:10184000022103632102632102210F21016E210184
:1018500029C12501C125C124C1230123C124C124DB
:10186000C121012DC121016E210381038103810367
:101870002103810381038103210381038103810308
:1018800021038103810381032103810381038103F8
:1018900021016E210126C1280123C123C124C122B7
:1018A00001C128C1250122C128C123016E210F21B8
:1018B0000363210263210221032101C12101C1210E
:1018C0000221022102C1210221022101C1210221A2
:1018D000E1622102632102632100D5F08D14A1C8C9
:1018E00081CFD9F1AF20005717A38B2E2E47175D5C
:1018F00074D145175D74D145175D721F5D74D14574
:10190000175D74D145175D749129BAE8A28B2EBA80
:10191000E8A28B2EBAE8A28B2EBAE8A28B2EB98F42
:101920002EB4499D4EC7A55C2A954AA5728A2E57AA
:1019300095AA4A55E51C9772A9542A954A49144913
:10194000974DE71D977255A9AA5455EEA24AE52A6C
:101950009BAD5C2A2AE752A9543624DDD75755950A
:10196000AA2A3559AE2A5595AACA392AA9F2CAA572
:1019700025977255A9AA5455AEA35485ACE8A28BFD
:101980002EBAE8A28B2EBAE8A28B2EBAE8A28B2E32
:10199000BAE8A28B2EBAE8A28B2EBAE8A28B2EBA96
:1019A000E8A28B2EBAE8A28B2EBAE8A28B2EBAE858
:1019B000A28B2E32591FA38B2EA764E7D29DDCE7A2
:1019C000D28E2EB66D7ABAD8B6E9E962DBA6A78BBD
:1019D0006D9B9E2EBAE862DBA6A78B6D9B9E2E9B0D
:1019E0009E6D9BCFA6B7E9E972694717DB363D5D6F
:1019F0004EE96D3EBA6C7A9B8F2E7439974EC79C18
:101A0000733A2E652B59C9CA756CD94A56B2728E73
:101A1000AB9395AC64652353B69295AC5C872BE58C
:101A2000D3E95CC7A57C3A9D53648E4B91392E2B2C
:101A3000D3E99CE2CB391D97B295AC64E53A2EE52B
:101A4000D3D9C894AD64252BD7416FF7B5AB4AA95C
:101A500052A9C97255A9AA5455CE514995572E2D50
:101A6000B994AB4A55A5AA721D2C1B5D74D14517BC
:101A70005D74D145175D74D1C594EB742EBAE8A29C
:101A80008B2EBAE8A28B2EBAE8A28B2EBAE8A28BD4
:101A90002EBAE8A28B2EBAE8A28B2EBAE8A28B2E21
:101AA000BAE8A28B090A1000000000000000000044
:101AB0000000000000000000000000EFEFE0EFEF8A
:101AC000EFEF0FEFEF01010101010101000101FF43
:101AD000FFFFFFFFFFFFFFFF000101010101010107
:101AE0000101000000FF42424242FF0000000003EB
:101AF00000000000030000020202020202020202D1
:101B00000200000000000000000000EFAFE06FEFF7
:101B1000EFED0FEBEF0101010101010100010100F7
:101B200000B0B000B0B000000000000101000101F1
:101B3000000000EFEFE0EEEEEEEE0EEFEF01010140
:101B400001010101000101EEECE0E8E8EAE808EC3F
:101B5000EE01010101010101000101ECE0C0C088BA
:101B6000808000E0EC01010101010101000101E0C0
:101B70008000000800010086E0010101010101016F
:101B80000001010000000000000000000000000053
:101B900000000000000000E08080000000000080E5
:101BA000E001010101010101000101ECE0C08080C0
:101BB00080C000E0EC01010101010101000101EF21
:101BC000ECE0E8E8E8E80CECEF01010101010101BB
:101BD000000101EFEFE0EEEEEEEE0FEFEF0101019D
:101BE000010101010001013F0FA5AA64656B2AA94B
:101BF000AA52A9B83A5595AA4A755CCEA7538E4BFE
:101C0000BA7C362BA9A4AA4AA5E2562E95AA4A95D3
:101C1000E272AA92957554D2E5B359492555552AD1
:101C200015D2A5AA64656B2AA9AA52A9B83A5595F6
:101C3000AA4A755CE9B454F13955C9CA3A2AA92AA5
:101C400059D99A2A9D962A7EE552A9AA54292EA7E7
:101C50002A595947255D3E9B95545255A55221124C
:101C60002C07EA5455AA2AD571A5D352C5E75425A5
:101C70002BEBA8A4AA64656BAA745AAAF8954BA585
:101C8000AA52A5B89CAA64651D9554F9ACA492AA61
:101C90002A954A010207A5533609E0061E000000F6
:101CA0000A00E0061E000080080B0002020201008C
:101CB00009040000010202000005240010010524AF
:101CC0000101010424020605240600010705810321
:101CD00010004009040100020A000000070502028A
:101CE00040000007058302400000040309041201BC
:101CF0000002EF020140412336800001010203018E
:101D000041726475696E6F204C4C4300417264757A
:101D1000626F79002006640000001400270564004B
:101D20000000140017046400000028004B02640047
:101D300000001400DC03640000001400880164004B
:101D4000000028000080872D11241FBECFEFDAE0AD
:101D5000DEBFCDBF11E0A0E0B1E0EAEBFEE502C0DE
:101D600005900D92A839B107D9F727E0A8E9B1E0AD
:101D700001C01D92A53EB207E1F71EE0C4EADEE015
:101D800004C02197FE010E94502FC33AD107C9F722
:101D90000E9428290C945B2F0C9400002F923F92F4
:101DA0004F925F926F927F928F929F92AF92BF926B
:101DB000CF92DF92EF92FF920F931F93CF93DF9317
:101DC000CDB7DEB72D970FB6F894DEBF0FBECDBFEF
:101DD0008091B50190E02091BE013091BF01821B3E
:101DE000930B05962AE030E0B9010E94D32D162FFF
:101DF0006D878091B60190E04091C0015091C10182
:101E0000841B950B0596B9010E94D32D7B016C872D
:101E100080910001853091F080916A0790916B0765
:101E20006CE070E00E94E72D892B09F0F6C39091D9
:101E3000980181E0892780939801EFC3812F0E9448
:101E40001226082FD0906C07C0906D07C094CD204B
:101E50001092B7011092C2018091BC018B3021F029
:101E60001092B8011092C3016E2D812F0E9412268C
:101E7000863079F58091B9019091BA014996909395
:101E8000BA018093B90140E06E2D812F0E9439265E
:101E90008091A502882319F081508093A50280913A
:101EA000A502811112C0B12C8091A602B81668F467
:101EB000EB2DF0E0EE0FFF1FE855FD4F43E0618191
:101EC00080810E943926B394EFCF83E393E00E9490
:101ED000621D809199019D2D9C709C3061F58F5FF2
:101EE000809399018531B0F18D3390F08D3391F568
:101EF0001092990183E884BD8FEF87BD81EF8093B5
:101F000080001092880010928A000E94152918C340
:101F100020E430E0A901481B5109CA01880F93E869
:101F200094BD9FEF97BD91EF909380001092880031
:101F300080938A000FC0882369F083E884BD8FEF07
:101F400087BD81EF809380001092880010928A00F4
:101F5000109299018C2D84709C2D9870C3FE2DC019
:101F600081112BC00E94A31E882309F454C08091C4
:101F7000B50190E02091BE013091BF01821B930B0F
:101F800002966AE070E00E94D32D162FCC24CA94EA
:101F9000C60E6E2D8C2D0E941226A82EBB24B39443
:101FA000BE0C6B2D8C2D0E9412268130A1F58FEF77
:101FB0008A0D823008F094C22EC0882361F19111FD
:101FC0002AC00E94A31E882331F18091B50190E0C0
:101FD0002091BE013091BF01821B930B02966AE0F3
:101FE00070E00E94D32D162FCC24C394C60E6E2D04
:101FF0008C2D0E941226A82EBB24B394BE0C6B2DF0
:102000008C2D0E941226813031F48FEF8A0D8230A0
:1020100010F00C945F18D6FECAC06E2D812F0E945E
:102020001226082F8091B50190E02091BE013091D9
:10203000BF01821B930B6AE070E00E94D32D6C01FC
:10204000892B19F481E0810F01C0812F6E2D0E9430
:102050001226282E552453945E0CC114D10419F471
:1020600081E0810F01C0812F652D0E941226482E2C
:10207000C114D10419F08FEF810F01C0812F652D9C
:102080000E941226382E822D0E944D28682E47016C
:1020900099245FEF851A950AA12EB12CA401B501F0
:1020A000832D0E949125782E0E94A31E9091BC0141
:1020B0009B3089F4882311F40C942C1B7110C1C03F
:1020C00064E0261621F0043011F00C942C1B68E01B
:1020D00087E00C94C6180E94F526882341F08DEF06
:1020E000800F823010F00C9478180C946618C1148C
:1020F000D10419F481E0810F01C0812F6E2D0E945F
:102100001226782EC114D10419F481E0810F01C088
:10211000812F652D0E941226682E62E06E0DC1147B
:10212000D10419F481E0810F01C0812F0E94122691
:10213000482E862D0E944D28682E872D0E944D28FE
:10214000882311F40C94C918662011F40C94C91852
:1021500035018FEF681A780AA401B301842D0E941B
:102160009125882311F40C94BB1864E081E00E944F
:10217000B61E1092BC018091C0019AE0E99E800DCC
:1021800011248093B6018091B5018C3310F482E064
:10219000C2C02091BE013091BF0129363F4F24F0CB
:1021A0001092B7018EEFC3C087FFF1CF8AC1D5FE71
:1021B000C4C06E2D812F0E941226082F8091B50178
:1021C00090E02091BE013091BF01821B930B6AE029
:1021D00070E00E94D32D4C01892B19F48FEF810FF1
:1021E00001C0812F6E2D0E941226382E7724739401
:1021F0007E0C8114910419F081E0810F01C0812FC0
:10220000672D0E941226482E832D0E944D28582E9D
:102210005701BB24BFEFAB1ABB0AC12ED12CA501BD
:10222000B601842D0E949125682E0E94A31E9091D4
:10223000BC019B30B9F4882311F40C942C1B66204C
:1022400031F01092BC010E944A1C0C94541BE4E033
:102250003E1621F0043011F00C942C1B69EF86EF30
:102260000C9421190E94F526882331F08DEF800F00
:10227000823008F0ADC7B7C78114910419F48FEF0D
:10228000810F01C0812F6E2D0E941226082F81140C
:10229000910419F48FEF810F01C0812F672D0E94E7
:1022A0001226782E62E06E0D8114910419F48FEFDE
:1022B000810F01C0812F0E941226182F872D0E94A6
:1022C0004D28782E802F0E944D28882311F40C94DD
:1022D000541B772011F40C94541BF1E0CF1AD10851
:1022E000A501B601812F0E949125882309F49DC77D
:1022F0006FEF8CEF0E94B61E1092BC018091C0015E
:102300002AE0E29E800D11248093B6018091B501F0
:102310008D3320F08EEF8093B701D1C02091BE01A4
:102320003091BF0137FF06C01092B70182E0809361
:10233000C201C7C08111EECFC4C0D7FE85C0809155
:10234000B60190E02091C0013091C101821B930B36
:1023500008966AE070E00E94D32D7B01B62E0E94A1
:10236000A31ED82E882319F06FEF6E0D01C06E2DBD
:10237000812F0E941226C82EDD2019F0BB24B394B1
:10238000BE0C6B2D812F0E9412269091BC019530BE
:10239000A4F0973044F09B3081F4043009F068C712
:1023A000D11062C765C7DD2061F1033009F083C039
:1023B0008FEF8C0D823028F57EC00E944A1C8091E0
:1023C000B50190E02091BE013091BF01821B930BBB
:1023D0002AE030E0B9010E94D32D863020F0A90117
:1023E000481B5109CA0105970CF067C0033009F07A
:1023F00064C08FEF8C0D823008F45FC085E080935D
:10240000BC018091BE015AE0159F800D112480937C
:10241000B5011092B7011092C2018091B6018831C6
:1024200020F08EEF8093B8014EC02091C001309112
:10243000C10137FF06C01092B80182E08093C3014A
:102440007FC08111EECF7CC0D4FE40C08091B60128
:1024500090E02091C0013091C101821B930B08963E
:102460006AE070E00E94D32D7B01D62E0E94A31E4D
:10247000C82E811104C76FEF6E0D812F0E941226A6
:10248000B82ECC2019F0DD24D394DE0C6D2D812FD5
:102490000E941226D82E8091BC018B3009F059C6BB
:1024A000043009F4DFC6CC2009F401C784EF8B0D9A
:1024B000843008F0FCC60E944A1C1092B7011092AA
:1024C000C2011092B8011092C3013AC08091B801C4
:1024D000823009F4BBCF8091C3018E3F89F5B6CF1E
:1024E00053E0A51609F497CD84EF8093BC011092B8
:1024F000B7011092C20147E06B2D8C2D0E94392646
:1025000080916607843181F0E82FF0E09F01220F6F
:10251000331FE20FF31FE65DF84FC082B1829CEDDE
:1025200092838F5F8093660780916C0780936D071D
:102530000E94801E80936C0785E193E00E94621DDB
:1025400080916A0780FD68CC1092D5021092E30258
:102550001092F1021092FF0210920D0310921B03D1
:1025600084ED682E82E0782EF301808184FF4BC0D9
:10257000828193816AE070E00E94E72DD62E688701
:10258000848195816AE070E00E94E72DF62E6987CC
:102590008D2D0E941226B82ECC24C394CF0C6C2D06
:1025A0008D2D0E941226982EF6E0BF1206C0D30190
:1025B00018968C91882309F487C6F30182858D30A3
:1025C00014F5228133813B872A87C9016AE070E0D4
:1025D0000E94E72D892BB9F404811581C8016AE0B6
:1025E00070E00E94E72D892B71F4E384EE2009F45A
:1025F0008BC6D30118968C9181117DC6F301178289
:10260000838581508387BEE06B0E711CE8E26E16F5
:10261000E3E07E0609F0A8CFFFCB8091000188504F
:10262000833030F480910001833009F0C9C1CDC1FD
:10263000C12CD12C812C712CA12CB12CE090BE018D
:10264000F090BF01EA0CFB1CC7010996893891057F
:1026500028F50091C0011091C1010C0D1D1DC8018C
:10266000099689349105D0F4682D872D0E94122691
:10267000982E882339F0282F45EA5AE1B801C7017E
:102680000E94751D29EF290D243040F4B8016A50CD
:10269000710941E453E0C7010E94751D7394FAE08B
:1026A000AF0EB11C2CE17212C9CF83943AE0C30E75
:1026B000D11C40E18412BFCF80910001853021F010
:1026C000809198018823F1F08091BC01082F001FB0
:1026D0000027001F082E000C990B97FF03C091954F
:1026E00081959109880F990BFC01E35EFE4F4081B3
:1026F00051816091B60170E08091B50121E090E0D8
:102700000E94402414EDA12E12E0B12E7501D701D4
:102710008C9184FFADC012960D911C91139760901F
:10272000BE017090BF014301800E911E14968D91E1
:102730009C911597C090C001D090C101C80ED91EC0
:102740001B96EC914E2F50E04331510508F088C0A4
:10275000FA01EA5AFF4F0C94502FF7018285082F97
:10276000001F0027001F082E000C990B97FF03C0C5
:10277000919581959109880F990BFC01E35EFE4FBD
:102780004081518170C0F1E08F1A910869C02FEF2C
:10279000821A920A65C032E0C31AD108FCC644E02E
:1027A000C41AD10807C056E0C51AD108F4C668E0BB
:1027B000C61AD10800E04BE653E055C0AAE0CA1A99
:1027C000D1089C012A503109F701358324831386EF
:1027D000C8016AE070E00E94E72D262EC9016AE078
:1027E00070E00E94E72D462E55245A94520C852DF8
:1027F0000E9412268F8333243394340C632D852D4D
:102800000E941226888755245394520C642D852DDE
:102810000E941226482E632D852D0E941226582EC6
:102820008091B50190E0861997098017910764F4AB
:102830008F810E944D28882309F4A5C688850E94AF
:102840005628811197C69FC6842D0E944D28882343
:1028500009F490C6852D0E945628811194C68AC617
:1028600000E04DE853E021E0B601C4010E9440249D
:10287000FEE0EF0EF11C28E2E21623E0F20609F07A
:1028800046CF4090B501512C8091BE019091BF017F
:10289000481A590A6090B601712C8091C00190913C
:1028A000C101681A790AD5018C9184FF7FC0129604
:1028B0008D919C911397F201E81BF90B14962D91C1
:1028C0003C911597A301421B530B9A01C090B6018E
:1028D0004C2D50E0421B530BE090B501473F6FEF8A
:1028E0005607C4F42E2D30E02E1B3F0B2F3FAFEFC9
:1028F0003A070CF454C62C3731050CF058C6E39453
:10290000EE1A8E2DBDEA8B2EB3E09B2E43EE53E0E4
:1029100090E03AC045335105C4F02E2D30E02E1B17
:102920003F0B2F3FBFEF3B070CF449C62C37310557
:102930000CF04EC6E394EE1A8E2DAEE98A2EA3E07B
:102940009A2E42ED53E093E31FC0F12CEE1AFF0ADA
:10295000ECEFEE16EFEFFE064CF49C2D921BF0EC24
:102960008F2EF3E09F2E49EF53E030C6FCE7EF16C1
:10297000F104E4F09C2D921BECEB8E2EE3E09E2EF6
:1029800044EF53E08CE702C08F3F81F0C92ED12C79
:10299000E82EF12C00E020E0B601C7010E9440249F
:1029A00021E0A401B601C7010E9440242EE0A20E3E
:1029B000B11C38E2A31633E0B30609F074CF32CE6F
:1029C000873049F48091BD0101C084E0809300010B
:1029D00000E010E067C098EF980F9330C8F78A3096
:1029E00069F400E021E049E554E069E170E08AE241
:1029F00090E00E94402409E210E03BC0883029F4B6
:102A000000E021E048E254E02FC01091A402812FA1
:102A100064E60E94442F082F282F45EC54E069E11A
:102A200070E088E490E00E94751D812F44E6049FC9
:102A3000801911246AE00E94442F192F282F45EC99
:102A400054E069E170E08DE490E00E94751D212F53
:102A500045EC54E069E170E082E590E00E94751D6C
:102A600000E021E04EE054E069E170E08BE290E0AC
:102A7000C0CF41E066E170E0C8010E94881E0E5F91
:102A80001F4F09351105A9F709E210E041E060E2A6
:102A900070E0C8010E94881E0E5F1F4F09351105A6
:102AA000A9F796CF77E3E72EF12C40E0B701C801F4
:102AB0000E94881E5FEFE51AF50A60E4E616F1044D
:102AC000A1F70F5F1F4F0038110561F700E010E01C
:102AD00041E068E370E0C8010E94881E0E5F1F4F4E
:102AE00002381105A9F78091B9019091BA01FE0150
:102AF000319626E0DF011D922A95E9F77F019E01BC
:102B0000295F3F4F0AE010E0B8010E94E72D819352
:102B1000CB012E173F07C1F700E021E04FEE54E054
:102B20006AE370E080E090E00E94402406E310E059
:102B3000F70121917F0145EC54E06AE370E0C801A0
:102B40000E94751D055011090831110589F7F09093
:102B5000BB0100E021E042EB54E06AE370E080E476
:102B600090E00E9440241AE08F2D612F0E94442F94
:102B7000092F282F45EC54E06AE370E082E590E0ED
:102B80000E94751D202F45EC54E06AE370E087E554
:102B900090E00E94751D80910001853071F4F090E5
:102BA000A50200E021E047E954E06AE370E080E636
:102BB00090E00E9440248F2D1DC0F090A40200E000
:102BC00021E047E854E06AE370E080E690E00E948C
:102BD000402464E670E08F2D90E00E94D32D262FD4
:102BE000082F45EC54E06AE370E081E790E00E9432
:102BF000751D802F612F0E94442F192F282F45EC1F
:102C000054E06AE370E086E790E00E94751D212F92
:102C100045EC54E06AE370E08BE790E00E94751D9C
:102C200020910001253009F0C1C180916A0790917F
:102C30006B0780FD1CC02091B70121110CC02091B1
:102C4000B801211108C02091C201211104C02091B6
:102C5000C301222361F02091BC01ECE0E20FEC31D2
:102C600020F4F0E0EE5EFA4F24912093BC018370D3
:102C70009927892B09F445C02091B7018091B501AE
:102C8000280F2093B5011091B8018091B601180F5B
:102C90001093B6018091C201E090BE01F090BF0197
:102CA000E80EF11C87FDFA94F092BF01E092BE019C
:102CB0008091C3014091C0015091C101480F511D45
:102CC00087FD5A955093C1014093C001812F90E038
:102CD000841B950B0596EAE0F0E0BF010E94D32D1E
:102CE000362F822F90E08E199F090596BF010E9412
:102CF000D32D862F632F0E941226123008F053C066
:102D00001DC0A4EDB2E088E293E02C9124FF11C035
:102D10001B962C911B97222309F463C40AC01696B4
:102D20002C911697211167C417962C911797211192
:102D300062C41E968A179B0741F79ECF833099F590
:102D40001091A4021F5F8091BB018A3018F48F5F3D
:102D50008093BB0186E0809300011093A402612F51
:102D600082EB90E00E94AB2E1E3708F453C481EB37
:102D700090E00E949D2E873008F04AC411E0180FA1
:102D8000612F81EB90E00E94AB2E612F86EB90E0EB
:102D90000E94AB2E0E94712681E18093BD018EE2DC
:102DA00095E00E94621D80916A0780FF09C08091B2
:102DB0006607882309F464C1F12C6DE0E62E86C015
:102DC00004ED12E0D8018C9184FF54C016968C91CA
:102DD000169712964D915C911397480F511D87FDE0
:102DE0005A9513965C934E93129717968C9117975A
:102DF00014962D913C911597F901E80FF11D87FD6F
:102E0000FA951596FC93EE9314972091B50130E056
:102E10008091BE019091BF01281B390B8091B601B2
:102E2000A091C001B091C101790162E0E60EF11CF0
:102E3000BA01685F7F4FE616F706E4F44E5F5F4F16
:102E4000B901685F7F4F46175707A4F490E08A1BCB
:102E50009B0BAC014E5F5F4F9F01285F3F4F4217B6
:102E6000530744F42650310908962817390714F4FB
:102E70000E941529025F1F4F83E00832180709F0EE
:102E8000A1CF10E000E0612F802F0E94122699EF61
:102E9000980F943030F441E0480F612F802F0E944A
:102EA00039260F5F0C3179F71F5F103159F77FCF4B
:102EB0000F2D10E06801CC0CDD1CF601E00FF11FB6
:102EC000E65DF84F8281811106C0F3948091660718
:102ED000F81670F366C081508283803179F030F447
:102EE000813071F0883089F74FE04FC0883121F090
:102EF000803259F74CE049C04DE047C04EE045C034
:102F00008091A70290E0880F991F84539D4FA4EDF4
:102F1000B2E05F01AF014F5F5F4F2C9124FF1BC0F8
:102F2000F5012081FAE02F9F9001112412966D91F6
:102F30007C9113976217730771F4FA012081FAE00C
:102F40002F9F9001112414966D917C911597621713
:102F5000730709F461C31E9623E0A832B207E9F6AD
:102F6000F601E00FF11FE65DF84F80813D85831388
:102F700006C081814C85841302C00E9415290C0D66
:102F80001D1DF801E65DF84F41E0618180810E94DE
:102F900039269BCF0E940F2780916607882309F46A
:102FA0006FC080912C078130A9F36AC030916C0703
:102FB00090916D0790959323243009F044C080913F
:102FC0009A0132FF32C08E3268F48932D0F083E841
:102FD00084BD8FEF87BD81EF8093800080E4809374
:102FE00088000BC0833388F483E884BD8FEF87BDEE
:102FF00081EF809380001092880010928A00809167
:103000009A018F5F80939A013BC08091A40297FF41
:1030100004C08D3710F48F5F05C094FF31C0863631
:1030200078F181508093A4022BC0882371F0833300
:1030300000F1883218F082E08093000110929A012A
:10304000911117C01DC010929A019923C9F02B301D
:1030500040F4293048F4273049F0283051F481E019
:103060000DC0213169F005C082E008C08091BD012A
:1030700005C010926D0710926C0785E080930001E7
:1030800080919901811112C380919A0181110EC31F
:103090008091A502811106C090910001953019F42C
:1030A00080E201C080E093E894BD809587BD81EF08
:1030B000809380001092880010928A00F7C263E02B
:1030C000A61611F40C940B108CE00FCA662009F4BC
:1030D000EBC2772019F064E081E004C0043029F4E9
:1030E0006AE087E00E94B61E46C866E085E0FACF37
:1030F000C114D10441F4A401B501832D0E94B72568
:10310000811183C0ABC2611003C071108BC00AC0B3
:10311000A401B5016F5F7F4F842D0E94912581111D
:10312000DACF03C0CD2809F4BFC2B5016F5F7F4F6E
:10313000A401842D0E94B7258111CDCF1092B70133
:103140001092C201882309F4BCC98BE08093BC01B2
:103150000FC063E0D61295C08091BE019AE0199F1E
:10316000800D11248093B5016BEF8AEF0E94B61E8B
:103170000E94BF1EE5C9CD2879F4A401B301842DB6
:103180000E94B7258823D1F266E085E00E94B61E32
:103190001BC0CD2809F488C2652D812F0E941226FC
:1031A000182F802F0E944D28882309F47DC2B50175
:1031B0006F5F7F4FA401812F0E94B725882309F4F8
:1031C000BDCF8BE08093BC010E944A1C0C94BB10C5
:1031D0008114910411F5A501B601842D0E94B72533
:1031E000811113C05EC2552009F45EC2662019F039
:1031F0006FEF8CEF04C0043029F469EF86EF0E9472
:10320000B61E7CC866E085E0FACF8BE08093BC01F7
:1032100083EC91E00E94621D1FC2511024C26620FF
:1032200009F41FC21092BC013FC2892869F4A501AC
:10323000B601812F0E94B725882309F47FCF66E06D
:1032400085E00E94B61E0BC0A501B601812F0E9429
:10325000B725882309F472CF8BE08093BC010E94CC
:103260004A1C4CC8CC2019F187E08093BC0123C9CB
:10327000A70155274F5F5F4F612F70E01FC06E2D74
:10328000FCC88D2D0E944D28811103C01092BC01F5
:1032900012C9D11003C08BE08093BC018091BE01A4
:1032A000AAE01A9F800D11248093B50161CFA70178
:1032B00055274F5F5F4F612F70E08D2D0E94912544
:1032C000882309F455CFE2CF0E94462E0E94462E55
:1032D0002AE030E040E050E00E94E12EDC01CB012A
:1032E0004496A11DB11DF301808740E06F2D8D2D07
:1032F0000E94392662C9FA946F2D8D2D0E941226E4
:10330000882309F42FC17AC96FEF6F0D8D2D0E94AC
:1033100012268F836F2DAA24A394AD0C8A2D0E94B0
:103320001226582E6C2D8A2D0E941226482E6C2DA6
:10333000CC24CA94CD0C8C2D0E941226382E6F2DD1
:103340008C2D0E941226282E8091B50190E02091AC
:10335000BE013091BF01821B930B2A853B85281B40
:10336000390BC9012091B60130E04091C001509164
:10337000C101241B350B021B130BD30119962C9191
:1033800019972223D1F01F922F923F92892CA42CBF
:10339000C52CEF800B2D1D962C914F2D6D2DC3014B
:1033A0000E94D91EF3019185915091870F900F9043
:1033B0000F90811128C9148561C097FF1FC0101696
:1033C00011065CF491958195910908171907C4F1CC
:1033D00080179107BCF511E046C001151105A1F158
:1033E0009195819591091195019511098017910782
:1033F0006CF10817190764F515E035C00097C9F09E
:103400001016110644F40817190724F180179107C4
:103410001CF51FE028C00115110501F1119501955A
:10342000110980179107E4F008171907DCF41BE075
:103430001AC0111F1127111F110F110F110F13C0E7
:1034400013E011C012E00FC014E00DC017E00BC074
:1034500016E009C01DE007C01EE005C01CE003C067
:1034600019E001C01AE0EDEFE10FEC3020F4F0E0DC
:10347000EF5EFE4FE080D3011D96EC92F301808554
:10348000882389F09FEF990D923068F4B1100BC03A
:103490008150D30118968C93811105C046E06F2DA1
:1034A0008D2D0E943926B1E0BF932F923F92892C37
:1034B000A42CC52CEF800B2D212F4F2D6D2DC3017A
:1034C0000E94D91E0F900F900F9081119CC8F12E71
:1034D00008E0D02E112311F0115001C01FE0E1E0EF
:1034E000EF932F923F92892CA42CC52CEF800B2DAB
:1034F000212F49856885C3010E94D91E0F900F9026
:103500000F90882339F0D3011A968C918B3009F0F3
:103510007AC81EC0BFE0FB1611F0F39401C0F12C75
:10352000E1E0EF932F923F92892CA42CC52CEF80E1
:103530000B2D2F2D49856885C3010E94D91E0F9040
:103540000F900F908111DFCFDA94D110C3CFDBCF72
:10355000892D0E945628882309F455C8D30117964F
:103560001C9251C8F301108646E06F2D8D2D0E94EC
:10357000392644C8EFEFD7011A96EC931A97FEEF5D
:103580001696FC9308C081E0D7011A968C931A977F
:10359000E2E01696EC9300E04CE753E064C935EBAB
:1035A000832E33E0932E4CEE53E090E00FC02BECD3
:1035B000822E23E0922E46E054E090E010C096EA7E
:1035C000892E93E0992E4BED53E092E380E0DEC923
:1035D00084EC882E83E0982E4EEF53E092E38BE745
:1035E000D5C91A96EC911A9723EF2E0F233008F0C5
:1035F00096CBE45F05C02CE02E0F2C3128F4E22F8F
:10360000F0E0EE5EFA4FE4911A96EC931A9791CBA4
:1036100082E1C3CB89E0C1CBFC0160812181FAE06A
:103620006F9FB001112413967C936E9312976AE0FA
:10363000269F9001112415963C932E9314971A9669
:10364000EC921A971B961C921B9716961C92169733
:1036500017961C9217977FCC81E070CD61103BCDFF
:1036600054CD892809F1672D812F0E941226182F29
:10367000802F0E944D28882349F0A501B601615092
:103680007109812F0E9491258111B2CDB60161503F
:103690007109A501812F0E94B725882309F44ECD19
:1036A000A7CD5110A5CDBBCD80E048CD2D960FB64E
:1036B000F894DEBF0FBECDBFDF91CF911F910F9168
:1036C000FF90EF90DF90CF90BF90AF909F908F9042
:1036D0007F906F905F904F903F902F900895CF9282
:1036E000DF92EF92FF920F931F93CF93DF936C01C2
:1036F0007A018B01C0E0D0E0CE15DF0581F0D80162
:103700006D918D01D601ED91FC910190F081E02D3C
:10371000C6010995892B11F02196EECF7E01C701D4
:10372000DF91CF911F910F91FF90EF90DF90CF909D
:1037300008958091A401E091A201F091A301882352
:1037400049F0CF0102969093A3018093A201859145
:1037500094910895CF0102969093A3018093A201C2
:1037600080819181089580919B0108950895089525
:1037700080E090E00895FC012285261714F042179E
:1037800014F4FC01628708950E94562FBF92CF92D5
:10379000DF92EF92FF920F931F93CF93DF93FC0181
:1037A00066834783862F880F880F860F382F3F70D8
:1037B000942F990F990F940F50E19502C001112495
:1037C000832B818367FF02C08CE003C0662311F066
:1037D00084E0848747FF02C0148604C0442311F0AC
:1037E00088E08487222309F44BC08185811148C079
:1037F000EF018485811134C01D868A819B812AE076
:1038000030E0B9010E94E72D162F8C819D81B9010E
:103810000E94E72DFF24FA94F60E00E0CC24CA940F
:10382000C10EBB24B394B10EDF2CD01A6D2D812FA5
:103830000E941226833091F46D2D8C2D0E94122649
:10384000E82E6D2D8B2D0E9412260F5F9DEF9E0D91
:10385000923020F09DEF980F923060F4098710C0ED
:103860000E94462E26E030E040E050E00E94E12E2B
:10387000698706C08111D8CF81508330A8F6EECF7A
:10388000DF91CF911F910F91FF90EF90DF90CF903C
:10389000BF900895E1E7F0E080818D7F80831092F2
:1038A0009100469847981092A1010895CF92DF9217
:1038B000EF92FF920F931F93CF93DF930E94991B78
:1038C000811520E8920751F4DF91CF911F910F915C
:1038D000FF90EF90DF90CF900C944A1C21E0209352
:1038E000A101813020E8920751F480919F019091CD
:1038F000A0019093A3018093A2010E94991B97FDC0
:1039000005C020919E01222309F440C020919D0111
:1039100021113CC021E02093A501EC01DF77209725
:1039200069F481E08093A60146983FE9C32E3FE009
:10393000D32EE12CF12CCAEFD0E014C08E0120E090
:1039400030E060E472E48FE090E0A90198010E9409
:10395000E12E69017A0181E0C81AD108E108F10875
:103960001092A601E0912807F0912907099581118D
:1039700003C081E08093A6018091A501882309F40A
:103980003FC08091A60181113BC003C01092A501E8
:10399000C4CF469935C0479A0E94991B009771F091
:1039A0009C01DE010E94352FDC01CB0129E0B59599
:1039B000A795979587952A95D1F703C08FEF9FEF2D
:1039C000DC01109290002AE020939100D09299009F
:1039D000C09298008093A7019093A801A093A90199
:1039E000B093AA0180917100826080937100DF9191
:1039F000CF911F910F91FF90EF90DF90CF9008959E
:103A00004798CACF1F920F920FB60F9211242F938F
:103A10003F934F935F936F937F938F939F93AF9356
:103A2000BF93EF93FF938091A7019091A801A0917C
:103A3000A901B091AA01892B8A2B8B2B81F180914E
:103A4000A60181110BC098B180E4892788B98091C3
:103A5000A501882319F088B1805888B98091A70101
:103A60009091A801A091A901B091AA011816190678
:103A70001A061B06B4F48091A7019091A801A091A9
:103A8000A901B091AA010197A109B1098093A701E9
:103A90009093A801A093A901B093AA0102C00E942B
:103AA000561CFF91EF91BF91AF919F918F917F91A4
:103AB0006F915F914F913F912F910F900FBE0F909B
:103AC0001F9018959C01E1E7F0E090819D7F908325
:103AD00081E08093A4013093A3012093A20130934D
:103AE000A00120939F010C94561C4F925F926F92FD
:103AF0007F928F929F92AF92BF92CF92DF92EF927E
:103B0000FF920F931F93CF93DF9300D000D0CDB7D8
:103B1000DEB7DC014115510509F4D8C0FA01F49073
:103B2000319694914E5F5F4FCF2CD12C2223D9F048
:103B3000E1E0F0E0892F877011F4E0E0F0E0892FF8
:103B4000869586958695E80FF11DEC9D8001ED9D8B
:103B5000100DFC9D100D1124209FF001219FF00DF0
:103B600011244E0F5F1FF601EA0FFB1F1E161F06E2
:103B70000CF0ACC0A038B1050CF0A8C09B01290F17
:103B8000311D121613060CF0A1C0603471050CF043
:103B90009DC04115510509F499C0062F0770B02E3C
:103BA0009B0177FF02C0295F3F4F83E03595279542
:103BB0008A95E1F7822F77FF04C0BB2011F08FEFC9
:103BC000820FB7FF05C0222733272A1B3B0B02C0F9
:103BD00020E030E0E038F10524F070E87A1B672E31
:103BE00001C06F2C621A082F082E000C110B8F3F9A
:103BF0001CF4F02FF09501C0F0E0EE24E394692F5F
:103C0000677009F4E12CE92FE695E695E6959E2D7F
:103C10009E0F090F111D0930110514F098E0981B33
:103C20006F2F680F8901FF9E000D111D1124400F99
:103C3000511F01E010E00B2C02C0000F111F0A946D
:103C4000E2F7EFEFE09F7001E19FF00C1124E094A8
:103C5000F094FC82EB82AC8070E86703A00DB11D8C
:103C600011242A0F3B1F285D3C4F992E980E961663
:103C700069F1D9012A01842D841B861508F5F2010A
:103C80008490809EC001819E900D11249A83898327
:103C900067FD04C09C919E21892B8C93BB2059F019
:103CA00067304CF4CD0180589F4FFC0180808A2002
:103CB0007A8087288082FFEF4F1A5F0A1196DBCF48
:103CC0006F5F4C0D5D1D20583F4FD1CF0F900F906F
:103CD0000F900F90DF91CF911F910F91FF90EF9078
:103CE000DF90CF90BF90AF909F908F907F906F901C
:103CF0005F904F900895BC0180E090E00C94062402
:103D00008FB18095807F669B88601C9B846008953E
:103D100080389105B8F460347105A0F490E121E099
:103D200061FD24E060FD220F62FD2295687F969F71
:103D3000D0011124A80FA85DBC4F8C91822B40FFAD
:103D400082278C9308958091B60190E02091C00164
:103D50003091C101821B930B6AE070E00E94D32D69
:103D60009C0181E0232B09F080E008959091BC0133
:103D7000981714F0691714F48093BC0108951092F9
:103D8000B7011092C20182E08093B8011092C30182
:103D90008091B601873160F08091C0019091C1019E
:103DA00089399F4F2CF01092B8018EEF8093C30198
:103DB00008953F924F925F926F927F928F929F925F
:103DC000AF92BF92CF92DF92EF92FF920F931F9329
:103DD000CF93DF93CDB7DEB7142F902E3C88BE88EB
:103DE00030E02031310508F028C1082D7E2D462E07
:103DF0003C01F901E658FF4F0C94502FEE2029F0BA
:103E00007350723010F010E001C011E046EF60E036
:103E1000C3010E949D2693E099120FC1112309F45A
:103E20000CC181110AC146E065E0C3010E94BB1BC1
:103E30002B2D4EEF60E0C3010E94C61B0FC140E076
:103E40006AE00E949D2691E0D82ED926E12EF12C21
:103E5000EFEFEE1AFE0A512CA701B201882D0E9445
:103E6000E625382EB2016F5F7F4FA7018A2D0E9491
:103E7000E625F82E8C2D0E944D28182F8A2D0E94A1
:103E80005628F4E0CF1205C0DD2019F04AE067E0C3
:103E90000DC094E0991211C01123C9F0882309F4D0
:103EA000D0C0DD2009F4D4C044E061E0C3010E9429
:103EB000BB1B2B2D40E062E099C0E3E09E1207C0DF
:103EC000112329F0DD2019F046E065E0EFCF311035
:103ED00093C0882321F0112309F4AFC006C0112339
:103EE00009F4ABC0FF2009F4A8C0DD2009F4A5C087
:103EF000DBCF4AE060E00E949D2691E0F82EF92693
:103F0000412F50E04F5F5F4F642D70E0882D0E947D
:103F1000E625033061F4FF2009F48FC04BEF6AEF10
:103F2000C3010E94BB1B2B2D42E060E05FC08823D1
:103F300009F483C0FF2009F480C08BE0F30182877D
:103F40002B2D42E060E0C3010E94C61B07500930E0
:103F500008F075C08FE1F301838771C040E066EF20
:103F60000E949D2691E0582E5926E12EF12CFFEF5C
:103F7000EF1AFF0AC42CD12CA701B601882D0E948C
:103F8000E625A82EB60161507109A701832D0E9474
:103F9000E625F82E8D890E944D28182F832D0E942A
:103FA00056289D89943029F4552019F049EF66EF81
:103FB00017C0E4E09E120BC01123E1F0882309F43E
:103FC00044C0552009F447C04FEF6CEF09C0F3E03F
:103FD0009F1210C0112371F0552061F046E065E09A
:103FE000C3010E94BB1B2B2D40E06EEFC3010E945A
:103FF000C61B25C0AA20A1F08BE0F30182872B2DE0
:1040000042E060E0C3010E94C61B07500930B8F4CB
:104010008FE1F30183878AE99CE10E94621D0FC052
:10402000882329F0112349F0552039F0CDCF1123F1
:1040300021F0FF2011F05110B9CF10E00FC011E0B6
:104040000DC0332009F44ECFD7CFAA2091F3D4CF9F
:10405000332099F3D1CFAA2081F3CECF812FDF91E6
:10406000CF911F910F91FF90EF90DF90CF90BF9075
:10407000AF909F908F907F906F905F904F903F9008
:104080000895CF93DF931F92CDB7DEB76983DC012C
:10409000ED91FC910280F381E02D41E050E0BE0102
:1040A0006F5F7F4F09950F90DF91CF91089583E067
:1040B0008093E9008091F200882319F08AE38093CD
:1040C000E8000895FC018485958597FD0BC09FB796
:1040D000F89482E08093E9008091F2009FBF90E025
:1040E000019608959FB7F89482E08093E90080914B
:1040F000F2009FBF90E008954091AE015091AF0152
:104100002091AC013091AD0142175307B4F4909166
:10411000E8009570E1F39091E80092FD19C080935A
:10412000F1008091AE019091AF0101968F739927B4
:10413000892B19F48EEF8093E8008091AE01909165
:10414000AF0101969093AF018093AE0181E0089595
:1041500080E00895DF92EF92FF920F931F93CF9329
:10416000DF93D82E8A017B01E40EF51EEB01CE15FC
:10417000DF0571F0D7FE03C0FE01849101C0888184
:104180000E947C2021968111F2CF8FEF9FEF01C01A
:10419000C801DF91CF911F910F91FF90EF90DF90B9
:1041A0000895615030F02091F100FC0120830196C8
:1041B000F8CF289884E68093B30108950E9466277B
:1041C00090E008950F931F93CF93DF931F92CDB785
:1041D000DEB78C01FC018485958597FF0EC0CE016A
:1041E00001960E943827019719F4898190E002C056
:1041F0008FEF9FEFF80195878487F8018485958577
:104200000F90DF91CF911F910F910895CF93DF937E
:104210001F92CDB7DEB7FC018485958597FD05C05B
:104220002FEF3FEF358724870BC0CE0101960E9408
:104230003827019719F4898190E002C08FEF9FEF32
:104240000F90DF91CF9108950F931F93CF93DF933A
:104250001F92CDB7DEB782E0898342E450E068EA7E
:104260007CE180E80E94AA200E94FD27DC011296D2
:104270000D911C9113970115110589F0D801ED914D
:10428000FC910280F381E02DBE016F5F7F4FC8017A
:10429000099597FD04C0F80100851185ECCF89814F
:1042A0000F90DF91CF911F910F9108951F920F9260
:1042B0000FB60F9211248F939F938091E1009091FC
:1042C000E100937F9093E10083FF0FC01092E9001B
:1042D00091E09093EB001092EC0092E39093ED004C
:1042E0001092B40198E09093F00082FF20C093E018
:1042F0009093E9009091F200992319F09AE390933A
:10430000E8009091B101992339F09091B101915059
:104310009093B101992389F19091B301992339F0D8
:104320009091B30191509093B301992341F184FF8F
:1043300010C08091E2008E7E81608093E2008091C7
:10434000E1008F7E8093E1008091B2018E7E8061DA
:1043500011C080FF16C08091E2008E7E8061809344
:10436000E2008091E1008E7E8093E1008091B201B5
:104370008E7E81608093B20104C05D9ACDCF289A71
:10438000D6CF9F918F910F900FBE0F901F901895D1
:104390001F920F920FB60F921124CF92DF92EF92DD
:1043A000FF920F931F932F933F934F935F936F93BE
:1043B0007F938F939F93AF93BF93EF93FF93CF938D
:1043C000DF93CDB7DEB76C97DEBFCDBF1092E900AB
:1043D0008091E80083FFFBC168E0CE0145960E9412
:1043E000D12082EF8093E8008D8987FF05C09091EE
:1043F000E80090FFFCCF03C09EEF9093E800982F59
:10440000907609F0C6C09E894F89588D2F89F88C07
:1044100091110CC0803829F48091AB018093F10098
:1044200002C01092F1001092F10045C1913051F498
:10443000811141C14130510509F03DC18091AB016D
:104440008D7F0BC0933061F4811135C1413051052E
:1044500009F031C18091AB0182608093AB012BC127
:10446000953049F48091E80080FFFCCF822F80686E
:104470008093E30020C1963009F05EC00B8D1C8D47
:1044800022E01092E9001092AF011092AE01F212F8
:1044900032C01092AD011092AC010E94242199E02B
:1044A000BE016F5F7F4FDB01E92F1D92EA95E9F7AF
:1044B0009983FA8291E09E8390EA98879AEF998790
:1044C0002091AE013091AF01275F3F4F3C832B839A
:1044D0008D831092E9001092AF011092AE011093FB
:1044E000AD010093AC0149E050E080E00E94AA20B9
:1044F0000E942421E0C01093AD010093AC010E9402
:10450000FD27DC0112960D911C91139701151105E1
:1045100009F4BBC0D801ED91FC910480F581E02D38
:10452000BE016B5E7F4FC8010995009709F0C7C0B7
:10453000F80100851185EACF973009F445C198301C
:1045400021F481E08093F100B6C0993009F0B3C046
:10455000837009F039C1E9E7F1E081E031E096E3E9
:104560002081211109C08EE78093EA001092EA00B1
:104570008F898093B4019FC08093E9003093EB0052
:1045800021912093EC009093ED008F5F873041F7ED
:10459000EACF8B8D9C8D1092E9001092AF011092A2
:1045A000AE019093AD018093AC01898D811153C010
:1045B0008E899D89913A49F4813209F005C147E01D
:1045C00050E065E071E080E0BBC0913209F0FCC0D2
:1045D000833269F48F89988DA0E0B0E08093010167
:1045E00090930201A0930301B093040164C0803250
:1045F00069F48091E80082FFFCCF67E085E091E0FC
:104600000E94D1208BEF8093E80055C0823209F0E0
:1046100052C08F8980930C01EEEFFFE78591949152
:104620008B3F9C4D19F0E0E0F8E002C0EEEFFAE0BD
:104630008091050190910601A0910701B0910801B8
:10464000803B9440A105B10509F09EC080910C010A
:1046500080FF79C099C00E94FD27FC01028113816F
:104660000115110509F4B0C0D801ED91FC9101903C
:10467000F081E02DBE016B5E7F4FC801099581116D
:104680001AC0F80100851185EBCFF1E0FF1609F49F
:104690004EC0F3E0FF1298C08F89882309F44AC006
:1046A000823089F440E867E08CE09DE10E94522D61
:1046B000882309F489C08EEF8093E80088C018161B
:1046C0001906CCF381C0813029F440E86BE080E02A
:1046D0009DE1ECCF833009F077C00E94FD27DC011B
:1046E0001296ED90FC9013978E010F5F1F4F68019B
:1046F000E114F10479F0D701ED91FC910680F78186
:10470000E02DB801C7010995080F111DF701E084DC
:10471000F184EECFD8011C92F60101900020E9F758
:104720003197BF016C197D0940E0C601BFCF6EEE25
:104730007CE102C06AEE7CE1FB01449150E080E83C
:104740000E94AA20B8CFEE3F2AE0F20751F0808104
:1047500091818737A7E79A0721F09093FF0A80930A
:10476000FE0A87E797E791838083809160008093BA
:10477000B0019BE088E10FB6F894A89580936000A3
:104780000FBE9093600097CF8081918187379747C4
:1047900009F091CFA89580916000886180936000B6
:1047A0008091B00180936000EE3FBAE0FB0739F0E2
:1047B0008091FE0A9091FF0A918380837CCF1092B2
:1047C000FF0A1092FE0A77CF81E28093EB006C968D
:1047D0000FB6F894DEBF0FBECDBFDF91CF91FF9132
:1047E000EF91BF91AF919F918F917F916F915F9169
:1047F0004F913F912F911F910F91FF90EF90DF907C
:10480000CF900F900FBE0F901F9018958F929F9290
:10481000AF92BF92CF92DF92EF92FF926B017C0139
:104820000E94A6284B015C01C114D104E104F104EB
:10483000F1F00E94A628DC01CB0188199909AA0988
:10484000BB09883E9340A105B10570F321E0C21A6F
:10485000D108E108F10888EE880E83E0981EA11CBB
:10486000B11CC114D104E104F10419F7DDCFFF90AC
:10487000EF90DF90CF90BF90AF909F908F90089572
:104880002F923F924F925F926F927F928F929F9260
:10489000AF92BF92CF92DF92EF92FF920F931F934E
:1048A000CF93DF93CDB7DEB72F970FB6F894DEBF67
:1048B0000FBECDBF4C017B012C870D875A834983E6
:1048C0001C821B821D821E8268E070E0CE01019670
:1048D0000E9461281C019C012F5F3F4F3B872A8764
:1048E00068E070E0CE0101960E9461288C0161E0D1
:1048F00070E0CE0101960E9461282A853B85280D33
:10490000391D37FDF5C030E8831691040CF0F0C076
:104910000F5F1F4F98012E0D3F1D37FDE9C040E48A
:10492000E416F1040CF0E4C06701F7FE04C0CC24E7
:10493000DD24CE18DF0857E0C522DD249701F7FEFD
:1049400002C0295F3F4F390123E0759467942A958F
:10495000E1F7F7FE09C091E0691A710828E030E03C
:10496000A9014C195D096A01980117FF02C0295F6E
:104970003F4F290193E0559447949A95E1F70770CA
:104980001127012B19F05FEF451A550A0D850023F9
:1049900011F0710102C0E12CF12C898701E010E0D7
:1049A000A12CB12C88E090E09C012C193D093F8797
:1049B0002E87A414B5040CF09BC041E050E058874A
:1049C0004F8361E070E0CE0101960E946128892B3F
:1049D00031F48F819885029698878F83F2CF6F810B
:1049E0007885CE0101960E946128DC01119640E095
:1049F00050E04A175B0708F072C099859111102B9F
:104A0000000F09F069C093012A0D3B1DC9010196F1
:104A1000099708F043C0C4018E0D9F1D8038910591
:104A2000E8F5B9017695762F662777956795680D35
:104A3000791D6E0D7F1D2F3F0FEF300709F454C015
:104A4000812F0C2C01C0880F0A94EAF7FB01E85D66
:104A5000FC4F0C85002319F09081892B03C08095B1
:104A6000908189238083C114D104C1F0273031059E
:104A7000A9F0812F90E00E8402C0959587950A9445
:104A8000E2F7FB01E855FC4F2C85222319F0108139
:104A9000812B03C080951081812380830D850111B6
:104AA00010C02FEFE21AF20A8A859B85E816F906F4
:104AB0008CF09FEFA91AB90A01E010E0E12CF12C6B
:104AC0000BC001E0E01AF108F7FE04C02FEFA21AB4
:104AD000B20A710101E010E04F5F5F4F8ACF398564
:104AE00041E03427398765CFC114D10411F6D6CF00
:104AF0002F960FB6F894DEBF0FBECDBFDF91CF91DA
:104B00001F910F91FF90EF90DF90CF90BF90AF90EB
:104B10009F908F907F906F905F904F903F902F90DD
:104B200008958150833008F18AE0869F9001879F25
:104B3000300D1124849FB001859F700D1124E4ED88
:104B4000F2E0808184FF0AC08281938182179307FB
:104B500029F4848195818617970739F03E9683E082
:104B6000E832F80771F780E0089581E00895873012
:104B700028F4843038F5882329F126C0803120F5C7
:104B80008AE0869F9001879F300D1124849FB00199
:104B9000859F700D1124E4EDF2E0808184FF0DC04B
:104BA00082858B3051F4828193818217930729F497
:104BB000848195818617970739F03E9683E0E83225
:104BC000F80759F781E0089580E00895853031F1C4
:104BD00018F4882319F124C08750883008F58AE03A
:104BE000869F9001879F300D1124849FB001859F7F
:104BF000700D1124E4EDF2E0808184FF0AC082810F
:104C000093818217930729F48481958186179707EA
:104C100039F03E9683E0E832F80771F781E00895B5
:104C200080E008958C31F8F46F3FF9F06031F8F4CA
:104C3000982F969570E080FD0BC080E1989F600DE5
:104C4000711D1124FB01E254FE4F8681829509C03B
:104C500080E1989F600D711D1124FB01E254FE4F0D
:104C600086818F70089581E0089580E0089582E044
:104C70000895982F9695E62FF0E080FD0EC080E114
:104C8000989FE00DF11D1124E254FE4F86818F7034
:104C900090E1499FA001112409C080E1989FE00D97
:104CA000F11D1124E254FE4F8681807F482B4683FC
:104CB0000895CF93DF9382EB90E00E949D2E809326
:104CC000A40283EB90E00E949D2EC5EBD1E08E8381
:104CD00084EB90E00E94A52E9D838C83DF91CF9181
:104CE00008951F93CF93DF93C091A4026C2F82EBA2
:104CF00090E00E94AB2E6C2F87EB90E00E94AB2ED1
:104D0000C5EBD1E01E81612F83EB90E00E94AB2EBA
:104D1000612F88EB90E00E94AB2E0C80DD81C02DCE
:104D2000BE0184EB90E00E94BD2EBE0189EB90E0B5
:104D3000DF91CF911F910C94BD2EEF92FF920F93B4
:104D40001F93CF93DF93DC01E4EDF2E088E293E080
:104D5000062E000C770B042E000C550B208124FF2F
:104D60001EC02F703C913F702317C9F01181212F75
:104D70002F70C281D381C20FD11D12962D913C910B
:104D80001397260F371F7E010AE0E00EF11C2E1547
:104D90003F052CF4265F3F4FC217D30734F03E96F1
:104DA0008E179F07D9F680E019C012951F70C48135
:104DB000D581C10FD11D14962D913C911597240FCB
:104DC000351F7E010AE0E00EF11C2E153F053CF771
:104DD000265F3F4FC217D30714F781E0DF91CF91D1
:104DE0001F910F91FF90EF9008958091B60190E090
:104DF0002091C0013091C101821B930B2AE030E069
:104E0000B9010E94D32D863020F0A901481B510919
:104E1000CA0121E005970CF020E0822F0895CF927F
:104E2000DF92EF9220916607822F90E0FC01EE0F57
:104E3000FF1F8E0F9F1FFC01E65DF84FC080D180E1
:104E4000E2808FEF820F80936607EAE2F7E090E05E
:104E5000981740F423813481458121933193419304
:104E60009F5FF6CF8E2DB601EF90DF90CF90089523
:104E70002091B401211103C08FEF9FEF08955FB718
:104E8000F89422E02093E9002091F20030E012161D
:104E9000130614F421E030E0422FFC0184E6415077
:104EA00038F028988093B3019091F1009193F7CF57
:104EB0002115310521F08091F200882319F05FBFA0
:104EC000C90108958BE68093E800F9CF2FB7F894D5
:104ED00083E08093E9009091E800892F807295FF2C
:104EE00004C09091F20080E4891B2FBF08958F9237
:104EF0009F92AF92BF92CF92DF92EF92FF920F9369
:104F00001F93CF93DF936C017B018A0180910C0189
:104F1000882309F45CC08091B401882309F457C048
:104F20008091B20180FF05C08091E0008260809393
:104F3000E000E801B12C8AEFA82E93E0892E2AE345
:104F4000922E209711F4BB20D9F10E94662781117F
:104F50000AC0AA94AA20D9F161E070E080E090E054
:104F60000E940624EECF282F30E0C217D3070CF49E
:104F70008C2F9FB7F8948092E9002091E80025FFDC
:104F80001DC0282F30E0C21BD30BF701815020F049
:104F900041914093F100FACFE20EF31EBB2019F0CD
:104FA0009092E8000AC08091E80085FD07C09092C9
:104FB000E800BB24B394209709F0B12C9FBFC1CF68
:104FC0005D9884E68093B1011016110644F081E0EB
:104FD00090E0F6019383828380E090E001C0C801F5
:104FE000DF91CF911F910F91FF90EF90DF90CF90C5
:104FF000BF90AF909F908F90089580917607811118
:105000000DC082E08093720784E080937307109252
:1050100075071092740781E08093760782E797E026
:105020000895CF93DF93D82F8FEA90E00E949D2EB2
:10503000C82F80EB90E00E949D2ED11104C0CC348B
:1050400011F4823539F16CE48FEA90E00E94AB2EC6
:1050500062E580EB90E00E94AB2E86EB90E00E9430
:105060009D2E682F81EB90E00E94AB2E87EB90E0A5
:105070000E949D2E682F82EB90E00E94AB2E88EB61
:1050800090E00E949D2E682F83EB90E0DF91CF91FE
:105090000C94AB2EDF91CF910895882329F0835093
:1050A0008D3010F080E0089581E00895813028F07F
:1050B000843028F08750893010F080E0089581E036
:1050C00008951F93CF93DF93DC0120E030E040E0B0
:1050D00050E011E0C1E0D0E02617370791F11496B7
:1050E0008C911497811115C014961C9314971296E5
:1050F0008D919C911397ED91FC911197E80FF91FF9
:10510000E4911596EC931597019613969C938E93C4
:10511000129714969C91149715968C911597892344
:1051200049F0FE01022E02C0EE0FFF1F0A94E2F7C3
:105130004E2B5F2B990F14969C9314972F5F3F4F24
:10514000CBCFCA01DF91CF911F9108953FB7F8945B
:105150008091E1079091E207A091E307B091E40705
:1051600026B5A89B05C02F3F19F00196A11DB11DC2
:105170003FBFBA2FA92F982F8827820F911DA11DFD
:10518000B11DBC01CD0142E0660F771F881F991F3A
:105190004A95D1F708951F920F920FB60F921124DE
:1051A0002F933F938F939F93AF93BF938091DC078F
:1051B0009091DD07A091DE07B091DF073091E00705
:1051C00023E0230F2D3720F40196A11DB11D05C04A
:1051D00026E8230F0296A11DB11D2093E0078093BE
:1051E000DC079093DD07A093DE07B093DF07809183
:1051F000E1079091E207A091E307B091E4070196DF
:10520000A11DB11D8093E1079093E207A093E307EE
:10521000B093E407BF91AF919F918F913F912F91F0
:105220000F900FBE0F901F9018958091BB01815079
:105230008093BB0196E090930001811102C088E049
:1052400001C08AE08093BD0184E19DE10C94621D60
:10525000CF93DF93CDB7DEB727970FB6F894DEBFB5
:105260000FBECDBF789484B5826084BD84B5816063
:1052700084BD85B5826085BD85B5816085BD809121
:105280006E00816080936E00109281008091810099
:105290008260809381008091810081608093810091
:1052A0008091800081608093800080919100826075
:1052B0008093910080919100816080939100809112
:1052C00090008160809390008091C1008460809301
:1052D000C1008091C10082608093C1008091C100B3
:1052E00081608093C1008091C30081608093C3007E
:1052F0008091C00082608093C0008091C200816074
:105300008093C20080917A00846080937A008091BB
:105310007A00826080937A0080917A008160809325
:105320007A0080917A00806880937A001092B401AC
:105330001092AB011092B2018091D70081608093EE
:10534000D70080EA8093D80089B5806189BD89B58E
:10535000826089BD09B400FEFDCF61E070E080E0AD
:1053600090E00E9406248091D8008F7C8061809319
:10537000D8008091E000807F8093E0008091E10080
:105380008E7E8093E1008DE08093E200559A209A12
:1053900081EC80937C0085B1806F85B984B1877E74
:1053A00084B984B1876E84B95E9A5F988AB1806D42
:1053B0008AB9769A6E9881B3806F81BB899880B3E1
:1053C0008D7080BB80E58CBD81E08DBD85E090E077
:1053D0000E947B1E5F9A85E090E00E947B1E5E9893
:1053E0005C98EAEDF8E184918EBD00000DB407FEF3
:1053F000FDCF319648E1E73EF407A9F75C9A81E8D2
:1054000080936400809165008160809365000E94B4
:10541000801E87FF24C05C9885EA8EBD00000DB415
:1054200007FEFDCF5C9A2E982F982D9880916400EE
:1054300080628093640081E083BF889513BEFCCFB7
:105440002D980E94801E8478843871F00E94801EFE
:105450008471843129F188EC90E00E947B1E0E94C7
:10546000801E82FDEDCF38C02D9A88EC90E00E941E
:105470007B1E2F9882E090E00E949D2E8F3F29F0A6
:105480006FEF82E090E00E94C32E84EF91E00E94D3
:105490007B1E2F9A0E94801E84788438D9F3D6CF41
:1054A0002D9A88EC90E00E947B1E2E9882E090E07E
:1054B0000E949D2E882329F060E082E090E00E9407
:1054C000C32E84EF91E00E947B1E2E9A0E94801EC4
:1054D00084718431D9F3BFCF2D9A88E280936E070F
:1054E000809164008E7F8093640080917A00806454
:1054F00080937A0080917A0086FDFCCF009178003D
:10550000109179000E94A62820E030E09801112730
:105510000027600F711F821F931F2091640021607C
:1055200020936400611571058105910511F00E94B9
:10553000942E82E090E00E949D2E882331F03E9AC6
:105540003F9A81E080939B0104C010929B013E989A
:105550003F9880E00E9411280E94592684E18093A0
:10556000B50183E28093B6011092BC0181E0809383
:10557000BD0187E0EDE3F1E0DE01119601900D92AF
:105580008A95E1F781EB90E00E949D2E853040F4F2
:10559000E1E0F0E0EC0FFD1FE80FF11D808103C09A
:1055A000853019F081E1809300012BE3222E312C0C
:1055B00038E9432E55245A9447E6642E77247A948A
:1055C000DD24D39497E0A92E8FB7F8944091DC079F
:1055D0005091DD076091DE077091DF078FBF8091EA
:1055E0006F07942F981B892F90917007992329F0AA
:1055F000809371071092700743C290916E078917CC
:1056000040F48F5F891708F03BC2D3BE889513BE64
:1056100037C2D092700740936F0780916A079091CC
:105620006B07019690936B0780936A0780916C07D4
:1056300080936D070E94801E80936C07E0910001AB
:105640008E2F90E0FC013197E131F10508F00AC29C
:10565000E759FF4F0C94502F83EB90E00E949D2E52
:1056600010919C01853009F012C282EB90E00E94FB
:105670009D2E813009F00BC2612F660F660F160F49
:10568000185EFF24F39440E65CE168E170E000E01E
:1056900021E086E290E00E944024612F70E021E04A
:1056A00044E95CE18FE190E00E94402400E010E0DA
:1056B00021E045EA5AE160E070E0C8010E94751DF2
:1056C00021E045EA5AE167E370E0C8010E94751DD8
:1056D000065F1F4F0238110559F780916D078095BD
:1056E00090916C078923F11011C087FF07C090913A
:1056F0009C01992319F0915090939C0184FF06C05E
:1057000090919C01911102C0D0929C0183FFAAC18B
:1057100080919C01882329F0813009F0A3C10E9467
:1057200011280E94592682E0809300019BC10E94AB
:105730004A1C80916607882319F00E940F27F9CF31
:10574000E091A402F0E0EE0FFF1FE458FF4F20812C
:105750003181D092BC01F9018491FAE08F9FC001A0
:105760001124F9013196E4914AE0E49FF0011124FB
:105770008B3391052CF41092BF011092BE0116C01C
:10578000AC014B5351094E35510558F44BE340934E
:10579000B501B101681B790B7093BF016093BE0125
:1057A00007C07092BF016092BE0189598093B50114
:1057B000E731F1052CF41092C1011092C00116C01E
:1057C000CF0147978235910560F487E18093B60158
:1057D00087E190E08E1B9F0B9093C1018093C001E5
:1057E00007C05092C1014092C001E856E093B60153
:1057F000F90132961491A4EDB2E043E050E070E07C
:105800006C91607F672B6C9318961C921897711798
:10581000E8F4F901E40FF51FE4918AE0E89FF00154
:1058200011241396FC93EE931297FA013196E20F2E
:10583000F31F4E5F5F4FE491FAE0EF9FC001112428
:1058400015969C938E93149760616C937F5F1E9660
:105850007630B1F6CA010196F901E40FF51F5491B3
:105860005093A602A8EAB2E010E0BF016E5F7F4F3E
:10587000511759F03196E491EC93FB014491119644
:105880004C9311971F5F1296F0CF850F911D850FD6
:10589000911DA901480F591FACECB2E0FA016491C7
:1058A0006C933196E4911196EC9311974E5F5F4F94
:1058B000129664ED72E06A177B0781F74C0179E07C
:1058C000870E911CFC013896E20FF31FC490E2E0B2
:1058D000CE1621F000E010E040E067C0AEEBB1E092
:1058E0007C01F0EEEF0EF11C40E08D0160E070E015
:1058F0004C0159E0850E911CF401E60FF71FE20FF1
:10590000F31F5491E52FF0E0689413F8F595E795AF
:105910001694E1F7E63009F44F5FE52FEF70E630BB
:1059200009F44F5FF80156836F5F7F4F005F1F4F91
:105930006E30710509F711960E968E159F05A9F622
:1059400070C0EE2309F46DC05FEF851A950ABF2E73
:10595000B294B0EFBB227801C11038C0C7016CE12E
:1059600070E00E94E72D969587957727A4E0880F31
:10597000991FAA95E1F782549E4FDC01A60FB71F2D
:1059800016965C911697E0FC1EC05F705B29169618
:105990005C938FEFE81AF80A8E2D801B8E17E0F2C9
:1059A000E150F0E031960E0F1F1FF901E80DF91DCF
:1059B000E491FE2FF295F695F770EF71F63009F04D
:1059C000C0CF4E0FBECF507F5F2BE1CFB70184E039
:1059D000769567958A95E1F7562F56958E2D8F709F
:1059E00090E060FD0EC060E1569F800D911D112476
:1059F000DC01A254BE4F16968C9116978F708B299E
:105A00000DC070E1579F800D911D1124DC01A2543F
:105A1000BE4F16968C911697807F8F2B16968C937F
:105A2000B8CF4093A50283E08093000105C0A09207
:105A3000000102C00E9471260E94CE0E13C000E039
:105A400021E044EB59E164E170E083E190E008C0BB
:105A500000E021E047EE58E167E170E084E190E08A
:105A60000E944024E8E2F3E080E098E000800EBC71
:105A7000D110012C019780FDFDCF0192B9F70DB433
:105A8000E0E0F0E0309709F49FCD099599CD110F32
:105A9000612F660F660F160F1D5EF12C47EE5BE15E
:105AA00063E1F4CDDF92EF92FF920F931F93CF93B8
:105AB000DF93D82EF92EE42E062F10E0C8010196B0
:105AC000880F0E947C2083E00E947C20CD2DDF2D5A
:105AD0000C0F1D1FC017D10789F0E7FE03C0FE01A0
