:100000000C94CB0E0C94F30E0C94F30E0C94F30E94
:100010000C94F30E0C94F30E0C94F30E0C94F30E5C
:100020000C94F30E0C94F30E0C947D210C94EF21A0
:100030000C94F30E0C94F30E0C94F30E0C94F30E3C
:100040000C94F30E0C94F30E0C94F30E0C94F30E2C
:100050000C94F30E0C94F30E0C94F30E0C94F22803
:100060000C94F30E0C94F30E0C94F30E0C94F30E0C
:100070000C94F30E0C94F30E0C94F30E0C94F30EFC
:100080000C94291D0C94F30E0C94F30E0C94F30EA7
:100090000C94F30E0C94F30E0C94F30E0C94F30EDC
:1000A0000C94F30E0C94F30E0C94F30ED41305146D
:1000B0000514FE13FE13FA13FA13F613F613F213D4
:1000C000F213EA13EA13EE13EE13EA13EA13EE1334
:1000D000EE13532BBE2B432D432D432D3E2D432D8D
:1000E000432D412D432D462D462D462D722D722D2B
:1000F000722D682D251F251F251F461F461F461FD1
:10010000A01FA01FA01FA01FA01FD51FD51FD51F58
:10011000251F251F090FE8D2D9ED76BB4EC7B7DDE5
:100120006EB7DBED7636090FE8D3E974FCDBED76CC
:10013000BBDD6E6703090F109BCE6EB7DB753A36D9
:10014000090FB8B2E9145FD7ABCF85A2ED6CDB59CC
:1001500001090FBC92EE55A9A4D2AAAD53E4E9E877
:10016000B6B303090FF8B6CAF55FB9B5EBD436EEEE
:10017000ED6CDB5901090F38B39FEAB397770A4B4F
:10018000DBD9B6B302090FBC924EA5FAECE554CE0A
:10019000C9D9D3F9EC367A090FB8B29F6AA2745F55
:1001A000BB8E773B7B3A5A090F38972ACA6B998ED8
:1001B00039BD1D5B090F5CA73EF54D96DBF5B950C7
:1001C000B79D1D20064B000000190075054B00006F
:1001D00000190027054B000000190097044B000090
:1001E00000190017044B0000001900B8074B00006D
:1001F000001900E0064B000000190010034B00003E
:10020000001900BA024B000000190093024B0000D5
:100210000019004B024B00000019000B024B0000BC
:10022000001900DC034B000000190070034B0000B4
:1002300000190088014B00000019005D014B00000F
:100240000019004A014B000000190026014B000074
:1002500000190006014B0000001900EE014B0000E0
:10026000001900B8014B0000001900C4004B000049
:10027000001900AF004B0000001900A5004B000062
:1002800000190093004B000000190083004B000090
:10029000001900F7004B0000001900DC004B0000C3
:1002A00000190062004B000000190057004B0000CD
:1002B00000190052004B000000190049004B0000DB
:1002C00000190041004B00000019007B004B0000AA
:1002D0000019006E004B000000190031004B0000B7
:1002E0000019002C004B000000190029004B0000F1
:1002F00000190025004B000000190021004B0000F0
:100300000019003E004B000000190037004B0000B0
:1003100000190000804B024B0000000F004B024B05
:100320000000000F004B024B0000000F0026014BA5
:10033000000080E0060F0017040F0027050F0000E3
:10034000800A081800600080002000400000006063
:1003500000900020000000000000008010002080BD
:100360000000800000200000000040090FA8D69D7A
:100370002BA2AC932A75BB08B3DBB106090F8876B4
:100380009D7A995DCBDA756AD46DD7B101090FB842
:10039000969F6AA274D7ABCFCDBC9D753B2B060749
:1003A000A8D2E9743A2E0407723A9D8E0A06077C99
:1003B0003A9D4E470704079D4BA7A303030788E513
:1003C000030792CC0407B8D2E99C5304077C3A9DFA
:1003D000760E0607DE6EB7DBED76070407A592768C
:1003E000BB5D010607B7DBED76BBDD020407A59216
:1003F0006ABBDD020307F8743A0307759A10040715
:10040000D476BB924A2A0407B7DBAD5452011507D4
:10041000A54E472555552A1595F3D99C2293AA2A0E
:10042000958A4AEA745C95032907522E95AA4A9543
:10043000E272AA9295755452E5B3924AAAAA542A36
:100440006EE552A9544E71399F4E392EA9AA52A970
:10045000A8A4AA64656B4A550A2907D369A9A2937F
:10046000AA9295ADA9F64A4DEF54252BEBB8944BC3
:10047000A5AA52A5B89CAA64651D552A25552A2A05
:10048000E9F24949A94A010E07A54E47E57C36A77E
:10049000C8A44EC75571011307522E95AA4A95E27A
:1004A000522E954AE51497D4E9A8A44AA552394595
:1004B00056390F07A5CB67B3924AAAAA542A2AE94C
:1004C000F249C9553904050E11110E00121F101200
:1004D0001915120A11150A06051F04171515090E1C
:1004E000151508011905030A15150A12150906192B
:1004F00007EA5455AA2AD59129974AA572159972E7
:10050000A9542AA7B8A4AA64656B2AA9AA52A9B8B3
:100510002A2EF4F5F9F6F7F8FBFAFFFCFDFE0002CF
:10052000030401060508090A070B0C0E0F008801D9
:10053000640000001400DC036400000014004B029F
:100540006400000028001704640000001400270560
:1005500064000000140020066400000028000080F1
:10056000080E0413021008030B150E0200001700FA
:10057000080211021708020B00E1028213846104D1
:1005800061116101410261046111610141C26101B6
:10059000C102612401C103C16125A121612361223E
:1005A00002610329066221A16104611362A1610550
:1005B00061936305611462056101C10BC105C162EC
:1005C0000525614A22A122628307610A8307C106C9
:1005D000610961062961016103C105618103C109E6
:1005E00025614361240121C123C10C6103610532EE
:1005F0006103612A0011070318030609130A020C9C
:100600000015001B0000040104100A00058105818B
:10061000E1810681E101C102C10181038101810300
:1006200081016101810481016126018101810381D0
:1006300001810261028102810261088105810361F9
:100640000382036108C102C102C103610381046125
:10065000456147A146618105614101C10141610ECA
:10066000410661416141C141610DC14104C1016166
:10067000416141C141622A6121426124816141613C
:1006800041C141620A6122620561416141C1416229
:1006900004220461226103C103416141C14162013D
:1006A0002302230161224225614161846101230209
:1006B00023016122076106610123C2230161210533
:1006C00082C1610124016101C101C122C101C101D5
:1006D000612202612102216122C23E000B00030E51
:1006E00006040E140E0600000D001600000116018F
:1006F000160202041205050E170E00E10BC1E10FF0
:10070000870124610E610AC1016104C106C1026151
:100710000861440127612561086101C10A61056121
:10072000266101246108610561066103C10161015F
:10073000612B62066101614401614B6204C1612168
:100740000161C104614105C10341620461210224C8
:1007500061016141614761416202C1612106C1617C
:10076000016141614103C1026141620261210421D1
:1007700044016141614962016121052101C10361B7
:10078000416104C104632106246101614C620B6173
:1007900001610C3C000F020201010A01071B001B52
:1007A000011B041B051B081B091B0E02010B010882
:1007B0000B140E0220000000000000002222222262
:1007C000222020000000000000002006020000009F
:1007D000224444441111130020320232111321111A
:1007E00011000600111220320232111320000111F3
:1007F000111000000032023200001113000000113D
:100800001130603202320600101112130000003164
:1008100011220232111310060011213000300002A3
:1008200002321113111110000111213000020232A5
:100830000000106012310000011211320232660015
:100840001110003112210060023202321113101215
:100850001130000111221232023211131000111254
:100860001130000002320232011310311000611108
:100870002213123202320013103100000000000374
:1008800006320030006016312111121111121122AE
:10089000112111110D0E0311010A09180B03150086
:1008A0001501170F10010909170B050E0001C11AD8
:1008B000246119C101610A61266103C10128612611
:1008C0006105270861066101C108C106C102610610
:1008D000612D61266103C102610D6103C1026146A0
:1008E0006106C10521612661062561266108610650
:1008F000C10461066101C1066123612748236125A6
:10090000036102C106C1086107612961260361878D
:100910006108610A61106105C10137E124000D0A17
:1009200003020111040C0E04110011010302110253
:1009300004011204180D0D0E004F044903610661F5
:1009400083056106C10143E1224521A12143E10163
:100950006144016141214182610761846102610357
:100960002541026107C10121C1216102610622C145
:1009700001A161076104412161014224412141211A
:10098000A16187618541618761412102A1076103FE
:10099000C1614306612142A12104C3610461418414
:1009A00002C10162410A610461416105A121416105
:1009B00023A12205610461416101C10661216184B5
:1009C000016141234122A1426108612161C10321EA
:1009D0006108612161024124016121614182236139
:1009E000076141610221034101612161022341212B
:1009F0006106610161032142214325442E41230008
:100A0000020203180202051805071B001B011B0246
:100A10001B031B041B051B061702010517050B060C
:100A2000003BE12103730321E121036101630461C0
:100A3000036203610321E124610163016201610139
:100A4000620161016324E1210361016301620161CB
:100A50000162016103610321E1210361016301621C
:100A600001610162016101630321E1246103610409
:100A7000610362036124E17D01C1016101C1016182
:100A800001C1026102C1016101C1016101C1017FB6
:100A90000361016101610162016101620161036140
:100AA0000363016101610161016102610161026130
:100AB0000161016301610163026201610161016120
:100AC000026101610261036102640161016101610E
:100AD0000161016201610162016101630161016300
:100AE00001610161036101620161016201610361F0
:100AF0000161017E000F0E04100311050B0911099D
:100B00000402001A0002011A010F030F050709175A
:100B100009020000000000000000000000000000CA
:100B20000000000000000000000000000000003194
:100B30001111111111111111111111300030311059
:100B4000006000600060001130300031113111117F
:100B500011111111113111300030303011106000BD
:100B6000601130303030001131113031111111303D
:100B70003111311000303030303031113030303000
:100B800030300031113111303060303111311130DD
:100B90006030303030303222303030303036111169
:100BA00031113632322232363111311111303030BA
:100BB0003232322232323030303111311032323270
:100BC000322232323230113111303232323232226C
:100BD0003232323230311132303030303000303059
:100BE00030303231111111111111316131111111E6
:100BF00011111A0E0307041705170C03000010004B
:100C00001B0006041505160C070F00E101C107C102
:100C10000AC104C1E1612304612304612A6201C1A4
:100C200003C1016105C1016101C104C10362236106
:100C300023610325412241234123610361036103B1
:100C40008F012461266106C103C10461046106614C
:100C50000141244623610461450161014106C1024D
:100C6000C1036121036102C10141016101410349E5
:100C7000016121C243234101610141034102C101DC
:100C8000C102410161234323410161014101C101CD
:100C9000410161246141016102C102C1056101425A
:100CA000A1420161046141016129026101410561C3
:100CB000046141016102C101C10341026101412797
:100CC0004501612661014424410A6124C121610B6F
:100CD00061290001020401041B040A0E110E030322
:100CE00000100016000204000E090E100E0004820F
:100CF000C10188E185E185036101C121C1086181EC
:100D0000012101816102C4016101C1210121C106EA
:100D10006181012301816102C22201C1210321C13C
:100D20000461810121032101816102C103A102212A
:100D300002210361810122032201816102612202F9
:100D4000230243810321C321038121620321032163
:100D500003C103622306620281012303C1610261B0
:100D600022612107620381012103C16103610261E4
:100D7000018762048103C1610361446107614361CA
:100D80000283610461C102C161018661036109617D
:100D900026610661236123610561C104C16101858A
:100DA00061076104614861056107610461C106C1B1
:100DB00061018461284528610561000C0E03050668
:100DC0001706040E030000000100020406160619AF
:100DD0000D050E00E10A31E10A2841018621E104F6
:100DE000C103612104C1034161012101C1022A61E2
:100DF0004127014161012604C104614104C103414D
:100E00006101266129410122A1230141610126617D
:100E100005C1034106C1014161072961410122A3C6
:100E20002101286101C107614104C10B622941010F
:100E300022A123096202C1064106C109612961415B
:100E40000122A3210225026108C1614106C10221DC
:100E500002C121026229410122A12304612202620E
:100E600015612101C101613C001A04030B0111014C
:100E700002040405001600050116010A0110010113
:100E80000419040023042204220422042702240259
:100E9000240224E101246102226121022261210253
:100EA000216122022161220262032161826101210A
:100EB0006103C16121016182612103620224C16178
:100EC00024622461C1240262230222612102216181
:100ED000220221612202236222042161C1036121D5
:100EE00003C16121042262230224622462240223BA
:100EF000620222612102226121022161220221611A
:100F000022026203216104216103C1612104612184
:100F100003620224622462246224026223022261A8
:100F20002102216122022161220223622204216125
:100F300004612104612104226223022462246224C8
:100F400002236204C1046201C1026204C104623A64
:100F50006100170F040C020E0202091909040000B7
:100F60001B0000011B010A0110010309180900E11F
:100F70001F18266124610361246127018104610433
:100F800061416141610461058101610125066103DF
:100F9000C1022601620125022167210226016201A8
:100FA00022C101210221614561210222C123016286
:100FB0000125022167210226016209870A62056173
:100FC000064106610662456104C143C1046146628F
:100FD00005610445046106622561034703612662D9
:100FE000056101C149C1016106624561014B0161B1
:100FF0004661C105614D6106C100070A030701177B
:10100000060A0E0300000001000208010D04180684
:10101000090E00E11F192A462144214461C11561CE
:10102000046122094103C104C183C1026125622117
:10103000622802210321026104216201622101422E
:10104000240961042162C16221014101240123615B
:10105000246104270141C123056104611661046113
:101060000F2161256144612261286123016101C270
:1010700002610461026108610461014205226102AA
:101080006122C1210461022301422601610261241F
:10109000046103C1024207613242234461000E0E23
:1010A000031700040716080200001B0003070507CA
:1010B00018081A0800E103C104C105C108C1036191
:1010C0002661230125612301256206610961096109
:1010D00001610661028104610961016106610281A9
:1010E000018104610961016106618103810261017D
:1010F000886101618661068102610961086181057B
:10110000816109610126016102810381026105C1DA
:1011100001C1016122012302610281018102610496
:1011200081234301C103C10161048104610381235F
:101130004322A123026102810181026104812343D0
:1011400022A1210121016102810381026103812227
:10115000C24202C101C10361810581610481462649
:10116000016104C1046101C102463C000D0E040589
:10117000080708140816080600001B0000011B01E0
:1011800000021B02060809081208150802000000E8
:10119000000000011000000000000000000000003E
:1011A000000220000000000000006000000060015C
:1011B00010060000000600212121212121322312E6
:1011C0001212121212000600000600311300600015
:1011D000006000321212121212122121212121214B
:1011E00023300060006000011000060006000321AB
:1011F0002121212121322312121212121200006029
:1012000000600031130006000600003212121212B4
:101210001212212121212121233006000006000184
:1012200010006000006003212121212121322312BE
:10123000121212121200600000006031130600004A
:101240000006003212121212121221212121212134
:101250002330000000000000000000000000031226
:1012600012121212121212121212121212010E0283
:10127000080E130E0200001B00070E090E120E14BA
:101280000E00E188C226C288E16107C1236423C140
:10129000076206C12263026322C106620622620659
:1012A0006222066205C12162086221C1056205222F
:1012B00061C108C161220562052162C108C16221C4
:1012C0000562052161C208C261210562052162C172
:1012D00008C162210562052261C108C1612205625F
:1012E000062162C106C1622106620621A162C20214
:1012F000C262A121066207A12163C26321A1076224
:101300000823642308620A260A61296108612861AA
:1013100000010F0319020706150F0705000501005C
:10132000020302050200030104180204040C07135F
:101330000F0025E1360421E12101870C21E122E1A2
:1013400002210121C1032161210B21E10125012697
:101350006125C101216125E104C183246128612146
:1013600001290321022161230124612101220D2190
:101370006123012201216121C101216127612161D4
:10138000C1012161230122012161246107612561DD
:1013900023C101210121612201216109246126016A
:1013A000216122C1216107210561086103216123B7
:1013B00061246121412141214121412141214121DA
:1013C000612141214161236124612602256121417E
:1013D00021416103610461270224610461286128BD
:1013E000C1012762086101C10126086100020702EC
:1013F00018010902030000030103020A021A03088C
:101400000E170E00E11B23E12409860A820F4561B5
:10141000036121022561268303210162240221C187
:101420008361852103246121610624032361210353
:1014300021C102610161062184618461210321814E
:10144000026101610221032161C121C161C12161E8
:10145000C1612103210361C1216122032C042161A7
:1014600023016104C12105C1042105610461042235
:1014700003236103210561046102C1210121066189
:101480000321C102612501610221022103C1026120
:10149000032202610661C12103210161266101214C
:1014A0000121C16106612102C1012101612102C145
:1014B000012161042161053C000D0E03050415079F
:1014C000040F050E000E010E020F020F0302031996
:1014D00003050F170F001F19C11AC1216101618B8C
:1014E000E188610161236212C101622561016186A7
:1014F0000189610161276201C10E6228A161016158
:10150000870184610161A128A121620AC1016221D0
:10151000A128A12261016183018461016122A128C6
:10152000A1236201C1066223A128A1246101618275
:10153000018161016124A128A12562046225A128FD
:10154000A12662026226A128A1276101C16127A10B
:1015500028086122610824001501050A010C010E0A
:1015600001080E110E021B001B0103010B010D01EE
:10157000190100411B4105C412412AA12F611B61C1
:10158000044101C102C107C106C1410161044127F3
:10159000A127A1244101611B61064102C104C105CB
:1015A000C102410361064123A126A1254103611B1C
:1015B00061074102C105C104C141046106422E41D7
:1015C00004611B611B61C414614101612A46284208
:1015D0000161000E0B03020015000F020206001647
:1015E00000010014000E02150F010124042305223E
:1015F000C1210421C1210522C12104230524038224
:10160000032201810581062201810624066501224B
:10161000C121058104810122C12107220181012408
:10162000072201810B810181026A0281068109265C
:101630000181082603230424C1210321C1A104241C
:10164000C12103230424C121018108268109260127
:10165000660281068107220166072281062403644F
:101660000522C12106230322C1210621C121032411
:1016700006231F0A000A0E0318051207030A030DAA
:10168000000D010D0204021A051307040A001C8B49
:1016900013C104C101416104C10C29476102C16148
:1016A00041610521412141214121450347610F420B
:1016B00002C106416102C102886101422561034203
:1016C000246108610142056105246108610142014C
:1016D000286101246101C104C101610142012106A7
:1016E000216101246123032101610142012103C120
:1016F0000221610122C121612701610142012861AA
:1017000001220121610861042102C1032161042138
:10171000612E016122610127610F6101C1610861D0
:101720003C00070104140104090A09180B0A00030C
:101730001B0300041B04000501051A051B05010617
:101740001A06130103090B09170B00611A621A62CA
:101750000341216121418A41216121410361E1036A
:1017600041C161014101C106C1014101610141065F
:10177000412201610122410641220161C12241044D
:1017800041C1026102C14101C1044101C1016101C4
:1017900021C141E1E141E1230161032241024125EF
:1017A0006101210121E1420561054101C141C104FD
:1017B00061012102C142056125416121412203618C
:1017C000012201214201C1036106610761054261F5
:1017D00024610341226123410361032161410161CD
:1017E0004101C101610321026101C10121036103C2
:1017F0004161026141220161012302610323016110
:1018000001224161026101C14101610141046104A0
:10181000C14101610141C10161026103230561060A
:10182000230361013C000D0E0305010D02160503A3
:101830001A001A011A0204010C0216021505001FF3
:1018400019612A6104C106C104610A61246104238B
:1018500061236101C106C101610341610761036147
:101860000121022301210161C2014161076103617C
:1018700001210123022101614201412A426101212A
:10188000022301210161420C41C1610121012302B6
:10189000210161418802C10241620121C10123018C
:1018A00021016141C10724614162012502210161D9
:1018B000420B610162012801614204C1066122619B
:1018C0000A61420146046102614821440B610261E0
:1018D0001861023C001B07B22E954A653BAD5D3690
:1018E0009D7754D265D3F9E894AB4A55A5AA721DE9
:1018F000977255A9AA5455AE031007B22E954A65A2
:10190000E3723EA77CCA9129974AA552A99C22025C
:1019100010079C72A9542A95CA292EE9B2E9BCE3A2
:1019200052AE2A5595AACA75D5F08D14A1C881CF9B
:10193000D9F1AF20005717A38B2E2E47175D74D116
:1019400045175D74D145175D721F5D74D145175DF4
:1019500074D145175D749129BAE8A28B2EBAE8A21A
:101960008B2EBAE8A28B2EBAE8A28B2EB98F2EB49A
:10197000499D4EC7A55C2A954AA5728A2E5795AAFD
:101980004A55E51C9772A9542A954A491449974D1E
:10199000E71D977255A9AA5455EEA24AE52A9BADB8
:1019A0005C2A2AE752A9543624DDD7575595AA2A2E
:1019B0003559AE2A5595AACA392AA9F2CAA525973A
:1019C0007255A9AA5455AEA35485ACE8A28B2EBA81
:1019D000E8A28B2EBAE8A28B2EBAE8A28B2EBAE828
:1019E000A28B2EBAE8A28B2EBAE8A28B2EBAE8A25E
:1019F0008B2EBAE8A28B2EBAE8A28B2EBAE8A28B65
:101A00002E32591FA38B2EA764E7D29DDCE7D28E1E
:101A10002EB66D7ABAD8B6E9E962DBA6A78B6D9BC4
:101A20009E2EBAE862DBA6A78B6D9B9E2E9B9E6DB9
:101A30009BCFA6B7E9E972694717DB363D5D4EE9F2
:101A40006D3EBA6C7A9B8F2E7439974EC79C733A51
:101A50002E652B59C9CA756CD94A56B2728EAB9392
:101A600095AC64652353B69295AC5C872BE5D3E9BE
:101A70005CC7A57C3A9D53648E4B91392E2BD3E9DC
:101A80009CE2CB391D97B295AC64E53A2EE5D3D9EB
:101A9000C894AD64252BD7416FF7B5AB4AA952A9BD
:101AA000C97255A9AA5455CE514995572E2DB994AE
:101AB000AB4A55A5AA721D2C1B5D74D145175D74E8
:101AC000D145175D74D1C594EB742EBAE8A28B2E64
:101AD000BAE8A28B2EBAE8A28B2EBAE8A28B2EBA55
:101AE000E8A28B2EBAE8A28B2EBAE8A28B2EBAE817
:101AF000A28B090A10000000000000000000000096
:101B0000000000000000000000EFEFE0EFEFEFEF5B
:101B10000FEFEF01010101010101000101FFFFFFD2
:101B2000FFFFFFFFFFFF00010101010101010101B2
:101B3000000000FF42424242FF000000000300009C
:101B4000000003000002020202020202020202007E
:101B5000000000000000000000EFAFE06FEFEFEDCD
:101B60000FEBEF010101010101010001010000B0D3
:101B7000B000B0B000000000000101000101000051
:101B800000EFEFE0EEEEEEEE0EEFEF0101010101EE
:101B90000101000101EEECE0E8E8EAE808ECEE0102
:101BA000010101010101000101ECE0C0C088808059
:101BB00000E0EC01010101010101000101E08000F0
:101BC000000800010086E00101010101010100019E
:101BD0000100000000000000000000000000000004
:101BE0000000000000E08080000000000080E001B4
:101BF000010101010101000101ECE0C0808080C011
:101C000000E0EC01010101010101000101EFECE044
:101C1000E8E8E8E80CECEF01010101010101000135
:101C200001EFEFE0EEEEEEEE0FEFEF01010101014B
:101C300001010001013F0FA5AA64656B2AA9AA5200
:101C4000A9B83A5595AA4A755CCEA7538E4BBA7C73
:101C5000362BA9A4AA4AA5E2562E95AA4A95E27265
:101C6000AA92957554D2E5B359492555552A15D2EE
:101C7000A5AA64656B2AA9AA52A9B83A5595AA4A99
:101C8000755CE9B454F13955C9CA3A2AA92A59D917
:101C90009A2A9D962A7EE552A9AA54292EA72A5946
:101CA0005947255D3E9B95545255A55221122C074C
:101CB000EA5455AA2AD571A5D352C5E754252BEB72
:101CC000A8A4AA64656BAA745AAAF8954BA5AA524F
:101CD000A5B89CAA64651D9554F9ACA492AA2A954E
:101CE0004A010207A5533609E0061E0000000A005B
:101CF000E0061E000080080B000202020100090439
:101D00000000010202000005240010010524010169
:101D100001042402060524060001070581031000C2
:101D20004009040100020A00000007050202400009
:101D300000070583024000000403090412010002A9
:101D4000EF0201404123368000010102030141728C
:101D50006475696E6F204C4C430041726475626F0C
:101D600079002006640000001400270564000000CC
:101D7000140017046400000028004B0264000000F7
:101D80001400DC03640000001400880164000000FB
:101D900028000080C72D11241FBECFEFDAE0DEBF80
:101DA000CDBF11E0A0E0B1E0EAE3FFE502C005909D
:101DB0000D92A03AB107D9F727E0A0EAB1E001C03F
:101DC0001D92AD3EB207E1F71EE0CBECDEE004C0B1
:101DD0002197FE010E94902FCA3CD107C9F70E94AB
:101DE0004F290C949B2F0C9400002F923F924F92FE
:101DF0005F926F927F928F929F92AF92BF92CF929B
:101E0000DF92EF92FF920F931F93CF93DF93CDB7A3
:101E1000DEB72D970FB6F894DEBF0FBECDBF809111
:101E2000BD0190E02091C6013091C701821B930B48
:101E300005962AE030E0B9010E94132E162F6D8717
:101E40008091BE0190E04091C8015091C901841B6E
:101E5000950B0596B9010E94132E7B016C8780912A
:101E60000001853091F080917207909173076CE0CA
:101E700070E00E94272E892B09F0F6C39091A001F3
:101E800081E089278093A001EFC3812F0E9439262A
:101E9000082FD0907407C0907507C094CD20109281
:101EA000BF011092CA018091C4018B3021F01092C1
:101EB000C0011092CB016E2D812F0E9439268630F1
:101EC00079F58091C1019091C20149969093C20128
:101ED0008093C10140E06E2D812F0E946026809189
:101EE000AD02882319F081508093AD028091AD023C
:101EF000811112C0B12C8091AE02B81668F4EB2D9E
:101F0000F0E0EE0FFF1FE055FD4F43E0618180815F
:101F10000E946026B394EFCF83E393E00E94891D73
:101F20008091A1019D2D9C709C3061F58F5F809305
:101F3000A1018531B0F18D3390F08D3391F5109280
:101F4000A10183E884BD8FEF87BD81EF809380007E
:101F50001092880010928A000E943C2918C320E445
:101F600030E0A901481B5109CA01880F93E894BDCC
:101F70009FEF97BD91EF909380001092880080931F
:101F80008A000FC0882369F083E884BD8FEF87BD86
:101F900081EF809380001092880010928A00109246
:101FA000A1018C2D84709C2D9870C3FE2DC08111D1
:101FB0002BC00E94CA1E882309F454C08091BD0121
:101FC00090E02091C6013091C701821B930B0296CD
:101FD0006AE070E00E94132E162FCC24CA94C60E1D
:101FE0006E2D8C2D0E943926A82EBB24B394BE0CD6
:101FF0006B2D8C2D0E9439268130A1F58FEF8A0D33
:10200000823008F094C22EC0882361F191112AC059
:102010000E94CA1E882331F18091BD0190E0209179
:10202000C6013091C701821B930B02966AE070E0F3
:102030000E94132E162FCC24C394C60E6E2D8C2D09
:102040000E943926A82EBB24B394BE0C6B2D8C2D78
:102050000E943926813031F48FEF8A0D823010F0E2
:102060000C948618D6FECAC06E2D812F0E94392688
:10207000082F8091BD0190E02091C6013091C701E9
:10208000821B930B6AE070E00E94132E6C01892B77
:1020900019F481E0810F01C0812F6E2D0E94392635
:1020A000282E552453945E0CC114D10419F481E0F8
:1020B000810F01C0812F652D0E943926482EC11441
:1020C000D10419F08FEF810F01C0812F652D0E947F
:1020D0003926382E822D0E947428682E47019924B3
:1020E0005FEF851A950AA12EB12CA401B501832DAD
:1020F0000E94B825782E0E94CA1E9091C4019B3080
:1021000089F4882311F40C94531B7110C1C064E04E
:10211000261621F0043011F00C94531B68E087E080
:102120000C94ED180E941C27882341F08DEF800F3E
:10213000823010F00C949F180C948D18C114D104A7
:1021400019F481E0810F01C0812F6E2D0E94392684
:10215000782EC114D10419F481E0810F01C0812FC0
:10216000652D0E943926682E62E06E0DC114D104DF
:1021700019F481E0810F01C0812F0E943926482E79
:10218000862D0E947428682E872D0E94742888232B
:1021900011F40C94F018662011F40C94F018350129
:1021A0008FEF681A780AA401B301842D0E94B82524
:1021B000882311F40C94E21864E081E00E94DD1E93
:1021C0001092C4018091C8019AE0E99E800D11240B
:1021D0008093BE018091BD018C3310F482E0C2C0B7
:1021E0002091C6013091C70129363F4F24F010924B
:1021F000BF018EEFC3C087FFF1CF8AC1D5FEC4C037
:102200006E2D812F0E943926082F8091BD0190E00C
:102210002091C6013091C701821B930B6AE070E0E8
:102220000E94132E4C01892B19F48FEF810F01C0EE
:10223000812F6E2D0E943926382E772473947E0CC0
:102240008114910419F081E0810F01C0812F672D65
:102250000E943926482E832D0E947428582E57013B
:10226000BB24BFEFAB1ABB0AC12ED12CA501B6010E
:10227000842D0E94B825682E0E94CA1E9091C40128
:102280009B30B9F4882311F40C94531B662031F071
:102290001092C4010E94711C0C947B1BE4E03E165A
:1022A00021F0043011F00C94531B69EF86EF0C946D
:1022B00048190E941C27882331F08DEF800F82304F
:1022C00008F0ADC7B7C78114910419F48FEF810FDF
:1022D00001C0812F6E2D0E943926082F8114910490
:1022E00019F48FEF810F01C0812F672D0E943926CD
:1022F000782E62E06E0D8114910419F48FEF810F36
:1023000001C0812F0E943926182F872D0E94742822
:10231000782E802F0E947428882311F40C947B1B44
:10232000772011F40C947B1BF1E0CF1AD108A501A2
:10233000B601812F0E94B825882309F49DC76FEF4D
:102340008CEF0E94DD1E1092C4018091C8012AE02A
:10235000E29E800D11248093BE018091BD018D33DA
:1023600020F08EEF8093BF01D1C02091C601309143
:10237000C70137FF06C01092BF0182E08093CA01F7
:10238000C7C08111EECFC4C0D7FE85C08091BE0109
:1023900090E02091C8013091C901821B930B0896EF
:1023A0006AE070E00E94132E7B01B62E0E94CA1EC6
:1023B000D82E882319F06FEF6E0D01C06E2D812F7E
:1023C0000E943926C82EDD2019F0BB24B394BE0C20
:1023D0006B2D812F0E9439269091C4019530A4F075
:1023E000973044F09B3081F4043009F068C7D11075
:1023F00062C765C7DD2061F1033009F083C08FEF4C
:102400008C0D823028F57EC00E94711C8091BD0128
:1024100090E02091C6013091C701821B930B2AE006
:1024200030E0B9010E94132E863020F0A901481B2C
:102430005109CA0105970CF067C0033009F064C068
:102440008FEF8C0D823008F45FC085E08093C4016B
:102450008091C6015AE0159F800D11248093BD0123
:102460001092BF011092CA018091BE01883120F004
:102470008EEF8093C0014EC02091C8013091C901F8
:1024800037FF06C01092C00182E08093CB017FC06D
:102490008111EECF7CC0D4FE40C08091BE0190E09F
:1024A0002091C8013091C901821B930B08966AE004
:1024B00070E00E94132E7B01D62E0E94CA1EC82EE9
:1024C000811104C76FEF6E0D812F0E943926B82E3F
:1024D000CC2019F0DD24D394DE0C6D2D812F0E94C9
:1024E0003926D82E8091C4018B3009F059C60430AA
:1024F00009F4DFC6CC2009F401C784EF8B0D8430CA
:1025000008F0FCC60E94711C1092BF011092CA0113
:102510001092C0011092CB013AC08091C00182306C
:1025200009F4BBCF8091CB018E3F89F5B6CF53E044
:10253000A51609F497CD84EF8093C4011092BF01D2
:102540001092CA0147E06B2D8C2D0E94602680916D
:102550006E07843181F0E82FF0E09F01220F331FD6
:10256000E20FF31FEE5CF84FC082B1829CED9283C4
:102570008F5F80936E0780917407809375070E9428
:10258000A71E8093740785E193E00E94891D8091C6
:10259000720780FD68CC1092DD021092EB0210925F
:1025A000F9021092070310921503109223038CED89
:1025B000682E82E0782EF301808184FF4BC08281F7
:1025C00093816AE070E00E94272ED62E688784816E
:1025D00095816AE070E00E94272EF62E69878D2D86
:1025E0000E943926B82ECC24C394CF0C6C2D8D2D8F
:1025F0000E943926982EF6E0BF1206C0D301189625
:102600008C91882309F487C6F30182858D3014F5F7
:10261000228133813B872A87C9016AE070E00E94EA
:10262000272E892BB9F404811581C8016AE070E076
:102630000E94272E892B71F4E384EE2009F48BC6C7
:10264000D30118968C9181117DC6F3011782838581
:1026500081508387BEE06B0E711CE0E36E16E3E0F1
:102660007E0609F0A8CFFFCB80910001885083300F
:1026700030F480910001833009F0C9C1CDC1C12C73
:10268000D12C812C712CA12CB12CE090C601F090A2
:10269000C701EA0CFB1CC70109968938910528F58A
:1026A0000091C8011091C9010C0D1D1DC8010996AA
:1026B00089349105D0F4682D872D0E943926982EF3
:1026C000882339F0282F43EF5AE1B801C7010E944F
:1026D0009C1D29EF290D243040F4B8016A5071097E
:1026E00041E453E0C7010E949C1D7394FAE0AF0ED1
:1026F000B11C2CE17212C9CF83943AE0C30ED11CF5
:1027000040E18412BFCF80910001853021F080919B
:10271000A0018823F1F08091C401082F001F002739
:10272000001F082E000C990B97FF03C0919581950F
:102730009109880F990BFC01E35EFE4F40815181A6
:102740006091BE0170E08091BD0121E090E00E94A7
:1027500067241CEDA12E12E0B12E7501D7018C91DA
:1027600084FFADC012960D911C9113976090C60125
:102770007090C7014301800E911E14968D919C911B
:102780001597C090C801D090C901C80ED91E1B96DC
:10279000EC914E2F50E04331510508F088C0FA010A
:1027A000EA5AFF4F0C94902FF7018285082F001FE3
:1027B0000027001F082E000C990B97FF03C091956E
:1027C00081959109880F990BFC01E35EFE4F4081D2
:1027D000518170C0F1E08F1A910869C02FEF821A01
:1027E000920A65C032E0C31AD108FCC644E0C41A9C
:1027F000D10807C056E0C51AD108F4C668E0C61A69
:10280000D10800E04BE653E055C0AAE0CA1AD1084F
:102810009C012A503109F701358324831386C801AE
:102820006AE070E00E94272E262EC9016AE070E05F
:102830000E94272E462E55245A94520C852D0E9414
:1028400039268F8333243394340C632D852D0E94D5
:102850003926888755245394520C642D852D0E9467
:102860003926482E632D852D0E943926582E8091B9
:10287000BD0190E0861997098017910764F48F8154
:102880000E947428882309F4A5C688850E947D28A3
:10289000811197C69FC6842D0E947428882309F44D
:1028A00090C6852D0E947D28811194C68AC600E0BD
:1028B0004DE853E021E0B601C4010E946724FEE028
:1028C000EF0EF11C20E3E21623E0F20609F046CFFA
:1028D0004090BD01512C8091C6019091C701481ACA
:1028E000590A6090BE01712C8091C8019091C90174
:1028F000681A790AD5018C9184FF7FC012968D9158
:102900009C911397F201E81BF90B14962D913C91C1
:102910001597A301421B530B9A01C090BE014C2D89
:1029200050E0421B530BE090BD01473F6FEF56074D
:10293000C4F42E2D30E02E1B3F0B2F3FAFEF3A0794
:102940000CF454C62C3731050CF058C6E394EE1A3B
:102950008E2DBDEA8B2EB3E09B2E43EE53E090E02C
:102960003AC045335105C4F02E2D30E02E1B3F0BED
:102970002F3FBFEF3B070CF449C62C3731050CF055
:102980004EC6E394EE1A8E2DAEE98A2EA3E09A2E5F
:1029900042ED53E093E31FC0F12CEE1AFF0AECEF77
:1029A000EE16EFEFFE064CF49C2D921BF0EC8F2EF2
:1029B000F3E09F2E49EF53E030C6FCE7EF16F10439
:1029C000E4F09C2D921BECEB8E2EE3E09E2E44EF68
:1029D00053E08CE702C08F3F81F0C92ED12CE82E46
:1029E000F12C00E020E0B601C7010E94672421E03D
:1029F000A401B601C7010E9467242EE0A20EB11CFB
:102A000030E3A31633E0B30609F074CF32CE87303B
:102A100049F48091C50101C084E08093000100E089
:102A200010E067C098EF980F9330C8F78A3069F4C8
:102A300000E021E049E554E069E170E08AE290E0DD
:102A40000E94672409E210E03BC0883029F400E0CE
:102A500021E048E254E02FC01091AC02812F64E6DF
:102A60000E94842F082F282F45EC54E069E170E084
:102A700088E490E00E949C1D812F44E6049F801909
:102A800011246AE00E94842F192F282F45EC54E06E
:102A900069E170E08DE490E00E949C1D212F45ECDF
:102AA00054E069E170E082E590E00E949C1D00E046
:102AB00021E04EE054E069E170E08BE290E0C0CFAD
:102AC00041E066E170E0C8010E94AF1E0E5F1F4F3B
:102AD00009351105A9F709E210E041E060E270E074
:102AE000C8010E94AF1E0E5F1F4F09351105A9F7DF
:102AF00096CF77E3E72EF12C40E0B701C8010E94A2
:102B0000AF1E5FEFE51AF50A60E4E616F104A1F7DF
:102B10000F5F1F4F0038110561F700E010E041E042
:102B200068E370E0C8010E94AF1E0E5F1F4F0238BD
:102B30001105A9F78091C1019091C201FE01319662
:102B400026E0DF011D922A95E9F77F019E01295FAA
:102B50003F4F0AE010E0B8010E94272E8193CB017D
:102B60002E173F07C1F700E021E04FEE54E06AE383
:102B700070E080E090E00E94672406E310E0F70137
:102B800021917F0145EC54E06AE370E0C8010E94A6
:102B90009C1D055011090831110589F7F090C301FA
:102BA00000E021E042EB54E06AE370E080E490E072
:102BB0000E9467241AE08F2D612F0E94842F092F15
:102BC000282F45EC54E06AE370E082E590E00E9433
:102BD0009C1D202F45EC54E06AE370E087E590E00F
:102BE0000E949C1D80910001853071F4F090AD022F
:102BF00000E021E047E954E06AE370E080E690E01D
:102C00000E9467248F2D1DC0F090AC0200E021E0EF
:102C100047E854E06AE370E080E690E00E946724B1
:102C200064E670E08F2D90E00E94132E262F082F6F
:102C300045EC54E06AE370E081E790E00E949C1D5F
:102C4000802F612F0E94842F192F282F45EC54E0EC
:102C50006AE370E086E790E00E949C1D212F45EC1E
:102C600054E06AE370E08BE790E00E949C1D2091A5
:102C70000001253009F0C1C180917207909173075E
:102C800080FD1CC02091BF0121110CC02091C0010A
:102C9000211108C02091CA01211104C02091CB014B
:102CA000222361F02091C401ECE0E20FEC3120F42A
:102CB000F0E0EE5EFA4F24912093C40183709927CF
:102CC000892B09F445C02091BF018091BD01280FD7
:102CD0002093BD011091C0018091BE01180F109387
:102CE000BE018091CA01E090C601F090C701E80ED4
:102CF000F11C87FDFA94F092C701E092C601809121
:102D0000CB014091C8015091C901480F511D87FD69
:102D10005A955093C9014093C801812F90E0841BBC
:102D2000950B0596EAE0F0E0BF010E94132E362FC6
:102D3000822F90E08E199F090596BF010E94132EE5
:102D4000862F632F0E943926123008F053C01DC011
:102D5000ACEDB2E080E393E02C9124FF11C01B9610
:102D60002C911B97222309F463C40AC016962C9158
:102D70001697211167C417962C911797211162C4D9
:102D80001E968A179B0741F79ECF833099F51091C5
:102D9000AC021F5F8091C3018A3018F48F5F80936B
:102DA000C30186E0809300011093AC02612F82EB97
:102DB00090E00E94EB2E133308F453C481EB90E0B3
:102DC0000E94DD2E873008F04AC411E0180F612FF1
:102DD00081EB90E00E94EB2E612F86EB90E00E9449
:102DE000EB2E0E94982681E18093C5018EE295E04A
:102DF0000E94891D8091720780FF09C080916E0733
:102E0000882309F464C1F12C6DE0E62E86C00CED38
:102E100012E0D8018C9184FF54C016968C911697BD
:102E200012964D915C911397480F511D87FD5A954D
:102E300013965C934E93129717968C91179714964E
:102E40002D913C911597F901E80FF11D87FDFA9539
:102E50001596FC93EE9314972091BD0130E080917C
:102E6000C6019091C701281B390B8091BE01A0912A
:102E7000C801B091C901790162E0E60EF11CBA0106
:102E8000685F7F4FE616F706E4F44E5F5F4FB901C7
:102E9000685F7F4F46175707A4F490E08A1B9B0B8F
:102EA000AC014E5F5F4F9F01285F3F4F42175307B2
:102EB00044F42650310908962817390714F40E9463
:102EC0003C29025F1F4F83E00033180709F0A1CFB0
:102ED00010E000E0612F802F0E94392699EF980FB3
:102EE000943030F441E0480F612F802F0E9460261B
:102EF0000F5F0C3179F71F5F103159F77FCF0F2D1E
:102F000010E06801CC0CDD1CF601E00FF11FEE5C57
:102F1000F84F8281811106C0F39480916E07F816F4
:102F200070F366C081508283803179F030F4813053
:102F300071F0883089F74FE04FC0883121F080323E
:102F400059F74CE049C04DE047C04EE045C0809184
:102F5000AF0290E0880F991F8C529D4FACEDB2E00C
:102F60005F01AF014F5F5F4F2C9124FF1BC0F50144
:102F70002081FAE02F9F9001112412966D917C918F
:102F800013976217730771F4FA012081FAE02F9FFB
:102F90009001112414966D917C9115976217730717
:102FA00009F461C31E9623E0A033B207E9F6F601E7
:102FB000E00FF11FEE5CF84F80813D85831306C062
:102FC00081814C85841302C00E943C290C0D1D1D7B
:102FD000F801EE5CF84F41E0618180810E9460263B
:102FE0009BCF0E94362780916E07882309F46FC01B
:102FF000809134078130A9F36AC0309174079091B1
:10300000750790959323243009F044C08091A20164
:1030100032FF32C08E3268F48932D0F083E884BD4A
:103020008FEF87BD81EF8093800080E480938800DC
:103030000BC0833388F483E884BD8FEF87BD81EFB5
:10304000809380001092880010928A008091A201E3
:103050008F5F8093A2013BC08091AC0297FF04C0B8
:10306000823310F48F5F05C094FF31C08B3178F14B
:1030700081508093AC022BC0882371F0833300F120
:10308000883218F082E0809300011092A201911121
:1030900017C01DC01092A2019923C9F02B3040F433
:1030A000293048F4273049F0283051F481E00DC030
:1030B000213169F005C082E008C08091C50105C0DA
:1030C000109275071092740785E08093000180913B
:1030D000A101811112C38091A20181110EC38091BF
:1030E000AD02811106C090910001953019F480E283
:1030F00001C080E093E894BD809587BD81EF809307
:1031000080001092880010928A00F7C263E0A61631
:1031100011F40C9432108CE00FCA662009F4EBC253
:10312000772019F064E081E004C0043029F46AE0FB
:1031300087E00E94DD1E46C866E085E0FACFC11434
:10314000D10441F4A401B501832D0E94DE25811133
:1031500083C0ABC2611003C071108BC00AC0A40150
:10316000B5016F5F7F4F842D0E94B8258111DACFA2
:1031700003C0CD2809F4BFC2B5016F5F7F4FA40122
:10318000842D0E94DE258111CDCF1092BF011092B7
:10319000CA01882309F4BCC98BE08093C4010FC025
:1031A00063E0D61295C08091C6019AE0199F800D08
:1031B00011248093BD016BEF8AEF0E94DD1E0E94F7
:1031C000E61EE5C9CD2879F4A401B301842D0E943F
:1031D000DE258823D1F266E085E00E94DD1E1BC05B
:1031E000CD2809F488C2652D812F0E943926182F19
:1031F000802F0E947428882309F47DC2B5016F5F77
:103200007F4FA401812F0E94DE25882309F4BDCFC2
:103210008BE08093C4010E94711C0C94E210811415
:10322000910411F5A501B601842D0E94DE258111BE
:1032300013C05EC2552009F45EC2662019F06FEF1C
:103240008CEF04C0043029F469EF86EF0E94DD1E84
:103250007CC866E085E0FACF8BE08093C40183EC04
:1032600091E00E94891D1FC2511024C2662009F4FA
:103270001FC21092C4013FC2892869F4A501B6019A
:10328000812F0E94DE25882309F47FCF66E085E048
:103290000E94DD1E0BC0A501B601812F0E94DE2514
:1032A000882309F472CF8BE08093C4010E94711CC3
:1032B0004CC8CC2019F187E08093C40123C9A70131
:1032C00055274F5F5F4F612F70E01FC06E2DFCC808
:1032D0008D2D0E947428811103C01092C40112C95F
:1032E000D11003C08BE08093C4018091C601AAE095
:1032F0001A9F800D11248093BD0161CFA70155272E
:103300004F5F5F4F612F70E08D2D0E94B82588239D
:1033100009F455CFE2CF0E94862E0E94862E2AE025
:1033200030E040E050E00E94212FDC01CB014496C8
:10333000A11DB11DF301808740E06F2D8D2D0E94EE
:10334000602662C9FA946F2D8D2D0E94392688233C
:1033500009F42FC17AC96FEF6F0D8D2D0E943926A8
:103360008F836F2DAA24A394AD0C8A2D0E94392639
:10337000582E6C2D8A2D0E943926482E6C2DCC2477
:10338000CA94CD0C8C2D0E943926382E6F2D8C2D91
:103390000E943926282E8091BD0190E02091C6011F
:1033A0003091C701821B930B2A853B85281B390B63
:1033B000C9012091BE0130E04091C8015091C9017E
:1033C000241B350B021B130BD30119962C91199753
:1033D0002223D1F01F922F923F92892CA42CC52C2E
:1033E000EF800B2D1D962C914F2D6D2DC3010E944A
:1033F000001FF3019185915091870F900F900F90CE
:10340000811128C9148561C097FF1FC010161106CD
:103410005CF491958195910908171907C4F18017FB
:103420009107BCF511E046C001151105A1F1919578
:1034300081959109119501951109801791076CF1FA
:103440000817190764F515E035C00097C9F0101684
:10345000110644F40817190724F1801791071CF589
:103460001FE028C00115110501F111950195110901
:1034700080179107E4F008171907DCF41BE01AC065
:10348000111F1127111F110F110F110F13C013E07E
:1034900011C012E00FC014E00DC017E00BC016E021
:1034A00009C01DE007C01EE005C01CE003C019E014
:1034B00001C01AE0EDEFE10FEC3020F4F0E0EF5E38
:1034C000FE4FE080D3011D96EC92F30180858823A6
:1034D00089F09FEF990D923068F4B1100BC08150C4
:1034E000D30118968C93811105C046E06F2D8D2D68
:1034F0000E946026B1E0BF932F923F92892CA42CAA
:10350000C52CEF800B2D212F4F2D6D2DC3010E9457
:10351000001F0F900F900F9081119CC8F12E08E0B2
:10352000D02E112311F0115001C01FE0E1E0EF9304
:103530002F923F92892CA42CC52CEF800B2D212F8C
:1035400049856885C3010E94001F0F900F900F905E
:10355000882339F0D3011A968C918B3009F07AC800
:103560001EC0BFE0FB1611F0F39401C0F12CE1E0A6
:10357000EF932F923F92892CA42CC52CEF800B2D1A
:103580002F2D49856885C3010E94001F0F900F9061
:103590000F908111DFCFDA94D110C3CFDBCF892D0B
:1035A0000E947D28882309F455C8D30117961C92E0
:1035B00051C8F301108646E06F2D8D2D0E946026C4
:1035C00044C8EFEFD7011A96EC931A97FEEF1696C0
:1035D000FC9308C081E0D7011A968C931A97E2E019
:1035E0001696EC9300E04CE753E064C935EB832E6C
:1035F00033E0932E4CEE53E090E00FC02BEC822E84
:1036000023E0922E46E054E090E010C096EA892E26
:1036100093E0992E4BED53E092E380E0DEC984EC19
:10362000882E83E0982E4EEF53E092E38BE7D5C9C6
:103630001A96EC911A9723EF2E0F233008F096CBB1
:10364000E45F05C02CE02E0F2C3128F4E22FF0E0CF
:10365000EE5EFA4FE4911A96EC931A9791CB82E1C1
:10366000C3CB89E0C1CBFC0160812181FAE06F9F6F
:10367000B001112413967C936E9312976AE0269FF3
:103680009001112415963C932E9314971A96EC9260
:103690001A971B961C921B9716961C9216971796B4
:1036A0001C9217977FCC81E070CD61103BCD54CD3B
:1036B000892809F1672D812F0E943926182F802F24
:1036C0000E947428882349F0A501B6016150710950
:1036D000812F0E94B8258111B2CDB60161507109C8
:1036E000A501812F0E94DE25882309F44ECDA7CDA8
:1036F0005110A5CDBBCD80E048CD2D960FB6F894E6
:10370000DEBF0FBECDBFDF91CF911F910F91FF9014
:10371000EF90DF90CF90BF90AF909F908F907F9071
:103720006F905F904F903F902F900895CF92DF92CF
:10373000EF92FF920F931F93CF93DF936C017A0167
:103740008B01C0E0D0E0CE15DF0581F0D8016D918E
:103750008D01D601ED91FC910190F081E02DC60123
:103760000995892B11F02196EECF7E01C701DF91DB
:10377000CF911F910F91FF90EF90DF90CF90089520
:103780008091AC01E091AA01F091AB01882349F04E
:10379000CF0102969093AB018093AA0185919491F9
:1037A0000895CF0102969093AB018093AA01808186
:1037B000918108958091A30108950895089580E06E
:1037C00090E00895FC012285261714F0421714F4A6
:1037D000FC01628708950E94962FBF92CF92DF92DC
:1037E000EF92FF920F931F93CF93DF93FC016683B9
:1037F0004783862F880F880F860F382F3F70942FAE
:10380000990F990F940F50E19502C0011124832B59
:10381000818367FF02C08CE003C0662311F084E05F
:10382000848747FF02C0148604C0442311F088E057
:103830008487222309F44BC08185811148C0EF01A0
:103840008485811134C01D868A819B812AE030E005
:10385000B9010E94272E162F8C819D81B9010E94EB
:10386000272EFF24FA94F60E00E0CC24CA94C10E51
:10387000BB24B394B10EDF2CD01A6D2D812F0E9482
:103880003926833091F46D2D8C2D0E943926E82E37
:103890006D2D8B2D0E9439260F5F9DEF9E0D92306E
:1038A00020F09DEF980F923060F4098710C00E94BD
:1038B000862E26E030E040E050E00E94212F69870C
:1038C00006C08111D8CF81508330A8F6EECFDF91AA
:1038D000CF911F910F91FF90EF90DF90CF90BF900D
:1038E0000895E1E7F0E080818D7F80831092910060
:1038F000469847981092A9010895CF92DF92EF92CF
:10390000FF920F931F93CF93DF930E94C01B8115EB
:1039100020E8920751F4DF91CF911F910F91FF9012
:10392000EF90DF90CF900C94711C21E02093A901BF
:10393000813020E8920751F48091A7019091A8016D
:103940009093AB018093AA010E94C01B97FD05C014
:103950002091A601222309F440C02091A501211144
:103960003CC021E02093AD01EC01DF77209769F4A2
:1039700081E08093AE0146983FE9C32E3FE0D32E0D
:10398000E12CF12CCAEFD0E014C08E0120E030E031
:1039900060E472E48FE090E0A90198010E94212F79
:1039A00069017A0181E0C81AD108E108F108109292
:1039B000AE01E0913007F09131070995811103C004
:1039C00081E08093AE018091AD01882309F43FC06E
:1039D0008091AE0181113BC003C01092AD01C4CFF4
:1039E000469935C0479A0E94C01B009771F09C0110
:1039F000DE010E94752FDC01CB0129E0B595A7956A
:103A0000979587952A95D1F703C08FEF9FEFDC013B
:103A1000109290002AE020939100D0929900C092D9
:103A200098008093AF019093B001A093B101B0933F
:103A3000B20180917100826080937100DF91CF911B
:103A40001F910F91FF90EF90DF90CF9008954798CE
:103A5000CACF1F920F920FB60F9211242F933F934C
:103A60004F935F936F937F938F939F93AF93BF9386
:103A7000EF93FF938091AF019091B001A091B101BC
:103A8000B091B201892B8A2B8B2B81F18091AE01F1
:103A900081110BC098B180E4892788B98091AD016C
:103AA000882319F088B1805888B98091AF0190912E
:103AB000B001A091B101B091B201181619061A0611
:103AC0001B06B4F48091AF019091B001A091B101B7
:103AD000B091B2010197A109B1098093AF01909310
:103AE000B001A093B101B093B20102C00E947D1C4D
:103AF000FF91EF91BF91AF919F918F917F916F91C6
:103B00005F914F913F912F910F900FBE0F901F909B
:103B100018959C01E1E7F0E090819D7F908381E022
:103B20008093AC013093AB012093AA013093A8019C
:103B30002093A7010C947D1C4F925F926F927F920D
:103B40008F929F92AF92BF92CF92DF92EF92FF92AD
:103B50000F931F93CF93DF9300D000D0CDB7DEB784
:103B6000DC014115510509F4D8C0FA01F4903196F1
:103B700094914E5F5F4FCF2CD12C2223D9F0E1E0FE
:103B8000F0E0892F877011F4E0E0F0E0892F86954E
:103B900086958695E80FF11DEC9D8001ED9D100D39
:103BA000FC9D100D1124209FF001219FF00D112488
:103BB0004E0F5F1FF601EA0FFB1F1E161F060CF0CB
:103BC000ACC0A038B1050CF0A8C09B01290F311D75
:103BD000121613060CF0A1C0603471050CF09DC0E4
:103BE0004115510509F499C0062F0770B02E9B01AD
:103BF00077FF02C0295F3F4F83E0359527958A956F
:103C0000E1F7822F77FF04C0BB2011F08FEF820F06
:103C1000B7FF05C0222733272A1B3B0B02C020E039
:103C200030E0E038F10524F070E87A1B672E01C01F
:103C30006F2C621A082F082E000C110B8F3F1CF4FA
:103C4000F02FF09501C0F0E0EE24E394692F677047
:103C500009F4E12CE92FE695E695E6959E2D9E0F59
:103C6000090F111D0930110514F098E0981B6F2FF2
:103C7000680F8901FF9E000D111D1124400F511F77
:103C800001E010E00B2C02C0000F111F0A94E2F7B4
:103C9000EFEFE09F7001E19FF00C1124E094F094AD
:103CA000FC82EB82AC8070E86703A00DB11D11248B
:103CB0002A0F3B1F205D3C4F992E980E961669F1F6
:103CC000D9012A01842D841B861508F5F201849000
:103CD000809EC001819E900D11249A83898367FD87
:103CE00004C09C919E21892B8C93BB2059F0673096
:103CF0004CF4CD0180589F4FFC0180808A207A804F
:103D000087288082FFEF4F1A5F0A1196DBCF6F5F23
:103D10004C0D5D1D20583F4FD1CF0F900F900F904D
:103D20000F90DF91CF911F910F91FF90EF90DF9057
:103D3000CF90BF90AF909F908F907F906F905F904B
:103D40004F900895BC0180E090E00C942D248FB139
:103D50008095807F669B88601C9B84600895803876
:103D60009105B8F460347105A0F490E121E061FDA3
:103D700024E060FD220F62FD2295687F969FD001AE
:103D80001124A80FA05DBC4F8C91822B40FF82278D
:103D90008C9308958091BE0190E02091C8013091EC
:103DA000C901821B930B6AE070E00E94132E9C01F4
:103DB00081E0232B09F080E008959091C4019817C9
:103DC00014F0691714F48093C40108951092BF0190
:103DD0001092CA0182E08093C0011092CB018091C1
:103DE000BE01873160F08091C8019091C901893985
:103DF0009F4F2CF01092C0018EEF8093CB0108955D
:103E00003F924F925F926F927F928F929F92AF926A
:103E1000BF92CF92DF92EF92FF920F931F93CF93B7
:103E2000DF93CDB7DEB7142F902E3C88BE8830E0EC
:103E30002031310508F028C1082D7E2D462E3C0189
:103E4000F901E658FF4F0C94902FEE2029F07350A3
:103E5000723010F010E001C011E046EF60E0C301E5
:103E60000E94C42693E099120FC1112309F40CC1DA
:103E700081110AC146E065E0C3010E94E21B2B2DBF
:103E80004EEF60E0C3010E94ED1B0FC140E06AE00D
:103E90000E94C42691E0D82ED926E12EF12CEFEF16
:103EA000EE1AFE0A512CA701B201882D0E940D26A0
:103EB000382EB2016F5F7F4FA7018A2D0E940D2619
:103EC000F82E8C2D0E947428182F8A2D0E947D2890
:103ED000F4E0CF1205C0DD2019F04AE067E00DC024
:103EE00094E0991211C01123C9F0882309F4D0C0BD
:103EF000DD2009F4D4C044E061E0C3010E94E21B6C
:103F00002B2D40E062E099C0E3E09E1207C0112330
:103F100029F0DD2019F046E065E0EFCF311093C0C5
:103F2000882321F0112309F4AFC006C0112309F43E
:103F3000ABC0FF2009F4A8C0DD2009F4A5C0DBCF89
:103F40004AE060E00E94C42691E0F82EF926412F55
:103F500050E04F5F5F4F642D70E0882D0E940D266A
:103F6000033061F4FF2009F48FC04BEF6AEFC30107
:103F70000E94E21B2B2D42E060E05FC0882309F421
:103F800083C0FF2009F480C08BE0F30182872B2DD2
:103F900042E060E0C3010E94ED1B0750093008F0C9
:103FA00075C08FE1F301838771C040E066EF0E9426
:103FB000C42691E0582E5926E12EF12CFFEFEF1A7E
:103FC000FF0AC42CD12CA701B601882D0E940D2612
:103FD000A82EB60161507109A701832D0E940D26FC
:103FE000F82E8D890E947428182F832D0E947D2819
:103FF0009D89943029F4552019F049EF66EF17C0D8
:10400000E4E09E120BC01123E1F0882309F444C0C0
:10401000552009F447C04FEF6CEF09C0F3E09F1241
:1040200010C0112371F0552061F046E065E0C30136
:104030000E94E21B2B2D40E06EEFC3010E94ED1B9E
:1040400025C0AA20A1F08BE0F30182872B2D42E04E
:1040500060E0C3010E94ED1B07500930B8F48FE106
:10406000F301838788EE9CE10E94891D0FC088239D
:1040700029F0112349F0552039F0CDCF112321F03B
:10408000FF2011F05110B9CF10E00FC011E00DC0AA
:10409000332009F44ECFD7CFAA2091F3D4CF3320C9
:1040A00099F3D1CFAA2081F3CECF812FDF91CF9189
:1040B0001F910F91FF90EF90DF90CF90BF90AF9046
:1040C0009F908F907F906F905F904F903F9008955A
:1040D000CF93DF931F92CDB7DEB76983DC01ED91FB
:1040E000FC910280F381E02D41E050E0BE016F5F62
:1040F0007F4F09950F90DF91CF91089583E08093D2
:10410000E9008091F200882319F08AE38093E800A7
:104110000895FC018485958597FD0BC09FB7F894A1
:1041200082E08093E9008091F2009FBF90E00196C9
:1041300008959FB7F89482E08093E9008091F2009F
:104140009FBF90E008954091B6015091B701209132
:10415000B4013091B50142175307B4F49091E800CF
:104160009570E1F39091E80092FD19C08093F10001
:104170008091B6019091B70101968F739927892B91
:1041800019F48EEF8093E8008091B6019091B70109
:1041900001969093B7018093B60181E0089580E085
:1041A0000895DF92EF92FF920F931F93CF93DF93C7
:1041B000D82E8A017B01E40EF51EEB01CE15DF053A
:1041C00071F0D7FE03C0FE01849101C088810E9476
:1041D000A32021968111F2CF8FEF9FEF01C0C8017C
:1041E000DF91CF911F910F91FF90EF90DF90089595
:1041F000615030F02091F100FC0120830196F8CF4E
:10420000289884E68093BB0108950E948D2790E052
:1042100008950F931F93CF93DF931F92CDB7DEB70F
:104220008C01FC018485958597FF0EC0CE01019617
:104230000E945F27019719F4898190E002C08FEFF7
:104240009FEFF80195878487F801848595850F9005
:10425000DF91CF911F910F910895CF93DF931F921C
:10426000CDB7DEB7FC018485958597FD05C02FEF9E
:104270003FEF358724870BC0CE0101960E945F2750
:10428000019719F4898190E002C08FEF9FEF0F90A2
:10429000DF91CF9108950F931F93CF93DF931F92D8
:1042A000CDB7DEB782E0898342E450E066EF7CE17F
:1042B00080E80E94D1200E942428DC0112960D91F2
:1042C0001C9113970115110589F0D801ED91FC910E
:1042D0000280F381E02DBE016F5F7F4FC801099519
:1042E00097FD04C0F80100851185ECCF89810F90FE
:1042F000DF91CF911F910F9108951F920F920FB6EA
:104300000F9211248F939F938091E1009091E1008F
:10431000937F9093E10083FF0FC01092E90091E03A
:104320009093EB001092EC0092E39093ED001092CA
:10433000BC0198E09093F00082FF20C093E090933E
:10434000E9009091F200992319F09AE39093E80024
:104350009091B901992339F09091B90191509093BE
:10436000B901992389F19091BB01992339F090917A
:10437000BB0191509093BB01992341F184FF10C080
:104380008091E2008E7E81608093E2008091E10066
:104390008F7E8093E1008091BA018E7E806111C092
:1043A00080FF16C08091E2008E7E80618093E200E3
:1043B0008091E1008E7E8093E1008091BA018E7E33
:1043C00081608093BA0104C05D9ACDCF289AD6CF80
:1043D0009F918F910F900FBE0F901F9018951F9275
:1043E0000F920FB60F921124CF92DF92EF92FF92AD
:1043F0000F931F932F933F934F935F936F937F93ED
:104400008F939F93AF93BF93EF93FF93CF93DF93DC
:10441000CDB7DEB76C97DEBFCDBF1092E9008091BB
:10442000E80083FFFBC168E0CE0145960E94F820BA
:1044300082EF8093E8008D8987FF05C09091E800A6
:1044400090FFFCCF03C09EEF9093E800982F9076EA
:1044500009F0C6C09E894F89588D2F89F88C91111B
:104460000CC0803829F48091B3018093F10002C020
:104470001092F1001092F10045C1913051F4811178
:1044800041C14130510509F03DC18091B3018D7F9B
:104490000BC0933061F4811135C14130510509F0F1
:1044A00031C18091B30182608093B3012BC19530FB
:1044B00049F48091E80080FFFCCF822F80688093D0
:1044C000E30020C1963009F05EC00B8D1C8D22E008
:1044D0001092E9001092B7011092B601F21232C0A8
:1044E0001092B5011092B4010E944B2199E0BE01D7
:1044F0006F5F7F4FDB01E92F1D92EA95E9F7998302
:10450000FA8291E09E8390EA98879AEF99872091AA
:10451000B6013091B701275F3F4F3C832B838D83DA
:104520001092E9001092B7011092B6011093B501F4
:104530000093B40149E050E080E00E94D1200E9445
:104540004B21E0C01093B5010093B4010E942428D0
:10455000DC0112960D911C9113970115110509F4B8
:10456000BBC0D801ED91FC910480F581E02DBE0126
:104570006B5E7F4FC8010995009709F0C7C0F8012D
:1045800000851185EACF973009F445C1983021F4B0
:1045900081E08093F100B6C0993009F0B3C0837018
:1045A00009F039C1E1E8F1E081E031E096E32081F2
:1045B000211109C08EE78093EA001092EA008F89EA
:1045C0008093BC019FC08093E9003093EB00219160
:1045D0002093EC009093ED008F5F873041F7EACF96
:1045E0008B8D9C8D1092E9001092B7011092B6014C
:1045F0009093B5018093B401898D811153C08E8948
:104600009D89913A49F4813209F005C147E050E0B3
:1046100065E071E080E0BBC0913209F0FCC08332FC
:1046200069F48F89988DA0E0B0E0809301019093A8
:104630000201A0930301B093040164C0803269F4C5
:104640008091E80082FFFCCF67E085E091E00E9466
:10465000F8208BEF8093E80055C0823209F052C0F9
:104660008F8980930C01EEEFFFE7859194918B3F4A
:104670009C4D19F0E0E0F8E002C0EEEFFAE0809126
:10468000050190910601A0910701B0910801803BBE
:104690009440A105B10509F09EC080910C0180FFF6
:1046A00079C099C00E942428FC0102811381011560
:1046B000110509F4B0C0D801ED91FC910190F08191
:1046C000E02DBE016B5E7F4FC801099581111AC0B4
:1046D000F80100851185EBCFF1E0FF1609F44EC01B
:1046E000F3E0FF1298C08F89882309F44AC0823012
:1046F00089F440E867E08AE59DE10E94922D8823D5
:1047000009F489C08EEF8093E80088C01816190656
:10471000CCF381C0813029F440E86BE08EE49DE168
:10472000ECCF833009F077C00E942428DC01129678
:10473000ED90FC9013978E010F5F1F4F6801E114FD
:10474000F10479F0D701ED91FC910680F781E02D1D
:10475000B801C7010995080F111DF701E084F18424
:10476000EECFD8011C92F60101900020E9F73197B5
:10477000BF016C197D0940E0C601BFCF6CE37DE14C
:1047800002C068E37DE1FB01449150E080E80E94B3
:10479000D120B8CFEE3F2AE0F20751F0808191811D
:1047A0008737A7E79A0721F09093FF0A8093FE0AC4
:1047B00087E797E791838083809160008093B801B9
:1047C0009BE088E10FB6F894A895809360000FBE37
:1047D0009093600097CF808191818737974709F048
:1047E00091CFA8958091600088618093600080914E
:1047F000B80180936000EE3FBAE0FB0739F080918A
:10480000FE0A9091FF0A918380837CCF1092FF0A69
:104810001092FE0A77CF81E28093EB006C960FB680
:10482000F894DEBF0FBECDBFDF91CF91FF91EF9126
:10483000BF91AF919F918F917F916F915F914F91B8
:104840003F912F911F910F91FF90EF90DF90CF90AC
:104850000F900FBE0F901F9018958F929F92AF925E
:10486000BF92CF92DF92EF92FF926B017C010E9488
:10487000CD284B015C01C114D104E104F104F1F035
:104880000E94CD28DC01CB0188199909AA09BB092E
:10489000883E9340A105B10570F321E0C21AD1080A
:1048A000E108F10888EE880E83E0981EA11CB11C77
:1048B000C114D104E104F10419F7DDCFFF90EF90AA
:1048C000DF90CF90BF90AF909F908F9008952F92E0
:1048D0003F924F925F926F927F928F929F92AF9290
:1048E000BF92CF92DF92EF92FF920F931F93CF93DD
:1048F000DF93CDB7DEB72F970FB6F894DEBF0FBEAC
:10490000CDBF4C017B012C870D875A8349831C82C4
:104910001B821D821E8268E070E0CE0101960E941B
:1049200088281C019C012F5F3F4F3B872A8768E046
:1049300070E0CE0101960E9488288C0161E070E051
:10494000CE0101960E9488282A853B85280D391DB5
:1049500037FDF5C030E8831691040CF0F0C00F5F0E
:104960001F4F98012E0D3F1D37FDE9C040E4E416AE
:10497000F1040CF0E4C06701F7FE04C0CC24DD2490
:10498000CE18DF0857E0C522DD249701F7FE02C0EC
:10499000295F3F4F390123E0759467942A95E1F729
:1049A000F7FE09C091E0691A710828E030E0A9011A
:1049B0004C195D096A01980117FF02C0295F3F4F3A
:1049C000290193E0559447949A95E1F707701127D0
:1049D000012B19F05FEF451A550A0D85002311F0E0
:1049E000710102C0E12CF12C898701E010E0A12CBB
:1049F000B12C88E090E09C012C193D093F872E875F
:104A0000A414B5040CF09BC041E050E058874F83DC
:104A100061E070E0CE0101960E948828892B31F474
:104A20008F819885029698878F83F2CF6F817885E2
:104A3000CE0101960E948828DC01119640E050E0EA
:104A40004A175B0708F072C099859111102B000F6F
:104A500009F069C093012A0D3B1DC9010196099710
:104A600008F043C0C4018E0D9F1D80389105E8F504
:104A7000B9017695762F662777956795680D791D2C
:104A80006E0D7F1D2F3F0FEF300709F454C0812FAB
:104A90000C2C01C0880F0A94EAF7FB01E05DFC4F83
:104AA0000C85002319F09081892B03C0809590819B
:104AB00089238083C114D104C1F027303105A9F0C6
:104AC000812F90E00E8402C0959587950A94E2F7B5
:104AD000FB01E055FC4F2C85222319F01081812B1E
:104AE00003C080951081812380830D85011110C042
:104AF0002FEFE21AF20A8A859B85E816F9068CF0F8
:104B00009FEFA91AB90A01E010E0E12CF12C0BC0CB
:104B100001E0E01AF108F7FE04C02FEFA21AB20A72
:104B2000710101E010E04F5F5F4F8ACF398541E0AE
:104B30003427398765CFC114D10411F6D6CF2F960B
:104B40000FB6F894DEBF0FBECDBFDF91CF911F919E
:104B50000F91FF90EF90DF90CF90BF90AF909F901C
:104B60008F907F906F905F904F903F902F9008951F
:104B70008150833008F18AE0869F9001879F300D35
:104B80001124849FB001859F700D1124ECEDF2E09B
:104B9000808184FF0AC0828193818217930729F460
:104BA000848195818617970739F03E9683E0E0333C
:104BB000F80771F780E0089581E00895873028F4C0
:104BC000843038F5882329F126C0803120F58AE029
:104BD000869F9001879F300D1124849FB001859F8F
:104BE000700D1124ECEDF2E0808184FF0DC0828510
:104BF0008B3051F4828193818217930729F4848149
:104C000095818617970739F03E9683E0E033F807E1
:104C100059F781E0089580E00895853031F118F466
:104C2000882319F124C08750883008F58AE0869FD0
:104C30009001879F300D1124849FB001859F700DD6
:104C40001124ECEDF2E0808184FF0AC0828193811F
:104C50008217930729F4848195818617970739F085
:104C60003E9683E0E033F80771F781E0089580E035
:104C700008958C31F8F46F3FF9F06031F8F4982F13
:104C8000969570E080FD0BC080E1989F600D711DCE
:104C90001124FB01EA53FE4F8681829509C080E111
:104CA000989F600D711D1124FB01EA53FE4F868110
:104CB0008F70089581E0089580E0089582E008955E
:104CC000982F9695E62FF0E080FD0EC080E1989F2A
:104CD000E00DF11D1124EA53FE4F86818F7090E1A3
:104CE000499FA001112409C080E1989FE00DF11DAA
:104CF0001124EA53FE4F8681807F482B4683089516
:104D0000CF93DF9382EB90E00E94DD2E8093AC0284
:104D100083EB90E00E94DD2ECDEBD1E08E8384EB1F
:104D200090E00E94E52E9D838C83DF91CF910895C2
:104D30001F93CF93DF93C091AC026C2F82EB90E076
:104D40000E94EB2E6C2F87EB90E00E94EB2ECDEBB8
:104D5000D1E01E81612F83EB90E00E94EB2E612F4A
:104D600088EB90E00E94EB2E0C80DD81C02DBE010F
:104D700084EB90E00E94FD2EBE0189EB90E0DF9174
:104D8000CF911F910C94FD2EEF92FF920F931F93E2
:104D9000CF93DF93DC01ECEDF2E080E393E0062EAD
:104DA000000C770B042E000C550B208124FF1EC035
:104DB0002F703C913F702317C9F01181212F2F7064
:104DC000C281D381C20FD11D12962D913C911397B0
:104DD000260F371F7E010AE0E00EF11C2E153F055D
:104DE0002CF4265F3F4FC217D30734F03E968E1740
:104DF0009F07D9F680E019C012951F70C481D58134
:104E0000C10FD11D14962D913C911597240F351F7C
:104E10007E010AE0E00EF11C2E153F053CF7265FEF
:104E20003F4FC217D30714F781E0DF91CF911F9155
:104E30000F91FF90EF9008958091BE0190E0209136
:104E4000C8013091C901821B930B2AE030E0B901FF
:104E50000E94132E863020F0A901481B5109CA0177
:104E600021E005970CF020E0822F0895CF92DF9289
:104E7000EF9220916E07822F90E0FC01EE0FFF1F52
:104E80008E0F9F1FFC01EE5CF84FC080D180E28046
:104E90008FEF820F80936E07E2E3F7E090E09817C0
:104EA00040F42381348145812193319341939F5F65
:104EB000F6CF8E2DB601EF90DF90CF900895209120
:104EC000BC01211103C08FEF9FEF08955FB7F894E5
:104ED00022E02093E9002091F20030E01216130640
:104EE00014F421E030E0422FFC0184E6415038F018
:104EF00028988093BB019091F1009193F7CF2115F1
:104F0000310521F08091F200882319F05FBFC901BB
:104F100008958BE68093E800F9CF2FB7F89483E0EB
:104F20008093E9009091E800892F807295FF04C07A
:104F30009091F20080E4891B2FBF08958F929F9279
:104F4000AF92BF92CF92DF92EF92FF920F931F9397
:104F5000CF93DF936C017B018A0180910C01882340
:104F600009F45CC08091BC01882309F457C080918A
:104F7000BA0180FF05C08091E00082608093E0006C
:104F8000E801B12C8AEFA82E93E0892E2AE3922E15
:104F9000209711F4BB20D9F10E948D2781110AC0FE
:104FA000AA94AA20D9F161E070E080E090E00E942C
:104FB0002D24EECF282F30E0C217D3070CF48C2F0E
:104FC0009FB7F8948092E9002091E80025FF1DC06A
:104FD000282F30E0C21BD30BF701815020F0419104
:104FE0004093F100FACFE20EF31EBB2019F090922D
:104FF000E8000AC08091E80085FD07C09092E800B3
:10500000BB24B394209709F0B12C9FBFC1CF5D980A
:1050100084E68093B9011016110644F081E090E017
:10502000F6019383828380E090E001C0C801DF91A4
:10503000CF911F910F91FF90EF90DF90CF90BF9095
:10504000AF909F908F90089580917E0781110DC041
:1050500082E080937A0784E080937B0710927D073B
:1050600010927C0781E080937E078AE797E008959D
:10507000CF93DF93D82F8FEA90E00E94DD2EC82FC8
:1050800080EB90E00E94DD2ED11104C0CC3411F4ED
:10509000823539F16CE48FEA90E00E94EB2E62E5F4
:1050A00080EB90E00E94EB2E86EB90E00E94DD2EDC
:1050B000682F81EB90E00E94EB2E87EB90E00E943E
:1050C000DD2E682F82EB90E00E94EB2E88EB90E0C3
:1050D0000E94DD2E682F83EB90E0DF91CF910C943E
:1050E000EB2EDF91CF910895882329F083508D30E6
:1050F00010F080E0089581E00895813028F0843038
:1051000028F08750893010F080E0089581E00895FC
:105110001F93CF93DF93DC0120E030E040E050E0CC
:1051200011E0C1E0D0E02617370791F114968C9179
:105130001497811115C014961C93149712968D9193
:105140009C911397ED91FC911197E80FF91FE49151
:105150001596EC931597019613969C938E93129740
:1051600014969C91149715968C911597892349F064
:10517000FE01022E02C0EE0FFF1F0A94E2F74E2B33
:105180005F2B990F14969C9314972F5F3F4FCBCFB3
:10519000CA01DF91CF911F9108953FB7F894809194
:1051A000E9079091EA07A091EB07B091EC0726B5CB
:1051B000A89B05C02F3F19F00196A11DB11D3FBF4F
:1051C000BA2FA92F982F8827820F911DA11DB11DDD
:1051D000BC01CD0142E0660F771F881F991F4A95D9
:1051E000D1F708951F920F920FB60F9211242F93AB
:1051F0003F938F939F93AF93BF938091E4079091D8
:10520000E507A091E607B091E7073091E80723E0B2
:10521000230F2D3720F40196A11DB11D05C026E8EE
:10522000230F0296A11DB11D2093E8078093E40788
:105230009093E507A093E607B093E7078091E9070D
:105240009091EA07A091EB07B091EC070196A11DA0
:10525000B11D8093E9079093EA07A093EB07B09301
:10526000EC07BF91AF919F918F913F912F910F903C
:105270000FBE0F901F9018958091C30181508093AD
:10528000C30196E090930001811102C088E001C043
:105290008AE08093C50182E69DE10C94891DCF933D
:1052A000DF93CDB7DEB728970FB6F894DEBF0FBEF9
:1052B000CDBF789484B5826084BD84B5816084BD9F
:1052C00085B5826085BD85B5816085BD80916E00A4
:1052D000816080936E0010928100809181008260D5
:1052E0008093810080918100816080938100809112
:1052F0008000816080938000809191008260809323
:105300009100809191008160809391008091900044
:105310008160809390008091C10084608093C1007F
:105320008091C10082608093C1008091C100816042
:105330008093C1008091C30081608093C3008091FD
:10534000C00082608093C0008091C2008160809321
:10535000C20080917A00846080937A0080917A0004
:10536000826080937A0080917A00816080937A00D5
:1053700080917A00806880937A001092BC0110922C
:10538000B3011092BA018091D70081608093D70059
:1053900080EA8093D80089B5806189BD89B5826033
:1053A00089BD09B400FEFDCF61E070E080E090E0CF
:1053B0000E942D248091D8008F7C80618093D8003A
:1053C0008091E000807F8093E0008091E1008E7EFC
:1053D0008093E1008DE08093E200559A209A81EC61
:1053E00080937C0085B1806F85B984B1877E84B954
:1053F00084B1876E84B95E9A5F988AB1806D8AB9EC
:10540000769A6E9881B3806F81BB899880B38D70D6
:1054100080BB80E58CBD81E08DBD85E090E00E9481
:10542000A21E5F9A85E090E00E94A21E5E985C98A2
:10543000E8E2F9E184918EBD00000DB407FEFDCFD6
:10544000319649E1E533F407A9F75C9A81E8809346
:105450006400809165008160809365000E94A71EB2
:1054600087FF24C05C9885EA8EBD00000DB407FE5E
:10547000FDCF5C9A2E982F982D98809164008062C1
:105480008093640081E083BF889513BEFCCF2D9884
:105490000E94A71E8478843871F00E94A71E847130
:1054A000843129F188EC90E00E94A21E0E94A71E80
:1054B00082FDEDCF38C02D9A88EC90E00E94A21EAC
:1054C0002F9882E090E00E94DD2E8F3F29F06FEF51
:1054D00082E090E00E94032F84EF91E00E94A21EE0
:1054E0002F9A0E94A71E84788438D9F3D6CF2D9A9C
:1054F00088EC90E00E94A21E2E9882E090E00E942C
:10550000DD2E882329F060E082E090E00E94032FE6
:1055100084EF91E00E94A21E2E9A0E94A71E847121
:105520008431D9F3BFCF2D9A88E28093760780919A
:1055300064008E7F8093640080917A008064809301
:105540007A0080917A0086FDFCCF0091780010915E
:1055500079000E94CD2820E030E098011127002733
:10556000600F711F821F931F2091640021602093A0
:105570006400611571058105910511F00E94D42E1A
:1055800082E090E00E94DD2E882331F03E9A3F9A1F
:1055900081E08093A30104C01092A3013E983F983C
:1055A00080E00E9438280E94802684E18093BD011B
:1055B00083E28093BE011092C40181E08093C50113
:1055C00087E0EDE3F1E0DE01119601900D928A95FE
:1055D000E1F781EB90E00E94DD2E823040F4E1E0C3
:1055E000F0E0EC0FFD1FE80FF11D808103C0823059
:1055F00019F081E1809300012BE3222E312C38E950
:10560000432E55245A9447E6642E77247A94DD2459
:10561000D39497E0A92E8FB7F8944091E407509166
:10562000E5076091E6077091E7078FBF80917707E4
:10563000942F981B892F90917807992329F08093B4
:105640007907109278075CC290917607891740F429
:105650008F5F891708F054C2D3BE889513BE50C21D
:10566000D0927807409377078091720790917307E3
:1056700001969093730780937207809174078093CB
:1056800075070E94A71E8093740710910001812F57
:1056900090E0FC013197E131F10508F023C2E759B0
:1056A000FF4F0C94902F83EB90E00E94DD2E109121
:1056B000A401853009F02BC282EB90E00E94DD2E20
:1056C000813009F024C2612F660F660F160F185E35
:1056D000FF24F3944EEA5CE168E170E000E021E031
:1056E00086E290E00E946724612F70E021E042EEA4
:1056F0005CE18FE190E00E94672400E010E021E08F
:1057000043EF5AE160E070E0C8010E949C1D21E077
:1057100043EF5AE167E370E0C8010E949C1D065FF9
:105720001F4F0238110559F78091750780959091A8
:1057300074078923F11011C087FF07C09091A4015D
:10574000992319F091509093A40184FF06C0909181
:10575000A401911102C0D092A40183FFC3C1809122
:10576000A401882329F0813009F0BCC10E943828A7
:105770000E94802682E080930001B4C10E94711CC7
:1057800080916E07882319F00E943627F9CFE091A7
:10579000AC02F0E0EE0FFF1FE65EFE4F208131818C
:1057A000D092C401F9018491FAE08F9FC0011124C5
:1057B000F9013196E4914AE0E49FF00111248B3322
:1057C00091052CF41092C7011092C60116C0AC01CD
:1057D0004B5351094E35510558F44BE34093BD01ED
:1057E000B101681B790B7093C7016093C60107C0B4
:1057F0007092C7016092C60189598093BD01E7315B
:10580000F1052CF41092C9011092C80116C0CF0105
:1058100047978235910560F487E18093BE0187E167
:1058200090E08E1B9F0B9093C9018093C80107C025
:105830005092C9014092C801E856E093BE01F901B7
:1058400032961491ACEDB2E043E050E070E06C9120
:10585000607F672B6C9318961C9218977117E8F469
:10586000F901E40FF51FE4918AE0E89FF0011124AB
:105870001396FC93EE931297FA013196E20FF31F01
:105880004E5F5F4FE491FAE0EF9FC001112415963F
:105890009C938E93149760616C937F5F1E96763015
:1058A000B1F6CA010196F901E40FF51F5491509326
:1058B000AE02A0EBB2E010E0BF016E5F7F4F511768
:1058C00059F03196E491EC93FB01449111964C937D
:1058D00011971F5F1296F0CF850F911D850F911DB7
:1058E000A901480F591FA4EDB2E0FA0164916C932D
:1058F0003196E4911196EC9311974E5F5F4F12969B
:105900006CED72E06A177B0781F74C0179E0870E36
:10591000911CFC013896E20FF31FC490E2E0CE1612
:1059200021F000E010E040E067C0A6ECB1E07C01AF
:10593000F0EEEF0EF11C40E08D0160E070E04C01F4
:1059400059E0850E911CF401E60FF71FE20FF31FDB
:105950005491E52FF0E0689413F8F595E7951694C7
:10596000E1F7E63009F44F5FE52FEF70E63009F418
:105970004F5FF80156836F5F7F4F005F1F4F6E30A0
:10598000710509F711960E968E159F05A9F670C040
:10599000EE2309F46DC05FEF851A950ABF2EB2940D
:1059A000B0EFBB227801C11038C0C7016CE170E0D4
:1059B0000E94272E969587957727A4E0880F991F38
:1059C000AA95E1F78A539E4FDC01A60FB71F1696E2
:1059D0005C911697E0FC1EC05F705B2916965C9385
:1059E0008FEFE81AF80A8E2D801B8E17E0F2E15037
:1059F000F0E031960E0F1F1FF901E80DF91DE4913B
:105A0000FE2FF295F695F770EF71F63009F0C0CFE2
:105A10004E0FBECF507F5F2BE1CFB70184E076956C
:105A200067958A95E1F7562F56958E2D8F7090E0E9
:105A300060FD0EC060E1569F800D911D1124DC01B8
:105A4000AA53BE4F16968C9116978F708B290DC056
:105A500070E1579F800D911D1124DC01AA53BE4FA8
:105A600016968C911697807F8F2B16968C93B8CFB5
:105A70004093AD0283E08093000105C0A092000135
:105A800002C00E9498260E94F50E2CC088E0E4E433
:105A9000F1E0DE01119601900D928A95E1F700E0A8
:105AA00021E042E05AE164E170E083E190E00E948D
:105AB00067241A50FE013196E10FF11DE10FF11D2F
:105AC0004081518121E063E270E087E490E008C00A
:105AD00000E021E045E359E167E170E084E190E016
