:100000000C94C10E0C94E90E0C94E90E0C94E90EBC
:100010000C94E90E0C94E90E0C94E90E0C94E90E84
:100020000C94E90E0C94E90E0C9473210C94E521C8
:100030000C94E90E0C94E90E0C94E90E0C94E90E64
:100040000C94E90E0C94E90E0C94E90E0C94E90E54
:100050000C94E90E0C94E90E0C94E90E0C94E8282B
:100060000C94E90E0C94E90E0C94E90E0C94E90E34
:100070000C94E90E0C94E90E0C94E90E0C94E90E24
:100080000C941F1D0C94E90E0C94E90E0C94E90ECF
:100090000C94E90E0C94E90E0C94E90E0C94E90E04
:1000A0000C94E90E0C94E90E0C94E90ECA13FB13A0
:1000B000FB13F413F413F013F013EC13EC13E81325
:1000C000E813E013E013E413E413E013E013E41384
:1000D000E413492BB42B392D392D392D342D392DDD
:1000E000392D372D392D3C2D3C2D3C2D682D682D7B
:1000F000682D5E2D1B1F1B1F1B1F3C1F3C1F3C1F21
:10010000961F961F961F961F961FCB1FCB1FCB1FA8
:100110001B1F1B1F090FE8D2D9ED76BB4EC7B7DDF9
:100120006EB7DBED7636090FE8D3E974FCDBED76CC
:10013000BBDD6E6703090F109BCE6EB7DB753A36D9
:10014000090FB8B2E9145FD7ABCF85A2ED6CDB59CC
:1001500001090FBC92EE55A9A4D2AAAD53E4E9E877
:10016000B6B303090FF8B6CAF55FB9B5EBD436EEEE
:10017000ED6CDB5901090F38B39FEAB397770A4B4F
:10018000DBD9B6B302090FBC924EA5FAECE554CE0A
:10019000C9D9D3F9EC367A090FB8B29F6AA2745F55
:1001A000BB8E773B7B3A5A090F38972ACA6B998ED8
:1001B00039BD1D5B090F5CA73EF54D96DBF5B950C7
:1001C000B79D1D20064B000000190075054B00006F
:1001D00000190027054B000000190097044B000090
:1001E00000190017044B0000001900B8074B00006D
:1001F000001900E0064B000000190010034B00003E
:10020000001900BA024B000000190093024B0000D5
:100210000019004B024B00000019000B024B0000BC
:10022000001900DC034B000000190070034B0000B4
:1002300000190088014B00000019005D014B00000F
:100240000019004A014B000000190026014B000074
:1002500000190006014B0000001900EE014B0000E0
:10026000001900B8014B0000001900C4004B000049
:10027000001900AF004B0000001900A5004B000062
:1002800000190093004B000000190083004B000090
:10029000001900F7004B0000001900DC004B0000C3
:1002A00000190062004B000000190057004B0000CD
:1002B00000190052004B000000190049004B0000DB
:1002C00000190041004B00000019007B004B0000AA
:1002D0000019006E004B000000190031004B0000B7
:1002E0000019002C004B000000190029004B0000F1
:1002F00000190025004B000000190021004B0000F0
:100300000019003E004B000000190037004B0000B0
:1003100000190000804B024B0000000F004B024B05
:100320000000000F004B024B0000000F0026014BA5
:10033000000080E0060F0017040F0027050F0000E3
:10034000800A081800600080002000400000006063
:1003500000900020000000000000008010002080BD
:100360000000800000200000000040090FA8D69D7A
:100370002BA2AC932A75BB08B3DBB106090F8876B4
:100380009D7A995DCBDA756AD46DD7B101090FB842
:10039000969F6AA274D7ABCFCDBC9D753B2B060749
:1003A000A8D2E9743A2E0407723A9D8E0A06077C99
:1003B0003A9D4E470704079D4BA7A303030788E513
:1003C000030792CC0407B8D2E99C5304077C3A9DFA
:1003D000760E0607DE6EB7DBED76070407A592768C
:1003E000BB5D010607B7DBED76BBDD020407A59216
:1003F0006ABBDD020307F8743A0307759A10040715
:10040000D476BB924A2A0407B7DBAD5452011507D4
:10041000A54E472555552A1595F3D99C2293AA2A0E
:10042000958A4AEA745C95032907522E95AA4A9543
:10043000E272AA9295755452E5B3924AAAAA542A36
:100440006EE552A9544E71399F4E392EA9AA52A970
:10045000A8A4AA64656B4A550A2907D369A9A2937F
:10046000AA9295ADA9F64A4DEF54252BEBB8944BC3
:10047000A5AA52A5B89CAA64651D552A25552A2A05
:10048000E9F24949A94A010E07A54E47E57C36A77E
:10049000C8A44EC75571011307522E95AA4A95E27A
:1004A000522E954AE51497D4E9A8A44AA552394595
:1004B00056390F07A5CB67B3924AAAAA542A2AE94C
:1004C000F249C9553904050E11110E00121F101200
:1004D0001915120A11150A06051F04171515090E1C
:1004E000151508011905030A15150A12150906192B
:1004F00007EA5455AA2AD59129974AA572159972E7
:10050000A9542AA7B8A4AA64656B2AA9AA52A9B8B3
:100510002A2EF4F5F9F6F7F8FBFAFFFCFDFE0002CF
:10052000030401060508090A070B0C0E0F008801D9
:10053000640000001400DC036400000014004B029F
:100540006400000028001704640000001400270560
:1005500064000000140020066400000028000080F1
:100560001A08040C050C0B030C170C0704000C00F4
:1005700014001B00040114011B010D04040C0D0CDC
:10058000180C000AC103C10FC103C1032261220379
:10059000C103C103C1E1022261220561052261227A
:1005A000022161210461066108610561066106613D
:1005B0000861036106610861086103610461086103
:1005C00008610183016104610661086105610661DA
:1005D00006610186016103610661018502610861AE
:1005E0000322036103C2036108610A6102220261FE
:1005F00008610C61066108610626AF26611B613C3B
:10060000000D03031403190B080E04050005010572
:1006100002050315030605180B090E001F0E50E115
:10062000456184610A420A6104610A4125613861B9
:100630000261026123042406236225612301220151
:100640002D612601612201C1210123012202220123
:100650002261210123012161220122012301C12301
:1006600001C10122612201C1012261220423012270
:1006700001C122012261276129A1296102210121F1
:10068000C101620F61226127016128612661226137
:1006900001C123036106226106612261086103C171
:1006A00002226103C102613D000D00040402170231
:1006B0000E0C0C0E05060009000C000E00160018AA
:1006C0000103020D0C0D0E001F0367016107610E8F
:1006D0006104620562014105C161C10461056203F3
:1006E00062014303C163C103610662016201450106
:1006F000C165C102610763014767826102C102C12E
:10070000026184630561042C046105C141C10321B8
:1007100001C106C10121046104C143C10221018854
:100720000121046104450221016106610121046186
:100730000543032101610661012104610361256113
:100740000121C1610661C121046103610561012CC0
:10075000046103610561026107610661036125624D
:100760002B62266100050E0406021304020B170E0D
:10077000020000000107021804020E160E00E11F1D
:100780000392236104C10A610A216122A124086144
:100790000A21610621086101C10161012201C10133
:1007A000216101C10161022101C10383612361272C
:1007B000612361022501C1026103610B612AA1610C
:1007C000036106C16103612202C10124A16101C16B
:1007D000216185226123612AA161236101C1016137
:1007E0000122610521896121C12161A122610122CA
:1007F00061C10161022105C103612361036101251A
:1008000061022103C101220261236103610122030C
:1008100061022101C10122046123610361012203FC
:1008200061022404C1016123610361013E00000EE5
:100830000413010A031809100B0304000401040245
:1008400014010B0315090F0B001F1F0B6125610518
:10085000C1612461216107612103216104216125B6
:10086000612561226126612361216104416101C129
:1008700002416101416102412101216102C1612105
:10088000610123416101412101416101416101C1D6
:100890004121012161012261216101C122416103E4
:1008A000C1416101416101210121012161012261F7
:1008B0002161012341610121012141610141610166
:1008C00042022161012261216103C14161014103B1
:1008D00061C121610122C101216102C16121612542
:1008E000612561A1216126612361C1618701C20186
:1008F0006104220541C16143610422432261422116
:10090000C105C14161036123012145216146614463
:10091000610361210122C60161C1056104614624B0
:10092000472B00040F021502110F031B001B011BB4
:1009300002140309050B0F120F0104C1210E6C03F1
:10094000C1210E810FC1210E8110C1210E8111C163
:10095000210E8112C12111C1210E8101C1210DC1C0
:10096000210BC12101810D6507C12101810D630AA0
:10097000C121810E620CC121810C6403C12461027A
:1009800081C123C101C12461A102C12501C123612B
:10099000A12102C122C12201C12261A12202C125DD
:1009A00001C12161A1230281C123C102C1A124E1AE
:1009B000E1E164090003080402000A050608140CBA
:1009C000010000030014010905150C00E103220ACF
:1009D0008C61250722610C612507226101214121DB
:1009E0004121412141214121612507226101C101AC
:1009F000C101C101C101C101C16122C1220722613E
:100A000021A121A121A121A121A121A1612501C112
:100A100005226121A121A121A121A121A121A16161
:100A20002E618C612E61034101410141014101416F
:100A3000610E610321A121A121A123612861286107
:100A400005A1236128610325612461A12361286137
:100A500022C10223612461A12361286124C10221F2
:100A6000610461A12309612602612461A12304C1FB
:100A700001C1026128612461A1356101C20161A146
:100A800023001107040A0112041A06070F0E1600AC
:100A9000160116020C0316030C040A050C050A06BF
:100AA0000C060A070C070A080A090B011A03150CA1
:100AB000080F0056E104421A4204612141224221FA
:100AC00061410C4204610761412141224221E1045C
:100AD00042012241610561E1612101210221874238
:100AE000C1036103C1E161E122012101412106C18C
:100AF0004204610361E161E12102210221074261B7
:100B000003610361E161E12101C12102210621426A
:100B10006103610361E141220222012105C12142F9
:100B20006144A12142E141052101210522426101E7
:100B300088418521012102C10321426105C1026171
:100B40000522012104234261026141A14361432145
:100B50006121022103C1210242610261410341611D
:100B60004102216124A121412101C10142610261AF
:100B70004103416141C10121610822436101C16119
:100B800041034161412542234124410002040309FC
:100B900001130117010700000001000211021202F7
:100BA0001402150208010F051906110E02000000BB
:100BB0000000000000000000000000000001000034
:100BC00001000000000000000004444446313011E0
:100BD00031100100113000300000013013103106D7
:100BE00010610030003000000010010310310010CF
:100BF0000030001111100001103100100100003010
:100C0000000000100061031061001044403000003B
:100C10000100001033301000010011111306100004
:100C20006100133100110050000003110000106139
:100C300003100100100100000310006100103100DA
:100C40001000010016000300001061031061003164
:100C50000016010003006100103100100030100187
:100C6000001003001061031001000030016010014A
:100C700003010010330000060030001000001300D4
:100C8000000031111111111111111110030D0E0479
:100C90000D020E02090E120E02070014000B0310C3
:100CA000030A0E110E0027E18CE12D6203810481FD
:100CB00003622B620521022105622962048101245D
:100CC0000181046227620481012601810462256298
:100CD000850128018562236204810124C2240181E7
:100CE00004622162062C0662216204810124C2246E
:100CF000018104622362048101280181046225626A
:100D0000048101260181046227620481012401819A
:100D1000046229620481048104622B620C622D62E8
:100D20000A623F2400080E0411010C050106060B9F
:100D30000A110012011302140315041605170618F0
:100D40000719081A080B010206170A100E001327CC
:100D50000289C10A260261076121618406266206B2
:100D600061A121A16101C161C10625628661A12144
:100D7000A1610123610624620661A121A161012311
:100D80006107236206650123610822612185014113
:100D9000A161A14101236109216122C102610141D7
:100DA000A161A14104610A6123C101610141A16105
:100DB000A141016182618A6124C1610141A161A1F6
:100DC0004101610E25610141A161A141016187617C
:100DD00022C12305610141A161A141016106614177
:100DE0002605610141A161A141016105614127051C
:100DF00061036103610561413F2400100E0304019A
:100E000017011B0E1101000D001A0001010D011A3E
:100E1000010D020D030D040D050D060D070D080D46
:100E2000090D0A0D0B0D0C03011801040E190E001B
:100E300041E11942E103C8E1C9044EE14E06C10196
:100E4000C10AC102C109416144074161450961C14B
:100E500001C10961C102C1084661410547614109FB
:100E6000C101C16109C102C161064161480341611B
:100E700049056102C101C1076102C102C1064A619F
:100E800041E14B614107C102C1016106C103C102D9
:100E9000610341614AE141614B03611B6103C1028E
:100EA000C108C103C1053C000D0604120002020C7A
:100EB0000E170F031B001B011B02110003020B0E78
:100EC000180F0200000000000000000000000000F9
:100ED00000111111111111111111111111111060C5
:100EE0000000001000000060010600000011131057
:100EF00013131111111101310113111113131313D4
:100F000010060001013101131111131310131011F8
:100F10001101013100030316131313131310010100
:100F200001310111131003131313131101010131C6
:100F30000130030313131313130061010131013155
:100F4000113111031313111111010131013003315A
:100F50001013131306000001013041111330041364
:100F6000131111111111013101300331101313004C
:100F70000000000001310131114410131111111151
:100F800011111131013003000003000000000000C6
:100F90000031011113111111111111111111111140
:100FA0000000030E0E0504010B030D08050E170EBD
:100FB0000A020007000D0013001900020107010DCD
:100FC000011301190105010A030E08060E0022E1B2
:100FD00024E125E125E125E12302C10DC103C1057D
:100FE000226128A124A12A61226121C108C108C16E
:100FF000032161226125A128A127612161226121AC
:101000000DC106216121612261216124A124A12554
:10101000A1226121612161226121612110216121CF
:1010200061216122612161216121C10BC101216125
:101030002161216122612161216123A122A123A1DA
:1010400025612161216122612161216103C108C102
:101050000361216121612261216123A12CA123610E
:1010600021612261216103C109C1066121612261FF
:1010700023A124A124A126A12361226107C10AC1C1
:1010800005613D0018020303021208060E020A0061
:101090000A0104021408070E190E001F1AC103C129
:1010A000034161410388056141234221014161C13E
:1010B0000A240261410741614104C10AC1614184BE
:1010C0000341614102248306624106C1416141023C
:1010D000C109C1026202C141234261412306612468
:1010E00001624121420441614107C1016121046261
:1010F0004187C16141032804624104C10241614149
:1011000003C108C10262410341234161418224823B
:10111000026122026241C10641614108C1016104CC
:101120006241220541614106250462096110614165
:1011300023412444234124422243000A040414018D
:1011400010021504090E0600001B0000011B01001F
:10115000020003170111021803030E01E1E1E1E1AE
:101160006B2103810B2103810321032103210381CF
:1011700001A1C121C121C1A1C1210121036101211D
:10118000032103210121028102A1C1A1C121C1A129
:10119000C1A1012102810421032103210281022135
:1011A000C1A1C1A1C121C1A101210281022103214B
:1011B0000321012102610C210181032B018102C164
:1011C000210B8103210128028102220121096101F1
:1011D000C12102210126018103210122C1210681B1
:1011E0000222012102A101240181022102A1012286
:1011F000C1210221018101C121012201A10221019C
:10120000C1210181022101A101C121012202210389
:1012100022C1210121A1C12502C1210221C1210236
:10122000660221012201280321C1A1026901C12115
:10123000012B0321016C022D036E000E0E040C0223
:10124000120307040A060302000F00180013020627
:1012500003030E180E00038201C10981C104C107F6
:1012600061022208610122032261056108C1036154
:10127000086102C101C16182062201C16103C1048A
:101280006224610261C1062261022203C10161057B
:10129000C10161220761062201610422016181010D
:1012A0008201C18361096104C10461022204C10396
:1012B000C1810361C102220461072202220161C1CE
:1012C00061220581026102C10B6122066101226176
:1012D000022203C1066106C1016105C1042201C1E8
:1012E0000461C104612261042207220361220361B7
:1012F0001B611B3C000201040908110F160C190A9E
:10130000131A001A011A021A031A041A051A0613EC
:10131000071A0713081A0813091A09130A130B13DB
:101320000C130D130E130F0B010808170C170301F4
:101330003105C12405210124016622C12241016435
:1013400001210264220224012201230121810221C0
:1013500002210145012281C1012102A101220122B4
:1013600001412181022102210122012201412101A9
:10137000624101C1410122C12201412142012102F8
:1013800021012201220141214201210221012201E8
:1013900022C14121012101C1412201220122014139
:1013A0002101210221420122012201412101214189
:1013B0000123014721C12141056542210123016526
:1013C000024123012103236103410221016401C180
:1013D000A104410221016527022102C10C210165FE
:1013E0002704210421036221046A0121062102212C
:1013F0000321012302692103210B210321E1E1E102
:10140000E1E1E1E1E1E1E1653100010F030A0903F6
:101410000D140D0E0100010101020103010401057B
:101420000106010701080109010A010B010C010D68
:101430000E031009050D160D0021E13BE198012274
:10144000E121432143214321422141612141832163
:101450006122E12104C104C103C1026103C1612110
:101460006122E1C1615461416122E1216121904128
:1014700001C161216122E1C161210150246122E1A8
:10148000216121014101CC03C121C16122E1C1617E
:101490002101412346214561236122E1216121117E
:1014A00061C121C16122E1C161214B22446121015D
:1014B000416122E12161920261216122E121422206
:1014C00042614221412142614661C16122E10761DD
:1014D0000142046105C1612161224321412344612C
:1014E000422141214222422161210D610C612100F2
:1014F000090E02030E140E010A0005011701050E64
:10150000160E00C384C3E1C38BC323042361230BE2
:1015100026042361230B260423612304C304260429
:1015200023612304230426042361230423042604C3
:1015300023612304230426042361230423042604B3
:1015400023612304230426C182C1236123C182C1F4
:1015500023C182C127C2246124C225C22E61310168
:101560002801610126012803260261022502260CBA
:1015700061113C0001060318060708120E070C0053
:101580000C010C020C030C040C050C0607061A06D1
:101590000F08160E002CE1012F8921042189210357
:1015A00021C1026102C1210621C1026102C12105DE
:1015B00021C1016101C1210821C1016101C12107CE
:1015C00021C161C1210A21C161C121092161210615
:1015D000452261210A216121064103C101416121A6
:1015E000062361216126A127612661036101610E45
:1015F000610662224121612E6121412561832161C1
:10160000218C216121066101C1210161012109C1F2
:1016100021016101210561C12101C161C1012107D0
:10162000C1210261022104612101C1216121C101A5
:10163000210361230361032101C1016101C1226111
:10164000C12162214161214121046102C1012C615A
:10165000026101C12D00150E0507040B04070A09DC
:101660000A0C0A020000000108040A04060A110A12
:1016700000E10E2DE102C105C1053B6102C10A3B3B
:101680006105C107C10D623B6108C10AC1073B6129
:1016900004C108C106C106623B6103C10DC1093B1B
:1016A0006103C106C106C106C102623B6105C10BEF
:1016B000C1093C000F0E0309010F010809021B00BC
:1016C0001B0108010E0119010709001F15C101C105
:1016D000E106612E0261240661012C02612561266A
:1016E0000221C122C122C12202612661270C612789
:1016F000612DA129046128C101C104C101C12501D5
:10170000C2016129A123A12D6112C12602610261DA
:10171000256125610281612402C1620261026102C8
:101720006102610261032302C16122610261C2613F
:10173000C261C261C261032102C1612461026125EB
:1017400061256104C1612661126128613B000B0FB4
:1017500004150104061409140F01090216010506F7
:101760001509150F0009611B6106C10B8402C10830
:101770004C62024711620985028501614461890852
:1017800061046113C10261210361046152210344B8
:1017900062196306C106C108410261014422446125
:1017A000012142214802610B610F6108C1026106FB
:1017B000C1086101614A0148066101611386610146
:1017C000611B00150D030F0B0B0D150F05130013F7
:1017D000011302130313040002100B0A0D140F026D
:1017E000121221000000000000002122111211221B
:1017F000110000000000000012211122000212104E
:1018000006000000600012000002310002112111E8
:101810002311200012012302312002122111230181
:10182000106020012300311000002112230012114A
:10183000106123003211600001221300000000112A
:101840002363312111100021130044444441223309
:101850003022121160012306000000012003300035
:101860000031100022122120000120032111223218
:101870001100000000000061200312122231211625
:1018800000000000611120030006003221115222E5
:101890002225111223113121112200000000000025
:1018A00000000321321112003112212211212211D4
:1018B0002221300060003000000000000000021211
:1018C0001B07B22E954A653BAD5D369D7754D265B8
:1018D000D3F9E894AB4A55A5AA721D977255A9AAE7
:1018E0005455AE031007B22E954A65E3723EA77CAD
:1018F000CA9129974AA552A99C220210079C72A955
:10190000542A95CA292EE9B2E9BCE352AE2A55956C
:10191000AACA75D5F08D14A1C881CFD9F1AF200026
:101920005717A38B2E2E47175D74D145175D74D1C1
:1019300045175D721F5D74D145175D74D145175D04
:10194000749129BAE8A28B2EBAE8A28B2EBAE8A22B
:101950008B2EBAE8A28B2EB98F2EB4499D4EC7A507
:101960005C2A954AA5728A2E5795AA4A55E51C9776
:1019700072A9542A954A491449974DE71D97725503
:10198000A9AA5455EEA24AE52A9BAD5C2A2AE75241
:10199000A9543624DDD7575595AA2A3559AE2A556C
:1019A00095AACA392AA9F2CAA525977255A9AA5497
:1019B00055AEA35485ACE8A28B2EBAE8A28B2EBA02
:1019C000E8A28B2EBAE8A28B2EBAE8A28B2EBAE838
:1019D000A28B2EBAE8A28B2EBAE8A28B2EBAE8A26E
:1019E0008B2EBAE8A28B2EBAE8A28B2E32591FA3F7
:1019F0008B2EA764E7D29DDCE7D28E2EB66D7ABA25
:101A0000D8B6E9E962DBA6A78B6D9B9E2EBAE86289
:101A1000DBA6A78B6D9B9E2E9B9E6D9BCFA6B7E9E9
:101A2000E972694717DB363D5D4EE96D3EBA6C7A67
:101A30009B8F2E7439974EC79C733A2E652B59C9CC
:101A4000CA756CD94A56B2728EAB9395AC64652355
:101A500053B69295AC5C872BE5D3E95CC7A57C3A7D
:101A60009D53648E4B91392E2BD3E99CE2CB391DCB
:101A700097B295AC64E53A2EE5D3D9C894AD642508
:101A80002BD7416FF7B5AB4AA952A9C97255A9AA7C
:101A90005455CE514995572E2DB994AB4A55A5AA08
:101AA000721D2C1B5D74D145175D74D145175D7493
:101AB000D1C594EB742EBAE8A28B2EBAE8A28B2E75
:101AC000BAE8A28B2EBAE8A28B2EBAE8A28B2EBA65
:101AD000E8A28B2EBAE8A28B2EBAE8A28B090A10D4
:101AE00000000000000000000000000000000000F6
:101AF00000000000EFEFE0EFEFEFEF0FEFEF01017D
:101B00000101010101000101FFFFFFFFFFFFFFFFD6
:101B1000FF00010101010101010101000000FF427C
:101B2000424242FF000000000300000000030000EA
:101B30000202020202020202020200000000000091
:101B400000000000EFAFE06FEFEFED0FEBEF0101F2
:101B500001010101010001010000B0B000B0B000BE
:101B6000000000000101000101000000EFEFE0EEC5
:101B7000EEEEEE0EEFEF01010101010101000101A6
:101B8000EEECE0E8E8EAE808ECEE01010101010111
:101B900001000101ECE0C0C088808000E0EC0101A0
:101BA0000101010101000101E080000008000100C5
:101BB00086E00101010101010100010100000000B6
:101BC0000000000000000000000000000000000015
:101BD000E08080000000000080E0010101010101BF
:101BE00001000101ECE0C0808080C000E0EC010158
:101BF0000101010101000101EFECE0E8E8E8E80C77
:101C0000ECEF01010101010101000101EFEFE0EE44
:101C1000EEEEEE0FEFEF0101010101010100010104
:101C20003F0FA5AA64656B2AA9AA52A9B83A55958F
:101C3000AA4A755CCEA7538E4BBA7C362BA9A4AAB0
:101C40004AA5E2562E95AA4A95E272AA9295755433
:101C5000D2E5B359492555552A15D2A5AA64656B15
:101C60002AA9AA52A9B83A5595AA4A755CE9B4546A
:101C7000F13955C9CA3A2AA92A59D99A2A9D962AC8
:101C80007EE552A9AA54292EA72A595947255D3E17
:101C90009B95545255A55221122C07EA5455AA2A55
:101CA000D571A5D352C5E754252BEBA8A4AA64652A
:101CB0006BAA745AAAF8954BA5AA52A5B89CAA6417
:101CC000651D9554F9ACA492AA2A954A010207A56C
:101CD000533609E0061E0000000A00E0061E000060
:101CE00080080B0002020201000904000001020248
:101CF000000005240010010524010101042402064E
:101D000005240600010705810310004009040100B5
:101D1000020A0000000705020240000007058302D6
:101D20004000000403090412010002EF02014041D7
:101D300023368000010102030141726475696E6FF0
:101D4000204C4C430041726475626F790020066438
:101D5000000000140027056400000014001704644C
:101D600000000028004B02640000001400DC036443
:101D700000000014008801640000002800008000BA
:101D8000BD2D11241FBECFEFDAE0DEBFCDBF11E0C5
:101D9000A0E0B1E0E6E2FFE502C005900D92A03AB6
:101DA000B107D9F727E0A0EAB1E001C01D92AD3E2E
:101DB000B207E1F71EE0C1ECDEE004C02197FE01AE
:101DC0000E94862FC03CD107C9F70E9445290C9478
:101DD000912F0C9400002F923F924F925F926F923E
:101DE0007F928F929F92AF92BF92CF92DF92EF92AB
:101DF000FF920F931F93CF93DF93CDB7DEB72D974D
:101E00000FB6F894DEBF0FBECDBF8091BD0190E04C
:101E10002091C6013091C701821B930B05962AE0E1
:101E200030E0B9010E94092E162F6D878091BE0106
:101E300090E04091C8015091C901841B950B059613
:101E4000B9010E94092E7B016C87809100018530C9
:101E500091F080917207909173076CE070E00E949E
:101E60001D2E892B09F0F6C39091A00181E08927EE
:101E70008093A001EFC3812F0E942F26082FD090BE
:101E80007407C0907507C094CD201092BF011092C6
:101E9000CA018091C4018B3021F01092C0011092D0
:101EA000CB016E2D812F0E942F26863079F58091EF
:101EB000C1019091C20149969093C2018093C101E2
:101EC00040E06E2D812F0E9456268091AD0288231E
:101ED00019F081508093AD028091AD02811112C042
:101EE000B12C8091AE02B81668F4EB2DF0E0EE0F45
:101EF000FF1FE055FD4F43E0618180810E9456261F
:101F0000B394EFCF83E393E00E947F1D8091A10102
:101F10009D2D9C709C3061F58F5F8093A101853170
:101F2000B0F18D3390F08D3391F51092A10183E8DB
:101F300084BD8FEF87BD81EF809380001092880071
:101F400010928A000E94322918C320E430E0A901CF
:101F5000481B5109CA01880F93E894BD9FEF97BDB4
:101F600091EF909380001092880080938A000FC0B8
:101F7000882369F083E884BD8FEF87BD81EF80936C
:101F800080001092880010928A001092A1018C2D7E
:101F900084709C2D9870C3FE2DC081112BC00E94AF
:101FA000C01E882309F454C08091BD0190E02091A7
:101FB000C6013091C701821B930B02966AE070E064
:101FC0000E94092E162FCC24CA94C60E6E2D8C2D7D
:101FD0000E942F26A82EBB24B394BE0C6B2D8C2DF3
:101FE0000E942F268130A1F58FEF8A0D823008F0F4
:101FF00094C22EC0882361F191112AC00E94C01E94
:10200000882331F18091BD0190E02091C60130918B
:10201000C701821B930B02966AE070E00E94092EB2
:10202000162FCC24C394C60E6E2D8C2D0E942F2605
:10203000A82EBB24B394BE0C6B2D8C2D0E942F2692
:10204000813031F48FEF8A0D823010F00C947C18BF
:10205000D6FECAC06E2D812F0E942F26082F809198
:10206000BD0190E02091C6013091C701821B930B06
:102070006AE070E00E94092E6C01892B19F481E05E
:10208000810F01C0812F6E2D0E942F26282E5524EE
:1020900053945E0CC114D10419F481E0810F01C086
:1020A000812F652D0E942F26482EC114D10419F0CE
:1020B0008FEF810F01C0812F652D0E942F26382EB2
:1020C000822D0E946A28682E470199245FEF851AA5
:1020D000950AA12EB12CA401B501832D0E94AE2535
:1020E000782E0E94C01E9091C4019B3089F48823F1
:1020F00011F40C94491B7110C1C064E0261621F044
:10210000043011F00C94491B68E087E00C94E3184C
:102110000E941227882341F08DEF800F823010F04B
:102120000C9495180C948318C114D10419F481E00F
:10213000810F01C0812F6E2D0E942F26782EC11491
:10214000D10419F481E0810F01C0812F652D0E9417
:102150002F26682E62E06E0DC114D10419F481E0BF
:10216000810F01C0812F0E942F26482E862D0E94AC
:102170006A28682E872D0E946A28882311F40C94FF
:10218000E618662011F40C94E61835018FEF681AF2
:10219000780AA401B301842D0E94AE25882311F48E
:1021A0000C94D81864E081E00E94D31E1092C40100
:1021B0008091C8019AE0E99E800D11248093BE01B0
:1021C0008091BD018C3310F482E0C2C02091C60121
:1021D0003091C70129363F4F24F01092BF018EEF96
:1021E000C3C087FFF1CF8AC1D5FEC4C06E2D812F39
:1021F0000E942F26082F8091BD0190E02091C601FA
:102200003091C701821B930B6AE070E00E94092E97
:102210004C01892B19F48FEF810F01C0812F6E2D96
:102220000E942F26382E772473947E0C81149104FB
:1022300019F081E0810F01C0812F672D0E942F26A8
:10224000482E832D0E946A28582E5701BB24BFEFC9
:10225000AB1ABB0AC12ED12CA501B601842D0E9458
:10226000AE25682E0E94C01E9091C4019B30B9F427
:10227000882311F40C94491B662031F01092C4019C
:102280000E94671C0C94711BE4E03E1621F00430A0
:1022900011F00C94491B69EF86EF0C943E190E94D3
:1022A0001227882331F08DEF800F823008F0ADC700
:1022B000B7C78114910419F48FEF810F01C0812FEA
:1022C0006E2D0E942F26082F8114910419F48FEF90
:1022D000810F01C0812F672D0E942F26782E62E08A
:1022E0006E0D8114910419F48FEF810F01C0812FBD
:1022F0000E942F26182F872D0E946A28782E802F63
:102300000E946A28882311F40C94711B772011F421
:102310000C94711BF1E0CF1AD108A501B601812FF1
:102320000E94AE25882309F49DC76FEF8CEF0E94B1
:10233000D31E1092C4018091C8012AE0E29E800D54
:1023400011248093BE018091BD018D3320F08EEF6A
:102350008093BF01D1C02091C6013091C70137FFE2
:1023600006C01092BF0182E08093CA01C7C08111EC
:10237000EECFC4C0D7FE85C08091BE0190E0209111
:10238000C8013091C901821B930B08966AE070E086
:102390000E94092E7B01B62E0E94C01ED82E8823D3
:1023A00019F06FEF6E0D01C06E2D812F0E942F2648
:1023B000C82EDD2019F0BB24B394BE0C6B2D812FE9
:1023C0000E942F269091C4019530A4F0973044F0DC
:1023D0009B3081F4043009F068C7D11062C765C72B
:1023E000DD2061F1033009F083C08FEF8C0D823066
:1023F00028F57EC00E94671C8091BD0190E020916D
:10240000C6013091C701821B930B2AE030E0B9016D
:102410000E94092E863020F0A901481B5109CA01EB
:1024200005970CF067C0033009F064C08FEF8C0D86
:10243000823008F45FC085E08093C4018091C601BA
:102440005AE0159F800D11248093BD011092BF01A9
:102450001092CA018091BE01883120F08EEF8093E6
:10246000C0014EC02091C8013091C90137FF06C09C
:102470001092C00182E08093CB017FC08111EECF2A
:102480007CC0D4FE40C08091BE0190E02091C80184
:102490003091C901821B930B08966AE070E00E949C
:1024A000092E7B01D62E0E94C01EC82E811104C7A2
:1024B0006FEF6E0D812F0E942F26B82ECC2019F0C1
:1024C000DD24D394DE0C6D2D812F0E942F26D82E73
:1024D0008091C4018B3009F059C6043009F4DFC67D
:1024E000CC2009F401C784EF8B0D843008F0FCC6C2
:1024F0000E94671C1092BF011092CA011092C00185
:102500001092CB013AC08091C001823009F4BBCF58
:102510008091CB018E3F89F5B6CF53E0A51609F423
:1025200097CD84EF8093C4011092BF011092CA012D
:1025300047E06B2D8C2D0E94562680916E078431CA
:1025400081F0E82FF0E09F01220F331FE20FF31F0D
:10255000EE5CF84FC082B1829CED92838F5F8093D6
:102560006E0780917407809375070E949D1E80936B
:10257000740785E193E00E947F1D8091720780FDC2
:1025800068CC1092DD021092EB021092F9021092C8
:10259000070310921503109223038CED682E82E03E
:1025A000782EF301808184FF4BC0828193816AE0A1
:1025B00070E00E941D2ED62E6887848195816AE086
:1025C00070E00E941D2EF62E69878D2D0E942F2609
:1025D000B82ECC24C394CF0C6C2D8D2D0E942F26A9
:1025E000982EF6E0BF1206C0D30118968C9188236E
:1025F00009F487C6F30182858D3014F52281338179
:102600003B872A87C9016AE070E00E941D2E892B52
:10261000B9F404811581C8016AE070E00E941D2EA2
:10262000892B71F4E384EE2009F48BC6D30118964C
:102630008C9181117DC6F301178283858150838738
:10264000BEE06B0E711CE0E36E16E3E07E0609F05F
:10265000A8CFFFCB809100018850833030F4809167
:102660000001833009F0C9C1CDC1C12CD12C812C0E
:10267000712CA12CB12CE090C601F090C701EA0C9E
:10268000FB1CC70109968938910528F50091C801FE
:102690001091C9010C0D1D1DC801099689349105C1
:1026A000D0F4682D872D0E942F26982E882339F08C
:1026B000282F4EED5AE1B801C7010E94921D29EF63
:1026C000290D243040F4B8016A50710941E453E007
:1026D000C7010E94921D7394FAE0AF0EB11C2CE169
:1026E0007212C9CF83943AE0C30ED11C40E1841228
:1026F000BFCF80910001853021F08091A001882317
:10270000F1F08091C401082F001F0027001F082E40
:10271000000C990B97FF03C0919581959109880F43
:10272000990BFC01E35EFE4F408151816091BE0137
:1027300070E08091BD0121E090E00E945D241CEDDD
:10274000A12E12E0B12E7501D7018C9184FFADC08E
:1027500012960D911C9113976090C6017090C7015D
:102760004301800E911E14968D919C911597C090F7
:10277000C801D090C901C80ED91E1B96EC914E2FEE
:1027800050E04331510508F088C0FA01EA5AFF4F82
:102790000C94862FF7018285082F001F0027001F49
:1027A000082E000C990B97FF03C091958195910914
:1027B000880F990BFC01E35EFE4F4081518170C090
:1027C000F1E08F1A910869C02FEF821A920A65C052
:1027D00032E0C31AD108FCC644E0C41AD10807C0CD
:1027E00056E0C51AD108F4C668E0C61AD10800E060
:1027F0004BE653E055C0AAE0CA1AD1089C012A5002
:102800003109F701358324831386C8016AE070E03B
:102810000E941D2E262EC9016AE070E00E941D2E26
:10282000462E55245A94520C852D0E942F268F83B4
:1028300033243394340C632D852D0E942F268887F2
:1028400055245394520C642D852D0E942F26482E1A
:10285000632D852D0E942F26582E8091BD0190E07A
:10286000861997098017910764F48F810E946A285E
:10287000882309F4A5C688850E947328811197C60C
:102880009FC6842D0E946A28882309F490C6852D4E
:102890000E947328811194C68AC600E04DE853E077
:1028A00021E0B601C4010E945D24FEE0EF0EF11CA0
:1028B00020E3E21623E0F20609F046CF4090BD0186
:1028C000512C8091C6019091C701481A590A609015
:1028D000BE01712C8091C8019091C901681A790AD2
:1028E000D5018C9184FF7FC012968D919C91139796
:1028F000F201E81BF90B14962D913C911597A30159
:10290000421B530B9A01C090BE014C2D50E0421B5C
:10291000530BE090BD01473F6FEF5607C4F42E2DD7
:1029200030E02E1B3F0B2F3FAFEF3A070CF454C69D
:102930002C3731050CF058C6E394EE1A8E2DBDEA03
:102940008B2EB3E09B2E43EE53E090E03AC045332C
:102950005105C4F02E2D30E02E1B3F0B2F3FBFEF53
:102960003B070CF449C62C3731050CF04EC6E394F6
:10297000EE1A8E2DAEE98A2EA3E09A2E42ED53E098
:1029800093E31FC0F12CEE1AFF0AECEFEE16EFEF07
:10299000FE064CF49C2D921BF0EC8F2EF3E09F2E44
:1029A00049EF53E030C6FCE7EF16F104E4F09C2D4C
:1029B000921BECEB8E2EE3E09E2E44EF53E08CE76F
:1029C00002C08F3F81F0C92ED12CE82EF12C00E0FF
:1029D00020E0B601C7010E945D2421E0A401B601F8
:1029E000C7010E945D242EE0A20EB11C30E3A316A5
:1029F00033E0B30609F074CF32CE873049F48091CA
:102A0000C50101C084E08093000100E010E067C0D0
:102A100098EF980F9330C8F78A3069F400E021E00E
:102A200049E554E069E170E08AE290E00E945D24AB
:102A300009E210E03BC0883029F400E021E048E2E0
:102A400054E02FC01091AC02812F64E60E947A2FCF
:102A5000082F282F45EC54E069E170E088E490E00D
:102A60000E94921D812F44E6049F801911246AE080
:102A70000E947A2F192F282F45EC54E069E170E06D
:102A80008DE490E00E94921D212F45EC54E069E115
:102A900070E082E590E00E94921D00E021E04EE0AF
:102AA00054E069E170E08BE290E0C0CF41E066E184
:102AB00070E0C8010E94A51E0E5F1F4F0935110569
:102AC000A9F709E210E041E060E270E0C8010E946D
:102AD000A51E0E5F1F4F09351105A9F796CF77E3A5
:102AE000E72EF12C40E0B701C8010E94A51E5FEF60
:102AF000E51AF50A60E4E616F104A1F70F5F1F4F2F
:102B00000038110561F700E010E041E068E370E093
:102B1000C8010E94A51E0E5F1F4F02381105A9F7BC
:102B20008091C1019091C201FE01319626E0DF0142
:102B30001D922A95E9F77F019E01295F3F4F0AE028
:102B400010E0B8010E941D2E8193CB012E173F0784
:102B5000C1F700E021E04FEE54E06AE370E080E06E
:102B600090E00E945D2406E310E0F70121917F01CF
:102B700045EC54E06AE370E0C8010E94921D0550E4
:102B800011090831110589F7F090C30100E021E037
:102B900042EB54E06AE370E080E490E00E945D2440
:102BA0001AE08F2D612F0E947A2F092F282F45ECD4
:102BB00054E06AE370E082E590E00E94921D202FCD
:102BC00045EC54E06AE370E087E590E00E94921DD6
:102BD00080910001853071F4F090AD0200E021E0B9
:102BE00047E954E06AE370E080E690E00E945D24EB
:102BF0008F2D1DC0F090AC0200E021E047E854E0CA
:102C00006AE370E080E690E00E945D2464E670E094
:102C10008F2D90E00E94092E262F082F45EC54E0BE
:102C20006AE370E081E790E00E94921D802F612F9F
:102C30000E947A2F192F282F45EC54E06AE370E0A8
:102C400086E790E00E94921D212F45EC54E06AE354
:102C500070E08BE790E00E94921D209100012530EA
:102C600009F0C1C1809172079091730780FD1CC06B
:102C70002091BF0121110CC02091C001211108C079
:102C80002091CA01211104C02091CB01222361F0BF
:102C90002091C401ECE0E20FEC3120F4F0E0EE5EB4
:102CA000FA4F24912093C40183709927892B09F44A
:102CB00045C02091BF018091BD01280F2093BD0127
:102CC0001091C0018091BE01180F1093BE01809138
:102CD000CA01E090C601F090C701E80EF11C87FD23
:102CE000FA94F092C701E092C6018091CB01409125
:102CF000C8015091C901480F511D87FD5A95509345
:102D0000C9014093C801812F90E0841B950B059663
:102D1000EAE0F0E0BF010E94092E362F822F90E0FA
:102D20008E199F090596BF010E94092E862F632FD9
:102D30000E942F26123008F053C01DC0ACEDB2E047
:102D400080E393E02C9124FF11C01B962C911B97DC
:102D5000222309F463C40AC016962C9116972111F8
:102D600067C417962C911797211162C41E968A1773
:102D70009B0741F79ECF833099F51091AC021F5FFE
:102D80008091C3018A3018F48F5F8093C30186E07D
:102D9000809300011093AC02612F82EB90E00E94BF
:102DA000E12E1C3408F453C481EB90E00E94D32E32
:102DB000873008F04AC411E0180F612F81EB90E0D2
:102DC0000E94E12E612F86EB90E00E94E12E0E948E
:102DD0008E2681E18093C5018EE295E00E947F1DE1
:102DE0008091720780FF09C080916E07882309F4E3
:102DF00064C1F12C6DE0E62E86C00CED12E0D80126
:102E00008C9184FF54C016968C91169712964D9112
:102E10005C911397480F511D87FD5A9513965C934B
:102E20004E93129717968C91179714962D913C916B
:102E30001597F901E80FF11D87FDFA951596FC939A
:102E4000EE9314972091BD0130E08091C6019091DE
:102E5000C701281B390B8091BE01A091C801B09118
:102E6000C901790162E0E60EF11CBA01685F7F4F8B
:102E7000E616F706E4F44E5F5F4FB901685F7F4FD7
:102E800046175707A4F490E08A1B9B0BAC014E5FDA
:102E90005F4F9F01285F3F4F4217530744F426506E
:102EA000310908962817390714F40E943229025F65
:102EB0001F4F83E00033180709F0A1CF10E000E0B6
:102EC000612F802F0E942F2699EF980F943030F4B5
:102ED00041E0480F612F802F0E9456260F5F0C3172
:102EE00079F71F5F103159F77FCF0F2D10E0680180
:102EF000CC0CDD1CF601E00FF11FEE5CF84F828177
:102F0000811106C0F39480916E07F81670F366C0C5
:102F100081508283803179F030F4813071F08830D3
:102F200089F74FE04FC0883121F0803259F74CE0EB
:102F300049C04DE047C04EE045C08091AF0290E0EF
:102F4000880F991F8C529D4FACEDB2E05F01AF012D
:102F50004F5F5F4F2C9124FF1BC0F5012081FAE0E9
:102F60002F9F9001112412966D917C9113976217F7
:102F7000730771F4FA012081FAE02F9F9001112468
:102F800014966D917C9115976217730709F461C3CC
:102F90001E9623E0A033B207E9F6F601E00FF11F19
:102FA000EE5CF84F80813D85831306C081814C859E
:102FB000841302C00E9432290C0D1D1DF801EE5C25
:102FC000F84F41E0618180810E9456269BCF0E948C
:102FD0002C2780916E07882309F46FC080913407F5
:102FE0008130A9F36AC0309174079091750790956C
:102FF0009323243009F044C08091A20132FF32C0F3
:103000008E3268F48932D0F083E884BD8FEF87BDBB
:1030100081EF8093800080E4809388000BC083332D
:1030200088F483E884BD8FEF87BD81EF80938000B3
:103030001092880010928A008091A2018F5F809385
:10304000A2013BC08091AC0297FF04C08B3410F406
:103050008F5F05C094FF31C0843378F18150809335
:10306000AC022BC0882371F0833300F1883218F052
:1030700082E0809300011092A201911117C01DC03F
:103080001092A2019923C9F02B3040F4293048F462
:10309000273049F0283051F481E00DC0213169F02A
:1030A00005C082E008C08091C50105C01092750777
:1030B0001092740785E0809300018091A101811135
:1030C00012C38091A20181110EC38091AD028111C2
:1030D00006C090910001953019F480E201C080E0B3
:1030E00093E894BD809587BD81EF80938000109216
:1030F000880010928A00F7C263E0A61611F40C94BF
:1031000028108CE00FCA662009F4EBC2772019F072
:1031100064E081E004C0043029F46AE087E00E94A2
:10312000D31E46C866E085E0FACFC114D10441F44D
:10313000A401B501832D0E94D425811183C0ABC2A7
:10314000611003C071108BC00AC0A401B5016F5F8C
:103150007F4F842D0E94AE258111DACF03C0CD2888
:1031600009F4BFC2B5016F5F7F4FA401842D0E9497
:10317000D4258111CDCF1092BF011092CA018823AE
:1031800009F4BCC98BE08093C4010FC063E0D61280
:1031900095C08091C6019AE0199F800D11248093FB
:1031A000BD016BEF8AEF0E94D31E0E94DC1EE5C9B1
:1031B000CD2879F4A401B301842D0E94D42588235D
:1031C000D1F266E085E00E94D31E1BC0CD2809F431
:1031D00088C2652D812F0E942F26182F802F0E94D4
:1031E0006A28882309F47DC2B5016F5F7F4FA4016F
:1031F000812F0E94D425882309F4BDCF8BE08093D2
:10320000C4010E94671C0C94D8108114910411F51C
:10321000A501B601842D0E94D425811113C05EC280
:10322000552009F45EC2662019F06FEF8CEF04C0E0
:10323000043029F469EF86EF0E94D31E7CC866E053
:1032400085E0FACF8BE08093C40183EC91E00E948B
:103250007F1D1FC2511024C2662009F41FC21092A4
:10326000C4013FC2892869F4A501B601812F0E94DB
:10327000D425882309F47FCF66E085E00E94D31E21
:103280000BC0A501B601812F0E94D425882309F423
:1032900072CF8BE08093C4010E94671C4CC8CC2085
:1032A00019F187E08093C40123C9A70155274F5F17
:1032B0005F4F612F70E01FC06E2DFCC88D2D0E94E6
:1032C0006A28811103C01092C40112C9D11003C031
:1032D0008BE08093C4018091C601AAE01A9F800D03
:1032E00011248093BD0161CFA70155274F5F5F4F28
:1032F000612F70E08D2D0E94AE25882309F455CFF3
:10330000E2CF0E947C2E0E947C2E2AE030E040E03A
:1033100050E00E94172FDC01CB014496A11DB11D86
:10332000F301808740E06F2D8D2D0E94562662C9E3
:10333000FA946F2D8D2D0E942F26882309F42FC11A
:103340007AC96FEF6F0D8D2D0E942F268F836F2D01
:10335000AA24A394AD0C8A2D0E942F26582E6C2DE2
:103360008A2D0E942F26482E6C2DCC24CA94CD0C79
:103370008C2D0E942F26382E6F2D8C2D0E942F26EB
:10338000282E8091BD0190E02091C6013091C701A7
:10339000821B930B2A853B85281B390BC901209181
:1033A000BE0130E04091C8015091C901241B350B8A
:1033B000021B130BD30119962C9119972223D1F0DC
:1033C0001F922F923F92892CA42CC52CEF800B2D9D
:1033D0001D962C914F2D6D2DC3010E94F61EF301F9
:1033E0009185915091870F900F900F90811128C96E
:1033F000148561C097FF1FC0101611065CF49195EB
:103400008195910908171907C4F180179107BCF538
:1034100011E046C001151105A1F191958195910921
:10342000119501951109801791076CF1081719077B
:1034300064F515E035C00097C9F01016110644F484
:103440000817190724F1801791071CF51FE028C001
:103450000115110501F111950195110980179107C9
:10346000E4F008171907DCF41BE01AC0111F11273C
:10347000111F110F110F110F13C013E011C012E033
:103480000FC014E00DC017E00BC016E009C01DE02E
:1034900007C01EE005C01CE003C019E001C01AE02F
:1034A000EDEFE10FEC3020F4F0E0EF5EFE4FE08056
:1034B000D3011D96EC92F3018085882389F09FEF5C
:1034C000990D923068F4B1100BC08150D301189659
:1034D0008C93811105C046E06F2D8D2D0E945626DC
:1034E000B1E0BF932F923F92892CA42CC52CEF8082
:1034F0000B2D212F4F2D6D2DC3010E94F61E0F9015
:103500000F900F9081119CC8F12E08E0D02E11234E
:1035100011F0115001C01FE0E1E0EF932F923F92B4
:10352000892CA42CC52CEF800B2D212F4985688573
:10353000C3010E94F61E0F900F900F90882339F060
:10354000D3011A968C918B3009F07AC81EC0BFE067
:10355000FB1611F0F39401C0F12CE1E0EF932F92F0
:103560003F92892CA42CC52CEF800B2D2F2D498543
:103570006885C3010E94F61E0F900F900F90811175
:10358000DFCFDA94D110C3CFDBCF892D0E9473280F
:10359000882309F455C8D30117961C9251C8F3012A
:1035A000108646E06F2D8D2D0E94562644C8EFEF01
:1035B000D7011A96EC931A97FEEF1696FC9308C063
:1035C00081E0D7011A968C931A97E2E01696EC9355
:1035D00000E04CE753E064C935EB832E33E0932ED3
:1035E0004CEE53E090E00FC02BEC822E23E0922EA5
:1035F00046E054E090E010C096EA892E93E0992EC0
:103600004BED53E092E380E0DEC984EC882E83E04A
:10361000982E4EEF53E092E38BE7D5C91A96EC91C2
:103620001A9723EF2E0F233008F096CBE45F05C0E6
:103630002CE02E0F2C3128F4E22FF0E0EE5EFA4F52
:10364000E4911A96EC931A9791CB82E1C3CB89E06F
:10365000C1CBFC0160812181FAE06F9FB001112490
:1036600013967C936E9312976AE0269F9001112423
:1036700015963C932E9314971A96EC921A971B96D4
:103680001C921B9716961C92169717961C921797CA
:103690007FCC81E070CD61103BCD54CD892809F1FC
:1036A000672D812F0E942F26182F802F0E946A28B5
:1036B000882349F0A501B60161507109812F0E944C
:1036C000AE258111B2CDB60161507109A501812FDE
:1036D0000E94D425882309F44ECDA7CD5110A5CD45
:1036E000BBCD80E048CD2D960FB6F894DEBF0FBE5F
:1036F000CDBFDF91CF911F910F91FF90EF90DF90A1
:10370000CF90BF90AF909F908F907F906F905F9081
:103710004F903F902F900895CF92DF92EF92FF92BB
:103720000F931F93CF93DF936C017A018B01C0E05D
:10373000D0E0CE15DF0581F0D8016D918D01D60165
:10374000ED91FC910190F081E02DC6010995892B46
:1037500011F02196EECF7E01C701DF91CF911F912D
:103760000F91FF90EF90DF90CF9008958091AC0182
:10377000E091AA01F091AB01882349F0CF010296B4
:103780009093AB018093AA01859194910895CF0104
:1037900002969093AB018093AA0180819181089554
:1037A0008091A30108950895089580E090E0089520
:1037B000FC012285261714F0421714F4FC016287DD
:1037C00008950E948C2FBF92CF92DF92EF92FF92CA
:1037D0000F931F93CF93DF93FC0166834783862F5C
:1037E000880F880F860F382F3F70942F990F990FED
:1037F000940F50E19502C0011124832B818367FF50
:1038000002C08CE003C0662311F084E0848747FF88
:1038100002C0148604C0442311F088E08487222368
:1038200009F44BC08185811148C0EF018485811165
:1038300034C01D868A819B812AE030E0B9010E9454
:103840001D2E162F8C819D81B9010E941D2EFF24F3
:10385000FA94F60E00E0CC24CA94C10EBB24B394B3
:10386000B10EDF2CD01A6D2D812F0E942F268330B0
:1038700091F46D2D8C2D0E942F26E82E6D2D8B2D11
:103880000E942F260F5F9DEF9E0D923020F09DEF3E
:10389000980F923060F4098710C00E947C2E26E0B9
:1038A00030E040E050E00E94172F698706C0811188
:1038B000D8CF81508330A8F6EECFDF91CF911F9102
:1038C0000F91FF90EF90DF90CF90BF900895E1E7C8
:1038D000F0E080818D7F8083109291004698479818
:1038E0001092A9010895CF92DF92EF92FF920F9369
:1038F0001F93CF93DF930E94B61B811520E8920798
:1039000051F4DF91CF911F910F91FF90EF90DF90D5
:10391000CF900C94671C21E02093A901813020E80E
:10392000920751F48091A7019091A8019093AB0167
:103930008093AA010E94B61B97FD05C02091A601A5
:10394000222309F440C02091A50121113CC021E0AF
:103950002093AD01EC01DF77209769F481E080933B
:10396000AE0146983FE9C32E3FE0D32EE12CF12C67
:10397000CAEFD0E014C08E0120E030E060E472E4D1
:103980008FE090E0A90198010E94172F69017A0148
:1039900081E0C81AD108E108F1081092AE01E09167
:1039A0003007F09131070995811103C081E08093C0
:1039B000AE018091AD01882309F43FC08091AE0132
:1039C00081113BC003C01092AD01C4CF469935C0F0
:1039D000479A0E94B61B009771F09C01DE010E947D
:1039E0006B2FDC01CB0129E0B595A79597958795BD
:1039F0002A95D1F703C08FEF9FEFDC011092900062
:103A00002AE020939100D0929900C0929800809370
:103A1000AF019093B001A093B101B093B201809136
:103A20007100826080937100DF91CF911F910F919F
:103A3000FF90EF90DF90CF9008954798CACF1F92E4
:103A40000F920FB60F9211242F933F934F935F93D2
:103A50006F937F938F939F93AF93BF93EF93FF9356
:103A60008091AF019091B001A091B101B091B201EC
:103A7000892B8A2B8B2B81F18091AE0181110BC098
:103A800098B180E4892788B98091AD01882319F025
:103A900088B1805888B98091AF019091B001A09110
:103AA000B101B091B201181619061A061B06B4F43A
:103AB0008091AF019091B001A091B101B091B2019C
:103AC0000197A109B1098093AF019093B001A09330
:103AD000B101B093B20102C00E94731CFF91EF913B
:103AE000BF91AF919F918F917F916F915F914F9116
:103AF0003F912F910F900FBE0F901F9018959C0132
:103B0000E1E7F0E090819D7F908381E08093AC01BC
:103B10003093AB012093AA013093A8012093A70111
:103B20000C94731C4F925F926F927F928F929F9230
:103B3000AF92BF92CF92DF92EF92FF920F931F93BB
:103B4000CF93DF9300D000D0CDB7DEB7DC014115B5
:103B5000510509F4D8C0FA01F490319694914E5F62
:103B60005F4FCF2CD12C2223D9F0E1E0F0E0892F58
:103B7000877011F4E0E0F0E0892F869586958695B0
:103B8000E80FF11DEC9D8001ED9D100DFC9D100DC9
:103B90001124209FF001219FF00D11244E0F5F1F73
:103BA000F601EA0FFB1F1E161F060CF0ACC0A03872
:103BB000B1050CF0A8C09B01290F311D1216130688
:103BC0000CF0A1C0603471050CF09DC04115510589
:103BD00009F499C0062F0770B02E9B0177FF02C031
:103BE000295F3F4F83E0359527958A95E1F7822F2E
:103BF00077FF04C0BB2011F08FEF820FB7FF05C025
:103C0000222733272A1B3B0B02C020E030E0E0389C
:103C1000F10524F070E87A1B672E01C06F2C621A40
:103C2000082F082E000C110B8F3F1CF4F02FF0957D
:103C300001C0F0E0EE24E394692F677009F4E12CF1
:103C4000E92FE695E695E6959E2D9E0F090F111D2D
:103C50000930110514F098E0981B6F2F680F890147
:103C6000FF9E000D111D1124400F511F01E010E0B7
:103C70000B2C02C0000F111F0A94E2F7EFEFE09F38
:103C80007001E19FF00C1124E094F094FC82EB822F
:103C9000AC8070E86703A00DB11D11242A0F3B1FF3
:103CA000205D3C4F992E980E961669F1D9012A0194
:103CB000842D841B861508F5F2018490809EC00136
:103CC000819E900D11249A83898367FD04C09C9185
:103CD0009E21892B8C93BB2059F067304CF4CD0189
:103CE00080589F4FFC0180808A207A8087288082BC
:103CF000FFEF4F1A5F0A1196DBCF6F5F4C0D5D1D12
:103D000020583F4FD1CF0F900F900F900F90DF9121
:103D1000CF911F910F91FF90EF90DF90CF90BF90C8
:103D2000AF909F908F907F906F905F904F9008958D
:103D3000BC0180E090E00C9423248FB18095807FBB
:103D4000669B88601C9B8460089580389105B8F458
:103D500060347105A0F490E121E061FD24E060FD94
:103D6000220F62FD2295687F969FD0011124A80F33
:103D7000A05DBC4F8C91822B40FF82278C930895CD
:103D80008091BE0190E02091C8013091C901821B51
:103D9000930B6AE070E00E94092E9C0181E0232BC6
:103DA00009F080E008959091C401981714F0691704
:103DB00014F48093C40108951092BF011092CA01B7
:103DC00082E08093C0011092CB018091BE018731C7
:103DD00060F08091C8019091C90189399F4F2CF002
:103DE0001092C0018EEF8093CB0108953F924F92C5
:103DF0005F926F927F928F929F92AF92BF92CF927B
:103E0000DF92EF92FF920F931F93CF93DF93CDB783
:103E1000DEB7142F902E3C88BE8830E0203131056B
:103E200008F028C1082D7E2D462E3C01F901E658E8
:103E3000FF4F0C94862FEE2029F07350723010F053
:103E400010E001C011E046EF60E0C3010E94BA2615
:103E500093E099120FC1112309F40CC181110AC119
:103E600046E065E0C3010E94D81B2B2D4EEF60E0B9
:103E7000C3010E94E31B0FC140E06AE00E94BA2622
:103E800091E0D82ED926E12EF12CEFEFEE1AFE0AA2
:103E9000512CA701B201882D0E940326382EB201B1
:103EA0006F5F7F4FA7018A2D0E940326F82E8C2D6D
:103EB0000E946A28182F8A2D0E947328F4E0CF12DE
:103EC00005C0DD2019F04AE067E00DC094E09912CA
:103ED00011C01123C9F0882309F4D0C0DD2009F4F2
:103EE000D4C044E061E0C3010E94D81B2B2D40E008
:103EF00062E099C0E3E09E1207C0112329F0DD20A3
:103F000019F046E065E0EFCF311093C0882321F02F
:103F1000112309F4AFC006C0112309F4ABC0FF2080
:103F200009F4A8C0DD2009F4A5C0DBCF4AE060E0B9
:103F30000E94BA2691E0F82EF926412F50E04F5FFB
:103F40005F4F642D70E0882D0E940326033061F4DA
:103F5000FF2009F48FC04BEF6AEFC3010E94D81B0A
:103F60002B2D42E060E05FC0882309F483C0FF206E
:103F700009F480C08BE0F30182872B2D42E060E0E2
:103F8000C3010E94E31B0750093008F075C08FE1A0
:103F9000F301838771C040E066EF0E94BA2691E08A
:103FA000582E5926E12EF12CFFEFEF1AFF0AC42CF0
:103FB000D12CA701B601882D0E940326A82EB60198
:103FC00061507109A701832D0E940326F82E8D8967
:103FD0000E946A28182F832D0E9473289D8994308F
:103FE00029F4552019F049EF66EF17C0E4E09E125E
:103FF0000BC01123E1F0882309F444C0552009F4D3
:1040000047C04FEF6CEF09C0F3E09F1210C01123BF
:1040100071F0552061F046E065E0C3010E94D81BB5
:104020002B2D40E06EEFC3010E94E31B25C0AA20A8
:10403000A1F08BE0F30182872B2D42E060E0C30109
:104040000E94E31B07500930B8F48FE1F301838726
:1040500083ED9CE10E947F1D0FC0882329F011236E
:1040600049F0552039F0CDCF112321F0FF2011F078
:104070005110B9CF10E00FC011E00DC0332009F48A
:104080004ECFD7CFAA2091F3D4CF332099F3D1CFFD
:10409000AA2081F3CECF812FDF91CF911F910F9175
:1040A000FF90EF90DF90CF90BF90AF909F908F9058
:1040B0007F906F905F904F903F900895CF93DF93E4
:1040C0001F92CDB7DEB76983DC01ED91FC910280D0
:1040D000F381E02D41E050E0BE016F5F7F4F099515
:1040E0000F90DF91CF91089583E08093E900809154
:1040F000F200882319F08AE38093E8000895FC0118
:104100008485958597FD0BC09FB7F89482E08093D6
:10411000E9008091F2009FBF90E0019608959FB75B
:10412000F89482E08093E9008091F2009FBF90E0D4
:1041300008954091B6015091B7012091B40130919A
:10414000B50142175307B4F49091E8009570E1F37C
:104150009091E80092FD19C08093F1008091B60122
:104160009091B70101968F739927892B19F48EEFDF
:104170008093E8008091B6019091B70101969093E9
:10418000B7018093B60181E0089580E00895DF9241
:10419000EF92FF920F931F93CF93DF93D82E8A0154
:1041A0007B01E40EF51EEB01CE15DF0571F0D7FEA5
:1041B00003C0FE01849101C088810E94992021964C
:1041C0008111F2CF8FEF9FEF01C0C801DF91CF9136
:1041D0001F910F91FF90EF90DF900895615030F0A4
:1041E0002091F100FC0120830196F8CF289884E605
:1041F0008093BB0108950E94832790E008950F9358
:104200001F93CF93DF931F92CDB7DEB78C01FC01D4
:104210008485958597FF0EC0CE0101960E94552793
:10422000019719F4898190E002C08FEF9FEFF801A8
:1042300095878487F801848595850F90DF91CF91CC
:104240001F910F910895CF93DF931F92CDB7DEB7E3
:10425000FC018485958597FD05C02FEF3FEF3587DD
:1042600024870BC0CE0101960E945527019719F4AF
:10427000898190E002C08FEF9FEF0F90DF91CF9187
:1042800008950F931F93CF93DF931F92CDB7DEB79F
:1042900082E0898342E450E061EE7CE180E80E94A4
:1042A000C7200E941A28DC0112960D911C911397C9
:1042B0000115110589F0D801ED91FC910280F3817F
:1042C000E02DBE016F5F7F4FC801099597FD04C0C7
:1042D000F80100851185ECCF89810F90DF91CF9196
:1042E0001F910F9108951F920F920FB60F921124F4
:1042F0008F939F938091E1009091E100937F909341
:10430000E10083FF0FC01092E90091E09093EB0071
:104310001092EC0092E39093ED001092BC0198E0B3
:104320009093F00082FF20C093E09093E900909179
:10433000F200992319F09AE39093E8009091B90163
:10434000992339F09091B90191509093B901992333
:1043500089F19091BB01992339F09091BB01915063
:104360009093BB01992341F184FF10C08091E2003A
:104370008E7E81608093E2008091E1008F7E809349
:10438000E1008091BA018E7E806111C080FF16C06D
:104390008091E2008E7E80618093E2008091E10056
:1043A0008E7E8093E1008091BA018E7E8160809341
:1043B000BA0104C05D9ACDCF289AD6CF9F918F9134
:1043C0000F900FBE0F901F9018951F920F920FB66F
:1043D0000F921124CF92DF92EF92FF920F931F93CF
:1043E0002F933F934F935F936F937F938F939F93FD
:1043F000AF93BF93EF93FF93CF93DF93CDB7DEB728
:104400006C97DEBFCDBF1092E9008091E80083FF7A
:10441000FBC168E0CE0145960E94EE2082EF8093BA
:10442000E8008D8987FF05C09091E80090FFFCCFE0
:1044300003C09EEF9093E800982F907609F0C6C0D5
:104440009E894F89588D2F89F88C91110CC0803826
:1044500029F48091B3018093F10002C01092F10021
:104460001092F10045C1913051F4811141C14130A8
:10447000510509F03DC18091B3018D7F0BC0933090
:1044800061F4811135C14130510509F031C180918C
:10449000B30182608093B3012BC1953049F48091C0
:1044A000E80080FFFCCF822F80688093E30020C16A
:1044B000963009F05EC00B8D1C8D22E01092E90051
:1044C0001092B7011092B601F21232C01092B501EB
:1044D0001092B4010E94412199E0BE016F5F7F4FAD
:1044E000DB01E92F1D92EA95E9F79983FA8291E0C1
:1044F0009E8390EA98879AEF99872091B601309130
:10450000B701275F3F4F3C832B838D831092E900D7
:104510001092B7011092B6011093B5010093B40147
:1045200049E050E080E00E94C7200E944121E0C0A5
:104530001093B5010093B4010E941A28DC01129671
:104540000D911C9113970115110509F4BBC0D801F9
:10455000ED91FC910480F581E02DBE016B5E7F4FF3
:10456000C8010995009709F0C7C0F80100851185B9
:10457000EACF973009F445C1983021F481E0809367
:10458000F100B6C0993009F0B3C0837009F039C1A9
:10459000E1E8F1E081E031E096E32081211109C0FA
:1045A0008EE78093EA001092EA008F898093BC0125
:1045B0009FC08093E9003093EB0021912093EC00A1
:1045C0009093ED008F5F873041F7EACF8B8D9C8D04
:1045D0001092E9001092B7011092B6019093B501C4
:1045E0008093B401898D811153C08E899D89913A40
:1045F00049F4813209F005C147E050E065E071E01F
:1046000080E0BBC0913209F0FCC0833269F48F892D
:10461000988DA0E0B0E08093010190930201A093F7
:104620000301B093040164C0803269F48091E80012
:1046300082FFFCCF67E085E091E00E94EE208BEFE7
:104640008093E80055C0823209F052C08F89809370
:104650000C01EEEFFFE7859194918B3F9C4D19F093
:10466000E0E0F8E002C0EEEFFAE080910501909101
:104670000601A0910701B0910801803B9440A1057B
:10468000B10509F09EC080910C0180FF79C099C0EE
:104690000E941A28FC01028113810115110509F4F9
:1046A000B0C0D801ED91FC910190F081E02DBE01E8
:1046B0006B5E7F4FC801099581111AC0F801008512
:1046C0001185EBCFF1E0FF1609F44EC0F3E0FF12C5
:1046D00098C08F89882309F44AC0823089F440E861
:1046E00067E085E49DE10E94882D882309F489C054
:1046F0008EEF8093E80088C018161906CCF381C0AD
:10470000813029F440E86BE089E39DE1ECCF833010
:1047100009F077C00E941A28DC011296ED90FC90F7
:1047200013978E010F5F1F4F6801E114F10479F0B8
:10473000D701ED91FC910680F781E02DB801C7010A
:104740000995080F111DF701E084F184EECFD8011F
:104750001C92F60101900020E9F73197BF016C1916
:104760007D0940E0C601BFCF67E27DE102C063E2A0
:104770007DE1FB01449150E080E80E94C720B8CF62
:10478000EE3F2AE0F20751F0808191818737A7E759
:104790009A0721F09093FF0A8093FE0A87E797E734
:1047A00091838083809160008093B8019BE088E1D1
:1047B0000FB6F894A895809360000FBE90936000A8
:1047C00097CF808191818737974709F091CFA8953E
:1047D000809160008861809360008091B80180932F
:1047E0006000EE3FBAE0FB0739F08091FE0A90913D
:1047F000FF0A918380837CCF1092FF0A1092FE0AF9
:1048000077CF81E28093EB006C960FB6F894DEBF11
:104810000FBECDBFDF91CF91FF91EF91BF91AF91CF
:104820009F918F917F916F915F914F913F912F91C8
:104830001F910F91FF90EF90DF90CF900F900FBEE0
:104840000F901F9018958F929F92AF92BF92CF9228
:10485000DF92EF92FF926B017C010E94C3284B0113
:104860005C01C114D104E104F104F1F00E94C328F9
:10487000DC01CB0188199909AA09BB09883E93403C
:10488000A105B10570F321E0C21AD108E108F108D1
:1048900088EE880E83E0981EA11CB11CC114D104BF
:1048A000E104F10419F7DDCFFF90EF90DF90CF9096
:1048B000BF90AF909F908F9008952F923F924F920C
:1048C0005F926F927F928F929F92AF92BF92CF92A0
:1048D000DF92EF92FF920F931F93CF93DF93CDB7A9
:1048E000DEB72F970FB6F894DEBF0FBECDBF4C01D9
:1048F0007B012C870D875A8349831C821B821D8272
:104900001E8268E070E0CE0101960E947E281C01A4
:104910009C012F5F3F4F3B872A8768E070E0CE0104
:1049200001960E947E288C0161E070E0CE01019624
:104930000E947E282A853B85280D391D37FDF5C04C
:1049400030E8831691040CF0F0C00F5F1F4F980100
:104950002E0D3F1D37FDE9C040E4E416F1040CF0D4
:10496000E4C06701F7FE04C0CC24DD24CE18DF08C4
:1049700057E0C522DD249701F7FE02C0295F3F4FB3
:10498000390123E0759467942A95E1F7F7FE09C091
:1049900091E0691A710828E030E0A9014C195D091D
:1049A0006A01980117FF02C0295F3F4F290193E078
:1049B000559447949A95E1F707701127012B19F048
:1049C0005FEF451A550A0D85002311F0710102C0F1
:1049D000E12CF12C898701E010E0A12CB12C88E0BA
:1049E00090E09C012C193D093F872E87A414B50443
:1049F0000CF09BC041E050E058874F8361E070E0CD
:104A0000CE0101960E947E28892B31F48F819885F2
:104A1000029698878F83F2CF6F817885CE010196B9
:104A20000E947E28DC01119640E050E04A175B07A7
:104A300008F072C099859111102B000F09F069C020
:104A400093012A0D3B1DC9010196099708F043C047
:104A5000C4018E0D9F1D80389105E8F5B90176954A
:104A6000762F662777956795680D791D6E0D7F1DEA
:104A70002F3F0FEF300709F454C0812F0C2C01C0D9
:104A8000880F0A94EAF7FB01E05DFC4F0C850023D8
:104A900019F09081892B03C08095908189238083B0
:104AA000C114D104C1F027303105A9F0812F90E065
:104AB0000E8402C0959587950A94E2F7FB01E055B4
:104AC000FC4F2C85222319F01081812B03C0809587
:104AD0001081812380830D85011110C02FEFE21A10
:104AE000F20A8A859B85E816F9068CF09FEFA91AD1
:104AF000B90A01E010E0E12CF12C0BC001E0E01A52
:104B0000F108F7FE04C02FEFA21AB20A710101E00A
:104B100010E04F5F5F4F8ACF398541E034273987F6
:104B200065CFC114D10411F6D6CF2F960FB6F894E5
:104B3000DEBF0FBECDBFDF91CF911F910F91FF90D0
:104B4000EF90DF90CF90BF90AF909F908F907F902D
:104B50006F905F904F903F902F90089581508330D9
:104B600008F18AE0869F9001879F300D1124849F71
:104B7000B001859F700D1124ECEDF2E0808184FF7F
:104B80000AC0828193818217930729F484819581D9
:104B90008617970739F03E9683E0E033F80771F700
:104BA00080E0089581E00895873028F4843038F556
:104BB000882329F126C0803120F58AE0869F900164
:104BC000879F300D1124849FB001859F700D1124A3
:104BD000ECEDF2E0808184FF0DC082858B3051F4D2
:104BE000828193818217930729F4848195818617A6
:104BF000970739F03E9683E0E033F80759F781E0F4
:104C0000089580E00895853031F118F4882319F172
:104C100024C08750883008F58AE0869F9001879FDE
:104C2000300D1124849FB001859F700D1124ECED8F
:104C3000F2E0808184FF0AC082819381821793070A
:104C400029F4848195818617970739F03E9683E091
:104C5000E033F80771F781E0089580E008958C3122
:104C6000F8F46F3FF9F06031F8F4982F969570E002
:104C700080FD0BC080E1989F600D711D1124FB0128
:104C8000EA53FE4F8681829509C080E1989F600DAE
:104C9000711D1124FB01EA53FE4F86818F70089528
:104CA00081E0089580E0089582E00895982F969518
:104CB000E62FF0E080FD0EC080E1989FE00DF11D31
:104CC0001124EA53FE4F86818F7090E1499FA00125
:104CD000112409C080E1989FE00DF11D1124EA53D1
:104CE000FE4F8681807F482B46830895CF93DF93C4
:104CF00082EB90E00E94D32E8093AC0283EB90E095
:104D00000E94D32ECDEBD1E08E8384EB90E00E9405
:104D1000DB2E9D838C83DF91CF9108951F93CF93DA
:104D2000DF93C091AC026C2F82EB90E00E94E12EE9
:104D30006C2F87EB90E00E94E12ECDEBD1E01E813D
:104D4000612F83EB90E00E94E12E612F88EB90E0D1
:104D50000E94E12E0C80DD81C02DBE0184EB90E02D
:104D60000E94F32EBE0189EB90E0DF91CF911F915D
:104D70000C94F32EEF92FF920F931F93CF93DF9338
:104D8000DC01ECEDF2E080E393E0062E000C770B03
:104D9000042E000C550B208124FF1EC02F703C9167
:104DA0003F702317C9F01181212F2F70C281D38149
:104DB000C20FD11D12962D913C911397260F371FCC
:104DC0007E010AE0E00EF11C2E153F052CF4265F53
:104DD0003F4FC217D30734F03E968E179F07D9F680
:104DE00080E019C012951F70C481D581C10FD11DFB
:104DF00014962D913C911597240F351F7E010AE0E2
:104E0000E00EF11C2E153F053CF7265F3F4FC21701
:104E1000D30714F781E0DF91CF911F910F91FF909D
:104E2000EF9008958091BE0190E02091C8013091EB
:104E3000C901821B930B2AE030E0B9010E94092EC0
:104E4000863020F0A901481B5109CA0121E00597CD
:104E50000CF020E0822F0895CF92DF92EF92209104
:104E60006E07822F90E0FC01EE0FFF1F8E0F9F1F39
:104E7000FC01EE5CF84FC080D180E2808FEF820FA2
:104E800080936E07E2E3F7E090E0981740F4238107
:104E9000348145812193319341939F5FF6CF8E2DCD
:104EA000B601EF90DF90CF9008952091BC012111C1
:104EB00003C08FEF9FEF08955FB7F89422E020932F
:104EC000E9002091F20030E01216130614F421E0FC
:104ED00030E0422FFC0184E6415038F0289880935E
:104EE000BB019091F1009193F7CF2115310521F08D
:104EF0008091F200882319F05FBFC90108958BE605
:104F00008093E800F9CF2FB7F89483E08093E9000D
:104F10009091E800892F807295FF04C09091F20073
:104F200080E4891B2FBF08958F929F92AF92BF920A
:104F3000CF92DF92EF92FF920F931F93CF93DF9365
:104F40006C017B018A0180910C01882309F45CC00B
:104F50008091BC01882309F457C08091BA0180FF79
:104F600005C08091E00082608093E000E801B12CF0
:104F70008AEFA82E93E0892E2AE3922E209711F42F
:104F8000BB20D9F10E94832781110AC0AA94AA20CC
:104F9000D9F161E070E080E090E00E942324EECF40
:104FA000282F30E0C217D3070CF48C2F9FB7F8944A
:104FB0008092E9002091E80025FF1DC0282F30E0F5
:104FC000C21BD30BF701815020F041914093F100B7
:104FD000FACFE20EF31EBB2019F09092E8000AC04F
:104FE0008091E80085FD07C09092E800BB24B3944F
:104FF000209709F0B12C9FBFC1CF5D9884E68093C4
:10500000B9011016110644F081E090E0F601938397
:10501000828380E090E001C0C801DF91CF911F91B1
:105020000F91FF90EF90DF90CF90BF90AF909F9047
:105030008F90089580917E0781110DC082E080934A
:105040007A0784E080937B0710927D0710927C079B
:1050500081E080937E078AE797E00895CF93DF93FE
:10506000D82F8FEA90E00E94D32EC82F80EB90E0DB
:105070000E94D32ED11104C0CC3411F4823539F101
:105080006CE48FEA90E00E94E12E62E580EB90E014
:105090000E94E12E86EB90E00E94D32E682F81EBD8
:1050A00090E00E94E12E87EB90E00E94D32E682FC3
:1050B00082EB90E00E94E12E88EB90E00E94D32EDC
:1050C000682F83EB90E0DF91CF910C94E12EDF917C
:1050D000CF910895882329F083508D3010F080E01F
:1050E000089581E00895813028F0843028F08750B9
:1050F000893010F080E0089581E008951F93CF93E8
:10510000DF93DC0120E030E040E050E011E0C1E05E
:10511000D0E02617370791F114968C9114978111DE
:1051200015C014961C93149712968D919C91139709
:10513000ED91FC911197E80FF91FE4911596EC930E
:105140001597019613969C938E93129714969C91A3
:10515000149715968C911597892349F0FE01022E1C
:1051600002C0EE0FFF1F0A94E2F74E2B5F2B990F40
:1051700014969C9314972F5F3F4FCBCFCA01DF91BA
:10518000CF911F9108953FB7F8948091E9079091CE
:10519000EA07A091EB07B091EC0726B5A89B05C0E4
:1051A0002F3F19F00196A11DB11D3FBFBA2FA92FA6
:1051B000982F8827820F911DA11DB11DBC01CD0123
:1051C00042E0660F771F881F991F4A95D1F708950F
:1051D0001F920F920FB60F9211242F933F938F932C
:1051E0009F93AF93BF938091E4079091E507A091BF
:1051F000E607B091E7073091E80723E0230F2D374A
:1052000020F40196A11DB11D05C026E8230F0296CA
:10521000A11DB11D2093E8078093E4079093E50753
:10522000A093E607B093E7078091E9079091EA071A
:10523000A091EB07B091EC070196A11DB11D8093E1
:10524000E9079093EA07A093EB07B093EC07BF91AF
:10525000AF919F918F913F912F910F900FBE0F9023
:105260001F9018958091C30181508093C30196E0EF
:1052700090930001811102C088E001C08AE0809310
:10528000C5018DE49DE10C947F1DCF93DF93CDB7D5
:10529000DEB728970FB6F894DEBF0FBECDBF789467
:1052A00084B5826084BD84B5816084BD85B582602B
:1052B00085BD85B5816085BD80916E0081608093DC
:1052C0006E00109281008091810082608093810045
:1052D0008091810081608093810080918000816055
:1052E00080938000809191008260809391008091F2
:1052F0009100816080939100809190008160809303
:1053000090008091C10084608093C1008091C100B1
:1053100082608093C1008091C10081608093C10050
:105320008091C30081608093C3008091C00082603F
:105330008093C0008091C20081608093C200809100
:105340007A00846080937A0080917A0082608093F2
:105350007A0080917A00816080937A0080917A004F
:10536000806880937A001092BC011092B301109271
:10537000BA018091D70081608093D70080EA809342
:10538000D80089B5806189BD89B5826089BD09B4BD
:1053900000FEFDCF61E070E080E090E00E942324F9
:1053A0008091D8008F7C80618093D8008091E0004C
:1053B000807F8093E0008091E1008E7E8093E10009
:1053C0008DE08093E200559A209A81EC80937C00D6
:1053D00085B1806F85B984B1877E84B984B1876EC9
:1053E00084B95E9A5F988AB1806D8AB9769A6E9810
:1053F00081B3806F81BB899880B38D7080BB80E55D
:105400008CBD81E08DBD85E090E00E94981E5F9A82
:1054100085E090E00E94981E5E985C98E3E1F9E1D7
:1054200084918EBD00000DB407FEFDCF319649E199
:10543000E032F407A9F75C9A81E8809364008091D8
:1054400065008160809365000E949D1E87FF24C0D7
:105450005C9885EA8EBD00000DB407FEFDCF5C9A16
:105460002E982F982D98809164008062809364001C
:1054700081E083BF889513BEFCCF2D980E949D1EAE
:105480008478843871F00E949D1E8471843129F1E2
:1054900088EC90E00E94981E0E949D1E82FDEDCF38
:1054A00038C02D9A88EC90E00E94981E2F9882E0D8
:1054B00090E00E94D32E8F3F29F06FEF82E090E0C2
:1054C0000E94F92E84EF91E00E94981E2F9A0E946C
:1054D0009D1E84788438D9F3D6CF2D9A88EC90E03D
:1054E0000E94981E2E9882E090E00E94D32E88237E
:1054F00029F060E082E090E00E94F92E84EF91E0D4
:105500000E94981E2E9A0E949D1E84718431D9F3A8
:10551000BFCF2D9A88E280937607809164008E7FBA
:105520008093640080917A00806480937A008091F7
:105530007A0086FDFCCF00917800109179000E94DE
:10554000C32820E030E0980111270027600F711F69
:10555000821F931F209164002160209364006115D5
:1055600071058105910511F00E94CA2E82E090E03C
:105570000E94D32E882331F03E9A3F9A81E0809397
:10558000A30104C01092A3013E983F9880E00E94BE
:105590002E280E94762684E18093BD0183E28093C9
:1055A000BE011092C40181E08093C50187E0EDE364
:1055B000F1E0DE01119601900D928A95E1F781EB01
:1055C00090E00E94D32E833040F4E1E0F0E0EC0F55
:1055D000FD1FE80FF11D808103C0833019F081E1C8
:1055E000809300012BE3222E312C38E9432E5524E1
:1055F0005A9447E6642E77247A94DD24D39497E076
:10560000A92E8FB7F8944091E4075091E507609177
:10561000E6077091E7078FBF80917707942F981B5B
:10562000892F90917807992329F080937907109218
:1056300078075CC290917607891740F48F5F8917CD
:1056400008F054C2D3BE889513BE50C2D0927807DA
:10565000409377078091720790917307019690931A
:1056600073078093720780917407809375070E9477
:105670009D1E8093740710910001812F90E0FC0122
:105680003197E131F10508F023C2E759FF4F0C943F
:10569000862F83EB90E00E94D32E1091A4018530D9
:1056A00009F02BC282EB90E00E94D32E813009F0EA
:1056B00024C2612F660F660F160F185EFF24F39445
:1056C00049E95CE168E170E000E021E086E290E019
:1056D0000E945D24612F70E021E04DEC5CE18FE1E0
:1056E00090E00E945D2400E010E021E04EED5AE1E0
:1056F00060E070E0C8010E94921D21E04EED5AE189
:1057000067E370E0C8010E94921D065F1F4F0238D8
:10571000110559F780917507809590917407892339
:10572000F11011C087FF07C09091A401992319F0CF
:1057300091509093A40184FF06C09091A40191110F
:1057400002C0D092A40183FFC3C18091A401882329
:1057500029F0813009F0BCC10E942E280E947626D3
:1057600082E080930001B4C10E94671C80916E07A3
:10577000882319F00E942C27F9CFE091AC02F0E0C9
:10578000EE0FFF1FE851FF4F20813181D092C401FD
:10579000F9018491FAE08F9FC0011124F90131963B
:1057A000E4914AE0E49FF00111248B3391052CF43D
:1057B0001092C7011092C60116C0AC014B5351099B
:1057C0004E35510558F44BE34093BD01B101681BC0
:1057D000790B7093C7016093C60107C07092C7012F
:1057E0006092C60189598093BD01E731F1052CF41F
:1057F0001092C9011092C80116C0CF014797823597
:10580000910560F487E18093BE0187E190E08E1BF3
:105810009F0B9093C9018093C80107C05092C901A2
:105820004092C801E856E093BE01F9013296149106
:10583000ACEDB2E043E050E070E06C91607F672B2C
:105840006C9318961C9218977117E8F4F901E40FFD
:10585000F51FE4918AE0E89FF00111241396FC9370
:10586000EE931297FA013196E20FF31F4E5F5F4FEE
:10587000E491FAE0EF9FC001112415969C938E935A
:10588000149760616C937F5F1E967630B1F6CA0103
:105890000196F901E40FF51F54915093AE02A0EB6D
:1058A000B2E010E0BF016E5F7F4F511759F03196A3
:1058B000E491EC93FB01449111964C9311971F5F77
:1058C0001296F0CF850F911D850F911DA901480FEC
:1058D000591FA4EDB2E0FA0164916C933196E49102
:1058E0001196EC9311974E5F5F4F12966CED72E03C
:1058F0006A177B0781F74C0179E0870E911CFC0148
:105900003896E20FF31FC490E2E0CE1621F000E0DB
:1059100010E040E067C0A6ECB1E07C01F0EEEF0ED5
:10592000F11C40E08D0160E070E04C0159E0850E13
:10593000911CF401E60FF71FE20FF31F5491E52FBE
:10594000F0E0689413F8F595E7951694E1F7E630E2
:1059500009F44F5FE52FEF70E63009F44F5FF8016F
:1059600056836F5F7F4F005F1F4F6E30710509F7E1
:1059700011960E968E159F05A9F670C0EE2309F4B8
:105980006DC05FEF851A950ABF2EB294B0EFBB22AF
:105990007801C11038C0C7016CE170E00E941D2E73
:1059A000969587957727A4E0880F991FAA95E1F728
:1059B0008A539E4FDC01A60FB71F16965C9116976F
:1059C000E0FC1EC05F705B2916965C938FEFE81AAF
:1059D000F80A8E2D801B8E17E0F2E150F0E0319630
:1059E0000E0F1F1FF901E80DF91DE491FE2FF2952E
:1059F000F695F770EF71F63009F0C0CF4E0FBECFBD
:105A0000507F5F2BE1CFB70184E0769567958A954B
:105A1000E1F7562F56958E2D8F7090E060FD0EC0E9
:105A200060E1569F800D911D1124DC01AA53BE4FE9
:105A300016968C9116978F708B290DC070E1579F29
:105A4000800D911D1124DC01AA53BE4F16968C9136
:105A50001697807F8F2B16968C93B8CF4093AD020C
:105A600083E08093000105C0A092000102C00E9463
:105A70008E260E94EB0E2CC088E0E4E4F1E0DE010B
:105A8000119601900D928A95E1F700E021E04DEE2C
:105A900059E164E170E083E190E00E945D241A50D6
:105AA000FE013196E10FF11DE10FF11D40815181A1
:105AB00021E063E270E087E490E008C000E021E0CC
:105AC00040E259E167E170E084E190E00E945D24EA
:105AD000E0E3F3E080E098E000800EBCD110012C00
