:100000000C9413070C943B070C943B070C943B0790
:100010000C943B070C943B070C943B070C943B0758
:100020000C943B070C943B070C94C5190C94371A9D
:100030000C943B070C943B070C943B070C943B0738
:100040000C943B070C943B070C943B070C943B0728
:100050000C943B070C943B070C943B070C943A21FF
:100060000C943B070C943B070C943B070C943B0708
:100070000C943B070C943B070C943B070C943B07F8
:100080000C9471150C943B070C943B070C943B07A4
:100090000C943B070C943B070C943B070C943B07D8
:1000A0000C943B070C943B070C943B071C0C4D0C29
:1000B0004D0C460C460C420C420C3E0C3E0C3A0CCD
:1000C0003A0C320C320C360C360C320C320C360C2C
:1000D000360C9B23AC233125312531252C253125A8
:1000E00031252F25312534253425342569256925E9
:1000F00069255F2556256D176D176D178E178E179D
:100100008E17E817E817E817E817E8171D181D18E5
:100110001D186D176D17090FE8D2D9ED76BB4EC7C4
:10012000B7DD6EB7DBED7636090FE8D3E974FCDB9B
:10013000ED76BBDD6E6703090F109BCE6EB7DB75E6
:100140003A36090FB8B2E9145FD7ABCF85A2ED6C90
:10015000DB5901090FBC92EE55A9A4D2AAAD53E414
:10016000E9E8B6B303090FF8B6CAF55FB9B5EBD441
:1001700036EEED6CDB5901090F38B39FEAB3977780
:100180000A4BDBD9B6B302090FBC924EA5FAECE5D7
:1001900054CEC9D9D3F9EC367A090FB8B29F6AA206
:1001A000745FBB8E773B7B3A5A090F38972ACA6B2C
:1001B000998E39BD1D5B090F5CA73EF54D96DBF5A9
:1001C000B950B79D1D20064B000000190075054B66
:1001D000000000190027054B000000190097044B90
:1001E000000000190017044B0000001900B8074B6D
:1001F0000000001900E0064B000000190010034B3E
:100200000000001900BA024B000000190093024BD5
:1002100000000019004B024B00000019000B024BBC
:100220000000001900DC034B000000190070034BB4
:10023000000000190088014B00000019005D014B0F
:1002400000000019004A014B000000190026014B74
:10025000000000190006014B0000001900EE014BE0
:100260000000001900B8014B0000001900C4004B49
:100270000000001900AF004B0000001900A5004B62
:10028000000000190093004B000000190083004B90
:100290000000001900F7004B0000001900DC004BC3
:1002A000000000190062004B000000190057004BCD
:1002B000000000190052004B000000190049004BDB
:1002C000000000190041004B00000019007B004BAA
:1002D00000000019006E004B000000190031004BB7
:1002E00000000019002C004B000000190029004BF1
:1002F000000000190025004B000000190021004BF0
:1003000000000019003E004B000000190037004BB0
:10031000000000190000804B024B0000000F004B52
:10032000024B0000000F004B024B0000000F0026A4
:10033000014B000080E0060F0017040F0027050F97
:100340000000800A081800600080002000400000C3
:1003500000600090002000000000000000801000FD
:1003600020800000800000200000000040090FA84D
:10037000D69D2BA2AC932A75BB08B3DBB106090F3F
:1003800088769D7A995DCBDA756AD46DD7B101090B
:100390000FB8969F6AA274D7ABCFCDBC9D753B2B8F
:1003A0000607A8D2E9743A2E0407723A9D8E0A060F
:1003B000077C3A9D4E470704079D4BA7A3030307FD
:1003C00088E5030792CC0407B8D2E99C5304077C64
:1003D0003A9D760E0607DE6EB7DBED76070407A5BD
:1003E0009276BB5D010607B7DBED76BBDD02040745
:1003F000A5926ABBDD020307F8743A0307759A10E9
:100400000407D476BB924A2A0407B7DBAD545201E5
:100410001507A54E472555552A1595F3D99C2293C6
:10042000AA2A958A4AEA745C95032907522E95AA4E
:100430004A95E272AA9295755452E5B3924AAAAAD5
:10044000542A6EE552A9544E71399F4E392EA9AAED
:1004500052A9A8A4AA64656B4A550A2907D369A9B9
:10046000A293AA9295ADA9F64A4DEF54252BEBB86D
:10047000944BA5AA52A5B89CAA64651D552A25557A
:100480002A2AE9F24949A94A010E07A54E47E57C07
:1004900036A7C8A44EC75571011307522E95AA4A14
:1004A00095E2522E954AE51497D4E9A8A44AA5529C
:1004B000394556390F07A5CB67B3924AAAAA542AE1
:1004C0002AE9F249C9553904050E11110E00121F0F
:1004D00010121915120A11150A06051F0417151511
:1004E000090E151508011905030A15150A12150933
:1004F000061907EA5455AA2AD59129974AA57215D3
:100500009972A9542AA7B8A4AA64656B2AA9AA5209
:10051000A9B82A2EF4F5F9F6F7F8FBFAFFFCFDFE70
:100520000002030401060508090A070B0C0E0F0060
:100530008801640000001400DC0364000000140063
:100540004B0264000000280017046400000014003F
:100550002705640000001400200664000000280045
:100560000080070E04020119011A0E010E0200009C
:100570001B000301020E190E180100E18C428CE1F0
:10058000611A620141210241210322032602412115
:10059000016201214102214102240226022141017E
:1005A0006201412102412101412102214104C12274
:1005B0000241210162012141C22141012141C24187
:1005C0002103C1220321410162014122A1412101F4
:1005D0004122A1214102C1220441210162012141A4
:1005E00021A1214101214121A1412101C122052156
:1005F000410162014121C24121014121C221410148
:1006000022064121016201214102214101214102D1
:1006100041210122C4056201412102412101412100
:1006200002214101260241210162012141022141B1
:10063000012141024121012602214101621A620683
:1006400086028705620C220C613C00040F02060240
:1006500012020200001B000701110101021A020030
:10066000E1870127018AE16107290A620622072240
:10067000096205220127012208620522A127A12281
:10068000086205220421042208620522C102230215
:10069000C1220862042701270762042601210126DE
:1006A00007620423A2012301A2230762052101C1DD
:1006B000012501C101210862052D086204260326D7
:1006C0000762042301C1210321C10123076205221E
:1006D00002220122022208612361036223012362B4
:1006E00004612500020E030D00030617060E01002B
:1006F0001900010119010102190201031903010482
:10070000190401051905010619060B000F00000662
:100710001A0600046185166104290E610421C18551
:10072000C1210161820A610421416103614121010A
:100730006102820861042101610361012101610CF0
:100740006101C10221C185C121016101C108C1014D
:100750006101410221024302210161014102C1E123
:10076000022461042107210161032401846104A1A1
:1007700001410441A10161038405610421416141FA
:100780000241012101610C61C103210141052101E7
:1007900061C10A2461012107210124610B6101214A
:1007A00003A2022105610B610124A22305610B61F3
:1007B0000F61042A472B00010E020C0210020A1BD3
:1007C000001B011B021B031B041B051B061B071B35
:1007D000081B090A0012000C0E100E000B271465EE
:1007E00024126207221021610241034102220F21DB
:1007F000610143014301220F2161014301430122B1
:100800000F21610143014301220F21610241034194
:1008100002220F216104C1042210216103C10322BD
:100820000861896205228862896201210121012211
:10083000886202C102C102C16201210121012202BA
:10084000C102C1026209620121012101220862097B
:100850006201610161012208614C264A000D0F020C
:10086000080313030409001200090112010703140D
:100870000305051605011F19C1250A2608240C6564
:1008800005220262246402220229610462220224F7
:100890000262022401C164022204C127022204244C
:1008A00041214121026204224121412141210822AA
:1008B000412141214121082441214121026204C1F9
:1008C000270222022401C1640222E1E16222022401
:1008D00002622202296102220262246408650B245A
:1008E0000E260AC1251F13001B07B22E954A653B31
:1008F000AD5D369D7754D265D3F9E894AB4A55A5E2
:10090000AA721D977255A9AA5455AE031007B22EAC
:10091000954A65E3723EA77CCA9129974AA552A9D8
:100920009C220210079C72A9542A95CA292EE9B26A
:10093000E9BCE352AE2A5595AACA75D5F08D14A12B
:10094000C881CFD9F1AF20005717A38B2E2E4717A0
:100950005D74D145175D74D145175D721F5D74D10B
:1009600045175D74D145175D749129BAE8A28B2EA5
:10097000BAE8A28B2EBAE8A28B2EBAE8A28B2EB9C7
:100980008F2EB4499D4EC7A55C2A954AA5728A2E22
:100990005795AA4A55E51C9772A9542A954A4914B5
:1009A00049974DE71D977255A9AA5455EEA24AE5FD
:1009B0002A9BAD5C2A2AE752A9543624DDD7575525
:1009C00095AA2A3559AE2A5595AACA392AA9F2CA32
:1009D000A525977255A9AA5455AEA35485ACE8A293
:1009E0008B2EBAE8A28B2EBAE8A28B2EBAE8A28B85
:1009F0002EBAE8A28B2EBAE8A28B2EBAE8A28B2ED2
:100A0000BAE8A28B2EBAE8A28B2EBAE8A28B2EBA35
:100A1000E8A28B2E32450FA38B6DB9554E29BB73BF
:100A2000A76C3EBAE8A24B293FDB4A112593A5E803
:100A3000B2D94AA62B9B4F395BC988625BA62B991A
:100A40009F4CD96C25F39329BAC8145D7429E7A388
:100A50008B2EBA58A3EB74AE93CA29ED6EC5145D04
:100A600074D145A77C4E91C594733A975F763AD777
:100A7000D9647ED9E95C45A67CAED33945E6B8A2F7
:100A80008BEE93DD5DC96A49155DBE72D145175D78
:100A90007479591FA38B2EA764E7D29DDCE7D28E11
:100AA0002EB66D7ABAD8B6E9E962DBA6A78B6D9B44
:100AB0009E2EBAE862DBA6A78B6D9B9E2E9B9E6D39
:100AC0009BCFA6B7E9E972694717DB363D5D4EE972
:100AD0006D3EBA6C7A9B8F2E7439974EC79C733AD1
:100AE0002E652B59C9CA756CD94A56B2728EAB9312
:100AF00095AC64652353B69295AC5C872BE5D3E93E
:100B00005CC7A57C3A9D53648E4B91392E2BD3E95B
:100B10009CE2CB391D97B295AC64E53A2EE5D3D96A
:100B2000C894AD64252BD7416FF7B5AB4AA952A93C
:100B3000C97255A9AA5455CE514995572E2DB9942D
:100B4000AB4A55A5AA721D2C1B5D74D145175D7467
:100B5000D145175D74D1C594EB742EBAE8A28B2EE3
:100B6000BAE8A28B2EBAE8A28B2EBAE8A28B2EBAD4
:100B7000E8A28B2EBAE8A28B2EBAE8A28B2EBAE896
:100B8000A28B090A10000000000000000000000015
:100B9000000000000000000000EFEFE0EFEFEFEFDB
:100BA0000FEFEF01010101010101000101FFFFFF52
:100BB000FFFFFFFFFFFF0001010101010101010132
:100BC000000000FF42424242FF000000000300001C
:100BD00000000300000202020202020202020200FE
:100BE000000000000000000000EFAFE06FEFEFED4D
:100BF0000FEBEF010101010101010001010000B053
:100C0000B000B0B0000000000001010001010000D0
:100C100000EFEFE0EEEEEEEE0EEFEF01010101016D
:100C20000101000101EEECE0E8E8EAE808ECEE0181
:100C3000010101010101000101ECE0C0C0888080D8
:100C400000E0EC01010101010101000101E080006F
:100C5000000800010086E00101010101010100011D
:100C60000100000000000000000000000000000083
:100C70000000000000E08080000000000080E00133
:100C8000010101010101000101ECE0C0808080C090
:100C900000E0EC01010101010101000101EFECE0C4
:100CA000E8E8E8E80CECEF010101010101010001B5
:100CB00001EFEFE0EEEEEEEE0FEFEF0101010101CB
:100CC00001010001013F0FA5AA64656B2AA9AA5280
:100CD000A9B83A5595AA4A755CCEA7538E4BBA7CF3
:100CE000362BA9A4AA4AA5E2562E95AA4A95E272E5
:100CF000AA92957554D2E5B359492555552A15D26E
:100D0000A5AA64656B2AA9AA52A9B83A5595AA4A18
:100D1000755CE9B454F13955C9CA3A2AA92A59D996
:100D20009A2A9D962A7EE552A9AA54292EA72A59C5
:100D30005947255D3E9B95545255A55221122C07CB
:100D4000EA5455AA2AD571A5D352C5E754252BEBF1
:100D5000A8A4AA64656BAA745AAAF8954BA5AA52CE
:100D6000A5B89CAA64651D9554F9ACA492AA2A95CD
:100D70004A010207A5533609E0061E0000000A00DA
:100D8000E0061E000080080B0002020201000904B8
:100D900000000102020000052400100105240101E9
:100DA0000104240206052406000107058103100042
:100DB0004009040100020A00000007050202400089
:100DC0000007058302400000040309041201000229
:100DD000EF0201404123368000010102030141720C
:100DE0006475696E6F204C4C430041726475626F8C
:100DF000790020066400000014002705640000004C
:100E0000140017046400000028004B026400000076
:100E10001400DC036400000014008801640000007A
:100E200028000080192611241FBECFEFDAE0DEBFB4
:100E3000CDBF11E0A0E0B1E0EEEDFFE402C005900F
:100E40000D92A837B107D9F727E0A8E7B1E001C0B4
:100E50001D92A53CB207E1F717E0C3E1D7E004C05B
:100E60002197FE010E94E227C231D107C9F70E94F3
:100E700097210C94ED270C9400002F923F924F92F3
:100E80005F926F927F928F929F92AF92BF92CF921A
:100E9000DF92EF92FF920F931F93CF93DF93CDB723
:100EA000DEB72D970FB6F894DEBF0FBECDBF809191
:100EB000950190E020919E0130919F01821B930B40
:100EC00005962AE030E0B9010E946526162F6D874D
:100ED0008091960190E04091A0015091A101841B66
:100EE000950B0596B9010E9465267B016C87809160
:100EF0000001853091F080914A0790914B076CE09A
:100F000070E00E947926892B09F0F6C39091780150
:100F100081E0892780937801EFC3812F0E94811E91
:100F2000082FD0904C07C0904D07C094CD20109250
:100F300097011092A20180919C018B3021F01092B8
:100F400098011092A3016E2D812F0E94811E863080
:100F500079F58091990190919A01499690939A011F
:100F60008093990140E06E2D812F0E94A81E8091F0
:100F70008502882319F08150809385028091850233
:100F8000811112C0B12C80918602B81668F4EB2D45
:100F9000F0E0EE0FFF1FE857FD4F43E061818081D5
:100FA0000E94A81EB394EFCF85E393E00E94D11571
:100FB000809179019D2D9C709C3061F58F5F8093AD
:100FC00079018531B0F18D3390F08D3391F5109228
:100FD000790183E884BD8FEF87BD81EF8093800026
:100FE0001092880010928A000E94842118C320E485
:100FF00030E0A901481B5109CA01880F93E894BD4C
:101000009FEF97BD91EF909380001092880080939E
:101010008A000FC0882369F083E884BD8FEF87BD05
:1010200081EF809380001092880010928A001092C5
:1010300079018C2D84709C2D9870C3FE2DC0811178
:101040002BC00E941217882309F454C08091950187
:1010500090E020919E0130919F01821B930B02969C
:101060006AE070E00E946526162FCC24CA94C60E52
:101070006E2D8C2D0E94811EA82EBB24B394BE0C15
:101080006B2D8C2D0E94811E8130A1F58FEF8A0D72
:10109000823008F094C22EC0882361F191112AC0D9
:1010A0000E941217882331F18091950190E02091E0
:1010B0009E0130919F01821B930B02966AE070E0C3
:1010C0000E946526162FCC24C394C60E6E2D8C2D3F
:1010D0000E94811EA82EBB24B394BE0C6B2D8C2DB8
:1010E0000E94811E813031F48FEF8A0D823010F022
:1010F0000C94CE10D6FECAC06E2D812F0E94811E88
:10110000082F8091950190E020919E0130919F01E0
:10111000821B930B6AE070E00E9465266C01892BAC
:1011200019F481E0810F01C0812F6E2D0E94811E74
:10113000282E552453945E0CC114D10419F481E077
:10114000810F01C0812F652D0E94811E482EC11480
:10115000D10419F08FEF810F01C0812F652D0E94FE
:10116000811E382E822D0E94BC20682E47019924B2
:101170005FEF851A950AA12EB12CA401B501832D2C
:101180000E94001E782E0E94121790919C019B30A5
:1011900089F4882311F40C949B137110C1C064E08E
:1011A000261621F0043011F00C949B1368E087E0C0
:1011B0000C9435110E94641F882341F08DEF800F3D
:1011C000823010F00C94E7100C94D510C114D104A7
:1011D00019F481E0810F01C0812F6E2D0E94811EC4
:1011E000782EC114D10419F481E0810F01C0812F40
:1011F000652D0E94811E682E62E06E0DC114D1041F
:1012000019F481E0810F01C0812F0E94811E482EB8
:10121000862D0E94BC20682E872D0E94BC2088232A
:1012200011F40C943811662011F40C943811350126
:101230008FEF681A780AA401B301842D0E94001E62
:10124000882311F40C942A1164E081E00E94251790
:1012500010929C018091A0019AE0E99E800D1124DA
:1012600080939601809195018C3310F482E0C2C086
:1012700020919E0130919F0129363F4F24F010921A
:1012800097018EEFC3C087FFF1CF8AC1D5FEC4C0DE
:101290006E2D812F0E94811E082F8091950190E074
:1012A00020919E0130919F01821B930B6AE070E0B8
:1012B0000E9465264C01892B19F48FEF810F01C024
:1012C000812F6E2D0E94811E382E772473947E0C00
:1012D0008114910419F081E0810F01C0812F672DE5
:1012E0000E94811E482E832D0E94BC20582E57013B
:1012F000BB24BFEFAB1ABB0AC12ED12CA501B6018E
:10130000842D0E94001E682E0E94121790919C014D
:101310009B30B9F4882311F40C949B13662031F0B0
:1013200010929C010E94B9140C94C313E4E03E1681
:1013300021F0043011F00C949B1369EF86EF0C94AC
:1013400090110E94641F882331F08DEF800F82304E
:1013500008F0ADC7B7C78114910419F48FEF810F5E
:1013600001C0812F6E2D0E94811E082F81149104CF
:1013700019F48FEF810F01C0812F672D0E94811E0C
:10138000782E62E06E0D8114910419F48FEF810FB5
:1013900001C0812F0E94811E182F872D0E94BC2022
:1013A000782E802F0E94BC20882311F40C94C31344
:1013B000772011F40C94C313F1E0CF1AD108A501E2
:1013C000B601812F0E94001E882309F49DC76FEF8C
:1013D0008CEF0E94251710929C018091A0012AE0B9
:1013E000E29E800D112480939601809195018D33AA
:1013F00020F08EEF80939701D1C020919E01309113
:101400009F0137FF06C01092970182E08093A201EE
:10141000C7C08111EECFC4C0D7FE85C080919601B0
:1014200090E02091A0013091A101821B930B0896BE
:101430006AE070E00E9465267B01B62E0E941217BA
:10144000D82E882319F06FEF6E0D01C06E2D812FFD
:101450000E94811EC82EDD2019F0BB24B394BE0C5F
:101460006B2D812F0E94811E90919C019530A4F0DC
:10147000973044F09B3081F4043009F068C7D110F4
:1014800062C765C7DD2061F1033009F083C08FEFCB
:101490008C0D823028F57EC00E94B9148091950190
:1014A00090E020919E0130919F01821B930B2AE0D6
:1014B00030E0B9010E946526863020F0A901481B62
:1014C0005109CA0105970CF067C0033009F064C0E8
:1014D0008FEF8C0D823008F45FC085E080939C0113
:1014E00080919E015AE0159F800D112480939501F3
:1014F000109297011092A20180919601883120F0FC
:101500008EEF809398014EC02091A0013091A101EF
:1015100037FF06C01092980182E08093A3017FC03C
:101520008111EECF7CC0D4FE40C08091960190E046
:101530002091A0013091A101821B930B08966AE0D3
:1015400070E00E9465267B01D62E0E941217C82EDD
:10155000811104C76FEF6E0D812F0E94811EB82E7E
:10156000CC2019F0DD24D394DE0C6D2D812F0E9448
:10157000811ED82E80919C018B3009F059C6043011
:1015800009F4DFC6CC2009F401C784EF8B0D843049
:1015900008F0FCC60E94B914109297011092A201A3
:1015A000109298011092A3013AC080919801823064
:1015B00009F4BBCF8091A3018E3F89F5B6CF53E0EC
:1015C000A51609F497CD84EF80939C0110929701A2
:1015D0001092A20147E06B2D8C2D0E94A81E8091D5
:1015E0004607843181F0E82FF0E09F01220F331F7E
:1015F000E20FF31FE65FF84FC082B1829CED928349
:101600008F5F8093460780914C0780934D070E941F
:10161000EF1680934C0787E193E00E94D1158091EB
:101620004A0780FD68CC1092B5021092C302109256
:10163000D1021092DF021092ED021092FB0284EBB5
:10164000682E82E0782EF301808184FF4BC0828176
:1016500093816AE070E00E947926D62E68878481A3
:1016600095816AE070E00E947926F62E69878D2DBB
:101670000E94811EB82ECC24C394CF0C6C2D8D2DCE
:101680000E94811E982EF6E0BF1206C0D301189664
:101690008C91882309F487C6F30182858D3014F577
:1016A000228133813B872A87C9016AE070E00E946A
:1016B0007926892BB9F404811581C8016AE070E0AC
:1016C0000E947926892B71F4E384EE2009F48BC6FD
:1016D000D30118968C9181117DC6F3011782838501
:1016E00081508387BEE06B0E711CE8E06E16E3E06C
:1016F0007E0609F0A8CFFFCB80910001885083308F
:1017000030F480910001833009F0C9C1CDC1C12CF2
:10171000D12C812C712CA12CB12CE0909E01F09049
:101720009F01EA0CFB1CC70109968938910528F531
:101730000091A0011091A1010C0D1D1DC801099679
:1017400089349105D0F4682D872D0E94811E982E32
:10175000882339F0282F43E85BE0B801C7010E94D5
:10176000E41529EF290D243040F4B8016A507109BD
:1017700043E453E0C7010E94E4157394FAE0AF0E0E
:10178000B11C2CE17212C9CF83943AE0C30ED11C74
:1017900040E18412BFCF80910001853021F080911B
:1017A00078018823F1F080919C01082F001F002709
:1017B000001F082E000C990B97FF03C0919581958F
:1017C0009109880F990BFC01E35EFE4F4081518126
:1017D0006091960170E08091950121E090E00E9477
:1017E000AF1C14EBA12E12E0B12E7501D7018C9124
:1017F00084FFADC012960D911C91139760909E01CD
:1018000070909F014301800E911E14968D919C91C2
:101810001597C090A001D090A101C80ED91E1B96AB
:10182000EC914E2F50E04331510508F088C0FA0189
:10183000EA5AFF4F0C94E227F7018285082F001F18
:101840000027001F082E000C990B97FF03C09195ED
:1018500081959109880F990BFC01E35EFE4F408151
:10186000518170C0F1E08F1A910869C02FEF821A80
:10187000920A65C032E0C31AD108FCC644E0C41A1B
:10188000D10807C056E0C51AD108F4C668E0C61AE8
:10189000D10800E04DE653E055C0AAE0CA1AD108CD
:1018A0009C012A503109F701358324831386C8012E
:1018B0006AE070E00E947926262EC9016AE070E095
:1018C0000E947926462E55245A94520C852D0E944A
:1018D000811E8F8333243394340C632D852D0E9415
:1018E000811E888755245394520C642D852D0E94A7
:1018F000811E482E632D852D0E94811E582E8091B9
:10190000950190E0861997098017910764F48F81FB
:101910000E94BC20882309F4A5C688850E94C520A2
:10192000811197C69FC6842D0E94BC20882309F48C
:1019300090C6852D0E94C520811194C68AC600E0FC
:101940004FE853E021E0B601C4010E94AF1CFEE065
:10195000EF0EF11C28E0E21623E0F20609F046CF74
:1019600040909501512C80919E0190919F01481AC1
:10197000590A60909601712C8091A0019091A1016B
:10198000681A790AD5018C9184FF7FC012968D91D7
:101990009C911397F201E81BF90B14962D913C9141
:1019A0001597A301421B530B9A01C09096014C2D31
:1019B00050E0421B530BE0909501473F6FEF5607F5
:1019C000C4F42E2D30E02E1B3F0B2F3FAFEF3A0714
:1019D0000CF454C62C3731050CF058C6E394EE1ABB
:1019E0008E2DBFEA8B2EB3E09B2E45EE53E090E0A8
:1019F0003AC045335105C4F02E2D30E02E1B3F0B6D
:101A00002F3FBFEF3B070CF449C62C3731050CF0D4
:101A10004EC6E394EE1A8E2DA0EA8A2EA3E09A2EEB
:101A200044ED53E093E31FC0F12CEE1AFF0AECEFF4
:101A3000EE16EFEFFE064CF49C2D921BF2EC8F2E6F
:101A4000F3E09F2E4BEF53E030C6FCE7EF16F104B6
:101A5000E4F09C2D921BEEEB8E2EE3E09E2E46EFE3
:101A600053E08CE702C08F3F81F0C92ED12CE82EC5
:101A7000F12C00E020E0B601C7010E94AF1C21E07C
:101A8000A401B601C7010E94AF1C2EE0A20EB11C3A
:101A900038E0A31633E0B30609F074CF32CE8730B6
:101AA00049F480919D0101C084E08093000100E031
:101AB00010E067C098EF980F9330C8F78A3069F448
:101AC00000E021E04BE554E069E170E08AE290E05B
:101AD0000E94AF1C09E210E03BC0883029F400E00E
:101AE00021E04AE254E02FC010918402812F64E685
:101AF0000E94D627082F282F47EC54E069E170E0B8
:101B000088E490E00E94E415812F44E6049F801948
:101B100011246AE00E94D627192F282F47EC54E0A1
:101B200069E170E08DE490E00E94E415212F47EC1C
:101B300054E069E170E082E590E00E94E41500E085
:101B400021E040E154E069E170E08BE290E0C0CF39
:101B500041E066E170E0C8010E94F7160E5F1F4F7A
:101B600009351105A9F709E210E041E060E270E0F3
:101B7000C8010E94F7160E5F1F4F09351105A9F71E
:101B800096CF77E3E72EF12C40E0B701C8010E9421
:101B9000F7165FEFE51AF50A60E4E616F104A1F71F
:101BA0000F5F1F4F0038110561F700E010E041E0C2
:101BB00068E370E0C8010E94F7160E5F1F4F0238FD
:101BC0001105A9F78091990190919A01FE01319632
:101BD00026E0DF011D922A95E9F77F019E01295F2A
:101BE0003F4F0AE010E0B8010E9479268193CB01B3
:101BF0002E173F07C1F700E021E041EF54E06AE310
:101C000070E080E090E00E94AF1C06E310E0F70176
:101C100021917F0147EC54E06AE370E0C8010E9423
:101C2000E415055011090831110589F7F0909B0161
:101C300000E021E044EB54E06AE370E080E490E0EF
:101C40000E94AF1C1AE08F2D612F0E94D627092F0A
:101C5000282F47EC54E06AE370E082E590E00E94B0
:101C6000E415202F47EC54E06AE370E087E590E04C
:101C70000E94E41580910001853071F4F090850296
:101C800000E021E049E954E06AE370E080E690E09A
:101C90000E94AF1C8F2D1DC0F090840200E021E057
:101CA00049E854E06AE370E080E690E00E94AF1CEF
:101CB00064E670E08F2D90E00E946526262F082FA5
:101CC00047EC54E06AE370E081E790E00E94E4159D
:101CD000802F612F0E94D627192F282F47EC54E020
:101CE0006AE370E086E790E00E94E415212F47EC5C
:101CF00054E06AE370E08BE790E00E94E4152091E5
:101D00000001253009F0C1C180914A0790914B072D
:101D100080FD1CC02091970121110CC020919801D9
:101D2000211108C02091A201211104C02091A3011A
:101D3000222361F020919C01ECE0E20FEC3120F4D1
:101D4000F0E0EC5EFA4F249120939C018370992778
:101D5000892B09F445C02091970180919501280FA6
:101D6000209395011091980180919601180F10937E
:101D700096018091A201E0909E01F0909F01E80EF3
:101D8000F11C87FDFA94F0929F01E0929E018091F0
:101D9000A3014091A0015091A101480F511D87FD61
:101DA0005A955093A1014093A001812F90E0841B8C
:101DB000950B0596EAE0F0E0BF010E946526362FFC
:101DC000822F90E08E199F090596BF010E9465261B
:101DD000862F632F0E94811E123008F053C01DC051
:101DE000A4EBB2E088E093E02C9124FF11C01B9695
:101DF0002C911B97222309F463C40AC016962C91D8
:101E00001697211167C417962C911797211162C458
:101E10001E968A179B0741F79ECF833099F5109144
:101E200084021F5F80919B018A3018F48F5F80933A
:101E30009B0186E08093000110938402612F82EB66
:101E400090E00E943D271C3908F453C481EB90E0D8
:101E50000E942F27873008F04AC411E0180F612F25
:101E600081EB90E00E943D27612F86EB90E00E947D
:101E70003D270E94E01E81E180939D0180E395E073
:101E80000E94D11580914A0780FF09C080914607C2
:101E9000882309F464C1F12C6DE0E62E86C004EBC2
:101EA00012E0D8018C9184FF54C016968C9116973D
:101EB00012964D915C911397480F511D87FD5A95CD
:101EC00013965C934E93129717968C9117971496CE
:101ED0002D913C911597F901E80FF11D87FDFA95B9
:101EE0001596FC93EE9314972091950130E0809124
:101EF0009E0190919F01281B390B80919601A09122
:101F0000A001B091A101790162E0E60EF11CBA01D5
:101F1000685F7F4FE616F706E4F44E5F5F4FB90146
:101F2000685F7F4F46175707A4F490E08A1B9B0B0E
:101F3000AC014E5F5F4F9F01285F3F4F4217530731
:101F400044F42650310908962817390714F40E94E2
:101F50008421025F1F4F83E00830180709F0A1CFEA
:101F600010E000E0612F802F0E94811E99EF980FF2
:101F7000943030F441E0480F612F802F0E94A81E5A
:101F80000F5F0C3179F71F5F103159F77FCF0F2D9D
:101F900010E06801CC0CDD1CF601E00FF11FE65FDC
:101FA000F84F8281811106C0F39480914607F8169C
:101FB00070F366C081508283803179F030F48130D3
:101FC00071F0883089F74FE04FC0883121F08032BE
:101FD00059F74CE049C04DE047C04EE045C0809104
:101FE000870290E0880F991F84559D4FA4EBB2E0C3
:101FF0005F01AF014F5F5F4F2C9124FF1BC0F501C4
:102000002081FAE02F9F9001112412966D917C910E
:1020100013976217730771F4FA012081FAE02F9F7A
:102020009001112414966D917C9115976217730796
:1020300009F461C31E9623E0A830B207E9F6F60161
:10204000E00FF11FE65FF84F80813D85831306C0E6
:1020500081814C85841302C00E9484210C0D1D1DBA
:10206000F801E65FF84F41E0618180810E94A81E7F
:102070009BCF0E947E1F80914607882309F46FC082
:1020800080910C078130A9F36AC030914C07909180
:102090004D0790959323243009F044C080917A0134
:1020A00032FF32C08E3268F48932D0F083E884BDCA
:1020B0008FEF87BD81EF8093800080E4809388005C
:1020C0000BC0833388F483E884BD8FEF87BD81EF35
:1020D000809380001092880010928A0080917A018B
:1020E0008F5F80937A013BC08091840297FF04C088
:1020F0008B3910F48F5F05C094FF31C0883978F1B7
:102100008150809384022BC0882371F0833300F1C7
:10211000883218F082E08093000110927A019111C8
:1021200017C01DC010927A019923C9F02B3040F4DA
:10213000293048F4273049F0283051F481E00DC0AF
:10214000213169F005C082E008C080919D0105C081
:1021500010924D0710924C0785E08093000180910A
:102160007901811112C380917A0181110EC380918E
:102170008502811106C090910001953019F480E22A
:1021800001C080E093E894BD809587BD81EF809386
:1021900080001092880010928A00F7C263E0A616B1
:1021A00011F40C947A088CE00FCA662009F4EBC293
:1021B000772019F064E081E004C0043029F46AE07B
:1021C00087E00E94251746C866E085E0FACFC11473
:1021D000D10441F4A401B501832D0E94261E811172
:1021E00083C0ABC2611003C071108BC00AC0A401D0
:1021F000B5016F5F7F4F842D0E94001E8111DACFE1
:1022000003C0CD2809F4BFC2B5016F5F7F4FA401A1
:10221000842D0E94261E8111CDCF1092970110921D
:10222000A201882309F4BCC98BE080939C010FC0F4
:1022300063E0D61295C080919E019AE0199F800DAF
:102240001124809395016BEF8AEF0E9425170E945D
:102250002E17E5C9CD2879F4A401B301842D0E947D
:10226000261E8823D1F266E085E00E9425171BC058
:10227000CD2809F488C2652D812F0E94811E182F58
:10228000802F0E94BC20882309F47DC2B5016F5FB6
:102290007F4FA401812F0E94261E882309F4BDCF01
:1022A0008BE080939C010E94B9140C942A0981143C
:1022B000910411F5A501B601842D0E94261E8111FD
:1022C00013C05EC2552009F45EC2662019F06FEF9C
:1022D0008CEF04C0043029F469EF86EF0E942517C3
:1022E0007CC866E085E0FACF8BE080939C0185ECAA
:1022F00091E00E94D1151FC2511024C2662009F43A
:102300001FC210929C013FC2892869F4A501B60141
:10231000812F0E94261E882309F47FCF66E085E086
:102320000E9425170BC0A501B601812F0E94261E11
:10233000882309F472CF8BE080939C010E94B9142A
:102340004CC8CC2019F187E080939C0123C9A701D8
:1023500055274F5F5F4F612F70E01FC06E2DFCC887
:102360008D2D0E94BC20811103C010929C0112C9C6
:10237000D11003C08BE080939C0180919E01AAE064
:102380001A9F800D11248093950161CFA7015527D5
:102390004F5F5F4F612F70E08D2D0E94001E8823DC
:1023A00009F455CFE2CF0E94D8260E94D8262AE011
:1023B00030E040E050E00E947327DC01CB014496FE
:1023C000A11DB11DF301808740E06F2D8D2D0E946E
:1023D000A81E62C9FA946F2D8D2D0E94811E88233C
:1023E00009F42FC17AC96FEF6F0D8D2D0E94811EE8
:1023F0008F836F2DAA24A394AD0C8A2D0E94811E79
:10240000582E6C2D8A2D0E94811E482E6C2DCC24B6
:10241000CA94CD0C8C2D0E94811E382E6F2D8C2DD0
:102420000E94811E282E8091950190E020919E01AE
:1024300030919F01821B930B2A853B85281B390B0A
:10244000C9012091960130E04091A0015091A10175
:10245000241B350B021B130BD30119962C911997D2
:102460002223D1F01F922F923F92892CA42CC52CAD
:10247000EF800B2D1D962C914F2D6D2DC3010E94C9
:102480004817F3019185915091870F900F900F900D
:10249000811128C9148561C097FF1FC0101611064D
:1024A0005CF491958195910908171907C4F180177B
:1024B0009107BCF511E046C001151105A1F19195F8
:1024C00081959109119501951109801791076CF17A
:1024D0000817190764F515E035C00097C9F0101604
:1024E000110644F40817190724F1801791071CF509
:1024F0001FE028C00115110501F111950195110981
:1025000080179107E4F008171907DCF41BE01AC0E4
:10251000111F1127111F110F110F110F13C013E0FD
:1025200011C012E00FC014E00DC017E00BC016E0A0
:1025300009C01DE007C01EE005C01CE003C019E093
:1025400001C01AE0EDEFE10FEC3020F4F0E0EF5EB7
:10255000FE4FE080D3011D96EC92F3018085882325
:1025600089F09FEF990D923068F4B1100BC0815043
:10257000D30118968C93811105C046E06F2D8D2DE7
:102580000E94A81EB1E0BF932F923F92892CA42CE9
:10259000C52CEF800B2D212F4F2D6D2DC3010E94D7
:1025A00048170F900F900F9081119CC8F12E08E0F2
:1025B000D02E112311F0115001C01FE0E1E0EF9384
:1025C0002F923F92892CA42CC52CEF800B2D212F0C
:1025D00049856885C3010E9448170F900F900F909E
:1025E000882339F0D3011A968C918B3009F07AC880
:1025F0001EC0BFE0FB1611F0F39401C0F12CE1E026
:10260000EF932F923F92892CA42CC52CEF800B2D99
:102610002F2D49856885C3010E9448170F900F90A0
:102620000F908111DFCFDA94D110C3CFDBCF892D8A
:102630000E94C520882309F455C8D30117961C921F
:1026400051C8F301108646E06F2D8D2D0E94A81E03
:1026500044C8EFEFD7011A96EC931A97FEEF16963F
:10266000FC9308C081E0D7011A968C931A97E2E098
:102670001696EC9300E04EE753E064C937EB832EE7
:1026800033E0932E4EEE53E090E00FC02DEC822EFF
:1026900023E0922E48E054E090E010C098EA892EA2
:1026A00093E0992E4DED53E092E380E0DEC986EC95
:1026B000882E83E0982E40E054E092E38BE7D5C962
:1026C0001A96EC911A9723EF2E0F233008F096CB31
:1026D000E45F05C02CE02E0F2C3128F4E22FF0E04F
:1026E000EC5EFA4FE4911A96EC931A9791CB82E143
:1026F000C3CB89E0C1CBFC0160812181FAE06F9FEF
:10270000B001112413967C936E9312976AE0269F72
:102710009001112415963C932E9314971A96EC92DF
:102720001A971B961C921B9716961C921697179633
:102730001C9217977FCC81E070CD61103BCD54CDBA
:10274000892809F1672D812F0E94811E182F802F63
:102750000E94BC20882349F0A501B601615071098F
:10276000812F0E94001E8111B2CDB6016150710906
:10277000A501812F0E94261E882309F44ECDA7CDE6
:102780005110A5CDBBCD80E048CD2D960FB6F89465
:10279000DEBF0FBECDBFDF91CF911F910F91FF9094
:1027A000EF90DF90CF90BF90AF909F908F907F90F1
:1027B0006F905F904F903F902F900895CF92DF924F
:1027C000EF92FF920F931F93CF93DF936C017A01E7
:1027D0008B01C0E0D0E0CE15DF0581F0D8016D910E
:1027E0008D01D601ED91FC910190F081E02DC601A3
:1027F0000995892B11F02196EECF7E01C701DF915B
:10280000CF911F910F91FF90EF90DF90CF9008959F
:1028100080918401E0918201F0918301882349F045
:10282000CF010296909383018093820185919491C8
:102830000895CF0102969093830180938201808155
:102840009181089580917B0108950895089580E015
:1028500090E00895FC012285261714F0421714F425
:10286000FC01628708950E94E827BF92CF92DF9211
:10287000EF92FF920F931F93CF93DF93FC01668338
:102880004783862F880F880F860F382F3F70942F2D
:10289000990F990F940F50E19502C0011124832BD9
:1028A000818367FF02C08CE003C0662311F084E0DF
:1028B000848747FF02C0148604C0442311F088E0D7
:1028C0008487222309F44BC08185811148C0EF0120
:1028D0008485811134C01D868A819B812AE030E085
:1028E000B9010E947926162F8C819D81B9010E9421
:1028F0007926FF24FA94F60E00E0CC24CA94C10E87
:10290000BB24B394B10EDF2CD01A6D2D812F0E9401
:10291000811E833091F46D2D8C2D0E94811EE82E36
:102920006D2D8B2D0E94811E0F5F9DEF9E0D9230AD
:1029300020F09DEF980F923060F4098710C00E943C
:10294000D82626E030E040E050E00E9473276987F7
:1029500006C08111D8CF81508330A8F6EECFDF9129
:10296000CF911F910F91FF90EF90DF90CF90BF908C
:102970000895E1E7F0E080818D7F808310929100DF
:1029800046984798109281010895CF92DF92EF9276
:10299000FF920F931F93CF93DF930E94081481152A
:1029A00020E8920751F4DF91CF911F910F91FF9092
:1029B000EF90DF90CF900C94B91421E02093810127
:1029C000813020E8920751F480917F01909180013D
:1029D00090938301809382010E94081497FD05C0A3
:1029E00020917E01222309F440C020917D01211114
:1029F0003CC021E020938501EC01DF77209769F44A
:102A000081E08093860146983FE9C32E3FE0D32EB4
:102A1000E12CF12CCAEFD0E014C08E0120E030E0B0
:102A200060E472E48FE090E0A90198010E947327AE
:102A300069017A0181E0C81AD108E108F108109211
:102A40008601E0910807F09109070995811103C0FB
:102A500081E08093860180918501882309F43FC03D
:102A60008091860181113BC003C010928501C4CFC3
:102A7000469935C0479A0E940814009771F09C014E
:102A8000DE010E94C727DC01CB0129E0B595A7959F
:102A9000979587952A95D1F703C08FEF9FEFDC01BB
:102AA000109290002AE020939100D0929900C09259
:102AB00098008093870190938801A0938901B09337
:102AC0008A0180917100826080937100DF91CF91C3
:102AD0001F910F91FF90EF90DF90CF90089547984E
:102AE000CACF1F920F920FB60F9211242F933F93CC
:102AF0004F935F936F937F938F939F93AF93BF9306
:102B0000EF93FF938091870190918801A0918901B3
:102B1000B0918A01892B8A2B8B2B81F180918601C0
:102B200081110BC098B180E4892788B98091850113
:102B3000882319F088B1805888B9809187019091D5
:102B40008801A0918901B0918A01181619061A0608
:102B50001B06B4F48091870190918801A0918901AE
:102B6000B0918A010197A109B109809387019093DF
:102B70008801A0938901B0938A0102C00E94C51404
:102B8000FF91EF91BF91AF919F918F917F916F9145
:102B90005F914F913F912F910F900FBE0F901F901B
:102BA00018959C01E1E7F0E090819D7F908381E0A2
:102BB00080938401309383012093820130938001BC
:102BC00020937F010C94C5144F925F926F927F9275
:102BD0008F929F92AF92BF92CF92DF92EF92FF922D
:102BE0000F931F93CF93DF9300D000D0CDB7DEB704
:102BF000DC014115510509F4D8C0FA01F490319671
:102C000094914E5F5F4FCF2CD12C2223D9F0E1E07D
:102C1000F0E0892F877011F4E0E0F0E0892F8695CD
:102C200086958695E80FF11DEC9D8001ED9D100DB8
:102C3000FC9D100D1124209FF001219FF00D112407
:102C40004E0F5F1FF601EA0FFB1F1E161F060CF04A
:102C5000ACC0A038B1050CF0A8C09B01290F311DF4
:102C6000121613060CF0A1C0603471050CF09DC063
:102C70004115510509F499C0062F0770B02E9B012C
:102C800077FF02C0295F3F4F83E0359527958A95EE
:102C9000E1F7822F77FF04C0BB2011F08FEF820F86
:102CA000B7FF05C0222733272A1B3B0B02C020E0B9
:102CB00030E0E038F10524F070E87A1B672E01C09F
:102CC0006F2C621A082F082E000C110B8F3F1CF47A
:102CD000F02FF09501C0F0E0EE24E394692F6770C7
:102CE00009F4E12CE92FE695E695E6959E2D9E0FD9
:102CF000090F111D0930110514F098E0981B6F2F72
:102D0000680F8901FF9E000D111D1124400F511FF6
:102D100001E010E00B2C02C0000F111F0A94E2F733
:102D2000EFEFE09F7001E19FF00C1124E094F0942C
:102D3000FC82EB82AC8070E86703A00DB11D11240A
:102D40002A0F3B1F285F3C4F992E980E961669F16B
:102D5000D9012A01842D841B861508F5F20184907F
:102D6000809EC001819E900D11249A83898367FD06
:102D700004C09C919E21892B8C93BB2059F0673015
:102D80004CF4CD0180589F4FFC0180808A207A80CE
:102D900087288082FFEF4F1A5F0A1196DBCF6F5FA3
:102DA0004C0D5D1D20583F4FD1CF0F900F900F90CD
:102DB0000F90DF91CF911F910F91FF90EF90DF90D7
:102DC000CF90BF90AF909F908F907F906F905F90CB
:102DD0004F900895BC0180E090E00C94751C8FB179
:102DE0008095807F669B88601C9B846008958038F6
:102DF0009105B8F460347105A0F490E121E061FD23
:102E000024E060FD220F62FD2295687F969FD0012D
:102E10001124A80FA85FBC4F8C91822B40FF822702
:102E20008C9308958091960190E02091A0013091BB
:102E3000A101821B930B6AE070E00E9465269C0151
:102E400081E0232B09F080E0089590919C01981770
:102E500014F0691714F480939C010895109297015F
:102E60001092A20182E0809398011092A3018091B8
:102E70009601873160F08091A0019091A10189397C
:102E80009F4F2CF0109298018EEF8093A30108952C
:102E90003F924F925F926F927F928F929F92AF92EA
:102EA000BF92CF92DF92EF92FF920F931F93CF9337
:102EB000DF93CDB7DEB7142F902E3C88BE8830E06C
:102EC0002031310508F028C1082D7E2D462E3C0109
:102ED000F901E558FF4F0C94E227EE2029F07350DA
:102EE000723010F010E001C011E046EF60E0C30165
:102EF0000E940C1F93E099120FC1112309F40CC119
:102F000081110AC146E065E0C3010E942A142B2DFD
:102F10004EEF60E0C3010E9435140FC140E06AE04B
:102F20000E940C1F91E0D82ED926E12EF12CEFEF54
:102F3000EE1AFE0A512CA701B201882D0E94551EDF
:102F4000382EB2016F5F7F4FA7018A2D0E94551E58
:102F5000F82E8C2D0E94BC20182F8A2D0E94C5208F
:102F6000F4E0CF1205C0DD2019F04AE067E00DC0A3
:102F700094E0991211C01123C9F0882309F4D0C03C
:102F8000DD2009F4D4C044E061E0C3010E942A14AA
:102F90002B2D40E062E099C0E3E09E1207C01123B0
:102FA00029F0DD2019F046E065E0EFCF311093C045
:102FB000882321F0112309F4AFC006C0112309F4BE
:102FC000ABC0FF2009F4A8C0DD2009F4A5C0DBCF09
:102FD0004AE060E00E940C1F91E0F82EF926412F94
:102FE00050E04F5F5F4F642D70E0882D0E94551EAA
:102FF000033061F4FF2009F48FC04BEF6AEFC30187
:103000000E942A142B2D42E060E05FC0882309F45F
:1030100083C0FF2009F480C08BE0F30182872B2D51
:1030200042E060E0C3010E9435140750093008F007
:1030300075C08FE1F301838771C040E066EF0E94A5
:103040000C1F91E0582E5926E12EF12CFFEFEF1ABC
:10305000FF0AC42CD12CA701B601882D0E94551E51
:10306000A82EB60161507109A701832D0E94551E3B
:10307000F82E8D890E94BC20182F832D0E94C52018
:103080009D89943029F4552019F049EF66EF17C057
:10309000E4E09E120BC01123E1F0882309F444C040
:1030A000552009F447C04FEF6CEF09C0F3E09F12C1
:1030B00010C0112371F0552061F046E065E0C301B6
:1030C0000E942A142B2D40E06EEFC3010E9435149C
:1030D00025C0AA20A1F08BE0F30182872B2D42E0CE
:1030E00060E0C3010E94351407500930B8F48FE145
:1030F000F301838788E79DE00E94D1150FC08823E4
:1031000029F0112349F0552039F0CDCF112321F0BA
:10311000FF2011F05110B9CF10E00FC011E00DC029
:10312000332009F44ECFD7CFAA2091F3D4CF332048
:1031300099F3D1CFAA2081F3CECF812FDF91CF9108
:103140001F910F91FF90EF90DF90CF90BF90AF90C5
:103150009F908F907F906F905F904F903F900895D9
:10316000CF93DF931F92CDB7DEB76983DC01ED917A
:10317000FC910280F381E02D41E050E0BE016F5FE1
:103180007F4F09950F90DF91CF91089583E0809351
:10319000E9008091F200882319F08AE38093E80027
:1031A0000895FC018485958597FD0BC09FB7F89421
:1031B00082E08093E9008091F2009FBF90E0019649
:1031C00008959FB7F89482E08093E9008091F2001F
:1031D0009FBF90E0089540918E0150918F01209102
:1031E0008C0130918D0142175307B4F49091E8009F
:1031F0009570E1F39091E80092FD19C08093F10081
:1032000080918E0190918F0101968F739927892B60
:1032100019F48EEF8093E80080918E0190918F01D8
:10322000019690938F0180938E0181E0089580E054
:103230000895DF92EF92FF920F931F93CF93DF9346
:10324000D82E8A017B01E40EF51EEB01CE15DF05B9
:1032500071F0D7FE03C0FE01849101C088810E94F5
:10326000EB1821968111F2CF8FEF9FEF01C0C801BB
:10327000DF91CF911F910F91FF90EF90DF90089514
:10328000615030F02091F100FC0120830196F8CFCD
:10329000289884E68093930108950E94D51F90E0BA
:1032A00008950F931F93CF93DF931F92CDB7DEB78F
:1032B0008C01FC018485958597FF0EC0CE01019697
:1032C0000E94A71F019719F4898190E002C08FEF37
:1032D0009FEFF80195878487F801848595850F9085
:1032E000DF91CF911F910F910895CF93DF931F929C
:1032F000CDB7DEB7FC018485958597FD05C02FEF1E
:103300003FEF358724870BC0CE0101960E94A71F8F
:10331000019719F4898190E002C08FEF9FEF0F9021
:10332000DF91CF9108950F931F93CF93DF931F9257
:10333000CDB7DEB782E0898342E450E066E87DE005
:1033400080E80E9419190E946C20DC0112960D91F0
:103350001C9113970115110589F0D801ED91FC918D
:103360000280F381E02DBE016F5F7F4FC801099598
:1033700097FD04C0F80100851185ECCF89810F907D
:10338000DF91CF911F910F9108951F920F920FB669
:103390000F9211248F939F938091E1009091E1000F
:1033A000937F9093E10083FF0FC01092E90091E0BA
:1033B0009093EB001092EC0092E39093ED0010924A
:1033C000940198E09093F00082FF20C093E09093E6
:1033D000E9009091F200992319F09AE39093E800A4
:1033E00090919101992339F090919101915090938E
:1033F0009101992389F190919301992339F090914A
:103400009301915090939301992341F184FF10C04F
:103410008091E2008E7E81608093E2008091E100E5
:103420008F7E8093E100809192018E7E806111C039
:1034300080FF16C08091E2008E7E80618093E20062
:103440008091E1008E7E8093E100809192018E7EDA
:1034500081608093920104C05D9ACDCF289AD6CF27
:103460009F918F910F900FBE0F901F9018951F92F4
:103470000F920FB60F921124CF92DF92EF92FF922C
:103480000F931F932F933F934F935F936F937F936C
:103490008F939F93AF93BF93EF93FF93CF93DF935C
:1034A000CDB7DEB76C97DEBFCDBF1092E90080913B
:1034B000E80083FFFBC168E0CE0145960E944019F9
:1034C00082EF8093E8008D8987FF05C09091E80026
:1034D00090FFFCCF03C09EEF9093E800982F90766A
:1034E00009F0C6C09E894F89588D2F89F88C91119B
:1034F0000CC0803829F480918B018093F10002C0C8
:103500001092F1001092F10045C1913051F48111F7
:1035100041C14130510509F03DC180918B018D7F42
:103520000BC0933061F4811135C14130510509F070
:1035300031C180918B01826080938B012BC19530CA
:1035400049F48091E80080FFFCCF822F806880934F
:10355000E30020C1963009F05EC00B8D1C8D22E087
:103560001092E90010928F0110928E01F21232C077
:1035700010928D0110928C010E94931999E0BE0166
:103580006F5F7F4FDB01E92F1D92EA95E9F7998381
:10359000FA8291E09E8390EA98879AEF998720912A
:1035A0008E0130918F01275F3F4F3C832B838D83AA
:1035B0001092E90010928F0110928E0110938D01EC
:1035C00000938C0149E050E080E00E9419190E94AC
:1035D0009319E0C010938D0100938C010E946C2020
:1035E000DC0112960D911C9113970115110509F438
:1035F000BBC0D801ED91FC910480F581E02DBE01A6
:103600006B5E7F4FC8010995009709F0C7C0F801AC
:1036100000851185EACF973009F445C1983021F42F
:1036200081E08093F100B6C0993009F0B3C0837097
:1036300009F039C1E9E5F1E081E031E096E320816C
:10364000211109C08EE78093EA001092EA008F8969
:10365000809394019FC08093E9003093EB00219107
:103660002093EC009093ED008F5F873041F7EACF15
:103670008B8D9C8D1092E90010928F0110928E011B
:1036800090938D0180938C01898D811153C08E8917
:103690009D89913A49F4813209F005C147E050E033
:1036A00065E071E080E0BBC0913209F0FCC083327C
:1036B00069F48F89988DA0E0B0E080930101909328
:1036C0000201A0930301B093040164C0803269F445
:1036D0008091E80082FFFCCF67E085E091E00E94E6
:1036E00040198BEF8093E80055C0823209F052C038
:1036F0008F8980930C01EEEFFFE7859194918B3FCA
:103700009C4D19F0E0E0F8E002C0EEEFFAE08091A5
:10371000050190910601A0910701B0910801803B3D
:103720009440A105B10509F09EC080910C0180FF75
:1037300079C099C00E946C20FC010281138101159F
:10374000110509F4B0C0D801ED91FC910190F08110
:10375000E02DBE016B5E7F4FC801099581111AC033
:10376000F80100851185EBCFF1E0FF1609F44EC09A
:10377000F3E0FF1298C08F89882309F44AC0823091
:1037800089F440E867E08AEE9DE00E94E425882302
:1037900009F489C08EEF8093E80088C018161906D6
:1037A000CCF381C0813029F440E86BE08EED9DE0E0
:1037B000ECCF833009F077C00E946C20DC011296B8
:1037C000ED90FC9013978E010F5F1F4F6801E1147D
:1037D000F10479F0D701ED91FC910680F781E02D9D
:1037E000B801C7010995080F111DF701E084F184A4
:1037F000EECFD8011C92F60101900020E9F7319735
:10380000BF016C197D0940E0C601BFCF6CEC7DE0C3
:1038100002C068EC7DE0FB01449150E080E80E942A
:103820001919B8CFEE3F2AE0F20751F0808191815B
:103830008737A7E79A0721F09093FF0A8093FE0A43
:1038400087E797E791838083809160008093900160
:103850009BE088E10FB6F894A895809360000FBEB6
:103860009093600097CF808191818737974709F0C7
:1038700091CFA895809160008861809360008091CD
:10388000900180936000EE3FBAE0FB0739F0809131
:10389000FE0A9091FF0A918380837CCF1092FF0AE9
:1038A0001092FE0A77CF81E28093EB006C960FB600
:1038B000F894DEBF0FBECDBFDF91CF91FF91EF91A6
:1038C000BF91AF919F918F917F916F915F914F9138
:1038D0003F912F911F910F91FF90EF90DF90CF902C
:1038E0000F900FBE0F901F9018958F929F92AF92DE
:1038F000BF92CF92DF92EF92FF926B017C010E9408
:1039000015214B015C01C114D104E104F104F1F073
:103910000E941521DC01CB0188199909AA09BB096C
:10392000883E9340A105B10570F321E0C21AD10889
:10393000E108F10888EE880E83E0981EA11CB11CF6
:10394000C114D104E104F10419F7DDCFFF90EF9029
:10395000DF90CF90BF90AF909F908F9008952F925F
:103960003F924F925F926F927F928F929F92AF920F
:10397000BF92CF92DF92EF92FF920F931F93CF935C
:10398000DF93CDB7DEB72F970FB6F894DEBF0FBE2B
:10399000CDBF4C017B012C870D875A8349831C8244
:1039A0001B821D821E8268E070E0CE0101960E949B
:1039B000D0201C019C012F5F3F4F3B872A8768E086
:1039C00070E0CE0101960E94D0208C0161E070E091
:1039D000CE0101960E94D0202A853B85280D391DF5
:1039E00037FDF5C030E8831691040CF0F0C00F5F8E
:1039F0001F4F98012E0D3F1D37FDE9C040E4E4162E
:103A0000F1040CF0E4C06701F7FE04C0CC24DD240F
:103A1000CE18DF0857E0C522DD249701F7FE02C06B
:103A2000295F3F4F390123E0759467942A95E1F7A8
:103A3000F7FE09C091E0691A710828E030E0A90199
:103A40004C195D096A01980117FF02C0295F3F4FB9
:103A5000290193E0559447949A95E1F7077011274F
:103A6000012B19F05FEF451A550A0D85002311F05F
:103A7000710102C0E12CF12C898701E010E0A12C3A
:103A8000B12C88E090E09C012C193D093F872E87DE
:103A9000A414B5040CF09BC041E050E058874F835C
:103AA00061E070E0CE0101960E94D020892B31F4B4
:103AB0008F819885029698878F83F2CF6F81788562
:103AC000CE0101960E94D020DC01119640E050E02A
:103AD0004A175B0708F072C099859111102B000FEF
:103AE00009F069C093012A0D3B1DC9010196099790
:103AF00008F043C0C4018E0D9F1D80389105E8F584
:103B0000B9017695762F662777956795680D791DAB
:103B10006E0D7F1D2F3F0FEF300709F454C0812F2A
:103B20000C2C01C0880F0A94EAF7FB01E85FFC4FF8
:103B30000C85002319F09081892B03C0809590811A
:103B400089238083C114D104C1F027303105A9F045
:103B5000812F90E00E8402C0959587950A94E2F734
:103B6000FB01E857FC4F2C85222319F01081812B93
:103B700003C080951081812380830D85011110C0C1
:103B80002FEFE21AF20A8A859B85E816F9068CF077
:103B90009FEFA91AB90A01E010E0E12CF12C0BC04B
:103BA00001E0E01AF108F7FE04C02FEFA21AB20AF2
:103BB000710101E010E04F5F5F4F8ACF398541E02E
:103BC0003427398765CFC114D10411F6D6CF2F968B
:103BD0000FB6F894DEBF0FBECDBFDF91CF911F911E
:103BE0000F91FF90EF90DF90CF90BF90AF909F909C
:103BF0008F907F906F905F904F903F902F9008959F
:103C00008150833008F18AE0869F9001879F300DB4
:103C10001124849FB001859F700D1124E4EBF2E024
:103C2000808184FF0AC0828193818217930729F4DF
:103C3000848195818617970739F03E9683E0E830B6
:103C4000F80771F780E0089581E00895873028F43F
:103C5000843038F5882329F126C0803120F58AE0A8
:103C6000869F9001879F300D1124849FB001859F0E
:103C7000700D1124E4EBF2E0808184FF0DC0828599
:103C80008B3051F4828193818217930729F48481C8
:103C900095818617970739F03E9683E0E830F8075C
:103CA00059F781E0089580E00895853031F118F4E6
:103CB000882319F124C08750883008F58AE0869F50
:103CC0009001879F300D1124849FB001859F700D56
:103CD0001124E4EBF2E0808184FF0AC082819381A9
:103CE0008217930729F4848195818617970739F005
:103CF0003E9683E0E830F80771F781E0089580E0B0
:103D000008958C31F8F46F3FF9F06031F8F4982F92
:103D1000969570E080FD0BC080E1989F600D711D4D
:103D20001124FB01E256FE4F8681829509C080E195
:103D3000989F600D711D1124FB01E256FE4F868194
:103D40008F70089581E0089580E0089582E00895DD
:103D5000982F9695E62FF0E080FD0EC080E1989FA9
:103D6000E00DF11D1124E256FE4F86818F7090E127
:103D7000499FA001112409C080E1989FE00DF11D29
:103D80001124E256FE4F8681807F482B468308959A
:103D9000CF93DF9382EB90E00E942F2780938402E1
:103DA00083EB90E00E942F27C5E9D1E08E8384EB5E
:103DB00090E00E9437279D838C83DF91CF910895F7
:103DC0001F93CF93DF93C09184026C2F82EB90E01E
:103DD0000E943D276C2F87EB90E00E943D27C5E9AC
:103DE000D1E01E81612F83EB90E00E943D27612F7F
:103DF00088EB90E00E943D270C80DD81C02DBE0144
:103E000084EB90E00E944F27BE0189EB90E0DF91A8
:103E1000CF911F910C944F27EF92FF920F931F9316
:103E2000CF93DF93DC01E4EBF2E088E093E0062E31
:103E3000000C770B042E000C550B208124FF1EC0B4
:103E40002F703C913F702317C9F01181212F2F70E3
:103E5000C281D381C20FD11D12962D913C9113972F
:103E6000260F371F7E010AE0E00EF11C2E153F05DC
:103E70002CF4265F3F4FC217D30734F03E968E17BF
:103E80009F07D9F680E019C012951F70C481D581B3
:103E9000C10FD11D14962D913C911597240F351FFC
:103EA0007E010AE0E00EF11C2E153F053CF7265F6F
:103EB0003F4FC217D30714F781E0DF91CF911F91D5
:103EC0000F91FF90EF9008958091960190E02091DE
:103ED000A0013091A101821B930B2AE030E0B901CF
:103EE0000E946526863020F0A901481B5109CA01AD
:103EF00021E005970CF020E0822F0895CF92DF9209
:103F0000EF9220914607822F90E0FC01EE0FFF1FF9
:103F10008E0F9F1FFC01E65FF84FC080D180E280CA
:103F20008FEF820F80934607EAE0F7E090E0981762
:103F300040F42381348145812193319341939F5FE4
:103F4000F6CF8E2DB601EF90DF90CF90089520919F
:103F50009401211103C08FEF9FEF08955FB7F8948C
:103F600022E02093E9002091F20030E012161306BF
:103F700014F421E030E0422FFC0184E6415038F097
:103F80002898809393019091F1009193F7CF211598
:103F9000310521F08091F200882319F05FBFC9013B
:103FA00008958BE68093E800F9CF2FB7F89483E06B
:103FB0008093E9009091E800892F807295FF04C0FA
:103FC0009091F20080E4891B2FBF08958F929F92F9
:103FD000AF92BF92CF92DF92EF92FF920F931F9317
:103FE000CF93DF936C017B018A0180910C018823C0
:103FF00009F45CC080919401882309F457C0809132
:10400000920180FF05C08091E00082608093E00013
:10401000E801B12C8AEFA82E93E0892E2AE3922E94
:10402000209711F4BB20D9F10E94D51F81110AC03D
:10403000AA94AA20D9F161E070E080E090E00E94AB
:10404000751CEECF282F30E0C217D3070CF48C2F4D
:104050009FB7F8948092E9002091E80025FF1DC0E9
:10406000282F30E0C21BD30BF701815020F0419183
:104070004093F100FACFE20EF31EBB2019F09092AC
:10408000E8000AC08091E80085FD07C09092E80032
:10409000BB24B394209709F0B12C9FBFC1CF5D988A
:1040A00084E6809391011016110644F081E090E0BF
:1040B000F6019383828380E090E001C0C801DF9124
:1040C000CF911F910F91FF90EF90DF90CF90BF9015
:1040D000AF909F908F9008958091560781110DC0E9
:1040E00082E08093520784E0809353071092550733
:1040F0001092540781E08093560782E597E0089577
:10410000CF93DF93D82F8FEA90E00E942F27C82FFC
:1041100080EB90E00E942F27D11104C0CC3411F421
:10412000823539F16CE48FEA90E00E943D2762E528
:1041300080EB90E00E943D2786EB90E00E942F27C5
:10414000682F81EB90E00E943D2787EB90E00E9472
:104150002F27682F82EB90E00E943D2788EB90E0AC
:104160000E942F27682F83EB90E0DF91CF910C9472
:104170003D27DF91CF910895882329F083508D301A
:1041800010F080E0089581E00895813028F08430B7
:1041900028F08750893010F080E0089581E008957C
:1041A0001F93CF93DF93DC0120E030E040E050E04C
:1041B00011E0C1E0D0E02617370791F114968C91F9
:1041C0001497811115C014961C93149712968D9113
:1041D0009C911397ED91FC911197E80FF91FE491D1
:1041E0001596EC931597019613969C938E931297C0
:1041F00014969C91149715968C911597892349F0E4
:10420000FE01022E02C0EE0FFF1F0A94E2F74E2BB2
:104210005F2B990F14969C9314972F5F3F4FCBCF32
:10422000CA01DF91CF911F9108953FB7F894809113
:10423000C1079091C207A091C307B091C40726B5EA
:10424000A89B05C02F3F19F00196A11DB11D3FBFCE
:10425000BA2FA92F982F8827820F911DA11DB11D5C
:10426000BC01CD0142E0660F771F881F991F4A9558
:10427000D1F708951F920F920FB60F9211242F932A
:104280003F938F939F93AF93BF938091BC0790917F
:10429000BD07A091BE07B091BF073091C00723E0D2
:1042A000230F2D3720F40196A11DB11D05C026E86E
:1042B000230F0296A11DB11D2093C0078093BC0758
:1042C0009093BD07A093BE07B093BF078091C1072D
:1042D0009091C207A091C307B091C4070196A11D98
:1042E000B11D8093C1079093C207A093C307B093F9
:1042F000C407BF91AF919F918F913F912F910F90E4
:104300000FBE0F901F90189580919B018150809354
:104310009B0196E090930001811102C088E001C0EA
:104320008AE080939D0182EF9DE00C94D115CF939C
:10433000DF93CDB7DEB728970FB6F894DEBF0FBE78
:10434000CDBF789484B5826084BD84B5816084BD1E
:1043500085B5826085BD85B5816085BD80916E0023
:10436000816080936E001092810080918100826054
:104370008093810080918100816080938100809191
:1043800080008160809380008091910082608093A2
:1043900091008091910081608093910080919000C4
:1043A0008160809390008091C10084608093C100FF
:1043B0008091C10082608093C1008091C1008160C2
:1043C0008093C1008091C30081608093C30080917D
:1043D000C00082608093C0008091C20081608093A1
:1043E000C20080917A00846080937A0080917A0084
:1043F000826080937A0080917A00816080937A0055
:1044000080917A00806880937A00109294011092D3
:104410008B01109292018091D70081608093D70028
:1044200080EA8093D80089B5806189BD89B58260B2
:1044300089BD09B400FEFDCF61E070E080E090E04E
:104440000E94751C8091D8008F7C80618093D80079
:104450008091E000807F8093E0008091E1008E7E7B
:104460008093E1008DE08093E200559A209A81ECE0
:1044700080937C0085B1806F85B984B1877E84B9D3
:1044800084B1876E84B95E9A5F988AB1806D8AB96B
:10449000769A6E9881B3806F81BB899880B38D7056
:1044A00080BB80E58CBD81E08DBD85E090E00E9401
:1044B000EA165F9A85E090E00E94EA165E985C98A2
:1044C000EBE3F9E084918EBD00000DB407FEFDCF53
:1044D000319649E0E834F407A9F75C9A81E88093C3
:1044E0006400809165008160809365000E94EF16F2
:1044F00087FF24C05C9885EA8EBD00000DB407FEDE
:10450000FDCF5C9A2E982F982D9880916400806240
:104510008093640081E083BF889513BEFCCF2D9803
:104520000E94EF168478843871F00E94EF1684712F
:10453000843129F188EC90E00E94EA160E94EF167F
:1045400082FDEDCF38C02D9A88EC90E00E94EA16EB
:104550002F9882E090E00E942F278F3F29F06FEF85
:1045600082E090E00E94552784EF91E00E94EA16D5
:104570002F9A0E94EF1684788438D9F3D6CF2D9ADB
:1045800088EC90E00E94EA162E9882E090E00E946B
:104590002F27882329F060E082E090E00E945527D1
:1045A00084EF91E00E94EA162E9A0E94EF16847121
:1045B0008431D9F3BFCF2D9A88E280934E07809142
:1045C00064008E7F8093640080917A008064809381
:1045D0007A0080917A0086FDFCCF009178001091DE
:1045E00079000E94152120E030E098011127002772
:1045F000600F711F821F931F209164002160209320
:104600006400611571058105910511F00E9426274E
:1046100082E090E00E942F27882331F03E9A3F9A53
:1046200081E080937B0104C010927B013E983F980B
:1046300080E00E9480200E94C81E84E18093950142
:1046400083E28093960110929C0181E080939D010A
:1046500087E0EDE3F1E0DE01119601900D928A957D
:10466000E1F781EB90E00E942F27873040F4E1E0F2
:10467000F0E0EC0FFD1FE80FF11D808103C08730D3
:1046800019F081E1809300012BE3222E312C38E9CF
:10469000432E55245A9447E6642E77247A94DD24D9
:1046A000D39497E0A92E8FB7F8944091BC0750910E
:1046B000BD076091BE077091BF078FBF80914F0704
:1046C000942F981B892F90915007992329F080935C
:1046D0005107109250070BC290914E07891740F472
:1046E0008F5F891708F003C2D3BE889513BEFFC140
:1046F000D092500740934F0780914A0790914B0703
:10470000019690934B0780934A0780914C078093C2
:104710004D070E94EF1680934C0710910001812FE6
:1047200090E0FC013197E231F10508F0D2C1E75980
:10473000FF4F0C94E22783EB90E00E942F2710910B
:104740007C01853009F0DAC182EB90E00E942F27CE
:10475000813009F0D3C12DC20E94B914809146075F
:10476000882319F00E947E1FF9CFE0918402F0E0C7
:10477000EE0FFF1FE05EFF4F20813181D0929C0140
:10478000F9018491FAE08F9FC0011124F90131965B
:10479000E4914AE0E49FF00111248B3391052CF45D
:1047A00010929F0110929E0116C0AC014B5351090B
:1047B0004E35510558F44BE340939501B101681B08
:1047C000790B70939F0160939E0107C070929F01C7
:1047D00060929E01895980939501E731F1052CF48F
:1047E0001092A1011092A00116C0CF014797823507
:1047F000910560F487E18093960187E190E08E1B3C
:104800009F0B9093A1018093A00107C05092A1013A
:104810004092A001E856E0939601F9013296149176
:10482000A4EBB2E043E050E070E06C91607F672B56
:104830006C9318961C9218977117E8F4F901E40F1D
:10484000F51FE4918AE0E89FF00111241396FC9390
:10485000EE931297FA013196E20FF31F4E5F5F4F0E
:10486000E491FAE0EF9FC001112415969C938E937A
:10487000149760616C937F5F1E967630B1F6CA0123
:104880000196F901E40FF51F549150938602A8E8B0
:10489000B2E010E0BF016E5F7F4F511759F03196C3
:1048A000E491EC93FB01449111964C9311971F5F97
:1048B0001296F0CF850F911D850F911DA901480F0C
:1048C000591FACEAB2E0FA0164916C933196E4911D
:1048D0001196EC9311974E5F5F4F129664EB72E066
:1048E0006A177B0781F74C0179E0870E911CFC0168
:1048F0003896E20FF31FC490E2E0CE1621F000E0FC
:1049000010E040E067C0AEE9B1E07C01F0EEEF0EF0
:10491000F11C40E08D0160E070E04C0159E0850E33
:10492000911CF401E60FF71FE20FF31F5491E52FDE
:10493000F0E0689413F8F595E7951694E1F7E63002
:1049400009F44F5FE52FEF70E63009F44F5FF8018F
:1049500056836F5F7F4F005F1F4F6E30710509F701
:1049600011960E968E159F05A9F670C0EE2309F4D8
:104970006DC05FEF851A950ABF2EB294B0EFBB22CF
:104980007801C11038C0C7016CE170E00E9479263F
:10499000969587957727A4E0880F991FAA95E1F748
:1049A00082569E4FDC01A60FB71F16965C91169794
:1049B000E0FC1EC05F705B2916965C938FEFE81ACF
:1049C000F80A8E2D801B8E17E0F2E150F0E0319650
:1049D0000E0F1F1FF901E80DF91DE491FE2FF2954E
:1049E000F695F770EF71F63009F0C0CF4E0FBECFDD
:1049F000507F5F2BE1CFB70184E0769567958A956C
:104A0000E1F7562F56958E2D8F7090E060FD0EC009
:104A100060E1569F800D911D1124DC01A256BE4F0E
:104A200016968C9116978F708B290DC070E1579F49
:104A3000800D911D1124DC01A256BE4F16968C915B
:104A40001697807F8F2B16968C93B8CF4093850254
:104A500083E08093000105C0A092000102C00E9483
:104A6000E01E0E943D0735C088E0E4E4F1E0DE018D
:104A7000119601900D928A95E1F700E021E042E95C
:104A80005AE064E170E083E190E00E94AF1C1A50AC
:104A9000FE013196E10FF11DE10FF11D40815181C1
:104AA00021E063E270E087E490E011C000E021E0E3
:104AB00045E15AE068E170E08DE190E008C000E077
:104AC00021E048E459E067E170E084E190E00E9471
:104AD000AF1CE8E0F3E080E098E000800EBCD1106D
:104AE000012C019780FDFDCF0192B9F70DB4E0E0F4
:104AF000F0E0309709F4D7CD0995D1CD110F812F72
:104B0000880F880F180F1D5EF12C45EC5CE063E107
:104B100070E000E021E086E290E00E94AF1C612F8F
:104B200070E021E042E75DE08FE190E00E94AF1C81
:104B300000E010E021E043E85BE060E070E0C801E5
:104B40000E94E41521E043E85BE067E370E0C80100
:104B50000E94E415065F1F4F0238110559F7809136
:104B60004D07809590914C078923F11011C087FF64
:104B700007C090917C01992319F0915090937C018A
:104B800084FF06C090917C01911102C0D0927C01FB
:104B900083FF9FCF80917C01882329F0813009F029
:104BA00098CF0E9480200E94C81E82E0809300015E
:104BB00090CF612F660F660F160F185EFF24F394D7
:104BC0004EE35DE068E1A4CFDF92EF92FF920F9396
:104BD0001F93CF93DF93D82EF92EE42E062F10E0EB
:104BE000C8010196880F0E94EB1883E00E94EB1821
:104BF000CD2DDF2D0C0F1D1FC017D10789F0E7FE4B
:104C000003C0FE01849101C088810E94EB18F82E38
:104C100080E00E94EB188F2121968111EDCF01C019
:104C200081E0DF91CF911F910F91FF90EF90DF9086
:104C30000895109261071092600788EE93E0A0E05B
:104C4000B0E08093620790936307A0936407B093EA
:104C5000650783E691E090935F0780935E078FEF8F
:104C60009FEF90936B0780936A0710924C07109206
:104C70004D0780E180934E0710924B0710924A0730
:104C80001092500785E791E090934807809347077B
:104C900082E294E1909309078093080780E090E80E
:104CA0009093BB078093BA0746983E9A47983F9ADD
:104CB000EAE0F7E0108211821282339687E0E63450
:104CC000F807C1F710924607089597FB072E16F4D0
:104CD000009407D077FD09D00E94792607FC05D003
:104CE0003EF4909581959F4F0895709561957F4F03
:104CF0000895AA1BBB1B51E107C0AA1FBB1FA61723
:104D0000B70710F0A61BB70B881F991F5A95A9F774
:104D100080959095BC01CD0108958F929F92AF929E
:104D2000BF92CF92DF92EF92FF92CF93DF93EC018D
:104D3000688179818A819B81611571058105910561
:104D400021F464E279ED8BE597E02DE133EF41E06A
:104D500050E00E94732749015A019B01AC01A7EA68
:104D6000B1E40E9492276B017C01ACEEB4EFA50187
:104D700094010E94A027DC01CB018C0D9D1DAE1D6E
:104D8000BF1DB7FF03C00197A109B048888399836D
:104D9000AA83BB83BC01CD019F77DF91CF91FF90A8
:104DA000EF90DF90CF90BF90AF909F908F9008953D
:104DB0008F929F92AF92BF92CF92DF92EF92FF922B
:104DC00060910D0170910E0180910F019091100181
:104DD000611571058105910521F464E279ED8BE59A
:104DE00097E02DE133EF41E050E00E947327490145
:104DF0005A019B01AC01A7EAB1E40E9492276B0122
:104E00007C01ACEEB4EFA50194010E94A027DC0167
:104E1000CB018C0D9D1DAE1DBF1DB7FF03C00197BB
:104E2000A109B04880930D0190930E01A0930F014A
:104E3000B0931001BC01CD019F77FF90EF90DF9000
:104E4000CF90BF90AF909F908F90089560930D0189
:104E500070930E0180930F01909310010895F999BA
:104E6000FECF92BD81BDF89A992780B50895A8E13B
:104E7000B0E042E050E00C946527262FF999FECF70
:104E800092BD81BDF89A019700B4021639F01FBA9D
:104E900020BD0FB6F894FA9AF99A0FBE08950196BC
:104EA000272F0E943E270C943D27262FF999FECFED
:104EB0001FBA92BD81BD20BD0FB6F894FA9AF99A37
:104EC0000FBE01960895DC01CB01FC01F999FECFDC
:104ED00006C0F2BDE1BDF89A319600B40D92415082
:104EE0005040B8F70895052E97FB1EF400940E94D9
:104EF0008A2757FD07D00E94A52707FC03D04EF450
:104F00000C948A2750954095309521953F4F4F4FEF
:104F10005F4F089590958095709561957F4F8F4F65
:104F20009F4F08950E94C727A59F900DB49F900D95
:104F3000A49F800D911D11240895B7FF0C94922712
:104F40000E949227821B930B0895A1E21A2EAA1B9E
:104F5000BB1BFD010DC0AA1FBB1FEE1FFF1FA21729
:104F6000B307E407F50720F0A21BB30BE40BF50B26
:104F7000661F771F881F991F1A9469F760957095AF
:104F8000809590959B01AC01BD01CF010895A29F32
:104F9000B001B39FC001A39F700D811D1124911D0D
:104FA000B29F700D811D1124911D0895991B79E008
:104FB00004C0991F961708F0961B881F7A95C9F7A9
:104FC00080950895EE0FFF1F0590F491E02D099450
:0E4FD00081E090E0F8940C94ED27F894FFCF68
:104FDE0001FFFFFFFF00E1000000000000010000E4
:104FEE000004040404080808080C0C0C0C8F03B60B
:104FFE0001A9019901A9017E036D0387017701873C
:10500E0001650153014201370128011601000B0C05
:10501E000D0E0F10000023090C09E80800005D08B2
:10502E00B707E4064B06620500C180810000000050
:10503E00000000B018E61F4D19C618D11875195189
:08504E00190000000025140008
:00000001FF
