:100000000C94770E0C949F0E0C949F0E0C949F0EE4
:100010000C949F0E0C949F0E0C949F0E0C949F0EAC
:100020000C949F0E0C949F0E0C9429210C949B21F0
:100030000C949F0E0C949F0E0C949F0E0C949F0E8C
:100040000C949F0E0C949F0E0C949F0E0C949F0E7C
:100050000C949F0E0C949F0E0C949F0E0C949E2853
:100060000C949F0E0C949F0E0C949F0E0C949F0E5C
:100070000C949F0E0C949F0E0C949F0E0C949F0E4C
:100080000C94D51C0C949F0E0C949F0E0C949F0EF8
:100090000C949F0E0C949F0E0C949F0E0C949F0E2C
:1000A0000C949F0E0C949F0E0C949F0E8013B11312
:1000B000B113AA13AA13A613A613A213A2139E1375
:1000C0009E13961396139A139A13961396139A13D4
:1000D0009A13FF2A6A2BEF2CEF2CEF2CEA2CEF2C33
:1000E000EF2CED2CEF2CF22CF22CF22C1E2D1E2DD1
:1000F0001E2D142DD11ED11ED11EF21EF21EF21E77
:100100004C1F4C1F4C1F4C1F4C1F811F811F811FF8
:10011000D11ED11E090FE8D2D9ED76BB4EC7B7DD8F
:100120006EB7DBED7636090FE8D3E974FCDBED76CC
:10013000BBDD6E6703090F109BCE6EB7DB753A36D9
:10014000090FB8B2E9145FD7ABCF85A2ED6CDB59CC
:1001500001090FBC92EE55A9A4D2AAAD53E4E9E877
:10016000B6B303090FF8B6CAF55FB9B5EBD436EEEE
:10017000ED6CDB5901090F38B39FEAB397770A4B4F
:10018000DBD9B6B302090FBC924EA5FAECE554CE0A
:10019000C9D9D3F9EC367A090FB8B29F6AA2745F55
:1001A000BB8E773B7B3A5A090F38972ACA6B998ED8
:1001B00039BD1D5B090F5CA73EF54D96DBF5B950C7
:1001C000B79D1D20064B000000190075054B00006F
:1001D00000190027054B000000190097044B000090
:1001E00000190017044B0000001900B8074B00006D
:1001F000001900E0064B000000190010034B00003E
:10020000001900BA024B000000190093024B0000D5
:100210000019004B024B00000019000B024B0000BC
:10022000001900DC034B000000190070034B0000B4
:1002300000190088014B00000019005D014B00000F
:100240000019004A014B000000190026014B000074
:1002500000190006014B0000001900EE014B0000E0
:10026000001900B8014B0000001900C4004B000049
:10027000001900AF004B0000001900A5004B000062
:1002800000190093004B000000190083004B000090
:10029000001900F7004B0000001900DC004B0000C3
:1002A00000190062004B000000190057004B0000CD
:1002B00000190052004B000000190049004B0000DB
:1002C00000190041004B00000019007B004B0000AA
:1002D0000019006E004B000000190031004B0000B7
:1002E0000019002C004B000000190029004B0000F1
:1002F00000190025004B000000190021004B0000F0
:100300000019003E004B000000190037004B0000B0
:1003100000190000804B024B0000000F004B024B05
:100320000000000F004B024B0000000F0026014BA5
:10033000000080E0060F0017040F0027050F0000E3
:10034000800A081800600080002000400000006063
:1003500000900020000000000000008010002080BD
:100360000000800000200000000040090FA8D69D7A
:100370002BA2AC932A75BB08B3DBB106090F8876B4
:100380009D7A995DCBDA756AD46DD7B101090FB842
:10039000969F6AA274D7ABCFCDBC9D753B2B060749
:1003A000A8D2E9743A2E0407723A9D8E0A06077C99
:1003B0003A9D4E470704079D4BA7A303030788E513
:1003C000030792CC0407B8D2E99C5304077C3A9DFA
:1003D000760E0607DE6EB7DBED76070407A592768C
:1003E000BB5D010607B7DBED76BBDD020407A59216
:1003F0006ABBDD020307F8743A0307759A10040715
:10040000D476BB924A2A0407B7DBAD5452011507D4
:10041000A54E472555552A1595F3D99C2293AA2A0E
:10042000958A4AEA745C95032907522E95AA4A9543
:10043000E272AA9295755452E5B3924AAAAA542A36
:100440006EE552A9544E71399F4E392EA9AA52A970
:10045000A8A4AA64656B4A550A2907D369A9A2937F
:10046000AA9295ADA9F64A4DEF54252BEBB8944BC3
:10047000A5AA52A5B89CAA64651D552A25552A2A05
:10048000E9F24949A94A010E07A54E47E57C36A77E
:10049000C8A44EC75571011307522E95AA4A95E27A
:1004A000522E954AE51497D4E9A8A44AA552394595
:1004B00056390F07A5CB67B3924AAAAA542A2AE94C
:1004C000F249C9553904050E11110E00121F101200
:1004D0001915120A11150A06051F04171515090E1C
:1004E000151508011905030A15150A12150906192B
:1004F00007EA5455AA2AD59129974AA572159972E7
:10050000A9542AA7B8A4AA64656B2AA9AA52A9B8B3
:100510002A2EF4F5F9F6F7F8FBFAFFFCFDFE0002CF
:10052000030401060508090A070B0C0E0F008801D9
:10053000640000001400DC036400000014004B029F
:100540006400000028001704640000001400270560
:1005500064000000140020066400000028000080F1
:100560000E00050D00020804081708190804000011
:10057000070014001B00020404041704190400E11E
:10058000841284E161042261C10AC161220462040F
:100590002261C10AC161220462052261C108C161F0
:1005A000220562C101C1022261C108C1612202C1EA
:1005B00001C1622461012261C106C161220161247D
:1005C00062C102C161012261C106C161220161C132
:1005D00002C1622561012261C104C161220161255C
:1005E00062C103C161012261C104C161220161C113
:1005F00003C1622661012261C102C161220161263B
:1006000062C104C161012261C102C161220161C1F3
:1006100004C1622761012261C2612201612762C1B6
:1006200005C16101280161C105C162286101224142
:10063000A12201612862C106C16101C221A1C201DA
:1006400061C106C1612D4222012A000E0A050C0477
:100650001A050608030E180E0209001200190405F7
:1006600007020E190E001F06612204226111612289
:100670000622610F61220822610D6122C108C12298
:100680006108C18261306182C1036121610322C1BD
:1006900008C1220361216102622161032201C104B8
:1006A000C101220361216202C1622161032402248B
:1006B00003612162C103C16221610323022303613B
:1006C0002162C105C16221610322C10122036121AE
:1006D00062C107C1622161032403612162C109C1B2
:1006E000622161036203612162C10BC16221610267
:1006F0006202612162C10DC1612261016201612258
:1007000061C1073C000E0E0409010A010F0110012E
:10071000100C000D000C010D010B020E020703125C
:10072000030104180401051805030D160D030E1628
:100730000E09000A000F001000001F1F02C3E12273
:10074000E1C30CC5E14AE1C506260A26E1056212AD
:1007500062E106611261086112610861126108615B
:1007600012610861126108611261086112611F1E45
:10077000412641244224412841000D010401010A7F
:1007800005140516090510001001100210031004CD
:1007900003010B011602170902000000000000000F
:1007A00000000000000000004000000000400000C9
:1007B00000004000000303000000030300000003EA
:1007C0000300033003300000300030000030003000
:1007D00003016303000301010300030161034301FB
:1007E0001300444301110344430131000321131159
:1007F00051121121121151123151131003005001E5
:10080000006111006101305003144344544103144A
:1008100044434444341443100300500103100103C3
:1008200053010060031523121521131121125321C6
:1008300012151305111100011311000053110005C9
:100840001300034440441314404453144044130021
:1008500013100600131006001300060013061310F1
:1008600002001310020013100200131503051211E9
:100870000301121103011215030B0003070E0D0EE5
:10088000180E03040011001B000501100116010AD7
:100890000E01300122C123C123C1240124C123C17F
:1008A00023C122012FE16E21810E21012D012101A1
:1008B0002109C1220121012101210121012101215F
:1008C00001230121012901230121012D0121012DF4
:1008D0000121012D012101220121012101210121FB
:1008E000C1220121012109C1220121012D01218102
:1008F0000E21E16E21012701270124C124C1250118
:1009000022C128C125012901230F21C12101622112
:10091000016221016221012101210121C121012165
:100920000121C121012101210121C1210121012137
:10093000C121012101210121012101210121C12127
:1009400001210121C1210121E16221016221016214
:100950002101622100190E0406001600030919097D
:10096000060A0012000B0111010C02100207001709
:100970000002081A08001F1F1F01C1236123C113B1
:1009800021C121C161C121C1210BC10621C1610168
:100990006121610161C12104C101C10322612161A1
:1009A00026610161266121612202C121016121616B
:1009B0000661016106612161C12102210162216894
:1009C00001682162012101216101C10267016721E2
:1009D00001C101612102236101216101C1026101A3
:1009E0006102C101612101612304C12261276127E4
:1009F00061220622016105C1016101C10561012277
:100A000005210161226621662261012103C1026183
:100A1000236321652163236101C1013C00020F05AD
:100A200004050009120A060B090E0800000400085C
:100A30000019000001040108011901150102031A3F
:100A400003110A0200000000000000000000000086
:100A50000000000004440000000444000040004482
:100A6000300030041222222000111102230036002F
:100A7000360010002600000000000306113422306A
:100A80002300221205555110315106300630230043
:100A900026000000000030003114322023302213E1
:100AA00005000050300036003600203300230016C9
:100AB0006100300011342230200330230001134440
:100AC000306006300630200033230000030011514F
:100AD0003114322020000323000003000000360000
:100AE00036002000002322222222306011342230DE
:100AF0002000002310060601315106300630200088
:100B00000023131212113000311422202066310309
:100B100013060600300030000000111111221121CF
:100B20002121212100010301071907050E020800F8
:100B300008011B010007060E180F02111111110107
:100B400011111111111111111100200222000023A5
:100B50000100034444444013000302322023613265
:100B60002300000000632213023220030030000043
:100B700000000011300302300111323444440000FF
:100B80006062311262311444323000000000000013
:100B9000300002320620321100060011110030062A
:100BA0000232111132030000000000221131023222
:100BB000000034432222222222300231003211115D
:100BC0001103000244444231003111320616001173
:100BD000130203000232032202320010000003005D
:100BE0000300023203206230001111111111132091
:100BF00002301110223211100000000003000230F8
:100C00000000003260230600006003000211111191
:100C10001112116322111122230062070B030A0231
:100C20000D08150B070B00160016010B030B040B28
:100C3000070B08000215021702120B008BE112C10C
:100C400002C102C1026105210381E1810F618401BA
:100C5000240161012FE1046124016101A123C20784
:100C6000C2E1846124016101A125C105C1226105A0
:100C7000210122016101A1C224C103C123618401B8
:100C8000210122016101A127C101C124E1046121E7
:100C90000122016101A1C226C125E10461210122D5
:100CA000016101A12E6126C221016101A1C2210BB6
:100CB000610524016101A124012108610A6101A1EA
:100CC000C222012B612AA1240523C1236125C10869
:100CD000210524C1226122C101C1226105C1210176
:100CE000C102C1250261022C00150B020403170387
:100CF000040C000D000E000F000A00110005031681
:100D000003008A088A6109280962072C0762062EF7
:100D10000662014430440162082A08620141610808
:100D2000240941016143611543036102C102C1020B
:100D3000C102C102C102C1026106611461066108FB
:100D400024086106610523A423056106610223AA24
:100D5000230261066103AE0361066104AC0461060F
:100D60006106A8066103000B0F0508030D031303BA
:100D70000C09100F0A0A0011000A010B010C010DE9
:100D8000010E010F01100111010600150000051BE5
:100D900005010A660A250B2103620A2103220A21A2
:100DA00002C1220565210362052A0621042103628E
:100DB000052104210322052103C12102C122E1E111
:100DC000632104210362022D032102210421036215
:100DD0000221022104210322022101C12103C1A118
:100DE00002C1220221022104210362022D03632198
:100DF00004210362052104210322052103C12102EC
:100E0000C122052104210362052A06652103620A25
:100E10002103220A2102C1220A2103620A250B664C
:100E2000000B050314050D09060B0500001000005A
:100E3000011001000219001A001B000E0400E1124B
:100E40004124052FE1024101C1612101C1038B61F0
:100E500002216182412261210143C16121412105B9
:100E6000C1016182216103C101612103614161030B
:100E7000220561022161024122612102C1614161B9
:100E80002202C121046102216101C141026121618B
:100E9000826301C128610221610241216122610254
:100EA0006202230541610221610461026101C10105
:100EB0006103220541610222610361026123620331
:100EC000264161032361016102610341612386417F
:100ED00022610323620161226121610C21416103CE
:100EE00022612103612161276106214161036121A2
:100EF0000361216122C124612561234262230161D2
:100F0000216125C121612561C102C1016221C102A6
:100F10006121613361256100120A030A020207148C
:100F20000F030D000D010D020B0203071907110F2E
:100F3000001F1F0AC1830988614421A122026107A1
:100F40006108610A6107610626432705610621C120
:100F50000121032103210321056103C20121022193
:100F600002C12101C22101C22101C1036127023155
:100F70000161210221012505210B612101C121010E
:100F8000C102210361C101210B612B41614127A1F4
:100F900025610C610A8301610C610961046108C16A
:100FA0000361096101306104C1046102C1010010E3
:100FB0000E040D010F0103061806020000000101D6
:100FC000011B010305180500E11FC103C103C10393
:100FD000C103C103C1032E012D0E611A2161211924
:100FE000C161C1182261220E6108C1016101C107FE
:100FF0006105216121062361230521612104C1616D
:10100000C106C1026102C105C161C103226122049E
:101010002461240322612202C1016101C104C103D0
:101020006103C103C1016101C10123612302256183
:101030002501236123C1026102C102C1046104C10F
:1010400001C1026102C103610A610961033C001A26
:101050000F03150016001700091800180111020AE5
:10106000030304030504050406040714011501160F
:10107000011701001F0FC6E10EC6E12707C6E147B1
:101080000E271F1F0BC4E1172461172A61112F615E
:101090000C33610836610538610339610239610238
:1010A00000070C031103090F190F030700070107BD
:1010B000021B0100020A0F180F001F1F05615022BA
:1010C0006223612361098721C121612101216121FD
:1010D0000121612C02C1012101216121C121612174
:1010E000C12164C164C163236121A1622361210123
:1010F000216244624362036E4102C1624102622284
:1011000061C16204610122016241018141624101C8
:10111000C16221016121620123610121C121624477
:1011200062436221610121620121C10161022262E7
:1011300084016621610262012201610121012161B4
:1011400002C1036524630461012201612702C161B8
:1011500023C168446121654101226123016205C107
:10116000024261216101610161410122610122614B
:1011700026A10621610161C1614102C161210261B3
:1011800021001A0E0301000A0313060100000200E9
:1011900009031206180800E106376104356124616D
:1011A0000432612761042F6125012461042C61252B
:1011B00001276104296125012A610426612401C1F6
:1011C000012C610423612701C1012C610461250107
:1011D0002401C1012D6225012701C1012A622501D7
:1011E000296101C10127622501296123012662C10C
:1011F00003C103C103C1012161230126612E022421
:1012000007613C000D0E03170100020902010D00E9
:101210000001160103020A0201810E2181C22B0185
:10122000218102AB012181022B01218101C1230512
:10123000A301218102A304C123012181022B0121E9
:1012400081026129022181C10261A7032181026C0F
:101250002181022B01218101C1AB012181022B01DE
:1012600021E1622305A3012181022304C12301217D
:101270008101C12B0121810261A9022181C1026189
:1012800027032181026C218101C12B01218102AB45
:10129000012181C22B0121810A230121810A23011D
:1012A0002181C109A30121810A230121810A23018E
:1012B0002181C10D2100100E0310040E07170A062C
:1012C0000100010101020103010401050C030E03E9
:1012D000060714070021E11922E19922E107A12361
:1012E0006123A10922E104C1A121A1036103A1227B
:1012F00001C10522E102C1A121A1C561C201C22132
:10130000A12101A10322E10122A121A1256126A1A0
:1013100021A12101C1012509610921A121A12305E3
:10132000C4026102C40521A122046126A1612761D2
:101330000522046107610761052203C16102C561DD
:1013400001C101C46105220161A12961A1296102D4
:101350002201610A610A61022201610A610A6102D5
:101360002201610A610A61023D000A0904070311B2
:1013700003040D170D020C000C01010117010407F5
:101380001707001C210921C1E1C121092104218382
:101390006185216121856183210621C1016105C12A
:1013A00061C105610221082181618161832161217F
:1013B0008361816181210A21026102A1016101A190
:1013C0000261022108618321016101218261822180
:1013D0000161012186610261816102216121072190
:1013E000612105618161046102216121072161217F
:1013F000056104618161022161210721612402618B
:1014000081610261042161296124046102618161B9
:1014100002216121012501216122012102618161F5
:1014200003C161022161210122C122012161240243
:1014300061C10361816102216121012501216121D5
:1014400005618161026184016101810581016101A0
:101450008761026104216121012501216121076168
:1014600001000107031902080511090104020E0019
:1014700002021802130900611B61028206916109D0
:10148000C16104C1046105612301276187610161B4
:1014900001614401A1096101C105610161016104AA
:1014A000436123046187610161014461036101C1FA
:1014B000012504C102610161056103610125C121AA
:1014C00087610161016144612101618F61016101F5
:1014D00061046127A1250761014462C1022405213D
:1014E00003246105622D420126612461412C0326FB
:1014F0006123C161412C61410122C1236124614109
:1015000001C12A6141076104610126A10561412CE5
:1015100000080E0402011A010F060F0B0403000D50
:10152000000E0018000000070014001B00001F61DF
:1015300009620961042261220522622205226122D8
:101540000122C161C122032362230322C161C1239D
:1015500002610522C1016201C1220221026103224E
:1015600001610283220262062201610422612203D8
:1015700022C1016201C10522612203C161C12203AE
:1015800023622206C161C122036102210422622377
:10159000018203610223C161C12204C1016201C150
:1015A000220222C161C1220121A161A1210762029F
:1015B000220321A161A12104610522C1016201C1AF
:1015C0002205610D2362231522622218620D2D620D
:1015D0002D000C0E0410040B070B0C130E02000060
:1015E0001B0004001700040E170E00E1811881E1B2
:1015F00061013801620121042102C102C1210721D8
:1016000002210162012101C10224A123072102213B
:1016100001620121A124052101C102C1032101C1EF
:1016200021016201210321062D016201210321060E
:1016300021062104210162012502C10321062104A2
:1016400021016201210329052102C1012101620159
:101650002106210421C10422A1230162012101C12B
:1016600002C101210427042101620123A1240421D4
:10167000032106210162012101C10121C104C1012F
:1016800021C1022101C1042101620123A12AA12655
:10169000A12201621A613C00010E030D0104021730
:1016A000020606001B0006011B0106021B020001C8
:1016B00014021A020703001F1983048625610961B9
:1016C0002241230128C12A6222C1230141C10361B1
:1016D00021612203C103C101622601456141610309
:1016E00087016208846101610361076122A12361AE
:1016F00008610361022104618303612601276126D9
:10170000C1036122058421016882046121024361D1
:101710000421C16801C161240221034361012181C7
:10172000680181610521026124610121C1680261B2
:101730000361210361246101218168026103612148
:101740006102612101C12161012B612F0C6100182F
:101750000E030F001B01020E040000050012001B07
:101760000004001802010E150E01E16F0121012194
:101770000121012101210121012101210121012159
:10178000012101210121012101210121C121C121C9
:10179000C121C121C121C121C12101210F21E16F3D
:1017A000012F0124C12A0122C123C127C10128C15F
:1017B00023C12281C129C124012F81C129C1240152
:1017C00028C123C1220122C123C127C10124C12A6A
:1017D000012F012FE16F8102810581052101820125
:1017E000C1820581C1012102C10281028101C104BE
:1017F00021038102C18101810181018101210281D5
:101800000581028202210381C182028103810121BB
:101810000181C103C1810281C18102218102810252
:1018200081028103810121E16D0121001B07B22E9C
:10183000954A653BAD5D369D7754D265D3F9E89402
:10184000AB4A55A5AA721D977255A9AA5455AE0365
:101850001007B22E954A65E3723EA77CCA9129977C
:101860004AA552A99C220210079C72A9542A95CA23
:10187000292EE9B2E9BCE352AE2A5595AACA75D51C
:10188000F08D14A1C881CFD9F1AF20005717A38BD9
:101890002E2E47175D74D145175D74D145175D72C3
:1018A0001F5D74D145175D74D145175D749129BAD8
:1018B000E8A28B2EBAE8A28B2EBAE8A28B2EBAE849
:1018C000A28B2EB98F2EB4499D4EC7A55C2A954A8E
:1018D000A5728A2E5795AA4A55E51C9772A9542AD3
:1018E000954A491449974DE71D977255A9AA545531
:1018F000EEA24AE52A9BAD5C2A2AE752A954362477
:10190000DDD7575595AA2A3559AE2A5595AACA3911
:101910002AA9F2CAA525977255A9AA5455AEA3546F
:1019200085ACE8A28B2EBAE8A28B2EBAE8A28B2E49
:10193000BAE8A28B2EBAE8A28B2EBAE8A28B2EBAF6
:10194000E8A28B2EBAE8A28B2EBAE8A28B2EBAE8B8
:10195000A28B2EBAE8A28B2E32591FA38B2EA7641E
:10196000E7D29DDCE7D28E2EB66D7ABAD8B6E9E919
:1019700062DBA6A78B6D9B9E2EBAE862DBA6A78BC7
:101980006D9B9E2E9B9E6D9BCFA6B7E9E972694722
:1019900017DB363D5D4EE96D3EBA6C7A9B8F2E7437
:1019A00039974EC79C733A2E652B59C9CA756CD9A5
:1019B0004A56B2728EAB9395AC64652353B692953A
:1019C000AC5C872BE5D3E95CC7A57C3A9D53648E5C
:1019D0004B91392E2BD3E99CE2CB391D97B295ACB4
:1019E00064E53A2EE5D3D9C894AD64252BD7416F71
:1019F000F7B5AB4AA952A9C97255A9AA5455CE51F7
:101A00004995572E2DB994AB4A55A5AA721D2C1B8A
:101A10005D74D145175D74D145175D74D1C594EBE4
:101A2000742EBAE8A28B2EBAE8A28B2EBAE8A28B4B
:101A30002EBAE8A28B2EBAE8A28B2EBAE8A28B2E81
:101A4000BAE8A28B2EBAE8A28B090A1000000000A7
:101A50000000000000000000000000000000000086
:101A6000EFEFE0EFEFEFEF0FEFEF01010101010109
:101A700001000101FFFFFFFFFFFFFFFFFF0001016A
:101A800001010101010101000000FF42424242FF49
:101A90000000000003000000000300000202020238
:101AA000020202020202000000000000000000002A
:101AB000EFAFE06FEFEFED0FEBEF0101010101017F
:101AC000010001010000B0B000B0B0000000000053
:101AD0000101000101000000EFEFE0EEEEEEEE0E7E
:101AE000EFEF01010101010101000101EEECE0E86D
:101AF000E8EAE808ECEE0101010101010100010141
:101B0000ECE0C0C088808000E0EC0101010101012F
:101B100001000101E08000000800010086E00101F1
:101B200001010101010001010000000000000000AE
:101B3000000000000000000000000000E0808000C5
:101B40000000000080E0010101010101010001012C
:101B5000ECE0C0808080C000E0EC010101010101E7
:101B600001000101EFECE0E8E8E8E80CECEF01012E
:101B70000101010101000101EFEFE0EEEEEEEE0FD9
:101B8000EFEF010101010101010001013F0FA5AAD1
:101B900064656B2AA9AA52A9B83A5595AA4A755CF8
:101BA000CEA7538E4BBA7C362BA9A4AA4AA5E256DF
:101BB0002E95AA4A95E272AA92957554D2E5B35928
:101BC000492555552A15D2A5AA64656B2AA9AA529A
:101BD000A9B83A5595AA4A755CE9B454F13955C982
:101BE000CA3A2AA92A59D99A2A9D962A7EE552A943
:101BF000AA54292EA72A595947255D3E9B95545230
:101C000055A55221122C07EA5455AA2AD571A5D3FD
:101C100052C5E754252BEBA8A4AA64656BAA745A95
:101C2000AAF8954BA5AA52A5B89CAA64651D95541F
:101C3000F9ACA492AA2A954A010207A5533609E0F5
:101C4000061E0000000A00E0061E000080080B00CF
:101C50000202020100090400000102020000052442
:101C600000100105240101010424020605240600D8
:101C7000010705810310004009040100020A000069
:101C8000000705020240000007058302400000042F
:101C900003090412010002EF0201404123368000D3
:101CA000010102030141726475696E6F204C4C435F
:101CB0000041726475626F790020066400000014B0
:101CC00000270564000000140017046400000028C9
:101CD000004B02640000001400DC036400000014E8
:101CE000008801640000002800008000732D11248A
:101CF0001FBECFEFDAE0DEBFCDBF11E0A0E0B1E064
:101D0000E2E9FEE502C005900D92A03AB107D9F7CD
:101D100027E0A0EAB1E001C01D92AD3EB207E1F7B5
:101D20001EE0C7E7DEE004C02197FE010E943C2FC1
:101D3000C637D107C9F70E94FB280C94472F0C9493
:101D400000002F923F924F925F926F927F928F92FC
:101D50009F92AF92BF92CF92DF92EF92FF920F933A
:101D60001F93CF93DF93CDB7DEB72D970FB6F894BF
:101D7000DEBF0FBECDBF8091BD0190E02091C601B6
:101D80003091C701821B930B05962AE030E0B90120
:101D90000E94BF2D162F6D878091BE0190E040916B
:101DA000C8015091C901841B950B0596B9010E9489
:101DB000BF2D7B016C8780910001853091F080916F
:101DC0007207909173076CE070E00E94D32D892B0D
:101DD00009F0F6C39091A00181E089278093A001CA
:101DE000EFC3812F0E94E525082FD0907407C09083
:101DF0007507C094CD201092BF011092CA01809146
:101E0000C4018B3021F01092C0011092CB016E2DD5
:101E1000812F0E94E525863079F58091C10190914E
:101E2000C20149969093C2018093C10140E06E2D9A
:101E3000812F0E940C268091AD02882319F08150D9
:101E40008093AD028091AD02811112C0B12C8091BE
:101E5000AE02B81668F4EB2DF0E0EE0FFF1FE05570
:101E6000FD4F43E0618180810E940C26B394EFCF47
:101E700083E393E00E94351D8091A1019D2D9C700C
:101E80009C3061F58F5F8093A1018531B0F18D3376
:101E900090F08D3391F51092A10183E884BD8FEF0E
:101EA00087BD81EF809380001092880010928A0095
:101EB0000E94E82818C320E430E0A901481B51091A
:101EC000CA01880F93E894BD9FEF97BD91EF90935F
:101ED00080001092880080938A000FC0882369F0E8
:101EE00083E884BD8FEF87BD81EF809380001092DF
:101EF000880010928A001092A1018C2D84709C2D74
:101F00009870C3FE2DC081112BC00E94761E8823BD
:101F100009F454C08091BD0190E02091C601309138
:101F2000C701821B930B02966AE070E00E94BF2DEE
:101F3000162FCC24CA94C60E6E2D8C2D0E94E5253A
:101F4000A82EBB24B394BE0C6B2D8C2D0E94E525CE
:101F50008130A1F58FEF8A0D823008F094C22EC037
:101F6000882361F191112AC00E94761E882331F1E5
:101F70008091BD0190E02091C6013091C701821B84
:101F8000930B02966AE070E00E94BF2D162FCC24BE
:101F9000C394C60E6E2D8C2D0E94E525A82EBB2461
:101FA000B394BE0C6B2D8C2D0E94E525813031F44D
:101FB0008FEF8A0D823010F00C943218D6FECAC012
:101FC0006E2D812F0E94E525082F8091BD0190E0A4
:101FD0002091C6013091C701821B930B6AE070E02B
:101FE0000E94BF2D6C01892B19F481E0810F01C083
:101FF000812F6E2D0E94E525282E552453945E0CCA
:10200000C114D10419F481E0810F01C0812F652D25
:102010000E94E525482EC114D10419F08FEF810FDD
:1020200001C0812F652D0E94E525382E822D0E944A
:102030002028682E470199245FEF851A950AA12E62
:10204000B12CA401B501832D0E946425782E0E9435
:10205000761E9091C4019B3089F4882311F40C946E
:10206000FF1A7110C1C064E0261621F0043011F08F
:102070000C94FF1A68E087E00C9499180E94C82617
:10208000882341F08DEF800F823010F00C944B18B4
:102090000C943918C114D10419F481E0810F01C0E6
:1020A000812F6E2D0E94E525782EC114D10419F4DC
:1020B00081E0810F01C0812F652D0E94E525682EEA
:1020C00062E06E0DC114D10419F481E0810F01C0EA
:1020D000812F0E94E525482E862D0E942028682EFB
:1020E000872D0E942028882311F40C949C186620C8
:1020F00011F40C949C1835018FEF681A780AA4012A
:10210000B301842D0E946425882311F40C948E1849
:1021100064E081E00E94891E1092C4018091C80190
:102120009AE0E99E800D11248093BE018091BD014B
:102130008C3310F482E0C2C02091C6013091C701F7
:1021400029363F4F24F01092BF018EEFC3C087FFA6
:10215000F1CF8AC1D5FEC4C06E2D812F0E94E52526
:10216000082F8091BD0190E02091C6013091C701F8
:10217000821B930B6AE070E00E94BF2D4C01892BFB
:1021800019F48FEF810F01C0812F6E2D0E94E5257C
:10219000382E772473947E0C8114910419F081E019
:1021A000810F01C0812F672D0E94E525482E832DC8
:1021B0000E942028582E5701BB24BFEFAB1ABB0A40
:1021C000C12ED12CA501B601842D0E946425682E54
:1021D0000E94761E9091C4019B30B9F4882311F4BB
:1021E0000C94FF1A662031F01092C4010E941D1C4D
:1021F0000C94271BE4E03E1621F0043011F00C94FF
:10220000FF1A69EF86EF0C94F4180E94C826882301
:1022100031F08DEF800F823008F0ADC7B7C7811461
:10222000910419F48FEF810F01C0812F6E2D0E9450
:10223000E525082F8114910419F48FEF810F01C057
:10224000812F672D0E94E525782E62E06E0D8114A6
:10225000910419F48FEF810F01C0812F0E94E525B1
:10226000182F872D0E942028782E802F0E9420284A
:10227000882311F40C94271B772011F40C94271B4E
:10228000F1E0CF1AD108A501B601812F0E94642583
:10229000882309F49DC76FEF8CEF0E94891E10926E
:1022A000C4018091C8012AE0E29E800D1124809330
:1022B000BE018091BD018D3320F08EEF8093BF0170
:1022C000D1C02091C6013091C70137FF06C01092DE
:1022D000BF0182E08093CA01C7C08111EECFC4C0A4
:1022E000D7FE85C08091BE0190E02091C801309159
:1022F000C901821B930B08966AE070E00E94BF2D13
:102300007B01B62E0E94761ED82E882319F06FEF1F
:102310006E0D01C06E2D812F0E94E525C82EDD2097
:1023200019F0BB24B394BE0C6B2D812F0E94E525C0
:102330009091C4019530A4F0973044F09B3081F423
:10234000043009F068C7D11062C765C7DD2061F1AC
:10235000033009F083C08FEF8C0D823028F57EC0EA
:102360000E941D1C8091BD0190E02091C60130911A
:10237000C701821B930B2AE030E0B9010E94BF2DF8
:10238000863020F0A901481B5109CA0105970CF0BD
:1023900067C0033009F064C08FEF8C0D823008F401
:1023A0005FC085E08093C4018091C6015AE0159F0B
:1023B000800D11248093BD011092BF011092CA01BB
:1023C0008091BE01883120F08EEF8093C0014EC015
:1023D0002091C8013091C90137FF06C01092C00199
:1023E00082E08093CB017FC08111EECF7CC0D4FE10
:1023F00040C08091BE0190E02091C8013091C90198
:10240000821B930B08966AE070E00E94BF2D7B014F
:10241000D62E0E94761EC82E811104C76FEF6E0D56
:10242000812F0E94E525B82ECC2019F0DD24D3940D
:10243000DE0C6D2D812F0E94E525D82E8091C401E0
:102440008B3009F059C6043009F4DFC6CC2009F4FA
:1024500001C784EF8B0D843008F0FCC60E941D1C60
:102460001092BF011092CA011092C0011092CB01CC
:102470003AC08091C001823009F4BBCF8091CB017A
:102480008E3F89F5B6CF53E0A51609F497CD84EFBA
:102490008093C4011092BF011092CA0147E06B2DD6
:1024A0008C2D0E940C2680916E07843181F0E82FDC
:1024B000F0E09F01220F331FE20FF31FEE5CF84F95
:1024C000C082B1829CED92838F5F80936E07809172
:1024D0007407809375070E94531E8093740785E1EB
:1024E00093E00E94351D8091720780FD68CC1092A8
:1024F000DD021092EB021092F90210920703109283
:102500001503109223038CED682E82E0782EF301E0
:10251000808184FF4BC0828193816AE070E00E94D9
:10252000D32DD62E6887848195816AE070E00E9461
:10253000D32DF62E69878D2D0E94E525B82ECC244B
:10254000C394CF0C6C2D8D2D0E94E525982EF6E0BE
:10255000BF1206C0D30118968C91882309F487C650
:10256000F30182858D3014F5228133813B872A87E0
:10257000C9016AE070E00E94D32D892BB9F404816F
:102580001581C8016AE070E00E94D32D892B71F497
:10259000E384EE2009F48BC6D30118968C91811147
:1025A0007DC6F3011782838581508387BEE06B0E61
:1025B000711CE0E36E16E3E07E0609F0A8CFFFCBC6
:1025C000809100018850833030F480910001833085
:1025D00009F0C9C1CDC1C12CD12C812C712CA12CE9
:1025E000B12CE090C601F090C701EA0CFB1CC701BA
:1025F00009968938910528F50091C8011091C90103
:102600000C0D1D1DC801099689349105D0F4682D63
:10261000872D0E94E525982E882339F0282F4AE43B
:102620005AE1B801C7010E94481D29EF290D243045
:1026300040F4B8016A50710941E453E0C7010E94B7
:10264000481D7394FAE0AF0EB11C2CE17212C9CF91
:1026500083943AE0C30ED11C40E18412BFCF809135
:102660000001853021F08091A0018823F1F0809154
:10267000C401082F001F0027001F082E000C990B13
:1026800097FF03C0919581959109880F990BFC01E3
:10269000E35EFE4F408151816091BE0170E0809108
:1026A000BD0121E090E00E9413241CEDA12E12E058
:1026B000B12E7501D7018C9184FFADC012960D919A
:1026C0001C9113976090C6017090C7014301800E62
:1026D000911E14968D919C911597C090C801D09031
:1026E000C901C80ED91E1B96EC914E2F50E0433104
:1026F000510508F088C0FA01EA5AFF4F0C943C2FAC
:10270000F7018285082F001F0027001F082E000CEC
:10271000990B97FF03C0919581959109880F990BAB
:10272000FC01E35EFE4F4081518170C0F1E08F1AE1
:10273000910869C02FEF821A920A65C032E0C31A6D
:10274000D108FCC644E0C41AD10807C056E0C51A37
:10275000D108F4C668E0C61AD10800E04BE653E0A1
:1027600055C0AAE0CA1AD1089C012A503109F701C4
:10277000358324831386C8016AE070E00E94D32D5C
:10278000262EC9016AE070E00E94D32D462E552402
:102790005A94520C852D0E94E5258F83332433945F
:1027A000340C632D852D0E94E5258887552453948C
:1027B000520C642D852D0E94E525482E632D852D14
:1027C0000E94E525582E8091BD0190E08619970959
:1027D0008017910764F48F810E942028882309F4D0
:1027E000A5C688850E942928811197C69FC6842D79
:1027F0000E942028882309F490C6852D0E9429284C
:10280000811194C68AC600E04DE853E021E0B6018C
:10281000C4010E941324FEE0EF0EF11C20E3E21637
:1028200023E0F20609F046CF4090BD01512C809183
:10283000C6019091C701481A590A6090BE01712CD7
:102840008091C8019091C901681A790AD5018C91CB
:1028500084FF7FC012968D919C911397F201E81B23
:10286000F90B14962D913C911597A301421B530B24
:102870009A01C090BE014C2D50E0421B530BE090DA
:10288000BD01473F6FEF5607C4F42E2D30E02E1BDD
:102890003F0B2F3FAFEF3A070CF454C62C373105EE
:1028A0000CF058C6E394EE1A8E2DBDEA8B2EB3E0E1
:1028B0009B2E43EE53E090E03AC045335105C4F0FF
:1028C0002E2D30E02E1B3F0B2F3FBFEF3B070CF4AC
:1028D00049C62C3731050CF04EC6E394EE1A8E2D06
:1028E000AEE98A2EA3E09A2E42ED53E093E31FC097
:1028F000F12CEE1AFF0AECEFEE16EFEFFE064CF4A9
:102900009C2D921BF0EC8F2EF3E09F2E49EF53E0AD
:1029100030C6FCE7EF16F104E4F09C2D921BECEBC3
:102920008E2EE3E09E2E44EF53E08CE702C08F3FF3
:1029300081F0C92ED12CE82EF12C00E020E0B60168
:10294000C7010E94132421E0A401B601C7010E941F
:1029500013242EE0A20EB11C30E3A31633E0B3061D
:1029600009F074CF32CE873049F48091C50101C09F
:1029700084E08093000100E010E067C098EF980FBA
:102980009330C8F78A3069F400E021E049E554E06B
:1029900069E170E08AE290E00E94132409E210E00D
:1029A0003BC0883029F400E021E048E254E02FC029
:1029B0001091AC02812F64E60E94302F082F282F3F
:1029C00045EC54E069E170E088E490E00E94481D25
:1029D000812F44E6049F801911246AE00E94302F61
:1029E000192F282F45EC54E069E170E08DE490E068
:1029F0000E94481D212F45EC54E069E170E082E51A
:102A000090E00E94481D00E021E04EE054E069E1C2
:102A100070E08BE290E0C0CF41E066E170E0C80179
:102A20000E945B1E0E5F1F4F09351105A9F709E2D1
:102A300010E041E060E270E0C8010E945B1E0E5FA2
:102A40001F4F09351105A9F796CF77E3E72EF12C33
:102A500040E0B701C8010E945B1E5FEFE51AF50A6E
:102A600060E4E616F104A1F70F5F1F4F003811056F
:102A700061F700E010E041E068E370E0C8010E9407
:102A80005B1E0E5F1F4F02381105A9F78091C1012F
:102A90009091C201FE01319626E0DF011D922A9538
:102AA000E9F77F019E01295F3F4F0AE010E0B8017E
:102AB0000E94D32D8193CB012E173F07C1F700E071
:102AC00021E04FEE54E06AE370E080E090E00E9485
:102AD000132406E310E0F70121917F0145EC54E057
:102AE0006AE370E0C8010E94481D055011090831D1
:102AF000110589F7F090C30100E021E042EB54E0BA
:102B00006AE370E080E490E00E9413241AE08F2DC5
:102B1000612F0E94302F092F282F45EC54E06AE3E3
:102B200070E082E590E00E94481D202F45EC54E0C3
:102B30006AE370E087E590E00E94481D8091000103
:102B4000853071F4F090AD0200E021E047E954E0F7
:102B50006AE370E080E690E00E9413248F2D1DC090
:102B6000F090AC0200E021E047E854E06AE370E056
:102B700080E690E00E94132464E670E08F2D90E0E0
:102B80000E94BF2D262F082F45EC54E06AE370E029
:102B900081E790E00E94481D802F612F0E94302F16
:102BA000192F282F45EC54E06AE370E086E790E0A7
:102BB0000E94481D212F45EC54E06AE370E08BE74A
:102BC00090E00E94481D20910001253009F0C1C10C
:102BD000809172079091730780FD1CC02091BF0106
:102BE00021110CC02091C001211108C02091CA01FF
:102BF000211104C02091CB01222361F02091C40156
:102C0000ECE0E20FEC3120F4F0E0EE5EFA4F2491BC
:102C10002093C40183709927892B09F445C0209122
:102C2000BF018091BD01280F2093BD011091C0010B
:102C30008091BE01180F1093BE018091CA01E090EF
:102C4000C601F090C701E80EF11C87FDFA94F092DE
:102C5000C701E092C6018091CB014091C80150911B
:102C6000C901480F511D87FD5A955093C9014093E2
:102C7000C801812F90E0841B950B0596EAE0F0E0F7
:102C8000BF010E94BF2D362F822F90E08E199F0921
:102C90000596BF010E94BF2D862F632F0E94E52558
:102CA000123008F053C01DC0ACEDB2E080E393E0F9
:102CB0002C9124FF11C01B962C911B97222309F401
:102CC00063C40AC016962C911697211167C41796F3
:102CD0002C911797211162C41E968A179B0741F702
:102CE0009ECF833099F51091AC021F5F8091C30194
:102CF0008A3018F48F5F8093C30186E080930001CF
:102D00001093AC02612F82EB90E00E94972E17394E
:102D100008F453C481EB90E00E94892E873008F0BC
:102D20004AC411E0180F612F81EB90E00E94972EAA
:102D3000612F86EB90E00E94972E0E94442681E14D
:102D40008093C5018EE295E00E94351D8091720747
:102D500080FF09C080916E07882309F464C1F12CBB
:102D60006DE0E62E86C00CED12E0D8018C9184FF58
:102D700054C016968C91169712964D915C911397AC
:102D8000480F511D87FD5A9513965C934E931297E9
:102D900017968C91179714962D913C911597F901E0
:102DA000E80FF11D87FDFA951596FC93EE931497A5
:102DB0002091BD0130E08091C6019091C701281B90
:102DC000390B8091BE01A091C801B091C901790170
:102DD00062E0E60EF11CBA01685F7F4FE616F70667
:102DE000E4F44E5F5F4FB901685F7F4F46175707A6
:102DF000A4F490E08A1B9B0BAC014E5F5F4F9F01D8
:102E0000285F3F4F4217530744F426503109089674
:102E10002817390714F40E94E828025F1F4F83E047
:102E20000033180709F0A1CF10E000E0612F802FD8
:102E30000E94E52599EF980F943030F441E0480F57
:102E4000612F802F0E940C260F5F0C3179F71F5FD6
:102E5000103159F77FCF0F2D10E06801CC0CDD1C2D
:102E6000F601E00FF11FEE5CF84F8281811106C080
:102E7000F39480916E07F81670F366C081508283D8
:102E8000803179F030F4813071F0883089F74FE08B
:102E90004FC0883121F0803259F74CE049C04DE0F5
:102EA00047C04EE045C08091AF0290E0880F991F67
:102EB0008C529D4FACEDB2E05F01AF014F5F5F4FB1
:102EC0002C9124FF1BC0F5012081FAE02F9F900177
:102ED000112412966D917C9113976217730771F408
:102EE000FA012081FAE02F9F9001112414966D9130
:102EF0007C9115976217730709F461C31E9623E04E
:102F0000A033B207E9F6F601E00FF11FEE5CF84FCF
:102F100080813D85831306C081814C85841302C066
:102F20000E94E8280C0D1D1DF801EE5CF84F41E0F1
:102F3000618180810E940C269BCF0E94E2268091B5
:102F40006E07882309F46FC0809134078130A9F39C
:102F50006AC030917407909175079095932324303F
:102F600009F044C08091A20132FF32C08E3268F471
:102F70008932D0F083E884BD8FEF87BD81EF8093E5
:102F8000800080E4809388000BC0833388F483E85A
:102F900084BD8FEF87BD81EF809380001092880001
:102FA00010928A008091A2018F5F8093A2013BC0A2
:102FB0008091AC0297FF04C0863910F48F5F05C082
:102FC00094FF31C08F3778F181508093AC022BC0D1
:102FD000882371F0833300F1883218F082E0809307
:102FE00000011092A201911117C01DC01092A20100
:102FF0009923C9F02B3040F4293048F4273049F0A8
:10300000283051F481E00DC0213169F005C082E023
:1030100008C08091C50105C0109275071092740711
:1030200085E0809300018091A101811112C38091FC
:10303000A20181110EC38091AD02811106C0909151
:103040000001953019F480E201C080E093E894BD5E
:10305000809587BD81EF8093800010928800109248
:103060008A00F7C263E0A61611F40C94DE0F8CE020
:103070000FCA662009F4EBC2772019F064E081E002
:1030800004C0043029F46AE087E00E94891E46C823
:1030900066E085E0FACFC114D10441F4A401B50182
:1030A000832D0E948A25811183C0ABC2611003C0A9
:1030B00071108BC00AC0A401B5016F5F7F4F842DD2
:1030C0000E9464258111DACF03C0CD2809F4BFC264
:1030D000B5016F5F7F4FA401842D0E948A25811165
:1030E000CDCF1092BF011092CA01882309F4BCC948
:1030F0008BE08093C4010FC063E0D61295C080912D
:10310000C6019AE0199F800D11248093BD016BEFD9
:103110008AEF0E94891E0E94921EE5C9CD2879F48B
:10312000A401B301842D0E948A258823D1F266E090
:1031300085E00E94891E1BC0CD2809F488C2652D38
:10314000812F0E94E525182F802F0E942028882398
:1031500009F47DC2B5016F5F7F4FA401812F0E94EA
:103160008A25882309F4BDCF8BE08093C4010E9497
:103170001D1C0C948E108114910411F5A501B6014B
:10318000842D0E948A25811113C05EC2552009F446
:103190005EC2662019F06FEF8CEF04C0043029F492
:1031A00069EF86EF0E94891E7CC866E085E0FACF51
:1031B0008BE08093C40183EC91E00E94351D1FC217
:1031C000511024C2662009F41FC21092C4013FC2EC
:1031D000892869F4A501B601812F0E948A258823D8
:1031E00009F47FCF66E085E00E94891E0BC0A5012F
:1031F000B601812F0E948A25882309F472CF8BE0C3
:103200008093C4010E941D1C4CC8CC2019F187E09A
:103210008093C40123C9A70155274F5F5F4F612FDA
:1032200070E01FC06E2DFCC88D2D0E9420288111DA
:1032300003C01092C40112C9D11003C08BE0809367
:10324000C4018091C601AAE01A9F800D11248093C9
:10325000BD0161CFA70155274F5F5F4F612F70E020
:103260008D2D0E946425882309F455CFE2CF0E945A
:10327000322E0E94322E2AE030E040E050E00E94E0
:10328000CD2EDC01CB014496A11DB11DF301808739
:1032900040E06F2D8D2D0E940C2662C9FA946F2D8F
:1032A0008D2D0E94E525882309F42FC17AC96FEF7F
:1032B0006F0D8D2D0E94E5258F836F2DAA24A39479
:1032C000AD0C8A2D0E94E525582E6C2D8A2D0E946A
:1032D000E525482E6C2DCC24CA94CD0C8C2D0E9453
:1032E000E525382E6F2D8C2D0E94E525282E809106
:1032F000BD0190E02091C6013091C701821B930B64
:103300002A853B85281B390BC9012091BE0130E07D
:103310004091C8015091C901241B350B021B130BAE
:10332000D30119962C9119972223D1F01F922F9235
:103330003F92892CA42CC52CEF800B2D1D962C912F
:103340004F2D6D2DC3010E94AC1EF301918591504C
:1033500091870F900F900F90811128C9148561C03B
:1033600097FF1FC0101611065CF491958195910985
:1033700008171907C4F180179107BCF511E046C082
:1033800001151105A1F1919581959109119501956D
:103390001109801791076CF10817190764F515E0FA
:1033A00035C00097C9F01016110644F40817190724
:1033B00024F1801791071CF51FE028C001151105A5
:1033C00001F111950195110980179107E4F0081793
:1033D0001907DCF41BE01AC0111F1127111F110F70
:1033E000110F110F13C013E011C012E00FC014E051
:1033F0000DC017E00BC016E009C01DE007C01EE0BD
:1034000005C01CE003C019E001C01AE0EDEFE10FB8
:10341000EC3020F4F0E0EF5EFE4FE080D3011D962B
:10342000EC92F3018085882389F09FEF990D92300B
:1034300068F4B1100BC08150D30118968C938111A0
:1034400005C046E06F2D8D2D0E940C26B1E0BF9384
:103450002F923F92892CA42CC52CEF800B2D212F6D
:103460004F2D6D2DC3010E94AC1E0F900F900F9039
:1034700081119CC8F12E08E0D02E112311F01150BB
:1034800001C01FE0E1E0EF932F923F92892CA42C22
:10349000C52CEF800B2D212F49856885C3010E9423
:1034A000AC1E0F900F900F90882339F0D3011A961D
:1034B0008C918B3009F07AC81EC0BFE0FB1611F06A
:1034C000F39401C0F12CE1E0EF932F923F92892C0D
:1034D000A42CC52CEF800B2D2F2D49856885C301A9
:1034E0000E94AC1E0F900F900F908111DFCFDA94E5
:1034F000D110C3CFDBCF892D0E942928882309F45E
:1035000055C8D30117961C9251C8F301108646E0A6
:103510006F2D8D2D0E940C2644C8EFEFD7011A960F
:10352000EC931A97FEEF1696FC9308C081E0D70142
:103530001A968C931A97E2E01696EC9300E04CE70B
:1035400053E064C935EB832E33E0932E4CEE53E009
:1035500090E00FC02BEC822E23E0922E46E054E048
:1035600090E010C096EA892E93E0992E4BED53E03F
:1035700092E380E0DEC984EC882E83E0982E4EEF43
:1035800053E092E38BE7D5C91A96EC911A9723EF93
:103590002E0F233008F096CBE45F05C02CE02E0FF1
:1035A0002C3128F4E22FF0E0EE5EFA4FE4911A9607
:1035B000EC931A9791CB82E1C3CB89E0C1CBFC019C
:1035C00060812181FAE06F9FB001112413967C93F2
:1035D0006E9312976AE0269F9001112415963C93F2
:1035E0002E9314971A96EC921A971B961C921B977F
:1035F00016961C92169717961C9217977FCC81E00F
:1036000070CD61103BCD54CD892809F1672D812FF4
:103610000E94E525182F802F0E942028882349F03A
:10362000A501B60161507109812F0E9464258111A5
:10363000B2CDB60161507109A501812F0E948A2582
:10364000882309F44ECDA7CD5110A5CDBBCD80E088
:1036500048CD2D960FB6F894DEBF0FBECDBFDF91DB
:10366000CF911F910F91FF90EF90DF90CF90BF907F
:10367000AF909F908F907F906F905F904F903F9012
:103680002F900895CF92DF92EF92FF920F931F93A6
:10369000CF93DF936C017A018B01C0E0D0E0CE15AF
:1036A000DF0581F0D8016D918D01D601ED91FC917E
:1036B0000190F081E02DC6010995892B11F021962A
:1036C000EECF7E01C701DF91CF911F910F91FF9047
:1036D000EF90DF90CF9008958091AC01E091AA0126
:1036E000F091AB01882349F0CF0102969093AB0192
:1036F0008093AA01859194910895CF0102969093A9
:10370000AB018093AA018081918108958091A301EA
:1037100008950895089580E090E00895FC012285C1
:10372000261714F0421714F4FC01628708950E94D2
:10373000422FBF92CF92DF92EF92FF920F931F938F
:10374000CF93DF93FC0166834783862F880F880F12
:10375000860F382F3F70942F990F990F940F50E1D7
:103760009502C0011124832B818367FF02C08CE086
:1037700003C0662311F084E0848747FF02C01486EB
:1037800004C0442311F088E08487222309F44BC04D
:103790008185811148C0EF018485811134C01D8667
:1037A0008A819B812AE030E0B9010E94D32D162F37
:1037B0008C819D81B9010E94D32DFF24FA94F60ECD
:1037C00000E0CC24CA94C10EBB24B394B10EDF2C0C
:1037D000D01A6D2D812F0E94E525833091F46D2D37
:1037E0008C2D0E94E525E82E6D2D8B2D0E94E52560
:1037F0000F5F9DEF9E0D923020F09DEF980F92305D
:1038000060F4098710C00E94322E26E030E040E0CC
:1038100050E00E94CD2E698706C08111D8CF81501B
:103820008330A8F6EECFDF91CF911F910F91FF90DB
:10383000EF90DF90CF90BF900895E1E7F0E08081B6
:103840008D7F808310929100469847981092A9012D
:103850000895CF92DF92EF92FF920F931F93CF9331
:10386000DF930E946C1B811520E8920751F4DF91D1
:10387000CF911F910F91FF90EF90DF90CF900C941C
:103880001D1C21E02093A901813020E8920751F40A
:103890008091A7019091A8019093AB018093AA0118
:1038A0000E946C1B97FD05C02091A601222309F4FC
:1038B00040C02091A50121113CC021E02093AD0121
:1038C000EC01DF77209769F481E08093AE014698A0
:1038D0003FE9C32E3FE0D32EE12CF12CCAEFD0E01C
:1038E00014C08E0120E030E060E472E48FE090E0EC
:1038F000A90198010E94CD2E69017A0181E0C81AC0
:10390000D108E108F1081092AE01E0913007F09182
:1039100031070995811103C081E08093AE01809148
:10392000AD01882309F43FC08091AE0181113BC0F5
:1039300003C01092AD01C4CF469935C0479A0E948A
:103940006C1B009771F09C01DE010E94212FDC01AD
:10395000CB0129E0B595A795979587952A95D1F73D
:1039600003C08FEF9FEFDC01109290002AE02093BC
:103970009100D0929900C09298008093AF019093EB
:10398000B001A093B101B093B20180917100826047
:1039900080937100DF91CF911F910F91FF90EF9075
:1039A000DF90CF9008954798CACF1F920F920FB61D
:1039B0000F9211242F933F934F935F936F937F93B5
:1039C0008F939F93AF93BF93EF93FF938091AF013A
:1039D0009091B001A091B101B091B201892B8A2BD5
:1039E0008B2B81F18091AE0181110BC098B180E4E5
:1039F000892788B98091AD01882319F088B1805852
:103A000088B98091AF019091B001A091B101B091BE
:103A1000B201181619061A061B06B4F48091AF01FC
:103A20009091B001A091B101B091B2010197A109AB
:103A3000B1098093AF019093B001A093B101B0930D
:103A4000B20102C00E94291CFF91EF91BF91AF917A
:103A50009F918F917F916F915F914F913F912F91A6
:103A60000F900FBE0F901F9018959C01E1E7F0E0BA
:103A700090819D7F908381E08093AC013093AB0176
:103A80002093AA013093A8012093A7010C94291C2C
:103A90004F925F926F927F928F929F92AF92BF925E
:103AA000CF92DF92EF92FF920F931F93CF93DF930A
:103AB00000D000D0CDB7DEB7DC014115510509F4C7
:103AC000D8C0FA01F490319694914E5F5F4FCF2C9D
:103AD000D12C2223D9F0E1E0F0E0892F877011F496
:103AE000E0E0F0E0892F869586958695E80FF11D38
:103AF000EC9D8001ED9D100DFC9D100D1124209F6B
:103B0000F001219FF00D11244E0F5F1FF601EA0F07
:103B1000FB1F1E161F060CF0ACC0A038B1050CF040
:103B2000A8C09B01290F311D121613060CF0A1C06D
:103B3000603471050CF09DC04115510509F499C020
:103B4000062F0770B02E9B0177FF02C0295F3F4F01
:103B500083E0359527958A95E1F7822F77FF04C09A
:103B6000BB2011F08FEF820FB7FF05C0222733274C
:103B70002A1B3B0B02C020E030E0E038F10524F0C6
:103B800070E87A1B672E01C06F2C621A082F082E6E
:103B9000000C110B8F3F1CF4F02FF09501C0F0E0EA
:103BA000EE24E394692F677009F4E12CE92FE69580
:103BB000E695E6959E2D9E0F090F111D0930110502
:103BC00014F098E0981B6F2F680F8901FF9E000D7D
:103BD000111D1124400F511F01E010E00B2C02C0F9
:103BE000000F111F0A94E2F7EFEFE09F7001E19FD1
:103BF000F00C1124E094F094FC82EB82AC8070E82D
:103C00006703A00DB11D11242A0F3B1F205D3C4FFF
:103C1000992E980E961669F1D9012A01842D841BDC
:103C2000861508F5F2018490809EC001819E900D5A
:103C300011249A83898367FD04C09C919E21892B5E
:103C40008C93BB2059F067304CF4CD0180589F4FC6
:103C5000FC0180808A207A8087288082FFEF4F1ABB
:103C60005F0A1196DBCF6F5F4C0D5D1D20583F4FF3
:103C7000D1CF0F900F900F900F90DF91CF911F91A8
:103C80000F91FF90EF90DF90CF90BF90AF909F90FB
:103C90008F907F906F905F904F900895BC0180E06F
:103CA00090E00C94D9238FB18095807F669B8860CB
:103CB0001C9B8460089580389105B8F460347105C8
:103CC000A0F490E121E061FD24E060FD220F62FD9F
:103CD0002295687F969FD0011124A80FA05DBC4F4C
:103CE0008C91822B40FF82278C9308958091BE0196
:103CF00090E02091C8013091C901821B930B6AE0CA
:103D000070E00E94BF2D9C0181E0232B09F080E030
:103D100008959091C401981714F0691714F48093D2
:103D2000C40108951092BF011092CA0182E08093ED
:103D3000C0011092CB018091BE01873160F080916B
:103D4000C8019091C90189399F4F2CF01092C00190
:103D50008EEF8093CB0108953F924F925F926F92C6
:103D60007F928F929F92AF92BF92CF92DF92EF920B
:103D7000FF920F931F93CF93DF93CDB7DEB7142F2E
:103D8000902E3C88BE8830E02031310508F028C1F3
:103D9000082D7E2D462E3C01F901E658FF4F0C946C
:103DA0003C2FEE2029F07350723010F010E001C06B
:103DB00011E046EF60E0C3010E94702693E0991283
:103DC0000FC1112309F40CC181110AC146E065E05D
:103DD000C3010E948E1B2B2D4EEF60E0C3010E9499
:103DE000991B0FC140E06AE00E94702691E0D82E36
:103DF000D926E12EF12CEFEFEE1AFE0A512CA70185
:103E0000B201882D0E94B925382EB2016F5F7F4F15
:103E1000A7018A2D0E94B925F82E8C2D0E942028FA
:103E2000182F8A2D0E942928F4E0CF1205C0DD202A
:103E300019F04AE067E00DC094E0991211C0112317
:103E4000C9F0882309F4D0C0DD2009F4D4C044E0CF
:103E500061E0C3010E948E1B2B2D40E062E099C0FF
:103E6000E3E09E1207C0112329F0DD2019F046E09F
:103E700065E0EFCF311093C0882321F0112309F4BE
:103E8000AFC006C0112309F4ABC0FF2009F4A8C0DD
:103E9000DD2009F4A5C0DBCF4AE060E00E94702677
:103EA00091E0F82EF926412F50E04F5F5F4F642DCF
:103EB00070E0882D0E94B925033061F4FF2009F4D9
:103EC0008FC04BEF6AEFC3010E948E1B2B2D42E087
:103ED00060E05FC0882309F483C0FF2009F480C03C
:103EE0008BE0F30182872B2D42E060E0C3010E944A
:103EF000991B0750093008F075C08FE1F3018387E3
:103F000071C040E066EF0E94702691E0582E59265D
:103F1000E12EF12CFFEFEF1AFF0AC42CD12CA701E0
:103F2000B601882D0E94B925A82EB60161507109ED
:103F3000A701832D0E94B925F82E8D890E94202883
:103F4000182F832D0E9429289D89943029F455200B
:103F500019F049EF66EF17C0E4E09E120BC0112381
:103F6000E1F0882309F444C0552009F447C04FEF1D
:103F70006CEF09C0F3E09F1210C0112371F05520BF
:103F800061F046E065E0C3010E948E1B2B2D40E0EE
:103F90006EEFC3010E94991B25C0AA20A1F08BE0FF
:103FA000F30182872B2D42E060E0C3010E94991B40
:103FB00007500930B8F48FE1F30183878FE39CE168
:103FC0000E94351D0FC0882329F0112349F0552088
:103FD00039F0CDCF112321F0FF2011F05110B9CFCE
:103FE00010E00FC011E00DC0332009F44ECFD7CF41
:103FF000AA2091F3D4CF332099F3D1CFAA2081F313
:10400000CECF812FDF91CF911F910F91FF90EF9035
:10401000DF90CF90BF90AF909F908F907F906F90E8
:104020005F904F903F900895CF93DF931F92CDB74D
:10403000DEB76983DC01ED91FC910280F381E02D14
:1040400041E050E0BE016F5F7F4F09950F90DF9117
:10405000CF91089583E08093E9008091F200882356
:1040600019F08AE38093E8000895FC018485958522
:1040700097FD0BC09FB7F89482E08093E900809190
:10408000F2009FBF90E0019608959FB7F89482E0F8
:104090008093E9008091F2009FBF90E008954091E5
:1040A000B6015091B7012091B4013091B50142178A
:1040B0005307B4F49091E8009570E1F39091E80013
:1040C00092FD19C08093F1008091B6019091B701E3
:1040D00001968F739927892B19F48EEF8093E8004E
:1040E0008091B6019091B70101969093B7018093AA
:1040F000B60181E0089580E00895DF92EF92FF928B
:104100000F931F93CF93DF93D82E8A017B01E40E88
:10411000F51EEB01CE15DF0571F0D7FE03C0FE01E1
:10412000849101C088810E944F2021968111F2CF95
:104130008FEF9FEF01C0C801DF91CF911F910F91C9
:10414000FF90EF90DF900895615030F02091F100E2
:10415000FC0120830196F8CF289884E68093BB0168
:1041600008950E94392790E008950F931F93CF93ED
:10417000DF931F92CDB7DEB78C01FC018485958556
:1041800097FF0EC0CE0101960E940B27019719F4EC
:10419000898190E002C08FEF9FEFF80195878487B7
:1041A000F801848595850F90DF91CF911F910F9134
:1041B0000895CF93DF931F92CDB7DEB7FC018485BE
:1041C000958597FD05C02FEF3FEF358724870BC0FE
:1041D000CE0101960E940B27019719F4898190E086
:1041E00002C08FEF9FEF0F90DF91CF9108950F9353
:1041F0001F93CF93DF931F92CDB7DEB782E0898301
:1042000042E450E06DE47CE180E80E947D200E9461
:10421000D027DC0112960D911C9113970115110501
:1042200089F0D801ED91FC910280F381E02DBE016F
:104230006F5F7F4FC801099597FD04C0F8010085A5
:104240001185ECCF89810F90DF91CF911F910F9154
:1042500008951F920F920FB60F9211248F939F9380
:104260008091E1009091E100937F9093E10083FFC2
:104270000FC01092E90091E09093EB001092EC00D7
:1042800092E39093ED001092BC0198E09093F000BF
:1042900082FF20C093E09093E9009091F20099236F
:1042A00019F09AE39093E8009091B901992339F0BD
:1042B0009091B90191509093B901992389F190910E
:1042C000BB01992339F09091BB0191509093BB01B0
:1042D000992341F184FF10C08091E2008E7E8160BD
:1042E0008093E2008091E1008F7E8093E1008091D5
:1042F000BA018E7E806111C080FF16C08091E200FD
:104300008E7E80618093E2008091E1008E7E8093BA
:10431000E1008091BA018E7E81608093BA0104C071
:104320005D9ACDCF289AD6CF9F918F910F900FBED7
:104330000F901F9018951F920F920FB60F92112495
:10434000CF92DF92EF92FF920F931F932F933F93A1
:104350004F935F936F937F938F939F93AF93BF938D
:10436000EF93FF93CF93DF93CDB7DEB76C97DEBFAC
:10437000CDBF1092E9008091E80083FFFBC168E0A7
:10438000CE0145960E94A42082EF8093E8008D899B
:1043900087FF05C09091E80090FFFCCF03C09EEF1F
:1043A0009093E800982F907609F0C6C09E894F89B7
:1043B000588D2F89F88C91110CC0803829F4809188
:1043C000B3018093F10002C01092F1001092F1004D
:1043D00045C1913051F4811141C14130510509F07D
:1043E0003DC18091B3018D7F0BC0933061F4811189
:1043F00035C14130510509F031C18091B30182606E
:104400008093B3012BC1953049F48091E80080FF7F
:10441000FCCF822F80688093E30020C1963009F0A2
:104420005EC00B8D1C8D22E01092E9001092B70146
:104430001092B601F21232C01092B5011092B4017E
:104440000E94F72099E0BE016F5F7F4FDB01E92FEB
:104450001D92EA95E9F79983FA8291E09E8390EAAA
:1044600098879AEF99872091B6013091B701275F1D
:104470003F4F3C832B838D831092E9001092B7014C
:104480001092B6011093B5010093B40149E050E0D9
:1044900080E00E947D200E94F720E0C01093B501CB
:1044A0000093B4010E94D027DC0112960D911C915B
:1044B00013970115110509F4BBC0D801ED91FC91CA
:1044C0000480F581E02DBE016B5E7F4FC801099528
:1044D000009709F0C7C0F80100851185EACF973031
:1044E00009F445C1983021F481E08093F100B6C011
:1044F000993009F0B3C0837009F039C1E1E8F1E007
:1045000081E031E096E32081211109C08EE780939C
:10451000EA001092EA008F898093BC019FC08093CB
:10452000E9003093EB0021912093EC009093ED0093
:104530008F5F873041F7EACF8B8D9C8D1092E90019
:104540001092B7011092B6019093B5018093B40117
:10455000898D811153C08E899D89913A49F48132A8
:1045600009F005C147E050E065E071E080E0BBC0C4
:10457000913209F0FCC0833269F48F89988DA0E0F4
:10458000B0E08093010190930201A0930301B093E6
:10459000040164C0803269F48091E80082FFFCCF9E
:1045A00067E085E091E00E94A4208BEF8093E80013
:1045B00055C0823209F052C08F8980930C01EEEF12
:1045C000FFE7859194918B3F9C4D19F0E0E0F8E076
:1045D00002C0EEEFFAE08091050190910601A091F2
:1045E0000701B0910801803B9440A105B10509F095
:1045F0009EC080910C0180FF79C099C00E94D02795
:10460000FC01028113810115110509F4B0C0D80124
:10461000ED91FC910190F081E02DBE016B5E7F4F2A
:10462000C801099581111AC0F80100851185EBCFE9
:10463000F1E0FF1609F44EC0F3E0FF1298C08F8935
:10464000882309F44AC0823089F440E867E081EBAE
:104650009CE10E943E2D882309F489C08EEF80934F
:10466000E80088C018161906CCF381C0813029F4FF
:1046700040E86BE085EA9CE1ECCF833009F077C03D
:104680000E94D027DC011296ED90FC9013978E01CA
:104690000F5F1F4F6801E114F10479F0D701ED912C
:1046A000FC910680F781E02DB801C7010995080F3C
:1046B000111DF701E084F184EECFD8011C92F601C0
:1046C00001900020E9F73197BF016C197D0940E0A6
:1046D000C601BFCF63E97CE102C06FE87CE1FB016A
:1046E000449150E080E80E947D20B8CFEE3F2AE060
:1046F000F20751F0808191818737A7E79A0721F06F
:104700009093FF0A8093FE0A87E797E7918380835F
:10471000809160008093B8019BE088E10FB6F89427
:10472000A895809360000FBE9093600097CF808122
:1047300091818737974709F091CFA89580916000C4
:104740008861809360008091B80180936000EE3FA3
:10475000BAE0FB0739F08091FE0A9091FF0A91833D
:1047600080837CCF1092FF0A1092FE0A77CF81E2FD
:104770008093EB006C960FB6F894DEBF0FBECDBFF2
:10478000DF91CF91FF91EF91BF91AF919F918F9169
:104790007F916F915F914F913F912F911F910F9159
:1047A000FF90EF90DF90CF900F900FBE0F901F9073
:1047B00018958F929F92AF92BF92CF92DF92EF9215
:1047C000FF926B017C010E9479284B015C01C114AE
:1047D000D104E104F104F1F00E947928DC01CB015D
:1047E00088199909AA09BB09883E9340A105B1051A
:1047F00070F321E0C21AD108E108F10888EE880EB2
:1048000083E0981EA11CB11CC114D104E104F10481
:1048100019F7DDCFFF90EF90DF90CF90BF90AF9072
:104820009F908F9008952F923F924F925F926F9238
:104830007F928F929F92AF92BF92CF92DF92EF9230
:10484000FF920F931F93CF93DF93CDB7DEB72F97D0
:104850000FB6F894DEBF0FBECDBF4C017B012C8795
:104860000D875A8349831C821B821D821E8268E049
:1048700070E0CE0101960E9434281C019C012F5F3C
:104880003F4F3B872A8768E070E0CE0101960E9487
:1048900034288C0161E070E0CE0101960E9434283A
:1048A0002A853B85280D391D37FDF5C030E8831674
:1048B00091040CF0F0C00F5F1F4F98012E0D3F1DAB
:1048C00037FDE9C040E4E416F1040CF0E4C06701F0
:1048D000F7FE04C0CC24DD24CE18DF0857E0C52243
:1048E000DD249701F7FE02C0295F3F4F390123E025
:1048F000759467942A95E1F7F7FE09C091E0691A6B
:10490000710828E030E0A9014C195D096A0198019D
:1049100017FF02C0295F3F4F290193E05594479448
:104920009A95E1F707701127012B19F05FEF451AEF
:10493000550A0D85002311F0710102C0E12CF12C04
:10494000898701E010E0A12CB12C88E090E09C0167
:104950002C193D093F872E87A414B5040CF09BC089
:1049600041E050E058874F8361E070E0CE0101964E
:104970000E943428892B31F48F819885029698877C
:104980008F83F2CF6F817885CE0101960E94342803
:10499000DC01119640E050E04A175B0708F072C056
:1049A00099859111102B000F09F069C093012A0D10
:1049B0003B1DC9010196099708F043C0C4018E0D43
:1049C0009F1D80389105E8F5B9017695762F662709
:1049D00077956795680D791D6E0D7F1D2F3F0FEF41
:1049E000300709F454C0812F0C2C01C0880F0A94A1
:1049F000EAF7FB01E05DFC4F0C85002319F0908184
:104A0000892B03C08095908189238083C114D104B0
:104A1000C1F027303105A9F0812F90E00E8402C04B
:104A2000959587950A94E2F7FB01E055FC4F2C859C
:104A3000222319F01081812B03C0809510818123DE
:104A400080830D85011110C02FEFE21AF20A8A85CA
:104A50009B85E816F9068CF09FEFA91AB90A01E0C8
:104A600010E0E12CF12C0BC001E0E01AF108F7FE98
:104A700004C02FEFA21AB20A710101E010E04F5FEB
:104A80005F4F8ACF398541E03427398765CFC1141C
:104A9000D10411F6D6CF2F960FB6F894DEBF0FBE15
:104AA000CDBFDF91CF911F910F91FF90EF90DF90DD
:104AB000CF90BF90AF909F908F907F906F905F90BE
:104AC0004F903F902F9008958150833008F18AE0F5
:104AD000869F9001879F300D1124849FB001859F90
:104AE000700D1124ECEDF2E0808184FF0AC0828118
:104AF00093818217930729F48481958186179707FC
:104B000039F03E9683E0E033F80771F780E00895CE
:104B100081E00895873028F4843038F5882329F11E
:104B200026C0803120F58AE0869F9001879F300D56
:104B30001124849FB001859F700D1124ECEDF2E0EB
:104B4000808184FF0DC082858B3051F482819381F6
:104B50008217930729F4848195818617970739F086
:104B60003E9683E0E033F80759F781E0089580E04E
:104B70000895853031F118F4882319F124C0875045
:104B8000883008F58AE0869F9001879F300D1124B8
:104B9000849FB001859F700D1124ECEDF2E08081BF
:104BA00084FF0AC0828193818217930729F484814C
:104BB00095818617970739F03E9683E0E033F80732
:104BC00071F781E0089580E008958C31F8F46F3F2B
:104BD000F9F06031F8F4982F969570E080FD0BC0E5
:104BE00080E1989F600D711D1124FB01EA53FE4F77
:104BF0008681829509C080E1989F600D711D112406
:104C0000FB01EA53FE4F86818F70089581E008957D
:104C100080E0089582E00895982F9695E62FF0E0C1
:104C200080FD0EC080E1989FE00DF11D1124EA5334
:104C3000FE4F86818F7090E1499FA001112409C029
:104C400080E1989FE00DF11D1124EA53FE4F86810B
:104C5000807F482B46830895CF93DF9382EB90E0CB
:104C60000E94892E8093AC0283EB90E00E94892EF3
:104C7000CDEBD1E08E8384EB90E00E94912E9D835A
:104C80008C83DF91CF9108951F93CF93DF93C091D1
:104C9000AC026C2F82EB90E00E94972E6C2F87EB7A
:104CA00090E00E94972ECDEBD1E01E81612F83EB27
:104CB00090E00E94972E612F88EB90E00E94972E43
:104CC0000C80DD81C02DBE0184EB90E00E94A92EF6
:104CD000BE0189EB90E0DF91CF911F910C94A92E3A
:104CE000EF92FF920F931F93CF93DF93DC01ECEDD4
:104CF000F2E080E393E0062E000C770B042E000C0C
:104D0000550B208124FF1EC02F703C913F7023174C
:104D1000C9F01181212F2F70C281D381C20FD11D03
:104D200012962D913C911397260F371F7E010AE0B2
:104D3000E00EF11C2E153F052CF4265F3F4FC217E5
:104D4000D30734F03E968E179F07D9F680E019C03E
:104D500012951F70C481D581C10FD11D14962D915C
:104D60003C911597240F351F7E010AE0E00EF11CDF
:104D70002E153F053CF7265F3F4FC217D30714F7A8
:104D800081E0DF91CF911F910F91FF90EF900895F7
:104D90008091BE0190E02091C8013091C901821B31
:104DA000930B2AE030E0B9010E94BF2D863020F03D
:104DB000A901481B5109CA0121E005970CF020E028
:104DC000822F0895CF92DF92EF9220916E07822F6B
:104DD00090E0FC01EE0FFF1F8E0F9F1FFC01EE5CA9
:104DE000F84FC080D180E2808FEF820F80936E07F2
:104DF000E2E3F7E090E0981740F4238134814581A5
:104E00002193319341939F5FF6CF8E2DB601EF90A2
:104E1000DF90CF9008952091BC01211103C08FEF46
:104E20009FEF08955FB7F89422E02093E900209166
:104E3000F20030E01216130614F421E030E0422FA5
:104E4000FC0184E6415038F028988093BB01909192
:104E5000F1009193F7CF2115310521F08091F200F7
:104E6000882319F05FBFC90108958BE68093E8009D
:104E7000F9CF2FB7F89483E08093E9009091E80090
:104E8000892F807295FF04C09091F20080E4891B05
:104E90002FBF08958F929F92AF92BF92CF92DF92D1
:104EA000EF92FF920F931F93CF93DF936C017B01DF
:104EB0008A0180910C01882309F45CC08091BC01B7
:104EC000882309F457C08091BA0180FF05C0809102
:104ED000E00082608093E000E801B12C8AEFA82E08
:104EE00093E0892E2AE3922E209711F4BB20D9F16A
:104EF0000E94392781110AC0AA94AA20D9F161E041
:104F000070E080E090E00E94D923EECF282F30E0BF
:104F1000C217D3070CF48C2F9FB7F8948092E90046
:104F20002091E80025FF1DC0282F30E0C21BD30BC5
:104F3000F701815020F041914093F100FACFE20E49
:104F4000F31EBB2019F09092E8000AC08091E8009F
:104F500085FD07C09092E800BB24B394209709F028
:104F6000B12C9FBFC1CF5D9884E68093B901101624
:104F7000110644F081E090E0F6019383828380E0A3
:104F800090E001C0C801DF91CF911F910F91FF9078
:104F9000EF90DF90CF90BF90AF909F908F9008954B
:104FA00080917E0781110DC082E080937A0784E0B2
:104FB00080937B0710927D0710927C0781E080939D
:104FC0007E078AE797E00895CF93DF93D82F8FEA83
:104FD00090E00E94892EC82F80EB90E00E94892EDD
:104FE000D11104C0CC3411F4823539F16CE48FEA6C
:104FF00090E00E94972E62E580EB90E00E94972E51
:1050000086EB90E00E94892E682F81EB90E00E9451
:10501000972E87EB90E00E94892E682F82EB90E01C
:105020000E94972E88EB90E00E94892E682F83EBD8
:1050300090E0DF91CF910C94972EDF91CF9108955E
:10504000882329F083508D3010F080E0089581E0AE
:105050000895813028F0843028F08750893010F08E
:1050600080E0089581E008951F93CF93DF93DC01E2
:1050700020E030E040E050E011E0C1E0D0E0261751
:10508000370791F114968C911497811115C01496DD
:105090001C93149712968D919C911397ED91FC910E
:1050A0001197E80FF91FE4911596EC931597019667
:1050B00013969C938E93129714969C911497159621
:1050C0008C911597892349F0FE01022E02C0EE0F44
:1050D000FF1F0A94E2F74E2B5F2B990F14969C93B7
:1050E00014972F5F3F4FCBCFCA01DF91CF911F9114
:1050F00008953FB7F8948091E9079091EA07A0914D
:10510000EB07B091EC0726B5A89B05C02F3F19F01F
:105110000196A11DB11D3FBFBA2FA92F982F882737
:10512000820F911DA11DB11DBC01CD0142E0660F92
:10513000771F881F991F4A95D1F708951F920F92E4
:105140000FB60F9211242F933F938F939F93AF939A
:10515000BF938091E4079091E507A091E607B09195
:10516000E7073091E80723E0230F2D3720F401965D
:10517000A11DB11D05C026E8230F0296A11DB11D7A
:105180002093E8078093E4079093E507A093E60750
:10519000B093E7078091E9079091EA07A091EB07A8
:1051A000B091EC070196A11DB11D8093E907909382
:1051B000EA07A093EB07B093EC07BF91AF919F91E3
:1051C0008F913F912F910F900FBE0F901F901895C8
:1051D0008091C30181508093C30196E090930001B8
:1051E000811102C088E001C08AE08093C50189EB8B
:1051F0009CE10C94351DCF93DF93CDB7DEB7289794
:105200000FB6F894DEBF0FBECDBF789484B5826030
:1052100084BD84B5816084BD85B5826085BD85B55A
:10522000816085BD80916E00816080936E001092D8
:105230008100809181008260809381008091810053
:1052400081608093810080918000816080938000E4
:1052500080919100826080939100809191008160A3
:105260008093910080919000816080939000809164
:10527000C10084608093C1008091C10082608093EE
:10528000C1008091C10081608093C1008091C30002
:1052900081608093C3008091C00082608093C000D1
:1052A0008091C20081608093C20080917A00846006
:1052B00080937A0080917A00826080937A00809156
:1052C0007A00816080937A0080917A008068809370
:1052D0007A001092BC011092B3011092BA01809131
:1052E000D70081608093D70080EA8093D80089B589
:1052F000806189BD89B5826089BD09B400FEFDCF9A
:1053000061E070E080E090E00E94D9238091D800B5
:105310008F7C80618093D8008091E000807F8093B3
:10532000E0008091E1008E7E8093E1008DE080932B
:10533000E200559A209A81EC80937C0085B1806FC1
:1053400085B984B1877E84B984B1876E84B95E9A49
:105350005F988AB1806D8AB9769A6E9881B3806FB2
:1053600081BB899880B38D7080BB80E58CBD81E066
:105370008DBD85E090E00E944E1E5F9A85E090E032
:105380000E944E1E5E985C98EFE7F8E184918EBD16
:1053900000000DB407FEFDCF319648E1EC38F4076C
:1053A000A9F75C9A81E88093640080916500816030
:1053B000809365000E94531E87FF24C05C9885EA95
:1053C0008EBD00000DB407FEFDCF5C9A2E982F987D
:1053D0002D988091640080628093640081E083BF97
:1053E000889513BEFCCF2D980E94531E8478843874
:1053F00071F00E94531E8471843129F188EC90E091
:105400000E944E1E0E94531E82FDEDCF38C02D9A81
:1054100088EC90E00E944E1E2F9882E090E00E945F
:10542000892E8F3F29F06FEF82E090E00E94AF2E2F
:1054300084EF91E00E944E1E2F9A0E94531E8478A2
:105440008438D9F3D6CF2D9A88EC90E00E944E1E76
:105450002E9882E090E00E94892E882329F060E057
:1054600082E090E00E94AF2E84EF91E00E944E1EF9
:105470002E9A0E94531E84718431D9F3BFCF2D9A86
:1054800088E280937607809164008E7F8093640029
:1054900080917A00806480937A0080917A0086FD02
:1054A000FCCF00917800109179000E94792820E0CB
:1054B00030E0980111270027600F711F821F931F92
:1054C00020916400216020936400611571058105BD
:1054D000910511F00E94802E82E090E00E94892EBA
:1054E000882331F03E9A3F9A81E08093A30104C063
:1054F0001092A3013E983F9880E00E94E4270E940A
:105500002C2684E18093BD0183E28093BE0110923A
:10551000C40181E08093C50187E0EDE3F1E0DE01A5
:10552000119601900D928A95E1F781EB90E00E942F
:10553000892E863040F4E1E0F0E0EC0FFD1FE80F2B
:10554000F11D808103C0863019F081E18093000154
:105550002BE3222E312C38E9432E55245A9447E66A
:10556000642E77247A94DD24D39497E0A92E8FB704
:10557000F8944091E4075091E5076091E607709137
:10558000E7078FBF80917707942F981B892F909101
:105590007807992329F080937907109278075CC2E5
:1055A00090917607891740F48F5F891708F054C2ED
:1055B000D3BE889513BE50C2D09278074093770728
:1055C000809172079091730701969093730780936F
:1055D000720780917407809375070E94531E809311
:1055E000740710910001812F90E0FC013197E131A7
:1055F000F10508F023C2E759FF4F0C943C2F83EBD1
:1056000090E00E94892E1091A401853009F02BC2F0
:1056100082EB90E00E94892E813009F024C2612F34
:10562000660F660F160F185EFF24F39445E05CE1E9
:1056300068E170E000E021E086E290E00E9413243F
:10564000612F70E021E049E35CE18FE190E00E948E
:10565000132400E010E021E04AE45AE160E070E049
:10566000C8010E94481D21E04AE45AE167E370E066
:10567000C8010E94481D065F1F4F0238110559F7E7
:10568000809175078095909174078923F11011C05E
:1056900087FF07C09091A401992319F0915090932E
:1056A000A40184FF06C09091A401911102C0D09280
:1056B000A40183FFC3C18091A401882329F0813014
:1056C00009F0BCC10E94E4270E942C2682E080934E
:1056D0000001B4C10E941D1C80916E07882319F03F
:1056E0000E94E226F9CFE091AC02F0E0EE0FFF1F3E
:1056F000EE5AFF4F20813181D092C401F90184918B
:10570000FAE08F9FC0011124F9013196E4914AE03B
:10571000E49FF00111248B3391052CF41092C70102
:105720001092C60116C0AC014B5351094E355105BC
:1057300058F44BE34093BD01B101681B790B7093A2
:10574000C7016093C60107C07092C7016092C6018D
:1057500089598093BD01E731F1052CF41092C901FC
:105760001092C80116C0CF0147978235910560F4A9
:1057700087E18093BE0187E190E08E1B9F0B9093A1
:10578000C9018093C80107C05092C9014092C80165
:10579000E856E093BE01F90132961491ACEDB2E007
:1057A00043E050E070E06C91607F672B6C9318963B
:1057B0001C9218977117E8F4F901E40FF51FE491B2
:1057C0008AE0E89FF00111241396FC93EE93129760
:1057D000FA013196E20FF31F4E5F5F4FE491FAE05A
:1057E000EF9FC001112415969C938E9314976061CE
:1057F0006C937F5F1E967630B1F6CA010196F9016F
:10580000E40FF51F54915093AE02A0EBB2E010E00C
:10581000BF016E5F7F4F511759F03196E491EC93C1
:10582000FB01449111964C9311971F5F1296F0CF94
:10583000850F911D850F911DA901480F591FA4EDDA
:10584000B2E0FA0164916C933196E4911196EC9375
:1058500011974E5F5F4F12966CED72E06A177B07EF
:1058600081F74C0179E0870E911CFC013896E20F1C
:10587000F31FC490E2E0CE1621F000E010E040E01B
:1058800067C0A6ECB1E07C01F0EEEF0EF11C40E049
:105890008D0160E070E04C0159E0850E911CF4012F
:1058A000E60FF71FE20FF31F5491E52FF0E0689425
:1058B00013F8F595E7951694E1F7E63009F44F5F94
:1058C000E52FEF70E63009F44F5FF80156836F5F04
:1058D0007F4F005F1F4F6E30710509F711960E96CE
:1058E0008E159F05A9F670C0EE2309F46DC05FEF19
:1058F000851A950ABF2EB294B0EFBB227801C11071
:1059000038C0C7016CE170E00E94D32D9695879551
:105910007727A4E0880F991FAA95E1F78A539E4F35
:10592000DC01A60FB71F16965C911697E0FC1EC00F
:105930005F705B2916965C938FEFE81AF80A8E2D3C
:10594000801B8E17E0F2E150F0E031960E0F1F1F22
:10595000F901E80DF91DE491FE2FF295F695F77027
:10596000EF71F63009F0C0CF4E0FBECF507F5F2BE6
:10597000E1CFB70184E0769567958A95E1F7562FD8
:1059800056958E2D8F7090E060FD0EC060E1569FA1
:10599000800D911D1124DC01AA53BE4F16968C91E7
:1059A00016978F708B290DC070E1579F800D911D48
:1059B0001124DC01AA53BE4F16968C911697807F56
:1059C0008F2B16968C93B8CF4093AD0283E08093D3
:1059D000000105C0A092000102C00E9444260E945E
:1059E000A10E2CC088E0E4E4F1E0DE011196019004
:1059F0000D928A95E1F700E021E049E559E164E183
:105A000070E083E190E00E9413241A50FE01319669
:105A1000E10FF11DE10FF11D4081518121E063E2B1
:105A200070E087E490E008C000E021E04CE858E135
:105A300067E170E084E190E00E941324E0E3F3E08A
:105A400080E098E000800EBCD110012C019780FD11
:105A5000FDCF0192B9F70DB4E0E0F0E0309709F422
:105A600086CD099580CD110F612F660F660F160F39
:105A70001D5EF12C4CE85BE163E1DBCDDF92EF9240
:105A8000FF920F931F93CF93DF93D82EF92EE42E1E
:105A9000062F10E0C8010196880F0E944F2083E076
:105AA0000E944F20CD2DDF2D0C0F1D1FC017D107D9
:105AB00089F0E7FE03C0FE01849101C088810E9445
:105AC0004F20F82E80E00E944F208F2121968111D7
:105AD000EDCF01C081E0DF91CF911F910F91FF9039
