:100000000C94EA060C9412070C9412070C94120735
:100010000C9412070C9412070C9412070C941207FC
:100020000C9412070C9412070C949C190C940E1A41
:100030000C9412070C9412070C9412070C941207DC
:100040000C9412070C9412070C9412070C941207CC
:100050000C9412070C9412070C9412070C941121A3
:100060000C9412070C9412070C9412070C941207AC
:100070000C9412070C9412070C9412070C9412079C
:100080000C9448150C9412070C9412070C94120748
:100090000C9412070C9412070C9412070C9412077C
:1000A0000C9412070C9412070C941207F30B240CF7
:1000B000240C1D0C1D0C190C190C150C150C110C15
:1000C000110C090C090C0D0C0D0C090C090C0D0C74
:1000D0000D0C7223832308250825082503250825F0
:1000E0000825062508250B250B250B252725272563
:1000F00027251D2514254417441744176517651730
:100100006517BF17BF17BF17BF17BF17F417F4172F
:10011000F41744174417090FE8D2D9ED76BB4EC740
:10012000B7DD6EB7DBED7636090FE8D3E974FCDB9B
:10013000ED76BBDD6E6703090F109BCE6EB7DB75E6
:100140003A36090FB8B2E9145FD7ABCF85A2ED6C90
:10015000DB5901090FBC92EE55A9A4D2AAAD53E414
:10016000E9E8B6B303090FF8B6CAF55FB9B5EBD441
:1001700036EEED6CDB5901090F38B39FEAB3977780
:100180000A4BDBD9B6B302090FBC924EA5FAECE5D7
:1001900054CEC9D9D3F9EC367A090FB8B29F6AA206
:1001A000745FBB8E773B7B3A5A090F38972ACA6B2C
:1001B000998E39BD1D5B090F5CA73EF54D96DBF5A9
:1001C000B950B79D1D20064B000000190075054B66
:1001D000000000190027054B000000190097044B90
:1001E000000000190017044B0000001900B8074B6D
:1001F0000000001900E0064B000000190010034B3E
:100200000000001900BA024B000000190093024BD5
:1002100000000019004B024B00000019000B024BBC
:100220000000001900DC034B000000190070034BB4
:10023000000000190088014B00000019005D014B0F
:1002400000000019004A014B000000190026014B74
:10025000000000190006014B0000001900EE014BE0
:100260000000001900B8014B0000001900C4004B49
:100270000000001900AF004B0000001900A5004B62
:10028000000000190093004B000000190083004B90
:100290000000001900F7004B0000001900DC004BC3
:1002A000000000190062004B000000190057004BCD
:1002B000000000190052004B000000190049004BDB
:1002C000000000190041004B00000019007B004BAA
:1002D00000000019006E004B000000190031004BB7
:1002E00000000019002C004B000000190029004BF1
:1002F000000000190025004B000000190021004BF0
:1003000000000019003E004B000000190037004BB0
:10031000000000190000804B024B0000000F004B52
:10032000024B0000000F004B024B0000000F0026A4
:10033000014B000080E0060F0017040F0027050F97
:100340000000800A081800600080002000400000C3
:1003500000600090002000000000000000801000FD
:1003600020800000800000200000000040090FA84D
:10037000D69D2BA2AC932A75BB08B3DBB106090F3F
:1003800088769D7A995DCBDA756AD46DD7B101090B
:100390000FB8969F6AA274D7ABCFCDBC9D753B2B8F
:1003A0000607A8D2E9743A2E0407723A9D8E0A060F
:1003B000077C3A9D4E470704079D4BA7A3030307FD
:1003C00088E5030792CC0407B8D2E99C5304077C64
:1003D0003A9D760E0607DE6EB7DBED76070407A5BD
:1003E0009276BB5D010607B7DBED76BBDD02040745
:1003F000A5926ABBDD020307F8743A0307759A10E9
:100400000407D476BB924A2A0407B7DBAD545201E5
:100410001507A54E472555552A1595F3D99C2293C6
:10042000AA2A958A4AEA745C95032907522E95AA4E
:100430004A95E272AA9295755452E5B3924AAAAAD5
:10044000542A6EE552A9544E71399F4E392EA9AAED
:1004500052A9A8A4AA64656B4A550A2907D369A9B9
:10046000A293AA9295ADA9F64A4DEF54252BEBB86D
:10047000944BA5AA52A5B89CAA64651D552A25557A
:100480002A2AE9F24949A94A010E07A54E47E57C07
:1004900036A7C8A44EC75571011307522E95AA4A14
:1004A00095E2522E954AE51497D4E9A8A44AA5529C
:1004B000394556390F07A5CB67B3924AAAAA542AE1
:1004C0002AE9F249C9553904050E11110E00121F0F
:1004D00010121915120A11150A06051F0417151511
:1004E000090E151508011905030A15150A12150933
:1004F000061907EA5455AA2AD59129974AA57215D3
:100500009972A9542AA7B8A4AA64656B2AA9AA5209
:10051000A9B82A2EF4F5F9F6F7F8FBFAFFFCFDFE70
:100520000002030401060508090A070B0C0E0F0060
:100530008801640000001400DC0364000000140063
:100540004B0264000000280017046400000014003F
:100550002705640000001400200664000000280045
:100560000080070E04020119011A0E010E0200009C
:100570001B000301020E190E180100E18C428CE1F0
:10058000611A620141210241210322032602412115
:10059000016201214102214102240226022141017E
:1005A0006201412102412101412102214104C12274
:1005B0000241210162012141C22141012141C24187
:1005C0002103C1220321410162014122A1412101F4
:1005D0004122A1214102C1220441210162012141A4
:1005E00021A1214101214121A1412101C122052156
:1005F000410162014121C24121014121C221410148
:1006000022064121016201214102214101214102D1
:1006100041210122C4056201412102412101412100
:1006200002214101260241210162012141022141B1
:10063000012141024121012602214101621A620683
:1006400086028705620C220C613C00040F02060240
:1006500012020200001B000701110101021A020030
:10066000E1870127018AE16107290A620622072240
:10067000096205220127012208620522A127A12281
:10068000086205220421042208620522C102230215
:10069000C1220862042701270762042601210126DE
:1006A00007620423A2012301A2230762052101C1DD
:1006B000012501C101210862052D086204260326D7
:1006C0000762042301C1210321C10123076205221E
:1006D00002220122022208612361036223012362B4
:1006E00004612500020E030D00030617060E01002B
:1006F0001900010119010102190201031903010482
:10070000190401051905010619060B000F00000662
:100710001A0600046185166104290E610421C18551
:10072000C1210161820A610421416103614121010A
:100730006102820861042101610361012101610CF0
:100740006101C10221C185C121016101C108C1014D
:100750006101410221024302210161014102C1E123
:10076000022461042107210161032401846104A1A1
:1007700001410441A10161038405610421416141FA
:100780000241012101610C61C103210141052101E7
:1007900061C10A2461012107210124610B6101214A
:1007A00003A2022105610B610124A22305610B61F3
:1007B0000F61042A472B00010E020C0210020A1BD3
:1007C000001B011B021B031B041B051B061B071B35
:1007D000081B090A0012000C0E100E000B271465EE
:1007E00024126207221021610241034102220F21DB
:1007F000610143014301220F2161014301430122B1
:100800000F21610143014301220F21610241034194
:1008100002220F216104C1042210216103C10322BD
:100820000861896205228862896201210121012211
:10083000886202C102C102C16201210121012202BA
:10084000C102C1026209620121012101220862097B
:100850006201610161012208614C264A000D0F020C
:10086000080313030409001200090112010703140D
:100870000305051605011F19C1250A2608240C6564
:1008800005220262246402220229610462220224F7
:100890000262022401C164022204C127022204244C
:1008A00041214121026204224121412141210822AA
:1008B000412141214121082441214121026204C1F9
:1008C000270222022401C1640222E1E16222022401
:1008D00002622202296102220262246408650B245A
:1008E0000E260AC1251F1300D5F08D14A1C881CF93
:1008F000D9F1AF20005717A38B2E2E47175D74D167
:1009000045175D74D145175D721F5D74D145175D44
:1009100074D145175D749129BAE8A28B2EBAE8A26A
:100920008B2EBAE8A28B2EBAE8A28B2EB98F2EB4EA
:10093000499D4EC7A55C2A954AA5728A2E5795AA4D
:100940004A55E51C9772A9542A954A491449974D6E
:10095000E71D977255A9AA5455EEA24AE52A9BAD08
:100960005C2A2AE752A9543624DDD7575595AA2A7E
:100970003559AE2A5595AACA392AA9F2CAA525978A
:100980007255A9AA5455AEA35485ACE8A28B2EBAD1
:10099000E8A28B2EBAE8A28B2EBAE8A28B2EBAE878
:1009A000A28B2EBAE8A28B2EBAE8A28B2EBAE8A2AE
:1009B0008B2EBAE8A28B2EBAE8A28B2EBAE8A28BB5
:1009C0002E32450FA38B6DB9554E29BB73A76C3ED4
:1009D000BAE8A24B293FDB4A112593A5E8B2D94AD0
:1009E000A62B9B4F395BC988625BA62B999F4CD97C
:1009F0006C25F39329BAC8145D7429E7A38B2EBA2A
:100A000058A3EB74AE93CA29ED6EC5145D74D1453D
:100A1000A77C4E91C594733A975F763AD7D9647E96
:100A2000D9E95C45A67CAED33945E6B8A28BEE93F6
:100A3000DD5DC96A49155DBE72D145175D7479598E
:100A40001FA38B2EA764E7D29DDCE7D28E2EB66D56
:100A50007ABAD8B6E9E962DBA6A78B6D9B9E2EBA5F
:100A6000E862DBA6A78B6D9B9E2E9B9E6D9BCFA6FF
:100A7000B7E9E972694717DB363D5D4EE96D3EBA6D
:100A80006C7A9B8F2E7439974EC79C733A2E652BC8
:100A900059C9CA756CD94A56B2728EAB9395AC647B
:100AA000652353B69295AC5C872BE5D3E95CC7A56B
:100AB0007C3A9D53648E4B91392E2BD3E99CE2CB2B
:100AC000391D97B295AC64E53A2EE5D3D9C894ADFB
:100AD00064252BD7416FF7B5AB4AA952A9C9725506
:100AE000A9AA5455CE514995572E2DB994AB4A55C4
:100AF000A5AA721D2C1B5D74D145175D74D14517D5
:100B00005D74D1C594EB742EBAE8A28B2EBAE8A21C
:100B10008B2EBAE8A28B2EBAE8A28B2EBAE8A28B53
:100B20002EBAE8A28B2EBAE8A28B2EBAE8A28B09C5
:100B30000A1000000000000000000000000000009B
:100B4000000000000000EFEFE0EFEFEFEF0FEFEF3E
:100B500001010101010101000101FFFFFFFFFFFF92
:100B6000FFFFFF000101010101010101010000007F
:100B7000FF42424242FF0000000003000000000369
:100B80000000020202020202020202020000000051
:100B9000000000000000EFAFE06FEFEFED0FEBEFB4
:100BA000010101010101010001010000B0B000B02C
:100BB000B000000000000101000101000000EFEFA3
:100BC000E0EEEEEEEE0EEFEF01010101010101009A
:100BD0000101EEECE0E8E8EAE808ECEE01010101D1
:100BE000010101000101ECE0C0C088808000E0EC60
:100BF00001010101010101000101E0800000080084
:100C0000010086E001010101010101000101000074
:100C100000000000000000000000000000000000D4
:100C20000000E08080000000000080E00101010180
:100C3000010101000101ECE0C0808080C000E0EC17
:100C400001010101010101000101EFECE0E8E8E828
:100C5000E80CECEF01010101010101000101EFEFDE
:100C6000E0EEEEEEEE0FEFEF0101010101010100F8
:100C700001013F0FA5AA64656B2AA9AA52A9B83A37
:100C80005595AA4A755CCEA7538E4BBA7C362BA9D4
:100C9000A4AA4AA5E2562E95AA4A95E272AA92956E
:100CA0007554D2E5B359492555552A15D2A5AA64DC
:100CB000656B2AA9AA52A9B83A5595AA4A755CE962
:100CC000B454F13955C9CA3A2AA92A59D99A2A9D40
:100CD000962A7EE552A9AA54292EA72A59594725B2
:100CE0005D3E9B95545255A55221122C07EA54554E
:100CF000AA2AD571A5D352C5E754252BEBA8A4AADF
:100D000064656BAA745AAAF8954BA5AA52A5B89C1B
:100D1000AA64651D9554F9ACA492AA2A954A0102C9
:100D200007A5533609E0061E0000000A00E0061E73
:100D3000000080080B00020202010009040000010B
:100D40000202000005240010010524010101042411
:100D5000020605240600010705810310004009046E
:100D60000100020A0000000705020240000007051A
:100D700083024000000403090412010002EF020193
:100D8000404123368000010102030141726475690C
:100D90006E6F204C4C430041726475626F79002085
:100DA000066400000014002705640000001400170A
:100DB000046400000028004B02640000001400DC02
:100DC0000364000000140088016400000028000093
:100DD0008000D72511241FBECFEFDAE0DEBFCDBFE4
:100DE00011E0A0E0B1E0EAE5FFE402C005900D9259
:100DF000A037B107D9F727E0A0E7B1E001C01D9205
:100E0000AD3BB207E1F716E0CAEED6E004C0219789
:100E1000FE010E94A027C93ED107C9F70E946E219A
:100E20000C94AB270C9400002F923F924F925F924C
:100E30006F927F928F929F92AF92BF92CF92DF92EA
:100E4000EF92FF920F931F93CF93DF93CDB7DEB74F
:100E50002D970FB6F894DEBF0FBECDBF80918D01E8
:100E600090E02091960130919701821B930B05969B
:100E70002AE030E0B9010E942326162F6D87809169
:100E80008E0190E04091980150919901841B950B3F
:100E90000596B9010E9423267B016C878091000191
:100EA000853091F080914207909143076CE070E0AB
:100EB0000E943726892B09F0F6C39091700181E0DA
:100EC000892780937001EFC3812F0E94581E082F3D
:100ED000D0904407C0904507C094CD2010928F0158
:100EE00010929A01809194018B3021F01092900120
:100EF00010929B016E2D812F0E94581E863079F52D
:100F000080919101909192014996909392018093E2
:100F1000910140E06E2D812F0E947F1E80917D0205
:100F2000882319F0815080937D0280917D02811188
:100F300012C0B12C80917E02B81668F4EB2DF0E05F
:100F4000EE0FFF1FE058FD4F43E0618180810E945A
:100F50007F1EB394EFCF85E393E00E94A8158091A4
:100F600071019D2D9C709C3061F58F5F80937101A4
:100F70008531B0F18D3390F08D3391F51092710180
:100F800083E884BD8FEF87BD81EF8093800010924E
:100F9000880010928A000E945B2118C320E430E090
:100FA000A901481B5109CA01880F93E894BD9FEF1E
:100FB00097BD91EF909380001092880080938A00F3
:100FC0000FC0882369F083E884BD8FEF87BD81EF70
:100FD000809380001092880010928A001092710114
:100FE0008C2D84709C2D9870C3FE2DC081112BC058
:100FF0000E94E916882309F454C080918D0190E085
:101000002091960130919701821B930B02966AE022
:1010100070E00E942326162FCC24CA94C60E6E2D93
:101020008C2D0E94581EA82EBB24B394BE0C6B2D91
:101030008C2D0E94581E8130A1F58FEF8A0D8230D1
:1010400008F094C22EC0882361F191112AC00E9439
:10105000E916882331F180918D0190E0209196016D
:1010600030919701821B930B02966AE070E00E9418
:101070002326162FCC24C394C60E6E2D8C2D0E94D1
:10108000581EA82EBB24B394BE0C6B2D8C2D0E9431
:10109000581E813031F48FEF8A0D823010F00C949D
:1010A000A510D6FECAC06E2D812F0E94581E082F93
:1010B00080918D0190E02091960130919701821BE3
:1010C000930B6AE070E00E9423266C01892B19F4CF
:1010D00081E0810F01C0812F6E2D0E94581E282EA5
:1010E000552453945E0CC114D10419F481E0810F8E
:1010F00001C0812F652D0E94581E482EC114D104B5
:1011000019F08FEF810F01C0812F652D0E94581EAD
:10111000382E822D0E949320682E470199245FEF7C
:10112000851A950AA12EB12CA401B501832D0E9428
:10113000D71D782E0E94E916909194019B3089F476
:10114000882311F40C9472137110C1C064E0261648
:1011500021F0043011F00C94721368E087E00C94D5
:101160000C110E943B1F882341F08DEF800F8230CD
:1011700010F00C94BE100C94AC10C114D10419F4EE
:1011800081E0810F01C0812F6E2D0E94581E782EA4
:10119000C114D10419F481E0810F01C0812F652DA4
:1011A0000E94581E682E62E06E0DC114D10419F41D
:1011B00081E0810F01C0812F0E94581E482E862D8C
:1011C0000E949320682E872D0E949320882311F47B
:1011D0000C940F11662011F40C940F1135018FEF50
:1011E000681A780AA401B301842D0E94D71D8823B0
:1011F00011F40C94011164E081E00E94FC1610923D
:101200009401809198019AE0E99E800D11248093C9
:101210008E0180918D018C3310F482E0C2C0209148
:1012200096013091970129363F4F24F010928F019B
:101230008EEFC3C087FFF1CF8AC1D5FEC4C06E2D2B
:10124000812F0E94581E082F80918D0190E02091DF
:10125000960130919701821B930B6AE070E00E9427
:1012600023264C01892B19F48FEF810F01C0812FA8
:101270006E2D0E94581E382E772473947E0C811494
:10128000910419F081E0810F01C0812F672D0E9428
:10129000581E482E832D0E949320582E5701BB24A0
:1012A000BFEFAB1ABB0AC12ED12CA501B601842D0C
:1012B0000E94D71D682E0E94E916909194019B30E0
:1012C000B9F4882311F40C947213662031F0109253
:1012D00094010E9490140C949A13E4E03E1621F0BD
:1012E000043011F00C94721369EF86EF0C946711BF
:1012F0000E943B1F882331F08DEF800F823008F071
:10130000ADC7B7C78114910419F48FEF810F01C0E5
:10131000812F6E2D0E94581E082F8114910419F4FC
:101320008FEF810F01C0812F672D0E94581E782EEC
:1013300062E06E0D8114910419F48FEF810F01C0EA
:10134000812F0E94581E182F872D0E949320782EDF
:10135000802F0E949320882311F40C949A137720F5
:1013600011F40C949A13F1E0CF1AD108A501B6013B
:10137000812F0E94D71D882309F49DC76FEF8CEF42
:101380000E94FC1610929401809198012AE0E29E3E
:10139000800D112480938E0180918D018D3320F07A
:1013A0008EEF80938F01D1C02091960130919701EB
:1013B00037FF06C010928F0182E080939A01C7C068
:1013C0008111EECFC4C0D7FE85C080918E0190E020
:1013D0002091980130919901821B930B08966AE045
:1013E00070E00E9423267B01B62E0E94E916D82EBB
:1013F000882319F06FEF6E0D01C06E2D812F0E94B2
:10140000581EC82EDD2019F0BB24B394BE0C6B2DE2
:10141000812F0E94581E909194019530A4F097302E
:1014200044F09B3081F4043009F068C7D11062C7E2
:1014300065C7DD2061F1033009F083C08FEF8C0DAB
:10144000823028F57EC00E94901480918D0190E03A
:101450002091960130919701821B930B2AE030E096
:10146000B9010E942326863020F0A901481B5109AA
:10147000CA0105970CF067C0033009F064C08FEF14
:101480008C0D823008F45FC085E0809394018091D8
:1014900096015AE0159F800D112480938D011092C2
:1014A0008F0110929A0180918E01883120F08EEF89
:1014B000809390014EC0209198013091990137FF9F
:1014C00006C01092900182E080939B017FC0811141
:1014D000EECF7CC0D4FE40C080918E0190E0209180
:1014E000980130919901821B930B08966AE070E095
:1014F0000E9423267B01D62E0E94E916C82E811158
:1015000004C76FEF6E0D812F0E94581EB82ECC209D
:1015100019F0DD24D394DE0C6D2D812F0E94581E0E
:10152000D82E809194018B3009F059C6043009F40B
:10153000DFC6CC2009F401C784EF8B0D843008F09E
:10154000FCC60E94901410928F0110929A01109282
:10155000900110929B013AC080919001823009F471
:10156000BBCF80919B018E3F89F5B6CF53E0A51686
:1015700009F497CD84EF8093940110928F0110921B
:101580009A0147E06B2D8C2D0E947F1E80913E07B3
:10159000843181F0E82FF0E09F01220F331FE20F2A
:1015A000F31FEE5FF84FC082B1829CED92838F5F94
:1015B00080933E0780914407809345070E94C6169A
:1015C0008093440787E193E00E94A8158091420729
:1015D00080FD68CC1092AD021092BB021092C9023D
:1015E0001092D7021092E5021092F3028CEA682E54
:1015F00082E0782EF301808184FF4BC08281938149
:101600006AE070E00E943726D62E68878481958133
:101610006AE070E00E943726F62E69878D2D0E94C1
:10162000581EB82ECC24C394CF0C6C2D8D2D0E9447
:10163000581E982EF6E0BF1206C0D30118968C9162
:10164000882309F487C6F30182858D3014F5228141
:1016500033813B872A87C9016AE070E00E94372600
:10166000892BB9F404811581C8016AE070E00E94F9
:101670003726892B71F4E384EE2009F48BC6D3015D
:1016800018968C9181117DC6F30117828385815054
:101690008387BEE06B0E711CE0E06E16E3E07E0611
:1016A00009F0A8CFFFCB809100018850833030F43F
:1016B00080910001833009F0C9C1CDC1C12CD12C6A
:1016C000812C712CA12CB12CE0909601F090970107
:1016D000EA0CFB1CC70109968938910528F5009191
:1016E0009801109199010C0D1D1DC80109968934AE
:1016F0009105D0F4682D872D0E94581E982E8823BE
:1017000039F0282F40E35BE0B801C7010E94BB1508
:1017100029EF290D243040F4B8016A50710943E4DF
:1017200053E0C7010E94BB157394FAE0AF0EB11CE1
:101730002CE17212C9CF83943AE0C30ED11C40E170
:101740008412BFCF80910001853021F0809170011B
:101750008823F1F080919401082F001F0027001FBB
:10176000082E000C990B97FF03C091958195910964
:10177000880F990BFC01E35EFE4F4081518160911F
:101780008E0170E080918D0121E090E00E94861C26
:101790001CEAA12E12E0B12E7501D7018C9184FFB5
:1017A000ADC012960D911C911397609096017090A8
:1017B00097014301800E911E14968D919C9115976F
:1017C000C0909801D0909901C80ED91E1B96EC913B
:1017D0004E2F50E04331510508F088C0FA01EA5A13
:1017E000FF4F0C94A027F7018285082F001F0027C8
:1017F000001F082E000C990B97FF03C0919581954F
:101800009109880F990BFC01E35EFE4F40815181E5
:1018100070C0F1E08F1A910869C02FEF821A920A06
:1018200065C032E0C31AD108FCC644E0C41AD1082E
:1018300007C056E0C51AD108F4C668E0C61AD10838
:1018400000E04DE653E055C0AAE0CA1AD1089C0159
:101850002A503109F701358324831386C8016AE0D1
:1018600070E00E943726262EC9016AE070E00E94CF
:101870003726462E55245A94520C852D0E94581E08
:101880008F8333243394340C632D852D0E94581E8E
:10189000888755245394520C642D852D0E94581E20
:1018A000482E632D852D0E94581E582E80918D0143
:1018B00090E0861997098017910764F48F810E9440
:1018C0009320882309F4A5C688850E949C20811155
:1018D00097C69FC6842D0E949320882309F490C642
:1018E000852D0E949C20811194C68AC600E04FE895
:1018F00053E021E0B601C4010E94861CFEE0EF0E19
:10190000F11C20E0E21623E0F20609F046CF4090F9
:101910008D01512C8091960190919701481A590A96
:1019200060908E01712C8091980190919901681AB4
:10193000790AD5018C9184FF7FC012968D919C917C
:101940001397F201E81BF90B14962D913C91159712
:10195000A301421B530B9A01C0908E014C2D50E005
:10196000421B530BE0908D01473F6FEF5607C4F4C5
:101970002E2D30E02E1B3F0B2F3FAFEF3A070CF41C
:1019800054C62C3731050CF058C6E394EE1A8E2D50
:10199000BFEA8B2EB3E09B2E45EE53E090E03AC0B9
:1019A00045335105C4F02E2D30E02E1B3F0B2F3F49
:1019B000BFEF3B070CF449C62C3731050CF04EC67F
:1019C000E394EE1A8E2DA0EA8A2EA3E09A2E44ED1F
:1019D00053E093E31FC0F12CEE1AFF0AECEFEE1672
:1019E000EFEFFE064CF49C2D921BF2EC8F2EF3E0F1
:1019F0009F2E4BEF53E030C6FCE7EF16F104E4F006
:101A00009C2D921BEEEB8E2EE3E09E2E46EF53E0D4
:101A10008CE702C08F3F81F0C92ED12CE82EF12C2B
:101A200000E020E0B601C7010E94861C21E0A4016D
:101A3000B601C7010E94861C2EE0A20EB11C30E048
:101A4000A31633E0B30609F074CF32CE873049F4E1
:101A50008091950101C084E08093000100E010E0D6
:101A600067C098EF980F9330C8F78A3069F400E0A8
:101A700021E04BE554E069E170E08AE290E00E94E9
:101A8000861C09E210E03BC0883029F400E021E028
:101A90004AE254E02FC010917C02812F64E60E943C
:101AA0009427082F282F47EC54E069E170E088E480
:101AB00090E00E94BB15812F44E6049F80191124F9
:101AC0006AE00E949427192F282F47EC54E069E11F
:101AD00070E08DE490E00E94BB15212F47EC54E0AC
:101AE00069E170E082E590E00E94BB1500E021E032
:101AF00040E154E069E170E08BE290E0C0CF41E06A
:101B000066E170E0C8010E94CE160E5F1F4F0935D6
:101B10001105A9F709E210E041E060E270E0C801B8
:101B20000E94CE160E5F1F4F09351105A9F796CFFB
:101B300077E3E72EF12C40E0B701C8010E94CE16F2
:101B40005FEFE51AF50A60E4E616F104A1F70F5F0E
:101B50001F4F0038110561F700E010E041E068E335
:101B600070E0C8010E94CE160E5F1F4F02381105AB
:101B7000A9F78091910190919201FE01319626E0A2
:101B8000DF011D922A95E9F77F019E01295F3F4FF2
:101B90000AE010E0B8010E9437268193CB012E178E
:101BA0003F07C1F700E021E041EF54E06AE370E055
:101BB00080E090E00E94861C06E310E0F70121918E
:101BC0007F0147EC54E06AE370E0C8010E94BB1556
:101BD000055011090831110589F7F090930100E0D3
:101BE00021E044EB54E06AE370E080E490E00E947E
:101BF000861C1AE08F2D612F0E949427092F282F11
:101C000047EC54E06AE370E082E590E00E94BB1587
:101C1000202F47EC54E06AE370E087E590E00E94F3
:101C2000BB1580910001853071F4F0907D0200E0D9
:101C300021E049E954E06AE370E080E690E00E9428
:101C4000861C8F2D1DC0F0907C0200E021E049E849
:101C500054E06AE370E080E690E00E94861C64E64F
:101C600070E08F2D90E00E942326262F082F47EC4E
:101C700054E06AE370E081E790E00E94BB15802F9A
:101C8000612F0E949427192F282F47EC54E06AE314
:101C900070E086E790E00E94BB15212F47EC54E0EE
:101CA0006AE370E08BE790E00E94BB152091000191
:101CB000253009F0C1C1809142079091430780FD12
:101CC0001CC020918F0121110CC020919001211185
:101CD00008C020919A01211104C020919B01222368
:101CE00061F020919401ECE0E20FEC3120F4F0E09F
:101CF000EC5EFA4F24912093940183709927892BED
:101D000009F445C020918F0180918D01280F209307
:101D10008D011091900180918E01180F10938E010A
:101D200080919A01E0909601F0909701E80EF11CE5
:101D300087FDFA94F0929701E092960180919B01C1
:101D40004091980150919901480F511D87FD5A9576
:101D50005093990140939801812F90E0841B950B3B
:101D60000596EAE0F0E0BF010E942326362F822F7D
:101D700090E08E199F090596BF010E942326862FA9
:101D8000632F0E94581E123008F053C01DC0ACEAE9
:101D9000B2E080E093E02C9124FF11C01B962C91BF
:101DA0001B97222309F463C40AC016962C91169738
:101DB000211167C417962C911797211162C41E96A2
:101DC0008A179B0741F79ECF833099F510917C02CB
:101DD0001F5F809193018A3018F48F5F8093930185
:101DE00086E08093000110937C02612F82EB90E0EB
:101DF0000E94FB261C3908F453C481EB90E00E943A
:101E0000ED26873008F04AC411E0180F612F81EBEE
:101E100090E00E94FB26612F86EB90E00E94FB265B
:101E20000E94B71E81E18093950180E395E00E94B6
:101E3000A8158091420780FF09C080913E07882342
:101E400009F464C1F12C6DE0E62E86C00CEA12E0C4
:101E5000D8018C9184FF54C016968C9116971296D7
:101E60004D915C911397480F511D87FD5A9513961C
:101E70005C934E93129717968C91179714962D9109
:101E80003C911597F901E80FF11D87FDFA9515961C
:101E9000FC93EE93149720918D0130E08091960190
:101EA00090919701281B390B80918E01A091980188
:101EB000B0919901790162E0E60EF11CBA01685F08
:101EC0007F4FE616F706E4F44E5F5F4FB901685F97
:101ED0007F4F46175707A4F490E08A1B9B0BAC0179
:101EE0004E5F5F4F9F01285F3F4F4217530744F4F7
:101EF0002650310908962817390714F40E945B21EF
:101F0000025F1F4F83E00030180709F0A1CF10E0F7
:101F100000E0612F802F0E94581E99EF980F943097
:101F200030F441E0480F612F802F0E947F1E0F5F29
:101F30000C3179F71F5F103159F77FCF0F2D10E06B
:101F40006801CC0CDD1CF601E00FF11FEE5FF84FCD
:101F50008281811106C0F39480913E07F81670F3D8
:101F600066C081508283803179F030F4813071F025
:101F7000883089F74FE04FC0883121F0803259F71F
:101F80004CE049C04DE047C04EE045C080917F0223
:101F900090E0880F991F8C559D4FACEAB2E05F012D
:101FA000AF014F5F5F4F2C9124FF1BC0F5012081D3
:101FB000FAE02F9F9001112412966D917C91139756
:101FC0006217730771F4FA012081FAE02F9F9001E4
:101FD000112414966D917C9115976217730709F47B
:101FE00061C31E9623E0A030B207E9F6F601E00FC8
:101FF000F11FEE5FF84F80813D85831306C081811C
:102000004C85841302C00E945B210C0D1D1DF8013C
:10201000EE5FF84F41E0618180810E947F1E9BCF7F
:102020000E94551F80913E07882309F46FC080915C
:1020300004078130A9F36AC03091440790914507A5
:1020400090959323243009F044C08091720132FFAF
:1020500032C08E3268F48932D0F083E884BD8FEFCD
:1020600087BD81EF8093800080E4809388000BC05F
:10207000833388F483E884BD8FEF87BD81EF80933D
:1020800080001092880010928A00809172018F5F08
:10209000809372013BC080917C0297FF04C08B3912
:1020A00010F48F5F05C094FF31C0883978F18150FA
:1020B00080937C022BC0882371F0833300F1883237
:1020C00018F082E08093000110927201911117C004
:1020D0001DC0109272019923C9F02B3040F42930B1
:1020E00048F4273049F0283051F481E00DC0213107
:1020F00069F005C082E008C08091950105C010928A
:1021000045071092440785E080930001809171019A
:10211000811112C38091720181110EC380917D02E1
:10212000811106C090910001953019F480E201C040
:1021300080E093E894BD809587BD81EF8093800017
:102140001092880010928A00F7C263E0A61611F47C
:102150000C9451088CE00FCA662009F4EBC277207A
:1021600019F064E081E004C0043029F46AE087E0FB
:102170000E94FC1646C866E085E0FACFC114D1047F
:1021800041F4A401B501832D0E94FD1D811183C07E
:10219000ABC2611003C071108BC00AC0A401B501AD
:1021A0006F5F7F4F842D0E94D71D8111DACF03C04E
:1021B000CD2809F4BFC2B5016F5F7F4FA401842D04
:1021C0000E94FD1D8111CDCF10928F0110929A01B6
:1021D000882309F4BCC98BE0809394010FC063E0AD
:1021E000D61295C0809196019AE0199F800D112416
:1021F00080938D016BEF8AEF0E94FC160E940517F9
:10220000E5C9CD2879F4A401B301842D0E94FD1DF8
:102210008823D1F266E085E00E94FC161BC0CD2821
:1022200009F488C2652D812F0E94581E182F802F17
:102230000E949320882309F47DC2B5016F5F7F4F10
:10224000A401812F0E94FD1D882309F4BDCF8BE0DE
:10225000809394010E9490140C94010981149104BC
:1022600011F5A501B601842D0E94FD1D811113C039
:102270005EC2552009F45EC2662019F06FEF8CEF44
:1022800004C0043029F469EF86EF0E94FC167CC874
:1022900066E085E0FACF8BE08093940185EC91E0D5
:1022A0000E94A8151FC2511024C2662009F41FC243
:1022B000109294013FC2892869F4A501B601812FCB
:1022C0000E94FD1D882309F47FCF66E085E00E940F
:1022D000FC160BC0A501B601812F0E94FD1D8823AD
:1022E00009F472CF8BE0809394010E9490144CC843
:1022F000CC2019F187E08093940123C9A7015527C9
:102300004F5F5F4F612F70E01FC06E2DFCC88D2D99
:102310000E949320811103C01092940112C9D11020
:1023200003C08BE08093940180919601AAE01A9FEC
:10233000800D112480938D0161CFA70155274F5F38
:102340005F4F612F70E08D2D0E94D71D882309F407
:1023500055CFE2CF0E9496260E9496262AE030E0D2
:1023600040E050E00E943127DC01CB014496A11DE2
:10237000B11DF301808740E06F2D8D2D0E947F1EDF
:1023800062C9FA946F2D8D2D0E94581E882309F47E
:102390002FC17AC96FEF6F0D8D2D0E94581E8F834C
:1023A0006F2DAA24A394AD0C8A2D0E94581E582E7E
:1023B0006C2D8A2D0E94581E482E6C2DCC24CA9458
:1023C000CD0C8C2D0E94581E382E6F2D8C2D0E9406
:1023D000581E282E80918D0190E020919601309119
:1023E0009701821B930B2A853B85281B390BC9015A
:1023F00020918E0130E04091980150919901241B69
:10240000350B021B130BD30119962C91199722231C
:10241000D1F01F922F923F92892CA42CC52CEF80D3
:102420000B2D1D962C914F2D6D2DC3010E941F1752
:10243000F3019185915091870F900F900F9081112A
:1024400028C9148561C097FF1FC0101611065CF4DF
:1024500091958195910908171907C4F18017910783
:10246000BCF511E046C001151105A1F191958195CA
:102470009109119501951109801791076CF10817C1
:10248000190764F515E035C00097C9F0101611065C
:1024900044F40817190724F1801791071CF51FE071
:1024A00028C00115110501F1119501951109801739
:1024B0009107E4F008171907DCF41BE01AC0111F9C
:1024C0001127111F110F110F110F13C013E011C0AD
:1024D00012E00FC014E00DC017E00BC016E009C0F9
:1024E0001DE007C01EE005C01CE003C019E001C0EC
:1024F0001AE0EDEFE10FEC3020F4F0E0EF5EFE4F7C
:10250000E080D3011D96EC92F3018085882389F049
:102510009FEF990D923068F4B1100BC08150D30138
:1025200018968C93811105C046E06F2D8D2D0E9469
:102530007F1EB1E0BF932F923F92892CA42CC52C13
:10254000EF800B2D212F4F2D6D2DC3010E941F17E2
:102550000F900F900F9081119CC8F12E08E0D02EA3
:10256000112311F0115001C01FE0E1E0EF932F9211
:102570003F92892CA42CC52CEF800B2D212F49854F
:102580006885C3010E941F170F900F900F9088233A
:1025900039F0D3011A968C918B3009F07AC81EC09D
:1025A000BFE0FB1611F0F39401C0F12CE1E0EF93D2
:1025B0002F923F92892CA42CC52CEF800B2D2F2D10
:1025C00049856885C3010E941F170F900F900F90D7
:1025D0008111DFCFDA94D110C3CFDBCF892D0E94D8
:1025E0009C20882309F455C8D30117961C9251C822
:1025F000F301108646E06F2D8D2D0E947F1E44C88A
:10260000EFEFD7011A96EC931A97FEEF1696FC930C
:1026100008C081E0D7011A968C931A97E2E01696CB
:10262000EC9300E04EE753E064C937EB832E33E0D0
:10263000932E4EEE53E090E00FC02DEC822E23E05F
:10264000922E48E054E090E010C098EA892E93E082
:10265000992E4DED53E092E380E0DEC986EC882EA2
:1026600083E0982E40E054E092E38BE7D5C91A96B8
:10267000EC911A9723EF2E0F233008F096CBE45FEE
:1026800005C02CE02E0F2C3128F4E22FF0E0EC5E98
:10269000FA4FE4911A96EC931A9791CB82E1C3CB4F
:1026A00089E0C1CBFC0160812181FAE06F9FB0011C
:1026B000112413967C936E9312976AE0269F9001E3
:1026C000112415963C932E9314971A96EC921A9710
:1026D0001B961C921B9716961C92169717961C9287
:1026E00017977FCC81E070CD61103BCD54CD892808
:1026F00009F1672D812F0E94581E182F802F0E94EC
:102700009320882349F0A501B60161507109812FFA
:102710000E94D71D8111B2CDB60161507109A5018A
:10272000812F0E94FD1D882309F44ECDA7CD5110A5
:10273000A5CDBBCD80E048CD2D960FB6F894DEBF79
:102740000FBECDBFDF91CF911F910F91FF90EF9002
:10275000DF90CF90BF90AF909F908F907F906F90C1
:102760005F904F903F902F900895CF92DF92EF921D
:10277000FF920F931F93CF93DF936C017A018B012C
:10278000C0E0D0E0CE15DF0581F0D8016D918D015C
:10279000D601ED91FC910190F081E02DC6010995E3
:1027A000892B11F02196EECF7E01C701DF91CF91E9
:1027B0001F910F91FF90EF90DF90CF90089580913F
:1027C0007C01E0917A01F0917B01882349F0CF01EF
:1027D000029690937B0180937A018591949108955C
:1027E000CF01029690937B0180937A018081918141
:1027F00008958091730108950895089580E090E010
:102800000895FC012285261714F0421714F4FC01E8
:10281000628708950E94A627BF92CF92DF92EF921F
:10282000FF920F931F93CF93DF93FC01668347833F
:10283000862F880F880F860F382F3F70942F990F9F
:10284000990F940F50E19502C0011124832B8183CD
:1028500067FF02C08CE003C0662311F084E0848728
:1028600047FF02C0148604C0442311F088E0848727
:10287000222309F44BC08185811148C0EF01848572
:10288000811134C01D868A819B812AE030E0B90124
:102890000E943726162F8C819D81B9010E94372610
:1028A000FF24FA94F60E00E0CC24CA94C10EBB2497
:1028B000B394B10EDF2CD01A6D2D812F0E94581EBB
:1028C000833091F46D2D8C2D0E94581EE82E6D2DB5
:1028D0008B2D0E94581E0F5F9DEF9E0D923020F0B1
:1028E0009DEF980F923060F4098710C00E949626E1
:1028F00026E030E040E050E00E943127698706C0C2
:102900008111D8CF81508330A8F6EECFDF91CF91DF
:102910001F910F91FF90EF90DF90CF90BF9008959F
:10292000E1E7F0E080818D7F8083109291004698EE
:102930004798109279010895CF92DF92EF92FF921B
:102940000F931F93CF93DF930E94DF13811520E82D
:10295000920751F4DF91CF911F910F91FF90EF906B
:10296000DF90CF900C94901421E020937901813076
:1029700020E8920751F4809177019091780190932B
:102980007B0180937A010E94DF1397FD05C020919F
:102990007601222309F440C02091750121113CC029
:1029A00021E020937D01EC01DF77209769F481E03D
:1029B00080937E0146983FE9C32E3FE0D32EE12C61
:1029C000F12CCAEFD0E014C08E0120E030E060E4CA
:1029D00072E48FE090E0A90198010E94312769011B
:1029E0007A0181E0C81AD108E108F10810927E014D
:1029F000E0910007F09101070995811103C081E082
:102A000080937E0180917D01882309F43FC08091ED
:102A10007E0181113BC003C010927D01C4CF469955
:102A200035C0479A0E94DF13009771F09C01DE01C8
:102A30000E948527DC01CB0129E0B595A7959795E4
:102A400087952A95D1F703C08FEF9FEFDC01109295
:102A500090002AE020939100D0929900C0929800B3
:102A600080937F0190938001A0938101B0938201B4
:102A700080917100826080937100DF91CF911F91EE
:102A80000F91FF90EF90DF90CF9008954798CACFB5
:102A90001F920F920FB60F9211242F933F934F93D3
:102AA0005F936F937F938F939F93AF93BF93EF93B6
:102AB000FF9380917F0190918001A0918101B0915D
:102AC0008201892B8A2B8B2B81F180917E018111D0
:102AD0000BC098B180E4892788B980917D01882353
:102AE00019F088B1805888B980917F019091800158
:102AF000A0918101B0918201181619061A061B06D1
:102B0000B4F480917F0190918001A0918101B091F6
:102B100082010197A109B10980937F0190938001FF
:102B2000A0938101B093820102C00E949C14FF9186
:102B3000EF91BF91AF919F918F917F916F915F9135
:102B40004F913F912F910F900FBE0F901F901895AE
:102B50009C01E1E7F0E090819D7F908381E080938C
:102B60007C0130937B0120937A013093780120938C
:102B700077010C949C144F925F926F927F928F9288
:102B80009F92AF92BF92CF92DF92EF92FF920F93FC
:102B90001F93CF93DF9300D000D0CDB7DEB7DC0119
:102BA0004115510509F4D8C0FA01F4903196949179
:102BB0004E5F5F4FCF2CD12C2223D9F0E1E0F0E023
:102BC000892F877011F4E0E0F0E0892F86958695D3
:102BD0008695E80FF11DEC9D8001ED9D100DFC9D8B
:102BE000100D1124209FF001219FF00D11244E0F94
:102BF0005F1FF601EA0FFB1F1E161F060CF0ACC08C
:102C0000A038B1050CF0A8C09B01290F311D121688
:102C100013060CF0A1C0603471050CF09DC0411585
:102C2000510509F499C0062F0770B02E9B0177FF5C
:102C300002C0295F3F4F83E0359527958A95E1F7DC
:102C4000822F77FF04C0BB2011F08FEF820FB7FFF8
:102C500005C0222733272A1B3B0B02C020E030E0AF
:102C6000E038F10524F070E87A1B672E01C06F2C64
:102C7000621A082F082E000C110B8F3F1CF4F02F46
:102C8000F09501C0F0E0EE24E394692F677009F439
:102C9000E12CE92FE695E695E6959E2D9E0F090F0E
:102CA000111D0930110514F098E0981B6F2F680F63
:102CB0008901FF9E000D111D1124400F511F01E0DD
:102CC00010E00B2C02C0000F111F0A94E2F7EFEF87
:102CD000E09F7001E19FF00C1124E094F094FC82DD
:102CE000EB82AC8070E86703A00DB11D11242A0FA0
:102CF0003B1F20503D4F992E980E961669F1D90131
:102D00002A01842D841B861508F5F2018490809E8B
:102D1000C001819E900D11249A83898367FD04C0B0
:102D20009C919E21892B8C93BB2059F067304CF4E9
:102D3000CD0180589F4FFC0180808A207A808728AF
:102D40008082FFEF4F1A5F0A1196DBCF6F5F4C0D49
:102D50005D1D20583F4FD1CF0F900F900F900F90D7
:102D6000DF91CF911F910F91FF90EF90DF90CF9067
:102D7000BF90AF909F908F907F906F905F904F909B
:102D80000895BC0180E090E00C944C1C8FB18095BC
:102D9000807F669B88601C9B8460089580389105C5
:102DA000B8F460347105A0F490E121E061FD24E005
:102DB00060FD220F62FD2295687F969FD00111244D
:102DC000A80FA050BD4F8C91822B40FF82278C937F
:102DD000089580918E0190E02091980130919901A1
:102DE000821B930B6AE070E00E9423269C0181E025
:102DF000232B09F080E0089590919401981714F026
:102E0000691714F480939401089510928F01109221
:102E10009A0182E08093900110929B0180918E0133
:102E2000873160F0809198019091990189399F4F85
:102E30002CF0109290018EEF80939B0108953F92A9
:102E40004F925F926F927F928F929F92AF92BF92BA
:102E5000CF92DF92EF92FF920F931F93CF93DF9366
:102E6000CDB7DEB7142F902E3C88BE8830E02031DD
:102E7000310508F028C1082D7E2D462E3C01F901B0
:102E8000E558FF4F0C94A027EE2029F073507230C4
:102E900010F010E001C011E046EF60E0C3010E94B5
:102EA000E31E93E099120FC1112309F40CC18111A3
:102EB0000AC146E065E0C3010E9401142B2D4EEFCC
:102EC00060E0C3010E940C140FC140E06AE00E9460
:102ED000E31E91E0D82ED926E12EF12CEFEFEE1A69
:102EE000FE0A512CA701B201882D0E942C1E382EFB
:102EF000B2016F5F7F4FA7018A2D0E942C1EF82E12
:102F00008C2D0E949320182F8A2D0E949C20F4E083
:102F1000CF1205C0DD2019F04AE067E00DC094E053
:102F2000991211C01123C9F0882309F4D0C0DD2003
:102F300009F4D4C044E061E0C3010E9401142B2DC8
:102F400040E062E099C0E3E09E1207C0112329F03F
:102F5000DD2019F046E065E0EFCF311093C0882303
:102F600021F0112309F4AFC006C0112309F4ABC04E
:102F7000FF2009F4A8C0DD2009F4A5C0DBCF4AE09A
:102F800060E00E94E31E91E0F82EF926412F50E008
:102F90004F5F5F4F642D70E0882D0E942C1E033020
:102FA00061F4FF2009F48FC04BEF6AEFC3010E9468
:102FB00001142B2D42E060E05FC0882309F483C038
:102FC000FF2009F480C08BE0F30182872B2D42E0C3
:102FD00060E0C3010E940C140750093008F075C06E
:102FE0008FE1F301838771C040E066EF0E94E31E2A
:102FF00091E0582E5926E12EF12CFFEFEF1AFF0A2F
:10300000C42CD12CA701B601882D0E942C1EA82EFD
:10301000B60161507109A701832D0E942C1EF82E64
:103020008D890E949320182F832D0E949C209D89BA
:10303000943029F4552019F049EF66EF17C0E4E009
:103040009E120BC01123E1F0882309F444C05520DF
:1030500009F447C04FEF6CEF09C0F3E09F1210C0B6
:10306000112371F0552061F046E065E0C3010E9434
:1030700001142B2D40E06EEFC3010E940C1425C0FB
:10308000AA20A1F08BE0F30182872B2D42E060E0C3
:10309000C3010E940C1407500930B8F48FE1F3010A
:1030A000838785E29DE00E94A8150FC0882329F040
:1030B000112349F0552039F0CDCF112321F0FF2005
:1030C00011F05110B9CF10E00FC011E00DC0332046
:1030D00009F44ECFD7CFAA2091F3D4CF332099F360
:1030E000D1CFAA2081F3CECF812FDF91CF911F9135
:1030F0000F91FF90EF90DF90CF90BF90AF909F9097
:103100008F907F906F905F904F903F900895CF93F6
:10311000DF931F92CDB7DEB76983DC01ED91FC919F
:103120000280F381E02D41E050E0BE016F5F7F4FF0
:1031300009950F90DF91CF91089583E08093E90086
:103140008091F200882319F08AE38093E8000895C3
:10315000FC018485958597FD0BC09FB7F89482E0AC
:103160008093E9008091F2009FBF90E0019608955E
:103170009FB7F89482E08093E9008091F2009FBFAE
:1031800090E008954091860150918701209184013B
:103190003091850142175307B4F49091E80095707F
:1031A000E1F39091E80092FD19C08093F1008091C5
:1031B00086019091870101968F739927892B19F4C5
:1031C0008EEF8093E80080918601909187010196AF
:1031D000909387018093860181E0089580E00895AF
:1031E000DF92EF92FF920F931F93CF93DF93D82E2E
:1031F0008A017B01E40EF51EEB01CE15DF0571F0AF
:10320000D7FE03C0FE01849101C088810E94C218CC
:1032100021968111F2CF8FEF9FEF01C0C801DF919E
:10322000CF911F910F91FF90EF90DF900895615023
:1032300030F02091F100FC0120830196F8CF28980E
:1032400084E680938B0108950E94AC1F90E008955E
:103250000F931F93CF93DF931F92CDB7DEB78C01EF
:10326000FC018485958597FF0EC0CE0101960E94D2
:103270007E1F019719F4898190E002C08FEF9FEFC4
:10328000F80195878487F801848595850F90DF91F3
:10329000CF911F910F910895CF93DF931F92CDB7D8
:1032A000DEB7FC018485958597FD05C02FEF3FEFC4
:1032B000358724870BC0CE0101960E947E1F01979F
:1032C00019F4898190E002C08FEF9FEF0F90DF919A
:1032D000CF9108950F931F93CF93DF931F92CDB794
:1032E000DEB782E0898342E450E063E37DE080E87A
:1032F0000E94F0180E944320DC0112960D911C914F
:1033000013970115110589F0D801ED91FC91028008
:10331000F381E02DBE016F5F7F4FC801099597FDD6
:1033200004C0F80100851185ECCF89810F90DF91F1
:10333000CF911F910F9108951F920F920FB60F9288
:1033400011248F939F938091E1009091E100937FEE
:103350009093E10083FF0FC01092E90091E09093F9
:10336000EB001092EC0092E39093ED0010928C0130
:1033700098E09093F00082FF20C093E09093E900E2
:103380009091F200992319F09AE39093E8009091BC
:103390008901992339F09091890191509093890185
:1033A000992389F190918B01992339F090918B01A8
:1033B000915090938B01992341F184FF10C080912B
:1033C000E2008E7E81608093E2008091E1008F7E3A
:1033D0008093E10080918A018E7E806111C080FF20
:1033E00016C08091E2008E7E80618093E200809121
:1033F000E1008E7E8093E10080918A018E7E816063
:1034000080938A0104C05D9ACDCF289AD6CF9F9130
:103410008F910F900FBE0F901F9018951F920F92D3
:103420000FB60F921124CF92DF92EF92FF920F937B
:103430001F932F933F934F935F936F937F938F933C
:103440009F93AF93BF93EF93FF93CF93DF93CDB74A
:10345000DEB76C97DEBFCDBF1092E9008091E80027
:1034600083FFFBC168E0CE0145960E94171982EFE9
:103470008093E8008D8987FF05C09091E80090FF58
:10348000FCCF03C09EEF9093E800982F907609F050
:10349000C6C09E894F89588D2F89F88C91110CC018
:1034A000803829F4809183018093F10002C010924A
:1034B000F1001092F10045C1913051F4811141C1E8
:1034C0004130510509F03DC1809183018D7F0BC0D2
:1034D000933061F4811135C14130510509F031C19A
:1034E000809183018260809383012BC1953049F4E0
:1034F0008091E80080FFFCCF822F80688093E300FA
:1035000020C1963009F05EC00B8D1C8D22E0109218
:10351000E9001092870110928601F21232C01092D7
:103520008501109284010E946A1999E0BE016F5FC3
:103530007F4FDB01E92F1D92EA95E9F79983FA8223
:1035400091E09E8390EA98879AEF9987209186016F
:1035500030918701275F3F4F3C832B838D831092EF
:10356000E900109287011092860110938501009363
:10357000840149E050E080E00E94F0180E946A193E
:10358000E0C010938501009384010E944320DC0178
:1035900012960D911C9113970115110509F4BBC0EA
:1035A000D801ED91FC910480F581E02DBE016B5EA8
:1035B0007F4FC8010995009709F0C7C0F801008541
:1035C0001185EACF973009F445C1983021F481E0A4
:1035D0008093F100B6C0993009F0B3C0837009F050
:1035E00039C1E1E5F1E081E031E096E3208121118C
:1035F00009C08EE78093EA001092EA008F898093D9
:103600008C019FC08093E9003093EB0021912093BF
:10361000EC009093ED008F5F873041F7EACF8B8D00
:103620009C8D1092E9001092870110928601909370
:10363000850180938401898D811153C08E899D8974
:10364000913A49F4813209F005C147E050E065E064
:1036500071E080E0BBC0913209F0FCC0833269F4B4
:103660008F89988DA0E0B0E08093010190930201D2
:10367000A0930301B093040164C0803269F4809187
:10368000E80082FFFCCF67E085E091E00E94171917
:103690008BEF8093E80055C0823209F052C08F89C9
:1036A00080930C01EEEFFFE7859194918B3F9C4D49
:1036B00019F0E0E0F8E002C0EEEFFAE080910501D9
:1036C00090910601A0910701B0910801803B9440C0
:1036D000A105B10509F09EC080910C0180FF79C061
:1036E00099C00E944320FC0102811381011511053C
:1036F00009F4B0C0D801ED91FC910190F081E02D6A
:10370000BE016B5E7F4FC801099581111AC0F80197
:1037100000851185EBCFF1E0FF1609F44EC0F3E010
:10372000FF1298C08F89882309F44AC0823089F437
:1037300040E867E087E99DE00E94A225882309F41C
:1037400089C08EEF8093E80088C018161906CCF364
:1037500081C0813029F440E86BE08BE89DE0ECCF3C
:10376000833009F077C00E944320DC011296ED906F
:10377000FC9013978E010F5F1F4F6801E114F10455
:1037800079F0D701ED91FC910680F781E02DB80129
:10379000C7010995080F111DF701E084F184EECFF0
:1037A000D8011C92F60101900020E9F73197BF0182
:1037B0006C197D0940E0C601BFCF69E77DE002C01A
:1037C00065E77DE0FB01449150E080E80E94F0183D
:1037D000B8CFEE3F2AE0F20751F080819181873720
:1037E000A7E79A0721F09093FF0A8093FE0A87E7E4
:1037F00097E79183808380916000809388019BE0AC
:1038000088E10FB6F894A895809360000FBE90935E
:10381000600097CF808191818737974709F091CFDA
:10382000A8958091600088618093600080918801F4
:1038300080936000EE3FBAE0FB0739F08091FE0A0A
:103840009091FF0A918380837CCF1092FF0A10929F
:10385000FE0A77CF81E28093EB006C960FB6F89466
:10386000DEBF0FBECDBFDF91CF91FF91EF91BF9132
:10387000AF919F918F917F916F915F914F913F9108
:103880002F911F910F91FF90EF90DF90CF900F90AD
:103890000FBE0F901F9018958F929F92AF92BF927C
:1038A000CF92DF92EF92FF926B017C010E94EC209D
:1038B0004B015C01C114D104E104F104F1F00E9458
:1038C000EC20DC01CB0188199909AA09BB09883EC3
:1038D0009340A105B10570F321E0C21AD108E108B7
:1038E000F10888EE880E83E0981EA11CB11CC1145B
:1038F000D104E104F10419F7DDCFFF90EF90DF90E0
:10390000CF90BF90AF909F908F9008952F923F924D
:103910004F925F926F927F928F929F92AF92BF92DF
:10392000CF92DF92EF92FF920F931F93CF93DF938B
:10393000CDB7DEB72F970FB6F894DEBF0FBECDBF61
:103940004C017B012C870D875A8349831C821B8283
:103950001D821E8268E070E0CE0101960E94A720C1
:103960001C019C012F5F3F4F3B872A8768E070E076
:10397000CE0101960E94A7208C0161E070E0CE018B
:1039800001960E94A7202A853B85280D391D37FD09
:10399000F5C030E8831691040CF0F0C00F5F1F4FA4
:1039A00098012E0D3F1D37FDE9C040E4E416F104F7
:1039B0000CF0E4C06701F7FE04C0CC24DD24CE186F
:1039C000DF0857E0C522DD249701F7FE02C0295F1A
:1039D0003F4F390123E0759467942A95E1F7F7FE8C
:1039E00009C091E0691A710828E030E0A9014C197A
:1039F0005D096A01980117FF02C0295F3F4F290145
:103A000093E0559447949A95E1F707701127012B9D
:103A100019F05FEF451A550A0D85002311F0710169
:103A200002C0E12CF12C898701E010E0A12CB12C1F
:103A300088E090E09C012C193D093F872E87A41453
:103A4000B5040CF09BC041E050E058874F8361E023
:103A500070E0CE0101960E94A720892B31F48F815E
:103A60009885029698878F83F2CF6F817885CE01F3
:103A700001960E94A720DC01119640E050E04A1711
:103A80005B0708F072C099859111102B000F09F0A7
:103A900069C093012A0D3B1DC9010196099708F0E1
:103AA00043C0C4018E0D9F1D80389105E8F5B90112
:103AB0007695762F662777956795680D791D6E0D3B
:103AC0007F1D2F3F0FEF300709F454C0812F0C2CBE
:103AD00001C0880F0A94EAF7FB01E050FD4F0C8506
:103AE000002319F09081892B03C080959081892350
:103AF0008083C114D104C1F027303105A9F0812F92
:103B000090E00E8402C0959587950A94E2F7FB0138
:103B1000E058FC4F2C85222319F01081812B03C023
:103B200080951081812380830D85011110C02FEFB6
:103B3000E21AF20A8A859B85E816F9068CF09FEF57
:103B4000A91AB90A01E010E0E12CF12C0BC001E048
:103B5000E01AF108F7FE04C02FEFA21AB20A7101B1
:103B600001E010E04F5F5F4F8ACF398541E0342795
:103B7000398765CFC114D10411F6D6CF2F960FB671
:103B8000F894DEBF0FBECDBFDF91CF911F910F9193
:103B9000FF90EF90DF90CF90BF90AF909F908F906D
:103BA0007F906F905F904F903F902F90089581503D
:103BB000833008F18AE0869F9001879F300D1124A1
:103BC000849FB001859F700D1124ECEAF2E08081A2
:103BD00084FF0AC0828193818217930729F484812C
:103BE00095818617970739F03E9683E0E030F80715
:103BF00071F780E0089581E00895873028F48430DB
:103C000038F5882329F126C0803120F58AE0869F87
:103C10009001879F300D1124849FB001859F700D06
:103C20001124ECEAF2E0808184FF0DC082858B30A4
:103C300051F4828193818217930729F484819581BD
:103C40008617970739F03E9683E0E030F80759F77A
:103C500081E0089580E00895853031F118F48823DB
:103C600019F124C08750883008F58AE0869F9001BA
:103C7000879F300D1124849FB001859F700D112402
:103C8000ECEAF2E0808184FF0AC08281938182178E
:103C9000930729F4848195818617970739F03E961A
:103CA00083E0E030F80771F781E0089580E008953F
:103CB0008C31F8F46F3FF9F06031F8F4982F969555
:103CC00070E080FD0BC080E1989F600D711D112494
:103CD000FB01EA56FE4F8681829509C080E1989FDC
:103CE000600D711D1124FB01EA56FE4F86818F7015
:103CF000089581E0089580E0089582E00895982F66
:103D00009695E62FF0E080FD0EC080E1989FE00DD3
:103D1000F11D1124EA56FE4F86818F7090E1499F74
:103D2000A001112409C080E1989FE00DF11D11242C
:103D3000EA56FE4F8681807F482B46830895CF93B5
:103D4000DF9382EB90E00E94ED2680937C0283EB70
:103D500090E00E94ED26CDE8D1E08E8384EB90E0E8
:103D60000E94F5269D838C83DF91CF9108951F9348
:103D7000CF93DF93C0917C026C2F82EB90E00E9486
:103D8000FB266C2F87EB90E00E94FB26CDE8D1E06C
:103D90001E81612F83EB90E00E94FB26612F88EB50
:103DA00090E00E94FB260C80DD81C02DBE0184EBDB
:103DB00090E00E940D27BE0189EB90E0DF91CF914A
:103DC0001F910C940D27EF92FF920F931F93CF93A7
:103DD000DF93DC01ECEAF2E080E093E0062E000CD9
:103DE000770B042E000C550B208124FF1EC02F7072
:103DF0003C913F702317C9F01181212F2F70C28190
:103E0000D381C20FD11D12962D913C911397260F8D
:103E1000371F7E010AE0E00EF11C2E153F052CF441
:103E2000265F3F4FC217D30734F03E968E179F0789
:103E3000D9F680E019C012951F70C481D581C10FD9
:103E4000D11D14962D913C911597240F351F7E019D
:103E50000AE0E00EF11C2E153F053CF7265F3F4FB0
:103E6000C217D30714F781E0DF91CF911F910F9113
:103E7000FF90EF90089580918E0190E0209198013D
:103E800030919901821B930B2AE030E0B9010E9426
:103E90002326863020F0A901481B5109CA0121E0E0
:103EA00005970CF020E0822F0895CF92DF92EF92D9
:103EB00020913E07822F90E0FC01EE0FFF1F8E0F36
:103EC0009F1FFC01EE5FF84FC080D180E2808FEF32
:103ED000820F80933E07E2E0F7E090E0981740F40D
:103EE0002381348145812193319341939F5FF6CFA4
:103EF0008E2DB601EF90DF90CF90089520918C0128
:103F0000211103C08FEF9FEF08955FB7F89422E06F
:103F10002093E9002091F20030E01216130614F409
:103F200021E030E0422FFC0184E6415038F028982F
:103F300080938B019091F1009193F7CF211531057A
:103F400021F08091F200882319F05FBFC901089524
:103F50008BE68093E800F9CF2FB7F89483E0809345
:103F6000E9009091E800892F807295FF04C090913C
:103F7000F20080E4891B2FBF08958F929F92AF9229
:103F8000BF92CF92DF92EF92FF920F931F93CF9346
:103F9000DF936C017B018A0180910C01882309F475
:103FA0005CC080918C01882309F457C080918A01FC
:103FB00080FF05C08091E00082608093E000E8010E
:103FC000B12C8AEFA82E93E0892E2AE3922E209717
:103FD00011F4BB20D9F10E94AC1F81110AC0AA9430
:103FE000AA20D9F161E070E080E090E00E944C1CD2
:103FF000EECF282F30E0C217D3070CF48C2F9FB7D9
:10400000F8948092E9002091E80025FF1DC0282F38
:1040100030E0C21BD30BF701815020F04191409357
:10402000F100FACFE20EF31EBB2019F09092E800E7
:104030000AC08091E80085FD07C09092E800BB248B
:10404000B394209709F0B12C9FBFC1CF5D9884E64F
:10405000809389011016110644F081E090E0F6018A
:104060009383828380E090E001C0C801DF91CF910B
:104070001F910F91FF90EF90DF90CF90BF90AF9086
:104080009F908F90089580914E0781110DC082E01E
:1040900080934A0784E080934B0710924D0710925B
:1040A0004C0781E080934E078AE497E00895CF9310
:1040B000DF93D82F8FEA90E00E94ED26C82F80EB87
:1040C00090E00E94ED26D11104C0CC3411F4823569
:1040D00039F16CE48FEA90E00E94FB2662E580EB08
:1040E00090E00E94FB2686EB90E00E94ED26682F70
:1040F00081EB90E00E94FB2687EB90E00E94ED268A
:10410000682F82EB90E00E94FB2688EB90E00E94F3
:10411000ED26682F83EB90E0DF91CF910C94FB2686
:10412000DF91CF910895882329F083508D3010F0CE
:1041300080E0089581E00895813028F0843028F0EF
:104140008750893010F080E0089581E008951F9332
:10415000CF93DF93DC0120E030E040E050E011E05D
:10416000C1E0D0E02617370791F114968C9114978F
:10417000811115C014961C93149712968D919C91E1
:104180001397ED91FC911197E80FF91FE4911596A3
:10419000EC931597019613969C938E931297149611
:1041A0009C91149715968C911597892349F0FE01DF
:1041B000022E02C0EE0FFF1F0A94E2F74E2B5F2B78
:1041C000990F14969C9314972F5F3F4FCBCFCA0142
:1041D000DF91CF911F9108953FB7F8948091B9076F
:1041E0009091BA07A091BB07B091BC0726B5A89BD8
:1041F00005C02F3F19F00196A11DB11D3FBFBA2F79
:10420000A92F982F8827820F911DA11DB11DBC01D8
:10421000CD0142E0660F771F881F991F4A95D1F79D
:1042200008951F920F920FB60F9211242F933F9370
:104230008F939F93AF93BF938091B4079091B507ED
:10424000A091B607B091B7073091B80723E0230FCC
:104250002D3720F40196A11DB11D05C026E8230FBE
:104260000296A11DB11D2093B8078093B4079093C7
:10427000B507A093B607B093B7078091B90790919F
:10428000BA07A091BB07B091BC070196A11DB11D53
:104290008093B9079093BA07A093BB07B093BC076C
:1042A000BF91AF919F918F913F912F910F900FBE32
:1042B0000F901F90189580919301815080939301E6
:1042C00096E090930001811102C088E001C08AE06D
:1042D000809395018FE99DE00C94A815CF93DF930F
:1042E000CDB7DEB727970FB6F894DEBF0FBECDBFB0
:1042F000789484B5826084BD84B5816084BD85B5C1
:10430000826085BD85B5816085BD80916E008160CC
:1043100080936E0010928100809181008260809372
:104320008100809181008160809381008091800074
:1043300081608093800080919100826080939100E1
:1043400080919100816080939100809190008160C4
:10435000809390008091C10084608093C10080911F
:10436000C10082608093C1008091C1008160809310
:10437000C1008091C30081608093C3008091C00020
:1043800082608093C0008091C20081608093C200EF
:1043900080917A00846080937A0080917A008260B4
:1043A00080937A0080917A00816080937A00809176
:1043B0007A00806880937A0010928C0110928301B9
:1043C00010928A018091D70081608093D70080EAA3
:1043D0008093D80089B5806189BD89B5826089BD27
:1043E00009B400FEFDCF61E070E080E090E00E9443
:1043F0004C1C8091D8008F7C80618093D800809184
:10440000E000807F8093E0008091E1008E7E8093C9
:10441000E1008DE08093E200559A209A81EC809330
:104420007C0085B1806F85B984B1877E84B984B101
:10443000876E84B95E9A5F988AB1806D8AB9769AE0
:104440006E9881B3806F81BB899880B38D7080BB7B
:1044500080E58CBD81E08DBD85E090E00E94C116B5
:104460005F9A85E090E00E94C1165E985C98E8EE45
:10447000F8E084918EBD00000DB407FEFDCF3196AB
:1044800048E0E53FF407A9F75C9A81E8809364006F
:10449000809165008160809365000E94C61687FF49
:1044A00024C05C9885EA8EBD00000DB407FEFDCFE8
:1044B0005C9A2E982F982D9880916400806280934A
:1044C000640081E083BF889513BEFCCF2D980E94C5
:1044D000C6168478843871F00E94C61684718431BF
:1044E00029F188EC90E00E94C1160E94C61682FD58
:1044F000EDCF38C02D9A88EC90E00E94C1162F981D
:1045000082E090E00E94ED268F3F29F06FEF82E07D
:1045100090E00E94132784EF91E00E94C1162F9A29
:104520000E94C61684788438D9F3D6CF2D9A88ECA9
:1045300090E00E94C1162E9882E090E00E94ED2645
:10454000882329F060E082E090E00E94132784EF46
:1045500091E00E94C1162E9A0E94C6168471843181
:10456000D9F3BFCF2D9A88E28093460780916400EB
:104570008E7F8093640080917A00806480937A00BB
:1045800080917A0086FDFCCF00917800109179002F
:104590000E94EC2020E030E0980111270027600FF6
:1045A000711F821F931F209164002160209364007B
:1045B000611571058105910511F00E94E42682E0E4
:1045C00090E00E94ED26882331F03E9A3F9A81E0E8
:1045D0008093730104C0109273013E983F9880E06D
:1045E0000E9457200E949F1E84E180938D0183E2E8
:1045F00080938E011092940181E08093950187E071
:10460000EDE3F1E0DE01119601900D928A95E1F75C
:1046100081EB90E00E94ED26873040F4E1E0F0E08D
:10462000EC0FFD1FE80FF11D808103C0873019F0EA
:1046300081E1809300012BE3222E312C38E9432EB7
:1046400055245A9447E6642E77247A94DD24D39433
:1046500097E0A92E8FB7F8944091B4075091B50711
:104660006091B6077091B7078FBF80914707942F6D
:10467000981B892F90914807992329F08093490727
:1046800010924807F2C190914607891740F48F5F56
:10469000891708F0EAC1D3BE889513BEE6C1D0924F
:1046A000480740934707809142079091430701963E
:1046B0009093430780934207809144078093450776
:1046C0000E94C61680934407E09100018E2F90E06F
:1046D000FC013197E231F10508F0B9C1E759FF4F0C
:1046E0000C94A02783EB90E00E94ED2610917401BA
:1046F000853009F0C1C182EB90E00E94ED26813047
:1047000009F0BAC114C20E94901480913E07882318
:1047100019F00E94551FF9CFE0917C02F0E0EE0FF6
:10472000FF1FE85EFF4F20813181D0929401F90193
:104730008491FAE08F9FC0011124F9013196E49130
:104740004AE0E49FF00111248B3391052CF4109280
:1047500097011092960116C0AC014B5351094E358A
:10476000510558F44BE340938D01B101681B790B5F
:10477000709397016093960107C0709297016092C1
:104780009601895980938D01E731F1052CF410923F
:1047900099011092980116C0CF0147978235910573
:1047A00060F487E180938E0187E190E08E1B9F0B80
:1047B000909399018093980107C05092990140927B
:1047C0009801E856E0938E01F90132961491ACEA13
:1047D000B2E043E050E070E06C91607F672B6C9337
:1047E00018961C9218977117E8F4F901E40FF51F59
:1047F000E4918AE0E89FF00111241396FC93EE9374
:104800001297FA013196E20FF31F4E5F5F4FE4916A
:10481000FAE0EF9FC001112415969C938E93149794
:1048200060616C937F5F1E967630B1F6CA01019687
:10483000F901E40FF51F549150937E02A0E8B2E015
:1048400010E0BF016E5F7F4F511759F03196E49130
:10485000EC93FB01449111964C9311971F5F1296B4
:10486000F0CF850F911D850F911DA901480F591F8C
:10487000A4EAB2E0FA0164916C933196E491119646
:10488000EC9311974E5F5F4F12966CEA72E06A17D5
:104890007B0781F74C0179E0870E911CFC0138966B
:1048A000E20FF31FC490E2E0CE1621F000E010E02A
:1048B00040E067C0A6E9B1E07C01F0EEEF0EF11C2C
:1048C00040E08D0160E070E04C0159E0850E911CE4
:1048D000F401E60FF71FE20FF31F5491E52FF0E00C
:1048E000689413F8F595E7951694E1F7E63009F426
:1048F0004F5FE52FEF70E63009F44F5FF801568304
:104900006F5F7F4F005F1F4F6E30710509F7119683
:104910000E968E159F05A9F670C0EE2309F46DC0A2
:104920005FEF851A950ABF2EB294B0EFBB227801D3
:10493000C11038C0C7016CE170E00E94372696951F
:1049400087957727A4E0880F991FAA95E1F78A56E3
:104950009E4FDC01A60FB71F16965C911697E0FCE0
:104960001EC05F705B2916965C938FEFE81AF80AF9
:104970008E2D801B8E17E0F2E150F0E031960E0F85
:104980001F1FF901E80DF91DE491FE2FF295F69530
:10499000F770EF71F63009F0C0CF4E0FBECF507FE9
:1049A0005F2BE1CFB70184E0769567958A95E1F7B3
:1049B000562F56958E2D8F7090E060FD0EC060E1F1
:1049C000569F800D911D1124DC01AA56BE4F1696EC
:1049D0008C9116978F708B290DC070E1579F800DB9
:1049E000911D1124DC01AA56BE4F16968C91169784
:1049F000807F8F2B16968C93B8CF40937D0283E0F7
:104A00008093000105C0A092000102C00E94B71E61
:104A10000E9414071CC000E021E04FE35AE064E16B
:104A200070E083E190E011C000E021E042EC59E049
:104A300068E170E08DE190E008C000E021E045EF22
:104A400058E067E170E084E190E00E94861CE0E0BD
:104A5000F3E080E098E000800EBCD110012C0197BB
:104A600080FDFDCF0192B9F70DB4E0E0F0E03097A2
:104A700009F4F0CD0995EACD110F812F880F880F29
:104A8000180F1D5EF12C42E75CE063E170E000E08E
:104A900021E086E290E00E94861C612F70E021E018
:104AA0004FE15DE08FE190E00E94861C00E010E0A5
:104AB00021E040E35BE060E070E0C8010E94BB15CC
:104AC00021E040E35BE067E370E0C8010E94BB15B2
:104AD000065F1F4F0238110559F7809145078095F1
:104AE000909144078923F11011C087FF07C090916E
:104AF0007401992319F091509093740184FF06C0BA
:104B000090917401911102C0D092740183FF9FCFE4
:104B100080917401882329F0813009F098CF0E9498
:104B200057200E949F1E82E08093000190CF612F4A
:104B3000660F660F160F185EFF24F3944BEE5CE0D1
:104B400068E1A4CFDF92EF92FF920F931F93CF9370
:104B5000DF93D82EF92EE42E062F10E0C80101961F
:104B6000880F0E94C21883E00E94C218CD2DDF2D4D
:104B70000C0F1D1FC017D10789F0E7FE03C0FE010F
:104B8000849101C088810E94C218F82E80E00E94A2
:104B9000C2188F2121968111EDCF01C081E0DF91F4
:104BA000CF911F910F91FF90EF90DF900895109299
:104BB00059071092580788EE93E0A0E0B0E0809388
:104BC0005A0790935B07A0935C07B0935D078BE552
:104BD00091E090935707809356078FEF9FEF909344
:104BE000630780936207109244071092450780E1A3
:104BF000809346071092430710924207109248078D
:104C00008DE691E09093400780933F0789EF93E111
:104C1000909301078093000780E090E89093B3079A
:104C20008093B20746983E9A47983F9AE2E0F7E0B1
:104C3000108211821282339687E0EE33F807C1F7B3
:104C400010923E07089597FB072E16F4009407D0A4
:104C500077FD09D00E94372607FC05D03EF49095D9
:104C600081959F4F0895709561957F4F0895AA1B78
:104C7000BB1B51E107C0AA1FBB1FA617B70710F047
:104C8000A61BB70B881F991F5A95A9F78095909579
:104C9000BC01CD0108958F929F92AF92BF92CF92A7
:104CA000DF92EF92FF92CF93DF93EC0168817981DD
:104CB0008A819B81611571058105910521F464E26A
:104CC00079ED8BE597E02DE133EF41E050E00E9474
:104CD000312749015A019B01AC01A7EAB1E40E94C6
:104CE00050276B017C01ACEEB4EFA50194010E944A
:104CF0005E27DC01CB018C0D9D1DAE1DBF1DB7FFD6
:104D000003C00197A109B04888839983AA83BB8314
:104D1000BC01CD019F77DF91CF91FF90EF90DF90A5
:104D2000CF90BF90AF909F908F9008958F929F9259
:104D3000AF92BF92CF92DF92EF92FF9260910D01FE
:104D400070910E0180910F01909110016115710514
:104D50008105910521F464E279ED8BE597E02DE181
:104D600033EF41E050E00E94312749015A019B0195
:104D7000AC01A7EAB1E40E9450276B017C01ACEEC4
:104D8000B4EFA50194010E945E27DC01CB018C0DDC
:104D90009D1DAE1DBF1DB7FF03C00197A109B048FF
:104DA00080930D0190930E01A0930F01B093100119
:104DB000BC01CD019F77FF90EF90DF90CF90BF9027
:104DC000AF909F908F90089560930D0170930E01A6
:104DD00080930F01909310010895F999FECF92BD31
:104DE00081BDF89A992780B50895A8E1B0E042E026
:104DF00050E00C942327262FF999FECF92BD81BD58
:104E0000F89A019700B4021639F01FBA20BD0FB608
:104E1000F894FA9AF99A0FBE08950196272F0E94E6
:104E2000FC260C94FB26262FF999FECF1FBA92BDC3
:104E300081BD20BD0FB6F894FA9AF99A0FBE01967B
:104E40000895DC01CB01FC01F999FECF06C0F2BD4B
:104E5000E1BDF89A319600B40D9241505040B8F738
:104E60000895052E97FB1EF400940E94482757FDD5
:104E700007D00E94632707FC03D04EF40C94482708
:104E800050954095309521953F4F4F4F5F4F089576
:104E900090958095709561957F4F8F4F9F4F0895A6
:104EA0000E948527A59F900DB49F900DA49F800D13
:104EB000911D11240895B7FF0C9450270E9450278C
:104EC000821B930B0895A1E21A2EAA1BBB1BFD01A6
:104ED0000DC0AA1FBB1FEE1FFF1FA217B307E407D9
:104EE000F50720F0A21BB30BE40BF50B661F771F31
:104EF000881F991F1A9469F7609570958095909511
:104F00009B01AC01BD01CF010895A29FB001B39FE9
:104F1000C001A39F700D811D1124911DB29F700DC2
:104F2000811D1124911D0895991B79E004C0991FDA
:104F3000961708F0961B881F7A95C9F780950895F3
:104F4000EE0FFF1F0590F491E02D099481E090E0B1
:0A4F5000F8940C94AB27F894FFCFFF
:104F5A0001FFFFFFFF00E100000000000001000068
:104F6A000004040404080808080C0C0C0C8F03B68F
:104F7A0001A9019901A9017E036D038701770187C0
:104F8A0001650153014201370128011601000B0C8A
:104F9A000D0E0F1000005D08B707E4064B06620508
:104FAA0000C18081000000000000008718BD1F2496
:104FBA00199D18A8184C19281900000000FC1300A4
:00000001FF
