:100000000C94020F0C942A0F0C942A0F0C942A0FB4
:100010000C942A0F0C942A0F0C942A0F0C942A0F7C
:100020000C942A0F0C942A0F0C94B4210C942622C1
:100030000C942A0F0C942A0F0C942A0F0C942A0F5C
:100040000C942A0F0C942A0F0C942A0F0C942A0F4C
:100050000C942A0F0C942A0F0C942A0F0C94292923
:100060000C942A0F0C942A0F0C942A0F0C942A0F2C
:100070000C942A0F0C942A0F0C942A0F0C942A0F1C
:100080000C94601D0C942A0F0C942A0F0C942A0FC8
:100090000C942A0F0C942A0F0C942A0F0C942A0FFC
:1000A0000C942A0F0C942A0F0C942A0F0B143C1456
:1000B0003C1435143514311431142D142D14291415
:1000C0002914211421142514251421142114251474
:1000D00025148A2BF52B7A2D7A2D7A2D752D7A2DD4
:1000E0007A2D782D7A2D7D2D7D2D7D2DA92DA92D73
:1000F000A92D9F2D5C1F5C1F5C1F7D1F7D1F7D1F19
:10010000D71FD71FD71FD71FD71F0C200C200C209D
:100110005C1F5C1F090FE8D2D9ED76BB4EC7B7DD77
:100120006EB7DBED7636090FE8D3E974FCDBED76CC
:10013000BBDD6E6703090F109BCE6EB7DB753A36D9
:10014000090FB8B2E9145FD7ABCF85A2ED6CDB59CC
:1001500001090FBC92EE55A9A4D2AAAD53E4E9E877
:10016000B6B303090FF8B6CAF55FB9B5EBD436EEEE
:10017000ED6CDB5901090F38B39FEAB397770A4B4F
:10018000DBD9B6B302090FBC924EA5FAECE554CE0A
:10019000C9D9D3F9EC367A090FB8B29F6AA2745F55
:1001A000BB8E773B7B3A5A090F38972ACA6B998ED8
:1001B00039BD1D5B090F5CA73EF54D96DBF5B950C7
:1001C000B79D1D20064B000000190075054B00006F
:1001D00000190027054B000000190097044B000090
:1001E00000190017044B0000001900B8074B00006D
:1001F000001900E0064B000000190010034B00003E
:10020000001900BA024B000000190093024B0000D5
:100210000019004B024B00000019000B024B0000BC
:10022000001900DC034B000000190070034B0000B4
:1002300000190088014B00000019005D014B00000F
:100240000019004A014B000000190026014B000074
:1002500000190006014B0000001900EE014B0000E0
:10026000001900B8014B0000001900C4004B000049
:10027000001900AF004B0000001900A5004B000062
:1002800000190093004B000000190083004B000090
:10029000001900F7004B0000001900DC004B0000C3
:1002A00000190062004B000000190057004B0000CD
:1002B00000190052004B000000190049004B0000DB
:1002C00000190041004B00000019007B004B0000AA
:1002D0000019006E004B000000190031004B0000B7
:1002E0000019002C004B000000190029004B0000F1
:1002F00000190025004B000000190021004B0000F0
:100300000019003E004B000000190037004B0000B0
:1003100000190000804B024B0000000F004B024B05
:100320000000000F004B024B0000000F0026014BA5
:10033000000080E0060F0017040F0027050F0000E3
:10034000800A081800600080002000400000006063
:1003500000900020000000000000008010002080BD
:100360000000800000200000000040090FA8D69D7A
:100370002BA2AC932A75BB08B3DBB106090F8876B4
:100380009D7A995DCBDA756AD46DD7B101090FB842
:10039000969F6AA274D7ABCFCDBC9D753B2B060749
:1003A000A8D2E9743A2E0407723A9D8E0A06077C99
:1003B0003A9D4E470704079D4BA7A303030788E513
:1003C000030792CC0407B8D2E99C5304077C3A9DFA
:1003D000760E0607DE6EB7DBED76070407A592768C
:1003E000BB5D010607B7DBED76BBDD020407A59216
:1003F0006ABBDD020307F8743A0307759A10040715
:10040000D476BB924A2A0407B7DBAD5452011507D4
:10041000A54E472555552A1595F3D99C2293AA2A0E
:10042000958A4AEA745C95032907522E95AA4A9543
:10043000E272AA9295755452E5B3924AAAAA542A36
:100440006EE552A9544E71399F4E392EA9AA52A970
:10045000A8A4AA64656B4A550A2907D369A9A2937F
:10046000AA9295ADA9F64A4DEF54252BEBB8944BC3
:10047000A5AA52A5B89CAA64651D552A25552A2A05
:10048000E9F24949A94A010E07A54E47E57C36A77E
:10049000C8A44EC75571011307522E95AA4A95E27A
:1004A000522E954AE51497D4E9A8A44AA552394595
:1004B00056390F07A5CB67B3924AAAAA542A2AE94C
:1004C000F249C9553904050E11110E00121F101200
:1004D0001915120A11150A06051F04171515090E1C
:1004E000151508011905030A15150A12150906192B
:1004F00007EA5455AA2AD59129974AA572159972E7
:10050000A9542AA7B8A4AA64656B2AA9AA52A9B8B3
:100510002A2EF4F5F9F6F7F8FBFAFFFCFDFE0002CF
:10052000030401060508090A070B0C0E0F008801D9
:10053000640000001400DC036400000014004B029F
:100540006400000028001704640000001400270560
:1005500064000000140020066400000028000080F1
:10056000150E0511001300150002081209021700EC
:100570001B000E020A0406060108001681E1136141
:1005800026016123610F61210421016123610B6157
:10059000260321016123610B6121042103210161F3
:1005A00023610761260321C32101612361076121C2
:1005B00004210325016123610361260321C3210571
:1005C0006123610361210421032501612761260361
:1005D00021C3210561210422612104210325016138
:1005E00026032261210421C3210561210421032264
:1005F0006121042501612501C321C3226121C42198
:10060000056121462143214361260161250E6107D1
:1006100061340014060513010B0405061806170FB4
:10062000011B00100106061606130F00028306C107
:1006300002C1048302410121E122022161046124FB
:100640006102610322410261012201216103612AE9
:10065000610122410121612202216125C122C125BE
:10066000610121C1412261C122C121610E610521C7
:100670006131A1296103C105C1116150612B018D57
:100680000141610B610681066141618A0161058159
:1006900001810561412201220122012262048101BE
:1006A00021018104614C6203810123018103618C7A
:1006B000620281012501810261A121A121A121A163
:1006C00021A121A121A16101810122C32201810176
:1006D00061410C61810129018161410C000E05031A
:1006E00014060708150E0A010001010102010301A9
:1006F00004010501060107010801090400170606A7
:1007000008140E0041E11942E14401492149C14266
:10071000E104C103C18403886142E107612202252B
:1007200005226142E105C1016107C121022101C128
:1007300021C16142E104236102C104220221A122FC
:10074000416142E102C1046125610221076142E188
:100750000123036121032161022183612442E10716
:100760006121C102216102210361830142E1036130
:10077000296123036102C1014223016121C10121D9
:1007800001C1022103210361012342C10122612928
:100790000321036101210242246183C241C221C1BC
:1007A000022243614122420321610223412561214A
:1007B000046102C14201C101216104C106620461F8
:1007C0002161014125612C612900160E02080F13D9
:1007D0000F070D000E00130014001500160017007F
:1007E0000A0211021A0200070108C161260881C12C
:1007F0006125088101C16124088102C1612308814A
:1008000003C16122088104C16121088105C1610819
:10081000810F810F810562036B42026123C122C1F6
:1008200022C1230161234722032FE1244722428171
:100830006123A8210282612241C142C142C12382B7
:10084000016B42820C62E1610FC1610EC1610C61FA
:10085000E101C1610B21E16E2301C16102C16102AD
:10086000C16101C1236D2301C16102C16102C16186
:1008700001C1236D210016080404000D00080517AE
:100880000E07000002000C001B00110C110D110ED0
:1008900005000E001800090500E181E10524E103CF
:1008A000C1032404610161246124612601276201DE
:1008B00061246102C1016123C1220124C1226201BC
:1008C0006121C221612B042462012561058E62052C
:1008D000216109C102C1076102216101216125A1D4
:1008E000276101C101C1026102216101216185010C
:1008F0008561482201216101216104C101C10461B6
:1009000003C101C105C16101216125A125612761E3
:100910002261420121618B610761226103C161048F
:10092000C105412661016122612EE14104C10161DD
:100930000161C12161210E4125A1210161226121B5
:1009400005C104C1034108613C001A0803140309EE
:100950000601030302000201020200030B06130357
:1009600010030104A62604450126E1E1E1620481A9
:10097000016322048103C1816202220481046202B4
:10098000C12204810481038162046603810581011F
:100990002AC1042C028101A2016722028101228165
:1009A00001C1052202810122012301A121012202AC
:1009B00081022101240121C12103810881026203F6
:1009C000690829072BC1038104C10522038109C1DC
:1009D000A2042BC104290665C10981048168028132
:1009E000012301A124012202810124A12401220268
:1009F0008101A202C122032202810122032202C13B
:100A000022026221096121000E0F0317040B060A5E
:100A10000B080F000F010F020F030F040F050F0645
:100A20000F07020016040A060C0B026001111111D7
:100A3000111110111111111111314440000400065F
:100A4000101000000000013161011110111110138C
:100A500011131111313161010010006010131113D5
:100A60001111313161016611111110130013006170
:100A700031316101111111111011131311113131A3
:100A80006100600000000000131311113131611189
:100A900011311116000613130000313161000030CE
:100AA000001111111311111131316131116113064E
:100AB00000001300060131316131060011111113DC
:100AC0001111111131316130311306000013000092
:100AD0006001313161111111111113111111113115
:100AE00031316160010601060300100060313131CF
:100AF0005131313131311111131111113130603156
:100B000036313631006003006000310D050402010A
:100B10001901070F140F040D000E000D010E010244
:100B2000001900060F150F011F046203630823C19B
:100B3000A2630565416604620962036E02620A628D
:100B40000265416905840964216208C1210121010E
:100B5000236206C121012101260621C1210123A210
:100B6000C1062101210123A2C105C1210121C12604
:100B700005C1210121012362076421620C840865FB
:100B8000416901620A62026E02620962036541669E
:100B90000623C1A263076203631F06000D0E04163D
:100BA0000109051A0A000E09180018011802180395
:100BB0001804180518061807180816000103090478
:100BC000190A001F0CC105210121E121086183617F
:100BD0002B0121E12102C1018461042106C102210E
:100BE0000121E121022161092104260121E12102E3
:100BF0002261082104C10621E12102236105C1010E
:100C00002105850121E121022461018521C102C163
:100C10002104610646610426046182E1096104261B
:100C2000046101250661042604610121C1096104F2
:100C300026046101246106610E6105610482610E72
:100C400061056102C121026102C10B6105612402DB
:100C5000612D0161022400120C030A031203160C19
:100C6000030E000E010E020A001200070C150C0004
:100C70001F1F17860661216106860661836121C1F7
:100C8000612161C121618361066121C1012161038B
:100C900061276103612101C1216101612404618136
:100CA00061210121618161042461016222076123C4
:100CB000610722620261220761210121610722612D
:100CC0000361220761236107226103612207612119
:100CD000012161072261036122076123610722610B
:100CE00003612207612101216107226103612961FA
:100CF0002361296101C101612203C102216101C196
:100D000001612102C1032261C15C00100F030C03C9
:100D1000140E0D0F0316001601160203010E031A1E
:100D20000E0C0F001F0582086109C10682016105D2
:100D3000826102C1E1052461820361048321A12251
:100D40006121610761024121A121610283C121C1A9
:100D50000261216103A2236102C10261816142013A
:100D600041266103A1C10361024104610344018280
:100D70006104A1C1026106C16101C1056141072190
:100D8000C1016121A12261466121A1416141076147
:100D900021C161046102C10361036141076101A1D5
:100DA0006141036121A12461224161410761018107
:100DB0006103C16102C103610241614107614101F7
:100DC000C103416124A121610141C161C1410661A9
:100DD0000241046102C1036101426142066107618F
:100DE00022A123610361062A6106612A000302042D
:100DF00013020408120B150E120100110112011347
:100E00000114011A021A031A041A0504061A060428
:100E1000071A07090A0A0A0B0A0C0A0D0A14020427
:100E2000041407120E0220122212211211221202A1
:100E300021221121233333323212210230000322C6
:100E400011112300063230666000300003060001F5
:100E500023212132312112313211131111012306C4
:100E600000323066603030611311120123212332C9
:100E700030111030302263611601233300623000DC
:100E800000363001232122012300011230060032F6
:100E90003006034444012360030230111032300154
:100EA0002300621123111132300100363001030199
:100EB00016012300203230000032300103000232DC
:100EC0002300203444444444360103266631230081
:100ED000263211113062311111111111230021320A
:100EE000000111112124444444312306003006003E
:100EF0000600000000066631211111121222222282
:100F0000222222222231020F0314000808150E04A7
:100F10000000110016001B0013000B010708140E3F
:100F200000E188211261082102C1046124610121CC
:100F300001216201A6012561410161410361012195
:100F400001216201A6012104614101614161410168
:100F500061012101216201A6012161244101614158
:100F600061410161012101216201A2C2A20121614D
:100F700001C102410161416141016101210121621F
:100F800001A6012561410161416141016101210128
:100F9000216201A6012102C101614101614161415A
:100FA00001610121C1216208216124410161416186
:100FB0004101610122A162296101C1024101614136
:100FC0006141016104622D61412241614126622932
:100FD00002C10161446144236222C22561244101AE
:100FE000C1016101C10141C1226228C16141214B9E
:100FF00023624A07C103C104620A613000000E0384
:101000000E0E130E1A0E0201000201100117010D3F
:101010000E140E001F1A61C104C16106C16105C131
:101020006105C1610461C10661C10561C10561C19C
:1010300004C16106C16105C16105C1610461C106E8
:1010400061C10561C10561C104C16106C16105C11C
:101050006105C1610461C10661C10561C10561C16C
:1010600004C16106C16105C16105C1610461C106B8
:1010700061C10561C10561C104C16106C16105C1EC
:101080006105C1610461C10661C10561C10561C13C
:1010900004C16106C16105C16105C1610461C10688
:1010A00061C10561C10561C104C16106C16105C1BC
:1010B00061043C00070B02010E0A0E0400001B0035
:1010C00000011B011502020B0F0B090E00E11C9A17
:1010D000E16218630221A1220423A12202260262F6
:1010E0000221022203210421022104A10262022121
:1010F0000322022107210762022104210221072184
:101100000762022103C121022104C10221076202F8
:1011100021032202210322022104C102620221C111
:101120000122032103C1210221C102C12102620265
:10113000240423A1220222A12302621A6201612651
:10114000022602216124026201612103C1210226DB
:101150006101216122C12102620161210421022277
:1011600001C1226102612402613C00130E031307D6
:1011700007040E000112000D00060415070501000A
:1011800011C1E112C10226612101C10B23A1240575
:101190006125A121072106210561210521072102E1
:1011A000C103210561210521032801C10121C102DB
:1011B000216125C22103210623A125610421A12447
:1011C0000121062107216102C104810121012106BB
:1011D0002104612B016121012103C101C1210461AD
:1011E0002109C10161210121022504612101C102FE
:1011F0006121610161240124032101C121612402D3
:101200006123A121072101C1012461032101C161E1
:10121000210B250221610323A12113610F412141EB
:1012200021412141214121412141214121412141AE
:10123000214121412141214121000F0E0400020CD6
:10124000061508080A0316001601160201020D060B
:101250001408070A001F1F02C121C10C21C1032568
:1012600061286121612A61C103216101C1066121F7
:101270006104210561236125612A61216125C10283
:101280006105610A61216104C121612E612BC16187
:1012900022C1022106C121610621C1032961296100
:1012A0002A61066123C101220261022202C1236177
:1012B00024612961236126C1016124612101C125C5
:1012C000C1612361042461246129612661256103D0
:1012D0002161052103610221036102C13C00190063
:1012E0000303050C090E0E0F1B001B011B021B0341
:1012F0001B041B051B061B071B081B091B0A1B0BDA
:101300001B0C1B0D1B0E02050A070D080F0E020415
:101310004446000000000000000060601000000172
:101320003000000000000003111110000001300027
:101330000000000000351111100000013000000015
:101340000000031511001000000130000000000033
:101350003115116010060001300000000003161561
:101360001155101111001300000000310315110078
:1013700010600016013000000310631511001011F9
:1013800013010011300031111315110010600130EC
:10139000160136031060631511001011301301009F
:1013A00011311111131511001060130130160130A5
:1013B0006060031511001013013013010131111188
:1013C0000315115510013013013000000000031502
:1013D0001100000030030030000000000300000096
:1013E0000011111111111111111111111111110D02
:1013F000090405081508090B110B090D000D010D55
:10140000020D030D040D050D060D070D08080B0A4E
:101410000B100B120B004C034E8861214181E181BE
:10142000412161894206C101612182E1822161017C
:10143000C1074203C1022261820382612202C10408
:101440004202C122A18162214121E1214121628127
:1014500021A12101C1024201C12282618121A18118
:1014600061E16181A12181618223C10142C12282A6
:10147000618561E16185618322C14121A18361862A
:1014800061E161866184A1228361018661E16186F7
:1014900001618422036126A1610161A12661042208
:1014A00001C101610723076102C1012161036107D5
:1014B00021C12107610462836121A12561016125A8
:1014C000A12161846201C1026106610161066102BC
:1014D000C10262046102C10361016102C1036105CD
:1014E000613C000C0E020B03150302000000010A10
:1014F000030C031403160300E11F1847610F614436
:1015000007610F610B6127432561072103610F61AB
:1015100006210282610F61062101C101C16104C17E
:1015200021C105C36106210121C12161820221017E
:101530002101C30123618203210221C12161C10173
:10154000C182C12101230121C12161C101C18101E8
:101550002102236121C12101C121C101C3012361F4
:1015600021C1210221042161C121C10123012301E3
:1015700021C12161C121C1012105216121C12109AF
:10158000236121C121086181610D61816109610FC0
:101590006104234329442900120E0613031705157D
:1015A0000606080B080F0E0119001403140607089D
:1015B0000C0800068CC1094603220621462161025F
:1015C000418602C206210621610241610623A1056E
:1015D0002105C12161024161C204C102C10526A1E8
:1015E00021610244610321A1420C62066107C1042A
:1015F000C104820161066105214A218201610661FF
:10160000C102C1012107C1022103610661246127D2
:10161000A124036107210221610F610721022161D9
:101620000F610721C221610F610722A121610F61B2
:101630000B610F6102234523452343234300050724
:1016400003040119010C0408150015011502150306
:101650001504150515061507030118010D050C0ED7
:10166000001F0D410AC16145014761420321E1218B
:101670006124610783036141C1226121E121612667
:1016800061220122026121026101236121E12161C4
:1016900022C12102610222C12101610121016122D5
:1016A000026121E121612461210324A16102216100
:1016B000026123E1216104610961032102612104C6
:1016C000246228012101C12102C161216127622810
:1016D000A121012102246122056228A12105C12244
:1016E0006102266122C10322A121846121012161BD
:1016F0008602612203C122A1216103210221C104CA
:101700002101216228A1216102276123C1216203F5
:1017100022C10461012206610223622A612B046155
:10172000000C0B030A0113020A040F1B001B011B10
:10173000021B031B041B051B061B071B081B091BA5
:101740000A1B0B1B0C1B0D1B0E09011402090416AE
:101750000B00211921E12106C1078AC121E12D6277
:1017600006C1026122E12409622B022502C1056241
:101770000822032D6202C1042361022706622802A7
:101780006105C1022202C102620523A12161026139
:101790002C6201C1022204610261220121012403A1
:1017A000622501C103610261026121612101C1223F
:1017B00002620225A12261024361016121612401CB
:1017C00062012201C10561024561016121012362BB
:1017D00025A12461024763210121622109610B6176
:1017E000016101620A61023C00170F0201041A0440
:1017F0000200001B000103020319031A0300E18425
:1018000006C70584E1610432046201433243016288
:10181000043204620121610132016121016142212E
:10182000610121042104210423016121420361019A
:1018300021C421C421C42301610661013201610672
:101840006101320161066101320161066101230417
:101850002104210421016106610123C421C421C4A2
:1018600021016106610132016106610132016106F7
:1018700061013201610661146103000B0403040479
:1018800018041307031B001B011B02060419041292
:10189000070E0E002F0D210D210D21018C6227C195
:1018A00004210D612105210121836121C101C10AAA
:1018B0006121052101210361216126614621420345
:1018C0006102220161216105216106230361056135
:1018D0002161C10421618705216104612161032225
:1018E0004161062761036122610222C14161042333
:1018F0000521612661022102416102C122C121014B
:10190000C2022161220123612203416102220227D6
:101910006121012101226121C103416101220321D1
:1019200085216122012361056321042102C1022175
:101930006121C121012261056121610B2161220127
:101940003E001B07B22E954A653BAD5D369D775430
:10195000D265D3F9E894AB4A55A5AA721D97725582
:10196000A9AA5455AE031007B22E954A65E3723EFC
:10197000A77CCA9129974AA552A99C220210079CCC
:1019800072A9542A95CA292EE9B2E9BCE352AE2ABB
:101990005595AACA75D5F08D14A1C881CFD9F1AFDC
:1019A00020005717A38B2E2E47175D74D145175D66
:1019B00074D145175D721F5D74D145175D74D145B3
:1019C000175D749129BAE8A28B2EBAE8A28B2EBAC1
:1019D000E8A28B2EBAE8A28B2EB98F2EB4499D4E69
:1019E000C7A55C2A954AA5728A2E5795AA4A55E53D
:1019F0001C9772A9542A954A491449974DE71D9797
:101A00007255A9AA5455EEA24AE52A9BAD5C2A2A32
:101A1000E752A9543624DDD7575595AA2A3559AE31
:101A20002A5595AACA392AA9F2CAA525977255A995
:101A3000AA5455AEA35485ACE8A28B2EBAE8A28B6B
:101A40002EBAE8A28B2EBAE8A28B2EBAE8A28B2E71
:101A5000BAE8A28B2EBAE8A28B2EBAE8A28B2EBAD5
:101A6000E8A28B2EBAE8A28B2EBAE8A28B2E3259AE
:101A70001FA38B2EA764E7D29DDCE7D28E2EB66D16
:101A80007ABAD8B6E9E962DBA6A78B6D9B9E2EBA1F
:101A9000E862DBA6A78B6D9B9E2E9B9E6D9BCFA6BF
:101AA000B7E9E972694717DB363D5D4EE96D3EBA2D
:101AB0006C7A9B8F2E7439974EC79C733A2E652B88
:101AC00059C9CA756CD94A56B2728EAB9395AC643B
:101AD000652353B69295AC5C872BE5D3E95CC7A52B
:101AE0007C3A9D53648E4B91392E2BD3E99CE2CBEB
:101AF000391D97B295AC64E53A2EE5D3D9C894ADBB
:101B000064252BD7416FF7B5AB4AA952A9C97255C5
:101B1000A9AA5455CE514995572E2DB994AB4A5583
:101B2000A5AA721D2C1B5D74D145175D74D1451794
:101B30005D74D1C594EB742EBAE8A28B2EBAE8A2DC
:101B40008B2EBAE8A28B2EBAE8A28B2EBAE8A28B13
:101B50002EBAE8A28B2EBAE8A28B2EBAE8A28B0985
:101B60000A1000000000000000000000000000005B
:101B7000000000000000EFEFE0EFEFEFEF0FEFEFFE
:101B800001010101010101000101FFFFFFFFFFFF52
:101B9000FFFFFF000101010101010101010000003F
:101BA000FF42424242FF0000000003000000000329
:101BB0000000020202020202020202020000000011
:101BC000000000000000EFAFE06FEFEFED0FEBEF74
:101BD000010101010101010001010000B0B000B0EC
:101BE000B000000000000101000101000000EFEF63
:101BF000E0EEEEEEEE0EEFEF01010101010101005A
:101C00000101EEECE0E8E8EAE808ECEE0101010190
:101C1000010101000101ECE0C0C088808000E0EC1F
:101C200001010101010101000101E0800000080043
:101C3000010086E001010101010101000101000034
:101C40000000000000000000000000000000000094
:101C50000000E08080000000000080E00101010140
:101C6000010101000101ECE0C0808080C000E0ECD7
:101C700001010101010101000101EFECE0E8E8E8E8
:101C8000E80CECEF01010101010101000101EFEF9E
:101C9000E0EEEEEEEE0FEFEF0101010101010100B8
:101CA00001013F0FA5AA64656B2AA9AA52A9B83AF7
:101CB0005595AA4A755CCEA7538E4BBA7C362BA994
:101CC000A4AA4AA5E2562E95AA4A95E272AA92952E
:101CD0007554D2E5B359492555552A15D2A5AA649C
:101CE000656B2AA9AA52A9B83A5595AA4A755CE922
:101CF000B454F13955C9CA3A2AA92A59D99A2A9D00
:101D0000962A7EE552A9AA54292EA72A5959472571
:101D10005D3E9B95545255A55221122C07EA54550D
:101D2000AA2AD571A5D352C5E754252BEBA8A4AA9E
:101D300064656BAA745AAAF8954BA5AA52A5B89CDB
:101D4000AA64651D9554F9ACA492AA2A954A010289
:101D500007A5533609E0061E0000000A00E0061E33
:101D6000000080080B0002020201000904000001CB
:101D700002020000052400100105240101010424D1
:101D8000020605240600010705810310004009042E
:101D90000100020A000000070502024000000705DA
:101DA00083024000000403090412010002EF020153
:101DB00040412336800001010203014172647569CC
:101DC0006E6F204C4C430041726475626F79002045
:101DD00006640000001400270564000000140017CA
:101DE000046400000028004B02640000001400DCC2
:101DF0000364000000140088016400000028000053
:101E00008000FE2D11241FBECFEFDAE0DEBFCDBF74
:101E100011E0A0E0B1E0E8EAFFE502C005900D9214
:101E2000A03AB107D9F727E0A0EAB1E001C01D92BE
:101E3000AD3EB207E1F71FE0C2E0DFE004C021974A
:101E4000FE010E94C72FC130D107C9F70E94862921
:101E50000C94D22F0C9400002F923F924F925F92DD
:101E60006F927F928F929F92AF92BF92CF92DF92AA
:101E7000EF92FF920F931F93CF93DF93CDB7DEB70F
:101E80002D970FB6F894DEBF0FBECDBF8091BD0178
:101E900090E02091C6013091C701821B930B0596FB
:101EA0002AE030E0B9010E944A2E162F6D878091FA
:101EB000BE0190E04091C8015091C901841B950B6F
:101EC0000596B9010E944A2E7B016C878091000122
:101ED000853091F080917207909173076CE070E00B
:101EE0000E945E2E892B09F0F6C39091A00181E03B
:101EF00089278093A001EFC3812F0E947026082FAD
:101F0000D0907407C0907507C094CD201092BF0187
:101F10001092CA018091C4018B3021F01092C0014F
:101F20001092CB016E2D812F0E947026863079F59C
:101F30008091C1019091C20149969093C201809312
:101F4000C10140E06E2D812F0E9497268091AD0245
:101F5000882319F081508093AD028091AD028111E8
:101F600012C0B12C8091AE02B81668F4EB2DF0E0EF
:101F7000EE0FFF1FE055FD4F43E0618180810E941D
:101F80009726B394EFCF83E393E00E94C01D809126
:101F9000A1019D2D9C709C3061F58F5F8093A10104
:101FA0008531B0F18D3390F08D3391F51092A10110
:101FB00083E884BD8FEF87BD81EF8093800010920E
:101FC000880010928A000E94732918C320E430E030
:101FD000A901481B5109CA01880F93E894BD9FEFDE
:101FE00097BD91EF909380001092880080938A00B3
:101FF0000FC0882369F083E884BD8FEF87BD81EF30
:10200000809380001092880010928A001092A101A3
:102010008C2D84709C2D9870C3FE2DC081112BC017
:102020000E94011F882309F454C08091BD0190E0F3
:102030002091C6013091C701821B930B02966AE082
:1020400070E00E944A2E162FCC24CA94C60E6E2D24
:102050008C2D0E947026A82EBB24B394BE0C6B2D31
:102060008C2D0E9470268130A1F58FEF8A0D823071
:1020700008F094C22EC0882361F191112AC00E94F9
:10208000011F882331F18091BD0190E02091C601AC
:102090003091C701821B930B02966AE070E00E94A8
:1020A0004A2E162FCC24C394C60E6E2D8C2D0E9462
:1020B0007026A82EBB24B394BE0C6B2D8C2D0E94D1
:1020C0007026813031F48FEF8A0D823010F00C943D
:1020D000BD18D6FECAC06E2D812F0E947026082F13
:1020E0008091BD0190E02091C6013091C701821B13
:1020F000930B6AE070E00E944A2E6C01892B19F460
:1021000081E0810F01C0812F6E2D0E947026282E44
:10211000552453945E0CC114D10419F481E0810F4D
:1021200001C0812F652D0E947026482EC114D10454
:1021300019F08FEF810F01C0812F652D0E9470264D
:10214000382E822D0E94AB28682E470199245FEF1C
:10215000851A950AA12EB12CA401B501832D0E94E8
:10216000EF25782E0E94011F9091C4019B3089F4C5
:10217000882311F40C948A1B7110C1C064E02616E8
:1021800021F0043011F00C948A1B68E087E00C9475
:1021900024190E945327882341F08DEF800F82304D
:1021A00010F00C94D6180C94C418C114D10419F46E
:1021B00081E0810F01C0812F6E2D0E947026782E44
:1021C000C114D10419F481E0810F01C0812F652D64
:1021D0000E947026682E62E06E0DC114D10419F4BD
:1021E00081E0810F01C0812F0E947026482E862D2C
:1021F0000E94AB28682E872D0E94AB28882311F4FB
:102200000C942719662011F40C94271935018FEFCF
:10221000681A780AA401B301842D0E94EF2588234F
:1022200011F40C94191964E081E00E94141F1092BB
:10223000C4018091C8019AE0E99E800D1124809329
:10224000BE018091BD018C3310F482E0C2C02091A8
:10225000C6013091C70129363F4F24F01092BF01CB
:102260008EEFC3C087FFF1CF8AC1D5FEC4C06E2DEB
:10227000812F0E947026082F8091BD0190E020914F
:10228000C6013091C701821B930B6AE070E00E9487
:102290004A2E4C01892B19F48FEF810F01C0812F39
:1022A0006E2D0E947026382E772473947E0C811434
:1022B000910419F081E0810F01C0812F672D0E94E8
:1022C0007026482E832D0E94AB28582E5701BB2420
:1022D000BFEFAB1ABB0AC12ED12CA501B601842DCC
:1022E0000E94EF25682E0E94011F9091C4019B302F
:1022F000B9F4882311F40C948A1B662031F01092F3
:10230000C4010E94A81C0C94B21BE4E03E1621F00C
:10231000043011F00C948A1B69EF86EF0C947F193E
:102320000E945327882331F08DEF800F823008F010
:10233000ADC7B7C78114910419F48FEF810F01C0A5
:10234000812F6E2D0E947026082F8114910419F49C
:102350008FEF810F01C0812F672D0E947026782E8C
:1023600062E06E0D8114910419F48FEF810F01C0AA
:10237000812F0E947026182F872D0E94AB28782E5F
:10238000802F0E94AB28882311F40C94B21B772075
:1023900011F40C94B21BF1E0CF1AD108A501B601DB
:1023A000812F0E94EF25882309F49DC76FEF8CEFE2
:1023B0000E94141F1092C4018091C8012AE0E29E7D
:1023C000800D11248093BE018091BD018D3320F0DA
:1023D0008EEF8093BF01D1C02091C6013091C7011B
:1023E00037FF06C01092BF0182E08093CA01C7C0C8
:1023F0008111EECFC4C0D7FE85C08091BE0190E0B0
:102400002091C8013091C901821B930B08966AE0A4
:1024100070E00E944A2E7B01B62E0E94011FD82E2A
:10242000882319F06FEF6E0D01C06E2D812F0E9471
:102430007026C82EDD2019F0BB24B394BE0C6B2D82
:10244000812F0E9470269091C4019530A4F097309E
:1024500044F09B3081F4043009F068C7D11062C7A2
:1024600065C7DD2061F1033009F083C08FEF8C0D6B
:10247000823028F57EC00E94A81C8091BD0190E0AA
:102480002091C6013091C701821B930B2AE030E0F6
:10249000B9010E944A2E863020F0A901481B51093B
:1024A000CA0105970CF067C0033009F064C08FEFD4
:1024B0008C0D823008F45FC085E08093C401809168
:1024C000C6015AE0159F800D11248093BD01109222
:1024D000BF011092CA018091BE01883120F08EEFB9
:1024E0008093C0014EC02091C8013091C90137FFCF
:1024F00006C01092C00182E08093CB017FC08111A1
:10250000EECF7CC0D4FE40C08091BE0190E020910F
:10251000C8013091C901821B930B08966AE070E0F4
:102520000E944A2E7B01D62E0E94011FC82E8111C7
:1025300004C76FEF6E0D812F0E947026B82ECC203D
:1025400019F0DD24D394DE0C6D2D812F0E947026AE
:10255000D82E8091C4018B3009F059C6043009F49B
:10256000DFC6CC2009F401C784EF8B0D843008F05E
:10257000FCC60E94A81C1092BF011092CA011092C2
:10258000C0011092CB013AC08091C001823009F4A1
:10259000BBCF8091CB018E3F89F5B6CF53E0A51616
:1025A00009F497CD84EF8093C4011092BF0110927B
:1025B000CA0147E06B2D8C2D0E94972680916E07F3
:1025C000843181F0E82FF0E09F01220F331FE20FEA
:1025D000F31FEE5CF84FC082B1829CED92838F5F57
:1025E00080936E0780917407809375070E94DE1EAA
:1025F0008093740785E193E00E94C01D809172076B
:1026000080FD68CC1092DD021092EB021092F9026C
:102610001092070310921503109223038CED682E7D
:1026200082E0782EF301808184FF4BC08281938108
:102630006AE070E00E945E2ED62E688784819581C4
:102640006AE070E00E945E2EF62E69878D2D0E9452
:102650007026B82ECC24C394CF0C6C2D8D2D0E94E7
:102660007026982EF6E0BF1206C0D30118968C9102
:10267000882309F487C6F30182858D3014F5228101
:1026800033813B872A87C9016AE070E00E945E2E91
:10269000892BB9F404811581C8016AE070E00E94B9
:1026A0005E2E892B71F4E384EE2009F48BC6D301EE
:1026B00018968C9181117DC6F30117828385815014
:1026C0008387BEE06B0E711CE0E36E16E3E07E06CE
:1026D00009F0A8CFFFCB809100018850833030F4FF
:1026E00080910001833009F0C9C1CDC1C12CD12C2A
:1026F000812C712CA12CB12CE090C601F090C70167
:10270000EA0CFB1CC70109968938910528F5009150
:10271000C8011091C9010C0D1D1DC801099689340D
:102720009105D0F4682D872D0E947026982E88235D
:1027300039F0282F40E65BE1B801C7010E94D31DA4
:1027400029EF290D243040F4B8016A50710941E4A1
:1027500053E0C7010E94D31D7394FAE0AF0EB11C81
:102760002CE17212C9CF83943AE0C30ED11C40E130
:102770008412BFCF80910001853021F08091A001AB
:102780008823F1F08091C401082F001F0027001F4B
:10279000082E000C990B97FF03C091958195910924
:1027A000880F990BFC01E35EFE4F408151816091DF
:1027B000BE0170E08091BD0121E090E00E949E2466
:1027C0001CEDA12E12E0B12E7501D7018C9184FF72
:1027D000ADC012960D911C9113976090C601709038
:1027E000C7014301800E911E14968D919C911597FF
:1027F000C090C801D090C901C80ED91E1B96EC919B
:102800004E2F50E04331510508F088C0FA01EA5AD2
:10281000FF4F0C94C72FF7018285082F001F002758
:10282000001F082E000C990B97FF03C0919581950E
:102830009109880F990BFC01E35EFE4F40815181A5
:1028400070C0F1E08F1A910869C02FEF821A920AC6
:1028500065C032E0C31AD108FCC644E0C41AD108EE
:1028600007C056E0C51AD108F4C668E0C61AD108F8
:1028700000E04BE653E055C0AAE0CA1AD1089C011B
:102880002A503109F701358324831386C8016AE091
:1028900070E00E945E2E262EC9016AE070E00E9460
:1028A0005E2E462E55245A94520C852D0E94702679
:1028B0008F8333243394340C632D852D0E9470262E
:1028C000888755245394520C642D852D0E947026C0
:1028D000482E632D852D0E947026582E8091BD01B3
:1028E00090E0861997098017910764F48F810E9400
:1028F000AB28882309F4A5C688850E94B4288111D5
:1029000097C69FC6842D0E94AB28882309F490C6E1
:10291000852D0E94B428811194C68AC600E04DE836
:1029200053E021E0B601C4010E949E24FEE0EF0EB8
:10293000F11C20E3E21623E0F20609F046CF4090B6
:10294000BD01512C8091C6019091C701481A590AC6
:102950006090BE01712C8091C8019091C901681AE4
:10296000790AD5018C9184FF7FC012968D919C913C
:102970001397F201E81BF90B14962D913C911597D2
:10298000A301421B530B9A01C090BE014C2D50E095
:10299000421B530BE090BD01473F6FEF5607C4F455
:1029A0002E2D30E02E1B3F0B2F3FAFEF3A070CF4DC
:1029B00054C62C3731050CF058C6E394EE1A8E2D10
:1029C000BDEA8B2EB3E09B2E43EE53E090E03AC07D
:1029D00045335105C4F02E2D30E02E1B3F0B2F3F09
:1029E000BFEF3B070CF449C62C3731050CF04EC63F
:1029F000E394EE1A8E2DAEE98A2EA3E09A2E42EDD4
:102A000053E093E31FC0F12CEE1AFF0AECEFEE1631
:102A1000EFEFFE064CF49C2D921BF0EC8F2EF3E0B2
:102A20009F2E49EF53E030C6FCE7EF16F104E4F0C7
:102A30009C2D921BECEB8E2EE3E09E2E44EF53E098
:102A40008CE702C08F3F81F0C92ED12CE82EF12CEB
:102A500000E020E0B601C7010E949E2421E0A4010D
:102A6000B601C7010E949E242EE0A20EB11C30E3E5
:102A7000A31633E0B30609F074CF32CE873049F4A1
:102A80008091C50101C084E08093000100E010E066
:102A900067C098EF980F9330C8F78A3069F400E068
:102AA00021E049E554E069E170E08AE290E00E94AB
:102AB0009E2409E210E03BC0883029F400E021E0C8
:102AC00048E254E02FC01091AC02812F64E60E94CE
:102AD000BB2F082F282F45EC54E069E170E088E413
:102AE00090E00E94D31D812F44E6049F8019112499
:102AF0006AE00E94BB2F192F282F45EC54E069E1B2
:102B000070E08DE490E00E94D31D212F45EC54E04D
:102B100069E170E082E590E00E94D31D00E021E0D1
:102B20004EE054E069E170E08BE290E0C0CF41E01C
:102B300066E170E0C8010E94E61E0E5F1F4F093576
:102B40001105A9F709E210E041E060E270E0C80178
:102B50000E94E61E0E5F1F4F09351105A9F796CF9B
:102B600077E3E72EF12C40E0B701C8010E94E61E92
:102B70005FEFE51AF50A60E4E616F104A1F70F5FCE
:102B80001F4F0038110561F700E010E041E068E3F5
:102B900070E0C8010E94E61E0E5F1F4F023811054B
:102BA000A9F78091C1019091C201FE01319626E002
:102BB000DF011D922A95E9F77F019E01295F3F4FB2
:102BC0000AE010E0B8010E945E2E8193CB012E171F
:102BD0003F07C1F700E021E04FEE54E06AE370E008
:102BE00080E090E00E949E2406E310E0F70121912E
:102BF0007F0145EC54E06AE370E0C8010E94D31DF8
:102C0000055011090831110589F7F090C30100E062
:102C100021E042EB54E06AE370E080E490E00E943F
:102C20009E241AE08F2D612F0E94BB2F092F282F81
:102C300045EC54E06AE370E082E590E00E94D31D29
:102C4000202F45EC54E06AE370E087E590E00E94B5
:102C5000D31D80910001853071F4F090AD0200E049
:102C600021E047E954E06AE370E080E690E00E94EA
:102C70009E248F2D1DC0F090AC0200E021E047E8BB
:102C800054E06AE370E080E690E00E949E2464E6EF
:102C900070E08F2D90E00E944A2E262F082F45ECE1
:102CA00054E06AE370E081E790E00E94D31D802F3A
:102CB000612F0E94BB2F192F282F45EC54E06AE3A7
:102CC00070E086E790E00E94D31D212F45EC54E090
:102CD0006AE370E08BE790E00E94D31D2091000131
:102CE000253009F0C1C1809172079091730780FD72
:102CF0001CC02091BF0121110CC02091C0012111E5
:102D000008C02091CA01211104C02091CB012223C7
:102D100061F02091C401ECE0E20FEC3120F4F0E02E
:102D2000EE5EFA4F24912093C40183709927892B7A
:102D300009F445C02091BF018091BD01280F209367
:102D4000BD011091C0018091BE01180F1093BE010A
:102D50008091CA01E090C601F090C701E80EF11C15
:102D600087FDFA94F092C701E092C6018091CB01F1
:102D70004091C8015091C901480F511D87FD5A95D6
:102D80005093C9014093C801812F90E0841B950B9B
:102D90000596EAE0F0E0BF010E944A2E362F822F0E
:102DA00090E08E199F090596BF010E944A2E862F3A
:102DB000632F0E947026123008F053C01DC0ACED86
:102DC000B2E080E393E02C9124FF11C01B962C917C
:102DD0001B97222309F463C40AC016962C911697F8
:102DE000211167C417962C911797211162C41E9662
:102DF0008A179B0741F79ECF833099F51091AC025B
:102E00001F5F8091C3018A3018F48F5F8093C301E4
:102E100086E0809300011093AC02612F82EB90E07A
:102E20000E94222F153608F453C481EB90E00E94D3
:102E3000142F873008F04AC411E0180F612F81EB7E
:102E400090E00E94222F612F86EB90E00E94222FBB
:102E50000E94CF2681E18093C5018EE295E00E9419
:102E6000C01D8091720780FF09C080916E07882382
:102E700009F464C1F12C6DE0E62E86C00CED12E081
:102E8000D8018C9184FF54C016968C911697129697
:102E90004D915C911397480F511D87FD5A951396DC
:102EA0005C934E93129717968C91179714962D91C9
:102EB0003C911597F901E80FF11D87FDFA951596DC
:102EC000FC93EE9314972091BD0130E08091C601F0
:102ED0009091C701281B390B8091BE01A091C801B8
:102EE000B091C901790162E0E60EF11CBA01685F98
:102EF0007F4FE616F706E4F44E5F5F4FB901685F57
:102F00007F4F46175707A4F490E08A1B9B0BAC0138
:102F10004E5F5F4F9F01285F3F4F4217530744F4B6
:102F20002650310908962817390714F40E9473298E
:102F3000025F1F4F83E00033180709F0A1CF10E0B4
:102F400000E0612F802F0E94702699EF980F943037
:102F500030F441E0480F612F802F0E9497260F5FC9
:102F60000C3179F71F5F103159F77FCF0F2D10E02B
:102F70006801CC0CDD1CF601E00FF11FEE5CF84F90
:102F80008281811106C0F39480916E07F81670F368
:102F900066C081508283803179F030F4813071F0E5
:102FA000883089F74FE04FC0883121F0803259F7DF
:102FB0004CE049C04DE047C04EE045C08091AF02B3
:102FC00090E0880F991F8C529D4FACEDB2E05F01ED
:102FD000AF014F5F5F4F2C9124FF1BC0F501208193
:102FE000FAE02F9F9001112412966D917C91139716
:102FF0006217730771F4FA012081FAE02F9F9001A4
:10300000112414966D917C9115976217730709F43A
:1030100061C31E9623E0A033B207E9F6F601E00F84
:10302000F11FEE5CF84F80813D85831306C08181DE
:103030004C85841302C00E9473290C0D1D1DF801DC
:10304000EE5CF84F41E0618180810E9497269BCF22
:103050000E946D2780916E07882309F46FC08091CC
:1030600034078130A9F36AC03091740790917507D5
:1030700090959323243009F044C08091A20132FF3F
:1030800032C08E3268F48932D0F083E884BD8FEF8D
:1030900087BD81EF8093800080E4809388000BC01F
:1030A000833388F483E884BD8FEF87BD81EF8093FD
:1030B00080001092880010928A008091A2018F5F98
:1030C0008093A2013BC08091AC0297FF04C084367C
:1030D00010F48F5F05C094FF31C08D3478F18150BA
:1030E0008093AC022BC0882371F0833300F18832C7
:1030F00018F082E0809300011092A201911117C094
:103100001DC01092A2019923C9F02B3040F4293040
:1031100048F4273049F0283051F481E00DC02131C6
:1031200069F005C082E008C08091C50105C0109219
:1031300075071092740785E0809300018091A101CA
:10314000811112C38091A20181110EC38091AD0241
:10315000811106C090910001953019F480E201C000
:1031600080E093E894BD809587BD81EF80938000D7
:103170001092880010928A00F7C263E0A61611F43C
:103180000C9469108CE00FCA662009F4EBC277201A
:1031900019F064E081E004C0043029F46AE087E0BB
:1031A0000E94141F46C866E085E0FACFC114D1041E
:1031B00041F4A401B501832D0E941526811183C01D
:1031C000ABC2611003C071108BC00AC0A401B5016D
:1031D0006F5F7F4F842D0E94EF258111DACF03C0EE
:1031E000CD2809F4BFC2B5016F5F7F4FA401842DC4
:1031F0000E9415268111CDCF1092BF011092CA01F5
:10320000882309F4BCC98BE08093C4010FC063E03C
:10321000D61295C08091C6019AE0199F800D1124A5
:103220008093BD016BEF8AEF0E94141F0E941D1F47
:10323000E5C9CD2879F4A401B301842D0E94152697
:103240008823D1F266E085E00E94141F1BC0CD28C0
:1032500009F488C2652D812F0E947026182F802FB7
:103260000E94AB28882309F47DC2B5016F5F7F4FB0
:10327000A401812F0E941526882309F4BDCF8BE07D
:103280008093C4010E94A81C0C941911811491040C
:1032900011F5A501B601842D0E941526811113C0D8
:1032A0005EC2552009F45EC2662019F06FEF8CEF04
:1032B00004C0043029F469EF86EF0E94141F7CC813
:1032C00066E085E0FACF8BE08093C40183EC91E067
:1032D0000E94C01D1FC2511024C2662009F41FC2E3
:1032E0001092C4013FC2892869F4A501B601812F5B
:1032F0000E941526882309F47FCF66E085E00E94AE
:10330000141F0BC0A501B601812F0E94152688232A
:1033100009F472CF8BE08093C4010E94A81C4CC8B2
:10332000CC2019F187E08093C40123C9A701552758
:103330004F5F5F4F612F70E01FC06E2DFCC88D2D59
:103340000E94AB28811103C01092C40112C9D11090
:1033500003C08BE08093C4018091C601AAE01A9F4C
:10336000800D11248093BD0161CFA70155274F5FC8
:103370005F4F612F70E08D2D0E94EF25882309F4A7
:1033800055CFE2CF0E94BD2E0E94BD2E2AE030E034
:1033900040E050E00E94582FDC01CB014496A11D73
:1033A000B11DF301808740E06F2D8D2D0E9497267F
:1033B00062C9FA946F2D8D2D0E947026882309F41E
:1033C0002FC17AC96FEF6F0D8D2D0E9470268F83EC
:1033D0006F2DAA24A394AD0C8A2D0E947026582E1E
:1033E0006C2D8A2D0E947026482E6C2DCC24CA94F8
:1033F000CD0C8C2D0E947026382E6F2D8C2D0E94A6
:103400007026282E8091BD0190E02091C601309158
:10341000C701821B930B2A853B85281B390BC901E9
:103420002091BE0130E04091C8015091C901241B98
:10343000350B021B130BD30119962C9119972223DC
:10344000D1F01F922F923F92892CA42CC52CEF8093
:103450000B2D1D962C914F2D6D2DC3010E94371FF2
:10346000F3019185915091870F900F900F908111EA
:1034700028C9148561C097FF1FC0101611065CF49F
:1034800091958195910908171907C4F18017910743
:10349000BCF511E046C001151105A1F1919581958A
:1034A0009109119501951109801791076CF1081781
:1034B000190764F515E035C00097C9F0101611061C
:1034C00044F40817190724F1801791071CF51FE031
:1034D00028C00115110501F11195019511098017F9
:1034E0009107E4F008171907DCF41BE01AC0111F5C
:1034F0001127111F110F110F110F13C013E011C06D
:1035000012E00FC014E00DC017E00BC016E009C0B8
:103510001DE007C01EE005C01CE003C019E001C0AB
:103520001AE0EDEFE10FEC3020F4F0E0EF5EFE4F3B
:10353000E080D3011D96EC92F3018085882389F009
:103540009FEF990D923068F4B1100BC08150D301F8
:1035500018968C93811105C046E06F2D8D2D0E9429
:103560009726B1E0BF932F923F92892CA42CC52CB3
:10357000EF800B2D212F4F2D6D2DC3010E94371F82
:103580000F900F900F9081119CC8F12E08E0D02E63
:10359000112311F0115001C01FE0E1E0EF932F92D1
:1035A0003F92892CA42CC52CEF800B2D212F49850F
:1035B0006885C3010E94371F0F900F900F908823DA
:1035C00039F0D3011A968C918B3009F07AC81EC05D
:1035D000BFE0FB1611F0F39401C0F12CE1E0EF9392
:1035E0002F923F92892CA42CC52CEF800B2D2F2DD0
:1035F00049856885C3010E94371F0F900F900F9077
:103600008111DFCFDA94D110C3CFDBCF892D0E9497
:10361000B428882309F455C8D30117961C9251C8C1
:10362000F301108646E06F2D8D2D0E94972644C829
:10363000EFEFD7011A96EC931A97FEEF1696FC93CC
:1036400008C081E0D7011A968C931A97E2E016968B
:10365000EC9300E04CE753E064C935EB832E33E094
:10366000932E4CEE53E090E00FC02BEC822E23E023
:10367000922E46E054E090E010C096EA892E93E046
:10368000992E4BED53E092E380E0DEC984EC882E66
:1036900083E0982E4EEF53E092E38BE7D5C91A965C
:1036A000EC911A9723EF2E0F233008F096CBE45FAE
:1036B00005C02CE02E0F2C3128F4E22FF0E0EE5E56
:1036C000FA4FE4911A96EC931A9791CB82E1C3CB0F
:1036D00089E0C1CBFC0160812181FAE06F9FB001DC
:1036E000112413967C936E9312976AE0269F9001A3
:1036F000112415963C932E9314971A96EC921A97D0
:103700001B961C921B9716961C92169717961C9246
:1037100017977FCC81E070CD61103BCD54CD8928C7
:1037200009F1672D812F0E947026182F802F0E948B
:10373000AB28882349F0A501B60161507109812F9A
:103740000E94EF258111B2CDB60161507109A5012A
:10375000812F0E941526882309F44ECDA7CD511044
:10376000A5CDBBCD80E048CD2D960FB6F894DEBF39
:103770000FBECDBFDF91CF911F910F91FF90EF90C2
:10378000DF90CF90BF90AF909F908F907F906F9081
:103790005F904F903F902F900895CF92DF92EF92DD
:1037A000FF920F931F93CF93DF936C017A018B01EC
:1037B000C0E0D0E0CE15DF0581F0D8016D918D011C
:1037C000D601ED91FC910190F081E02DC6010995A3
:1037D000892B11F02196EECF7E01C701DF91CF91A9
:1037E0001F910F91FF90EF90DF90CF9008958091FF
:1037F000AC01E091AA01F091AB01882349F0CF011F
:1038000002969093AB018093AA01859194910895BB
:10381000CF0102969093AB018093AA0180819181A0
:1038200008958091A30108950895089580E090E09F
:103830000895FC012285261714F0421714F4FC01A8
:10384000628708950E94CD2FBF92CF92DF92EF92B0
:10385000FF920F931F93CF93DF93FC0166834783FF
:10386000862F880F880F860F382F3F70942F990F5F
:10387000990F940F50E19502C0011124832B81838D
:1038800067FF02C08CE003C0662311F084E08487E8
:1038900047FF02C0148604C0442311F088E08487E7
:1038A000222309F44BC08185811148C0EF01848532
:1038B000811134C01D868A819B812AE030E0B901E4
:1038C0000E945E2E162F8C819D81B9010E945E2E72
:1038D000FF24FA94F60E00E0CC24CA94C10EBB2457
:1038E000B394B10EDF2CD01A6D2D812F0E9470265B
:1038F000833091F46D2D8C2D0E947026E82E6D2D55
:103900008B2D0E9470260F5F9DEF9E0D923020F050
:103910009DEF980F923060F4098710C00E94BD2E71
:1039200026E030E040E050E00E94582F698706C052
:103930008111D8CF81508330A8F6EECFDF91CF919F
:103940001F910F91FF90EF90DF90CF90BF9008955F
:10395000E1E7F0E080818D7F8083109291004698AE
:1039600047981092A9010895CF92DF92EF92FF92AB
:103970000F931F93CF93DF930E94F71B811520E8CD
:10398000920751F4DF91CF911F910F91FF90EF902B
:10399000DF90CF900C94A81C21E02093A9018130E6
:1039A00020E8920751F48091A7019091A80190938B
:1039B000AB018093AA010E94F71B97FD05C02091DF
:1039C000A601222309F440C02091A50121113CC089
:1039D00021E02093AD01EC01DF77209769F481E0CD
:1039E0008093AE0146983FE9C32E3FE0D32EE12CF1
:1039F000F12CCAEFD0E014C08E0120E030E060E48A
:103A000072E48FE090E0A90198010E94582F6901AB
:103A10007A0181E0C81AD108E108F1081092AE01DC
:103A2000E0913007F09131070995811103C081E0E1
:103A30008093AE018091AD01882309F43FC080914D
:103A4000AE0181113BC003C01092AD01C4CF4699B5
:103A500035C0479A0E94F71B009771F09C01DE0168
:103A60000E94AC2FDC01CB0129E0B595A795979575
:103A700087952A95D1F703C08FEF9FEFDC01109255
:103A800090002AE020939100D0929900C092980073
:103A90008093AF019093B001A093B101B093B201B4
:103AA00080917100826080937100DF91CF911F91AE
:103AB0000F91FF90EF90DF90CF9008954798CACF75
:103AC0001F920F920FB60F9211242F933F934F9393
:103AD0005F936F937F938F939F93AF93BF93EF9376
:103AE000FF938091AF019091B001A091B101B0918D
:103AF000B201892B8A2B8B2B81F18091AE01811130
:103B00000BC098B180E4892788B98091AD018823E2
:103B100019F088B1805888B98091AF019091B001B7
:103B2000A091B101B091B201181619061A061B0630
:103B3000B4F48091AF019091B001A091B101B09126
:103B4000B2010197A109B1098093AF019093B0012F
:103B5000A093B101B093B20102C00E94B41CFF91C6
:103B6000EF91BF91AF919F918F917F916F915F91F5
:103B70004F913F912F910F900FBE0F901F9018956E
:103B80009C01E1E7F0E090819D7F908381E080934C
:103B9000AC013093AB012093AA013093A80120938C
:103BA000A7010C94B41C4F925F926F927F928F92F8
:103BB0009F92AF92BF92CF92DF92EF92FF920F93BC
:103BC0001F93CF93DF9300D000D0CDB7DEB7DC01D9
:103BD0004115510509F4D8C0FA01F4903196949139
:103BE0004E5F5F4FCF2CD12C2223D9F0E1E0F0E0E3
:103BF000892F877011F4E0E0F0E0892F8695869593
:103C00008695E80FF11DEC9D8001ED9D100DFC9D4A
:103C1000100D1124209FF001219FF00D11244E0F53
:103C20005F1FF601EA0FFB1F1E161F060CF0ACC04B
:103C3000A038B1050CF0A8C09B01290F311D121648
:103C400013060CF0A1C0603471050CF09DC0411545
:103C5000510509F499C0062F0770B02E9B0177FF1C
:103C600002C0295F3F4F83E0359527958A95E1F79C
:103C7000822F77FF04C0BB2011F08FEF820FB7FFB8
:103C800005C0222733272A1B3B0B02C020E030E06F
:103C9000E038F10524F070E87A1B672E01C06F2C24
:103CA000621A082F082E000C110B8F3F1CF4F02F06
:103CB000F09501C0F0E0EE24E394692F677009F4F9
:103CC000E12CE92FE695E695E6959E2D9E0F090FCE
:103CD000111D0930110514F098E0981B6F2F680F23
:103CE0008901FF9E000D111D1124400F511F01E09D
:103CF00010E00B2C02C0000F111F0A94E2F7EFEF47
:103D0000E09F7001E19FF00C1124E094F094FC829C
:103D1000EB82AC8070E86703A00DB11D11242A0F5F
:103D20003B1F205D3C4F992E980E961669F1D901E4
:103D30002A01842D841B861508F5F2018490809E4B
:103D4000C001819E900D11249A83898367FD04C070
:103D50009C919E21892B8C93BB2059F067304CF4A9
:103D6000CD0180589F4FFC0180808A207A8087286F
:103D70008082FFEF4F1A5F0A1196DBCF6F5F4C0D09
:103D80005D1D20583F4FD1CF0F900F900F900F9097
:103D9000DF91CF911F910F91FF90EF90DF90CF9027
:103DA000BF90AF909F908F907F906F905F904F905B
:103DB0000895BC0180E090E00C9464248FB180955C
:103DC000807F669B88601C9B846008958038910585
:103DD000B8F460347105A0F490E121E061FD24E0C5
:103DE00060FD220F62FD2295687F969FD00111240D
:103DF000A80FA05DBC4F8C91822B40FF82278C9333
:103E000008958091BE0190E02091C8013091C901D0
:103E1000821B930B6AE070E00E944A2E9C0181E0B5
:103E2000232B09F080E008959091C401981714F0B5
:103E3000691714F48093C40108951092BF01109281
:103E4000CA0182E08093C0011092CB018091BE0133
:103E5000873160F08091C8019091C90189399F4FE5
:103E60002CF01092C0018EEF8093CB0108953F9209
:103E70004F925F926F927F928F929F92AF92BF927A
:103E8000CF92DF92EF92FF920F931F93CF93DF9326
:103E9000CDB7DEB7142F902E3C88BE8830E020319D
:103EA000310508F028C1082D7E2D462E3C01F90170
:103EB000E658FF4F0C94C72FEE2029F07350723054
:103EC00010F010E001C011E046EF60E0C3010E9475
:103ED000FB2693E099120FC1112309F40CC1811143
:103EE0000AC146E065E0C3010E94191C2B2D4EEF6C
:103EF00060E0C3010E94241C0FC140E06AE00E9400
:103F0000FB2691E0D82ED926E12EF12CEFEFEE1A08
:103F1000FE0A512CA701B201882D0E944426382E9A
:103F2000B2016F5F7F4FA7018A2D0E944426F82EB1
:103F30008C2D0E94AB28182F8A2D0E94B428F4E003
:103F4000CF1205C0DD2019F04AE067E00DC094E013
:103F5000991211C01123C9F0882309F4D0C0DD20C3
:103F600009F4D4C044E061E0C3010E94191C2B2D68
:103F700040E062E099C0E3E09E1207C0112329F0FF
:103F8000DD2019F046E065E0EFCF311093C08823C3
:103F900021F0112309F4AFC006C0112309F4ABC00E
:103FA000FF2009F4A8C0DD2009F4A5C0DBCF4AE05A
:103FB00060E00E94FB2691E0F82EF926412F50E0A8
:103FC0004F5F5F4F642D70E0882D0E9444260330C0
:103FD00061F4FF2009F48FC04BEF6AEFC3010E9428
:103FE000191C2B2D42E060E05FC0882309F483C0D8
:103FF000FF2009F480C08BE0F30182872B2D42E083
:1040000060E0C3010E94241C0750093008F075C00D
:104010008FE1F301838771C040E066EF0E94FB26C9
:1040200091E0582E5926E12EF12CFFEFEF1AFF0AEE
:10403000C42CD12CA701B601882D0E944426A82E9D
:10404000B60161507109A701832D0E944426F82E04
:104050008D890E94AB28182F832D0E94B4289D893A
:10406000943029F4552019F049EF66EF17C0E4E0C9
:104070009E120BC01123E1F0882309F444C055209F
:1040800009F447C04FEF6CEF09C0F3E09F1210C076
:10409000112371F0552061F046E065E0C3010E94F4
:1040A000191C2B2D40E06EEFC3010E94241C25C07B
:1040B000AA20A1F08BE0F30182872B2D42E060E083
:1040C000C3010E94241C07500930B8F48FE1F301AA
:1040D000838785E59DE10E94C01D0FC0882329F0DC
:1040E000112349F0552039F0CDCF112321F0FF20C5
:1040F00011F05110B9CF10E00FC011E00DC0332006
:1041000009F44ECFD7CFAA2091F3D4CF332099F31F
:10411000D1CFAA2081F3CECF812FDF91CF911F91F4
:104120000F91FF90EF90DF90CF90BF90AF909F9056
:104130008F907F906F905F904F903F900895CF93B6
:10414000DF931F92CDB7DEB76983DC01ED91FC915F
:104150000280F381E02D41E050E0BE016F5F7F4FB0
:1041600009950F90DF91CF91089583E08093E90046
:104170008091F200882319F08AE38093E800089583
:10418000FC018485958597FD0BC09FB7F89482E06C
:104190008093E9008091F2009FBF90E0019608951E
:1041A0009FB7F89482E08093E9008091F2009FBF6E
:1041B00090E008954091B6015091B7012091B4016B
:1041C0003091B50142175307B4F49091E80095700F
:1041D000E1F39091E80092FD19C08093F100809185
:1041E000B6019091B70101968F739927892B19F425
:1041F0008EEF8093E8008091B6019091B70101960F
:104200009093B7018093B60181E0089580E008950E
:10421000DF92EF92FF920F931F93CF93DF93D82EED
:104220008A017B01E40EF51EEB01CE15DF0571F06E
:10423000D7FE03C0FE01849101C088810E94DA206C
:1042400021968111F2CF8FEF9FEF01C0C801DF915E
:10425000CF911F910F91FF90EF90DF9008956150E3
:1042600030F02091F100FC0120830196F8CF2898CE
:1042700084E68093BB0108950E94C42790E00895CE
:104280000F931F93CF93DF931F92CDB7DEB78C01AF
:10429000FC018485958597FF0EC0CE0101960E9492
:1042A0009627019719F4898190E002C08FEF9FEF64
:1042B000F80195878487F801848595850F90DF91B3
:1042C000CF911F910F910895CF93DF931F92CDB798
:1042D000DEB7FC018485958597FD05C02FEF3FEF84
:1042E000358724870BC0CE0101960E94962701973F
:1042F00019F4898190E002C08FEF9FEF0F90DF915A
:10430000CF9108950F931F93CF93DF931F92CDB753
:10431000DEB782E0898342E450E063E67DE180E835
:104320000E9408210E945B28DC0112960D911C91CD
:1043300013970115110589F0D801ED91FC910280C8
:10434000F381E02DBE016F5F7F4FC801099597FD96
:1043500004C0F80100851185ECCF89810F90DF91B1
:10436000CF911F910F9108951F920F920FB60F9248
:1043700011248F939F938091E1009091E100937FAE
:104380009093E10083FF0FC01092E90091E09093B9
:10439000EB001092EC0092E39093ED001092BC01C0
:1043A00098E09093F00082FF20C093E09093E900A2
:1043B0009091F200992319F09AE39093E80090917C
:1043C000B901992339F09091B90191509093B901B5
:1043D000992389F19091BB01992339F09091BB0108
:1043E00091509093BB01992341F184FF10C08091BB
:1043F000E2008E7E81608093E2008091E1008F7EFA
:104400008093E1008091BA018E7E806111C080FFAF
:1044100016C08091E2008E7E80618093E2008091E0
:10442000E1008E7E8093E1008091BA018E7E8160F2
:104430008093BA0104C05D9ACDCF289AD6CF9F91C0
:104440008F910F900FBE0F901F9018951F920F9293
:104450000FB60F921124CF92DF92EF92FF920F933B
:104460001F932F933F934F935F936F937F938F93FC
:104470009F93AF93BF93EF93FF93CF93DF93CDB70A
:10448000DEB76C97DEBFCDBF1092E9008091E800E7
:1044900083FFFBC168E0CE0145960E942F2182EF89
:1044A0008093E8008D8987FF05C09091E80090FF18
:1044B000FCCF03C09EEF9093E800982F907609F010
:1044C000C6C09E894F89588D2F89F88C91110CC0D8
:1044D000803829F48091B3018093F10002C01092DA
:1044E000F1001092F10045C1913051F4811141C1A8
:1044F0004130510509F03DC18091B3018D7F0BC062
:10450000933061F4811135C14130510509F031C159
:104510008091B30182608093B3012BC1953049F43F
:104520008091E80080FFFCCF822F80688093E300B9
:1045300020C1963009F05EC00B8D1C8D22E01092D8
:10454000E9001092B7011092B601F21232C0109237
:10455000B5011092B4010E94822199E0BE016F5F03
:104560007F4FDB01E92F1D92EA95E9F79983FA82E3
:1045700091E09E8390EA98879AEF99872091B601FF
:104580003091B701275F3F4F3C832B838D8310927F
:10459000E9001092B7011092B6011093B501009393
:1045A000B40149E050E080E00E9408210E9482218D
:1045B000E0C01093B5010093B4010E945B28DC01B8
:1045C00012960D911C9113970115110509F4BBC0AA
:1045D000D801ED91FC910480F581E02DBE016B5E68
:1045E0007F4FC8010995009709F0C7C0F801008501
:1045F0001185EACF973009F445C1983021F481E064
:104600008093F100B6C0993009F0B3C0837009F00F
:1046100039C1E1E8F1E081E031E096E32081211148
:1046200009C08EE78093EA001092EA008F89809398
:10463000BC019FC08093E9003093EB00219120934F
:10464000EC009093ED008F5F873041F7EACF8B8DC0
:104650009C8D1092E9001092B7011092B6019093D0
:10466000B5018093B401898D811153C08E899D89D4
:10467000913A49F4813209F005C147E050E065E024
:1046800071E080E0BBC0913209F0FCC0833269F474
:104690008F89988DA0E0B0E0809301019093020192
:1046A000A0930301B093040164C0803269F4809147
:1046B000E80082FFFCCF67E085E091E00E942F21B7
:1046C0008BEF8093E80055C0823209F052C08F8989
:1046D00080930C01EEEFFFE7859194918B3F9C4D09
:1046E00019F0E0E0F8E002C0EEEFFAE08091050199
:1046F00090910601A0910701B0910801803B944080
:10470000A105B10509F09EC080910C0180FF79C020
:1047100099C00E945B28FC010281138101151105DB
:1047200009F4B0C0D801ED91FC910190F081E02D29
:10473000BE016B5E7F4FC801099581111AC0F80157
:1047400000851185EBCFF1E0FF1609F44EC0F3E0D0
:10475000FF1298C08F89882309F44AC0823089F4F7
:1047600040E867E087EC9DE10E94C92D882309F4A9
:1047700089C08EEF8093E80088C018161906CCF324
:1047800081C0813029F440E86BE08BEB9DE1ECCFF8
:10479000833009F077C00E945B28DC011296ED900F
:1047A000FC9013978E010F5F1F4F6801E114F10415
:1047B00079F0D701ED91FC910680F781E02DB801E9
:1047C000C7010995080F111DF701E084F184EECFB0
:1047D000D8011C92F60101900020E9F73197BF0142
:1047E0006C197D0940E0C601BFCF69EA7DE102C0D6
:1047F00065EA7DE1FB01449150E080E80E940821D8
:10480000B8CFEE3F2AE0F20751F0808191818737DF
:10481000A7E79A0721F09093FF0A8093FE0A87E7A3
:1048200097E791838083809160008093B8019BE03B
:1048300088E10FB6F894A895809360000FBE90931E
:10484000600097CF808191818737974709F091CF9A
:10485000A895809160008861809360008091B80184
:1048600080936000EE3FBAE0FB0739F08091FE0ACA
:104870009091FF0A918380837CCF1092FF0A10925F
:10488000FE0A77CF81E28093EB006C960FB6F89426
:10489000DEBF0FBECDBFDF91CF91FF91EF91BF91F2
:1048A000AF919F918F917F916F915F914F913F91C8
:1048B0002F911F910F91FF90EF90DF90CF900F906D
:1048C0000FBE0F901F9018958F929F92AF92BF923C
:1048D000CF92DF92EF92FF926B017C010E9404293C
:1048E0004B015C01C114D104E104F104F1F00E9418
:1048F0000429DC01CB0188199909AA09BB09883E62
:104900009340A105B10570F321E0C21AD108E10876
:10491000F10888EE880E83E0981EA11CB11CC1141A
:10492000D104E104F10419F7DDCFFF90EF90DF909F
:10493000CF90BF90AF909F908F9008952F923F920D
:104940004F925F926F927F928F929F92AF92BF929F
:10495000CF92DF92EF92FF920F931F93CF93DF934B
:10496000CDB7DEB72F970FB6F894DEBF0FBECDBF21
:104970004C017B012C870D875A8349831C821B8243
:104980001D821E8268E070E0CE0101960E94BF2861
:104990001C019C012F5F3F4F3B872A8768E070E036
:1049A000CE0101960E94BF288C0161E070E0CE012B
:1049B00001960E94BF282A853B85280D391D37FDA9
:1049C000F5C030E8831691040CF0F0C00F5F1F4F64
:1049D00098012E0D3F1D37FDE9C040E4E416F104B7
:1049E0000CF0E4C06701F7FE04C0CC24DD24CE182F
:1049F000DF0857E0C522DD249701F7FE02C0295FDA
:104A00003F4F390123E0759467942A95E1F7F7FE4B
:104A100009C091E0691A710828E030E0A9014C1939
:104A20005D096A01980117FF02C0295F3F4F290104
:104A300093E0559447949A95E1F707701127012B5D
:104A400019F05FEF451A550A0D85002311F0710129
:104A500002C0E12CF12C898701E010E0A12CB12CDF
:104A600088E090E09C012C193D093F872E87A41413
:104A7000B5040CF09BC041E050E058874F8361E0E3
:104A800070E0CE0101960E94BF28892B31F48F81FE
:104A90009885029698878F83F2CF6F817885CE01B3
:104AA00001960E94BF28DC01119640E050E04A17B1
:104AB0005B0708F072C099859111102B000F09F067
:104AC00069C093012A0D3B1DC9010196099708F0A1
:104AD00043C0C4018E0D9F1D80389105E8F5B901D2
:104AE0007695762F662777956795680D791D6E0DFB
:104AF0007F1D2F3F0FEF300709F454C0812F0C2C7E
:104B000001C0880F0A94EAF7FB01E05DFC4F0C85B9
:104B1000002319F09081892B03C08095908189230F
:104B20008083C114D104C1F027303105A9F0812F51
:104B300090E00E8402C0959587950A94E2F7FB01F8
:104B4000E055FC4F2C85222319F01081812B03C0E6
:104B500080951081812380830D85011110C02FEF76
:104B6000E21AF20A8A859B85E816F9068CF09FEF17
:104B7000A91AB90A01E010E0E12CF12C0BC001E008
:104B8000E01AF108F7FE04C02FEFA21AB20A710171
:104B900001E010E04F5F5F4F8ACF398541E0342755
:104BA000398765CFC114D10411F6D6CF2F960FB631
:104BB000F894DEBF0FBECDBFDF91CF911F910F9153
:104BC000FF90EF90DF90CF90BF90AF909F908F902D
:104BD0007F906F905F904F903F902F9008958150FD
:104BE000833008F18AE0869F9001879F300D112461
:104BF000849FB001859F700D1124ECEDF2E080815F
:104C000084FF0AC0828193818217930729F48481EB
:104C100095818617970739F03E9683E0E033F807D1
:104C200071F780E0089581E00895873028F484309A
:104C300038F5882329F126C0803120F58AE0869F47
:104C40009001879F300D1124849FB001859F700DC6
:104C50001124ECEDF2E0808184FF0DC082858B3061
:104C600051F4828193818217930729F4848195817D
:104C70008617970739F03E9683E0E033F80759F737
:104C800081E0089580E00895853031F118F488239B
:104C900019F124C08750883008F58AE0869F90017A
:104CA000879F300D1124849FB001859F700D1124C2
:104CB000ECEDF2E0808184FF0AC08281938182174B
:104CC000930729F4848195818617970739F03E96DA
:104CD00083E0E033F80771F781E0089580E00895FC
:104CE0008C31F8F46F3FF9F06031F8F4982F969515
:104CF00070E080FD0BC080E1989F600D711D112454
:104D0000FB01EA53FE4F8681829509C080E1989F9E
:104D1000600D711D1124FB01EA53FE4F86818F70D7
:104D2000089581E0089580E0089582E00895982F25
:104D30009695E62FF0E080FD0EC080E1989FE00D93
:104D4000F11D1124EA53FE4F86818F7090E1499F37
:104D5000A001112409C080E1989FE00DF11D1124EC
:104D6000EA53FE4F8681807F482B46830895CF9378
:104D7000DF9382EB90E00E94142F8093AC0283EBD0
:104D800090E00E94142FCDEBD1E08E8384EB90E075
:104D90000E941C2F9D838C83DF91CF9108951F93D8
:104DA000CF93DF93C091AC026C2F82EB90E00E9416
:104DB000222F6C2F87EB90E00E94222FCDEBD1E0C9
:104DC0001E81612F83EB90E00E94222F612F88EBE0
:104DD00090E00E94222F0C80DD81C02DBE0184EB6B
:104DE00090E00E94342FBE0189EB90E0DF91CF91DB
:104DF0001F910C94342FEF92FF920F931F93CF9338
:104E0000DF93DC01ECEDF2E080E393E0062E000C92
:104E1000770B042E000C550B208124FF1EC02F7031
:104E20003C913F702317C9F01181212F2F70C2814F
:104E3000D381C20FD11D12962D913C911397260F4D
:104E4000371F7E010AE0E00EF11C2E153F052CF401
:104E5000265F3F4FC217D30734F03E968E179F0749
:104E6000D9F680E019C012951F70C481D581C10F99
:104E7000D11D14962D913C911597240F351F7E015D
:104E80000AE0E00EF11C2E153F053CF7265F3F4F70
:104E9000C217D30714F781E0DF91CF911F910F91D3
:104EA000FF90EF9008958091BE0190E02091C8019D
:104EB0003091C901821B930B2AE030E0B9010E94B6
:104EC0004A2E863020F0A901481B5109CA0121E071
:104ED00005970CF020E0822F0895CF92DF92EF9299
:104EE00020916E07822F90E0FC01EE0FFF1F8E0FC6
:104EF0009F1FFC01EE5CF84FC080D180E2808FEFF5
:104F0000820F80936E07E2E3F7E090E0981740F499
:104F10002381348145812193319341939F5FF6CF63
:104F20008E2DB601EF90DF90CF9008952091BC01B7
:104F3000211103C08FEF9FEF08955FB7F89422E02F
:104F40002093E9002091F20030E01216130614F4C9
:104F500021E030E0422FFC0184E6415038F02898EF
:104F60008093BB019091F1009193F7CF211531050A
:104F700021F08091F200882319F05FBFC9010895E4
:104F80008BE68093E800F9CF2FB7F89483E0809305
:104F9000E9009091E800892F807295FF04C09091FC
:104FA000F20080E4891B2FBF08958F929F92AF92E9
:104FB000BF92CF92DF92EF92FF920F931F93CF9306
:104FC000DF936C017B018A0180910C01882309F435
:104FD0005CC08091BC01882309F457C08091BA015C
:104FE00080FF05C08091E00082608093E000E801CE
:104FF000B12C8AEFA82E93E0892E2AE3922E2097D7
:1050000011F4BB20D9F10E94C42781110AC0AA94CF
:10501000AA20D9F161E070E080E090E00E94642471
:10502000EECF282F30E0C217D3070CF48C2F9FB798
:10503000F8948092E9002091E80025FF1DC0282FF8
:1050400030E0C21BD30BF701815020F04191409317
:10505000F100FACFE20EF31EBB2019F09092E800A7
:105060000AC08091E80085FD07C09092E800BB244B
:10507000B394209709F0B12C9FBFC1CF5D9884E60F
:105080008093B9011016110644F081E090E0F6011A
:105090009383828380E090E001C0C801DF91CF91CB
:1050A0001F910F91FF90EF90DF90CF90BF90AF9046
:1050B0009F908F90089580917E0781110DC082E0AE
:1050C00080937A0784E080937B0710927D0710928B
:1050D0007C0781E080937E078AE797E00895CF936D
:1050E000DF93D82F8FEA90E00E94142FC82F80EB17
:1050F00090E00E94142FD11104C0CC3411F48235F9
:1051000039F16CE48FEA90E00E94222F62E580EB97
:1051100090E00E94222F86EB90E00E94142F682FCF
:1051200081EB90E00E94222F87EB90E00E94142FE9
:10513000682F82EB90E00E94222F88EB90E00E9483
:10514000142F682F83EB90E0DF91CF910C94222FE6
:10515000DF91CF910895882329F083508D3010F08E
:1051600080E0089581E00895813028F0843028F0AF
:105170008750893010F080E0089581E008951F93F2
:10518000CF93DF93DC0120E030E040E050E011E01D
:10519000C1E0D0E02617370791F114968C9114974F
:1051A000811115C014961C93149712968D919C91A1
:1051B0001397ED91FC911197E80FF91FE491159663
:1051C000EC931597019613969C938E9312971496D1
:1051D0009C91149715968C911597892349F0FE019F
:1051E000022E02C0EE0FFF1F0A94E2F74E2B5F2B38
:1051F000990F14969C9314972F5F3F4FCBCFCA0102
:10520000DF91CF911F9108953FB7F8948091E907FE
:105210009091EA07A091EB07B091EC0726B5A89B07
:1052200005C02F3F19F00196A11DB11D3FBFBA2F38
:10523000A92F982F8827820F911DA11DB11DBC0198
:10524000CD0142E0660F771F881F991F4A95D1F75D
:1052500008951F920F920FB60F9211242F933F9330
:105260008F939F93AF93BF938091E4079091E5074D
:10527000A091E607B091E7073091E80723E0230FFC
:105280002D3720F40196A11DB11D05C026E8230F7E
:105290000296A11DB11D2093E8078093E407909327
:1052A000E507A093E607B093E7078091E90790919F
:1052B000EA07A091EB07B091EC070196A11DB11D83
:1052C0008093E9079093EA07A093EB07B093EC076C
:1052D000BF91AF919F918F913F912F910F900FBEF2
:1052E0000F901F9018958091C30181508093C30146
:1052F00096E090930001811102C088E001C08AE02D
:105300008093C5018FEC9DE10C94C01DCF93DF937A
:10531000CDB7DEB728970FB6F894DEBF0FBECDBF6E
:10532000789484B5826084BD84B5816084BD85B580
:10533000826085BD85B5816085BD80916E0081608C
:1053400080936E0010928100809181008260809332
:105350008100809181008160809381008091800034
:1053600081608093800080919100826080939100A1
:105370008091910081608093910080919000816084
:10538000809390008091C10084608093C1008091DF
:10539000C10082608093C1008091C10081608093D0
:1053A000C1008091C30081608093C3008091C000E0
:1053B00082608093C0008091C20081608093C200AF
:1053C00080917A00846080937A0080917A00826074
:1053D00080937A0080917A00816080937A00809136
:1053E0007A00806880937A001092BC011092B30119
:1053F0001092BA018091D70081608093D70080EA33
:105400008093D80089B5806189BD89B5826089BDE6
:1054100009B400FEFDCF61E070E080E090E00E9402
:1054200064248091D8008F7C80618093D800809123
:10543000E000807F8093E0008091E1008E7E809389
:10544000E1008DE08093E200559A209A81EC8093F0
:105450007C0085B1806F85B984B1877E84B984B1C1
:10546000876E84B95E9A5F988AB1806D8AB9769AA0
:105470006E9881B3806F81BB899880B38D7080BB3B
:1054800080E58CBD81E08DBD85E090E00E94D91E55
:105490005F9A85E090E00E94D91E5E985C98E5E9ED
:1054A000F9E184918EBD00000DB407FEFDCF319669
:1054B00049E1E23AF407A9F75C9A81E88093640035
:1054C000809165008160809365000E94DE1E87FFE9
:1054D00024C05C9885EA8EBD00000DB407FEFDCFA8
:1054E0005C9A2E982F982D9880916400806280930A
:1054F000640081E083BF889513BEFCCF2D980E9485
:10550000DE1E8478843871F00E94DE1E847184313E
:1055100029F188EC90E00E94D91E0E94DE1E82FDD7
:10552000EDCF38C02D9A88EC90E00E94D91E2F98BC
:1055300082E090E00E94142F8F3F29F06FEF82E00D
:1055400090E00E943A2F84EF91E00E94D91E2F9A9A
:105550000E94DE1E84788438D9F3D6CF2D9A88EC49
:1055600090E00E94D91E2E9882E090E00E94142FB5
:10557000882329F060E082E090E00E943A2F84EFD7
:1055800091E00E94D91E2E9A0E94DE1E8471843101
:10559000D9F3BFCF2D9A88E280937607809164007B
:1055A0008E7F8093640080917A00806480937A007B
:1055B00080917A0086FDFCCF0091780010917900EF
:1055C0000E94042920E030E0980111270027600F95
:1055D000711F821F931F209164002160209364003B
:1055E000611571058105910511F00E940B2F82E074
:1055F00090E00E94142F882331F03E9A3F9A81E078
:105600008093A30104C01092A3013E983F9880E0CC
:105610000E946F280E94B72684E18093BD0183E237
:105620008093BE011092C40181E08093C50187E0A0
:10563000EDE3F1E0DE01119601900D928A95E1F71C
:1056400081EB90E00E94142F843040F4E1E0F0E020
:10565000EC0FFD1FE80FF11D808103C0843019F0AD
:1056600081E1809300012BE3222E312C38E9432E77
:1056700055245A9447E6642E77247A94DD24D394F3
:1056800097E0A92E8FB7F8944091E4075091E50771
:105690006091E6077091E7078FBF80917707942F9D
:1056A000981B892F90917807992329F08093790787
:1056B000109278075CC290917607891740F48F5F4B
:1056C000891708F054C2D3BE889513BE50C2D09239
:1056D000780740937707809172079091730701963E
:1056E0009093730780937207809174078093750776
:1056F0000E94DE1E8093740710910001812F90E0BC
:10570000FC013197E131F10508F023C2E759FF4F61
:105710000C94C72F83EB90E00E94142F1091A401EA
:10572000853009F02BC282EB90E00E94142F81306B
:1057300009F024C2612F660F660F160F185EFF2452
:10574000F3944BE15DE168E170E000E021E086E286
:1057500090E00E949E24612F70E021E04FE45DE123
:105760008FE190E00E949E2400E010E021E040E6FE
:105770005BE160E070E0C8010E94D31D21E040E6DB
:105780005BE167E370E0C8010E94D31D065F1F4F15
:105790000238110559F7809175078095909174072B
:1057A0008923F11011C087FF07C09091A4019923AC
:1057B00019F091509093A40184FF06C09091A40128
:1057C000911102C0D092A40183FFC3C18091A401B2
:1057D000882329F0813009F0BCC10E946F280E9403
:1057E000B72682E080930001B4C10E94A81C80917A
:1057F0006E07882319F00E946D27F9CFE091AC0263
:10580000F0E0EE0FFF1FEA54FF4F20813181D0926C
:10581000C401F9018491FAE08F9FC0011124F901BC
:105820003196E4914AE0E49FF00111248B33910515
:105830002CF41092C7011092C60116C0AC014B5354
:1058400051094E35510558F44BE34093BD01B10168
:10585000681B790B7093C7016093C60107C07092F3
:10586000C7016092C60189598093BD01E731F105F6
:105870002CF41092C9011092C80116C0CF014797AD
:105880008235910560F487E18093BE0187E190E065
:105890008E1B9F0B9093C9018093C80107C0509243
:1058A000C9014092C801E856E093BE01F901329661
:1058B0001491ACEDB2E043E050E070E06C91607F99
:1058C000672B6C9318961C9218977117E8F4F901DE
:1058D000E40FF51FE4918AE0E89FF001112413968C
:1058E000FC93EE931297FA013196E20FF31F4E5F8D
:1058F0005F4FE491FAE0EF9FC001112415969C934D
:105900008E93149760616C937F5F1E967630B1F62C
:10591000CA010196F901E40FF51F54915093AE02AC
:10592000A0EBB2E010E0BF016E5F7F4F511759F05E
:105930003196E491EC93FB01449111964C931197AD
:105940001F5F1296F0CF850F911D850F911DA90144
:10595000480F591FA4EDB2E0FA0164916C9331969F
:10596000E4911196EC9311974E5F5F4F12966CED98
:1059700072E06A177B0781F74C0179E0870E911C72
:10598000FC013896E20FF31FC490E2E0CE1621F03E
:1059900000E010E040E067C0A6ECB1E07C01F0EE72
:1059A000EF0EF11C40E08D0160E070E04C0159E029
:1059B000850E911CF401E60FF71FE20FF31F5491BF
:1059C000E52FF0E0689413F8F595E7951694E1F764
:1059D000E63009F44F5FE52FEF70E63009F44F5FD2
:1059E000F80156836F5F7F4F005F1F4F6E30710568
:1059F00009F711960E968E159F05A9F670C0EE2335
:105A000009F46DC05FEF851A950ABF2EB294B0EF0E
:105A1000BB227801C11038C0C7016CE170E00E9460
:105A20005E2E969587957727A4E0880F991FAA95F3
:105A3000E1F78A539E4FDC01A60FB71F16965C91C3
:105A40001697E0FC1EC05F705B2916965C938FEF83
:105A5000E81AF80A8E2D801B8E17E0F2E150F0E074
:105A600031960E0F1F1FF901E80DF91DE491FE2F6D
:105A7000F295F695F770EF71F63009F0C0CF4E0F42
:105A8000BECF507F5F2BE1CFB70184E0769567955D
:105A90008A95E1F7562F56958E2D8F7090E060FD18
:105AA0000EC060E1569F800D911D1124DC01AA53A8
:105AB000BE4F16968C9116978F708B290DC070E192
:105AC000579F800D911D1124DC01AA53BE4F1696DD
:105AD0008C911697807F8F2B16968C93B8CF40931E
