:100000000C94A20E0C94CA0E0C94CA0E0C94CA0E38
:100010000C94CA0E0C94CA0E0C94CA0E0C94CA0E00
:100020000C94CA0E0C94CA0E0C9454210C94C62144
:100030000C94CA0E0C94CA0E0C94CA0E0C94CA0EE0
:100040000C94CA0E0C94CA0E0C94CA0E0C94CA0ED0
:100050000C94CA0E0C94CA0E0C94CA0E0C94C928A7
:100060000C94CA0E0C94CA0E0C94CA0E0C94CA0EB0
:100070000C94CA0E0C94CA0E0C94CA0E0C94CA0EA0
:100080000C94001D0C94CA0E0C94CA0E0C94CA0E4B
:100090000C94CA0E0C94CA0E0C94CA0E0C94CA0E80
:1000A0000C94CA0E0C94CA0E0C94CA0EAB13DC133B
:1000B000DC13D513D513D113D113CD13CD13C9131D
:1000C000C913C113C113C513C513C113C113C5137C
:1000D000C5132A2B952B1A2D1A2D1A2D152D1A2DD5
:1000E0001A2D182D1A2D1D2D1D2D1D2D302D302DA5
:1000F000302D262DFC1EFC1EFC1E1D1F1D1F1D1F4E
:10010000771F771F771F771F771FAC1FAC1FAC1FA0
:10011000FC1EFC1E090FE8D2D9ED76BB4EC7B7DD39
:100120006EB7DBED7636090FE8D3E974FCDBED76CC
:10013000BBDD6E6703090F109BCE6EB7DB753A36D9
:10014000090FB8B2E9145FD7ABCF85A2ED6CDB59CC
:1001500001090FBC92EE55A9A4D2AAAD53E4E9E877
:10016000B6B303090FF8B6CAF55FB9B5EBD436EEEE
:10017000ED6CDB5901090F38B39FEAB397770A4B4F
:10018000DBD9B6B302090FBC924EA5FAECE554CE0A
:10019000C9D9D3F9EC367A090FB8B29F6AA2745F55
:1001A000BB8E773B7B3A5A090F38972ACA6B998ED8
:1001B00039BD1D5B090F5CA73EF54D96DBF5B950C7
:1001C000B79D1D20064B000000190075054B00006F
:1001D00000190027054B000000190097044B000090
:1001E00000190017044B0000001900B8074B00006D
:1001F000001900E0064B000000190010034B00003E
:10020000001900BA024B000000190093024B0000D5
:100210000019004B024B00000019000B024B0000BC
:10022000001900DC034B000000190070034B0000B4
:1002300000190088014B00000019005D014B00000F
:100240000019004A014B000000190026014B000074
:1002500000190006014B0000001900EE014B0000E0
:10026000001900B8014B0000001900C4004B000049
:10027000001900AF004B0000001900A5004B000062
:1002800000190093004B000000190083004B000090
:10029000001900F7004B0000001900DC004B0000C3
:1002A00000190062004B000000190057004B0000CD
:1002B00000190052004B000000190049004B0000DB
:1002C00000190041004B00000019007B004B0000AA
:1002D0000019006E004B000000190031004B0000B7
:1002E0000019002C004B000000190029004B0000F1
:1002F00000190025004B000000190021004B0000F0
:100300000019003E004B000000190037004B0000B0
:1003100000190000804B024B0000000F004B024B05
:100320000000000F004B024B0000000F0026014BA5
:10033000000080E0060F0017040F0027050F0000E3
:10034000800A081800600080002000400000006063
:1003500000900020000000000000008010002080BD
:100360000000800000200000000040090FA8D69D7A
:100370002BA2AC932A75BB08B3DBB106090F8876B4
:100380009D7A995DCBDA756AD46DD7B101090FB842
:10039000969F6AA274D7ABCFCDBC9D753B2B060749
:1003A000A8D2E9743A2E0407723A9D8E0A06077C99
:1003B0003A9D4E470704079D4BA7A303030788E513
:1003C000030792CC0407B8D2E99C5304077C3A9DFA
:1003D000760E0607DE6EB7DBED76070407A592768C
:1003E000BB5D010607B7DBED76BBDD020407A59216
:1003F0006ABBDD020307F8743A0307759A10040715
:10040000D476BB924A2A0407B7DBAD5452011507D4
:10041000A54E472555552A1595F3D99C2293AA2A0E
:10042000958A4AEA745C95032907522E95AA4A9543
:10043000E272AA9295755452E5B3924AAAAA542A36
:100440006EE552A9544E71399F4E392EA9AA52A970
:10045000A8A4AA64656B4A550A2907D369A9A2937F
:10046000AA9295ADA9F64A4DEF54252BEBB8944BC3
:10047000A5AA52A5B89CAA64651D552A25552A2A05
:10048000E9F24949A94A010E07A54E47E57C36A77E
:10049000C8A44EC75571011307522E95AA4A95E27A
:1004A000522E954AE51497D4E9A8A44AA552394595
:1004B00056390F07A5CB67B3924AAAAA542A2AE94C
:1004C000F249C9553904050E11110E00121F101200
:1004D0001915120A11150A06051F04171515090E1C
:1004E000151508011905030A15150A12150906192B
:1004F00007EA5455AA2AD59129974AA572159972E7
:10050000A9542AA7B8A4AA64656B2AA9AA52A9B8B3
:100510002A2EF4F5F9F6F7F8FBFAFFFCFDFE0002CF
:10052000030401060508090A070B0C0E0F008801D9
:10053000640000001400DC036400000014004B029F
:100540006400000028001704640000001400270560
:1005500064000000140020066400000028000080F1
:10056000080E0413021008030B150E0200001700FA
:10057000080211021708020B00E1028213846104D1
:1005800061116101410261046111610141C26101B6
:10059000C102612401C103C16125A121612361223E
:1005A00002610329066221A16104611362A1610550
:1005B00061936305611462056101C10BC105C162EC
:1005C0000525614A22A122628307610A8307C106C9
:1005D000610961062961016103C105618103C109E6
:1005E00025614361240121C123C10C6103610532EE
:1005F0006103612A0011070318030609130A020C9C
:100600000015001B0000040104100A00058105818B
:10061000E1810681E101C102C10181038101810300
:1006200081016101810481016126018101810381D0
:1006300001810261028102810261088105810361F9
:100640000382036108C102C102C103610381046125
:10065000456147A146618105614101C10141610ECA
:10066000410661416141C141610DC14104C1016166
:10067000416141C141622A6121426124816141613C
:1006800041C141620A6122620561416141C1416229
:1006900004220461226103C103416141C14162013D
:1006A0002302230161224225614161846101230209
:1006B00023016122076106610123C2230161210533
:1006C00082C1610124016101C101C122C101C101D5
:1006D000612202612102216122C23E000B00030E51
:1006E00006040E140E0600000D001600000116018F
:1006F000160202041205050E170E00E10BC1E10FF0
:10070000870124610E610AC1016104C106C1026151
:100710000861440127612561086101C10A61056121
:10072000266101246108610561066103C10161015F
:10073000612B62066101614401614B6204C1612168
:100740000161C104614105C10341620461210224C8
:1007500061016141614761416202C1612106C1617C
:10076000016141614103C1026141620261210421D1
:1007700044016141614962016121052101C10361B7
:10078000416104C104632106246101614C620B6173
:1007900001610C3C000F020201010A01071B001B52
:1007A000011B041B051B081B091B0E02010B010882
:1007B0000B140E0220000000000000002222222262
:1007C000222020000000000000002006020000009F
:1007D000224444441111130020320232111321111A
:1007E00011000600111220320232111320000111F3
:1007F000111000000032023200001113000000113D
:100800001130603202320600101112130000003164
:1008100011220232111310060011213000300002A3
:1008200002321113111110000111213000020232A5
:100830000000106012310000011211320232660015
:100840001110003112210060023202321113101215
:100850001130000111221232023211131000111254
:100860001130000002320232011310311000611108
:100870002213123202320013103100000000000374
:1008800006320030006016312111121111121122AE
:10089000112111110D0E0311010A09180B03150086
:1008A0001501170F10010909170B050E0001C11AD8
:1008B000246119C101610A61266103C10128612611
:1008C0006105270861066101C108C106C102610610
:1008D000612D61266103C102610D6103C1026146A0
:1008E0006106C10521612661062561266108610650
:1008F000C10461066101C1066123612748236125A6
:10090000036102C106C1086107612961260361878D
:100910006108610A61106105C10137E124000D0A17
:1009200003020111040C0E04110011010302110253
:1009300004011204180D0D0E004F044903610661F5
:1009400083056106C10143E1224521A12143E10163
:100950006144016141214182610761846102610357
:100960002541026107C10121C1216102610622C145
:1009700001A161076104412161014224412141211A
:10098000A16187618541618761412102A1076103FE
:10099000C1614306612142A12104C3610461418414
:1009A00002C10162410A610461416105A121416105
:1009B00023A12205610461416101C10661216184B5
:1009C000016141234122A1426108612161C10321EA
:1009D0006108612161024124016121614182236139
:1009E000076141610221034101612161022341212B
:1009F0006106610161032142214325442E41230008
:100A0000020203180202051805071B001B011B0246
:100A10001B031B041B051B061702010517050B060C
:100A2000003BE12103730321E121036101630461C0
:100A3000036203610321E124610163016201610139
:100A4000620161016324E1210361016301620161CB
:100A50000162016103610321E1210361016301621C
:100A600001610162016101630321E1246103610409
:100A7000610362036124E17D01C1016101C1016182
:100A800001C1026102C1016101C1016101C1017FB6
:100A90000361016101610162016101620161036140
:100AA0000363016101610161016102610161026130
:100AB0000161016301610163026201610161016120
:100AC000026101610261036102640161016101610E
:100AD0000161016201610162016101630161016300
:100AE00001610161036101620161016201610361F0
:100AF0000161017E000F0E04100311050B0911099D
:100B00000402001A0002011A010F030F050709175A
:100B100009020000000000000000000000000000CA
:100B20000000000000000000000000000000003194
:100B30001111111111111111111111300030311059
:100B4000006000600060001130300031113111117F
:100B500011111111113111300030303011106000BD
:100B6000601130303030001131113031111111303D
:100B70003111311000303030303031113030303000
:100B800030300031113111303060303111311130DD
:100B90006030303030303222303030303036111169
:100BA00031113632322232363111311111303030BA
:100BB0003232322232323030303111311032323270
:100BC000322232323230113111303232323232226C
:100BD0003232323230311132303030303000303059
:100BE00030303231111111111111316131111111E6
:100BF00011111A0E0307041705170C03000010004B
:100C00001B0006041505160C070F00E101C107C102
:100C10000AC104C1E1612304612304612A6201C1A4
:100C200003C1016105C1016101C104C10362236106
:100C300023610325412241234123610361036103B1
:100C40008F012461266106C103C10461046106614C
:100C50000141244623610461450161014106C1024D
:100C6000C1036121036102C10141016101410349E5
:100C7000016121C243234101610141034102C101DC
:100C8000C102410161234323410161014101C101CD
:100C9000410161246141016102C102C1056101425A
:100CA000A1420161046141016129026101410561C3
:100CB000046141016102C101C10341026101412797
:100CC0004501612661014424410A6124C121610B6F
:100CD00061290001020401041B040A0E110E030322
:100CE00000100016000204000E090E100E0004820F
:100CF000C10188E185E185036101C121C1086181EC
:100D0000012101816102C4016101C1210121C106EA
:100D10006181012301816102C22201C1210321C13C
:100D20000461810121032101816102C103A102212A
:100D300002210361810122032201816102612202F9
:100D4000230243810321C321038121620321032163
:100D500003C103622306620281012303C1610261B0
:100D600022612107620381012103C16103610261E4
:100D7000018762048103C1610361446107614361CA
:100D80000283610461C102C161018661036109617D
:100D900026610661236123610561C104C16101858A
:100DA00061076104614861056107610461C106C1B1
:100DB00061018461284528610561000C0E03050668
:100DC0001706040E030000000100020406160619AF
:100DD0000D050E00E10A31E10A2841018621E104F6
:100DE000C103612104C1034161012101C1022A61E2
:100DF0004127014161012604C104614104C103414D
:100E00006101266129410122A1230141610126617D
:100E100005C1034106C1014161072961410122A3C6
:100E20002101286101C107614104C10B622941010F
:100E300022A123096202C1064106C109612961415B
:100E40000122A3210225026108C1614106C10221DC
:100E500002C121026229410122A12304612202620E
:100E600015612101C101613C001A04030B0111014C
:100E700002040405001600050116010A0110010113
:100E80000419040023042204220422042702240259
:100E9000240224E101246102226121022261210253
:100EA000216122022161220262032161826101210A
:100EB0006103C16121016182612103620224C16178
:100EC00024622461C1240262230222612102216181
:100ED000220221612202236222042161C1036121D5
:100EE00003C16121042262230224622462240223BA
:100EF000620222612102226121022161220221611A
:100F000022026203216104216103C1612104612184
:100F100003620224622462246224026223022261A8
:100F20002102216122022161220223622204216125
:100F300004612104612104226223022462246224C8
:100F400002236204C1046201C1026204C104623A64
:100F50006100170F040C020E0202091909040000B7
:100F60001B0000011B010A0110010309180900E11F
:100F70001F18266124610361246127018104610433
:100F800061416141610461058101610125066103DF
:100F9000C1022601620125022167210226016201A8
:100FA00022C101210221614561210222C123016286
:100FB0000125022167210226016209870A62056173
:100FC000064106610662456104C143C1046146628F
:100FD00005610445046106622561034703612662D9
:100FE000056101C149C1016106624561014B0161B1
:100FF0004661C105614D6106C100070A030701177B
:10100000060A0E0300000001000208010D04180684
:10101000090E00E11F192A462144214461C11561CE
:10102000046122094103C104C183C1026125622117
:10103000622802210321026104216201622101422E
:10104000240961042162C16221014101240123615B
:10105000246104270141C123056104611661046113
:101060000F2161256144612261286123016101C270
:1010700002610461026108610461014205226102AA
:101080006122C1210461022301422601610261241F
:10109000046103C1024207613242234461000E0E23
:1010A000031700040716080200001B0003070507CA
:1010B00018081A0800E103C104C105C108C1036191
:1010C0002661230125612301256206610961096109
:1010D00001610661028104610961016106610281A9
:1010E000018104610961016106618103810261017D
:1010F000886101618661068102610961086181057B
:10110000816109610126016102810381026105C1DA
:1011100001C1016122012302610281018102610496
:1011200081234301C103C10161048104610381235F
:101130004322A123026102810181026104812343D0
:1011400022A1210121016102810381026103812227
:10115000C24202C101C10361810581610481462649
:10116000016104C1046101C102463C000D0E040589
:10117000080708140816080600001B0000011B01E0
:1011800000021B02060809081208150802000000E8
:10119000000000011000000000000000000000003E
:1011A000000220000000000000006000000060015C
:1011B00010060000000600212121212121322312E6
:1011C0001212121212000600000600311300600015
:1011D000006000321212121212122121212121214B
:1011E00023300060006000011000060006000321AB
:1011F0002121212121322312121212121200006029
:1012000000600031130006000600003212121212B4
:101210001212212121212121233006000006000184
:1012200010006000006003212121212121322312BE
:10123000121212121200600000006031130600004A
:101240000006003212121212121221212121212134
:101250002330000000000000000000000000031226
:1012600012121212121212121212121212010E0283
:10127000080E130E0200001B00070E090E120E14BA
:101280000E00E188C226C288E16107C1236423C140
:10129000076206C12263026322C106620622620659
:1012A0006222066205C12162086221C1056205222F
:1012B00061C108C161220562052162C108C16221C4
:1012C0000562052161C208C261210562052162C172
:1012D00008C162210562052261C108C1612205625F
:1012E000062162C106C1622106620621A162C20214
:1012F000C262A121066207A12163C26321A1076224
:101300000823642308620A260A61296108612861AA
:1013100000010F0319020706150F0705000501005C
:10132000020302050200030104180204040C07135F
:101330000F0025E1360421E12101870C21E122E1A2
:1013400002210121C1032161210B21E10125012697
:101350006125C101216125E104C183246128612146
:1013600001290321022161230124612101220D2190
:101370006123012201216121C101216127612161D4
:10138000C1012161230122012161246107612561DD
:1013900023C101210121612201216109246126016A
:1013A000216122C1216107210561086103216123B7
:1013B00061246121412141214121412141214121DA
:1013C000612141214161236124612602256121417E
:1013D00021416103610461270224610461286128BD
:1013E000C1012762086101C10126086100020702EC
:1013F00018010902030000030103020A021A03088C
:101400000E170E00E11B23E12409860A820F4561B5
:10141000036121022561268303210162240221C187
:101420008361852103246121610624032361210353
:1014300021C102610161062184618461210321814E
:10144000026101610221032161C121C161C12161E8
:10145000C1612103210361C1216122032C042161A7
:1014600023016104C12105C1042105610461042235
:1014700003236103210561046102C1210121066189
:101480000321C102612501610221022103C1026120
:10149000032202610661C12103210161266101214C
:1014A0000121C16106612102C1012101612102C145
:1014B000012161042161053C000D0E03050415079F
:1014C000040F050E000E010E020F020F0302031996
:1014D00003050F170F001F19C11AC1216101618B8C
:1014E000E188610161236212C101622561016186A7
:1014F0000189610161276201C10E6228A161016158
:10150000870184610161A128A121620AC1016221D0
:10151000A128A12261016183018461016122A128C6
:10152000A1236201C1066223A128A1246101618275
:10153000018161016124A128A12562046225A128FD
:10154000A12662026226A128A1276101C16127A10B
:1015500028086122610824001501050A010C010E0A
:1015600001080E110E021B001B0103010B010D01EE
:10157000190100411B4105C412412AA12F611B61C1
:10158000044101C102C107C106C1410161044127F3
:10159000A127A1244101611B61064102C104C105CB
:1015A000C102410361064123A126A1254103611B1C
:1015B00061074102C105C104C141046106422E41D7
:1015C00004611B611B61C414614101612A46284208
:1015D0000161000E0B03020015000F020206001647
:1015E00000010014000E02150F010124042305223E
:1015F000C1210421C1210522C12104230524038224
:10160000032201810581062201810624066501224B
:10161000C121058104810122C12107220181012408
:10162000072201810B810181026A0281068109265C
:101630000181082603230424C1210321C1A104241C
:10164000C12103230424C121018108268109260127
:10165000660281068107220166072281062403644F
:101660000522C12106230322C1210621C121032411
:1016700006231F0A000A0E0318051207030A030DAA
:10168000000D010D0204021A051307040A001C8B49
:1016900013C104C101416104C10C29476102C16148
:1016A00041610521412141214121450347610F420B
:1016B00002C106416102C102886101422561034203
:1016C000246108610142056105246108610142014C
:1016D000286101246101C104C101610142012106A7
:1016E000216101246123032101610142012103C120
:1016F0000221610122C121612701610142012861AA
:1017000001220121610861042102C1032161042138
:10171000612E016122610127610F6101C1610861D0
:101720003C00070104140104090A09180B0A00030C
:101730001B0300041B04000501051A051B05010617
:101740001A06130103090B09170B00611A621A62CA
:101750000341216121418A41216121410361E1036A
:1017600041C161014101C106C1014101610141065F
:10177000412201610122410641220161C12241044D
:1017800041C1026102C14101C1044101C1016101C4
:1017900021C141E1E141E1230161032241024125EF
:1017A0006101210121E1420561054101C141C104FD
:1017B00061012102C142056125416121412203618C
:1017C000012201214201C1036106610761054261F5
:1017D00024610341226123410361032161410161CD
:1017E0004101C101610321026101C10121036103C2
:1017F0004161026141220161012302610323016110
:1018000001224161026101C14101610141046104A0
:10181000C14101610141C10161026103230561060A
:10182000230361013C000D0E0305010D02160503A3
:101830001A001A011A0204010C0216021505001FF3
:1018400019612A6104C106C104610A61246104238B
:1018500061236101C106C101610341610761036147
:101860000121022301210161C2014161076103617C
:1018700001210123022101614201412A426101212A
:10188000022301210161420C41C1610121012302B6
:10189000210161418802C10241620121C10123018C
:1018A00021016141C10724614162012502210161D9
:1018B000420B610162012801614204C1066122619B
:1018C0000A61420146046102614821440B610261E0
:1018D0001861023C00D5F08D14A1C881CFD9F1AFB9
:1018E00020005717A38B2E2E47175D74D145175D27
:1018F00074D145175D721F5D74D145175D74D14574
:10190000175D749129BAE8A28B2EBAE8A28B2EBA81
:10191000E8A28B2EBAE8A28B2EB98F2EB4499D4E29
:10192000C7A55C2A954AA5728A2E5795AA4A55E5FD
:101930001C9772A9542A954A491449974DE71D9757
:101940007255A9AA5455EEA24AE52A9BAD5C2A2AF3
:10195000E752A9543624DDD7575595AA2A3559AEF2
:101960002A5595AACA392AA9F2CAA525977255A956
:10197000AA5455AEA35485ACE8A28B2EBAE8A28B2C
:101980002EBAE8A28B2EBAE8A28B2EBAE8A28B2E32
:10199000BAE8A28B2EBAE8A28B2EBAE8A28B2EBA96
:1019A000E8A28B2EBAE8A28B2EBAE8A28B2E32596F
:1019B0001FA38B2EA764E7D29DDCE7D28E2EB66DD7
:1019C0007ABAD8B6E9E962DBA6A78B6D9B9E2EBAE0
:1019D000E862DBA6A78B6D9B9E2E9B9E6D9BCFA680
:1019E000B7E9E972694717DB363D5D4EE96D3EBAEE
:1019F0006C7A9B8F2E7439974EC79C733A2E652B49
:101A000059C9CA756CD94A56B2728EAB9395AC64FB
:101A1000652353B69295AC5C872BE5D3E95CC7A5EB
:101A20007C3A9D53648E4B91392E2BD3E99CE2CBAB
:101A3000391D97B295AC64E53A2EE5D3D9C894AD7B
:101A400064252BD7416FF7B5AB4AA952A9C9725586
:101A5000A9AA5455CE514995572E2DB994AB4A5544
:101A6000A5AA721D2C1B5D74D145175D74D1451755
:101A70005D74D1C594EB742EBAE8A28B2EBAE8A29D
:101A80008B2EBAE8A28B2EBAE8A28B2EBAE8A28BD4
:101A90002EBAE8A28B2EBAE8A28B2EBAE8A28B0946
:101AA0000A1000000000000000000000000000001C
:101AB000000000000000EFEFE0EFEFEFEF0FEFEFBF
:101AC00001010101010101000101FFFFFFFFFFFF13
:101AD000FFFFFF0001010101010101010100000000
:101AE000FF42424242FF00000000030000000003EA
:101AF00000000202020202020202020200000000D2
:101B0000000000000000EFAFE06FEFEFED0FEBEF34
:101B1000010101010101010001010000B0B000B0AC
:101B2000B000000000000101000101000000EFEF23
:101B3000E0EEEEEEEE0EEFEF01010101010101001A
:101B40000101EEECE0E8E8EAE808ECEE0101010151
:101B5000010101000101ECE0C0C088808000E0ECE0
:101B600001010101010101000101E0800000080004
:101B7000010086E0010101010101010001010000F5
:101B80000000000000000000000000000000000055
:101B90000000E08080000000000080E00101010101
:101BA000010101000101ECE0C0808080C000E0EC98
:101BB00001010101010101000101EFECE0E8E8E8A9
:101BC000E80CECEF01010101010101000101EFEF5F
:101BD000E0EEEEEEEE0FEFEF010101010101010079
:101BE00001013F0FA5AA64656B2AA9AA52A9B83AB8
:101BF0005595AA4A755CCEA7538E4BBA7C362BA955
:101C0000A4AA4AA5E2562E95AA4A95E272AA9295EE
:101C10007554D2E5B359492555552A15D2A5AA645C
:101C2000656B2AA9AA52A9B83A5595AA4A755CE9E2
:101C3000B454F13955C9CA3A2AA92A59D99A2A9DC0
:101C4000962A7EE552A9AA54292EA72A5959472532
:101C50005D3E9B95545255A55221122C07EA5455CE
:101C6000AA2AD571A5D352C5E754252BEBA8A4AA5F
:101C700064656BAA745AAAF8954BA5AA52A5B89C9C
:101C8000AA64651D9554F9ACA492AA2A954A01024A
:101C900007A5533609E0061E0000000A00E0061EF4
:101CA000000080080B00020202010009040000018C
:101CB0000202000005240010010524010101042492
:101CC00002060524060001070581031000400904EF
:101CD0000100020A0000000705020240000007059B
:101CE00083024000000403090412010002EF020114
:101CF000404123368000010102030141726475698D
:101D00006E6F204C4C430041726475626F79002005
:101D1000066400000014002705640000001400178A
:101D2000046400000028004B02640000001400DC82
:101D30000364000000140088016400000028000013
:101D40008000852D11241FBECFEFDAE0DEBFCDBFAE
:101D500011E0A0E0B1E0E6EBFEE502C005900D92D7
:101D6000A839B107D9F727E0A8E9B1E001C01D9271
:101D7000A53EB207E1F71EE0C2EADEE004C021970B
:101D8000FE010E944E2FC13AD107C9F70E942629B1
:101D90000C94592F0C9400002F923F924F925F9217
:101DA0006F927F928F929F92AF92BF92CF92DF926B
:101DB000EF92FF920F931F93CF93DF93CDB7DEB7D0
:101DC0002D970FB6F894DEBF0FBECDBF8091B50141
:101DD00090E02091BE013091BF01821B930B0596CC
:101DE0002AE030E0B9010E94D12D162F6D87809135
:101DF000B60190E04091C0015091C101841B950B48
:101E00000596B9010E94D12D7B016C87809100015C
:101E1000853091F080916A0790916B076CE070E0DB
:101E20000E94E52D892B09F0F6C39091980181E07D
:101E3000892780939801EFC3812F0E941026082FD5
:101E4000D0906C07C0906D07C094CD201092B70160
:101E50001092C2018091BC018B3021F01092B80128
:101E60001092C3016E2D812F0E941026863079F5C5
:101E70008091B9019091BA0149969093BA018093EB
:101E8000B90140E06E2D812F0E9437268091A50276
:101E9000882319F081508093A5028091A5028111B9
:101EA00012C0B12C8091A602B81668F4EB2DF0E0B8
:101EB000EE0FFF1FE855FD4F43E0618180810E94D6
:101EC0003726B394EFCF83E393E00E94601D8091A7
:101ED00099019D2D9C709C3061F58F5F80939901D5
:101EE0008531B0F18D3390F08D3391F510929901D9
:101EF00083E884BD8FEF87BD81EF809380001092CF
:101F0000880010928A000E94132918C320E430E050
:101F1000A901481B5109CA01880F93E894BD9FEF9E
:101F200097BD91EF909380001092880080938A0073
:101F30000FC0882369F083E884BD8FEF87BD81EFF0
:101F4000809380001092880010928A00109299016C
:101F50008C2D84709C2D9870C3FE2DC081112BC0D8
:101F60000E94A11E882309F454C08091B50190E01D
:101F70002091BE013091BF01821B930B02966AE053
:101F800070E00E94D12D162FCC24CA94C60E6E2D5F
:101F90008C2D0E941026A82EBB24B394BE0C6B2D52
:101FA0008C2D0E9410268130A1F58FEF8A0D823092
:101FB00008F094C22EC0882361F191112AC00E94BA
:101FC000A11E882331F18091B50190E02091BE01DE
:101FD0003091BF01821B930B02966AE070E00E9471
:101FE000D12D162FCC24C394C60E6E2D8C2D0E949D
:101FF0001026A82EBB24B394BE0C6B2D8C2D0E94F2
:102000001026813031F48FEF8A0D823010F00C945D
:102010005D18D6FECAC06E2D812F0E941026082F93
:102020008091B50190E02091BE013091BF01821BEB
:10203000930B6AE070E00E94D12D6C01892B19F49A
:1020400081E0810F01C0812F6E2D0E941026282E65
:10205000552453945E0CC114D10419F481E0810F0E
:1020600001C0812F652D0E941026482EC114D10475
:1020700019F08FEF810F01C0812F652D0E9410266E
:10208000382E822D0E944B28682E470199245FEF3D
:10209000851A950AA12EB12CA401B501832D0E94A9
:1020A0008F25782E0E94A11E9091BC019B3089F44F
:1020B000882311F40C942A1B7110C1C064E0261609
:1020C00021F0043011F00C942A1B68E087E00C9496
:1020D000C4180E94F326882341F08DEF800F8230D0
:1020E00010F00C9476180C946418C114D10419F4EF
:1020F00081E0810F01C0812F6E2D0E941026782E65
:10210000C114D10419F481E0810F01C0812F652D24
:102110000E941026682E62E06E0DC114D10419F4DD
:1021200081E0810F01C0812F0E941026482E862D4C
:102130000E944B28682E872D0E944B28882311F47B
:102140000C94C718662011F40C94C71835018FEF52
:10215000681A780AA401B301842D0E948F25882370
:1021600011F40C94B91864E081E00E94B41E10923E
:10217000BC018091C0019AE0E99E800D11248093FA
:10218000B6018091B5018C3310F482E0C2C0209179
:10219000BE013091BF0129363F4F24F01092B701A4
:1021A0008EEFC3C087FFF1CF8AC1D5FEC4C06E2DAC
:1021B000812F0E941026082F8091B50190E0209178
:1021C000BE013091BF01821B930B6AE070E00E9458
:1021D000D12D4C01892B19F48FEF810F01C0812F74
:1021E0006E2D0E941026382E772473947E0C811455
:1021F000910419F081E0810F01C0812F672D0E94A9
:102200001026482E832D0E944B28582E5701BB24A0
:10221000BFEFAB1ABB0AC12ED12CA501B601842D8C
:102220000E948F25682E0E94A11E9091BC019B30B8
:10223000B9F4882311F40C942A1B662031F0109213
:10224000BC010E94481C0C94521BE4E03E1621F095
:10225000043011F00C942A1B69EF86EF0C941F19BF
:102260000E94F326882331F08DEF800F823008F032
:10227000ADC7B7C78114910419F48FEF810F01C066
:10228000812F6E2D0E941026082F8114910419F4BD
:102290008FEF810F01C0812F672D0E941026782EAD
:1022A00062E06E0D8114910419F48FEF810F01C06B
:1022B000812F0E941026182F872D0E944B28782EE0
:1022C000802F0E944B28882311F40C94521B7720F6
:1022D00011F40C94521BF1E0CF1AD108A501B601FC
:1022E000812F0E948F25882309F49DC76FEF8CEF03
:1022F0000E94B41E1092BC018091C0012AE0E29EAF
:10230000800D11248093B6018091B5018D3320F0AA
:102310008EEF8093B701D1C02091BE013091BF01F3
:1023200037FF06C01092B70182E08093C201C7C098
:102330008111EECFC4C0D7FE85C08091B60190E078
:102340002091C0013091C101821B930B08966AE075
:1023500070E00E94D12D7B01B62E0E94A11ED82EC6
:10236000882319F06FEF6E0D01C06E2D812F0E9432
:102370001026C82EDD2019F0BB24B394BE0C6B2DA3
:10238000812F0E9410269091BC019530A4F09730C7
:1023900044F09B3081F4043009F068C7D11062C763
:1023A00065C7DD2061F1033009F083C08FEF8C0D2C
:1023B000823028F57EC00E94481C8091B50190E0D3
:1023C0002091BE013091BF01821B930B2AE030E0C7
:1023D000B9010E94D12D863020F0A901481B510976
:1023E000CA0105970CF067C0033009F064C08FEF95
:1023F0008C0D823008F45FC085E08093BC01809131
:10240000BE015AE0159F800D11248093B5011092F2
:10241000B7011092C2018091B601883120F08EEF91
:102420008093B8014EC02091C0013091C10137FFA7
:1024300006C01092B80182E08093C3017FC0811171
:10244000EECF7CC0D4FE40C08091B60190E02091D8
:10245000C0013091C101821B930B08966AE070E0C5
:102460000E94D12D7B01D62E0E94A11EC82E811163
:1024700004C76FEF6E0D812F0E941026B82ECC205E
:1024800019F0DD24D394DE0C6D2D812F0E941026CF
:10249000D82E8091BC018B3009F059C6043009F464
:1024A000DFC6CC2009F401C784EF8B0D843008F01F
:1024B000FCC60E94481C1092B7011092C2011092F3
:1024C000B8011092C3013AC08091B801823009F47A
:1024D000BBCF8091C3018E3F89F5B6CF53E0A516DF
:1024E00009F497CD84EF8093BC011092B70110924C
:1024F000C20147E06B2D8C2D0E9437268091660724
:10250000843181F0E82FF0E09F01220F331FE20FAA
:10251000F31FE65DF84FC082B1829CED92838F5F1E
:102520008093660780916C0780936D070E947E1EE2
:1025300080936C0785E193E00E94601D80916A079B
:1025400080FD68CC1092D5021092E3021092F10245
:102550001092FF0210920D0310921B0384ED682E5F
:1025600082E0782EF301808184FF4BC082819381C9
:102570006AE070E00E94E52DD62E688784819581FF
:102580006AE070E00E94E52DF62E69878D2D0E948D
:102590001026B82ECC24C394CF0C6C2D8D2D0E9408
:1025A0001026982EF6E0BF1206C0D30118968C9123
:1025B000882309F487C6F30182858D3014F52281C2
:1025C00033813B872A87C9016AE070E00E94E52DCC
:1025D000892BB9F404811581C8016AE070E00E947A
:1025E000E52D892B71F4E384EE2009F48BC6D30129
:1025F00018968C9181117DC6F301178283858150D5
:102600008387BEE06B0E711CE8E26E16E3E07E0687
:1026100009F0A8CFFFCB809100018850833030F4BF
:1026200080910001833009F0C9C1CDC1C12CD12CEA
:10263000812C712CA12CB12CE090BE01F090BF0137
:10264000EA0CFB1CC70109968938910528F5009111
:10265000C0011091C1010C0D1D1DC80109968934DE
:102660009105D0F4682D872D0E941026982E88237E
:1026700039F0282F40EA5AE1B801C7010E94731DC2
:1026800029EF290D243040F4B8016A50710941E462
:1026900053E0C7010E94731D7394FAE0AF0EB11CA2
:1026A0002CE17212C9CF83943AE0C30ED11C40E1F1
:1026B0008412BFCF80910001853021F08091980174
:1026C0008823F1F08091BC01082F001F0027001F14
:1026D000082E000C990B97FF03C0919581959109E5
:1026E000880F990BFC01E35EFE4F408151816091A0
:1026F000B60170E08091B50121E090E00E943E2497
:1027000014EDA12E12E0B12E7501D7018C9184FF3A
:10271000ADC012960D911C9113976090BE01709000
:10272000BF014301800E911E14968D919C911597C7
:10273000C090C001D090C101C80ED91E1B96EC916B
:102740004E2F50E04331510508F088C0FA01EA5A93
:10275000FF4F0C944E2FF7018285082F001F002792
:10276000001F082E000C990B97FF03C091958195CF
:102770009109880F990BFC01E35EFE4F4081518166
:1027800070C0F1E08F1A910869C02FEF821A920A87
:1027900065C032E0C31AD108FCC644E0C41AD108AF
:1027A00007C056E0C51AD108F4C668E0C61AD108B9
:1027B00000E04BE653E055C0AAE0CA1AD1089C01DC
:1027C0002A503109F701358324831386C8016AE052
:1027D00070E00E94E52D262EC9016AE070E00E949B
:1027E000E52D462E55245A94520C852D0E94102614
:1027F0008F8333243394340C632D852D0E9410264F
:10280000888755245394520C642D852D0E941026E0
:10281000482E632D852D0E941026582E8091B501DB
:1028200090E0861997098017910764F48F810E94C0
:102830004B28882309F4A5C688850E945428811155
:1028400097C69FC6842D0E944B28882309F490C602
:10285000852D0E945428811194C68AC600E04DE857
:1028600053E021E0B601C4010E943E24FEE0EF0ED9
:10287000F11C28E2E21623E0F20609F046CF409070
:10288000B501512C8091BE019091BF01481A590A9F
:102890006090B601712C8091C0019091C101681ABD
:1028A000790AD5018C9184FF7FC012968D919C91FD
:1028B0001397F201E81BF90B14962D913C91159793
:1028C000A301421B530B9A01C090B6014C2D50E05E
:1028D000421B530BE090B501473F6FEF5607C4F41E
:1028E0002E2D30E02E1B3F0B2F3FAFEF3A070CF49D
:1028F00054C62C3731050CF058C6E394EE1A8E2DD1
:10290000BDEA8B2EB3E09B2E43EE53E090E03AC03D
:1029100045335105C4F02E2D30E02E1B3F0B2F3FC9
:10292000BFEF3B070CF449C62C3731050CF04EC6FF
:10293000E394EE1A8E2DAEE98A2EA3E09A2E42ED94
:1029400053E093E31FC0F12CEE1AFF0AECEFEE16F2
:10295000EFEFFE064CF49C2D921BF0EC8F2EF3E073
:102960009F2E49EF53E030C6FCE7EF16F104E4F088
:102970009C2D921BECEB8E2EE3E09E2E44EF53E059
:102980008CE702C08F3F81F0C92ED12CE82EF12CAC
:1029900000E020E0B601C7010E943E2421E0A4012E
:1029A000B601C7010E943E242EE0A20EB11C38E2FF
:1029B000A31633E0B30609F074CF32CE873049F462
:1029C0008091BD0101C084E08093000100E010E02F
:1029D00067C098EF980F9330C8F78A3069F400E029
:1029E00021E049E554E069E170E08AE290E00E946C
:1029F0003E2409E210E03BC0883029F400E021E0E9
:102A000048E254E02FC01091A402812F64E60E9496
:102A1000422F082F282F45EC54E069E170E088E44C
:102A200090E00E94731D812F44E6049F80191124B9
:102A30006AE00E94422F192F282F45EC54E069E1EB
:102A400070E08DE490E00E94731D212F45EC54E06E
:102A500069E170E082E590E00E94731D00E021E0F2
:102A60004EE054E069E170E08BE290E0C0CF41E0DD
:102A700066E170E0C8010E94861E0E5F1F4F093597
:102A80001105A9F709E210E041E060E270E0C80139
:102A90000E94861E0E5F1F4F09351105A9F796CFBC
:102AA00077E3E72EF12C40E0B701C8010E94861EB3
:102AB0005FEFE51AF50A60E4E616F104A1F70F5F8F
:102AC0001F4F0038110561F700E010E041E068E3B6
:102AD00070E0C8010E94861E0E5F1F4F023811056C
:102AE000A9F78091B9019091BA01FE01319626E0D3
:102AF000DF011D922A95E9F77F019E01295F3F4F73
:102B00000AE010E0B8010E94E52D8193CB012E1759
:102B10003F07C1F700E021E04FEE54E06AE370E0C8
:102B200080E090E00E943E2406E310E0F70121914E
:102B30007F0145EC54E06AE370E0C8010E94731D18
:102B4000055011090831110589F7F090BB0100E02B
:102B500021E042EB54E06AE370E080E490E00E9400
:102B60003E241AE08F2D612F0E94422F092F282F1B
:102B700045EC54E06AE370E082E590E00E94731D4A
:102B8000202F45EC54E06AE370E087E590E00E9476
:102B9000731D80910001853071F4F090A50200E072
:102BA00021E047E954E06AE370E080E690E00E94AB
:102BB0003E248F2D1DC0F090A40200E021E047E8E4
:102BC00054E06AE370E080E690E00E943E2464E610
:102BD00070E08F2D90E00E94D12D262F082F45EC1C
:102BE00054E06AE370E081E790E00E94731D802F5B
:102BF000612F0E94422F192F282F45EC54E06AE3E1
:102C000070E086E790E00E94731D212F45EC54E0B0
:102C10006AE370E08BE790E00E94731D2091000151
:102C2000253009F0C1C180916A0790916B0780FD42
:102C30001CC02091B70121110CC02091B8012111B5
:102C400008C02091C201211104C02091C301222398
:102C500061F02091BC01ECE0E20FEC3120F4F0E0F7
:102C6000EE5EFA4F24912093BC0183709927892B43
:102C700009F445C02091B7018091B501280F209338
:102C8000B5011091B8018091B601180F1093B601EB
:102C90008091C201E090BE01F090BF01E80EF11CEE
:102CA00087FDFA94F092BF01E092BE018091C301CA
:102CB0004091C0015091C101480F511D87FD5A95A7
:102CC0005093C1014093C001812F90E0841B950B6C
:102CD0000596EAE0F0E0BF010E94D12D362F822F49
:102CE00090E08E199F090596BF010E94D12D862F75
:102CF000632F0E941026123008F053C01DC0A4EDAF
:102D0000B2E088E293E02C9124FF11C01B962C9135
:102D10001B97222309F463C40AC016962C911697B8
:102D2000211167C417962C911797211162C41E9622
:102D30008A179B0741F79ECF833099F51091A40223
:102D40001F5F8091BB018A3018F48F5F8093BB01B5
:102D500086E0809300011093A402612F82EB90E043
:102D60000E94A92E133308F453C481EB90E00E9413
:102D70009B2E873008F04AC411E0180F612F81EBB9
:102D800090E00E94A92E612F86EB90E00E94A92E70
:102D90000E946F2681E18093BD018EE295E00E9442
:102DA000601D80916A0780FF09C0809166078823B3
:102DB00009F464C1F12C6DE0E62E86C004ED12E04A
:102DC000D8018C9184FF54C016968C911697129658
:102DD0004D915C911397480F511D87FD5A9513969D
:102DE0005C934E93129717968C91179714962D918A
:102DF0003C911597F901E80FF11D87FDFA9515969D
:102E0000FC93EE9314972091B50130E08091BE01C0
:102E10009091BF01281B390B8091B601A091C00190
:102E2000B091C101790162E0E60EF11CBA01685F60
:102E30007F4FE616F706E4F44E5F5F4FB901685F17
:102E40007F4F46175707A4F490E08A1B9B0BAC01F9
:102E50004E5F5F4F9F01285F3F4F4217530744F477
:102E60002650310908962817390714F40E941329AF
:102E7000025F1F4F83E00832180709F0A1CF10E06E
:102E800000E0612F802F0E94102699EF980F943058
:102E900030F441E0480F612F802F0E9437260F5FEA
:102EA0000C3179F71F5F103159F77FCF0F2D10E0EC
:102EB0006801CC0CDD1CF601E00FF11FE65DF84F58
:102EC0008281811106C0F39480916607F81670F331
:102ED00066C081508283803179F030F4813071F0A6
:102EE000883089F74FE04FC0883121F0803259F7A0
:102EF0004CE049C04DE047C04EE045C08091A7027C
:102F000090E0880F991F84539D4FA4EDB2E05F01BC
:102F1000AF014F5F5F4F2C9124FF1BC0F501208153
:102F2000FAE02F9F9001112412966D917C911397D6
:102F30006217730771F4FA012081FAE02F9F900164
:102F4000112414966D917C9115976217730709F4FB
:102F500061C31E9623E0A832B207E9F6F601E00F3E
:102F6000F11FE65DF84F80813D85831306C08181A6
:102F70004C85841302C00E9413290C0D1D1DF801FD
:102F8000E65DF84F41E0618180810E9437269BCF4A
:102F90000E940D2780916607882309F46FC08091F5
:102FA0002C078130A9F36AC030916C0790916D07AE
:102FB00090959323243009F044C080919A0132FF08
:102FC00032C08E3268F48932D0F083E884BD8FEF4E
:102FD00087BD81EF8093800080E4809388000BC0E0
:102FE000833388F483E884BD8FEF87BD81EF8093BE
:102FF00080001092880010928A0080919A018F5F61
:1030000080939A013BC08091A40297FF04C0823351
:1030100010F48F5F05C094FF31C08B3178F181507F
:103020008093A4022BC0882371F0833300F188328F
:1030300018F082E08093000110929A01911117C05C
:103040001DC010929A019923C9F02B3040F4293009
:1030500048F4273049F0283051F481E00DC0213187
:1030600069F005C082E008C08091BD0105C01092E2
:103070006D0710926C0785E08093000180919901A3
:10308000811112C380919A0181110EC38091A50212
:10309000811106C090910001953019F480E201C0C1
:1030A00080E093E894BD809587BD81EF8093800098
:1030B0001092880010928A00F7C263E0A61611F4FD
:1030C0000C9409108CE00FCA662009F4EBC277203B
:1030D00019F064E081E004C0043029F46AE087E07C
:1030E0000E94B41E46C866E085E0FACFC114D10440
:1030F00041F4A401B501832D0E94B525811183C03F
:10310000ABC2611003C071108BC00AC0A401B5012D
:103110006F5F7F4F842D0E948F258111DACF03C00E
:10312000CD2809F4BFC2B5016F5F7F4FA401842D84
:103130000E94B5258111CDCF1092B7011092C20126
:10314000882309F4BCC98BE08093BC010FC063E005
:10315000D61295C08091BE019AE0199F800D11246E
:103160008093B5016BEF8AEF0E94B41E0E94BD1ED2
:10317000E5C9CD2879F4A401B301842D0E94B525B9
:103180008823D1F266E085E00E94B41E1BC0CD28E2
:1031900009F488C2652D812F0E941026182F802FD8
:1031A0000E944B28882309F47DC2B5016F5F7F4FD1
:1031B000A401812F0E94B525882309F4BDCF8BE09F
:1031C0008093BC010E94481C0C94B9108114910496
:1031D00011F5A501B601842D0E94B525811113C0FA
:1031E0005EC2552009F45EC2662019F06FEF8CEFC5
:1031F00004C0043029F469EF86EF0E94B41E7CC835
:1032000066E085E0FACF8BE08093BC0183EC91E02F
:103210000E94601D1FC2511024C2662009F41FC203
:103220001092BC013FC2892869F4A501B601812F23
:103230000E94B525882309F47FCF66E085E00E94CF
:10324000B41E0BC0A501B601812F0E94B5258823AD
:1032500009F472CF8BE08093BC010E94481C4CC8DB
:10326000CC2019F187E08093BC0123C9A701552721
:103270004F5F5F4F612F70E01FC06E2DFCC88D2D1A
:103280000E944B28811103C01092BC0112C9D110B9
:1032900003C08BE08093BC018091BE01AAE01A9F1D
:1032A000800D11248093B50161CFA70155274F5F91
:1032B0005F4F612F70E08D2D0E948F25882309F4C8
:1032C00055CFE2CF0E94442E0E94442E2AE030E0E7
:1032D00040E050E00E94DF2EDC01CB014496A11DAE
:1032E000B11DF301808740E06F2D8D2D0E943726A0
:1032F00062C9FA946F2D8D2D0E941026882309F43F
:103300002FC17AC96FEF6F0D8D2D0E9410268F830C
:103310006F2DAA24A394AD0C8A2D0E941026582E3E
:103320006C2D8A2D0E941026482E6C2DCC24CA9418
:10333000CD0C8C2D0E941026382E6F2D8C2D0E94C6
:103340001026282E8091B50190E02091BE01309189
:10335000BF01821B930B2A853B85281B390BC901B2
:103360002091B60130E04091C0015091C101241B71
:10337000350B021B130BD30119962C91199722239D
:10338000D1F01F922F923F92892CA42CC52CEF8054
:103390000B2D1D962C914F2D6D2DC3010E94D71E14
:1033A000F3019185915091870F900F900F908111AB
:1033B00028C9148561C097FF1FC0101611065CF460
:1033C00091958195910908171907C4F18017910704
:1033D000BCF511E046C001151105A1F1919581954B
:1033E0009109119501951109801791076CF1081742
:1033F000190764F515E035C00097C9F010161106DD
:1034000044F40817190724F1801791071CF51FE0F1
:1034100028C00115110501F11195019511098017B9
:103420009107E4F008171907DCF41BE01AC0111F1C
:103430001127111F110F110F110F13C013E011C02D
:1034400012E00FC014E00DC017E00BC016E009C079
:103450001DE007C01EE005C01CE003C019E001C06C
:103460001AE0EDEFE10FEC3020F4F0E0EF5EFE4FFC
:10347000E080D3011D96EC92F3018085882389F0CA
:103480009FEF990D923068F4B1100BC08150D301B9
:1034900018968C93811105C046E06F2D8D2D0E94EA
:1034A0003726B1E0BF932F923F92892CA42CC52CD4
:1034B000EF800B2D212F4F2D6D2DC3010E94D71EA4
:1034C0000F900F900F9081119CC8F12E08E0D02E24
:1034D000112311F0115001C01FE0E1E0EF932F9292
:1034E0003F92892CA42CC52CEF800B2D212F4985D0
:1034F0006885C3010E94D71E0F900F900F908823FC
:1035000039F0D3011A968C918B3009F07AC81EC01D
:10351000BFE0FB1611F0F39401C0F12CE1E0EF9352
:103520002F923F92892CA42CC52CEF800B2D2F2D90
:1035300049856885C3010E94D71E0F900F900F9098
:103540008111DFCFDA94D110C3CFDBCF892D0E9458
:103550005428882309F455C8D30117961C9251C8E2
:10356000F301108646E06F2D8D2D0E94372644C84A
:10357000EFEFD7011A96EC931A97FEEF1696FC938D
:1035800008C081E0D7011A968C931A97E2E016964C
:10359000EC9300E04CE753E064C935EB832E33E055
:1035A000932E4CEE53E090E00FC02BEC822E23E0E4
:1035B000922E46E054E090E010C096EA892E93E007
:1035C000992E4BED53E092E380E0DEC984EC882E27
:1035D00083E0982E4EEF53E092E38BE7D5C91A961D
:1035E000EC911A9723EF2E0F233008F096CBE45F6F
:1035F00005C02CE02E0F2C3128F4E22FF0E0EE5E17
:10360000FA4FE4911A96EC931A9791CB82E1C3CBCF
:1036100089E0C1CBFC0160812181FAE06F9FB0019C
:10362000112413967C936E9312976AE0269F900163
:10363000112415963C932E9314971A96EC921A9790
:103640001B961C921B9716961C92169717961C9207
:1036500017977FCC81E070CD61103BCD54CD892888
:1036600009F1672D812F0E941026182F802F0E94AC
:103670004B28882349F0A501B60161507109812FBB
:103680000E948F258111B2CDB60161507109A5014B
:10369000812F0E94B525882309F44ECDA7CD511066
:1036A000A5CDBBCD80E048CD2D960FB6F894DEBFFA
:1036B0000FBECDBFDF91CF911F910F91FF90EF9083
:1036C000DF90CF90BF90AF909F908F907F906F9042
:1036D0005F904F903F902F900895CF92DF92EF929E
:1036E000FF920F931F93CF93DF936C017A018B01AD
:1036F000C0E0D0E0CE15DF0581F0D8016D918D01DD
:10370000D601ED91FC910190F081E02DC601099563
:10371000892B11F02196EECF7E01C701DF91CF9169
:103720001F910F91FF90EF90DF90CF9008958091BF
:10373000A401E091A201F091A301882349F0CF01F7
:1037400002969093A3018093A2018591949108958C
:10375000CF0102969093A3018093A2018081918171
:10376000089580919B0108950895089580E090E068
:103770000895FC012285261714F0421714F4FC0169
:10378000628708950E94542FBF92CF92DF92EF92EA
:10379000FF920F931F93CF93DF93FC0166834783C0
:1037A000862F880F880F860F382F3F70942F990F20
:1037B000990F940F50E19502C0011124832B81834E
:1037C00067FF02C08CE003C0662311F084E08487A9
:1037D00047FF02C0148604C0442311F088E08487A8
:1037E000222309F44BC08185811148C0EF018485F3
:1037F000811134C01D868A819B812AE030E0B901A5
:103800000E94E52D162F8C819D81B9010E94E52D26
:10381000FF24FA94F60E00E0CC24CA94C10EBB2417
:10382000B394B10EDF2CD01A6D2D812F0E9410267B
:10383000833091F46D2D8C2D0E941026E82E6D2D75
:103840008B2D0E9410260F5F9DEF9E0D923020F071
:103850009DEF980F923060F4098710C00E94442EAB
:1038600026E030E040E050E00E94DF2E698706C08D
:103870008111D8CF81508330A8F6EECFDF91CF9160
:103880001F910F91FF90EF90DF90CF90BF90089520
:10389000E1E7F0E080818D7F80831092910046986F
:1038A00047981092A1010895CF92DF92EF92FF9274
:1038B0000F931F93CF93DF930E94971B811520E8EE
:1038C000920751F4DF91CF911F910F91FF90EF90EC
:1038D000DF90CF900C94481C21E02093A10181300F
:1038E00020E8920751F480919F019091A00190935C
:1038F000A3018093A2010E94971B97FD05C0209110
:103900009E01222309F440C020919D0121113CC059
:1039100021E02093A501EC01DF77209769F481E095
:103920008093A60146983FE9C32E3FE0D32EE12CB9
:10393000F12CCAEFD0E014C08E0120E030E060E44A
:1039400072E48FE090E0A90198010E94DF2E6901E6
:103950007A0181E0C81AD108E108F1081092A601A5
:10396000E0912807F09129070995811103C081E0B2
:103970008093A6018091A501882309F43FC080911E
:10398000A60181113BC003C01092A501C4CF469986
:1039900035C0479A0E94971B009771F09C01DE0189
:1039A0000E94332FDC01CB0129E0B595A7959795AF
:1039B00087952A95D1F703C08FEF9FEFDC01109216
:1039C00090002AE020939100D0929900C092980034
:1039D0008093A7019093A801A093A901B093AA0195
:1039E00080917100826080937100DF91CF911F916F
:1039F0000F91FF90EF90DF90CF9008954798CACF36
:103A00001F920F920FB60F9211242F933F934F9353
:103A10005F936F937F938F939F93AF93BF93EF9336
:103A2000FF938091A7019091A801A091A901B09165
:103A3000AA01892B8A2B8B2B81F18091A601811100
:103A40000BC098B180E4892788B98091A5018823AB
:103A500019F088B1805888B98091A7019091A80188
:103A6000A091A901B091AA01181619061A061B0601
:103A7000B4F48091A7019091A801A091A901B091FF
:103A8000AA010197A109B1098093A7019093A80108
:103A9000A093A901B093AA0102C00E94541CFF91F7
:103AA000EF91BF91AF919F918F917F916F915F91B6
:103AB0004F913F912F910F900FBE0F901F9018952F
:103AC0009C01E1E7F0E090819D7F908381E080930D
:103AD000A4013093A3012093A2013093A00120936D
:103AE0009F010C94541C4F925F926F927F928F9221
:103AF0009F92AF92BF92CF92DF92EF92FF920F937D
:103B00001F93CF93DF9300D000D0CDB7DEB7DC0199
:103B10004115510509F4D8C0FA01F49031969491F9
:103B20004E5F5F4FCF2CD12C2223D9F0E1E0F0E0A3
:103B3000892F877011F4E0E0F0E0892F8695869553
:103B40008695E80FF11DEC9D8001ED9D100DFC9D0B
:103B5000100D1124209FF001219FF00D11244E0F14
:103B60005F1FF601EA0FFB1F1E161F060CF0ACC00C
:103B7000A038B1050CF0A8C09B01290F311D121609
:103B800013060CF0A1C0603471050CF09DC0411506
:103B9000510509F499C0062F0770B02E9B0177FFDD
:103BA00002C0295F3F4F83E0359527958A95E1F75D
:103BB000822F77FF04C0BB2011F08FEF820FB7FF79
:103BC00005C0222733272A1B3B0B02C020E030E030
:103BD000E038F10524F070E87A1B672E01C06F2CE5
:103BE000621A082F082E000C110B8F3F1CF4F02FC7
:103BF000F09501C0F0E0EE24E394692F677009F4BA
:103C0000E12CE92FE695E695E6959E2D9E0F090F8E
:103C1000111D0930110514F098E0981B6F2F680FE3
:103C20008901FF9E000D111D1124400F511F01E05D
:103C300010E00B2C02C0000F111F0A94E2F7EFEF07
:103C4000E09F7001E19FF00C1124E094F094FC825D
:103C5000EB82AC8070E86703A00DB11D11242A0F20
:103C60003B1F285D3C4F992E980E961669F1D9019D
:103C70002A01842D841B861508F5F2018490809E0C
:103C8000C001819E900D11249A83898367FD04C031
:103C90009C919E21892B8C93BB2059F067304CF46A
:103CA000CD0180589F4FFC0180808A207A80872830
:103CB0008082FFEF4F1A5F0A1196DBCF6F5F4C0DCA
:103CC0005D1D20583F4FD1CF0F900F900F900F9058
:103CD000DF91CF911F910F91FF90EF90DF90CF90E8
:103CE000BF90AF909F908F907F906F905F904F901C
:103CF0000895BC0180E090E00C9404248FB180957D
:103D0000807F669B88601C9B846008958038910545
:103D1000B8F460347105A0F490E121E061FD24E085
:103D200060FD220F62FD2295687F969FD0011124CD
:103D3000A80FA85DBC4F8C91822B40FF82278C93EB
:103D400008958091B60190E02091C0013091C101A9
:103D5000821B930B6AE070E00E94D12D9C0181E0F0
:103D6000232B09F080E008959091BC01981714F07E
:103D7000691714F48093BC0108951092B701109252
:103D8000C20182E08093B8011092C3018091B60114
:103D9000873160F08091C0019091C10189399F4FB6
:103DA0002CF01092B8018EEF8093C30108953F92DA
:103DB0004F925F926F927F928F929F92AF92BF923B
:103DC000CF92DF92EF92FF920F931F93CF93DF93E7
:103DD000CDB7DEB7142F902E3C88BE8830E020315E
:103DE000310508F028C1082D7E2D462E3C01F90131
:103DF000E658FF4F0C944E2FEE2029F0735072308E
:103E000010F010E001C011E046EF60E0C3010E9435
:103E10009B2693E099120FC1112309F40CC1811163
:103E20000AC146E065E0C3010E94B91B2B2D4EEF8D
:103E300060E0C3010E94C41B0FC140E06AE00E9421
:103E40009B2691E0D82ED926E12EF12CEFEFEE1A29
:103E5000FE0A512CA701B201882D0E94E425382EBC
:103E6000B2016F5F7F4FA7018A2D0E94E425F82ED3
:103E70008C2D0E944B28182F8A2D0E945428F4E084
:103E8000CF1205C0DD2019F04AE067E00DC094E0D4
:103E9000991211C01123C9F0882309F4D0C0DD2084
:103EA00009F4D4C044E061E0C3010E94B91B2B2D8A
:103EB00040E062E099C0E3E09E1207C0112329F0C0
:103EC000DD2019F046E065E0EFCF311093C0882384
:103ED00021F0112309F4AFC006C0112309F4ABC0CF
:103EE000FF2009F4A8C0DD2009F4A5C0DBCF4AE01B
:103EF00060E00E949B2691E0F82EF926412F50E0C9
:103F00004F5F5F4F642D70E0882D0E94E4250330E1
:103F100061F4FF2009F48FC04BEF6AEFC3010E94E8
:103F2000B91B2B2D42E060E05FC0882309F483C0F9
:103F3000FF2009F480C08BE0F30182872B2D42E043
:103F400060E0C3010E94C41B0750093008F075C02F
:103F50008FE1F301838771C040E066EF0E949B26EA
:103F600091E0582E5926E12EF12CFFEFEF1AFF0AAF
:103F7000C42CD12CA701B601882D0E94E425A82EBF
:103F8000B60161507109A701832D0E94E425F82E26
:103F90008D890E944B28182F832D0E9454289D89BB
:103FA000943029F4552019F049EF66EF17C0E4E08A
:103FB0009E120BC01123E1F0882309F444C0552060
:103FC00009F447C04FEF6CEF09C0F3E09F1210C037
:103FD000112371F0552061F046E065E0C3010E94B5
:103FE000B91B2B2D40E06EEFC3010E94C41B25C0FE
:103FF000AA20A1F08BE0F30182872B2D42E060E044
:10400000C3010E94C41B07500930B8F48FE1F301CB
:10401000838785E99CE10E94601D0FC0882329F0F9
:10402000112349F0552039F0CDCF112321F0FF2085
:1040300011F05110B9CF10E00FC011E00DC03320C6
:1040400009F44ECFD7CFAA2091F3D4CF332099F3E0
:10405000D1CFAA2081F3CECF812FDF91CF911F91B5
:104060000F91FF90EF90DF90CF90BF90AF909F9017
:104070008F907F906F905F904F903F900895CF9377
:10408000DF931F92CDB7DEB76983DC01ED91FC9120
:104090000280F381E02D41E050E0BE016F5F7F4F71
:1040A00009950F90DF91CF91089583E08093E90007
:1040B0008091F200882319F08AE38093E800089544
:1040C000FC018485958597FD0BC09FB7F89482E02D
:1040D0008093E9008091F2009FBF90E001960895DF
:1040E0009FB7F89482E08093E9008091F2009FBF2F
:1040F00090E008954091AE015091AF012091AC0144
:104100003091AD0142175307B4F49091E8009570D7
:10411000E1F39091E80092FD19C08093F100809145
:10412000AE019091AF0101968F739927892B19F4F5
:104130008EEF8093E8008091AE019091AF010196DF
:104140009093AF018093AE0181E0089580E00895DF
:10415000DF92EF92FF920F931F93CF93DF93D82EAE
:104160008A017B01E40EF51EEB01CE15DF0571F02F
:10417000D7FE03C0FE01849101C088810E947A208D
:1041800021968111F2CF8FEF9FEF01C0C801DF911F
:10419000CF911F910F91FF90EF90DF9008956150A4
:1041A00030F02091F100FC0120830196F8CF28988F
:1041B00084E68093B30108950E94642790E00895F7
:1041C0000F931F93CF93DF931F92CDB7DEB78C0170
:1041D000FC018485958597FF0EC0CE0101960E9453
:1041E0003627019719F4898190E002C08FEF9FEF85
:1041F000F80195878487F801848595850F90DF9174
:10420000CF911F910F910895CF93DF931F92CDB758
:10421000DEB7FC018485958597FD05C02FEF3FEF44
:10422000358724870BC0CE0101960E94362701975F
:1042300019F4898190E002C08FEF9FEF0F90DF911A
:10424000CF9108950F931F93CF93DF931F92CDB714
:10425000DEB782E0898342E450E063EA7CE180E8F3
:104260000E94A8200E94FB27DC0112960D911C9150
:1042700013970115110589F0D801ED91FC91028089
:10428000F381E02DBE016F5F7F4FC801099597FD57
:1042900004C0F80100851185ECCF89810F90DF9172
:1042A000CF911F910F9108951F920F920FB60F9209
:1042B00011248F939F938091E1009091E100937F6F
:1042C0009093E10083FF0FC01092E90091E090937A
:1042D000EB001092EC0092E39093ED001092B40189
:1042E00098E09093F00082FF20C093E09093E90063
:1042F0009091F200992319F09AE39093E80090913D
:10430000B101992339F09091B10191509093B1018D
:10431000992389F19091B301992339F09091B301D8
:1043200091509093B301992341F184FF10C0809183
:10433000E2008E7E81608093E2008091E1008F7EBA
:104340008093E1008091B2018E7E806111C080FF78
:1043500016C08091E2008E7E80618093E2008091A1
:10436000E1008E7E8093E1008091B2018E7E8160BB
:104370008093B20104C05D9ACDCF289AD6CF9F9189
:104380008F910F900FBE0F901F9018951F920F9254
:104390000FB60F921124CF92DF92EF92FF920F93FC
:1043A0001F932F933F934F935F936F937F938F93BD
:1043B0009F93AF93BF93EF93FF93CF93DF93CDB7CB
:1043C000DEB76C97DEBFCDBF1092E9008091E800A8
:1043D00083FFFBC168E0CE0145960E94CF2082EFAB
:1043E0008093E8008D8987FF05C09091E80090FFD9
:1043F000FCCF03C09EEF9093E800982F907609F0D1
:10440000C6C09E894F89588D2F89F88C91110CC098
:10441000803829F48091AB018093F10002C01092A2
:10442000F1001092F10045C1913051F4811141C168
:104430004130510509F03DC18091AB018D7F0BC02A
:10444000933061F4811135C14130510509F031C11A
:104450008091AB0182608093AB012BC1953049F410
:104460008091E80080FFFCCF822F80688093E3007A
:1044700020C1963009F05EC00B8D1C8D22E0109299
:10448000E9001092AF011092AE01F21232C0109208
:10449000AD011092AC010E94222199E0BE016F5F34
:1044A0007F4FDB01E92F1D92EA95E9F79983FA82A4
:1044B00091E09E8390EA98879AEF99872091AE01C8
:1044C0003091AF01275F3F4F3C832B838D83109248
:1044D000E9001092AF011092AE011093AD0100936C
:1044E000AC0149E050E080E00E94A8200E94222117
:1044F000E0C01093AD010093AC010E94FB27DC01EA
:1045000012960D911C9113970115110509F4BBC06A
:10451000D801ED91FC910480F581E02DBE016B5E28
:104520007F4FC8010995009709F0C7C0F8010085C1
:104530001185EACF973009F445C1983021F481E024
:104540008093F100B6C0993009F0B3C0837009F0D0
:1045500039C1E9E7F1E081E031E096E32081211102
:1045600009C08EE78093EA001092EA008F89809359
:10457000B4019FC08093E9003093EB002191209318
:10458000EC009093ED008F5F873041F7EACF8B8D81
:104590009C8D1092E9001092AF011092AE019093A1
:1045A000AD018093AC01898D811153C08E899D89A5
:1045B000913A49F4813209F005C147E050E065E0E5
:1045C00071E080E0BBC0913209F0FCC0833269F435
:1045D0008F89988DA0E0B0E0809301019093020153
:1045E000A0930301B093040164C0803269F4809108
:1045F000E80082FFFCCF67E085E091E00E94CF20D9
:104600008BEF8093E80055C0823209F052C08F8949
:1046100080930C01EEEFFFE7859194918B3F9C4DC9
:1046200019F0E0E0F8E002C0EEEFFAE08091050159
:1046300090910601A0910701B0910801803B944040
:10464000A105B10509F09EC080910C0180FF79C0E1
:1046500099C00E94FB27FC010281138101151105FD
:1046600009F4B0C0D801ED91FC910190F081E02DEA
:10467000BE016B5E7F4FC801099581111AC0F80118
:1046800000851185EBCFF1E0FF1609F44EC0F3E091
:10469000FF1298C08F89882309F44AC0823089F4B8
:1046A00040E867E087E09DE10E94502D882309F4EF
:1046B00089C08EEF8093E80088C018161906CCF3E5
:1046C00081C0813029F440E86BE08BEF9CE1ECCFB6
:1046D000833009F077C00E94FB27DC011296ED9031
:1046E000FC9013978E010F5F1F4F6801E114F104D6
:1046F00079F0D701ED91FC910680F781E02DB801AA
:10470000C7010995080F111DF701E084F184EECF70
:10471000D8011C92F60101900020E9F73197BF0102
:104720006C197D0940E0C601BFCF69EE7CE102C093
:1047300065EE7CE1FB01449150E080E80E94A820F6
:10474000B8CFEE3F2AE0F20751F0808191818737A0
:10475000A7E79A0721F09093FF0A8093FE0A87E764
:1047600097E791838083809160008093B0019BE004
:1047700088E10FB6F894A895809360000FBE9093DF
:10478000600097CF808191818737974709F091CF5B
:10479000A895809160008861809360008091B0014D
:1047A00080936000EE3FBAE0FB0739F08091FE0A8B
:1047B0009091FF0A918380837CCF1092FF0A109220
:1047C000FE0A77CF81E28093EB006C960FB6F894E7
:1047D000DEBF0FBECDBFDF91CF91FF91EF91BF91B3
:1047E000AF919F918F917F916F915F914F913F9189
:1047F0002F911F910F91FF90EF90DF90CF900F902E
:104800000FBE0F901F9018958F929F92AF92BF92FC
:10481000CF92DF92EF92FF926B017C010E94A4285D
:104820004B015C01C114D104E104F104F1F00E94D8
:10483000A428DC01CB0188199909AA09BB09883E83
:104840009340A105B10570F321E0C21AD108E10837
:10485000F10888EE880E83E0981EA11CB11CC114DB
:10486000D104E104F10419F7DDCFFF90EF90DF9060
:10487000CF90BF90AF909F908F9008952F923F92CE
:104880004F925F926F927F928F929F92AF92BF9260
:10489000CF92DF92EF92FF920F931F93CF93DF930C
:1048A000CDB7DEB72F970FB6F894DEBF0FBECDBFE2
:1048B0004C017B012C870D875A8349831C821B8204
:1048C0001D821E8268E070E0CE0101960E945F2882
:1048D0001C019C012F5F3F4F3B872A8768E070E0F7
:1048E000CE0101960E945F288C0161E070E0CE014C
:1048F00001960E945F282A853B85280D391D37FDCA
:10490000F5C030E8831691040CF0F0C00F5F1F4F24
:1049100098012E0D3F1D37FDE9C040E4E416F10477
:104920000CF0E4C06701F7FE04C0CC24DD24CE18EF
:10493000DF0857E0C522DD249701F7FE02C0295F9A
:104940003F4F390123E0759467942A95E1F7F7FE0C
:1049500009C091E0691A710828E030E0A9014C19FA
:104960005D096A01980117FF02C0295F3F4F2901C5
:1049700093E0559447949A95E1F707701127012B1E
:1049800019F05FEF451A550A0D85002311F07101EA
:1049900002C0E12CF12C898701E010E0A12CB12CA0
:1049A00088E090E09C012C193D093F872E87A414D4
:1049B000B5040CF09BC041E050E058874F8361E0A4
:1049C00070E0CE0101960E945F28892B31F48F811F
:1049D0009885029698878F83F2CF6F817885CE0174
:1049E00001960E945F28DC01119640E050E04A17D2
:1049F0005B0708F072C099859111102B000F09F028
:104A000069C093012A0D3B1DC9010196099708F061
:104A100043C0C4018E0D9F1D80389105E8F5B90192
:104A20007695762F662777956795680D791D6E0DBB
:104A30007F1D2F3F0FEF300709F454C0812F0C2C3E
:104A400001C0880F0A94EAF7FB01E85DFC4F0C8572
:104A5000002319F09081892B03C0809590818923D0
:104A60008083C114D104C1F027303105A9F0812F12
:104A700090E00E8402C0959587950A94E2F7FB01B9
:104A8000E855FC4F2C85222319F01081812B03C09F
:104A900080951081812380830D85011110C02FEF37
:104AA000E21AF20A8A859B85E816F9068CF09FEFD8
:104AB000A91AB90A01E010E0E12CF12C0BC001E0C9
:104AC000E01AF108F7FE04C02FEFA21AB20A710132
:104AD00001E010E04F5F5F4F8ACF398541E0342716
:104AE000398765CFC114D10411F6D6CF2F960FB6F2
:104AF000F894DEBF0FBECDBFDF91CF911F910F9114
:104B0000FF90EF90DF90CF90BF90AF909F908F90ED
:104B10007F906F905F904F903F902F9008958150BD
:104B2000833008F18AE0869F9001879F300D112421
:104B3000849FB001859F700D1124E4EDF2E0808127
:104B400084FF0AC0828193818217930729F48481AC
:104B500095818617970739F03E9683E0E832F8078B
:104B600071F780E0089581E00895873028F484305B
:104B700038F5882329F126C0803120F58AE0869F08
:104B80009001879F300D1124849FB001859F700D87
:104B90001124E4EDF2E0808184FF0DC082858B302A
:104BA00051F4828193818217930729F4848195813E
:104BB0008617970739F03E9683E0E832F80759F7F1
:104BC00081E0089580E00895853031F118F488235C
:104BD00019F124C08750883008F58AE0869F90013B
:104BE000879F300D1124849FB001859F700D112483
:104BF000E4EDF2E0808184FF0AC082819381821714
:104C0000930729F4848195818617970739F03E969A
:104C100083E0E832F80771F781E0089580E00895B5
:104C20008C31F8F46F3FF9F06031F8F4982F9695D5
:104C300070E080FD0BC080E1989F600D711D112414
:104C4000FB01E254FE4F8681829509C080E1989F66
:104C5000600D711D1124FB01E254FE4F86818F709F
:104C6000089581E0089580E0089582E00895982FE6
:104C70009695E62FF0E080FD0EC080E1989FE00D54
:104C8000F11D1124E254FE4F86818F7090E1499FFF
:104C9000A001112409C080E1989FE00DF11D1124AD
:104CA000E254FE4F8681807F482B46830895CF9340
:104CB000DF9382EB90E00E949B2E8093A40283EB13
:104CC00090E00E949B2EC5EBD1E08E8384EB90E0B8
:104CD0000E94A32E9D838C83DF91CF9108951F9313
:104CE000CF93DF93C091A4026C2F82EB90E00E94DF
:104CF000A92E6C2F87EB90E00E94A92EC5EBD1E086
:104D00001E81612F83EB90E00E94A92E612F88EB1A
:104D100090E00E94A92E0C80DD81C02DBE0184EBA5
:104D200090E00E94BB2EBE0189EB90E0DF91CF9115
:104D30001F910C94BB2EEF92FF920F931F93CF9372
:104D4000DF93DC01E4EDF2E088E293E0062E000C54
:104D5000770B042E000C550B208124FF1EC02F70F2
:104D60003C913F702317C9F01181212F2F70C28110
:104D7000D381C20FD11D12962D913C911397260F0E
:104D8000371F7E010AE0E00EF11C2E153F052CF4C2
:104D9000265F3F4FC217D30734F03E968E179F070A
:104DA000D9F680E019C012951F70C481D581C10F5A
:104DB000D11D14962D913C911597240F351F7E011E
:104DC0000AE0E00EF11C2E153F053CF7265F3F4F31
:104DD000C217D30714F781E0DF91CF911F910F9194
:104DE000FF90EF9008958091B60190E02091C0016E
:104DF0003091C101821B930B2AE030E0B9010E947F
:104E0000D12D863020F0A901481B5109CA0121E0AB
:104E100005970CF020E0822F0895CF92DF92EF9259
:104E200020916607822F90E0FC01EE0FFF1F8E0F8E
:104E30009F1FFC01E65DF84FC080D180E2808FEFBC
:104E4000820F80936607EAE2F7E090E0981740F45B
:104E50002381348145812193319341939F5FF6CF24
:104E60008E2DB601EF90DF90CF9008952091B40180
:104E7000211103C08FEF9FEF08955FB7F89422E0F0
:104E80002093E9002091F20030E01216130614F48A
:104E900021E030E0422FFC0184E6415038F02898B0
:104EA0008093B3019091F1009193F7CF21153105D3
:104EB00021F08091F200882319F05FBFC9010895A5
:104EC0008BE68093E800F9CF2FB7F89483E08093C6
:104ED000E9009091E800892F807295FF04C09091BD
:104EE000F20080E4891B2FBF08958F929F92AF92AA
:104EF000BF92CF92DF92EF92FF920F931F93CF93C7
:104F0000DF936C017B018A0180910C01882309F4F5
:104F10005CC08091B401882309F457C08091B2012C
:104F200080FF05C08091E00082608093E000E8018E
:104F3000B12C8AEFA82E93E0892E2AE3922E209797
:104F400011F4BB20D9F10E94642781110AC0AA94F0
:104F5000AA20D9F161E070E080E090E00E94042492
:104F6000EECF282F30E0C217D3070CF48C2F9FB759
:104F7000F8948092E9002091E80025FF1DC0282FB9
:104F800030E0C21BD30BF701815020F041914093D8
:104F9000F100FACFE20EF31EBB2019F09092E80068
:104FA0000AC08091E80085FD07C09092E800BB240C
:104FB000B394209709F0B12C9FBFC1CF5D9884E6D0
:104FC0008093B1011016110644F081E090E0F601E3
:104FD0009383828380E090E001C0C801DF91CF918C
:104FE0001F910F91FF90EF90DF90CF90BF90AF9007
:104FF0009F908F9008958091760781110DC082E077
:105000008093720784E08093730710927507109263
:10501000740781E08093760782E797E00895CF9345
:10502000DF93D82F8FEA90E00E949B2EC82F80EB51
:1050300090E00E949B2ED11104C0CC3411F4823533
:1050400039F16CE48FEA90E00E94A92E62E580EBD2
:1050500090E00E94A92E86EB90E00E949B2E682F84
:1050600081EB90E00E94A92E87EB90E00E949B2E9E
:10507000682F82EB90E00E94A92E88EB90E00E94BE
:105080009B2E682F83EB90E0DF91CF910C94A92E9B
:10509000DF91CF910895882329F083508D3010F04F
:1050A00080E0089581E00895813028F0843028F070
:1050B0008750893010F080E0089581E008951F93B3
:1050C000CF93DF93DC0120E030E040E050E011E0DE
:1050D000C1E0D0E02617370791F114968C91149710
:1050E000811115C014961C93149712968D919C9162
:1050F0001397ED91FC911197E80FF91FE491159624
:10510000EC931597019613969C938E931297149691
:105110009C91149715968C911597892349F0FE015F
:10512000022E02C0EE0FFF1F0A94E2F74E2B5F2BF8
:10513000990F14969C9314972F5F3F4FCBCFCA01C2
:10514000DF91CF911F9108953FB7F8948091E107C7
:105150009091E207A091E307B091E40726B5A89BE0
:1051600005C02F3F19F00196A11DB11D3FBFBA2FF9
:10517000A92F982F8827820F911DA11DB11DBC0159
:10518000CD0142E0660F771F881F991F4A95D1F71E
:1051900008951F920F920FB60F9211242F933F93F1
:1051A0008F939F93AF93BF938091DC079091DD071E
:1051B000A091DE07B091DF073091E00723E0230FD5
:1051C0002D3720F40196A11DB11D05C026E8230F3F
:1051D0000296A11DB11D2093E0078093DC079093F8
:1051E000DD07A093DE07B093DF078091E107909180
:1051F000E207A091E307B091E4070196A11DB11D5C
:105200008093E1079093E207A093E307B093E4074C
:10521000BF91AF919F918F913F912F910F900FBEB2
:105220000F901F9018958091BB0181508093BB0116
:1052300096E090930001811102C088E001C08AE0ED
:105240008093BD018FE09DE10C94601DCF93DF93AF
:10525000CDB7DEB727970FB6F894DEBF0FBECDBF30
:10526000789484B5826084BD84B5816084BD85B541
:10527000826085BD85B5816085BD80916E0081604D
:1052800080936E00109281008091810082608093F3
:1052900081008091810081608093810080918000F5
:1052A0008160809380008091910082608093910062
:1052B0008091910081608093910080919000816045
:1052C000809390008091C10084608093C1008091A0
:1052D000C10082608093C1008091C1008160809391
:1052E000C1008091C30081608093C3008091C000A1
:1052F00082608093C0008091C20081608093C20070
:1053000080917A00846080937A0080917A00826034
:1053100080937A0080917A00816080937A008091F6
:105320007A00806880937A001092B4011092AB01E9
:105330001092B2018091D70081608093D70080EAFB
:105340008093D80089B5806189BD89B5826089BDA7
:1053500009B400FEFDCF61E070E080E090E00E94C3
:1053600004248091D8008F7C80618093D800809144
:10537000E000807F8093E0008091E1008E7E80934A
:10538000E1008DE08093E200559A209A81EC8093B1
:105390007C0085B1806F85B984B1877E84B984B182
:1053A000876E84B95E9A5F988AB1806D8AB9769A61
:1053B0006E9881B3806F81BB899880B38D7080BBFC
:1053C00080E58CBD81E08DBD85E090E00E94791E76
:1053D0005F9A85E090E00E94791E5E985C98E5ED0A
:1053E000F8E184918EBD00000DB407FEFDCF31962B
:1053F00048E1E23EF407A9F75C9A81E880936400F3
:10540000809165008160809365000E947E1E87FF09
:1054100024C05C9885EA8EBD00000DB407FEFDCF68
:105420005C9A2E982F982D988091640080628093CA
:10543000640081E083BF889513BEFCCF2D980E9445
:105440007E1E8478843871F00E947E1E84718431BF
:1054500029F188EC90E00E94791E0E947E1E82FD58
:10546000EDCF38C02D9A88EC90E00E94791E2F98DD
:1054700082E090E00E949B2E8F3F29F06FEF82E048
:1054800090E00E94C12E84EF91E00E94791E2F9A35
:105490000E947E1E84788438D9F3D6CF2D9A88EC6A
:1054A00090E00E94791E2E9882E090E00E949B2E50
:1054B000882329F060E082E090E00E94C12E84EF12
:1054C00091E00E94791E2E9A0E947E1E8471843182
:1054D000D9F3BFCF2D9A88E280936E078091640044
:1054E0008E7F8093640080917A00806480937A003C
:1054F00080917A0086FDFCCF0091780010917900B0
:105500000E94A42820E030E0980111270027600FB6
:10551000711F821F931F20916400216020936400FB
:10552000611571058105910511F00E94922E82E0AE
:1055300090E00E949B2E882331F03E9A3F9A81E0B2
:1055400080939B0104C010929B013E983F9880E09D
:105550000E940F280E94572684E18093B50183E2C0
:105560008093B6011092BC0181E08093BD0187E079
:10557000EDE3F1E0DE01119601900D928A95E1F7DD
:1055800081EB90E00E949B2E823040F4E1E0F0E05D
:10559000EC0FFD1FE80FF11D808103C0823019F070
:1055A00081E1809300012BE3222E312C38E9432E38
:1055B00055245A9447E6642E77247A94DD24D394B4
:1055C00097E0A92E8FB7F8944091DC075091DD0742
:1055D0006091DE077091DF078FBF80916F07942F76
:1055E000981B892F90917007992329F08093710758
:1055F0001092700743C290916E07891740F48F5F35
:10560000891708F03BC2D3BE889513BE37C2D0922B
:10561000700740936F0780916A0790916B0701961E
:1056200090936B0780936A0780916C0780936D0756
:105630000E947E1E80936C07E09100018E2F90E007
:10564000FC013197E131F10508F00AC2E759FF4F3B
:105650000C944E2F83EB90E00E949B2E10919C01A6
:10566000853009F012C282EB90E00E949B2E8130BF
:1056700009F00BC2612F660F660F160F185EFF242C
:10568000F3944BE55CE168E170E000E021E086E244
:1056900090E00E943E24612F70E021E04FE85CE141
:1056A0008FE190E00E943E2400E010E021E040EA1B
:1056B0005AE160E070E0C8010E94731D21E040EAF9
:1056C0005AE167E370E0C8010E94731D065F1F4F37
:1056D0000238110559F780916D07809590916C07FC
:1056E0008923F11011C087FF07C090919C01992375
:1056F00019F0915090939C0184FF06C090919C01F9
:10570000911102C0D0929C0183FFAAC180919C019B
:10571000882329F0813009F0A3C10E940F280E943C
:10572000572682E0809300019BC10E94481C809113
:105730006607882319F00E940D27F9CFE091A40293
:10574000F0E0EE0FFF1FEE5EFE4F20813181D09220
:10575000BC01F9018491FAE08F9FC0011124F90185
:105760003196E4914AE0E49FF00111248B339105D6
:105770002CF41092BF011092BE0116C0AC014B5325
:1057800051094E35510558F44BE34093B501B10131
:10579000681B790B7093BF016093BE0107C07092C4
:1057A000BF016092BE0189598093B501E731F105CF
:1057B0002CF41092C1011092C00116C0CF0147977E
:1057C0008235910560F487E18093B60187E190E02E
:1057D0008E1B9F0B9093C1018093C00107C0509214
:1057E000C1014092C001E856E093B601F90132963A
:1057F0001491A4EDB2E043E050E070E06C91607F62
:10580000672B6C9318961C9218977117E8F4F9019E
:10581000E40FF51FE4918AE0E89FF001112413964C
:10582000FC93EE931297FA013196E20FF31F4E5F4D
:105830005F4FE491FAE0EF9FC001112415969C930D
:105840008E93149760616C937F5F1E967630B1F6ED
:10585000CA010196F901E40FF51F54915093A60275
:10586000A8EAB2E010E0BF016E5F7F4F511759F018
:105870003196E491EC93FB01449111964C9311976E
:105880001F5F1296F0CF850F911D850F911DA90105
:10589000480F591FACECB2E0FA0164916C93319659
:1058A000E4911196EC9311974E5F5F4F129664ED61
:1058B00072E06A177B0781F74C0179E0870E911C33
:1058C000FC013896E20FF31FC490E2E0CE1621F0FF
:1058D00000E010E040E067C0AEEBB1E07C01F0EE2C
:1058E000EF0EF11C40E08D0160E070E04C0159E0EA
:1058F000850E911CF401E60FF71FE20FF31F549180
:10590000E52FF0E0689413F8F595E7951694E1F724
:10591000E63009F44F5FE52FEF70E63009F44F5F92
:10592000F80156836F5F7F4F005F1F4F6E30710528
:1059300009F711960E968E159F05A9F670C0EE23F5
:1059400009F46DC05FEF851A950ABF2EB294B0EFCF
:10595000BB227801C11038C0C7016CE170E00E9421
:10596000E52D969587957727A4E0880F991FAA952E
:10597000E1F782549E4FDC01A60FB71F16965C918B
:105980001697E0FC1EC05F705B2916965C938FEF44
:10599000E81AF80A8E2D801B8E17E0F2E150F0E035
:1059A00031960E0F1F1FF901E80DF91DE491FE2F2E
:1059B000F295F695F770EF71F63009F0C0CF4E0F03
:1059C000BECF507F5F2BE1CFB70184E0769567951E
:1059D0008A95E1F7562F56958E2D8F7090E060FDD9
:1059E0000EC060E1569F800D911D1124DC01A25470
:1059F000BE4F16968C9116978F708B290DC070E153
:105A0000579F800D911D1124DC01A254BE4F1696A4
:105A10008C911697807F8F2B16968C93B8CF4093DE
:105A2000A50283E08093000105C0A092000102C09E
:105A30000E946F260E94CC0E13C000E021E04FEAC6
:105A400059E164E170E083E190E008C000E021E00A
:105A500042EE58E167E170E084E190E00E943E246C
:105A6000E8E2F3E080E098E000800EBCD110012C69
:105A7000019780FDFDCF0192B9F70DB4E0E0F0E0B1
:105A8000309709F49FCD099599CD110F612F660FBD
:105A9000660F160F1D5EF12C42EE5BE163E1F4CD63
:105AA000DF92EF92FF920F931F93CF93DF93D82E45
:105AB000F92EE42E062F10E0C8010196880F0E94EF
:105AC0007A2083E00E947A20CD2DDF2D0C0F1D1F40
:105AD000C017D10789F0E7FE03C0FE01849101C021
